{
  "contractName": "ERC20Token",
  "abi": [
    {
      "inputs": [
        {
          "internalType": "string",
          "name": "name",
          "type": "string"
        },
        {
          "internalType": "string",
          "name": "symbol",
          "type": "string"
        }
      ],
      "stateMutability": "nonpayable",
      "type": "constructor"
    },
    {
      "anonymous": false,
      "inputs": [
        {
          "indexed": true,
          "internalType": "address",
          "name": "owner",
          "type": "address"
        },
        {
          "indexed": true,
          "internalType": "address",
          "name": "spender",
          "type": "address"
        },
        {
          "indexed": false,
          "internalType": "uint256",
          "name": "value",
          "type": "uint256"
        }
      ],
      "name": "Approval",
      "type": "event"
    },
    {
      "anonymous": false,
      "inputs": [
        {
          "indexed": true,
          "internalType": "address",
          "name": "from",
          "type": "address"
        },
        {
          "indexed": true,
          "internalType": "address",
          "name": "to",
          "type": "address"
        },
        {
          "indexed": false,
          "internalType": "uint256",
          "name": "value",
          "type": "uint256"
        }
      ],
      "name": "Transfer",
      "type": "event"
    },
    {
      "inputs": [
        {
          "internalType": "address",
          "name": "owner",
          "type": "address"
        },
        {
          "internalType": "address",
          "name": "spender",
          "type": "address"
        }
      ],
      "name": "allowance",
      "outputs": [
        {
          "internalType": "uint256",
          "name": "",
          "type": "uint256"
        }
      ],
      "stateMutability": "view",
      "type": "function"
    },
    {
      "inputs": [
        {
          "internalType": "address",
          "name": "spender",
          "type": "address"
        },
        {
          "internalType": "uint256",
          "name": "amount",
          "type": "uint256"
        }
      ],
      "name": "approve",
      "outputs": [
        {
          "internalType": "bool",
          "name": "",
          "type": "bool"
        }
      ],
      "stateMutability": "nonpayable",
      "type": "function"
    },
    {
      "inputs": [
        {
          "internalType": "address",
          "name": "account",
          "type": "address"
        }
      ],
      "name": "balanceOf",
      "outputs": [
        {
          "internalType": "uint256",
          "name": "",
          "type": "uint256"
        }
      ],
      "stateMutability": "view",
      "type": "function"
    },
    {
      "inputs": [
        {
          "internalType": "uint256",
          "name": "amount",
          "type": "uint256"
        }
      ],
      "name": "burn",
      "outputs": [],
      "stateMutability": "nonpayable",
      "type": "function"
    },
    {
      "inputs": [
        {
          "internalType": "address",
          "name": "account",
          "type": "address"
        },
        {
          "internalType": "uint256",
          "name": "amount",
          "type": "uint256"
        }
      ],
      "name": "burnFrom",
      "outputs": [],
      "stateMutability": "nonpayable",
      "type": "function"
    },
    {
      "inputs": [],
      "name": "cap",
      "outputs": [
        {
          "internalType": "uint256",
          "name": "",
          "type": "uint256"
        }
      ],
      "stateMutability": "view",
      "type": "function"
    },
    {
      "inputs": [],
      "name": "decimals",
      "outputs": [
        {
          "internalType": "uint8",
          "name": "",
          "type": "uint8"
        }
      ],
      "stateMutability": "view",
      "type": "function"
    },
    {
      "inputs": [
        {
          "internalType": "address",
          "name": "spender",
          "type": "address"
        },
        {
          "internalType": "uint256",
          "name": "subtractedValue",
          "type": "uint256"
        }
      ],
      "name": "decreaseAllowance",
      "outputs": [
        {
          "internalType": "bool",
          "name": "",
          "type": "bool"
        }
      ],
      "stateMutability": "nonpayable",
      "type": "function"
    },
    {
      "inputs": [
        {
          "internalType": "address",
          "name": "spender",
          "type": "address"
        },
        {
          "internalType": "uint256",
          "name": "addedValue",
          "type": "uint256"
        }
      ],
      "name": "increaseAllowance",
      "outputs": [
        {
          "internalType": "bool",
          "name": "",
          "type": "bool"
        }
      ],
      "stateMutability": "nonpayable",
      "type": "function"
    },
    {
      "inputs": [],
      "name": "name",
      "outputs": [
        {
          "internalType": "string",
          "name": "",
          "type": "string"
        }
      ],
      "stateMutability": "view",
      "type": "function"
    },
    {
      "inputs": [],
      "name": "symbol",
      "outputs": [
        {
          "internalType": "string",
          "name": "",
          "type": "string"
        }
      ],
      "stateMutability": "view",
      "type": "function"
    },
    {
      "inputs": [],
      "name": "totalSupply",
      "outputs": [
        {
          "internalType": "uint256",
          "name": "",
          "type": "uint256"
        }
      ],
      "stateMutability": "view",
      "type": "function"
    },
    {
      "inputs": [
        {
          "internalType": "address",
          "name": "recipient",
          "type": "address"
        },
        {
          "internalType": "uint256",
          "name": "amount",
          "type": "uint256"
        }
      ],
      "name": "transfer",
      "outputs": [
        {
          "internalType": "bool",
          "name": "",
          "type": "bool"
        }
      ],
      "stateMutability": "nonpayable",
      "type": "function"
    },
    {
      "inputs": [
        {
          "internalType": "address",
          "name": "sender",
          "type": "address"
        },
        {
          "internalType": "address",
          "name": "recipient",
          "type": "address"
        },
        {
          "internalType": "uint256",
          "name": "amount",
          "type": "uint256"
        }
      ],
      "name": "transferFrom",
      "outputs": [
        {
          "internalType": "bool",
          "name": "",
          "type": "bool"
        }
      ],
      "stateMutability": "nonpayable",
      "type": "function"
    },
    {
      "inputs": [
        {
          "internalType": "address",
          "name": "account",
          "type": "address"
        },
        {
          "internalType": "uint256",
          "name": "amount",
          "type": "uint256"
        }
      ],
      "name": "mint",
      "outputs": [],
      "stateMutability": "nonpayable",
      "type": "function"
    }
  ],
  "bytecode": "0x60a06040523480156200001157600080fd5b506040516200101838038062001018833981016040819052620000349162000224565b614e208282816003908051906020019062000051929190620000cb565b50805162000067906004906020840190620000cb565b50505060008111620000bf5760405162461bcd60e51b815260206004820152601560248201527f45524332304361707065643a2063617020697320300000000000000000000000604482015260640160405180910390fd5b60805250620002de9050565b828054620000d9906200028b565b90600052602060002090601f016020900481019282620000fd576000855562000148565b82601f106200011857805160ff191683800117855562000148565b8280016001018555821562000148579182015b82811115620001485782518255916020019190600101906200012b565b50620001569291506200015a565b5090565b5b808211156200015657600081556001016200015b565b600082601f83011262000182578081fd5b81516001600160401b03808211156200019f576200019f620002c8565b604051601f8301601f19908116603f01168101908282118183101715620001ca57620001ca620002c8565b81604052838152602092508683858801011115620001e6578485fd5b8491505b83821015620002095785820183015181830184015290820190620001ea565b838211156200021a57848385830101525b9695505050505050565b6000806040838503121562000237578182fd5b82516001600160401b03808211156200024e578384fd5b6200025c8683870162000171565b9350602085015191508082111562000272578283fd5b50620002818582860162000171565b9150509250929050565b600281046001821680620002a057607f821691505b60208210811415620002c257634e487b7160e01b600052602260045260246000fd5b50919050565b634e487b7160e01b600052604160045260246000fd5b608051610d17620003016000396000818161017101526109c30152610d176000f3fe608060405234801561001057600080fd5b50600436106100f55760003560e01c806340c10f191161009757806395d89b411161006657806395d89b41146101f6578063a457c2d7146101fe578063a9059cbb14610211578063dd62ed3e14610224576100f5565b806340c10f19146101a857806342966c68146101bd57806370a08231146101d057806379cc6790146101e3576100f5565b806323b872dd116100d357806323b872dd1461014d578063313ce56714610160578063355274ea1461016f5780633950935114610195576100f5565b806306fdde03146100fa578063095ea7b31461011857806318160ddd1461013b575b600080fd5b61010261025d565b60405161010f9190610c0e565b60405180910390f35b61012b610126366004610bcd565b6102ef565b604051901515815260200161010f565b6002545b60405190815260200161010f565b61012b61015b366004610b92565b610305565b6040516012815260200161010f565b7f000000000000000000000000000000000000000000000000000000000000000061013f565b61012b6101a3366004610bcd565b6103bb565b6101bb6101b6366004610bcd565b6103f2565b005b6101bb6101cb366004610bf6565b610400565b61013f6101de366004610b3f565b61040d565b6101bb6101f1366004610bcd565b61042c565b6101026104b4565b61012b61020c366004610bcd565b6104c3565b61012b61021f366004610bcd565b61055e565b61013f610232366004610b60565b6001600160a01b03918216600090815260016020908152604080832093909416825291909152205490565b60606003805461026c90610c90565b80601f016020809104026020016040519081016040528092919081815260200182805461029890610c90565b80156102e55780601f106102ba576101008083540402835291602001916102e5565b820191906000526020600020905b8154815290600101906020018083116102c857829003601f168201915b5050505050905090565b60006102fc33848461056b565b50600192915050565b6000610312848484610690565b6001600160a01b03841660009081526001602090815260408083203384529091529020548281101561039c5760405162461bcd60e51b815260206004820152602860248201527f45524332303a207472616e7366657220616d6f756e74206578636565647320616044820152676c6c6f77616e636560c01b60648201526084015b60405180910390fd5b6103b085336103ab8685610c79565b61056b565b506001949350505050565b3360008181526001602090815260408083206001600160a01b038716845290915281205490916102fc9185906103ab908690610c61565b6103fc8282610868565b5050565b61040a3382610872565b50565b6001600160a01b0381166000908152602081905260409020545b919050565b60006104388333610232565b9050818110156104965760405162461bcd60e51b8152602060048201526024808201527f45524332303a206275726e20616d6f756e74206578636565647320616c6c6f77604482015263616e636560e01b6064820152608401610393565b6104a583336103ab8585610c79565b6104af8383610872565b505050565b60606004805461026c90610c90565b3360009081526001602090815260408083206001600160a01b0386168452909152812054828110156105455760405162461bcd60e51b815260206004820152602560248201527f45524332303a2064656372656173656420616c6c6f77616e63652062656c6f77604482015264207a65726f60d81b6064820152608401610393565b61055433856103ab8685610c79565b5060019392505050565b60006102fc338484610690565b6001600160a01b0383166105cd5760405162461bcd60e51b8152602060048201526024808201527f45524332303a20617070726f76652066726f6d20746865207a65726f206164646044820152637265737360e01b6064820152608401610393565b6001600160a01b03821661062e5760405162461bcd60e51b815260206004820152602260248201527f45524332303a20617070726f766520746f20746865207a65726f206164647265604482015261737360f01b6064820152608401610393565b6001600160a01b0383811660008181526001602090815260408083209487168084529482529182902085905590518481527f8c5be1e5ebec7d5bd14f71427d1e84f3dd0314c0f7b2291e5b200ac8c7c3b92591015b60405180910390a3505050565b6001600160a01b0383166106f45760405162461bcd60e51b815260206004820152602560248201527f45524332303a207472616e736665722066726f6d20746865207a65726f206164604482015264647265737360d81b6064820152608401610393565b6001600160a01b0382166107565760405162461bcd60e51b815260206004820152602360248201527f45524332303a207472616e7366657220746f20746865207a65726f206164647260448201526265737360e81b6064820152608401610393565b6001600160a01b038316600090815260208190526040902054818110156107ce5760405162461bcd60e51b815260206004820152602660248201527f45524332303a207472616e7366657220616d6f756e7420657863656564732062604482015265616c616e636560d01b6064820152608401610393565b6107d88282610c79565b6001600160a01b03808616600090815260208190526040808220939093559085168152908120805484929061080e908490610c61565b92505081905550826001600160a01b0316846001600160a01b03167fddf252ad1be2c89b69c2b068fc378daa952ba7f163c4a11628f55a4df523b3ef8460405161085a91815260200190565b60405180910390a350505050565b6103fc82826109c1565b6001600160a01b0382166108d25760405162461bcd60e51b815260206004820152602160248201527f45524332303a206275726e2066726f6d20746865207a65726f206164647265736044820152607360f81b6064820152608401610393565b6001600160a01b038216600090815260208190526040902054818110156109465760405162461bcd60e51b815260206004820152602260248201527f45524332303a206275726e20616d6f756e7420657863656564732062616c616e604482015261636560f01b6064820152608401610393565b6109508282610c79565b6001600160a01b0384166000908152602081905260408120919091556002805484929061097e908490610c79565b90915550506040518281526000906001600160a01b038516907fddf252ad1be2c89b69c2b068fc378daa952ba7f163c4a11628f55a4df523b3ef90602001610683565b7f0000000000000000000000000000000000000000000000000000000000000000816109ec60025490565b6109f69190610c61565b1115610a445760405162461bcd60e51b815260206004820152601960248201527f45524332304361707065643a20636170206578636565646564000000000000006044820152606401610393565b6103fc82826001600160a01b038216610a9f5760405162461bcd60e51b815260206004820152601f60248201527f45524332303a206d696e7420746f20746865207a65726f2061646472657373006044820152606401610393565b8060026000828254610ab19190610c61565b90915550506001600160a01b03821660009081526020819052604081208054839290610ade908490610c61565b90915550506040518181526001600160a01b038316906000907fddf252ad1be2c89b69c2b068fc378daa952ba7f163c4a11628f55a4df523b3ef9060200160405180910390a35050565b80356001600160a01b038116811461042757600080fd5b600060208284031215610b50578081fd5b610b5982610b28565b9392505050565b60008060408385031215610b72578081fd5b610b7b83610b28565b9150610b8960208401610b28565b90509250929050565b600080600060608486031215610ba6578081fd5b610baf84610b28565b9250610bbd60208501610b28565b9150604084013590509250925092565b60008060408385031215610bdf578182fd5b610be883610b28565b946020939093013593505050565b600060208284031215610c07578081fd5b5035919050565b6000602080835283518082850152825b81811015610c3a57858101830151858201604001528201610c1e565b81811115610c4b5783604083870101525b50601f01601f1916929092016040019392505050565b60008219821115610c7457610c74610ccb565b500190565b600082821015610c8b57610c8b610ccb565b500390565b600281046001821680610ca457607f821691505b60208210811415610cc557634e487b7160e01b600052602260045260246000fd5b50919050565b634e487b7160e01b600052601160045260246000fdfea26469706673582212204bb52e477ace4cfb1f13d0976fbf4d381edc80a7ce4c2bc67c9ceb96a4754cd864736f6c63430008020033",
  "immutableReferences": {
    "5945": [
      {
        "length": 32,
        "start": 369
      },
      {
        "length": 32,
        "start": 2499
      }
    ]
  },
  "source": "// SPDX-License-Identifier: UNLICENSED\n\npragma solidity ^0.8.0;\n\nimport \"../../node_modules/openzeppelin-solidity/contracts/token/ERC20/ERC20.sol\";\nimport \"../../node_modules/openzeppelin-solidity/contracts/token/ERC20/extensions/ERC20Capped.sol\";\nimport \"../../node_modules/openzeppelin-solidity/contracts/token/ERC20/extensions/ERC20Burnable.sol\";\n\ncontract ERC20Token is ERC20, ERC20Capped, ERC20Burnable {\n\n    constructor(\n        string memory name,\n        string memory symbol\n    )\n        ERC20Burnable()\n        ERC20Capped(20000)\n        ERC20(name, symbol)\n    {}\n\n\n    // function _beforeTokenTransfer(address from, address to, uint256 amount) internal override(ERC20, ERC20Capped) { }\n    function _mint (address account, uint256 amount) internal override(ERC20, ERC20Capped) {\n      ERC20Capped._mint(account, amount);\n    }\n\n    function mint (address account, uint256 amount) public {\n      _mint(account, amount);\n    }\n\n}\n",
  "sourcePath": "/opt/storage/data1/code/kirobo/ki-eth-contracts/contracts/test/ERC20Token.sol",
  "compiler": {
    "name": "solc",
    "version": "0.8.2+commit.661d1103.Emscripten.clang"
  },
  "schemaVersion": "3.3.4",
  "updatedAt": "2021-03-21T20:16:32.972Z",
  "devdoc": {
    "kind": "dev",
    "methods": {
      "allowance(address,address)": {
        "details": "See {IERC20-allowance}."
      },
      "approve(address,uint256)": {
        "details": "See {IERC20-approve}. Requirements: - `spender` cannot be the zero address."
      },
      "balanceOf(address)": {
        "details": "See {IERC20-balanceOf}."
      },
      "burn(uint256)": {
        "details": "Destroys `amount` tokens from the caller. See {ERC20-_burn}."
      },
      "burnFrom(address,uint256)": {
        "details": "Destroys `amount` tokens from `account`, deducting from the caller's allowance. See {ERC20-_burn} and {ERC20-allowance}. Requirements: - the caller must have allowance for ``accounts``'s tokens of at least `amount`."
      },
      "cap()": {
        "details": "Returns the cap on the token's total supply."
      },
      "decimals()": {
        "details": "Returns the number of decimals used to get its user representation. For example, if `decimals` equals `2`, a balance of `505` tokens should be displayed to a user as `5,05` (`505 / 10 ** 2`). Tokens usually opt for a value of 18, imitating the relationship between Ether and Wei. This is the value {ERC20} uses, unless this function is overloaded; NOTE: This information is only used for _display_ purposes: it in no way affects any of the arithmetic of the contract, including {IERC20-balanceOf} and {IERC20-transfer}."
      },
      "decreaseAllowance(address,uint256)": {
        "details": "Atomically decreases the allowance granted to `spender` by the caller. This is an alternative to {approve} that can be used as a mitigation for problems described in {IERC20-approve}. Emits an {Approval} event indicating the updated allowance. Requirements: - `spender` cannot be the zero address. - `spender` must have allowance for the caller of at least `subtractedValue`."
      },
      "increaseAllowance(address,uint256)": {
        "details": "Atomically increases the allowance granted to `spender` by the caller. This is an alternative to {approve} that can be used as a mitigation for problems described in {IERC20-approve}. Emits an {Approval} event indicating the updated allowance. Requirements: - `spender` cannot be the zero address."
      },
      "name()": {
        "details": "Returns the name of the token."
      },
      "symbol()": {
        "details": "Returns the symbol of the token, usually a shorter version of the name."
      },
      "totalSupply()": {
        "details": "See {IERC20-totalSupply}."
      },
      "transfer(address,uint256)": {
        "details": "See {IERC20-transfer}. Requirements: - `recipient` cannot be the zero address. - the caller must have a balance of at least `amount`."
      },
      "transferFrom(address,address,uint256)": {
        "details": "See {IERC20-transferFrom}. Emits an {Approval} event indicating the updated allowance. This is not required by the EIP. See the note at the beginning of {ERC20}. Requirements: - `sender` and `recipient` cannot be the zero address. - `sender` must have a balance of at least `amount`. - the caller must have allowance for ``sender``'s tokens of at least `amount`."
      }
    },
    "version": 1
  },
  "userdoc": {
    "kind": "user",
    "methods": {},
    "version": 1
  }
}