{
  "contractName": "ERC721PresetMinterPauserAutoId",
  "abi": [
    {
      "inputs": [
        {
          "internalType": "string",
          "name": "name",
          "type": "string"
        },
        {
          "internalType": "string",
          "name": "symbol",
          "type": "string"
        },
        {
          "internalType": "string",
          "name": "baseURI",
          "type": "string"
        }
      ],
      "stateMutability": "nonpayable",
      "type": "constructor"
    },
    {
      "anonymous": false,
      "inputs": [
        {
          "indexed": true,
          "internalType": "address",
          "name": "owner",
          "type": "address"
        },
        {
          "indexed": true,
          "internalType": "address",
          "name": "approved",
          "type": "address"
        },
        {
          "indexed": true,
          "internalType": "uint256",
          "name": "tokenId",
          "type": "uint256"
        }
      ],
      "name": "Approval",
      "type": "event"
    },
    {
      "anonymous": false,
      "inputs": [
        {
          "indexed": true,
          "internalType": "address",
          "name": "owner",
          "type": "address"
        },
        {
          "indexed": true,
          "internalType": "address",
          "name": "operator",
          "type": "address"
        },
        {
          "indexed": false,
          "internalType": "bool",
          "name": "approved",
          "type": "bool"
        }
      ],
      "name": "ApprovalForAll",
      "type": "event"
    },
    {
      "anonymous": false,
      "inputs": [
        {
          "indexed": false,
          "internalType": "address",
          "name": "account",
          "type": "address"
        }
      ],
      "name": "Paused",
      "type": "event"
    },
    {
      "anonymous": false,
      "inputs": [
        {
          "indexed": true,
          "internalType": "bytes32",
          "name": "role",
          "type": "bytes32"
        },
        {
          "indexed": true,
          "internalType": "bytes32",
          "name": "previousAdminRole",
          "type": "bytes32"
        },
        {
          "indexed": true,
          "internalType": "bytes32",
          "name": "newAdminRole",
          "type": "bytes32"
        }
      ],
      "name": "RoleAdminChanged",
      "type": "event"
    },
    {
      "anonymous": false,
      "inputs": [
        {
          "indexed": true,
          "internalType": "bytes32",
          "name": "role",
          "type": "bytes32"
        },
        {
          "indexed": true,
          "internalType": "address",
          "name": "account",
          "type": "address"
        },
        {
          "indexed": true,
          "internalType": "address",
          "name": "sender",
          "type": "address"
        }
      ],
      "name": "RoleGranted",
      "type": "event"
    },
    {
      "anonymous": false,
      "inputs": [
        {
          "indexed": true,
          "internalType": "bytes32",
          "name": "role",
          "type": "bytes32"
        },
        {
          "indexed": true,
          "internalType": "address",
          "name": "account",
          "type": "address"
        },
        {
          "indexed": true,
          "internalType": "address",
          "name": "sender",
          "type": "address"
        }
      ],
      "name": "RoleRevoked",
      "type": "event"
    },
    {
      "anonymous": false,
      "inputs": [
        {
          "indexed": true,
          "internalType": "address",
          "name": "from",
          "type": "address"
        },
        {
          "indexed": true,
          "internalType": "address",
          "name": "to",
          "type": "address"
        },
        {
          "indexed": true,
          "internalType": "uint256",
          "name": "tokenId",
          "type": "uint256"
        }
      ],
      "name": "Transfer",
      "type": "event"
    },
    {
      "anonymous": false,
      "inputs": [
        {
          "indexed": false,
          "internalType": "address",
          "name": "account",
          "type": "address"
        }
      ],
      "name": "Unpaused",
      "type": "event"
    },
    {
      "inputs": [],
      "name": "DEFAULT_ADMIN_ROLE",
      "outputs": [
        {
          "internalType": "bytes32",
          "name": "",
          "type": "bytes32"
        }
      ],
      "stateMutability": "view",
      "type": "function"
    },
    {
      "inputs": [],
      "name": "MINTER_ROLE",
      "outputs": [
        {
          "internalType": "bytes32",
          "name": "",
          "type": "bytes32"
        }
      ],
      "stateMutability": "view",
      "type": "function"
    },
    {
      "inputs": [],
      "name": "PAUSER_ROLE",
      "outputs": [
        {
          "internalType": "bytes32",
          "name": "",
          "type": "bytes32"
        }
      ],
      "stateMutability": "view",
      "type": "function"
    },
    {
      "inputs": [
        {
          "internalType": "address",
          "name": "to",
          "type": "address"
        },
        {
          "internalType": "uint256",
          "name": "tokenId",
          "type": "uint256"
        }
      ],
      "name": "approve",
      "outputs": [],
      "stateMutability": "nonpayable",
      "type": "function"
    },
    {
      "inputs": [
        {
          "internalType": "address",
          "name": "owner",
          "type": "address"
        }
      ],
      "name": "balanceOf",
      "outputs": [
        {
          "internalType": "uint256",
          "name": "",
          "type": "uint256"
        }
      ],
      "stateMutability": "view",
      "type": "function"
    },
    {
      "inputs": [],
      "name": "baseURI",
      "outputs": [
        {
          "internalType": "string",
          "name": "",
          "type": "string"
        }
      ],
      "stateMutability": "view",
      "type": "function"
    },
    {
      "inputs": [
        {
          "internalType": "uint256",
          "name": "tokenId",
          "type": "uint256"
        }
      ],
      "name": "burn",
      "outputs": [],
      "stateMutability": "nonpayable",
      "type": "function"
    },
    {
      "inputs": [
        {
          "internalType": "uint256",
          "name": "tokenId",
          "type": "uint256"
        }
      ],
      "name": "getApproved",
      "outputs": [
        {
          "internalType": "address",
          "name": "",
          "type": "address"
        }
      ],
      "stateMutability": "view",
      "type": "function"
    },
    {
      "inputs": [
        {
          "internalType": "bytes32",
          "name": "role",
          "type": "bytes32"
        }
      ],
      "name": "getRoleAdmin",
      "outputs": [
        {
          "internalType": "bytes32",
          "name": "",
          "type": "bytes32"
        }
      ],
      "stateMutability": "view",
      "type": "function"
    },
    {
      "inputs": [
        {
          "internalType": "bytes32",
          "name": "role",
          "type": "bytes32"
        },
        {
          "internalType": "uint256",
          "name": "index",
          "type": "uint256"
        }
      ],
      "name": "getRoleMember",
      "outputs": [
        {
          "internalType": "address",
          "name": "",
          "type": "address"
        }
      ],
      "stateMutability": "view",
      "type": "function"
    },
    {
      "inputs": [
        {
          "internalType": "bytes32",
          "name": "role",
          "type": "bytes32"
        }
      ],
      "name": "getRoleMemberCount",
      "outputs": [
        {
          "internalType": "uint256",
          "name": "",
          "type": "uint256"
        }
      ],
      "stateMutability": "view",
      "type": "function"
    },
    {
      "inputs": [
        {
          "internalType": "bytes32",
          "name": "role",
          "type": "bytes32"
        },
        {
          "internalType": "address",
          "name": "account",
          "type": "address"
        }
      ],
      "name": "grantRole",
      "outputs": [],
      "stateMutability": "nonpayable",
      "type": "function"
    },
    {
      "inputs": [
        {
          "internalType": "bytes32",
          "name": "role",
          "type": "bytes32"
        },
        {
          "internalType": "address",
          "name": "account",
          "type": "address"
        }
      ],
      "name": "hasRole",
      "outputs": [
        {
          "internalType": "bool",
          "name": "",
          "type": "bool"
        }
      ],
      "stateMutability": "view",
      "type": "function"
    },
    {
      "inputs": [
        {
          "internalType": "address",
          "name": "owner",
          "type": "address"
        },
        {
          "internalType": "address",
          "name": "operator",
          "type": "address"
        }
      ],
      "name": "isApprovedForAll",
      "outputs": [
        {
          "internalType": "bool",
          "name": "",
          "type": "bool"
        }
      ],
      "stateMutability": "view",
      "type": "function"
    },
    {
      "inputs": [],
      "name": "name",
      "outputs": [
        {
          "internalType": "string",
          "name": "",
          "type": "string"
        }
      ],
      "stateMutability": "view",
      "type": "function"
    },
    {
      "inputs": [
        {
          "internalType": "uint256",
          "name": "tokenId",
          "type": "uint256"
        }
      ],
      "name": "ownerOf",
      "outputs": [
        {
          "internalType": "address",
          "name": "",
          "type": "address"
        }
      ],
      "stateMutability": "view",
      "type": "function"
    },
    {
      "inputs": [],
      "name": "paused",
      "outputs": [
        {
          "internalType": "bool",
          "name": "",
          "type": "bool"
        }
      ],
      "stateMutability": "view",
      "type": "function"
    },
    {
      "inputs": [
        {
          "internalType": "bytes32",
          "name": "role",
          "type": "bytes32"
        },
        {
          "internalType": "address",
          "name": "account",
          "type": "address"
        }
      ],
      "name": "renounceRole",
      "outputs": [],
      "stateMutability": "nonpayable",
      "type": "function"
    },
    {
      "inputs": [
        {
          "internalType": "bytes32",
          "name": "role",
          "type": "bytes32"
        },
        {
          "internalType": "address",
          "name": "account",
          "type": "address"
        }
      ],
      "name": "revokeRole",
      "outputs": [],
      "stateMutability": "nonpayable",
      "type": "function"
    },
    {
      "inputs": [
        {
          "internalType": "address",
          "name": "from",
          "type": "address"
        },
        {
          "internalType": "address",
          "name": "to",
          "type": "address"
        },
        {
          "internalType": "uint256",
          "name": "tokenId",
          "type": "uint256"
        }
      ],
      "name": "safeTransferFrom",
      "outputs": [],
      "stateMutability": "nonpayable",
      "type": "function"
    },
    {
      "inputs": [
        {
          "internalType": "address",
          "name": "from",
          "type": "address"
        },
        {
          "internalType": "address",
          "name": "to",
          "type": "address"
        },
        {
          "internalType": "uint256",
          "name": "tokenId",
          "type": "uint256"
        },
        {
          "internalType": "bytes",
          "name": "_data",
          "type": "bytes"
        }
      ],
      "name": "safeTransferFrom",
      "outputs": [],
      "stateMutability": "nonpayable",
      "type": "function"
    },
    {
      "inputs": [
        {
          "internalType": "address",
          "name": "operator",
          "type": "address"
        },
        {
          "internalType": "bool",
          "name": "approved",
          "type": "bool"
        }
      ],
      "name": "setApprovalForAll",
      "outputs": [],
      "stateMutability": "nonpayable",
      "type": "function"
    },
    {
      "inputs": [
        {
          "internalType": "bytes4",
          "name": "interfaceId",
          "type": "bytes4"
        }
      ],
      "name": "supportsInterface",
      "outputs": [
        {
          "internalType": "bool",
          "name": "",
          "type": "bool"
        }
      ],
      "stateMutability": "view",
      "type": "function"
    },
    {
      "inputs": [],
      "name": "symbol",
      "outputs": [
        {
          "internalType": "string",
          "name": "",
          "type": "string"
        }
      ],
      "stateMutability": "view",
      "type": "function"
    },
    {
      "inputs": [
        {
          "internalType": "uint256",
          "name": "index",
          "type": "uint256"
        }
      ],
      "name": "tokenByIndex",
      "outputs": [
        {
          "internalType": "uint256",
          "name": "",
          "type": "uint256"
        }
      ],
      "stateMutability": "view",
      "type": "function"
    },
    {
      "inputs": [
        {
          "internalType": "address",
          "name": "owner",
          "type": "address"
        },
        {
          "internalType": "uint256",
          "name": "index",
          "type": "uint256"
        }
      ],
      "name": "tokenOfOwnerByIndex",
      "outputs": [
        {
          "internalType": "uint256",
          "name": "",
          "type": "uint256"
        }
      ],
      "stateMutability": "view",
      "type": "function"
    },
    {
      "inputs": [
        {
          "internalType": "uint256",
          "name": "tokenId",
          "type": "uint256"
        }
      ],
      "name": "tokenURI",
      "outputs": [
        {
          "internalType": "string",
          "name": "",
          "type": "string"
        }
      ],
      "stateMutability": "view",
      "type": "function"
    },
    {
      "inputs": [],
      "name": "totalSupply",
      "outputs": [
        {
          "internalType": "uint256",
          "name": "",
          "type": "uint256"
        }
      ],
      "stateMutability": "view",
      "type": "function"
    },
    {
      "inputs": [
        {
          "internalType": "address",
          "name": "from",
          "type": "address"
        },
        {
          "internalType": "address",
          "name": "to",
          "type": "address"
        },
        {
          "internalType": "uint256",
          "name": "tokenId",
          "type": "uint256"
        }
      ],
      "name": "transferFrom",
      "outputs": [],
      "stateMutability": "nonpayable",
      "type": "function"
    },
    {
      "inputs": [
        {
          "internalType": "address",
          "name": "to",
          "type": "address"
        }
      ],
      "name": "mint",
      "outputs": [],
      "stateMutability": "nonpayable",
      "type": "function"
    },
    {
      "inputs": [],
      "name": "pause",
      "outputs": [],
      "stateMutability": "nonpayable",
      "type": "function"
    },
    {
      "inputs": [],
      "name": "unpause",
      "outputs": [],
      "stateMutability": "nonpayable",
      "type": "function"
    }
  ],
  "bytecode": "0x60806040523480156200001157600080fd5b5060405162002e0838038062002e08833981810160405260608110156200003757600080fd5b81019080805160405193929190846401000000008211156200005857600080fd5b9083019060208201858111156200006e57600080fd5b82516401000000008111828201881017156200008957600080fd5b82525081516020918201929091019080838360005b83811015620000b85781810151838201526020016200009e565b50505050905090810190601f168015620000e65780820380516001836020036101000a031916815260200191505b50604052602001805160405193929190846401000000008211156200010a57600080fd5b9083019060208201858111156200012057600080fd5b82516401000000008111828201881017156200013b57600080fd5b82525081516020918201929091019080838360005b838110156200016a57818101518382015260200162000150565b50505050905090810190601f168015620001985780820380516001836020036101000a031916815260200191505b5060405260200180516040519392919084640100000000821115620001bc57600080fd5b908301906020820185811115620001d257600080fd5b8251640100000000811182820188101715620001ed57600080fd5b82525081516020918201929091019080838360005b838110156200021c57818101518382015260200162000202565b50505050905090810190601f1680156200024a5780820380516001836020036101000a031916815260200191505b5060405250849150839050620002706301ffc9a760e01b6001600160e01b03620003ae16565b81516200028590600790602085019062000584565b5080516200029b90600890602084019062000584565b50620002b76380ac58cd60e01b6001600160e01b03620003ae16565b620002d2635b5e139f60e01b6001600160e01b03620003ae16565b620002ed63780e9d6360e01b6001600160e01b03620003ae16565b5050600b805460ff19169055620003216000620003126001600160e01b036200043616565b6001600160e01b036200043b16565b604080516a4d494e5445525f524f4c4560a81b8152905190819003600b0190206200035990620003126001600160e01b036200043616565b604080516a5041555345525f524f4c4560a81b8152905190819003600b0190206200039190620003126001600160e01b036200043616565b620003a5816001600160e01b036200045416565b50505062000626565b6001600160e01b031980821614156200040e576040805162461bcd60e51b815260206004820152601c60248201527f4552433136353a20696e76616c696420696e7465726661636520696400000000604482015290519081900360640190fd5b6001600160e01b0319166000908152600160208190526040909120805460ff19169091179055565b335b90565b6200045082826001600160e01b036200046916565b5050565b80516200045090600a90602084019062000584565b6000828152602081815260409091206200048e918390620012e4620004eb821b17901c565b156200045057620004a76001600160e01b036200043616565b6001600160a01b0316816001600160a01b0316837f2f8788117e7eff1d82e926ec794901d17c78024a50270940304540a733656f0d60405160405180910390a45050565b60006200050b836001600160a01b0384166001600160e01b036200051416565b90505b92915050565b60006200052b83836001600160e01b036200056c16565b62000563575081546001818101845560008481526020808220909301849055845484825282860190935260409020919091556200050e565b5060006200050e565b60009081526001919091016020526040902054151590565b828054600181600116156101000203166002900490600052602060002090601f016020900481019282601f10620005c757805160ff1916838001178555620005f7565b82800160010185558215620005f7579182015b82811115620005f7578251825591602001919060010190620005da565b506200060592915062000609565b5090565b6200043891905b8082111562000605576000815560010162000610565b6127d280620006366000396000f3fe608060405234801561001057600080fd5b50600436106101f05760003560e01c80636a6278421161010f578063a22cb465116100a2578063d539139311610071578063d53913931461068b578063d547741f14610693578063e63ab1e9146106bf578063e985e9c5146106c7576101f0565b8063a22cb4651461055d578063b88d4fde1461058b578063c87b56dd14610651578063ca15c8731461066e576101f0565b80639010d07c116100de5780639010d07c146104fe57806391d148541461052157806395d89b411461054d578063a217fddf14610555576101f0565b80636a627842146104a25780636c0360eb146104c857806370a08231146104d05780638456cb59146104f6576101f0565b80632f745c591161018757806342966c681161015657806342966c68146104435780634f6ccce7146104605780635c975abb1461047d5780636352211e14610485576101f0565b80632f745c59146103ad57806336568abe146103d95780633f4ba83a1461040557806342842e0e1461040d576101f0565b806318160ddd116101c357806318160ddd1461031457806323b872dd1461032e578063248a9ca3146103645780632f2ff15d14610381576101f0565b806301ffc9a7146101f557806306fdde0314610230578063081812fc146102ad578063095ea7b3146102e6575b600080fd5b61021c6004803603602081101561020b57600080fd5b50356001600160e01b0319166106f5565b604080519115158252519081900360200190f35b610238610718565b6040805160208082528351818301528351919283929083019185019080838360005b8381101561027257818101518382015260200161025a565b50505050905090810190601f16801561029f5780820380516001836020036101000a031916815260200191505b509250505060405180910390f35b6102ca600480360360208110156102c357600080fd5b50356107af565b604080516001600160a01b039092168252519081900360200190f35b610312600480360360408110156102fc57600080fd5b506001600160a01b038135169060200135610811565b005b61031c6108ec565b60408051918252519081900360200190f35b6103126004803603606081101561034457600080fd5b506001600160a01b038135811691602081013590911690604001356108fd565b61031c6004803603602081101561037a57600080fd5b5035610954565b6103126004803603604081101561039757600080fd5b50803590602001356001600160a01b0316610969565b61031c600480360360408110156103c357600080fd5b506001600160a01b0381351690602001356109d5565b610312600480360360408110156103ef57600080fd5b50803590602001356001600160a01b0316610a06565b610312610a67565b6103126004803603606081101561042357600080fd5b506001600160a01b03813581169160208101359091169060400135610ad8565b6103126004803603602081101561045957600080fd5b5035610af3565b61031c6004803603602081101561047657600080fd5b5035610b45565b61021c610b61565b6102ca6004803603602081101561049b57600080fd5b5035610b6a565b610312600480360360208110156104b857600080fd5b50356001600160a01b0316610b98565b610238610c1c565b61031c600480360360208110156104e657600080fd5b50356001600160a01b0316610c7d565b610312610ce5565b6102ca6004803603604081101561051457600080fd5b5080359060200135610d54565b61021c6004803603604081101561053757600080fd5b50803590602001356001600160a01b0316610d72565b610238610d90565b61031c610df1565b6103126004803603604081101561057357600080fd5b506001600160a01b0381351690602001351515610df6565b610312600480360360808110156105a157600080fd5b6001600160a01b038235811692602081013590911691604082013591908101906080810160608201356401000000008111156105dc57600080fd5b8201836020820111156105ee57600080fd5b8035906020019184600183028401116401000000008311171561061057600080fd5b91908080601f016020809104026020016040519081016040528093929190818152602001838380828437600092019190915250929550610efb945050505050565b6102386004803603602081101561066757600080fd5b5035610f59565b61031c6004803603602081101561068457600080fd5b5035611200565b61031c611217565b610312600480360360408110156106a957600080fd5b50803590602001356001600160a01b031661123a565b61031c611293565b61021c600480360360408110156106dd57600080fd5b506001600160a01b03813581169160200135166112b6565b6001600160e01b0319811660009081526001602052604090205460ff165b919050565b60078054604080516020601f60026000196101006001881615020190951694909404938401819004810282018101909252828152606093909290918301828280156107a45780601f10610779576101008083540402835291602001916107a4565b820191906000526020600020905b81548152906001019060200180831161078757829003601f168201915b505050505090505b90565b60006107ba826112f9565b6107f55760405162461bcd60e51b815260040180806020018281038252602c8152602001806125eb602c913960400191505060405180910390fd5b506000908152600560205260409020546001600160a01b031690565b600061081c82610b6a565b9050806001600160a01b0316836001600160a01b0316141561086f5760405162461bcd60e51b815260040180806020018281038252602181526020018061266f6021913960400191505060405180910390fd5b806001600160a01b031661088161130c565b6001600160a01b031614806108a257506108a28161089d61130c565b6112b6565b6108dd5760405162461bcd60e51b815260040180806020018281038252603881526020018061253e6038913960400191505060405180910390fd5b6108e78383611310565b505050565b60006108f8600361138b565b905090565b61090e61090861130c565b82611396565b6109495760405162461bcd60e51b81526004018080602001828103825260318152602001806126906031913960400191505060405180910390fd5b6108e783838361143a565b60009081526020819052604090206002015490565b60008281526020819052604090206002015461098c9061098761130c565b610d72565b6109c75760405162461bcd60e51b815260040180806020018281038252602f81526020018061241f602f913960400191505060405180910390fd5b6109d18282611598565b5050565b6001600160a01b03821660009081526002602052604081206109fd908363ffffffff61160716565b90505b92915050565b610a0e61130c565b6001600160a01b0316816001600160a01b031614610a5d5760405162461bcd60e51b815260040180806020018281038252602f81526020018061276e602f913960400191505060405180910390fd5b6109d18282611613565b604080516a5041555345525f524f4c4560a81b8152905190819003600b019020610a939061098761130c565b610ace5760405162461bcd60e51b815260040180806020018281038252604081526020018061272e6040913960400191505060405180910390fd5b610ad6611682565b565b6108e783838360405180602001604052806000815250610efb565b610afe61090861130c565b610b395760405162461bcd60e51b81526004018080602001828103825260308152602001806126fe6030913960400191505060405180910390fd5b610b4281611729565b50565b600080610b5960038463ffffffff61180216565b509392505050565b600b5460ff1690565b6000610a00826040518060600160405280602981526020016125a0602991396003919063ffffffff61181e16565b604080516a4d494e5445525f524f4c4560a81b8152905190819003600b019020610bc49061098761130c565b610bff5760405162461bcd60e51b815260040180806020018281038252603d8152602001806126c1603d913960400191505060405180910390fd5b610c1281610c0d600c611835565b611839565b610b42600c611973565b600a8054604080516020601f60026000196101006001881615020190951694909404938401819004810282018101909252828152606093909290918301828280156107a45780601f10610779576101008083540402835291602001916107a4565b60006001600160a01b038216610cc45760405162461bcd60e51b815260040180806020018281038252602a815260200180612576602a913960400191505060405180910390fd5b6001600160a01b0382166000908152600260205260409020610a009061138b565b604080516a5041555345525f524f4c4560a81b8152905190819003600b019020610d119061098761130c565b610d4c5760405162461bcd60e51b815260040180806020018281038252603e815260200180612480603e913960400191505060405180910390fd5b610ad661197c565b60008281526020819052604081206109fd908363ffffffff61160716565b60008281526020819052604081206109fd908363ffffffff6119fd16565b60088054604080516020601f60026000196101006001881615020190951694909404938401819004810282018101909252828152606093909290918301828280156107a45780601f10610779576101008083540402835291602001916107a4565b600081565b610dfe61130c565b6001600160a01b0316826001600160a01b03161415610e64576040805162461bcd60e51b815260206004820152601960248201527f4552433732313a20617070726f766520746f2063616c6c657200000000000000604482015290519081900360640190fd5b8060066000610e7161130c565b6001600160a01b03908116825260208083019390935260409182016000908120918716808252919093529120805460ff191692151592909217909155610eb561130c565b60408051841515815290516001600160a01b0392909216917f17307eab39ab6107e8899845ad3d59bd9653f200f220920489ca2b5937696c319181900360200190a35050565b610f0c610f0661130c565b83611396565b610f475760405162461bcd60e51b81526004018080602001828103825260318152602001806126906031913960400191505060405180910390fd5b610f5384848484611a12565b50505050565b6060610f64826112f9565b610f9f5760405162461bcd60e51b815260040180806020018281038252602f815260200180612640602f913960400191505060405180910390fd5b60008281526009602090815260409182902080548351601f60026000196101006001861615020190931692909204918201849004840281018401909452808452606093928301828280156110345780601f1061100957610100808354040283529160200191611034565b820191906000526020600020905b81548152906001019060200180831161101757829003601f168201915b5050600a549394505050506002600019610100600184161502019091160461105d579050610713565b80511561112e57600a8160405160200180838054600181600116156101000203166002900480156110c55780601f106110a35761010080835404028352918201916110c5565b820191906000526020600020905b8154815290600101906020018083116110b1575b5050825160208401908083835b602083106110f15780518252601f1990920191602091820191016110d2565b6001836020036101000a03801982511681845116808217855250505050505090500192505050604051602081830303815290604052915050610713565b600a61113984611a64565b60405160200180838054600181600116156101000203166002900480156111975780601f10611175576101008083540402835291820191611197565b820191906000526020600020905b815481529060010190602001808311611183575b5050825160208401908083835b602083106111c35780518252601f1990920191602091820191016111a4565b6001836020036101000a03801982511681845116808217855250505050505090500192505050604051602081830303815290604052915050919050565b6000818152602081905260408120610a009061138b565b604080516a4d494e5445525f524f4c4560a81b8152905190819003600b01902081565b6000828152602081905260409020600201546112589061098761130c565b610a5d5760405162461bcd60e51b815260040180806020018281038252603081526020018061250e6030913960400191505060405180910390fd5b604080516a5041555345525f524f4c4560a81b8152905190819003600b01902081565b6001600160a01b03918216600090815260066020908152604080832093909416825291909152205460ff1690565b60006109fd836001600160a01b038416611b57565b6000610a0060038363ffffffff611ba116565b3390565b6000818152600560205260409020805473ffffffffffffffffffffffffffffffffffffffff19166001600160a01b038416908117909155819061135282610b6a565b6001600160a01b03167f8c5be1e5ebec7d5bd14f71427d1e84f3dd0314c0f7b2291e5b200ac8c7c3b92560405160405180910390a45050565b6000610a0082611835565b60006113a1826112f9565b6113dc5760405162461bcd60e51b815260040180806020018281038252602c8152602001806124e2602c913960400191505060405180910390fd5b60006113e783610b6a565b9050806001600160a01b0316846001600160a01b031614806114225750836001600160a01b0316611417846107af565b6001600160a01b0316145b80611432575061143281856112b6565b949350505050565b826001600160a01b031661144d82610b6a565b6001600160a01b0316146114925760405162461bcd60e51b81526004018080602001828103825260298152602001806126176029913960400191505060405180910390fd5b6001600160a01b0382166114d75760405162461bcd60e51b81526004018080602001828103825260248152602001806124be6024913960400191505060405180910390fd5b6114e2838383611bad565b6114ed600082611310565b6001600160a01b0383166000908152600260205260409020611515908263ffffffff611bb816565b506001600160a01b038216600090815260026020526040902061153e908263ffffffff611bc416565b506115516003828463ffffffff611bd016565b5080826001600160a01b0316846001600160a01b03167fddf252ad1be2c89b69c2b068fc378daa952ba7f163c4a11628f55a4df523b3ef60405160405180910390a4505050565b60008281526020819052604090206115b6908263ffffffff6112e416565b156109d1576115c361130c565b6001600160a01b0316816001600160a01b0316837f2f8788117e7eff1d82e926ec794901d17c78024a50270940304540a733656f0d60405160405180910390a45050565b60006109fd8383611be6565b6000828152602081905260409020611631908263ffffffff611c4a16565b156109d15761163e61130c565b6001600160a01b0316816001600160a01b0316837ff6391f5c32d9c69d2a47ea670b442974b53935d1edc7fd64eb21e047a839171b60405160405180910390a45050565b600b5460ff166116d9576040805162461bcd60e51b815260206004820152601460248201527f5061757361626c653a206e6f7420706175736564000000000000000000000000604482015290519081900360640190fd5b600b805460ff191690557f5db9ee0a495bf2e6ff9c91a7834c1ba4fdd244a5e8aa4e537bd38aeae4b073aa61170c61130c565b604080516001600160a01b039092168252519081900360200190a1565b600061173482610b6a565b905061174281600084611bad565b61174d600083611310565b600082815260096020526040902054600260001961010060018416150201909116041561178b57600082815260096020526040812061178b91612378565b6001600160a01b03811660009081526002602052604090206117b3908363ffffffff611bb816565b506117c560038363ffffffff611c5f16565b5060405182906000906001600160a01b038416907fddf252ad1be2c89b69c2b068fc378daa952ba7f163c4a11628f55a4df523b3ef908390a45050565b60008080806118118686611c6b565b9097909650945050505050565b600061182b848484611ce6565b90505b9392505050565b5490565b6001600160a01b038216611894576040805162461bcd60e51b815260206004820181905260248201527f4552433732313a206d696e7420746f20746865207a65726f2061646472657373604482015290519081900360640190fd5b61189d816112f9565b156118ef576040805162461bcd60e51b815260206004820152601c60248201527f4552433732313a20746f6b656e20616c7265616479206d696e74656400000000604482015290519081900360640190fd5b6118fb60008383611bad565b6001600160a01b0382166000908152600260205260409020611923908263ffffffff611bc416565b506119366003828463ffffffff611bd016565b5060405181906001600160a01b038416906000907fddf252ad1be2c89b69c2b068fc378daa952ba7f163c4a11628f55a4df523b3ef908290a45050565b80546001019055565b600b5460ff16156119c7576040805162461bcd60e51b815260206004820152601060248201526f14185d5cd8589b194e881c185d5cd95960821b604482015290519081900360640190fd5b600b805460ff191660011790557f62e78cea01bee320cd4e420270b5ea74000d11b0c9f74754ebdbfc544b05a25861170c61130c565b60006109fd836001600160a01b038416611db0565b611a1d84848461143a565b611a2984848484611dc8565b610f535760405162461bcd60e51b815260040180806020018281038252603281526020018061244e6032913960400191505060405180910390fd5b606081611a8957506040805180820190915260018152600360fc1b6020820152610713565b8160005b8115611aa157600101600a82049150611a8d565b60608167ffffffffffffffff81118015611aba57600080fd5b506040519080825280601f01601f191660200182016040528015611ae5576020820181803683370190505b50859350905060001982015b8315611b4e57600a840660300160f81b82828060019003935081518110611b1457fe5b60200101907effffffffffffffffffffffffffffffffffffffffffffffffffffffffffffff1916908160001a905350600a84049350611af1565b50949350505050565b6000611b638383611db0565b611b9957508154600181810184556000848152602080822090930184905584548482528286019093526040902091909155610a00565b506000610a00565b60006109fd8383611db0565b6108e7838383611f48565b60006109fd8383611f97565b60006109fd8383611b57565b600061182b84846001600160a01b03851661205d565b81546000908210611c285760405162461bcd60e51b81526004018080602001828103825260228152602001806123d26022913960400191505060405180910390fd5b826000018281548110611c3757fe5b9060005260206000200154905092915050565b60006109fd836001600160a01b038416611f97565b60006109fd83836120f4565b815460009081908310611caf5760405162461bcd60e51b81526004018080602001828103825260228152602001806125c96022913960400191505060405180910390fd5b6000846000018481548110611cc057fe5b906000526020600020906002020190508060000154816001015492509250509250929050565b60008281526001840160205260408120548281611d815760405162461bcd60e51b81526004018080602001828103825283818151815260200191508051906020019080838360005b83811015611d46578181015183820152602001611d2e565b50505050905090810190601f168015611d735780820380516001836020036101000a031916815260200191505b509250505060405180910390fd5b50846000016001820381548110611d9457fe5b9060005260206000209060020201600101549150509392505050565b60009081526001919091016020526040902054151590565b6000611ddc846001600160a01b03166121c8565b611de857506001611432565b6060611f0e630a85bd0160e11b611dfd61130c565b88878760405160240180856001600160a01b03166001600160a01b03168152602001846001600160a01b03166001600160a01b0316815260200183815260200180602001828103825283818151815260200191508051906020019080838360005b83811015611e76578181015183820152602001611e5e565b50505050905090810190601f168015611ea35780820380516001836020036101000a031916815260200191505b5095505050505050604051602081830303815290604052906001600160e01b0319166020820180516001600160e01b03838183161783525050505060405180606001604052806032815260200161244e603291396001600160a01b038816919063ffffffff61220116565b90506000818060200190516020811015611f2757600080fd5b50516001600160e01b031916630a85bd0160e11b1492505050949350505050565b611f538383836108e7565b611f5b610b61565b156108e75760405162461bcd60e51b815260040180806020018281038252602b8152602001806123f4602b913960400191505060405180910390fd5b600081815260018301602052604081205480156120535783546000198083019190810190600090879083908110611fca57fe5b9060005260206000200154905080876000018481548110611fe757fe5b60009182526020808320909101929092558281526001898101909252604090209084019055865487908061201757fe5b60019003818190600052602060002001600090559055866001016000878152602001908152602001600020600090556001945050505050610a00565b6000915050610a00565b6000828152600184016020526040812054806120c257505060408051808201825283815260208082018481528654600181810189556000898152848120955160029093029095019182559151908201558654868452818801909252929091205561182e565b828560000160018303815481106120d557fe5b906000526020600020906002020160010181905550600091505061182e565b60008181526001830160205260408120548015612053578354600019808301919081019060009087908390811061212757fe5b906000526020600020906002020190508087600001848154811061214757fe5b60009182526020808320845460029093020191825560019384015491840191909155835482528983019052604090209084019055865487908061218657fe5b6000828152602080822060026000199094019384020182815560019081018390559290935588815289820190925260408220919091559450610a009350505050565b6000813f7fc5d2460186f7233c927e7db2dcc703c0e500b653ca82273b7bfad8045d85a470818114801590611432575050151592915050565b606061182b84846000856060612216856121c8565b612267576040805162461bcd60e51b815260206004820152601d60248201527f416464726573733a2063616c6c20746f206e6f6e2d636f6e7472616374000000604482015290519081900360640190fd5b60006060866001600160a01b031685876040518082805190602001908083835b602083106122a65780518252601f199092019160209182019101612287565b6001836020036101000a03801982511681845116808217855250505050505090500191505060006040518083038185875af1925050503d8060008114612308576040519150601f19603f3d011682016040523d82523d6000602084013e61230d565b606091505b509150915081156123215791506114329050565b8051156123315780518082602001fd5b60405162461bcd60e51b8152602060048201818152865160248401528651879391928392604401919085019080838360008315611d46578181015183820152602001611d2e565b50805460018160011615610100020316600290046000825580601f1061239e5750610b42565b6000918252602091829020610b42926107ac92601f01048101905b808211156123cd57600081556001016123b9565b509056fe456e756d657261626c655365743a20696e646578206f7574206f6620626f756e64734552433732315061757361626c653a20746f6b656e207472616e73666572207768696c6520706175736564416363657373436f6e74726f6c3a2073656e646572206d75737420626520616e2061646d696e20746f206772616e744552433732313a207472616e7366657220746f206e6f6e20455243373231526563656976657220696d706c656d656e7465724552433732315072657365744d696e7465725061757365724175746f49643a206d75737420686176652070617573657220726f6c6520746f2070617573654552433732313a207472616e7366657220746f20746865207a65726f20616464726573734552433732313a206f70657261746f7220717565727920666f72206e6f6e6578697374656e7420746f6b656e416363657373436f6e74726f6c3a2073656e646572206d75737420626520616e2061646d696e20746f207265766f6b654552433732313a20617070726f76652063616c6c6572206973206e6f74206f776e6572206e6f7220617070726f76656420666f7220616c6c4552433732313a2062616c616e636520717565727920666f7220746865207a65726f20616464726573734552433732313a206f776e657220717565727920666f72206e6f6e6578697374656e7420746f6b656e456e756d657261626c654d61703a20696e646578206f7574206f6620626f756e64734552433732313a20617070726f76656420717565727920666f72206e6f6e6578697374656e7420746f6b656e4552433732313a207472616e73666572206f6620746f6b656e2074686174206973206e6f74206f776e4552433732314d657461646174613a2055524920717565727920666f72206e6f6e6578697374656e7420746f6b656e4552433732313a20617070726f76616c20746f2063757272656e74206f776e65724552433732313a207472616e736665722063616c6c6572206973206e6f74206f776e6572206e6f7220617070726f7665644552433732315072657365744d696e7465725061757365724175746f49643a206d7573742068617665206d696e74657220726f6c6520746f206d696e744552433732314275726e61626c653a2063616c6c6572206973206e6f74206f776e6572206e6f7220617070726f7665644552433732315072657365744d696e7465725061757365724175746f49643a206d75737420686176652070617573657220726f6c6520746f20756e7061757365416363657373436f6e74726f6c3a2063616e206f6e6c792072656e6f756e636520726f6c657320666f722073656c66a26469706673582212208b7463ddf46642f17c78b775cac9925d2a387911eb2c79f9f826a66032ac681d64736f6c634300060b0033",
  "source": "// SPDX-License-Identifier: MIT\n\npragma solidity ^0.6.0;\n\nimport \"../access/AccessControl.sol\";\nimport \"../GSN/Context.sol\";\nimport \"../utils/Counters.sol\";\nimport \"../token/ERC721/ERC721.sol\";\nimport \"../token/ERC721/ERC721Burnable.sol\";\nimport \"../token/ERC721/ERC721Pausable.sol\";\n\n/**\n * @dev {ERC721} token, including:\n *\n *  - ability for holders to burn (destroy) their tokens\n *  - a minter role that allows for token minting (creation)\n *  - a pauser role that allows to stop all token transfers\n *  - token ID and URI autogeneration\n *\n * This contract uses {AccessControl} to lock permissioned functions using the\n * different roles - head to its documentation for details.\n *\n * The account that deploys the contract will be granted the minter and pauser\n * roles, as well as the default admin role, which will let it grant both minter\n * and pauser roles to other accounts.\n */\ncontract ERC721PresetMinterPauserAutoId is Context, AccessControl, ERC721Burnable, ERC721Pausable {\n    using Counters for Counters.Counter;\n\n    bytes32 public constant MINTER_ROLE = keccak256(\"MINTER_ROLE\");\n    bytes32 public constant PAUSER_ROLE = keccak256(\"PAUSER_ROLE\");\n\n    Counters.Counter private _tokenIdTracker;\n\n    /**\n     * @dev Grants `DEFAULT_ADMIN_ROLE`, `MINTER_ROLE` and `PAUSER_ROLE` to the\n     * account that deploys the contract.\n     *\n     * Token URIs will be autogenerated based on `baseURI` and their token IDs.\n     * See {ERC721-tokenURI}.\n     */\n    constructor(string memory name, string memory symbol, string memory baseURI) public ERC721(name, symbol) {\n        _setupRole(DEFAULT_ADMIN_ROLE, _msgSender());\n\n        _setupRole(MINTER_ROLE, _msgSender());\n        _setupRole(PAUSER_ROLE, _msgSender());\n\n        _setBaseURI(baseURI);\n    }\n\n    /**\n     * @dev Creates a new token for `to`. Its token ID will be automatically\n     * assigned (and available on the emitted {IERC721-Transfer} event), and the token\n     * URI autogenerated based on the base URI passed at construction.\n     *\n     * See {ERC721-_mint}.\n     *\n     * Requirements:\n     *\n     * - the caller must have the `MINTER_ROLE`.\n     */\n    function mint(address to) public virtual {\n        require(hasRole(MINTER_ROLE, _msgSender()), \"ERC721PresetMinterPauserAutoId: must have minter role to mint\");\n\n        // We can just use balanceOf to create the new tokenId because tokens\n        // can be burned (destroyed), so we need a separate counter.\n        _mint(to, _tokenIdTracker.current());\n        _tokenIdTracker.increment();\n    }\n\n    /**\n     * @dev Pauses all token transfers.\n     *\n     * See {ERC721Pausable} and {Pausable-_pause}.\n     *\n     * Requirements:\n     *\n     * - the caller must have the `PAUSER_ROLE`.\n     */\n    function pause() public virtual {\n        require(hasRole(PAUSER_ROLE, _msgSender()), \"ERC721PresetMinterPauserAutoId: must have pauser role to pause\");\n        _pause();\n    }\n\n    /**\n     * @dev Unpauses all token transfers.\n     *\n     * See {ERC721Pausable} and {Pausable-_unpause}.\n     *\n     * Requirements:\n     *\n     * - the caller must have the `PAUSER_ROLE`.\n     */\n    function unpause() public virtual {\n        require(hasRole(PAUSER_ROLE, _msgSender()), \"ERC721PresetMinterPauserAutoId: must have pauser role to unpause\");\n        _unpause();\n    }\n\n    function _beforeTokenTransfer(address from, address to, uint256 tokenId) internal virtual override(ERC721, ERC721Pausable) {\n        super._beforeTokenTransfer(from, to, tokenId);\n    }\n}\n",
  "sourcePath": "/home/tal/code/kirobo/ki-eth-contracts/contracts/openzeppelin-solidity/contracts/presets/ERC721PresetMinterPauserAutoId.sol",
  "compiler": {
    "name": "solc",
    "version": "0.6.11+commit.5ef660b1.Emscripten.clang"
  },
  "schemaVersion": "3.0.23",
  "updatedAt": "2020-07-15T17:30:45.388Z",
  "devdoc": {
    "details": "{ERC721} token, including:  - ability for holders to burn (destroy) their tokens  - a minter role that allows for token minting (creation)  - a pauser role that allows to stop all token transfers  - token ID and URI autogeneration This contract uses {AccessControl} to lock permissioned functions using the different roles - head to its documentation for details. The account that deploys the contract will be granted the minter and pauser roles, as well as the default admin role, which will let it grant both minter and pauser roles to other accounts.",
    "kind": "dev",
    "methods": {
      "approve(address,uint256)": {
        "details": "See {IERC721-approve}."
      },
      "balanceOf(address)": {
        "details": "See {IERC721-balanceOf}."
      },
      "baseURI()": {
        "details": "Returns the base URI set via {_setBaseURI}. This will be automatically added as a prefix in {tokenURI} to each token's URI, or to the token ID if no specific URI is set for that token ID."
      },
      "burn(uint256)": {
        "details": "Burns `tokenId`. See {ERC721-_burn}. Requirements: - The caller must own `tokenId` or be an approved operator."
      },
      "constructor": {
        "details": "Grants `DEFAULT_ADMIN_ROLE`, `MINTER_ROLE` and `PAUSER_ROLE` to the account that deploys the contract. Token URIs will be autogenerated based on `baseURI` and their token IDs. See {ERC721-tokenURI}."
      },
      "getApproved(uint256)": {
        "details": "See {IERC721-getApproved}."
      },
      "getRoleAdmin(bytes32)": {
        "details": "Returns the admin role that controls `role`. See {grantRole} and {revokeRole}. To change a role's admin, use {_setRoleAdmin}."
      },
      "getRoleMember(bytes32,uint256)": {
        "details": "Returns one of the accounts that have `role`. `index` must be a value between 0 and {getRoleMemberCount}, non-inclusive. Role bearers are not sorted in any particular way, and their ordering may change at any point. WARNING: When using {getRoleMember} and {getRoleMemberCount}, make sure you perform all queries on the same block. See the following https://forum.openzeppelin.com/t/iterating-over-elements-on-enumerableset-in-openzeppelin-contracts/2296[forum post] for more information."
      },
      "getRoleMemberCount(bytes32)": {
        "details": "Returns the number of accounts that have `role`. Can be used together with {getRoleMember} to enumerate all bearers of a role."
      },
      "grantRole(bytes32,address)": {
        "details": "Grants `role` to `account`. If `account` had not been already granted `role`, emits a {RoleGranted} event. Requirements: - the caller must have ``role``'s admin role."
      },
      "hasRole(bytes32,address)": {
        "details": "Returns `true` if `account` has been granted `role`."
      },
      "isApprovedForAll(address,address)": {
        "details": "See {IERC721-isApprovedForAll}."
      },
      "mint(address)": {
        "details": "Creates a new token for `to`. Its token ID will be automatically assigned (and available on the emitted {IERC721-Transfer} event), and the token URI autogenerated based on the base URI passed at construction. See {ERC721-_mint}. Requirements: - the caller must have the `MINTER_ROLE`."
      },
      "name()": {
        "details": "See {IERC721Metadata-name}."
      },
      "ownerOf(uint256)": {
        "details": "See {IERC721-ownerOf}."
      },
      "pause()": {
        "details": "Pauses all token transfers. See {ERC721Pausable} and {Pausable-_pause}. Requirements: - the caller must have the `PAUSER_ROLE`."
      },
      "paused()": {
        "details": "Returns true if the contract is paused, and false otherwise."
      },
      "renounceRole(bytes32,address)": {
        "details": "Revokes `role` from the calling account. Roles are often managed via {grantRole} and {revokeRole}: this function's purpose is to provide a mechanism for accounts to lose their privileges if they are compromised (such as when a trusted device is misplaced). If the calling account had been granted `role`, emits a {RoleRevoked} event. Requirements: - the caller must be `account`."
      },
      "revokeRole(bytes32,address)": {
        "details": "Revokes `role` from `account`. If `account` had been granted `role`, emits a {RoleRevoked} event. Requirements: - the caller must have ``role``'s admin role."
      },
      "safeTransferFrom(address,address,uint256)": {
        "details": "See {IERC721-safeTransferFrom}."
      },
      "safeTransferFrom(address,address,uint256,bytes)": {
        "details": "See {IERC721-safeTransferFrom}."
      },
      "setApprovalForAll(address,bool)": {
        "details": "See {IERC721-setApprovalForAll}."
      },
      "supportsInterface(bytes4)": {
        "details": "See {IERC165-supportsInterface}. Time complexity O(1), guaranteed to always use less than 30 000 gas."
      },
      "symbol()": {
        "details": "See {IERC721Metadata-symbol}."
      },
      "tokenByIndex(uint256)": {
        "details": "See {IERC721Enumerable-tokenByIndex}."
      },
      "tokenOfOwnerByIndex(address,uint256)": {
        "details": "See {IERC721Enumerable-tokenOfOwnerByIndex}."
      },
      "tokenURI(uint256)": {
        "details": "See {IERC721Metadata-tokenURI}."
      },
      "totalSupply()": {
        "details": "See {IERC721Enumerable-totalSupply}."
      },
      "transferFrom(address,address,uint256)": {
        "details": "See {IERC721-transferFrom}."
      },
      "unpause()": {
        "details": "Unpauses all token transfers. See {ERC721Pausable} and {Pausable-_unpause}. Requirements: - the caller must have the `PAUSER_ROLE`."
      }
    },
    "version": 1
  },
  "userdoc": {
    "kind": "user",
    "methods": {},
    "version": 1
  }
}