{
  "contractName": "ERC721Token",
  "abi": [
    {
      "inputs": [
        {
          "internalType": "string",
          "name": "name",
          "type": "string"
        },
        {
          "internalType": "string",
          "name": "symbol",
          "type": "string"
        }
      ],
      "stateMutability": "nonpayable",
      "type": "constructor"
    },
    {
      "anonymous": false,
      "inputs": [
        {
          "indexed": true,
          "internalType": "address",
          "name": "owner",
          "type": "address"
        },
        {
          "indexed": true,
          "internalType": "address",
          "name": "approved",
          "type": "address"
        },
        {
          "indexed": true,
          "internalType": "uint256",
          "name": "tokenId",
          "type": "uint256"
        }
      ],
      "name": "Approval",
      "type": "event"
    },
    {
      "anonymous": false,
      "inputs": [
        {
          "indexed": true,
          "internalType": "address",
          "name": "owner",
          "type": "address"
        },
        {
          "indexed": true,
          "internalType": "address",
          "name": "operator",
          "type": "address"
        },
        {
          "indexed": false,
          "internalType": "bool",
          "name": "approved",
          "type": "bool"
        }
      ],
      "name": "ApprovalForAll",
      "type": "event"
    },
    {
      "anonymous": false,
      "inputs": [
        {
          "indexed": true,
          "internalType": "address",
          "name": "from",
          "type": "address"
        },
        {
          "indexed": true,
          "internalType": "address",
          "name": "to",
          "type": "address"
        },
        {
          "indexed": true,
          "internalType": "uint256",
          "name": "tokenId",
          "type": "uint256"
        }
      ],
      "name": "Transfer",
      "type": "event"
    },
    {
      "inputs": [
        {
          "internalType": "address",
          "name": "to",
          "type": "address"
        },
        {
          "internalType": "uint256",
          "name": "tokenId",
          "type": "uint256"
        }
      ],
      "name": "approve",
      "outputs": [],
      "stateMutability": "nonpayable",
      "type": "function"
    },
    {
      "inputs": [
        {
          "internalType": "address",
          "name": "owner",
          "type": "address"
        }
      ],
      "name": "balanceOf",
      "outputs": [
        {
          "internalType": "uint256",
          "name": "",
          "type": "uint256"
        }
      ],
      "stateMutability": "view",
      "type": "function"
    },
    {
      "inputs": [
        {
          "internalType": "uint256",
          "name": "tokenId",
          "type": "uint256"
        }
      ],
      "name": "getApproved",
      "outputs": [
        {
          "internalType": "address",
          "name": "",
          "type": "address"
        }
      ],
      "stateMutability": "view",
      "type": "function"
    },
    {
      "inputs": [
        {
          "internalType": "address",
          "name": "owner",
          "type": "address"
        },
        {
          "internalType": "address",
          "name": "operator",
          "type": "address"
        }
      ],
      "name": "isApprovedForAll",
      "outputs": [
        {
          "internalType": "bool",
          "name": "",
          "type": "bool"
        }
      ],
      "stateMutability": "view",
      "type": "function"
    },
    {
      "inputs": [],
      "name": "name",
      "outputs": [
        {
          "internalType": "string",
          "name": "",
          "type": "string"
        }
      ],
      "stateMutability": "view",
      "type": "function"
    },
    {
      "inputs": [
        {
          "internalType": "uint256",
          "name": "tokenId",
          "type": "uint256"
        }
      ],
      "name": "ownerOf",
      "outputs": [
        {
          "internalType": "address",
          "name": "",
          "type": "address"
        }
      ],
      "stateMutability": "view",
      "type": "function"
    },
    {
      "inputs": [
        {
          "internalType": "address",
          "name": "from",
          "type": "address"
        },
        {
          "internalType": "address",
          "name": "to",
          "type": "address"
        },
        {
          "internalType": "uint256",
          "name": "tokenId",
          "type": "uint256"
        }
      ],
      "name": "safeTransferFrom",
      "outputs": [],
      "stateMutability": "nonpayable",
      "type": "function"
    },
    {
      "inputs": [
        {
          "internalType": "address",
          "name": "from",
          "type": "address"
        },
        {
          "internalType": "address",
          "name": "to",
          "type": "address"
        },
        {
          "internalType": "uint256",
          "name": "tokenId",
          "type": "uint256"
        },
        {
          "internalType": "bytes",
          "name": "_data",
          "type": "bytes"
        }
      ],
      "name": "safeTransferFrom",
      "outputs": [],
      "stateMutability": "nonpayable",
      "type": "function"
    },
    {
      "inputs": [
        {
          "internalType": "address",
          "name": "operator",
          "type": "address"
        },
        {
          "internalType": "bool",
          "name": "approved",
          "type": "bool"
        }
      ],
      "name": "setApprovalForAll",
      "outputs": [],
      "stateMutability": "nonpayable",
      "type": "function"
    },
    {
      "inputs": [
        {
          "internalType": "bytes4",
          "name": "interfaceId",
          "type": "bytes4"
        }
      ],
      "name": "supportsInterface",
      "outputs": [
        {
          "internalType": "bool",
          "name": "",
          "type": "bool"
        }
      ],
      "stateMutability": "view",
      "type": "function"
    },
    {
      "inputs": [],
      "name": "symbol",
      "outputs": [
        {
          "internalType": "string",
          "name": "",
          "type": "string"
        }
      ],
      "stateMutability": "view",
      "type": "function"
    },
    {
      "inputs": [
        {
          "internalType": "uint256",
          "name": "tokenId",
          "type": "uint256"
        }
      ],
      "name": "tokenURI",
      "outputs": [
        {
          "internalType": "string",
          "name": "",
          "type": "string"
        }
      ],
      "stateMutability": "view",
      "type": "function"
    },
    {
      "inputs": [
        {
          "internalType": "address",
          "name": "from",
          "type": "address"
        },
        {
          "internalType": "address",
          "name": "to",
          "type": "address"
        },
        {
          "internalType": "uint256",
          "name": "tokenId",
          "type": "uint256"
        }
      ],
      "name": "transferFrom",
      "outputs": [],
      "stateMutability": "nonpayable",
      "type": "function"
    },
    {
      "inputs": [
        {
          "internalType": "string",
          "name": "tokenURI",
          "type": "string"
        }
      ],
      "name": "createTimeframe",
      "outputs": [
        {
          "internalType": "bool",
          "name": "",
          "type": "bool"
        }
      ],
      "stateMutability": "nonpayable",
      "type": "function"
    }
  ],
  "bytecode": "0x60806040523480156200001157600080fd5b506040516200195638038062001956833981810160405260408110156200003757600080fd5b81019080805160405193929190846401000000008211156200005857600080fd5b9083019060208201858111156200006e57600080fd5b82516401000000008111828201881017156200008957600080fd5b82525081516020918201929091019080838360005b83811015620000b85781810151838201526020016200009e565b50505050905090810190601f168015620000e65780820380516001836020036101000a031916815260200191505b50604052602001805160405193929190846401000000008211156200010a57600080fd5b9083019060208201858111156200012057600080fd5b82516401000000008111828201881017156200013b57600080fd5b82525081516020918201929091019080838360005b838110156200016a57818101518382015260200162000150565b50505050905090810190601f168015620001985780820380516001836020036101000a031916815260200191505b50604052505082518391508290620001b8906000906020850190620001d9565b508051620001ce906001906020840190620001d9565b5050505050620002bc565b828054620001e7906200027f565b90600052602060002090601f0160209004810192826200020b576000855562000256565b82601f106200022657805160ff191683800117855562000256565b8280016001018555821562000256579182015b828111156200025657825182559160200191906001019062000239565b506200026492915062000268565b5090565b5b8082111562000264576000815560010162000269565b6002810460018216806200029457607f821691505b60208210811415620002b657634e487b7160e01b600052602260045260246000fd5b50919050565b61168a80620002cc6000396000f3fe608060405234801561001057600080fd5b50600436106100ea5760003560e01c80636352211e1161008c578063a22cb46511610066578063a22cb4651461037d578063b88d4fde146103ab578063c87b56dd14610471578063e985e9c51461048e576100ea565b80636352211e1461032057806370a082311461033d57806395d89b4114610375576100ea565b8063095ea7b3116100c8578063095ea7b3146101e057806323b872dd1461020e57806342842e0e146102445780635818381d1461027a576100ea565b806301ffc9a7146100ef57806306fdde031461012a578063081812fc146101a7575b600080fd5b6101166004803603602081101561010557600080fd5b50356001600160e01b0319166104bc565b604080519115158252519081900360200190f35b610132610510565b6040805160208082528351818301528351919283929083019185019080838360005b8381101561016c578181015183820152602001610154565b50505050905090810190601f1680156101995780820380516001836020036101000a031916815260200191505b509250505060405180910390f35b6101c4600480360360208110156101bd57600080fd5b50356105a2565b604080516001600160a01b039092168252519081900360200190f35b61020c600480360360408110156101f657600080fd5b506001600160a01b03813516906020013561062f565b005b61020c6004803603606081101561022457600080fd5b506001600160a01b03813581169160208101359091169060400135610745565b61020c6004803603606081101561025a57600080fd5b506001600160a01b03813581169160208101359091169060400135610776565b6101166004803603602081101561029057600080fd5b8101906020810181356401000000008111156102ab57600080fd5b8201836020820111156102bd57600080fd5b803590602001918460018302840111640100000000831117156102df57600080fd5b91908080601f016020809104026020016040519081016040528093929190818152602001838380828437600092019190915250929550610791945050505050565b6101c46004803603602081101561033657600080fd5b50356107cd565b6103636004803603602081101561035357600080fd5b50356001600160a01b0316610844565b60408051918252519081900360200190f35b6101326108cb565b61020c6004803603604081101561039357600080fd5b506001600160a01b03813516906020013515156108da565b61020c600480360360808110156103c157600080fd5b6001600160a01b038235811692602081013590911691604082013591908101906080810160608201356401000000008111156103fc57600080fd5b82018360208201111561040e57600080fd5b8035906020019184600183028401116401000000008311171561043057600080fd5b91908080601f0160208091040260200160405190810160405280939291908181526020018383808284376000920191909152509295506109ac945050505050565b6101326004803603602081101561048757600080fd5b50356109e4565b610116600480360360408110156104a457600080fd5b506001600160a01b0381358116916020013516610b5c565b60006001600160e01b031982166380ac58cd60e01b14806104ed57506001600160e01b03198216635b5e139f60e01b145b8061050857506301ffc9a760e01b6001600160e01b03198316145b90505b919050565b60606000805461051f906115be565b80601f016020809104026020016040519081016040528092919081815260200182805461054b906115be565b80156105985780601f1061056d57610100808354040283529160200191610598565b820191906000526020600020905b81548152906001019060200180831161057b57829003601f168201915b5050505050905090565b60006105ad82610b8a565b6106135760405162461bcd60e51b815260206004820152602c60248201527f4552433732313a20617070726f76656420717565727920666f72206e6f6e657860448201526b34b9ba32b73a103a37b5b2b760a11b60648201526084015b60405180910390fd5b506000908152600460205260409020546001600160a01b031690565b600061063a826107cd565b9050806001600160a01b0316836001600160a01b031614156106a85760405162461bcd60e51b815260206004820152602160248201527f4552433732313a20617070726f76616c20746f2063757272656e74206f776e656044820152603960f91b606482015260840161060a565b336001600160a01b03821614806106c457506106c48133610b5c565b6107365760405162461bcd60e51b815260206004820152603860248201527f4552433732313a20617070726f76652063616c6c6572206973206e6f74206f7760448201527f6e6572206e6f7220617070726f76656420666f7220616c6c0000000000000000606482015260840161060a565b6107408383610ba7565b505050565b61074f3382610c15565b61076b5760405162461bcd60e51b815260040161060a906114fe565b610740838383610cd7565b610740838383604051806020016040528060008152506109ac565b60006001600760008282546107a6919061154f565b925050819055506107b933600754610e77565b6107c560075483610faa565b506001919050565b6000818152600260205260408120546001600160a01b0316806105085760405162461bcd60e51b815260206004820152602960248201527f4552433732313a206f776e657220717565727920666f72206e6f6e657869737460448201526832b73a103a37b5b2b760b91b606482015260840161060a565b60006001600160a01b0382166108af5760405162461bcd60e51b815260206004820152602a60248201527f4552433732313a2062616c616e636520717565727920666f7220746865207a65604482015269726f206164647265737360b01b606482015260840161060a565b506001600160a01b031660009081526003602052604090205490565b60606001805461051f906115be565b6001600160a01b0382163314156109335760405162461bcd60e51b815260206004820152601960248201527f4552433732313a20617070726f766520746f2063616c6c657200000000000000604482015260640161060a565b3360008181526005602090815260408083206001600160a01b0387168085529252909120805460ff1916841515179055906001600160a01b03167f17307eab39ab6107e8899845ad3d59bd9653f200f220920489ca2b5937696c31836040516109a0911515815260200190565b60405180910390a35050565b6109b63383610c15565b6109d25760405162461bcd60e51b815260040161060a906114fe565b6109de84848484611035565b50505050565b60606109ef82610b8a565b610a555760405162461bcd60e51b815260206004820152603160248201527f45524337323155524953746f726167653a2055524920717565727920666f72206044820152703737b732bc34b9ba32b73a103a37b5b2b760791b606482015260840161060a565b60008281526006602052604081208054610a6e906115be565b80601f0160208091040260200160405190810160405280929190818152602001828054610a9a906115be565b8015610ae75780601f10610abc57610100808354040283529160200191610ae7565b820191906000526020600020905b815481529060010190602001808311610aca57829003601f168201915b505050505090506000610b0560408051602081019091526000815290565b9050805160001415610b195750905061050b565b815115610b4b578082604051602001610b33929190611429565b6040516020818303038152906040529250505061050b565b610b5484611068565b949350505050565b6001600160a01b03918216600090815260056020908152604080832093909416825291909152205460ff1690565b6000908152600260205260409020546001600160a01b0316151590565b600081815260046020526040902080546001600160a01b0319166001600160a01b0384169081179091558190610bdc826107cd565b6001600160a01b03167f8c5be1e5ebec7d5bd14f71427d1e84f3dd0314c0f7b2291e5b200ac8c7c3b92560405160405180910390a45050565b6000610c2082610b8a565b610c815760405162461bcd60e51b815260206004820152602c60248201527f4552433732313a206f70657261746f7220717565727920666f72206e6f6e657860448201526b34b9ba32b73a103a37b5b2b760a11b606482015260840161060a565b6000610c8c836107cd565b9050806001600160a01b0316846001600160a01b03161480610cc75750836001600160a01b0316610cbc846105a2565b6001600160a01b0316145b80610b545750610b548185610b5c565b826001600160a01b0316610cea826107cd565b6001600160a01b031614610d525760405162461bcd60e51b815260206004820152602960248201527f4552433732313a207472616e73666572206f6620746f6b656e2074686174206960448201526839903737ba1037bbb760b91b606482015260840161060a565b6001600160a01b038216610db45760405162461bcd60e51b8152602060048201526024808201527f4552433732313a207472616e7366657220746f20746865207a65726f206164646044820152637265737360e01b606482015260840161060a565b610dbf600082610ba7565b6001600160a01b0383166000908152600360205260408120805460019290610de890849061157b565b90915550506001600160a01b0382166000908152600360205260408120805460019290610e1690849061154f565b909155505060008181526002602052604080822080546001600160a01b0319166001600160a01b0386811691821790925591518493918716917fddf252ad1be2c89b69c2b068fc378daa952ba7f163c4a11628f55a4df523b3ef91a4505050565b6001600160a01b038216610ecd5760405162461bcd60e51b815260206004820181905260248201527f4552433732313a206d696e7420746f20746865207a65726f2061646472657373604482015260640161060a565b610ed681610b8a565b15610f235760405162461bcd60e51b815260206004820152601c60248201527f4552433732313a20746f6b656e20616c7265616479206d696e74656400000000604482015260640161060a565b6001600160a01b0382166000908152600360205260408120805460019290610f4c90849061154f565b909155505060008181526002602052604080822080546001600160a01b0319166001600160a01b03861690811790915590518392907fddf252ad1be2c89b69c2b068fc378daa952ba7f163c4a11628f55a4df523b3ef908290a45050565b610fb382610b8a565b6110165760405162461bcd60e51b815260206004820152602e60248201527f45524337323155524953746f726167653a2055524920736574206f66206e6f6e60448201526d32bc34b9ba32b73a103a37b5b2b760911b606482015260840161060a565b6000828152600660209081526040909120825161074092840190611368565b611040848484610cd7565b61104c84848484611140565b6109de5760405162461bcd60e51b815260040161060a906114ac565b606061107382610b8a565b6110d75760405162461bcd60e51b815260206004820152602f60248201527f4552433732314d657461646174613a2055524920717565727920666f72206e6f60448201526e3732bc34b9ba32b73a103a37b5b2b760891b606482015260840161060a565b60006110ee60408051602081019091526000815290565b9050600081511161110e5760405180602001604052806000815250611139565b806111188461124d565b604051602001611129929190611429565b6040516020818303038152906040525b9392505050565b60006001600160a01b0384163b1561124257604051630a85bd0160e11b81526001600160a01b0385169063150b7a0290611184903390899088908890600401611458565b602060405180830381600087803b15801561119e57600080fd5b505af19250505080156111ce575060408051601f3d908101601f191682019092526111cb91810190611401565b60015b611228573d8080156111fc576040519150601f19603f3d011682016040523d82523d6000602084013e611201565b606091505b5080516112205760405162461bcd60e51b815260040161060a906114ac565b805181602001fd5b6001600160e01b031916630a85bd0160e11b149050610b54565b506001949350505050565b60608161127257506040805180820190915260018152600360fc1b602082015261050b565b8160005b811561129c5780611286816115f9565b91506112959050600a83611567565b9150611276565b60008167ffffffffffffffff8111156112c557634e487b7160e01b600052604160045260246000fd5b6040519080825280601f01601f1916602001820160405280156112ef576020820181803683370190505b5090505b8415610b545761130460018361157b565b9150611311600a86611614565b61131c90603061154f565b60f81b81838151811061133f57634e487b7160e01b600052603260045260246000fd5b60200101906001600160f81b031916908160001a905350611361600a86611567565b94506112f3565b828054611374906115be565b90600052602060002090601f01602090048101928261139657600085556113dc565b82601f106113af57805160ff19168380011785556113dc565b828001600101855582156113dc579182015b828111156113dc5782518255916020019190600101906113c1565b506113e89291506113ec565b5090565b5b808211156113e857600081556001016113ed565b600060208284031215611412578081fd5b81516001600160e01b031981168114611139578182fd5b6000835161143b818460208801611592565b83519083019061144f818360208801611592565b01949350505050565b600060018060a01b0380871683528086166020840152508360408301526080606083015282518060808401526114958160a0850160208701611592565b601f01601f19169190910160a00195945050505050565b60208082526032908201527f4552433732313a207472616e7366657220746f206e6f6e20455243373231526560408201527131b2b4bb32b91034b6b83632b6b2b73a32b960711b606082015260800190565b60208082526031908201527f4552433732313a207472616e736665722063616c6c6572206973206e6f74206f6040820152701ddb995c881b9bdc88185c1c1c9bdd9959607a1b606082015260800190565b6000821982111561156257611562611628565b500190565b6000826115765761157661163e565b500490565b60008282101561158d5761158d611628565b500390565b60005b838110156115ad578181015183820152602001611595565b838111156109de5750506000910152565b6002810460018216806115d257607f821691505b602082108114156115f357634e487b7160e01b600052602260045260246000fd5b50919050565b600060001982141561160d5761160d611628565b5060010190565b6000826116235761162361163e565b500690565b634e487b7160e01b600052601160045260246000fd5b634e487b7160e01b600052601260045260246000fdfea264697066735822122012971bc470fa7d15f5573534f9cbbb880206ff298396349c62dcfdba11653d3a64736f6c63430008020033",
  "immutableReferences": {},
  "source": "// SPDX-License-Identifier: UNLICENSED\n\npragma solidity ^0.8.0;\npragma abicoder v1;\n\nimport \"openzeppelin-solidity/contracts/token/ERC721/ERC721.sol\";\nimport \"openzeppelin-solidity/contracts/token/ERC721/extensions/ERC721URIStorage.sol\";\n\ncontract ERC721Token is ERC721URIStorage {\n    uint256 private tokenId;\n\n    constructor(string memory name, string memory symbol)\n        ERC721(name, symbol)\n    {}\n\n    function createTimeframe(string memory tokenURI) public returns (bool) {\n        tokenId += 1;\n        _mint(msg.sender, tokenId);\n        _setTokenURI(tokenId, tokenURI);\n        return true;\n    }\n}\n",
  "sourcePath": "/Users/Tal/code/kirobo/ki-eth-contracts/contracts/test/ERC721Token.sol",
  "compiler": {
    "name": "solc",
    "version": "0.8.2+commit.661d1103.Emscripten.clang"
  },
  "schemaVersion": "3.3.4",
  "updatedAt": "2021-04-13T23:14:26.450Z",
  "devdoc": {
    "kind": "dev",
    "methods": {
      "approve(address,uint256)": {
        "details": "See {IERC721-approve}."
      },
      "balanceOf(address)": {
        "details": "See {IERC721-balanceOf}."
      },
      "getApproved(uint256)": {
        "details": "See {IERC721-getApproved}."
      },
      "isApprovedForAll(address,address)": {
        "details": "See {IERC721-isApprovedForAll}."
      },
      "name()": {
        "details": "See {IERC721Metadata-name}."
      },
      "ownerOf(uint256)": {
        "details": "See {IERC721-ownerOf}."
      },
      "safeTransferFrom(address,address,uint256)": {
        "details": "See {IERC721-safeTransferFrom}."
      },
      "safeTransferFrom(address,address,uint256,bytes)": {
        "details": "See {IERC721-safeTransferFrom}."
      },
      "setApprovalForAll(address,bool)": {
        "details": "See {IERC721-setApprovalForAll}."
      },
      "supportsInterface(bytes4)": {
        "details": "See {IERC165-supportsInterface}."
      },
      "symbol()": {
        "details": "See {IERC721Metadata-symbol}."
      },
      "tokenURI(uint256)": {
        "details": "See {IERC721Metadata-tokenURI}."
      },
      "transferFrom(address,address,uint256)": {
        "details": "See {IERC721-transferFrom}."
      }
    },
    "version": 1
  },
  "userdoc": {
    "kind": "user",
    "methods": {},
    "version": 1
  }
}