{
  "contractName": "ERC721Token",
  "abi": [
    {
      "inputs": [
        {
          "internalType": "string",
          "name": "name",
          "type": "string"
        },
        {
          "internalType": "string",
          "name": "symbol",
          "type": "string"
        }
      ],
      "stateMutability": "nonpayable",
      "type": "constructor"
    },
    {
      "anonymous": false,
      "inputs": [
        {
          "indexed": true,
          "internalType": "address",
          "name": "owner",
          "type": "address"
        },
        {
          "indexed": true,
          "internalType": "address",
          "name": "approved",
          "type": "address"
        },
        {
          "indexed": true,
          "internalType": "uint256",
          "name": "tokenId",
          "type": "uint256"
        }
      ],
      "name": "Approval",
      "type": "event"
    },
    {
      "anonymous": false,
      "inputs": [
        {
          "indexed": true,
          "internalType": "address",
          "name": "owner",
          "type": "address"
        },
        {
          "indexed": true,
          "internalType": "address",
          "name": "operator",
          "type": "address"
        },
        {
          "indexed": false,
          "internalType": "bool",
          "name": "approved",
          "type": "bool"
        }
      ],
      "name": "ApprovalForAll",
      "type": "event"
    },
    {
      "anonymous": false,
      "inputs": [
        {
          "indexed": true,
          "internalType": "address",
          "name": "from",
          "type": "address"
        },
        {
          "indexed": true,
          "internalType": "address",
          "name": "to",
          "type": "address"
        },
        {
          "indexed": true,
          "internalType": "uint256",
          "name": "tokenId",
          "type": "uint256"
        }
      ],
      "name": "Transfer",
      "type": "event"
    },
    {
      "inputs": [
        {
          "internalType": "address",
          "name": "to",
          "type": "address"
        },
        {
          "internalType": "uint256",
          "name": "tokenId",
          "type": "uint256"
        }
      ],
      "name": "approve",
      "outputs": [],
      "stateMutability": "nonpayable",
      "type": "function"
    },
    {
      "inputs": [
        {
          "internalType": "address",
          "name": "owner",
          "type": "address"
        }
      ],
      "name": "balanceOf",
      "outputs": [
        {
          "internalType": "uint256",
          "name": "",
          "type": "uint256"
        }
      ],
      "stateMutability": "view",
      "type": "function",
      "constant": true
    },
    {
      "inputs": [],
      "name": "baseURI",
      "outputs": [
        {
          "internalType": "string",
          "name": "",
          "type": "string"
        }
      ],
      "stateMutability": "view",
      "type": "function",
      "constant": true
    },
    {
      "inputs": [
        {
          "internalType": "uint256",
          "name": "tokenId",
          "type": "uint256"
        }
      ],
      "name": "getApproved",
      "outputs": [
        {
          "internalType": "address",
          "name": "",
          "type": "address"
        }
      ],
      "stateMutability": "view",
      "type": "function",
      "constant": true
    },
    {
      "inputs": [
        {
          "internalType": "address",
          "name": "owner",
          "type": "address"
        },
        {
          "internalType": "address",
          "name": "operator",
          "type": "address"
        }
      ],
      "name": "isApprovedForAll",
      "outputs": [
        {
          "internalType": "bool",
          "name": "",
          "type": "bool"
        }
      ],
      "stateMutability": "view",
      "type": "function",
      "constant": true
    },
    {
      "inputs": [],
      "name": "name",
      "outputs": [
        {
          "internalType": "string",
          "name": "",
          "type": "string"
        }
      ],
      "stateMutability": "view",
      "type": "function",
      "constant": true
    },
    {
      "inputs": [
        {
          "internalType": "uint256",
          "name": "tokenId",
          "type": "uint256"
        }
      ],
      "name": "ownerOf",
      "outputs": [
        {
          "internalType": "address",
          "name": "",
          "type": "address"
        }
      ],
      "stateMutability": "view",
      "type": "function",
      "constant": true
    },
    {
      "inputs": [
        {
          "internalType": "address",
          "name": "from",
          "type": "address"
        },
        {
          "internalType": "address",
          "name": "to",
          "type": "address"
        },
        {
          "internalType": "uint256",
          "name": "tokenId",
          "type": "uint256"
        }
      ],
      "name": "safeTransferFrom",
      "outputs": [],
      "stateMutability": "nonpayable",
      "type": "function"
    },
    {
      "inputs": [
        {
          "internalType": "address",
          "name": "from",
          "type": "address"
        },
        {
          "internalType": "address",
          "name": "to",
          "type": "address"
        },
        {
          "internalType": "uint256",
          "name": "tokenId",
          "type": "uint256"
        },
        {
          "internalType": "bytes",
          "name": "_data",
          "type": "bytes"
        }
      ],
      "name": "safeTransferFrom",
      "outputs": [],
      "stateMutability": "nonpayable",
      "type": "function"
    },
    {
      "inputs": [
        {
          "internalType": "address",
          "name": "operator",
          "type": "address"
        },
        {
          "internalType": "bool",
          "name": "approved",
          "type": "bool"
        }
      ],
      "name": "setApprovalForAll",
      "outputs": [],
      "stateMutability": "nonpayable",
      "type": "function"
    },
    {
      "inputs": [
        {
          "internalType": "bytes4",
          "name": "interfaceId",
          "type": "bytes4"
        }
      ],
      "name": "supportsInterface",
      "outputs": [
        {
          "internalType": "bool",
          "name": "",
          "type": "bool"
        }
      ],
      "stateMutability": "view",
      "type": "function",
      "constant": true
    },
    {
      "inputs": [],
      "name": "symbol",
      "outputs": [
        {
          "internalType": "string",
          "name": "",
          "type": "string"
        }
      ],
      "stateMutability": "view",
      "type": "function",
      "constant": true
    },
    {
      "inputs": [
        {
          "internalType": "uint256",
          "name": "index",
          "type": "uint256"
        }
      ],
      "name": "tokenByIndex",
      "outputs": [
        {
          "internalType": "uint256",
          "name": "",
          "type": "uint256"
        }
      ],
      "stateMutability": "view",
      "type": "function",
      "constant": true
    },
    {
      "inputs": [
        {
          "internalType": "address",
          "name": "owner",
          "type": "address"
        },
        {
          "internalType": "uint256",
          "name": "index",
          "type": "uint256"
        }
      ],
      "name": "tokenOfOwnerByIndex",
      "outputs": [
        {
          "internalType": "uint256",
          "name": "",
          "type": "uint256"
        }
      ],
      "stateMutability": "view",
      "type": "function",
      "constant": true
    },
    {
      "inputs": [
        {
          "internalType": "uint256",
          "name": "tokenId",
          "type": "uint256"
        }
      ],
      "name": "tokenURI",
      "outputs": [
        {
          "internalType": "string",
          "name": "",
          "type": "string"
        }
      ],
      "stateMutability": "view",
      "type": "function",
      "constant": true
    },
    {
      "inputs": [],
      "name": "totalSupply",
      "outputs": [
        {
          "internalType": "uint256",
          "name": "",
          "type": "uint256"
        }
      ],
      "stateMutability": "view",
      "type": "function",
      "constant": true
    },
    {
      "inputs": [
        {
          "internalType": "address",
          "name": "from",
          "type": "address"
        },
        {
          "internalType": "address",
          "name": "to",
          "type": "address"
        },
        {
          "internalType": "uint256",
          "name": "tokenId",
          "type": "uint256"
        }
      ],
      "name": "transferFrom",
      "outputs": [],
      "stateMutability": "nonpayable",
      "type": "function"
    },
    {
      "inputs": [
        {
          "internalType": "string",
          "name": "tokenURI",
          "type": "string"
        }
      ],
      "name": "createTimeframe",
      "outputs": [
        {
          "internalType": "bool",
          "name": "",
          "type": "bool"
        }
      ],
      "stateMutability": "nonpayable",
      "type": "function"
    }
  ],
  "bytecode": "0x60806040523480156200001157600080fd5b50604051620020fb380380620020fb833981810160405260408110156200003757600080fd5b81019080805160405193929190846401000000008211156200005857600080fd5b9083019060208201858111156200006e57600080fd5b82516401000000008111828201881017156200008957600080fd5b82525081516020918201929091019080838360005b83811015620000b85781810151838201526020016200009e565b50505050905090810190601f168015620000e65780820380516001836020036101000a031916815260200191505b50604052602001805160405193929190846401000000008211156200010a57600080fd5b9083019060208201858111156200012057600080fd5b82516401000000008111828201881017156200013b57600080fd5b82525081516020918201929091019080838360005b838110156200016a57818101518382015260200162000150565b50505050905090810190601f168015620001985780820380516001836020036101000a031916815260200191505b5060405250839150829050620001be6301ffc9a760e01b6001600160e01b036200024516565b8151620001d3906006906020850190620002ca565b508051620001e9906007906020840190620002ca565b50620002056380ac58cd60e01b6001600160e01b036200024516565b62000220635b5e139f60e01b6001600160e01b036200024516565b6200023b63780e9d6360e01b6001600160e01b036200024516565b505050506200036f565b6001600160e01b03198082161415620002a5576040805162461bcd60e51b815260206004820152601c60248201527f4552433136353a20696e76616c696420696e7465726661636520696400000000604482015290519081900360640190fd5b6001600160e01b0319166000908152602081905260409020805460ff19166001179055565b828054600181600116156101000203166002900490600052602060002090601f016020900481019282601f106200030d57805160ff19168380011785556200033d565b828001600101855582156200033d579182015b828111156200033d57825182559160200191906001019062000320565b506200034b9291506200034f565b5090565b6200036c91905b808211156200034b576000815560010162000356565b90565b611d7c806200037f6000396000f3fe608060405234801561001057600080fd5b50600436106101165760003560e01c80635818381d116100a257806395d89b411161007157806395d89b41146103fa578063a22cb46514610402578063b88d4fde14610430578063c87b56dd146104f6578063e985e9c51461051357610116565b80635818381d146103095780636352211e146103af5780636c0360eb146103cc57806370a08231146103d457610116565b806318160ddd116100e957806318160ddd1461023a57806323b872dd146102545780632f745c591461028a57806342842e0e146102b65780634f6ccce7146102ec57610116565b806301ffc9a71461011b57806306fdde0314610156578063081812fc146101d3578063095ea7b31461020c575b600080fd5b6101426004803603602081101561013157600080fd5b50356001600160e01b031916610541565b604080519115158252519081900360200190f35b61015e610564565b6040805160208082528351818301528351919283929083019185019080838360005b83811015610198578181015183820152602001610180565b50505050905090810190601f1680156101c55780820380516001836020036101000a031916815260200191505b509250505060405180910390f35b6101f0600480360360208110156101e957600080fd5b50356105fb565b604080516001600160a01b039092168252519081900360200190f35b6102386004803603604081101561022257600080fd5b506001600160a01b03813516906020013561065d565b005b610242610738565b60408051918252519081900360200190f35b6102386004803603606081101561026a57600080fd5b506001600160a01b03813581169160208101359091169060400135610749565b610242600480360360408110156102a057600080fd5b506001600160a01b0381351690602001356107a0565b610238600480360360608110156102cc57600080fd5b506001600160a01b038135811691602081013590911690604001356107d1565b6102426004803603602081101561030257600080fd5b50356107ec565b6101426004803603602081101561031f57600080fd5b81019060208101813564010000000081111561033a57600080fd5b82018360208201111561034c57600080fd5b8035906020019184600183028401116401000000008311171561036e57600080fd5b91908080601f016020809104026020016040519081016040528093929190818152602001838380828437600092019190915250929550610808945050505050565b6101f0600480360360208110156103c557600080fd5b5035610835565b61015e610863565b610242600480360360208110156103ea57600080fd5b50356001600160a01b03166108c4565b61015e61092c565b6102386004803603604081101561041857600080fd5b506001600160a01b038135169060200135151561098d565b6102386004803603608081101561044657600080fd5b6001600160a01b0382358116926020810135909116916040820135919081019060808101606082013564010000000081111561048157600080fd5b82018360208201111561049357600080fd5b803590602001918460018302840111640100000000831117156104b557600080fd5b91908080601f016020809104026020016040519081016040528093929190818152602001838380828437600092019190915250929550610a92945050505050565b61015e6004803603602081101561050c57600080fd5b5035610af0565b6101426004803603604081101561052957600080fd5b506001600160a01b0381358116916020013516610d97565b6001600160e01b0319811660009081526020819052604090205460ff165b919050565b60068054604080516020601f60026000196101006001881615020190951694909404938401819004810282018101909252828152606093909290918301828280156105f05780601f106105c5576101008083540402835291602001916105f0565b820191906000526020600020905b8154815290600101906020018083116105d357829003601f168201915b505050505090505b90565b600061060682610dc5565b6106415760405162461bcd60e51b815260040180806020018281038252602c815260200180611c45602c913960400191505060405180910390fd5b506000908152600460205260409020546001600160a01b031690565b600061066882610835565b9050806001600160a01b0316836001600160a01b031614156106bb5760405162461bcd60e51b8152600401808060200182810382526021815260200180611cf56021913960400191505060405180910390fd5b806001600160a01b03166106cd610dd8565b6001600160a01b031614806106ee57506106ee816106e9610dd8565b610d97565b6107295760405162461bcd60e51b8152600401808060200182810382526038815260200180611b986038913960400191505060405180910390fd5b6107338383610ddc565b505050565b60006107446002610e57565b905090565b61075a610754610dd8565b82610e62565b6107955760405162461bcd60e51b8152600401808060200182810382526031815260200180611d166031913960400191505060405180910390fd5b610733838383610f06565b6001600160a01b03821660009081526001602052604081206107c8908363ffffffff61106416565b90505b92915050565b61073383838360405180602001604052806000815250610a92565b60008061080060028463ffffffff61107016565b509392505050565b600a80546001019081905560009061082190339061108c565b61082d600a54836111c6565b506001919050565b60006107cb82604051806060016040528060298152602001611bfa602991396002919063ffffffff61122916565b60098054604080516020601f60026000196101006001881615020190951694909404938401819004810282018101909252828152606093909290918301828280156105f05780601f106105c5576101008083540402835291602001916105f0565b60006001600160a01b03821661090b5760405162461bcd60e51b815260040180806020018281038252602a815260200180611bd0602a913960400191505060405180910390fd5b6001600160a01b03821660009081526001602052604090206107cb90610e57565b60078054604080516020601f60026000196101006001881615020190951694909404938401819004810282018101909252828152606093909290918301828280156105f05780601f106105c5576101008083540402835291602001916105f0565b610995610dd8565b6001600160a01b0316826001600160a01b031614156109fb576040805162461bcd60e51b815260206004820152601960248201527f4552433732313a20617070726f766520746f2063616c6c657200000000000000604482015290519081900360640190fd5b8060056000610a08610dd8565b6001600160a01b03908116825260208083019390935260409182016000908120918716808252919093529120805460ff191692151592909217909155610a4c610dd8565b60408051841515815290516001600160a01b0392909216917f17307eab39ab6107e8899845ad3d59bd9653f200f220920489ca2b5937696c319181900360200190a35050565b610aa3610a9d610dd8565b83610e62565b610ade5760405162461bcd60e51b8152600401808060200182810382526031815260200180611d166031913960400191505060405180910390fd5b610aea84848484611240565b50505050565b6060610afb82610dc5565b610b365760405162461bcd60e51b815260040180806020018281038252602f815260200180611cc6602f913960400191505060405180910390fd5b60008281526008602090815260409182902080548351601f6002600019610100600186161502019093169290920491820184900484028101840190945280845260609392830182828015610bcb5780601f10610ba057610100808354040283529160200191610bcb565b820191906000526020600020905b815481529060010190602001808311610bae57829003601f168201915b505060095493945050505060026000196101006001841615020190911604610bf457905061055f565b805115610cc5576009816040516020018083805460018160011615610100020316600290048015610c5c5780601f10610c3a576101008083540402835291820191610c5c565b820191906000526020600020905b815481529060010190602001808311610c48575b5050825160208401908083835b60208310610c885780518252601f199092019160209182019101610c69565b6001836020036101000a0380198251168184511680821785525050505050509050019250505060405160208183030381529060405291505061055f565b6009610cd084611292565b6040516020018083805460018160011615610100020316600290048015610d2e5780601f10610d0c576101008083540402835291820191610d2e565b820191906000526020600020905b815481529060010190602001808311610d1a575b5050825160208401908083835b60208310610d5a5780518252601f199092019160209182019101610d3b565b6001836020036101000a03801982511681845116808217855250505050505090500192505050604051602081830303815290604052915050919050565b6001600160a01b03918216600090815260056020908152604080832093909416825291909152205460ff1690565b60006107cb60028363ffffffff61138516565b3390565b6000818152600460205260409020805473ffffffffffffffffffffffffffffffffffffffff19166001600160a01b0384169081179091558190610e1e82610835565b6001600160a01b03167f8c5be1e5ebec7d5bd14f71427d1e84f3dd0314c0f7b2291e5b200ac8c7c3b92560405160405180910390a45050565b60006107cb82611391565b6000610e6d82610dc5565b610ea85760405162461bcd60e51b815260040180806020018281038252602c815260200180611b6c602c913960400191505060405180910390fd5b6000610eb383610835565b9050806001600160a01b0316846001600160a01b03161480610eee5750836001600160a01b0316610ee3846105fb565b6001600160a01b0316145b80610efe5750610efe8185610d97565b949350505050565b826001600160a01b0316610f1982610835565b6001600160a01b031614610f5e5760405162461bcd60e51b8152600401808060200182810382526029815260200180611c9d6029913960400191505060405180910390fd5b6001600160a01b038216610fa35760405162461bcd60e51b8152600401808060200182810382526024815260200180611b486024913960400191505060405180910390fd5b610fae838383610733565b610fb9600082610ddc565b6001600160a01b0383166000908152600160205260409020610fe1908263ffffffff61139516565b506001600160a01b038216600090815260016020526040902061100a908263ffffffff6113a116565b5061101d6002828463ffffffff6113ad16565b5080826001600160a01b0316846001600160a01b03167fddf252ad1be2c89b69c2b068fc378daa952ba7f163c4a11628f55a4df523b3ef60405160405180910390a4505050565b60006107c883836113c3565b600080808061107f8686611427565b9097909650945050505050565b6001600160a01b0382166110e7576040805162461bcd60e51b815260206004820181905260248201527f4552433732313a206d696e7420746f20746865207a65726f2061646472657373604482015290519081900360640190fd5b6110f081610dc5565b15611142576040805162461bcd60e51b815260206004820152601c60248201527f4552433732313a20746f6b656e20616c7265616479206d696e74656400000000604482015290519081900360640190fd5b61114e60008383610733565b6001600160a01b0382166000908152600160205260409020611176908263ffffffff6113a116565b506111896002828463ffffffff6113ad16565b5060405181906001600160a01b038416906000907fddf252ad1be2c89b69c2b068fc378daa952ba7f163c4a11628f55a4df523b3ef908290a45050565b6111cf82610dc5565b61120a5760405162461bcd60e51b815260040180806020018281038252602c815260200180611c71602c913960400191505060405180910390fd5b6000828152600860209081526040909120825161073392840190611a5b565b60006112368484846114a2565b90505b9392505050565b61124b848484610f06565b6112578484848461156c565b610aea5760405162461bcd60e51b8152600401808060200182810382526032815260200180611b166032913960400191505060405180910390fd5b6060816112b757506040805180820190915260018152600360fc1b602082015261055f565b8160005b81156112cf57600101600a820491506112bb565b60608167ffffffffffffffff811180156112e857600080fd5b506040519080825280601f01601f191660200182016040528015611313576020820181803683370190505b50859350905060001982015b831561137c57600a840660300160f81b8282806001900393508151811061134257fe5b60200101907effffffffffffffffffffffffffffffffffffffffffffffffffffffffffffff1916908160001a905350600a8404935061131f565b50949350505050565b60006107c883836116ec565b5490565b60006107c88383611704565b60006107c883836117ca565b600061123684846001600160a01b038516611814565b815460009082106114055760405162461bcd60e51b8152600401808060200182810382526022815260200180611af46022913960400191505060405180910390fd5b82600001828154811061141457fe5b9060005260206000200154905092915050565b81546000908190831061146b5760405162461bcd60e51b8152600401808060200182810382526022815260200180611c236022913960400191505060405180910390fd5b600084600001848154811061147c57fe5b906000526020600020906002020190508060000154816001015492509250509250929050565b6000828152600184016020526040812054828161153d5760405162461bcd60e51b81526004018080602001828103825283818151815260200191508051906020019080838360005b838110156115025781810151838201526020016114ea565b50505050905090810190601f16801561152f5780820380516001836020036101000a031916815260200191505b509250505060405180910390fd5b5084600001600182038154811061155057fe5b9060005260206000209060020201600101549150509392505050565b6000611580846001600160a01b03166118ab565b61158c57506001610efe565b60606116b2630a85bd0160e11b6115a1610dd8565b88878760405160240180856001600160a01b03166001600160a01b03168152602001846001600160a01b03166001600160a01b0316815260200183815260200180602001828103825283818151815260200191508051906020019080838360005b8381101561161a578181015183820152602001611602565b50505050905090810190601f1680156116475780820380516001836020036101000a031916815260200191505b5095505050505050604051602081830303815290604052906001600160e01b0319166020820180516001600160e01b038381831617835250505050604051806060016040528060328152602001611b16603291396001600160a01b038816919063ffffffff6118e416565b905060008180602001905160208110156116cb57600080fd5b50516001600160e01b031916630a85bd0160e11b1492505050949350505050565b60009081526001919091016020526040902054151590565b600081815260018301602052604081205480156117c0578354600019808301919081019060009087908390811061173757fe5b906000526020600020015490508087600001848154811061175457fe5b60009182526020808320909101929092558281526001898101909252604090209084019055865487908061178457fe5b600190038181906000526020600020016000905590558660010160008781526020019081526020016000206000905560019450505050506107cb565b60009150506107cb565b60006117d683836116ec565b61180c575081546001818101845560008481526020808220909301849055845484825282860190935260409020919091556107cb565b5060006107cb565b600082815260018401602052604081205480611879575050604080518082018252838152602080820184815286546001818101895560008981528481209551600290930290950191825591519082015586548684528188019092529290912055611239565b8285600001600183038154811061188c57fe5b9060005260206000209060020201600101819055506000915050611239565b6000813f7fc5d2460186f7233c927e7db2dcc703c0e500b653ca82273b7bfad8045d85a470818114801590610efe575050151592915050565b6060611236848460008560606118f9856118ab565b61194a576040805162461bcd60e51b815260206004820152601d60248201527f416464726573733a2063616c6c20746f206e6f6e2d636f6e7472616374000000604482015290519081900360640190fd5b60006060866001600160a01b031685876040518082805190602001908083835b602083106119895780518252601f19909201916020918201910161196a565b6001836020036101000a03801982511681845116808217855250505050505090500191505060006040518083038185875af1925050503d80600081146119eb576040519150601f19603f3d011682016040523d82523d6000602084013e6119f0565b606091505b50915091508115611a04579150610efe9050565b805115611a145780518082602001fd5b60405162461bcd60e51b81526020600482018181528651602484015286518793919283926044019190850190808383600083156115025781810151838201526020016114ea565b828054600181600116156101000203166002900490600052602060002090601f016020900481019282601f10611a9c57805160ff1916838001178555611ac9565b82800160010185558215611ac9579182015b82811115611ac9578251825591602001919060010190611aae565b50611ad5929150611ad9565b5090565b6105f891905b80821115611ad55760008155600101611adf56fe456e756d657261626c655365743a20696e646578206f7574206f6620626f756e64734552433732313a207472616e7366657220746f206e6f6e20455243373231526563656976657220696d706c656d656e7465724552433732313a207472616e7366657220746f20746865207a65726f20616464726573734552433732313a206f70657261746f7220717565727920666f72206e6f6e6578697374656e7420746f6b656e4552433732313a20617070726f76652063616c6c6572206973206e6f74206f776e6572206e6f7220617070726f76656420666f7220616c6c4552433732313a2062616c616e636520717565727920666f7220746865207a65726f20616464726573734552433732313a206f776e657220717565727920666f72206e6f6e6578697374656e7420746f6b656e456e756d657261626c654d61703a20696e646578206f7574206f6620626f756e64734552433732313a20617070726f76656420717565727920666f72206e6f6e6578697374656e7420746f6b656e4552433732314d657461646174613a2055524920736574206f66206e6f6e6578697374656e7420746f6b656e4552433732313a207472616e73666572206f6620746f6b656e2074686174206973206e6f74206f776e4552433732314d657461646174613a2055524920717565727920666f72206e6f6e6578697374656e7420746f6b656e4552433732313a20617070726f76616c20746f2063757272656e74206f776e65724552433732313a207472616e736665722063616c6c6572206973206e6f74206f776e6572206e6f7220617070726f766564a2646970667358221220535bc5eb3825e2f53482f29f1395700e007d705632a6e410d13610755bb3377d64736f6c634300060b0033",
  "source": "// SPDX-License-Identifier: UNLICENSED\n\npragma solidity 0.6.11;\n\nimport \"../../node_modules/openzeppelin-solidity/contracts/token/ERC721/ERC721.sol\";\n\ncontract ERC721Token is ERC721 {\n    uint256 private tokenId;\n\n    constructor(\n        string memory name,\n        string memory symbol\n    )\n        ERC721(name, symbol)\n        public\n    {}\n\n    function createTimeframe (\n        string memory tokenURI\n    )\n        public\n        returns (bool)\n    {\n        tokenId += 1;\n        _mint(msg.sender, tokenId);\n        _setTokenURI(tokenId, tokenURI);\n        return true;\n    }\n}\n",
  "sourcePath": "/home/tal/code/kirobo/ki-eth-contracts/contracts/test/ERC721Token.sol",
  "compiler": {
    "name": "solc",
    "version": "0.6.11+commit.5ef660b1.Emscripten.clang"
  },
  "schemaVersion": "3.0.23",
  "updatedAt": "2020-07-20T18:34:11.917Z",
  "networkType": "ethereum",
  "devdoc": {
    "kind": "dev",
    "methods": {
      "approve(address,uint256)": {
        "details": "See {IERC721-approve}."
      },
      "balanceOf(address)": {
        "details": "See {IERC721-balanceOf}."
      },
      "baseURI()": {
        "details": "Returns the base URI set via {_setBaseURI}. This will be automatically added as a prefix in {tokenURI} to each token's URI, or to the token ID if no specific URI is set for that token ID."
      },
      "getApproved(uint256)": {
        "details": "See {IERC721-getApproved}."
      },
      "isApprovedForAll(address,address)": {
        "details": "See {IERC721-isApprovedForAll}."
      },
      "name()": {
        "details": "See {IERC721Metadata-name}."
      },
      "ownerOf(uint256)": {
        "details": "See {IERC721-ownerOf}."
      },
      "safeTransferFrom(address,address,uint256)": {
        "details": "See {IERC721-safeTransferFrom}."
      },
      "safeTransferFrom(address,address,uint256,bytes)": {
        "details": "See {IERC721-safeTransferFrom}."
      },
      "setApprovalForAll(address,bool)": {
        "details": "See {IERC721-setApprovalForAll}."
      },
      "supportsInterface(bytes4)": {
        "details": "See {IERC165-supportsInterface}. Time complexity O(1), guaranteed to always use less than 30 000 gas."
      },
      "symbol()": {
        "details": "See {IERC721Metadata-symbol}."
      },
      "tokenByIndex(uint256)": {
        "details": "See {IERC721Enumerable-tokenByIndex}."
      },
      "tokenOfOwnerByIndex(address,uint256)": {
        "details": "See {IERC721Enumerable-tokenOfOwnerByIndex}."
      },
      "tokenURI(uint256)": {
        "details": "See {IERC721Metadata-tokenURI}."
      },
      "totalSupply()": {
        "details": "See {IERC721Enumerable-totalSupply}."
      },
      "transferFrom(address,address,uint256)": {
        "details": "See {IERC721-transferFrom}."
      }
    },
    "version": 1
  },
  "userdoc": {
    "kind": "user",
    "methods": {},
    "version": 1
  }
}