{
  "contractName": "Factory",
  "abi": [
    {
      "inputs": [],
      "stateMutability": "nonpayable",
      "type": "constructor"
    },
    {
      "anonymous": false,
      "inputs": [
        {
          "indexed": true,
          "internalType": "address",
          "name": "from",
          "type": "address"
        },
        {
          "indexed": false,
          "internalType": "uint256",
          "name": "value",
          "type": "uint256"
        }
      ],
      "name": "GotEther",
      "type": "event"
    },
    {
      "anonymous": false,
      "inputs": [
        {
          "indexed": true,
          "internalType": "bytes8",
          "name": "version",
          "type": "bytes8"
        },
        {
          "indexed": true,
          "internalType": "address",
          "name": "code",
          "type": "address"
        },
        {
          "indexed": true,
          "internalType": "address",
          "name": "oracle",
          "type": "address"
        }
      ],
      "name": "VersionAdded",
      "type": "event"
    },
    {
      "anonymous": false,
      "inputs": [
        {
          "indexed": true,
          "internalType": "bytes8",
          "name": "version",
          "type": "bytes8"
        },
        {
          "indexed": true,
          "internalType": "address",
          "name": "code",
          "type": "address"
        },
        {
          "indexed": true,
          "internalType": "address",
          "name": "oracle",
          "type": "address"
        }
      ],
      "name": "VersionDeployed",
      "type": "event"
    },
    {
      "anonymous": false,
      "inputs": [
        {
          "indexed": true,
          "internalType": "address",
          "name": "wallet",
          "type": "address"
        },
        {
          "indexed": true,
          "internalType": "bytes8",
          "name": "version",
          "type": "bytes8"
        },
        {
          "indexed": true,
          "internalType": "address",
          "name": "owner",
          "type": "address"
        }
      ],
      "name": "WalletConfigurationRestored",
      "type": "event"
    },
    {
      "anonymous": false,
      "inputs": [
        {
          "indexed": true,
          "internalType": "address",
          "name": "wallet",
          "type": "address"
        },
        {
          "indexed": true,
          "internalType": "bytes8",
          "name": "version",
          "type": "bytes8"
        },
        {
          "indexed": true,
          "internalType": "address",
          "name": "owner",
          "type": "address"
        }
      ],
      "name": "WalletCreated",
      "type": "event"
    },
    {
      "anonymous": false,
      "inputs": [
        {
          "indexed": true,
          "internalType": "address",
          "name": "wallet",
          "type": "address"
        },
        {
          "indexed": true,
          "internalType": "address",
          "name": "owner",
          "type": "address"
        }
      ],
      "name": "WalletOwnershipRestored",
      "type": "event"
    },
    {
      "anonymous": false,
      "inputs": [
        {
          "indexed": true,
          "internalType": "address",
          "name": "wallet",
          "type": "address"
        },
        {
          "indexed": true,
          "internalType": "bytes8",
          "name": "version",
          "type": "bytes8"
        }
      ],
      "name": "WalletUpgraded",
      "type": "event"
    },
    {
      "anonymous": false,
      "inputs": [
        {
          "indexed": true,
          "internalType": "address",
          "name": "wallet",
          "type": "address"
        },
        {
          "indexed": true,
          "internalType": "bytes8",
          "name": "version",
          "type": "bytes8"
        },
        {
          "indexed": true,
          "internalType": "address",
          "name": "owner",
          "type": "address"
        }
      ],
      "name": "WalletVersionRestored",
      "type": "event"
    },
    {
      "stateMutability": "payable",
      "type": "fallback",
      "payable": true
    },
    {
      "inputs": [],
      "name": "LATEST",
      "outputs": [
        {
          "internalType": "bytes8",
          "name": "",
          "type": "bytes8"
        }
      ],
      "stateMutability": "view",
      "type": "function",
      "constant": true
    },
    {
      "inputs": [],
      "name": "migrate",
      "outputs": [],
      "stateMutability": "nonpayable",
      "type": "function"
    },
    {
      "inputs": [],
      "name": "owner",
      "outputs": [
        {
          "internalType": "address",
          "name": "",
          "type": "address"
        }
      ],
      "stateMutability": "view",
      "type": "function",
      "constant": true
    },
    {
      "inputs": [],
      "name": "pendingOwner",
      "outputs": [
        {
          "internalType": "address",
          "name": "",
          "type": "address"
        }
      ],
      "stateMutability": "view",
      "type": "function",
      "constant": true
    },
    {
      "inputs": [],
      "name": "proxy",
      "outputs": [
        {
          "internalType": "address",
          "name": "",
          "type": "address"
        }
      ],
      "stateMutability": "view",
      "type": "function",
      "constant": true
    },
    {
      "inputs": [],
      "name": "swProxy",
      "outputs": [
        {
          "internalType": "contract Proxy",
          "name": "",
          "type": "address"
        }
      ],
      "stateMutability": "view",
      "type": "function",
      "constant": true
    },
    {
      "inputs": [],
      "name": "swProxyLatest",
      "outputs": [
        {
          "internalType": "contract ProxyLatest",
          "name": "",
          "type": "address"
        }
      ],
      "stateMutability": "view",
      "type": "function",
      "constant": true
    },
    {
      "inputs": [],
      "name": "target",
      "outputs": [
        {
          "internalType": "address",
          "name": "",
          "type": "address"
        }
      ],
      "stateMutability": "view",
      "type": "function",
      "constant": true
    },
    {
      "inputs": [
        {
          "internalType": "address",
          "name": "_newOwner",
          "type": "address"
        }
      ],
      "name": "transferWalletOwnership",
      "outputs": [],
      "stateMutability": "nonpayable",
      "type": "function"
    },
    {
      "inputs": [
        {
          "internalType": "address",
          "name": "_backup",
          "type": "address"
        }
      ],
      "name": "addWalletBackup",
      "outputs": [],
      "stateMutability": "nonpayable",
      "type": "function"
    },
    {
      "inputs": [
        {
          "internalType": "address",
          "name": "_backup",
          "type": "address"
        }
      ],
      "name": "removeWalletBackup",
      "outputs": [],
      "stateMutability": "nonpayable",
      "type": "function"
    },
    {
      "inputs": [
        {
          "internalType": "bytes8",
          "name": "_version",
          "type": "bytes8"
        }
      ],
      "name": "upgradeWallet",
      "outputs": [],
      "stateMutability": "nonpayable",
      "type": "function"
    },
    {
      "inputs": [
        {
          "internalType": "address",
          "name": "_target",
          "type": "address"
        },
        {
          "internalType": "address",
          "name": "_oracle",
          "type": "address"
        }
      ],
      "name": "addVersion",
      "outputs": [],
      "stateMutability": "nonpayable",
      "type": "function"
    },
    {
      "inputs": [
        {
          "internalType": "bytes8",
          "name": "_version",
          "type": "bytes8"
        }
      ],
      "name": "deployVersion",
      "outputs": [],
      "stateMutability": "nonpayable",
      "type": "function"
    },
    {
      "inputs": [],
      "name": "restoreWalletConfiguration",
      "outputs": [],
      "stateMutability": "nonpayable",
      "type": "function"
    },
    {
      "inputs": [],
      "name": "restoreWalletOwnership",
      "outputs": [],
      "stateMutability": "nonpayable",
      "type": "function"
    },
    {
      "inputs": [],
      "name": "restoreWalletVersion",
      "outputs": [],
      "stateMutability": "nonpayable",
      "type": "function"
    },
    {
      "inputs": [],
      "name": "getLatestVersion",
      "outputs": [
        {
          "internalType": "address",
          "name": "",
          "type": "address"
        }
      ],
      "stateMutability": "view",
      "type": "function",
      "constant": true
    },
    {
      "inputs": [
        {
          "internalType": "address",
          "name": "_account",
          "type": "address"
        }
      ],
      "name": "getWallet",
      "outputs": [
        {
          "internalType": "address",
          "name": "",
          "type": "address"
        }
      ],
      "stateMutability": "view",
      "type": "function",
      "constant": true
    },
    {
      "inputs": [
        {
          "internalType": "bool",
          "name": "_auto",
          "type": "bool"
        }
      ],
      "name": "createWallet",
      "outputs": [
        {
          "internalType": "address",
          "name": "",
          "type": "address"
        }
      ],
      "stateMutability": "nonpayable",
      "type": "function"
    },
    {
      "inputs": [],
      "name": "oracle",
      "outputs": [
        {
          "internalType": "address",
          "name": "_oracle",
          "type": "address"
        }
      ],
      "stateMutability": "view",
      "type": "function",
      "constant": true
    }
  ],
  "bytecode": "0x608060405234801561001057600080fd5b5060008054336001600160a01b03199182168117835560038054909216179055612a3090819061004090396000f3fe60806040526004361061013a5760003560e01c80638fd3ab80116100bb578063c5f5b0481161007f578063e2adec9c11610059578063e2adec9c146103e2578063e30c3978146103f7578063ec5568891461040c5761013a565b8063c5f5b04814610366578063cf2f77411461039a578063d4b83992146103cd5761013a565b80638fd3ab801461029b57806397e61ee4146102b0578063a196de83146102eb578063a7ecbd8d1461031e578063bf3b1101146103335761013a565b80637721904c116101025780637721904c146102155780637dc0d1d01461022a578063842bb7321461023f5780638c576fc3146102545780638da5cb5b146102865761013a565b806304d0a6471461013c5780630e6d1de91461018b5780631a05b142146101a05780632bc68db7146101b55780634b613c20146101e1575b005b34801561014857600080fd5b5061016f6004803603602081101561015f57600080fd5b50356001600160a01b0316610421565b604080516001600160a01b039092168252519081900360200190f35b34801561019757600080fd5b5061016f61043f565b3480156101ac57600080fd5b5061013a610455565b3480156101c157600080fd5b5061016f600480360360208110156101d857600080fd5b5035151561065f565b3480156101ed57600080fd5b5061013a6004803603602081101561020457600080fd5b50356001600160c01b031916610b39565b34801561022157600080fd5b5061016f610cf9565b34801561023657600080fd5b5061016f610d08565b34801561024b57600080fd5b5061013a610d65565b34801561026057600080fd5b50610269610eb6565b604080516001600160c01b03199092168252519081900360200190f35b34801561029257600080fd5b5061016f610ec3565b3480156102a757600080fd5b5061013a610ed2565b3480156102bc57600080fd5b5061013a600480360360408110156102d357600080fd5b506001600160a01b0381358116916020013516611011565b3480156102f757600080fd5b5061013a6004803603602081101561030e57600080fd5b50356001600160a01b0316611506565b34801561032a57600080fd5b5061013a611704565b34801561033f57600080fd5b5061013a6004803603602081101561035657600080fd5b50356001600160a01b0316611905565b34801561037257600080fd5b5061013a6004803603602081101561038957600080fd5b50356001600160c01b031916611b8c565b3480156103a657600080fd5b5061013a600480360360208110156103bd57600080fd5b50356001600160a01b0316611e0d565b3480156103d957600080fd5b5061016f611f21565b3480156103ee57600080fd5b5061016f611f30565b34801561040357600080fd5b5061016f611f3f565b34801561041857600080fd5b5061016f611f4e565b6001600160a01b039081166000908152600660205260409020541690565b600954600160401b90046001600160a01b031690565b33600090815260066020526040902080546001600160a01b03166104ac576040805162461bcd60e51b81526020600482015260096024820152681b9bc81dd85b1b195d60ba1b604482015290519081900360640190fd5b8054600160a01b900460ff161515600114610501576040805162461bcd60e51b815260206004820152601060248201526f3737ba103bb0b63632ba1037bbb732b960811b604482015290519081900360640190fd5b80546001600160a01b031660009081526007602052604090205460c01b6001600160c01b03198116651b185d195cdd60d21b1415610541575060095460c01b5b6001600160c01b031981166000908152600860205260409020546001600160a01b0316806105aa576040805162461bcd60e51b81526020600482015260116024820152701d995c9cda5bdb881b9bdd08195e1a5cdd607a1b604482015290519081900360640190fd5b82546040805163784d200b60e11b81523360048201526001600160a01b0384811660248301529151919092169163f09a401691604480830192600092919082900301818387803b1580156105fd57600080fd5b505af1158015610611573d6000803e3d6000fd5b505084546040513393506001600160c01b0319861692506001600160a01b03909116907f9dff4715dcc255fd0abdc515933401366bac62424c60e57d607dfe9003f2dc1790600090a4505050565b6004546000906001600160a01b03166106aa576040805162461bcd60e51b81526020600482015260086024820152676e6f2070726f787960c01b604482015290519081900360640190fd5b600954600160401b90046001600160a01b0316610700576040805162461bcd60e51b815260206004820152600f60248201526e373790383937b2103b32b939b4b7b760891b604482015290519081900360640190fd5b33600090815260066020526040902080546001600160a01b0316610b29576004546107359030906001600160a01b0316611f5d565b81546001600160a01b0319166001600160a01b0391821617808355166107a2576040805162461bcd60e51b815260206004820152601260248201527f77616c6c6574206e6f7420637265617465640000000000000000000000000000604482015290519081900360640190fd5b805460ff60a01b1916600160a01b17815582156109d9576005546001600160a01b0316610808576040805162461bcd60e51b815260206004820152600f60248201526e37379030baba37903b32b939b4b7b760891b604482015290519081900360640190fd5b600554651b185d195cdd60d21b60005260086020527f9f352c9233cee249fbc91fba5d1afd8f9fb06b88210f74d608d6f2a611232074546001600160a01b0390811691161461089e576040805162461bcd60e51b815260206004820152601660248201527f696e636f7272656374206175746f2076657273696f6e00000000000000000000604482015290519081900360640190fd5b80546001600160a01b03908116600090815260076020526040808220805467ffffffffffffffff1916676c617465737400001790558354600554825163784d200b60e11b81523360048201529085166024820152915193169263f09a40169260448084019391929182900301818387803b15801561091b57600080fd5b505af115801561092f573d6000803e3d6000fd5b505082546040805163011fa75760e71b815290516001600160a01b039092169350638fd3ab80925060048082019260009290919082900301818387803b15801561097857600080fd5b505af115801561098c573d6000803e3d6000fd5b50508254604051339350651b185d195cdd60d21b92506001600160a01b03909116907f689c6b1155ee0314d789d2c8968b47cb04b9c8592446c127023fc6399b17310c90600090a4610b29565b6009805482546001600160a01b03908116600090815260076020526040808220805467ffffffffffffffff191667ffffffffffffffff9095169490941790935584549354835163784d200b60e11b8152336004820152600160401b909104831660248201529251939091169263f09a401692604480820193929182900301818387803b158015610a6857600080fd5b505af1158015610a7c573d6000803e3d6000fd5b505082546040805163011fa75760e71b815290516001600160a01b039092169350638fd3ab80925060048082019260009290919082900301818387803b158015610ac557600080fd5b505af1158015610ad9573d6000803e3d6000fd5b5050600954835460405133945060c09290921b6001600160c01b03191692506001600160a01b0316907f689c6b1155ee0314d789d2c8968b47cb04b9c8592446c127023fc6399b17310c90600090a45b546001600160a01b031692915050565b6000546001600160a01b03163314610b84576040805162461bcd60e51b81526020600482015260096024820152683737ba1037bbb732b960b91b604482015290519081900360640190fd5b6001600160c01b031981166000908152600860205260409020546001600160a01b031680610bed576040805162461bcd60e51b81526020600482015260116024820152701d995c9cda5bdb881b9bdd08195e1a5cdd607a1b604482015290519081900360640190fd5b6001600160c01b031982166000908152600b60205260409020546001600160a01b031680610c55576040805162461bcd60e51b815260206004820152601060248201526f1bdc9858db19481b9bdd08195e1a5cdd60821b604482015290519081900360640190fd5b6009805467ffffffffffffffff191660c085901c177fffffffff0000000000000000000000000000000000000000ffffffffffffffff16600160401b6001600160a01b0385811691820292909217909255600a80546001600160a01b03191691841691821790556040519091906001600160c01b03198616907fb4d04ce57b22f1de0bfbaebe42d34d0616a77b6de95fde396bbd054851d22f5890600090a4505050565b6004546001600160a01b031681565b3360009081526007602052604081205460c01b6001600160c01b03198116651b185d195cdd60d21b1415610d3e575060095460c01b5b6001600160c01b0319166000908152600b60205260409020546001600160a01b0316919050565b33600090815260066020526040902080546001600160a01b0316610dbc576040805162461bcd60e51b81526020600482015260096024820152681b9bc81dd85b1b195d60ba1b604482015290519081900360640190fd5b8054600160a01b900460ff161515600114610e11576040805162461bcd60e51b815260206004820152601060248201526f3737ba103bb0b63632ba1037bbb732b960811b604482015290519081900360640190fd5b80546040805163784d200b60e11b815233600482015260006024820181905291516001600160a01b039093169263f09a40169260448084019391929182900301818387803b158015610e6257600080fd5b505af1158015610e76573d6000803e3d6000fd5b505082546040513393506001600160a01b0390911691507f5818d755b157239746017f59fc87c7100652290409a15a7d4fba19ff98efcb5f90600090a350565b651b185d195cdd60d21b81565b6000546001600160a01b031681565b6003546001600160a01b03163314610f1d576040805162461bcd60e51b81526020600482015260096024820152686e6f742070726f787960b81b604482015290519081900360640190fd5b6004546001600160a01b0316610f7757604051610f3990612019565b604051809103906000f080158015610f55573d6000803e3d6000fd5b50600480546001600160a01b0319166001600160a01b03929092169190911790555b6005546001600160a01b031661100f57604051610f9390612026565b604051809103906000f080158015610faf573d6000803e3d6000fd5b50600580546001600160a01b03199081166001600160a01b039384161791829055651b185d195cdd60d21b60005260086020527f9f352c9233cee249fbc91fba5d1afd8f9fb06b88210f74d608d6f2a61123207480549290931691161790555b565b6000546001600160a01b0316331461105c576040805162461bcd60e51b81526020600482015260096024820152683737ba1037bbb732b960b91b604482015290519081900360640190fd5b6001600160a01b0382166110a4576040805162461bcd60e51b815260206004820152600a6024820152693737903b32b939b4b7b760b11b604482015290519081900360640190fd5b6001600160a01b0381166110ff576040805162461bcd60e51b815260206004820152601160248201527f6e6f206f7261636c652076657273696f6e000000000000000000000000000000604482015290519081900360640190fd5b806001600160a01b031663158ef93e6040518163ffffffff1660e01b815260040160206040518083038186803b15801561113857600080fd5b505afa15801561114c573d6000803e3d6000fd5b505050506040513d602081101561116257600080fd5b50516111b5576040805162461bcd60e51b815260206004820152601660248201527f6f7261636c65206e6f7420696e697469616c697a656400000000000000000000604482015290519081900360640190fd5b6000826001600160a01b0316638da5cb5b6040518163ffffffff1660e01b815260040160206040518083038186803b1580156111f057600080fd5b505afa158015611204573d6000803e3d6000fd5b505050506040513d602081101561121a57600080fd5b50519050336001600160a01b0382161461127b576040805162461bcd60e51b815260206004820152601160248201527f6e6f742076657273696f6e206f776e6572000000000000000000000000000000604482015290519081900360640190fd5b6000836001600160a01b03166354fd4d506040518163ffffffff1660e01b815260040160206040518083038186803b1580156112b657600080fd5b505afa1580156112ca573d6000803e3d6000fd5b505050506040513d60208110156112e057600080fd5b50516040805163054fd4d560e41b815290519192506001600160c01b03198316916001600160a01b038616916354fd4d50916004808301926020929190829003018186803b15801561133157600080fd5b505afa158015611345573d6000803e3d6000fd5b505050506040513d602081101561135b57600080fd5b50516001600160c01b031916146113b9576040805162461bcd60e51b815260206004820152601160248201527f76657273696f6e206d6973746d61746368000000000000000000000000000000604482015290519081900360640190fd5b6001600160c01b031981166000908152600860205260409020546001600160a01b03168015611420576040805162461bcd60e51b815260206004820152600e60248201526d76657273696f6e2065786973747360901b604482015290519081900360640190fd5b6001600160c01b031982166000908152600b60205260409020546001600160a01b031615611485576040805162461bcd60e51b815260206004820152600d60248201526c6f7261636c652065786973747360981b604482015290519081900360640190fd5b6001600160c01b03198216600081815260086020908152604080832080546001600160a01b03808c166001600160a01b031992831617909255600b90935281842080548a8316941684179055905191939085169290917ff3c8e7c782d00f601a9d70107849e3f4894c000271e60377966bcfa99ca3ead29190a45050505050565b6001600160a01b038082166000908152600660205260409020805490911615611576576040805162461bcd60e51b815260206004820152601460248201527f6261636b757020686173206e6f2077616c6c6574000000000000000000000000604482015290519081900360640190fd5b8054600160a01b900460ff16156115d4576040805162461bcd60e51b815260206004820152601660248201527f6261636b75702069732077616c6c6574206f776e657200000000000000000000604482015290519081900360640190fd5b6000336001600160a01b0316638da5cb5b6040518163ffffffff1660e01b815260040160206040518083038186803b15801561160f57600080fd5b505afa158015611623573d6000803e3d6000fd5b505050506040513d602081101561163957600080fd5b50516001600160a01b03808216600090815260066020526040902080549293509116331461169b576040805162461bcd60e51b815260206004820152600a6024820152691b9bdd081dd85b1b195d60b21b604482015290519081900360640190fd5b8054600160a01b900460ff1615156001146116ef576040805162461bcd60e51b815260206004820152600f60248201526e3737903bb0b63632ba1037bbb732b960891b604482015290519081900360640190fd5b505080546001600160a01b0319163317905550565b33600090815260066020526040902080546001600160a01b031661175b576040805162461bcd60e51b81526020600482015260096024820152681b9bc81dd85b1b195d60ba1b604482015290519081900360640190fd5b8054600160a01b900460ff1615156001146117b0576040805162461bcd60e51b815260206004820152601060248201526f3737ba103bb0b63632ba1037bbb732b960811b604482015290519081900360640190fd5b80546001600160a01b031660009081526007602052604090205460c01b6001600160c01b03198116651b185d195cdd60d21b14156117f0575060095460c01b5b6001600160c01b031981166000908152600860205260409020546001600160a01b031680611852576040805162461bcd60e51b815260206004820152600a6024820152693737903b32b939b4b7b760b11b604482015290519081900360640190fd5b82546040805163784d200b60e11b81526000600482018190526001600160a01b0385811660248401529251929093169263f09a40169260448084019382900301818387803b1580156118a357600080fd5b505af11580156118b7573d6000803e3d6000fd5b505084546040513393506001600160c01b0319861692506001600160a01b03909116907f674e126c2ea08c63dbe99eca56b1e9bd3b8d412a467e57060a5953f6e3c2060090600090a4505050565b6000336001600160a01b0316638da5cb5b6040518163ffffffff1660e01b815260040160206040518083038186803b15801561194057600080fd5b505afa158015611954573d6000803e3d6000fd5b505050506040513d602081101561196a57600080fd5b50516001600160a01b0380821660009081526006602052604090208054929350911633146119d1576040805162461bcd60e51b815260206004820152600f60248201526e199c9bdb4e881b9bc81dd85b1b195d608a1b604482015290519081900360640190fd5b8054600160a01b900460ff161515600114611a33576040805162461bcd60e51b815260206004820152601660248201527f66726f6d3a206e6f742077616c6c6574206f776e657200000000000000000000604482015290519081900360640190fd5b6001600160a01b03838116600090815260066020526040902080549091163314611aa4576040805162461bcd60e51b815260206004820152601b60248201527f746f3a206e6f742073616d652077616c6c65742061732066726f6d0000000000604482015290519081900360640190fd5b8054600160a01b900460ff1615611af5576040805162461bcd60e51b815260206004820152601060248201526f3a379d103bb0b63632ba1037bbb732b960811b604482015290519081900360640190fd5b805460ff60a01b1916600160a01b178155815474ffffffffffffffffffffffffffffffffffffffffff191682556040805163784d200b60e11b81526001600160a01b03861660048201526000602482018190529151339263f09a4016926044808201939182900301818387803b158015611b6e57600080fd5b505af1158015611b82573d6000803e3d6000fd5b5050505050505050565b6001600160c01b031981166000908152600860205260409020546001600160a01b031680611bf3576040805162461bcd60e51b815260206004820152600f60248201526e6e6f2076657273696f6e20636f646560881b604482015290519081900360640190fd5b6000336001600160a01b0316638da5cb5b6040518163ffffffff1660e01b815260040160206040518083038186803b158015611c2e57600080fd5b505afa158015611c42573d6000803e3d6000fd5b505050506040513d6020811015611c5857600080fd5b50516001600160a01b0380821660009081526006602052604090208054929350911633148015611c9557508054600160a01b900460ff1615156001145b611ce6576040805162461bcd60e51b815260206004820152601a60248201527f73656e646572206973206e6f742077616c6c6574206f776e6572000000000000604482015290519081900360640190fd5b80546001600160a01b03908116600090815260076020526040808220805467ffffffffffffffff191660c089901c179055805163784d200b60e11b81528584166004820152928616602484015251339263f09a401692604480830193919282900301818387803b158015611d5957600080fd5b505af1158015611d6d573d6000803e3d6000fd5b50505050336001600160a01b0316638fd3ab806040518163ffffffff1660e01b8152600401600060405180830381600087803b158015611dac57600080fd5b505af1158015611dc0573d6000803e3d6000fd5b505082546040516001600160c01b0319881693506001600160a01b0390911691507feafb3b932d1424e32ec924eb9695430fd852ce33327c076abb1699b72ec58f1690600090a350505050565b6001600160a01b038116611e54576040805162461bcd60e51b815260206004820152600960248201526806e6f206261636b75760bc1b604482015290519081900360640190fd5b6001600160a01b03808216600090815260066020526040902080549091163314611eb2576040805162461bcd60e51b815260206004820152600a6024820152691b9bdd081dd85b1b195d60b21b604482015290519081900360640190fd5b8054600160a01b900460ff1615611f10576040805162461bcd60e51b815260206004820152601760248201527f77616c6c6574206261636b7570206e6f74206578697374000000000000000000604482015290519081900360640190fd5b80546001600160a01b031916905550565b6002546001600160a01b031681565b6005546001600160a01b031681565b6001546001600160a01b031681565b6003546001600160a01b031681565b600060606040518060e0016040528060a6815260200161295560a691399050606084811b9084901b60005b601481101561200557828160148110611f9d57fe5b1a60f81b8482603d0181518110611fb057fe5b60200101906001600160f81b031916908160001a905350818160148110611fd357fe5b1a60f81b848260650181518110611fe657fe5b60200101906001600160f81b031916908160001a905350600101611f88565b508251602084016000f09695505050505050565b6104268061203483390190565b6104fb8061245a8339019056fe608060405234801561001057600080fd5b50600080546001600160a01b031916331790556103f4806100326000396000f3fe60806040526004361061004a5760003560e01c806302d05d3f146100705780638da5cb5b146100a1578063d4b83992146100b6578063f09a4016146100cb578063fec5a18d14610108575b36600080376000803660006001545af43d6000803e801561006a573d6000f35b503d6000fd5b34801561007c57600080fd5b5061008561013c565b604080516001600160a01b039092168252519081900360200190f35b3480156100ad57600080fd5b50610085610141565b3480156100c257600080fd5b50610085610150565b3480156100d757600080fd5b50610106600480360360408110156100ee57600080fd5b506001600160a01b038135811691602001351661015f565b005b34801561011457600080fd5b506101066004803603602081101561012b57600080fd5b50356001600160c01b0319166102a0565b600090565b6000546001600160a01b031690565b6001546001600160a01b031690565b306001600160a01b03166302d05d3f6040518163ffffffff1660e01b815260040160206040518083038186803b15801561019857600080fd5b505afa1580156101ac573d6000803e3d6000fd5b505050506040513d60208110156101c257600080fd5b50516001600160a01b0316331461020e576040805162461bcd60e51b815260206004820152600b60248201526a3737ba1031b932b0ba37b960a91b604482015290519081900360640190fd5b6000546001600160a01b0383811691161480159061023457506001600160a01b03821615155b1561025557600080546001600160a01b0319166001600160a01b0384161790555b6001546001600160a01b0382811691161480159061027b57506001600160a01b03811615155b1561029c57600180546001600160a01b0319166001600160a01b0383161790555b5050565b6000546001600160a01b031633146102eb576040805162461bcd60e51b81526020600482015260096024820152683737ba1037bbb732b960b91b604482015290519081900360640190fd5b306001600160a01b03166302d05d3f6040518163ffffffff1660e01b815260040160206040518083038186803b15801561032457600080fd5b505afa158015610338573d6000803e3d6000fd5b505050506040513d602081101561034e57600080fd5b5051604080516318beb60960e31b81526001600160c01b03198416600482015290516001600160a01b039092169163c5f5b0489160248082019260009290919082900301818387803b1580156103a357600080fd5b505af11580156103b7573d6000803e3d6000fd5b505050505056fea2646970667358221220fbcc24136dcbcc6a7b9355e1bfd4de39877c608ca7dfc68ade4fed28ec2a33aa64736f6c634300060b0033608060405234801561001057600080fd5b50600080546001600160a01b031916331790556104c9806100326000396000f3fe60806040526004361061004a5760003560e01c806302d05d3f146101455780638da5cb5b14610176578063d4b839921461018b578063f09a4016146101a0578063fec5a18d146101dd575b6000306001600160a01b03166302d05d3f6040518163ffffffff1660e01b815260040160206040518083038186803b15801561008557600080fd5b505afa158015610099573d6000803e3d6000fd5b505050506040513d60208110156100af57600080fd5b505160408051630e6d1de960e01b815290516001600160a01b0390921691630e6d1de991600480820192602092909190829003018186803b1580156100f357600080fd5b505afa158015610107573d6000803e3d6000fd5b505050506040513d602081101561011d57600080fd5b505190503660008037600080366000845af43d6000803e801561013f573d6000f35b503d6000fd5b34801561015157600080fd5b5061015a610211565b604080516001600160a01b039092168252519081900360200190f35b34801561018257600080fd5b5061015a610216565b34801561019757600080fd5b5061015a610225565b3480156101ac57600080fd5b506101db600480360360408110156101c357600080fd5b506001600160a01b0381358116916020013516610234565b005b3480156101e957600080fd5b506101db6004803603602081101561020057600080fd5b50356001600160c01b031916610375565b600090565b6000546001600160a01b031690565b6001546001600160a01b031690565b306001600160a01b03166302d05d3f6040518163ffffffff1660e01b815260040160206040518083038186803b15801561026d57600080fd5b505afa158015610281573d6000803e3d6000fd5b505050506040513d602081101561029757600080fd5b50516001600160a01b031633146102e3576040805162461bcd60e51b815260206004820152600b60248201526a3737ba1031b932b0ba37b960a91b604482015290519081900360640190fd5b6000546001600160a01b0383811691161480159061030957506001600160a01b03821615155b1561032a57600080546001600160a01b0319166001600160a01b0384161790555b6001546001600160a01b0382811691161480159061035057506001600160a01b03811615155b1561037157600180546001600160a01b0319166001600160a01b0383161790555b5050565b6000546001600160a01b031633146103c0576040805162461bcd60e51b81526020600482015260096024820152683737ba1037bbb732b960b91b604482015290519081900360640190fd5b306001600160a01b03166302d05d3f6040518163ffffffff1660e01b815260040160206040518083038186803b1580156103f957600080fd5b505afa15801561040d573d6000803e3d6000fd5b505050506040513d602081101561042357600080fd5b5051604080516318beb60960e31b81526001600160c01b03198416600482015290516001600160a01b039092169163c5f5b0489160248082019260009290919082900301818387803b15801561047857600080fd5b505af115801561048c573d6000803e3d6000fd5b505050505056fea26469706673582212209a5deacbb86f8522960efe9844a60fccda87d490a8939ee64d016cf53477104c64736f6c634300060b003360998061000d6000396000f30036601657341560145734602052336001602080a25b005b6000805260046000601c376302d05d3f6000511415604b5773dadadadadadadadadadadadadadadadadadadada602052602080f35b366000803760008036600073bebebebebebebebebebebebebebebebebebebebe5af415608f57341560855734602052600051336002602080a35b3d6000803e3d6000f35b3d6000803e3d6000fda2646970667358221220c571c07e3578c11a08be51212683fac84764091bf11b6dd928e367072ed348a864736f6c634300060b0033",
  "source": "// SPDX-License-Identifier: UNLICENSED\n\npragma solidity 0.6.11;\n\nimport \"./FactoryStorage.sol\";\nimport \"./lib/IOracle.sol\";\n\ncontract Factory is FactoryStorage {\n\n    event WalletCreated(address indexed wallet, bytes8 indexed version, address indexed owner);\n    event WalletUpgraded(address indexed wallet, bytes8 indexed version);\n    event WalletConfigurationRestored(address indexed wallet, bytes8 indexed version, address indexed owner);\n    event WalletOwnershipRestored(address indexed wallet, address indexed owner);\n    event WalletVersionRestored(address indexed wallet, bytes8 indexed version, address indexed owner);\n    event VersionAdded(bytes8 indexed version, address indexed code, address indexed oracle);\n    event VersionDeployed(bytes8 indexed version, address indexed code, address indexed oracle);\n    event GotEther(address indexed from, uint256 value);\n\n    constructor() FactoryStorage() public {\n    }\n\n    modifier onlyWalletOwner () {\n        require (msg.sender == owner, \"not owner\");\n        _;\n    }\n\n    function _createWallet(address _creator, address _target) private returns (address result) {\n        bytes memory\n        _code = hex\"60998061000d6000396000f30036601657341560145734602052336001602080a25b005b6000805260046000601c376302d05d3f6000511415604b5773dadadadadadadadadadadadadadadadadadadada602052602080f35b366000803760008036600073bebebebebebebebebebebebebebebebebebebebe5af415608f57341560855734602052600051336002602080a35b3d6000803e3d6000f35b3d6000803e3d6000fd\"; //log3-event-ids-address-funcid-opt (-2,-2) (min: 22440)\n        bytes20 creatorBytes = bytes20(_creator);\n        bytes20 targetBytes = bytes20(_target);\n        for (uint i = 0; i < 20; i++) {\n            _code[61 + i] = creatorBytes[i];\n            _code[101 + i] = targetBytes[i];\n        }\n        // solium-disable-next-line security/no-inline-assembly\n        assembly {\n            result := create(0, add(_code, 0x20), mload(_code))\n        }\n    }\n\n    function transferWalletOwnership(address _newOwner) external {\n        address _curOwner = IProxy(msg.sender).owner();\n        Wallet storage _sw = accounts_wallet[_curOwner];\n        require(msg.sender == _sw.addr, \"from: no wallet\");\n        require(_sw.owner == true, \"from: not wallet owner\");\n        Wallet storage _sw2 = accounts_wallet[_newOwner];\n        require(msg.sender == _sw2.addr, \"to: not same wallet as from\");\n        require(_sw2.owner == false, \"to: wallet owner\");\n        _sw2.owner = true;\n        _sw.owner = false;\n        _sw.addr = address(0);\n        IProxy(msg.sender).init(_newOwner, address(0));\n    }\n\n    function addWalletBackup(address _backup) external {\n        Wallet storage _sw = accounts_wallet[_backup];\n        require(_sw.addr == address(0), \"backup has no wallet\");\n        require(_sw.owner == false, \"backup is wallet owner\"); //\n        address _owner = IProxy(msg.sender).owner();\n        Wallet storage _sw_owner = accounts_wallet[_owner];\n        require(msg.sender == _sw_owner.addr, \"not wallet\");\n        require(_sw_owner.owner == true, \"no wallet owner\");\n        _sw.addr = msg.sender;\n    }\n\n    function removeWalletBackup(address _backup) external {\n        require(_backup != address(0), \"no backup\");\n        Wallet storage _sw = accounts_wallet[_backup];\n        require(_sw.addr == msg.sender, \"not wallet\");\n        require(_sw.owner == false, \"wallet backup not exist\");\n        _sw.addr = address(0);\n    }\n\n    function upgradeWallet(bytes8 _version) external {\n        address _code = versions_code[_version];\n        require(_code != address(0), \"no version code\");\n        address _owner = IProxy(msg.sender).owner();\n        Wallet storage _sw = accounts_wallet[_owner];\n        require(msg.sender == _sw.addr && _sw.owner == true, \"sender is not wallet owner\");\n        wallets_version[_sw.addr] = _version;\n        IProxy(msg.sender).init(_owner, _code);\n        IStorage(msg.sender).migrate();\n        emit WalletUpgraded(_sw.addr, _version);\n    }\n\n    function addVersion(address _target, address _oracle) onlyOwner() public {\n        require(_target != address(0), \"no version\");\n        require(_oracle != address(0), \"no oracle version\");\n        require(IOracle(_oracle).initialized() != false, \"oracle not initialized\");\n        address _owner = IStorageBase(_target).owner();\n        require(msg.sender == _owner, \"not version owner\");\n        bytes8 _version = IStorage(_target).version();\n        require(IOracle(_oracle).version() == _version, 'version mistmatch');\n        address _code = versions_code[_version];\n        require(_code == address(0), \"version exists\");\n        require(versions_oracle[_version] == address(0), \"oracle exists\");\n        versions_code[_version] = _target;\n        versions_oracle[_version] = _oracle;\n        emit VersionAdded(_version, _code, _oracle);\n    }\n\n    function deployVersion(bytes8 _version) onlyOwner() public {\n        address _code = versions_code[_version];\n        require(_code != address(0), \"version not exist\");\n        address _oracle = versions_oracle[_version];\n        require(_oracle != address(0), \"oracle not exist\");\n        production_version = _version;\n        production_version_code = _code;\n        production_version_oracle = _oracle;\n        emit VersionDeployed(_version, _code, _oracle);\n    }\n\n    function restoreWalletConfiguration() public {\n        Wallet storage _sw = accounts_wallet[msg.sender];\n        require(_sw.addr != address(0), \"no wallet\");\n        require(_sw.owner == true, \"not wallet owner\");\n        bytes8 _version = wallets_version[_sw.addr];\n        if (_version == LATEST) {\n            _version = production_version;\n        }\n        address _code = versions_code[_version];\n        require(_code != address(0), \"version not exist\");\n        IProxy(_sw.addr).init(msg.sender, _code);\n        emit WalletConfigurationRestored(_sw.addr, _version, msg.sender);\n    }\n\n    function restoreWalletOwnership() public {\n        Wallet storage _sw = accounts_wallet[msg.sender];\n        require(_sw.addr != address(0), \"no wallet\");\n        require(_sw.owner == true, \"not wallet owner\");\n\n        IProxy(_sw.addr).init(msg.sender, address(0));\n        emit WalletOwnershipRestored(_sw.addr, msg.sender);\n    }\n\n    function restoreWalletVersion() public {\n        Wallet storage _sw = accounts_wallet[msg.sender];\n        require(_sw.addr != address(0), \"no wallet\");\n        require(_sw.owner == true, \"not wallet owner\");\n\n        bytes8 _version = wallets_version[_sw.addr];\n        if (_version == LATEST) {\n            _version = production_version;\n        }\n        address _code = versions_code[_version];\n        require(_code != address(0), \"no version\");\n        IProxy(_sw.addr).init(address(0), _code);\n        emit WalletVersionRestored(_sw.addr, _version, msg.sender);\n    }\n\n    function getLatestVersion() public view returns (address) {\n        return production_version_code;\n    }\n\n    function getWallet(address _account) public view returns (address) {\n        return accounts_wallet[_account].addr;\n    }\n\n    function createWallet(bool _auto) public returns (address) {\n        require(address(swProxy) != address(0), \"no proxy\");\n        require(production_version_code != address(0), \"no prod version\"); //Must be here - ProxyLatest also needs it.\n        Wallet storage _sw = accounts_wallet[msg.sender];\n        if (_sw.addr == address(0)) {\n            _sw.addr = _createWallet(address(this), address(swProxy));\n            require(_sw.addr != address(0), \"wallet not created\");\n            _sw.owner = true;\n            if (_auto) {\n                require(address(swProxyLatest) != address(0), \"no auto version\");\n                require(versions_code[LATEST] == address(swProxyLatest), \"incorrect auto version\");\n                wallets_version[_sw.addr] = LATEST;\n                IProxy(_sw.addr).init(msg.sender, address(swProxyLatest));\n                IStorage(_sw.addr).migrate();\n                emit WalletCreated(_sw.addr, LATEST, msg.sender);\n            } else {\n                wallets_version[_sw.addr] = production_version;\n                IProxy(_sw.addr).init(msg.sender, production_version_code);\n                IStorage(_sw.addr).migrate();\n                emit WalletCreated(_sw.addr, production_version, msg.sender);\n            }\n\n        }\n        return _sw.addr;\n    }\n\n    function oracle() public view returns (address _oracle) {\n        bytes8 _version = wallets_version[msg.sender];\n        if (_version == LATEST) {\n            _version = production_version;\n        }\n        _oracle = versions_oracle[_version];\n    }\n\n    /*\n    receive () external payable {\n      if (msg.value > 0) {\n        emit GotEther(msg.sender, msg.value);\n      }\n    }\n    */\n\n    fallback () external payable {\n      /*\n        bytes8 _version = wallets_version[msg.sender];\n        if (_version == LATEST) {\n            _version = production_version;\n        }\n        address _oracle = versions_oracle[_version];\n       */\n        //require(_oracle != address(0), \"no oracle code\");\n        /*\n        // solium-disable-next-line security/no-inline-assembly\n        assembly {\n                calldatacopy(0x00, 0x00, calldatasize)\n                //let res := call(gas, sload(oracle_slot), callvalue, 0x00, calldatasize, 0, 0)\n                let res := staticcall(gas, sload(_oracle), 0x00, calldatasize, 0, 0)\n                returndatacopy(0x00, 0x00, returndatasize)\n                if res { return(0x00, returndatasize) }\n                revert(0x00, returndatasize)\n            }\n            */\n    }\n}\n\n",
  "sourcePath": "/home/tal/code/kirobo/ki-eth-contracts/contracts/Factory.sol",
  "compiler": {
    "name": "solc",
    "version": "0.6.11+commit.5ef660b1.Emscripten.clang"
  },
  "schemaVersion": "3.0.23",
  "updatedAt": "2020-07-20T14:16:41.861Z",
  "networkType": "ethereum",
  "devdoc": {
    "kind": "dev",
    "methods": {},
    "version": 1
  },
  "userdoc": {
    "kind": "user",
    "methods": {},
    "version": 1
  }
}