{
  "contractName": "Factory",
  "abi": [
    {
      "inputs": [
        {
          "internalType": "address",
          "name": "owner1",
          "type": "address"
        },
        {
          "internalType": "address",
          "name": "owner2",
          "type": "address"
        },
        {
          "internalType": "address",
          "name": "owner3",
          "type": "address"
        }
      ],
      "stateMutability": "nonpayable",
      "type": "constructor"
    },
    {
      "anonymous": false,
      "inputs": [
        {
          "indexed": true,
          "internalType": "address",
          "name": "from",
          "type": "address"
        },
        {
          "indexed": false,
          "internalType": "uint256",
          "name": "value",
          "type": "uint256"
        }
      ],
      "name": "GotEther",
      "type": "event"
    },
    {
      "anonymous": false,
      "inputs": [
        {
          "indexed": true,
          "internalType": "bytes8",
          "name": "version",
          "type": "bytes8"
        },
        {
          "indexed": true,
          "internalType": "address",
          "name": "code",
          "type": "address"
        },
        {
          "indexed": true,
          "internalType": "address",
          "name": "oracle",
          "type": "address"
        }
      ],
      "name": "VersionAdded",
      "type": "event"
    },
    {
      "anonymous": false,
      "inputs": [
        {
          "indexed": true,
          "internalType": "bytes8",
          "name": "version",
          "type": "bytes8"
        },
        {
          "indexed": true,
          "internalType": "address",
          "name": "code",
          "type": "address"
        },
        {
          "indexed": true,
          "internalType": "address",
          "name": "oracle",
          "type": "address"
        }
      ],
      "name": "VersionDeployed",
      "type": "event"
    },
    {
      "anonymous": false,
      "inputs": [
        {
          "indexed": true,
          "internalType": "address",
          "name": "wallet",
          "type": "address"
        },
        {
          "indexed": true,
          "internalType": "bytes8",
          "name": "version",
          "type": "bytes8"
        },
        {
          "indexed": true,
          "internalType": "address",
          "name": "owner",
          "type": "address"
        }
      ],
      "name": "WalletConfigurationRestored",
      "type": "event"
    },
    {
      "anonymous": false,
      "inputs": [
        {
          "indexed": true,
          "internalType": "address",
          "name": "wallet",
          "type": "address"
        },
        {
          "indexed": true,
          "internalType": "bytes8",
          "name": "version",
          "type": "bytes8"
        },
        {
          "indexed": true,
          "internalType": "address",
          "name": "owner",
          "type": "address"
        }
      ],
      "name": "WalletCreated",
      "type": "event"
    },
    {
      "anonymous": false,
      "inputs": [
        {
          "indexed": true,
          "internalType": "address",
          "name": "wallet",
          "type": "address"
        },
        {
          "indexed": true,
          "internalType": "address",
          "name": "owner",
          "type": "address"
        }
      ],
      "name": "WalletOwnershipRestored",
      "type": "event"
    },
    {
      "anonymous": false,
      "inputs": [
        {
          "indexed": true,
          "internalType": "address",
          "name": "wallet",
          "type": "address"
        },
        {
          "indexed": true,
          "internalType": "bytes8",
          "name": "version",
          "type": "bytes8"
        }
      ],
      "name": "WalletUpgraded",
      "type": "event"
    },
    {
      "anonymous": false,
      "inputs": [
        {
          "indexed": true,
          "internalType": "address",
          "name": "wallet",
          "type": "address"
        },
        {
          "indexed": true,
          "internalType": "bytes8",
          "name": "version",
          "type": "bytes8"
        },
        {
          "indexed": true,
          "internalType": "address",
          "name": "owner",
          "type": "address"
        }
      ],
      "name": "WalletVersionRestored",
      "type": "event"
    },
    {
      "stateMutability": "payable",
      "type": "fallback",
      "payable": true
    },
    {
      "inputs": [],
      "name": "LATEST",
      "outputs": [
        {
          "internalType": "bytes8",
          "name": "",
          "type": "bytes8"
        }
      ],
      "stateMutability": "view",
      "type": "function",
      "constant": true
    },
    {
      "inputs": [],
      "name": "cancel",
      "outputs": [],
      "stateMutability": "nonpayable",
      "type": "function"
    },
    {
      "inputs": [],
      "name": "isOwner",
      "outputs": [
        {
          "internalType": "bool",
          "name": "",
          "type": "bool"
        }
      ],
      "stateMutability": "view",
      "type": "function",
      "constant": true
    },
    {
      "inputs": [
        {
          "internalType": "address",
          "name": "_owner",
          "type": "address"
        },
        {
          "internalType": "address",
          "name": "_newOwner",
          "type": "address"
        }
      ],
      "name": "replaceOwner",
      "outputs": [],
      "stateMutability": "nonpayable",
      "type": "function"
    },
    {
      "inputs": [],
      "name": "swProxy",
      "outputs": [
        {
          "internalType": "contract Proxy",
          "name": "",
          "type": "address"
        }
      ],
      "stateMutability": "view",
      "type": "function",
      "constant": true
    },
    {
      "inputs": [],
      "name": "swProxyLatest",
      "outputs": [
        {
          "internalType": "contract ProxyLatest",
          "name": "",
          "type": "address"
        }
      ],
      "stateMutability": "view",
      "type": "function",
      "constant": true
    },
    {
      "inputs": [],
      "name": "target",
      "outputs": [
        {
          "internalType": "address",
          "name": "",
          "type": "address"
        }
      ],
      "stateMutability": "view",
      "type": "function",
      "constant": true
    },
    {
      "inputs": [
        {
          "internalType": "address",
          "name": "_newOwner",
          "type": "address"
        }
      ],
      "name": "transferWalletOwnership",
      "outputs": [],
      "stateMutability": "nonpayable",
      "type": "function"
    },
    {
      "inputs": [
        {
          "internalType": "address",
          "name": "_backup",
          "type": "address"
        }
      ],
      "name": "addWalletBackup",
      "outputs": [],
      "stateMutability": "nonpayable",
      "type": "function"
    },
    {
      "inputs": [
        {
          "internalType": "address",
          "name": "_backup",
          "type": "address"
        }
      ],
      "name": "removeWalletBackup",
      "outputs": [],
      "stateMutability": "nonpayable",
      "type": "function"
    },
    {
      "inputs": [
        {
          "internalType": "bytes8",
          "name": "_version",
          "type": "bytes8"
        }
      ],
      "name": "upgradeWallet",
      "outputs": [],
      "stateMutability": "nonpayable",
      "type": "function"
    },
    {
      "inputs": [
        {
          "internalType": "address",
          "name": "_target",
          "type": "address"
        },
        {
          "internalType": "address",
          "name": "_oracle",
          "type": "address"
        }
      ],
      "name": "addVersion",
      "outputs": [],
      "stateMutability": "nonpayable",
      "type": "function"
    },
    {
      "inputs": [
        {
          "internalType": "bytes8",
          "name": "_version",
          "type": "bytes8"
        }
      ],
      "name": "deployVersion",
      "outputs": [],
      "stateMutability": "nonpayable",
      "type": "function"
    },
    {
      "inputs": [],
      "name": "restoreWalletConfiguration",
      "outputs": [],
      "stateMutability": "nonpayable",
      "type": "function"
    },
    {
      "inputs": [],
      "name": "restoreWalletOwnership",
      "outputs": [],
      "stateMutability": "nonpayable",
      "type": "function"
    },
    {
      "inputs": [],
      "name": "restoreWalletVersion",
      "outputs": [],
      "stateMutability": "nonpayable",
      "type": "function"
    },
    {
      "inputs": [],
      "name": "getLatestVersion",
      "outputs": [
        {
          "internalType": "address",
          "name": "",
          "type": "address"
        }
      ],
      "stateMutability": "view",
      "type": "function",
      "constant": true
    },
    {
      "inputs": [
        {
          "internalType": "address",
          "name": "_account",
          "type": "address"
        }
      ],
      "name": "getWallet",
      "outputs": [
        {
          "internalType": "address",
          "name": "",
          "type": "address"
        }
      ],
      "stateMutability": "view",
      "type": "function",
      "constant": true
    },
    {
      "inputs": [
        {
          "internalType": "bool",
          "name": "_auto",
          "type": "bool"
        }
      ],
      "name": "createWallet",
      "outputs": [
        {
          "internalType": "address",
          "name": "",
          "type": "address"
        }
      ],
      "stateMutability": "nonpayable",
      "type": "function"
    },
    {
      "inputs": [],
      "name": "oracle",
      "outputs": [
        {
          "internalType": "address",
          "name": "_oracle",
          "type": "address"
        }
      ],
      "stateMutability": "view",
      "type": "function",
      "constant": true
    }
  ],
  "bytecode": "0x60806040523480156200001157600080fd5b50604051620033ba380380620033ba833981810160405260608110156200003757600080fd5b50805160208201516040909201519091908282828282826001600160a01b0383166200009f576040805162461bcd60e51b815260206004820152601260248201527106f776e6572312063616e6e6f7420626520360741b604482015290519081900360640190fd5b6001600160a01b038216620000f0576040805162461bcd60e51b815260206004820152601260248201527106f776e6572322063616e6e6f7420626520360741b604482015290519081900360640190fd5b6001600160a01b03811662000141576040805162461bcd60e51b815260206004820152601260248201527106f776e6572332063616e6e6f7420626520360741b604482015290519081900360640190fd5b816001600160a01b0316836001600160a01b03161415620001a9576040805162461bcd60e51b815260206004820152601760248201527f6f776e6572312063616e6e6f74206265206f776e657232000000000000000000604482015290519081900360640190fd5b806001600160a01b0316826001600160a01b0316141562000211576040805162461bcd60e51b815260206004820152601760248201527f6f776e6572322063616e6e6f74206265206f776e657233000000000000000000604482015290519081900360640190fd5b806001600160a01b0316836001600160a01b0316141562000279576040805162461bcd60e51b815260206004820152601760248201527f6f776e6572312063616e6e6f74206265206f776e657233000000000000000000604482015290519081900360640190fd5b6001600160a01b039283166000908152602081905260408082208054600160ff19918216811790925594861683528183208054861682179055929094168152839020805490921617905551620002cf90620003a4565b604051809103906000f080158015620002ec573d6000803e3d6000fd5b50600780546001600160a01b0319166001600160a01b03929092169190911790556040516200031b90620003b2565b604051809103906000f08015801562000338573d6000803e3d6000fd5b50600880546001600160a01b03199081166001600160a01b039384161791829055651b185d195cdd60d21b600052600b6020527f150364903d20041ab7205931760308b745a5e8df0037a8f7c129b402fa43b4a4805492909316911617905550620003c0945050505050565b6104268062002a9983390190565b6104fb8062002ebf83390190565b6126c980620003d06000396000f3fe60806040526004361061011f5760003560e01c806397e61ee4116100a0578063cf2f774111610064578063cf2f77411461037e578063d4b83992146103b1578063e20056e6146103c6578063e2adec9c14610401578063ea8a1af0146104165761011f565b806397e61ee414610294578063a196de83146102cf578063a7ecbd8d14610302578063bf3b110114610317578063c5f5b0481461034a5761011f565b80637721904c116100e75780637721904c146101fa5780637dc0d1d01461020f578063842bb732146102245780638c576fc3146102395780638f32d59b1461026b5761011f565b806304d0a647146101215780630e6d1de9146101705780631a05b142146101855780632bc68db71461019a5780634b613c20146101c6575b005b34801561012d57600080fd5b506101546004803603602081101561014457600080fd5b50356001600160a01b031661042b565b604080516001600160a01b039092168252519081900360200190f35b34801561017c57600080fd5b50610154610449565b34801561019157600080fd5b5061011f610460565b3480156101a657600080fd5b50610154600480360360208110156101bd57600080fd5b5035151561066a565b3480156101d257600080fd5b5061011f600480360360208110156101e957600080fd5b50356001600160c01b031916610b44565b34801561020657600080fd5b50610154610edf565b34801561021b57600080fd5b50610154610eee565b34801561023057600080fd5b5061011f610f4b565b34801561024557600080fd5b5061024e61109c565b604080516001600160c01b03199092168252519081900360200190f35b34801561027757600080fd5b506102806110a9565b604080519115158252519081900360200190f35b3480156102a057600080fd5b5061011f600480360360408110156102b757600080fd5b506001600160a01b03813581169160200135166110bf565b3480156102db57600080fd5b5061011f600480360360208110156102f257600080fd5b50356001600160a01b03166116c8565b34801561030e57600080fd5b5061011f6118c6565b34801561032357600080fd5b5061011f6004803603602081101561033a57600080fd5b50356001600160a01b0316611ac7565b34801561035657600080fd5b5061011f6004803603602081101561036d57600080fd5b50356001600160c01b031916611d4e565b34801561038a57600080fd5b5061011f600480360360208110156103a157600080fd5b50356001600160a01b0316611fcf565b3480156103bd57600080fd5b506101546120e3565b3480156103d257600080fd5b5061011f600480360360408110156103e957600080fd5b506001600160a01b03813581169160200135166120f2565b34801561040d57600080fd5b50610154612426565b34801561042257600080fd5b5061011f612435565b6001600160a01b039081166000908152600960205260409020541690565b600c54600160401b90046001600160a01b03165b90565b33600090815260096020526040902080546001600160a01b03166104b7576040805162461bcd60e51b81526020600482015260096024820152681b9bc81dd85b1b195d60ba1b604482015290519081900360640190fd5b8054600160a01b900460ff16151560011461050c576040805162461bcd60e51b815260206004820152601060248201526f3737ba103bb0b63632ba1037bbb732b960811b604482015290519081900360640190fd5b80546001600160a01b03166000908152600a602052604090205460c01b6001600160c01b03198116651b185d195cdd60d21b141561054c5750600c5460c01b5b6001600160c01b031981166000908152600b60205260409020546001600160a01b0316806105b5576040805162461bcd60e51b81526020600482015260116024820152701d995c9cda5bdb881b9bdd08195e1a5cdd607a1b604482015290519081900360640190fd5b82546040805163784d200b60e11b81523360048201526001600160a01b0384811660248301529151919092169163f09a401691604480830192600092919082900301818387803b15801561060857600080fd5b505af115801561061c573d6000803e3d6000fd5b505084546040513393506001600160c01b0319861692506001600160a01b03909116907f9dff4715dcc255fd0abdc515933401366bac62424c60e57d607dfe9003f2dc1790600090a4505050565b6007546000906001600160a01b03166106b5576040805162461bcd60e51b81526020600482015260086024820152676e6f2070726f787960c01b604482015290519081900360640190fd5b600c54600160401b90046001600160a01b031661070b576040805162461bcd60e51b815260206004820152600f60248201526e373790383937b2103b32b939b4b7b760891b604482015290519081900360640190fd5b33600090815260096020526040902080546001600160a01b0316610b34576007546107409030906001600160a01b0316612499565b81546001600160a01b0319166001600160a01b0391821617808355166107ad576040805162461bcd60e51b815260206004820152601260248201527f77616c6c6574206e6f7420637265617465640000000000000000000000000000604482015290519081900360640190fd5b805460ff60a01b1916600160a01b17815582156109e4576008546001600160a01b0316610813576040805162461bcd60e51b815260206004820152600f60248201526e37379030baba37903b32b939b4b7b760891b604482015290519081900360640190fd5b600854651b185d195cdd60d21b600052600b6020527f150364903d20041ab7205931760308b745a5e8df0037a8f7c129b402fa43b4a4546001600160a01b039081169116146108a9576040805162461bcd60e51b815260206004820152601660248201527f696e636f7272656374206175746f2076657273696f6e00000000000000000000604482015290519081900360640190fd5b80546001600160a01b039081166000908152600a6020526040808220805467ffffffffffffffff1916676c617465737400001790558354600854825163784d200b60e11b81523360048201529085166024820152915193169263f09a40169260448084019391929182900301818387803b15801561092657600080fd5b505af115801561093a573d6000803e3d6000fd5b505082546040805163011fa75760e71b815290516001600160a01b039092169350638fd3ab80925060048082019260009290919082900301818387803b15801561098357600080fd5b505af1158015610997573d6000803e3d6000fd5b50508254604051339350651b185d195cdd60d21b92506001600160a01b03909116907f689c6b1155ee0314d789d2c8968b47cb04b9c8592446c127023fc6399b17310c90600090a4610b34565b600c805482546001600160a01b039081166000908152600a6020526040808220805467ffffffffffffffff191667ffffffffffffffff9095169490941790935584549354835163784d200b60e11b8152336004820152600160401b909104831660248201529251939091169263f09a401692604480820193929182900301818387803b158015610a7357600080fd5b505af1158015610a87573d6000803e3d6000fd5b505082546040805163011fa75760e71b815290516001600160a01b039092169350638fd3ab80925060048082019260009290919082900301818387803b158015610ad057600080fd5b505af1158015610ae4573d6000803e3d6000fd5b5050600c54835460405133945060c09290921b6001600160c01b03191692506001600160a01b0316907f689c6b1155ee0314d789d2c8968b47cb04b9c8592446c127023fc6399b17310c90600090a45b546001600160a01b031692915050565b3360009081526020819052604081205460ff16610b96576040805162461bcd60e51b815260206004820152600b60248201526a6f6e6c79206f776e65727360a81b604482015290519081900360640190fd5b6003546001600160a01b0316610bd057600380546001600160a01b03191633179055610bc56005600036612555565b506004819055610edb565b6003546001600160a01b0316331415610c30576040805162461bcd60e51b815260206004820152601c60248201527f73616d65206f776e65722063616e6e6f74207369676e20747769636500000000604482015290519081900360640190fd5b6004548114610c81576040805162461bcd60e51b81526020600482015260186024820152776d757374207369676e207468652073616d652076616c756560401b604482015290519081900360640190fd5b60003660405180838380828437604051920182900382206005805491965094509192508291849150600260001961010060018416150201909116048015610cff5780601f10610cdd576101008083540402835291820191610cff565b820191906000526020600020905b815481529060010190602001808311610ceb575b5050915050604051809103902014610d58576040805162461bcd60e51b81526020600482015260176024820152766d757374207369676e207468652073616d65206461746160481b604482015290519081900360640190fd5b600380546001600160a01b03191690556001600160c01b031982166000908152600b60205260409020546001600160a01b031680610dd1576040805162461bcd60e51b81526020600482015260116024820152701d995c9cda5bdb881b9bdd08195e1a5cdd607a1b604482015290519081900360640190fd5b6001600160c01b031983166000908152600e60205260409020546001600160a01b031680610e39576040805162461bcd60e51b815260206004820152601060248201526f1bdc9858db19481b9bdd08195e1a5cdd60821b604482015290519081900360640190fd5b600c805467ffffffffffffffff191660c086901c177fffffffff0000000000000000000000000000000000000000ffffffffffffffff16600160401b6001600160a01b0385811691820292909217909255600d80546001600160a01b03191691841691821790556040519091906001600160c01b03198716907fb4d04ce57b22f1de0bfbaebe42d34d0616a77b6de95fde396bbd054851d22f5890600090a450505b5050565b6007546001600160a01b031681565b336000908152600a602052604081205460c01b6001600160c01b03198116651b185d195cdd60d21b1415610f245750600c5460c01b5b6001600160c01b0319166000908152600e60205260409020546001600160a01b0316919050565b33600090815260096020526040902080546001600160a01b0316610fa2576040805162461bcd60e51b81526020600482015260096024820152681b9bc81dd85b1b195d60ba1b604482015290519081900360640190fd5b8054600160a01b900460ff161515600114610ff7576040805162461bcd60e51b815260206004820152601060248201526f3737ba103bb0b63632ba1037bbb732b960811b604482015290519081900360640190fd5b80546040805163784d200b60e11b815233600482015260006024820181905291516001600160a01b039093169263f09a40169260448084019391929182900301818387803b15801561104857600080fd5b505af115801561105c573d6000803e3d6000fd5b505082546040513393506001600160a01b0390911691507f5818d755b157239746017f59fc87c7100652290409a15a7d4fba19ff98efcb5f90600090a350565b651b185d195cdd60d21b81565b3360009081526020819052604090205460ff1690565b3360009081526020819052604081205460ff16611111576040805162461bcd60e51b815260206004820152600b60248201526a6f6e6c79206f776e65727360a81b604482015290519081900360640190fd5b6003546001600160a01b031661114b57600380546001600160a01b031916331790556111406005600036612555565b5060048190556116c3565b6003546001600160a01b03163314156111ab576040805162461bcd60e51b815260206004820152601c60248201527f73616d65206f776e65722063616e6e6f74207369676e20747769636500000000604482015290519081900360640190fd5b60045481146111fc576040805162461bcd60e51b81526020600482015260186024820152776d757374207369676e207468652073616d652076616c756560401b604482015290519081900360640190fd5b6000366040518083838082843760405192018290038220600580549196509450919250829184915060026000196101006001841615020190911604801561127a5780601f1061125857610100808354040283529182019161127a565b820191906000526020600020905b815481529060010190602001808311611266575b50509150506040518091039020146112d3576040805162461bcd60e51b81526020600482015260176024820152766d757374207369676e207468652073616d65206461746160481b604482015290519081900360640190fd5b600380546001600160a01b03191690556001600160a01b03831661132b576040805162461bcd60e51b815260206004820152600a6024820152693737903b32b939b4b7b760b11b604482015290519081900360640190fd5b6001600160a01b038216611386576040805162461bcd60e51b815260206004820152601160248201527f6e6f206f7261636c652076657273696f6e000000000000000000000000000000604482015290519081900360640190fd5b816001600160a01b031663158ef93e6040518163ffffffff1660e01b815260040160206040518083038186803b1580156113bf57600080fd5b505afa1580156113d3573d6000803e3d6000fd5b505050506040513d60208110156113e957600080fd5b505161143c576040805162461bcd60e51b815260206004820152601660248201527f6f7261636c65206e6f7420696e697469616c697a656400000000000000000000604482015290519081900360640190fd5b6000836001600160a01b03166354fd4d506040518163ffffffff1660e01b815260040160206040518083038186803b15801561147757600080fd5b505afa15801561148b573d6000803e3d6000fd5b505050506040513d60208110156114a157600080fd5b50516040805163054fd4d560e41b815290519192506001600160c01b03198316916001600160a01b038616916354fd4d50916004808301926020929190829003018186803b1580156114f257600080fd5b505afa158015611506573d6000803e3d6000fd5b505050506040513d602081101561151c57600080fd5b50516001600160c01b0319161461157a576040805162461bcd60e51b815260206004820152601160248201527f76657273696f6e206d6973746d61746368000000000000000000000000000000604482015290519081900360640190fd5b6001600160c01b031981166000908152600b60205260409020546001600160a01b031680156115e1576040805162461bcd60e51b815260206004820152600e60248201526d76657273696f6e2065786973747360901b604482015290519081900360640190fd5b6001600160c01b031982166000908152600e60205260409020546001600160a01b031615611646576040805162461bcd60e51b815260206004820152600d60248201526c6f7261636c652065786973747360981b604482015290519081900360640190fd5b6001600160c01b031982166000818152600b6020908152604080832080546001600160a01b03808c166001600160a01b031992831617909255600e90935281842080548a8316941684179055905191939085169290917ff3c8e7c782d00f601a9d70107849e3f4894c000271e60377966bcfa99ca3ead29190a450505b505050565b6001600160a01b038082166000908152600960205260409020805490911615611738576040805162461bcd60e51b815260206004820152601460248201527f6261636b757020686173206e6f2077616c6c6574000000000000000000000000604482015290519081900360640190fd5b8054600160a01b900460ff1615611796576040805162461bcd60e51b815260206004820152601660248201527f6261636b75702069732077616c6c6574206f776e657200000000000000000000604482015290519081900360640190fd5b6000336001600160a01b0316638da5cb5b6040518163ffffffff1660e01b815260040160206040518083038186803b1580156117d157600080fd5b505afa1580156117e5573d6000803e3d6000fd5b505050506040513d60208110156117fb57600080fd5b50516001600160a01b03808216600090815260096020526040902080549293509116331461185d576040805162461bcd60e51b815260206004820152600a6024820152691b9bdd081dd85b1b195d60b21b604482015290519081900360640190fd5b8054600160a01b900460ff1615156001146118b1576040805162461bcd60e51b815260206004820152600f60248201526e3737903bb0b63632ba1037bbb732b960891b604482015290519081900360640190fd5b505080546001600160a01b0319163317905550565b33600090815260096020526040902080546001600160a01b031661191d576040805162461bcd60e51b81526020600482015260096024820152681b9bc81dd85b1b195d60ba1b604482015290519081900360640190fd5b8054600160a01b900460ff161515600114611972576040805162461bcd60e51b815260206004820152601060248201526f3737ba103bb0b63632ba1037bbb732b960811b604482015290519081900360640190fd5b80546001600160a01b03166000908152600a602052604090205460c01b6001600160c01b03198116651b185d195cdd60d21b14156119b25750600c5460c01b5b6001600160c01b031981166000908152600b60205260409020546001600160a01b031680611a14576040805162461bcd60e51b815260206004820152600a6024820152693737903b32b939b4b7b760b11b604482015290519081900360640190fd5b82546040805163784d200b60e11b81526000600482018190526001600160a01b0385811660248401529251929093169263f09a40169260448084019382900301818387803b158015611a6557600080fd5b505af1158015611a79573d6000803e3d6000fd5b505084546040513393506001600160c01b0319861692506001600160a01b03909116907f674e126c2ea08c63dbe99eca56b1e9bd3b8d412a467e57060a5953f6e3c2060090600090a4505050565b6000336001600160a01b0316638da5cb5b6040518163ffffffff1660e01b815260040160206040518083038186803b158015611b0257600080fd5b505afa158015611b16573d6000803e3d6000fd5b505050506040513d6020811015611b2c57600080fd5b50516001600160a01b038082166000908152600960205260409020805492935091163314611b93576040805162461bcd60e51b815260206004820152600f60248201526e199c9bdb4e881b9bc81dd85b1b195d608a1b604482015290519081900360640190fd5b8054600160a01b900460ff161515600114611bf5576040805162461bcd60e51b815260206004820152601660248201527f66726f6d3a206e6f742077616c6c6574206f776e657200000000000000000000604482015290519081900360640190fd5b6001600160a01b03838116600090815260096020526040902080549091163314611c66576040805162461bcd60e51b815260206004820152601b60248201527f746f3a206e6f742073616d652077616c6c65742061732066726f6d0000000000604482015290519081900360640190fd5b8054600160a01b900460ff1615611cb7576040805162461bcd60e51b815260206004820152601060248201526f3a379d103bb0b63632ba1037bbb732b960811b604482015290519081900360640190fd5b805460ff60a01b1916600160a01b178155815474ffffffffffffffffffffffffffffffffffffffffff191682556040805163784d200b60e11b81526001600160a01b03861660048201526000602482018190529151339263f09a4016926044808201939182900301818387803b158015611d3057600080fd5b505af1158015611d44573d6000803e3d6000fd5b5050505050505050565b6001600160c01b031981166000908152600b60205260409020546001600160a01b031680611db5576040805162461bcd60e51b815260206004820152600f60248201526e6e6f2076657273696f6e20636f646560881b604482015290519081900360640190fd5b6000336001600160a01b0316638da5cb5b6040518163ffffffff1660e01b815260040160206040518083038186803b158015611df057600080fd5b505afa158015611e04573d6000803e3d6000fd5b505050506040513d6020811015611e1a57600080fd5b50516001600160a01b0380821660009081526009602052604090208054929350911633148015611e5757508054600160a01b900460ff1615156001145b611ea8576040805162461bcd60e51b815260206004820152601a60248201527f73656e646572206973206e6f742077616c6c6574206f776e6572000000000000604482015290519081900360640190fd5b80546001600160a01b039081166000908152600a6020526040808220805467ffffffffffffffff191660c089901c179055805163784d200b60e11b81528584166004820152928616602484015251339263f09a401692604480830193919282900301818387803b158015611f1b57600080fd5b505af1158015611f2f573d6000803e3d6000fd5b50505050336001600160a01b0316638fd3ab806040518163ffffffff1660e01b8152600401600060405180830381600087803b158015611f6e57600080fd5b505af1158015611f82573d6000803e3d6000fd5b505082546040516001600160c01b0319881693506001600160a01b0390911691507feafb3b932d1424e32ec924eb9695430fd852ce33327c076abb1699b72ec58f1690600090a350505050565b6001600160a01b038116612016576040805162461bcd60e51b815260206004820152600960248201526806e6f206261636b75760bc1b604482015290519081900360640190fd5b6001600160a01b03808216600090815260096020526040902080549091163314612074576040805162461bcd60e51b815260206004820152600a6024820152691b9bdd081dd85b1b195d60b21b604482015290519081900360640190fd5b8054600160a01b900460ff16156120d2576040805162461bcd60e51b815260206004820152601760248201527f77616c6c6574206261636b7570206e6f74206578697374000000000000000000604482015290519081900360640190fd5b80546001600160a01b031916905550565b6006546001600160a01b031681565b3360009081526020819052604081205460ff16612144576040805162461bcd60e51b815260206004820152600b60248201526a6f6e6c79206f776e65727360a81b604482015290519081900360640190fd5b6003546001600160a01b031661217357600380546001600160a01b031916331790556111406005600036612555565b6003546001600160a01b03163314156121d3576040805162461bcd60e51b815260206004820152601c60248201527f73616d65206f776e65722063616e6e6f74207369676e20747769636500000000604482015290519081900360640190fd5b6004548114612224576040805162461bcd60e51b81526020600482015260186024820152776d757374207369676e207468652073616d652076616c756560401b604482015290519081900360640190fd5b600036604051808383808284376040519201829003822060058054919650945091925082918491506002600019610100600184161502019091160480156122a25780601f106122805761010080835404028352918201916122a2565b820191906000526020600020905b81548152906001019060200180831161228e575b50509150506040518091039020146122fb576040805162461bcd60e51b81526020600482015260176024820152766d757374207369676e207468652073616d65206461746160481b604482015290519081900360640190fd5b600380546001600160a01b03191690556001600160a01b03831660009081526020819052604090205460ff16151560011461237d576040805162461bcd60e51b815260206004820152601260248201527f6f776e65722073686f756c642065786973740000000000000000000000000000604482015290519081900360640190fd5b6001600160a01b03821660009081526020819052604090205460ff16156123eb576040805162461bcd60e51b815260206004820152601a60248201527f6e6577206f776e65722073686f756c64206e6f74206578697374000000000000604482015290519081900360640190fd5b6001600160a01b03808416600090815260208190526040808220805460ff199081169091559285168252902080549091166001179055505050565b6008546001600160a01b031681565b3360009081526020819052604090205460ff16612487576040805162461bcd60e51b815260206004820152600b60248201526a6f6e6c79206f776e65727360a81b604482015290519081900360640190fd5b600380546001600160a01b0319169055565b600060606040518060e0016040528060a681526020016125ee60a691399050606084811b9084901b60005b6014811015612541578281601481106124d957fe5b1a60f81b8482603d01815181106124ec57fe5b60200101906001600160f81b031916908160001a90535081816014811061250f57fe5b1a60f81b84826065018151811061252257fe5b60200101906001600160f81b031916908160001a9053506001016124c4565b508251602084016000f09695505050505050565b828054600181600116156101000203166002900490600052602060002090601f016020900481019282601f106125965782800160ff198235161785556125c3565b828001600101855582156125c3579182015b828111156125c35782358255916020019190600101906125a8565b506125cf9291506125d3565b5090565b61045d91905b808211156125cf57600081556001016125d956fe60998061000d6000396000f30036601657341560145734602052336001602080a25b005b6000805260046000601c376302d05d3f6000511415604b5773dadadadadadadadadadadadadadadadadadadada602052602080f35b366000803760008036600073bebebebebebebebebebebebebebebebebebebebe5af415608f57341560855734602052600051336002602080a35b3d6000803e3d6000f35b3d6000803e3d6000fda26469706673582212206237bd52ba20fc48dc20b02ec91aac6e0dd160a2cb4f9ecc9577633ca0c8765464736f6c634300060b0033608060405234801561001057600080fd5b50600080546001600160a01b031916331790556103f4806100326000396000f3fe60806040526004361061004a5760003560e01c806302d05d3f146100705780638da5cb5b146100a1578063d4b83992146100b6578063f09a4016146100cb578063fec5a18d14610108575b36600080376000803660006001545af43d6000803e801561006a573d6000f35b503d6000fd5b34801561007c57600080fd5b5061008561013c565b604080516001600160a01b039092168252519081900360200190f35b3480156100ad57600080fd5b50610085610141565b3480156100c257600080fd5b50610085610150565b3480156100d757600080fd5b50610106600480360360408110156100ee57600080fd5b506001600160a01b038135811691602001351661015f565b005b34801561011457600080fd5b506101066004803603602081101561012b57600080fd5b50356001600160c01b0319166102a0565b600090565b6000546001600160a01b031690565b6001546001600160a01b031690565b306001600160a01b03166302d05d3f6040518163ffffffff1660e01b815260040160206040518083038186803b15801561019857600080fd5b505afa1580156101ac573d6000803e3d6000fd5b505050506040513d60208110156101c257600080fd5b50516001600160a01b0316331461020e576040805162461bcd60e51b815260206004820152600b60248201526a3737ba1031b932b0ba37b960a91b604482015290519081900360640190fd5b6000546001600160a01b0383811691161480159061023457506001600160a01b03821615155b1561025557600080546001600160a01b0319166001600160a01b0384161790555b6001546001600160a01b0382811691161480159061027b57506001600160a01b03811615155b1561029c57600180546001600160a01b0319166001600160a01b0383161790555b5050565b6000546001600160a01b031633146102eb576040805162461bcd60e51b81526020600482015260096024820152683737ba1037bbb732b960b91b604482015290519081900360640190fd5b306001600160a01b03166302d05d3f6040518163ffffffff1660e01b815260040160206040518083038186803b15801561032457600080fd5b505afa158015610338573d6000803e3d6000fd5b505050506040513d602081101561034e57600080fd5b5051604080516318beb60960e31b81526001600160c01b03198416600482015290516001600160a01b039092169163c5f5b0489160248082019260009290919082900301818387803b1580156103a357600080fd5b505af11580156103b7573d6000803e3d6000fd5b505050505056fea2646970667358221220afdb2eff051ddf50ec00b1bddd91245c071f2e520e60979f223f0b66a759725d64736f6c634300060b0033608060405234801561001057600080fd5b50600080546001600160a01b031916331790556104c9806100326000396000f3fe60806040526004361061004a5760003560e01c806302d05d3f146101455780638da5cb5b14610176578063d4b839921461018b578063f09a4016146101a0578063fec5a18d146101dd575b6000306001600160a01b03166302d05d3f6040518163ffffffff1660e01b815260040160206040518083038186803b15801561008557600080fd5b505afa158015610099573d6000803e3d6000fd5b505050506040513d60208110156100af57600080fd5b505160408051630e6d1de960e01b815290516001600160a01b0390921691630e6d1de991600480820192602092909190829003018186803b1580156100f357600080fd5b505afa158015610107573d6000803e3d6000fd5b505050506040513d602081101561011d57600080fd5b505190503660008037600080366000845af43d6000803e801561013f573d6000f35b503d6000fd5b34801561015157600080fd5b5061015a610211565b604080516001600160a01b039092168252519081900360200190f35b34801561018257600080fd5b5061015a610216565b34801561019757600080fd5b5061015a610225565b3480156101ac57600080fd5b506101db600480360360408110156101c357600080fd5b506001600160a01b0381358116916020013516610234565b005b3480156101e957600080fd5b506101db6004803603602081101561020057600080fd5b50356001600160c01b031916610375565b600090565b6000546001600160a01b031690565b6001546001600160a01b031690565b306001600160a01b03166302d05d3f6040518163ffffffff1660e01b815260040160206040518083038186803b15801561026d57600080fd5b505afa158015610281573d6000803e3d6000fd5b505050506040513d602081101561029757600080fd5b50516001600160a01b031633146102e3576040805162461bcd60e51b815260206004820152600b60248201526a3737ba1031b932b0ba37b960a91b604482015290519081900360640190fd5b6000546001600160a01b0383811691161480159061030957506001600160a01b03821615155b1561032a57600080546001600160a01b0319166001600160a01b0384161790555b6001546001600160a01b0382811691161480159061035057506001600160a01b03811615155b1561037157600180546001600160a01b0319166001600160a01b0383161790555b5050565b6000546001600160a01b031633146103c0576040805162461bcd60e51b81526020600482015260096024820152683737ba1037bbb732b960b91b604482015290519081900360640190fd5b306001600160a01b03166302d05d3f6040518163ffffffff1660e01b815260040160206040518083038186803b1580156103f957600080fd5b505afa15801561040d573d6000803e3d6000fd5b505050506040513d602081101561042357600080fd5b5051604080516318beb60960e31b81526001600160c01b03198416600482015290516001600160a01b039092169163c5f5b0489160248082019260009290919082900301818387803b15801561047857600080fd5b505af115801561048c573d6000803e3d6000fd5b505050505056fea26469706673582212209a5deacbb86f8522960efe9844a60fccda87d490a8939ee64d016cf53477104c64736f6c634300060b0033",
  "source": "// SPDX-License-Identifier: UNLICENSED\n\npragma solidity 0.6.11;\n\nimport \"./FactoryStorage.sol\";\nimport \"./lib/IOracle.sol\";\n\ncontract Factory is FactoryStorage {\n\n    event WalletCreated(address indexed wallet, bytes8 indexed version, address indexed owner);\n    event WalletUpgraded(address indexed wallet, bytes8 indexed version);\n    event WalletConfigurationRestored(address indexed wallet, bytes8 indexed version, address indexed owner);\n    event WalletOwnershipRestored(address indexed wallet, address indexed owner);\n    event WalletVersionRestored(address indexed wallet, bytes8 indexed version, address indexed owner);\n    event VersionAdded(bytes8 indexed version, address indexed code, address indexed oracle);\n    event VersionDeployed(bytes8 indexed version, address indexed code, address indexed oracle);\n    event GotEther(address indexed from, uint256 value);\n\n    constructor (address owner1, address owner2, address owner3) FactoryStorage(owner1, owner2, owner3) public {\n    }\n\n    function _createWallet(address _creator, address _target) private returns (address result) {\n        bytes memory\n        _code = hex\"60998061000d6000396000f30036601657341560145734602052336001602080a25b005b6000805260046000601c376302d05d3f6000511415604b5773dadadadadadadadadadadadadadadadadadadada602052602080f35b366000803760008036600073bebebebebebebebebebebebebebebebebebebebe5af415608f57341560855734602052600051336002602080a35b3d6000803e3d6000f35b3d6000803e3d6000fd\"; //log3-event-ids-address-funcid-opt (-2,-2) (min: 22440)\n        bytes20 creatorBytes = bytes20(_creator);\n        bytes20 targetBytes = bytes20(_target);\n        for (uint i = 0; i < 20; i++) {\n            _code[61 + i] = creatorBytes[i];\n            _code[101 + i] = targetBytes[i];\n        }\n        // solium-disable-next-line security/no-inline-assembly\n        assembly {\n            result := create(0, add(_code, 0x20), mload(_code))\n        }\n    }\n\n    function transferWalletOwnership(address _newOwner) external {\n        address _curOwner = IProxy(msg.sender).owner();\n        Wallet storage _sw = accounts_wallet[_curOwner];\n        require(msg.sender == _sw.addr, \"from: no wallet\");\n        require(_sw.owner == true, \"from: not wallet owner\");\n        Wallet storage _sw2 = accounts_wallet[_newOwner];\n        require(msg.sender == _sw2.addr, \"to: not same wallet as from\");\n        require(_sw2.owner == false, \"to: wallet owner\");\n        _sw2.owner = true;\n        _sw.owner = false;\n        _sw.addr = address(0);\n        IProxy(msg.sender).init(_newOwner, address(0));\n    }\n\n    function addWalletBackup(address _backup) external {\n        Wallet storage _sw = accounts_wallet[_backup];\n        require(_sw.addr == address(0), \"backup has no wallet\");\n        require(_sw.owner == false, \"backup is wallet owner\"); //\n        address _owner = IProxy(msg.sender).owner();\n        Wallet storage _sw_owner = accounts_wallet[_owner];\n        require(msg.sender == _sw_owner.addr, \"not wallet\");\n        require(_sw_owner.owner == true, \"no wallet owner\");\n        _sw.addr = msg.sender;\n    }\n\n    function removeWalletBackup(address _backup) external {\n        require(_backup != address(0), \"no backup\");\n        Wallet storage _sw = accounts_wallet[_backup];\n        require(_sw.addr == msg.sender, \"not wallet\");\n        require(_sw.owner == false, \"wallet backup not exist\");\n        _sw.addr = address(0);\n    }\n\n    function upgradeWallet(bytes8 _version) external {\n        address _code = versions_code[_version];\n        require(_code != address(0), \"no version code\");\n        address _owner = IProxy(msg.sender).owner();\n        Wallet storage _sw = accounts_wallet[_owner];\n        require(msg.sender == _sw.addr && _sw.owner == true, \"sender is not wallet owner\");\n        wallets_version[_sw.addr] = _version;\n        IProxy(msg.sender).init(_owner, _code);\n        IStorage(msg.sender).migrate();\n        emit WalletUpgraded(_sw.addr, _version);\n    }\n\n    function addVersion(address _target, address _oracle) multiSig2of3(0) public {\n        require(_target != address(0), \"no version\");\n        require(_oracle != address(0), \"no oracle version\");\n        require(IOracle(_oracle).initialized() != false, \"oracle not initialized\");\n        bytes8 _version = IStorage(_target).version();\n        require(IOracle(_oracle).version() == _version, 'version mistmatch');\n        address _code = versions_code[_version];\n        require(_code == address(0), \"version exists\");\n        require(versions_oracle[_version] == address(0), \"oracle exists\");\n        versions_code[_version] = _target;\n        versions_oracle[_version] = _oracle;\n        emit VersionAdded(_version, _code, _oracle);\n    }\n\n    function deployVersion(bytes8 _version) multiSig2of3(0) public {\n        address _code = versions_code[_version];\n        require(_code != address(0), \"version not exist\");\n        address _oracle = versions_oracle[_version];\n        require(_oracle != address(0), \"oracle not exist\");\n        production_version = _version;\n        production_version_code = _code;\n        production_version_oracle = _oracle;\n        emit VersionDeployed(_version, _code, _oracle);\n    }\n\n    function restoreWalletConfiguration() public {\n        Wallet storage _sw = accounts_wallet[msg.sender];\n        require(_sw.addr != address(0), \"no wallet\");\n        require(_sw.owner == true, \"not wallet owner\");\n        bytes8 _version = wallets_version[_sw.addr];\n        if (_version == LATEST) {\n            _version = production_version;\n        }\n        address _code = versions_code[_version];\n        require(_code != address(0), \"version not exist\");\n        IProxy(_sw.addr).init(msg.sender, _code);\n        emit WalletConfigurationRestored(_sw.addr, _version, msg.sender);\n    }\n\n    function restoreWalletOwnership() public {\n        Wallet storage _sw = accounts_wallet[msg.sender];\n        require(_sw.addr != address(0), \"no wallet\");\n        require(_sw.owner == true, \"not wallet owner\");\n\n        IProxy(_sw.addr).init(msg.sender, address(0));\n        emit WalletOwnershipRestored(_sw.addr, msg.sender);\n    }\n\n    function restoreWalletVersion() public {\n        Wallet storage _sw = accounts_wallet[msg.sender];\n        require(_sw.addr != address(0), \"no wallet\");\n        require(_sw.owner == true, \"not wallet owner\");\n\n        bytes8 _version = wallets_version[_sw.addr];\n        if (_version == LATEST) {\n            _version = production_version;\n        }\n        address _code = versions_code[_version];\n        require(_code != address(0), \"no version\");\n        IProxy(_sw.addr).init(address(0), _code);\n        emit WalletVersionRestored(_sw.addr, _version, msg.sender);\n    }\n\n    function getLatestVersion() public view returns (address) {\n        return production_version_code;\n    }\n\n    function getWallet(address _account) public view returns (address) {\n        return accounts_wallet[_account].addr;\n    }\n\n    function createWallet(bool _auto) public returns (address) {\n        require(address(swProxy) != address(0), \"no proxy\");\n        require(production_version_code != address(0), \"no prod version\"); //Must be here - ProxyLatest also needs it.\n        Wallet storage _sw = accounts_wallet[msg.sender];\n        if (_sw.addr == address(0)) {\n            _sw.addr = _createWallet(address(this), address(swProxy));\n            require(_sw.addr != address(0), \"wallet not created\");\n            _sw.owner = true;\n            if (_auto) {\n                require(address(swProxyLatest) != address(0), \"no auto version\");\n                require(versions_code[LATEST] == address(swProxyLatest), \"incorrect auto version\");\n                wallets_version[_sw.addr] = LATEST;\n                IProxy(_sw.addr).init(msg.sender, address(swProxyLatest));\n                IStorage(_sw.addr).migrate();\n                emit WalletCreated(_sw.addr, LATEST, msg.sender);\n            } else {\n                wallets_version[_sw.addr] = production_version;\n                IProxy(_sw.addr).init(msg.sender, production_version_code);\n                IStorage(_sw.addr).migrate();\n                emit WalletCreated(_sw.addr, production_version, msg.sender);\n            }\n\n        }\n        return _sw.addr;\n    }\n\n    function oracle() public view returns (address _oracle) {\n        bytes8 _version = wallets_version[msg.sender];\n        if (_version == LATEST) {\n            _version = production_version;\n        }\n        _oracle = versions_oracle[_version];\n    }\n\n    /*\n    receive () external payable {\n      if (msg.value > 0) {\n        emit GotEther(msg.sender, msg.value);\n      }\n    }\n    */\n\n    fallback () external payable {\n      /*\n        bytes8 _version = wallets_version[msg.sender];\n        if (_version == LATEST) {\n            _version = production_version;\n        }\n        address _oracle = versions_oracle[_version];\n       */\n        //require(_oracle != address(0), \"no oracle code\");\n        /*\n        // solium-disable-next-line security/no-inline-assembly\n        assembly {\n                calldatacopy(0x00, 0x00, calldatasize)\n                //let res := call(gas, sload(oracle_slot), callvalue, 0x00, calldatasize, 0, 0)\n                let res := staticcall(gas, sload(_oracle), 0x00, calldatasize, 0, 0)\n                returndatacopy(0x00, 0x00, returndatasize)\n                if res { return(0x00, returndatasize) }\n                revert(0x00, returndatasize)\n            }\n            */\n    }\n}\n\n",
  "sourcePath": "/home/tal/code/kirobo/ki-eth-contracts/contracts/Factory.sol",
  "compiler": {
    "name": "solc",
    "version": "0.6.11+commit.5ef660b1.Emscripten.clang"
  },
  "schemaVersion": "3.0.23",
  "updatedAt": "2020-07-26T12:53:29.452Z",
  "networkType": "ethereum",
  "devdoc": {
    "kind": "dev",
    "methods": {},
    "version": 1
  },
  "userdoc": {
    "kind": "user",
    "methods": {},
    "version": 1
  }
}