{
  "contractName": "Factory",
  "abi": [
    {
      "inputs": [
        {
          "internalType": "address",
          "name": "owner1",
          "type": "address"
        },
        {
          "internalType": "address",
          "name": "owner2",
          "type": "address"
        },
        {
          "internalType": "address",
          "name": "owner3",
          "type": "address"
        }
      ],
      "stateMutability": "nonpayable",
      "type": "constructor"
    },
    {
      "anonymous": false,
      "inputs": [
        {
          "indexed": true,
          "internalType": "bytes8",
          "name": "version",
          "type": "bytes8"
        },
        {
          "indexed": true,
          "internalType": "address",
          "name": "code",
          "type": "address"
        },
        {
          "indexed": true,
          "internalType": "address",
          "name": "oracle",
          "type": "address"
        }
      ],
      "name": "VersionAdded",
      "type": "event"
    },
    {
      "anonymous": false,
      "inputs": [
        {
          "indexed": true,
          "internalType": "bytes8",
          "name": "version",
          "type": "bytes8"
        },
        {
          "indexed": true,
          "internalType": "address",
          "name": "code",
          "type": "address"
        },
        {
          "indexed": true,
          "internalType": "address",
          "name": "oracle",
          "type": "address"
        }
      ],
      "name": "VersionDeployed",
      "type": "event"
    },
    {
      "anonymous": false,
      "inputs": [
        {
          "indexed": true,
          "internalType": "address",
          "name": "wallet",
          "type": "address"
        },
        {
          "indexed": true,
          "internalType": "bytes8",
          "name": "version",
          "type": "bytes8"
        },
        {
          "indexed": true,
          "internalType": "address",
          "name": "owner",
          "type": "address"
        }
      ],
      "name": "WalletConfigurationRestored",
      "type": "event"
    },
    {
      "anonymous": false,
      "inputs": [
        {
          "indexed": true,
          "internalType": "address",
          "name": "wallet",
          "type": "address"
        },
        {
          "indexed": true,
          "internalType": "bytes8",
          "name": "version",
          "type": "bytes8"
        },
        {
          "indexed": true,
          "internalType": "address",
          "name": "owner",
          "type": "address"
        }
      ],
      "name": "WalletCreated",
      "type": "event"
    },
    {
      "anonymous": false,
      "inputs": [
        {
          "indexed": true,
          "internalType": "address",
          "name": "wallet",
          "type": "address"
        },
        {
          "indexed": true,
          "internalType": "address",
          "name": "owner",
          "type": "address"
        }
      ],
      "name": "WalletOwnershipRestored",
      "type": "event"
    },
    {
      "anonymous": false,
      "inputs": [
        {
          "indexed": true,
          "internalType": "address",
          "name": "wallet",
          "type": "address"
        },
        {
          "indexed": true,
          "internalType": "bytes8",
          "name": "version",
          "type": "bytes8"
        }
      ],
      "name": "WalletUpgraded",
      "type": "event"
    },
    {
      "anonymous": false,
      "inputs": [
        {
          "indexed": true,
          "internalType": "address",
          "name": "wallet",
          "type": "address"
        },
        {
          "indexed": true,
          "internalType": "bytes8",
          "name": "version",
          "type": "bytes8"
        },
        {
          "indexed": true,
          "internalType": "address",
          "name": "owner",
          "type": "address"
        }
      ],
      "name": "WalletVersionRestored",
      "type": "event"
    },
    {
      "stateMutability": "nonpayable",
      "type": "fallback"
    },
    {
      "inputs": [],
      "name": "LATEST",
      "outputs": [
        {
          "internalType": "bytes8",
          "name": "",
          "type": "bytes8"
        }
      ],
      "stateMutability": "view",
      "type": "function"
    },
    {
      "inputs": [],
      "name": "cancel",
      "outputs": [],
      "stateMutability": "nonpayable",
      "type": "function"
    },
    {
      "inputs": [],
      "name": "isOwner",
      "outputs": [
        {
          "internalType": "bool",
          "name": "",
          "type": "bool"
        }
      ],
      "stateMutability": "view",
      "type": "function"
    },
    {
      "inputs": [
        {
          "internalType": "address",
          "name": "_owner",
          "type": "address"
        },
        {
          "internalType": "address",
          "name": "_newOwner",
          "type": "address"
        }
      ],
      "name": "replaceOwner",
      "outputs": [],
      "stateMutability": "nonpayable",
      "type": "function"
    },
    {
      "inputs": [],
      "name": "swProxy",
      "outputs": [
        {
          "internalType": "contract Proxy",
          "name": "",
          "type": "address"
        }
      ],
      "stateMutability": "view",
      "type": "function"
    },
    {
      "inputs": [],
      "name": "swProxyLatest",
      "outputs": [
        {
          "internalType": "contract ProxyLatest",
          "name": "",
          "type": "address"
        }
      ],
      "stateMutability": "view",
      "type": "function"
    },
    {
      "inputs": [],
      "name": "target",
      "outputs": [
        {
          "internalType": "address",
          "name": "",
          "type": "address"
        }
      ],
      "stateMutability": "view",
      "type": "function"
    },
    {
      "inputs": [
        {
          "internalType": "address",
          "name": "_newOwner",
          "type": "address"
        }
      ],
      "name": "transferWalletOwnership",
      "outputs": [],
      "stateMutability": "nonpayable",
      "type": "function"
    },
    {
      "inputs": [
        {
          "internalType": "address",
          "name": "_backup",
          "type": "address"
        }
      ],
      "name": "addWalletBackup",
      "outputs": [],
      "stateMutability": "nonpayable",
      "type": "function"
    },
    {
      "inputs": [
        {
          "internalType": "address",
          "name": "_backup",
          "type": "address"
        }
      ],
      "name": "removeWalletBackup",
      "outputs": [],
      "stateMutability": "nonpayable",
      "type": "function"
    },
    {
      "inputs": [
        {
          "internalType": "bytes8",
          "name": "_version",
          "type": "bytes8"
        }
      ],
      "name": "upgradeWallet",
      "outputs": [],
      "stateMutability": "nonpayable",
      "type": "function"
    },
    {
      "inputs": [
        {
          "internalType": "address",
          "name": "_target",
          "type": "address"
        },
        {
          "internalType": "address",
          "name": "_oracle",
          "type": "address"
        }
      ],
      "name": "addVersion",
      "outputs": [],
      "stateMutability": "nonpayable",
      "type": "function"
    },
    {
      "inputs": [
        {
          "internalType": "bytes8",
          "name": "_version",
          "type": "bytes8"
        }
      ],
      "name": "deployVersion",
      "outputs": [],
      "stateMutability": "nonpayable",
      "type": "function"
    },
    {
      "inputs": [],
      "name": "restoreWalletConfiguration",
      "outputs": [],
      "stateMutability": "nonpayable",
      "type": "function"
    },
    {
      "inputs": [],
      "name": "restoreWalletOwnership",
      "outputs": [],
      "stateMutability": "nonpayable",
      "type": "function"
    },
    {
      "inputs": [],
      "name": "restoreWalletVersion",
      "outputs": [],
      "stateMutability": "nonpayable",
      "type": "function"
    },
    {
      "inputs": [],
      "name": "getLatestVersion",
      "outputs": [
        {
          "internalType": "address",
          "name": "",
          "type": "address"
        }
      ],
      "stateMutability": "view",
      "type": "function"
    },
    {
      "inputs": [
        {
          "internalType": "address",
          "name": "_account",
          "type": "address"
        }
      ],
      "name": "getWallet",
      "outputs": [
        {
          "internalType": "address",
          "name": "",
          "type": "address"
        }
      ],
      "stateMutability": "view",
      "type": "function"
    },
    {
      "inputs": [
        {
          "internalType": "bool",
          "name": "_auto",
          "type": "bool"
        }
      ],
      "name": "createWallet",
      "outputs": [
        {
          "internalType": "address",
          "name": "",
          "type": "address"
        }
      ],
      "stateMutability": "nonpayable",
      "type": "function"
    },
    {
      "inputs": [],
      "name": "oracle",
      "outputs": [
        {
          "internalType": "address",
          "name": "_oracle",
          "type": "address"
        }
      ],
      "stateMutability": "view",
      "type": "function"
    }
  ],
  "bytecode": "0x60806040523480156200001157600080fd5b5060405162003266380380620032668339810160408190526200003491620003b5565b8282828282826001600160a01b0383166200008b5760405162461bcd60e51b815260206004820152601260248201527106f776e6572312063616e6e6f7420626520360741b60448201526064015b60405180910390fd5b6001600160a01b038216620000d85760405162461bcd60e51b815260206004820152601260248201527106f776e6572322063616e6e6f7420626520360741b604482015260640162000082565b6001600160a01b038116620001255760405162461bcd60e51b815260206004820152601260248201527106f776e6572332063616e6e6f7420626520360741b604482015260640162000082565b816001600160a01b0316836001600160a01b03161415620001895760405162461bcd60e51b815260206004820152601760248201527f6f776e6572312063616e6e6f74206265206f776e657232000000000000000000604482015260640162000082565b806001600160a01b0316826001600160a01b03161415620001ed5760405162461bcd60e51b815260206004820152601760248201527f6f776e6572322063616e6e6f74206265206f776e657233000000000000000000604482015260640162000082565b806001600160a01b0316836001600160a01b03161415620002515760405162461bcd60e51b815260206004820152601760248201527f6f776e6572312063616e6e6f74206265206f776e657233000000000000000000604482015260640162000082565b6001600160a01b039283166000908152602081905260408082208054600160ff19918216811790925594861683528183208054861682179055929094168152839020805490921617905551620002a7906200037c565b604051809103906000f080158015620002c4573d6000803e3d6000fd5b50600580546001600160a01b0319166001600160a01b0392909216919091179055604051620002f3906200038a565b604051809103906000f08015801562000310573d6000803e3d6000fd5b50600680546001600160a01b03199081166001600160a01b039384161791829055651b185d195cdd60d21b60005260096020527ff5c2ff9c62f1500bae0349717898df1f5d951101798678757bac40a4d7a86c27805492909316911617905550620003fe945050505050565b6104e380620027bd83390190565b6105c68062002ca083390190565b80516001600160a01b0381168114620003b057600080fd5b919050565b600080600060608486031215620003ca578283fd5b620003d58462000398565b9250620003e56020850162000398565b9150620003f56040850162000398565b90509250925092565b6123af806200040e6000396000f3fe608060405234801561001057600080fd5b506004361061012c5760003560e01c806397e61ee4116100ad578063cf2f774111610071578063cf2f774114610281578063d4b8399214610294578063e20056e6146102a7578063e2adec9c146102ba578063ea8a1af0146102cd5761012c565b806397e61ee41461022d578063a196de8314610240578063a7ecbd8d14610253578063bf3b11011461025b578063c5f5b0481461026e5761012c565b80637721904c116100f45780637721904c146101be5780637dc0d1d0146101d1578063842bb732146101d95780638c576fc3146101e15780638f32d59b1461020a5761012c565b806304d0a6471461012e5780630e6d1de9146101775780631a05b142146101905780632bc68db7146101985780634b613c20146101ab575b005b61015a61013c366004611f6a565b6001600160a01b039081166000908152600760205260409020541690565b6040516001600160a01b0390911681526020015b60405180910390f35b61015a600a54600160401b90046001600160a01b031690565b61012c6102d5565b61015a6101a6366004611fe1565b610493565b61012c6101b9366004612019565b610940565b60055461015a906001600160a01b031681565b61015a610bae565b61012c610c0b565b6101f1651b185d195cdd60d21b81565b6040516001600160c01b0319909116815260200161016e565b3360009081526020819052604090205460ff16604051901515815260200161016e565b61012c61023b366004611fa9565b610d0d565b61012c61024e366004611f6a565b6111e1565b61012c6113c7565b61012c610269366004611f6a565b611576565b61012c61027c366004612019565b6117dc565b61012c61028f366004611f6a565b611a5e565b60045461015a906001600160a01b031681565b61012c6102b5366004611fa9565b611b63565b60065461015a906001600160a01b031681565b61012c611d6d565b33600090815260076020526040902080546001600160a01b03166103145760405162461bcd60e51b815260040161030b9061216a565b60405180910390fd5b8054600160a01b900460ff1615156001146103415760405162461bcd60e51b815260040161030b906121c4565b80546001600160a01b031660009081526008602052604090205460c01b6001600160c01b03198116651b185d195cdd60d21b14156103815750600a5460c01b5b6001600160c01b031981166000908152600960205260409020546001600160a01b0316806103e55760405162461bcd60e51b81526020600482015260116024820152701d995c9cda5bdb881b9bdd08195e1a5cdd607a1b604482015260640161030b565b825460405163784d200b60e11b81523360048201526001600160a01b0383811660248301529091169063f09a401690604401600060405180830381600087803b15801561043157600080fd5b505af1158015610445573d6000803e3d6000fd5b505084546040513393506001600160c01b0319861692506001600160a01b03909116907f9dff4715dcc255fd0abdc515933401366bac62424c60e57d607dfe9003f2dc1790600090a4505050565b6005546000906001600160a01b03166104d95760405162461bcd60e51b81526020600482015260086024820152676e6f2070726f787960c01b604482015260640161030b565b600a54600160401b90046001600160a01b031661052a5760405162461bcd60e51b815260206004820152600f60248201526e373790383937b2103b32b939b4b7b760891b604482015260640161030b565b33600090815260076020526040902080546001600160a01b03166109305760055461055f9030906001600160a01b0316611dae565b81546001600160a01b0319166001600160a01b0391821617808355166105bc5760405162461bcd60e51b81526020600482015260126024820152711dd85b1b195d081b9bdd0818dc99585d195960721b604482015260640161030b565b805460ff60a01b1916600160a01b17815582156107e1576006546001600160a01b031661061d5760405162461bcd60e51b815260206004820152600f60248201526e37379030baba37903b32b939b4b7b760891b604482015260640161030b565b600654651b185d195cdd60d21b60005260096020527ff5c2ff9c62f1500bae0349717898df1f5d951101798678757bac40a4d7a86c27546001600160a01b039081169116146106a75760405162461bcd60e51b815260206004820152601660248201527534b731b7b93932b1ba1030baba37903b32b939b4b7b760511b604482015260640161030b565b80546001600160a01b0390811660009081526008602052604090819020805467ffffffffffffffff1916676c617465737400001790558254600654915163784d200b60e11b815233600482015291831660248301529091169063f09a401690604401600060405180830381600087803b15801561072357600080fd5b505af1158015610737573d6000803e3d6000fd5b505082546040805163011fa75760e71b815290516001600160a01b039092169350638fd3ab80925060048082019260009290919082900301818387803b15801561078057600080fd5b505af1158015610794573d6000803e3d6000fd5b50508254604051339350651b185d195cdd60d21b92506001600160a01b03909116907f689c6b1155ee0314d789d2c8968b47cb04b9c8592446c127023fc6399b17310c90600090a4610930565b600a805482546001600160a01b0390811660009081526008602052604090819020805467ffffffffffffffff191667ffffffffffffffff9094169390931790925583549254915163784d200b60e11b8152336004820152600160401b90920481166024830152919091169063f09a401690604401600060405180830381600087803b15801561086f57600080fd5b505af1158015610883573d6000803e3d6000fd5b505082546040805163011fa75760e71b815290516001600160a01b039092169350638fd3ab80925060048082019260009290919082900301818387803b1580156108cc57600080fd5b505af11580156108e0573d6000803e3d6000fd5b5050600a54835460405133945060c09290921b6001600160c01b03191692506001600160a01b0316907f689c6b1155ee0314d789d2c8968b47cb04b9c8592446c127023fc6399b17310c90600090a45b546001600160a01b031692915050565b3360009081526020819052604081205460ff1661096f5760405162461bcd60e51b815260040161030b906121ee565b6001546001600160a01b03166109a957600180546001600160a01b0319163317905561099e6003600036611ed1565b506002819055610baa565b6001546001600160a01b03163314156109d45760405162461bcd60e51b815260040161030b90612133565b60025481146109f55760405162461bcd60e51b815260040161030b906120fc565b600036604051610a06929190612051565b60405190819003812090610a1c90600390612061565b604051809103902014610a415760405162461bcd60e51b815260040161030b9061218d565b600180546001600160a01b03191690556001600160c01b031982166000908152600960205260409020546001600160a01b031680610ab55760405162461bcd60e51b81526020600482015260116024820152701d995c9cda5bdb881b9bdd08195e1a5cdd607a1b604482015260640161030b565b6001600160c01b031983166000908152600c60205260409020546001600160a01b031680610b185760405162461bcd60e51b815260206004820152601060248201526f1bdc9858db19481b9bdd08195e1a5cdd60821b604482015260640161030b565b600a805467ffffffffffffffff191660c086901c1768010000000000000000600160e01b031916600160401b6001600160a01b0385811691820292909217909255600b80546001600160a01b03191691841691821790556040519091906001600160c01b03198716907fb4d04ce57b22f1de0bfbaebe42d34d0616a77b6de95fde396bbd054851d22f5890600090a450505b5050565b3360009081526008602052604081205460c01b6001600160c01b03198116651b185d195cdd60d21b1415610be45750600a5460c01b5b6001600160c01b0319166000908152600c60205260409020546001600160a01b0316919050565b33600090815260076020526040902080546001600160a01b0316610c415760405162461bcd60e51b815260040161030b9061216a565b8054600160a01b900460ff161515600114610c6e5760405162461bcd60e51b815260040161030b906121c4565b805460405163784d200b60e11b8152336004820152600060248201526001600160a01b039091169063f09a401690604401600060405180830381600087803b158015610cb957600080fd5b505af1158015610ccd573d6000803e3d6000fd5b505082546040513393506001600160a01b0390911691507f5818d755b157239746017f59fc87c7100652290409a15a7d4fba19ff98efcb5f90600090a350565b3360009081526020819052604081205460ff16610d3c5760405162461bcd60e51b815260040161030b906121ee565b6001546001600160a01b0316610d7657600180546001600160a01b03191633179055610d6b6003600036611ed1565b5060028190556111dc565b6001546001600160a01b0316331415610da15760405162461bcd60e51b815260040161030b90612133565b6002548114610dc25760405162461bcd60e51b815260040161030b906120fc565b600036604051610dd3929190612051565b60405190819003812090610de990600390612061565b604051809103902014610e0e5760405162461bcd60e51b815260040161030b9061218d565b600180546001600160a01b03191690556001600160a01b038316610e615760405162461bcd60e51b815260206004820152600a6024820152693737903b32b939b4b7b760b11b604482015260640161030b565b6001600160a01b038216610eab5760405162461bcd60e51b815260206004820152601160248201527037379037b930b1b632903b32b939b4b7b760791b604482015260640161030b565b816001600160a01b031663158ef93e6040518163ffffffff1660e01b815260040160206040518083038186803b158015610ee457600080fd5b505afa158015610ef8573d6000803e3d6000fd5b505050506040513d601f19601f82011682018060405250810190610f1c9190611ffd565b610f615760405162461bcd60e51b81526020600482015260166024820152751bdc9858db19481b9bdd081a5b9a5d1a585b1a5e995960521b604482015260640161030b565b6000836001600160a01b03166354fd4d506040518163ffffffff1660e01b815260040160206040518083038186803b158015610f9c57600080fd5b505afa158015610fb0573d6000803e3d6000fd5b505050506040513d601f19601f82011682018060405250810190610fd49190612035565b9050806001600160c01b031916836001600160a01b03166354fd4d506040518163ffffffff1660e01b815260040160206040518083038186803b15801561101a57600080fd5b505afa15801561102e573d6000803e3d6000fd5b505050506040513d601f19601f820116820180604052508101906110529190612035565b6001600160c01b0319161461109d5760405162461bcd60e51b81526020600482015260116024820152700eccae4e6d2dedc40dad2e6e8dac2e8c6d607b1b604482015260640161030b565b6001600160c01b031981166000908152600960205260409020546001600160a01b031680156110ff5760405162461bcd60e51b815260206004820152600e60248201526d76657273696f6e2065786973747360901b604482015260640161030b565b6001600160c01b031982166000908152600c60205260409020546001600160a01b03161561115f5760405162461bcd60e51b815260206004820152600d60248201526c6f7261636c652065786973747360981b604482015260640161030b565b6001600160c01b03198216600081815260096020908152604080832080546001600160a01b03808c166001600160a01b031992831617909255600c90935281842080548a8316941684179055905191939085169290917ff3c8e7c782d00f601a9d70107849e3f4894c000271e60377966bcfa99ca3ead29190a450505b505050565b6001600160a01b0380821660009081526007602052604090208054909116156112435760405162461bcd60e51b8152602060048201526014602482015273189858dadd5c081a185cc81b9bc81dd85b1b195d60621b604482015260640161030b565b8054600160a01b900460ff16156112955760405162461bcd60e51b81526020600482015260166024820152753130b1b5bab81034b9903bb0b63632ba1037bbb732b960511b604482015260640161030b565b6000336001600160a01b0316638da5cb5b6040518163ffffffff1660e01b815260040160206040518083038186803b1580156112d057600080fd5b505afa1580156112e4573d6000803e3d6000fd5b505050506040513d601f19601f820116820180604052508101906113089190611f8d565b6001600160a01b0381811660009081526007602052604090208054929350911633146113635760405162461bcd60e51b815260206004820152600a6024820152691b9bdd081dd85b1b195d60b21b604482015260640161030b565b8054600160a01b900460ff1615156001146113b25760405162461bcd60e51b815260206004820152600f60248201526e3737903bb0b63632ba1037bbb732b960891b604482015260640161030b565b505080546001600160a01b0319163317905550565b33600090815260076020526040902080546001600160a01b03166113fd5760405162461bcd60e51b815260040161030b9061216a565b8054600160a01b900460ff16151560011461142a5760405162461bcd60e51b815260040161030b906121c4565b80546001600160a01b031660009081526008602052604090205460c01b6001600160c01b03198116651b185d195cdd60d21b141561146a5750600a5460c01b5b6001600160c01b031981166000908152600960205260409020546001600160a01b0316806114c75760405162461bcd60e51b815260206004820152600a6024820152693737903b32b939b4b7b760b11b604482015260640161030b565b825460405163784d200b60e11b8152600060048201526001600160a01b0383811660248301529091169063f09a401690604401600060405180830381600087803b15801561151457600080fd5b505af1158015611528573d6000803e3d6000fd5b505084546040513393506001600160c01b0319861692506001600160a01b03909116907f674e126c2ea08c63dbe99eca56b1e9bd3b8d412a467e57060a5953f6e3c2060090600090a4505050565b6000336001600160a01b0316638da5cb5b6040518163ffffffff1660e01b815260040160206040518083038186803b1580156115b157600080fd5b505afa1580156115c5573d6000803e3d6000fd5b505050506040513d601f19601f820116820180604052508101906115e99190611f8d565b6001600160a01b0381811660009081526007602052604090208054929350911633146116495760405162461bcd60e51b815260206004820152600f60248201526e199c9bdb4e881b9bc81dd85b1b195d608a1b604482015260640161030b565b8054600160a01b900460ff16151560011461169f5760405162461bcd60e51b8152602060048201526016602482015275333937b69d103737ba103bb0b63632ba1037bbb732b960511b604482015260640161030b565b6001600160a01b0383811660009081526007602052604090208054909116331461170b5760405162461bcd60e51b815260206004820152601b60248201527f746f3a206e6f742073616d652077616c6c65742061732066726f6d0000000000604482015260640161030b565b8054600160a01b900460ff16156117575760405162461bcd60e51b815260206004820152601060248201526f3a379d103bb0b63632ba1037bbb732b960811b604482015260640161030b565b805460ff60a01b1916600160a01b17815581546001600160a81b031916825560405163784d200b60e11b81526001600160a01b038516600482015260006024820152339063f09a401690604401600060405180830381600087803b1580156117be57600080fd5b505af11580156117d2573d6000803e3d6000fd5b5050505050505050565b6001600160c01b031981166000908152600960205260409020546001600160a01b03168061183e5760405162461bcd60e51b815260206004820152600f60248201526e6e6f2076657273696f6e20636f646560881b604482015260640161030b565b6000336001600160a01b0316638da5cb5b6040518163ffffffff1660e01b815260040160206040518083038186803b15801561187957600080fd5b505afa15801561188d573d6000803e3d6000fd5b505050506040513d601f19601f820116820180604052508101906118b19190611f8d565b6001600160a01b03818116600090815260076020526040902080549293509116331480156118ec57508054600160a01b900460ff1615156001145b6119385760405162461bcd60e51b815260206004820152601a60248201527f73656e646572206973206e6f742077616c6c6574206f776e6572000000000000604482015260640161030b565b80546001600160a01b0390811660009081526008602052604090819020805467ffffffffffffffff191660c088901c1790555163784d200b60e11b815283821660048201529084166024820152339063f09a401690604401600060405180830381600087803b1580156119aa57600080fd5b505af11580156119be573d6000803e3d6000fd5b50505050336001600160a01b0316638fd3ab806040518163ffffffff1660e01b8152600401600060405180830381600087803b1580156119fd57600080fd5b505af1158015611a11573d6000803e3d6000fd5b505082546040516001600160c01b0319881693506001600160a01b0390911691507feafb3b932d1424e32ec924eb9695430fd852ce33327c076abb1699b72ec58f1690600090a350505050565b6001600160a01b038116611aa05760405162461bcd60e51b815260206004820152600960248201526806e6f206261636b75760bc1b604482015260640161030b565b6001600160a01b03808216600090815260076020526040902080549091163314611af95760405162461bcd60e51b815260206004820152600a6024820152691b9bdd081dd85b1b195d60b21b604482015260640161030b565b8054600160a01b900460ff1615611b525760405162461bcd60e51b815260206004820152601760248201527f77616c6c6574206261636b7570206e6f74206578697374000000000000000000604482015260640161030b565b80546001600160a01b031916905550565b3360009081526020819052604081205460ff16611b925760405162461bcd60e51b815260040161030b906121ee565b6001546001600160a01b0316611bc157600180546001600160a01b03191633179055610d6b6003600036611ed1565b6001546001600160a01b0316331415611bec5760405162461bcd60e51b815260040161030b90612133565b6002548114611c0d5760405162461bcd60e51b815260040161030b906120fc565b600036604051611c1e929190612051565b60405190819003812090611c3490600390612061565b604051809103902014611c595760405162461bcd60e51b815260040161030b9061218d565b600180546001600160a01b03191681556001600160a01b03841660009081526020819052604090205460ff16151514611cc95760405162461bcd60e51b81526020600482015260126024820152711bdddb995c881cda1bdd5b1908195e1a5cdd60721b604482015260640161030b565b6001600160a01b03821660009081526020819052604090205460ff1615611d325760405162461bcd60e51b815260206004820152601a60248201527f6e6577206f776e65722073686f756c64206e6f74206578697374000000000000604482015260640161030b565b6001600160a01b03808416600090815260208190526040808220805460ff199081169091559285168252902080549091166001179055505050565b3360009081526020819052604090205460ff16611d9c5760405162461bcd60e51b815260040161030b906121ee565b600180546001600160a01b0319169055565b6000806040518060e0016040528060a681526020016122d460a691399050606084811b9084901b60005b6014811015611ebd57828160148110611e0157634e487b7160e01b600052603260045260246000fd5b1a60f81b84611e1183603d612213565b81518110611e2f57634e487b7160e01b600052603260045260246000fd5b60200101906001600160f81b031916908160001a905350818160148110611e6657634e487b7160e01b600052603260045260246000fd5b1a60f81b84611e76836065612213565b81518110611e9457634e487b7160e01b600052603260045260246000fd5b60200101906001600160f81b031916908160001a90535080611eb581612266565b915050611dd8565b508251602084016000f09695505050505050565b828054611edd9061222b565b90600052602060002090601f016020900481019282611eff5760008555611f45565b82601f10611f185782800160ff19823516178555611f45565b82800160010185558215611f45579182015b82811115611f45578235825591602001919060010190611f2a565b50611f51929150611f55565b5090565b5b80821115611f515760008155600101611f56565b600060208284031215611f7b578081fd5b8135611f8681612297565b9392505050565b600060208284031215611f9e578081fd5b8151611f8681612297565b60008060408385031215611fbb578081fd5b8235611fc681612297565b91506020830135611fd681612297565b809150509250929050565b600060208284031215611ff2578081fd5b8135611f86816122af565b60006020828403121561200e578081fd5b8151611f86816122af565b60006020828403121561202a578081fd5b8135611f86816122bd565b600060208284031215612046578081fd5b8151611f86816122bd565b6000828483379101908152919050565b815460009081906002810460018083168061207d57607f831692505b602080841082141561209d57634e487b7160e01b87526022600452602487fd5b8180156120b157600181146120c2576120ee565b60ff198616895284890196506120ee565b60008a815260209020885b868110156120e65781548b8201529085019083016120cd565b505084890196505b509498975050505050505050565b60208082526018908201527f6d757374207369676e207468652073616d652076616c75650000000000000000604082015260600190565b6020808252601c908201527f73616d65206f776e65722063616e6e6f74207369676e20747769636500000000604082015260600190565b6020808252600990820152681b9bc81dd85b1b195d60ba1b604082015260600190565b60208082526017908201527f6d757374207369676e207468652073616d652064617461000000000000000000604082015260600190565b60208082526010908201526f3737ba103bb0b63632ba1037bbb732b960811b604082015260600190565b6020808252600b908201526a6f6e6c79206f776e65727360a81b604082015260600190565b6000821982111561222657612226612281565b500190565b60028104600182168061223f57607f821691505b6020821081141561226057634e487b7160e01b600052602260045260246000fd5b50919050565b600060001982141561227a5761227a612281565b5060010190565b634e487b7160e01b600052601160045260246000fd5b6001600160a01b03811681146122ac57600080fd5b50565b80151581146122ac57600080fd5b6001600160c01b0319811681146122ac57600080fdfe60998061000d6000396000f30036601657341560145734602052336001602080a25b005b6000805260046000601c376302d05d3f6000511415604b5773dadadadadadadadadadadadadadadadadadadada602052602080f35b366000803760008036600073bebebebebebebebebebebebebebebebebebebebe5af415608f57341560855734602052600051336002602080a35b3d6000803e3d6000f35b3d6000803e3d6000fda2646970667358221220e098f4346ee571cd92844c7d0ba9e249808e528114e9a37dec54675fd21717d764736f6c63430008020033608060405234801561001057600080fd5b50600080546001600160a01b031916331790556104b1806100326000396000f3fe60806040526004361061004e5760003560e01c806302d05d3f146100c65780638da5cb5b146100f2578063d4b8399214610110578063f09a40161461012e578063fec5a18d14610150576100a0565b366100a05760405162461bcd60e51b815260206004820181905260248201527f73686f756c64206e6f7420616363657074206574686572206469726563746c7960448201526064015b60405180910390fd5b36600080376000803660006001545af43d6000803e80156100c0573d6000f35b503d6000fd5b3480156100d257600080fd5b5060005b6040516001600160a01b03909116815260200160405180910390f35b3480156100fe57600080fd5b506000546001600160a01b03166100d6565b34801561011c57600080fd5b506001546001600160a01b03166100d6565b34801561013a57600080fd5b5061014e610149366004610403565b610170565b005b34801561015c57600080fd5b5061014e61016b36600461043b565b6102c1565b306001600160a01b03166302d05d3f6040518163ffffffff1660e01b815260040160206040518083038186803b1580156101a957600080fd5b505afa1580156101bd573d6000803e3d6000fd5b505050506040513d601f19601f820116820180604052508101906101e191906103e0565b6001600160a01b0316336001600160a01b03161461022f5760405162461bcd60e51b815260206004820152600b60248201526a3737ba1031b932b0ba37b960a91b6044820152606401610097565b6000546001600160a01b0383811691161480159061025557506001600160a01b03821615155b1561027657600080546001600160a01b0319166001600160a01b0384161790555b6001546001600160a01b0382811691161480159061029c57506001600160a01b03811615155b156102bd57600180546001600160a01b0319166001600160a01b0383161790555b5050565b6000546001600160a01b031633146103075760405162461bcd60e51b81526020600482015260096024820152683737ba1037bbb732b960b91b6044820152606401610097565b306001600160a01b03166302d05d3f6040518163ffffffff1660e01b815260040160206040518083038186803b15801561034057600080fd5b505afa158015610354573d6000803e3d6000fd5b505050506040513d601f19601f8201168201806040525081019061037891906103e0565b6040516318beb60960e31b81526001600160c01b0319831660048201526001600160a01b03919091169063c5f5b04890602401600060405180830381600087803b1580156103c557600080fd5b505af11580156103d9573d6000803e3d6000fd5b5050505050565b6000602082840312156103f1578081fd5b81516103fc81610463565b9392505050565b60008060408385031215610415578081fd5b823561042081610463565b9150602083013561043081610463565b809150509250929050565b60006020828403121561044c578081fd5b81356001600160c01b0319811681146103fc578182fd5b6001600160a01b038116811461047857600080fd5b5056fea2646970667358221220c4f2469a6745377dfc4e20804ac5e31ee700d8006fa45986e2837db2354b71cc64736f6c63430008020033608060405234801561001057600080fd5b50600080546001600160a01b03191633179055610594806100326000396000f3fe60806040526004361061004e5760003560e01c806302d05d3f146101a95780638da5cb5b146101d5578063d4b83992146101f3578063f09a401614610211578063fec5a18d14610233576100a0565b366100a05760405162461bcd60e51b815260206004820181905260248201527f73686f756c64206e6f7420616363657074206574686572206469726563746c7960448201526064015b60405180910390fd5b6000306001600160a01b03166302d05d3f6040518163ffffffff1660e01b815260040160206040518083038186803b1580156100db57600080fd5b505afa1580156100ef573d6000803e3d6000fd5b505050506040513d601f19601f8201168201806040525081019061011391906104c3565b6001600160a01b0316630e6d1de96040518163ffffffff1660e01b815260040160206040518083038186803b15801561014b57600080fd5b505afa15801561015f573d6000803e3d6000fd5b505050506040513d601f19601f8201168201806040525081019061018391906104c3565b90503660008037600080366000845af43d6000803e80156101a3573d6000f35b503d6000fd5b3480156101b557600080fd5b5060005b6040516001600160a01b03909116815260200160405180910390f35b3480156101e157600080fd5b506000546001600160a01b03166101b9565b3480156101ff57600080fd5b506001546001600160a01b03166101b9565b34801561021d57600080fd5b5061023161022c3660046104e6565b610253565b005b34801561023f57600080fd5b5061023161024e36600461051e565b6103a4565b306001600160a01b03166302d05d3f6040518163ffffffff1660e01b815260040160206040518083038186803b15801561028c57600080fd5b505afa1580156102a0573d6000803e3d6000fd5b505050506040513d601f19601f820116820180604052508101906102c491906104c3565b6001600160a01b0316336001600160a01b0316146103125760405162461bcd60e51b815260206004820152600b60248201526a3737ba1031b932b0ba37b960a91b6044820152606401610097565b6000546001600160a01b0383811691161480159061033857506001600160a01b03821615155b1561035957600080546001600160a01b0319166001600160a01b0384161790555b6001546001600160a01b0382811691161480159061037f57506001600160a01b03811615155b156103a057600180546001600160a01b0319166001600160a01b0383161790555b5050565b6000546001600160a01b031633146103ea5760405162461bcd60e51b81526020600482015260096024820152683737ba1037bbb732b960b91b6044820152606401610097565b306001600160a01b03166302d05d3f6040518163ffffffff1660e01b815260040160206040518083038186803b15801561042357600080fd5b505afa158015610437573d6000803e3d6000fd5b505050506040513d601f19601f8201168201806040525081019061045b91906104c3565b6040516318beb60960e31b81526001600160c01b0319831660048201526001600160a01b03919091169063c5f5b04890602401600060405180830381600087803b1580156104a857600080fd5b505af11580156104bc573d6000803e3d6000fd5b5050505050565b6000602082840312156104d4578081fd5b81516104df81610546565b9392505050565b600080604083850312156104f8578081fd5b823561050381610546565b9150602083013561051381610546565b809150509250929050565b60006020828403121561052f578081fd5b81356001600160c01b0319811681146104df578182fd5b6001600160a01b038116811461055b57600080fd5b5056fea2646970667358221220f96bc7ce8678e406935e694208418c39274586cd0b965a1e78bffc4ecbe502ce64736f6c63430008020033",
  "immutableReferences": {},
  "source": "// SPDX-License-Identifier: UNLICENSED\n\npragma solidity ^0.8.0;\n\nimport \"./FactoryStorage.sol\";\nimport \"./lib/IOracle.sol\";\n\ncontract Factory is FactoryStorage {\n\n    event WalletCreated(address indexed wallet, bytes8 indexed version, address indexed owner);\n    event WalletUpgraded(address indexed wallet, bytes8 indexed version);\n    event WalletConfigurationRestored(address indexed wallet, bytes8 indexed version, address indexed owner);\n    event WalletOwnershipRestored(address indexed wallet, address indexed owner);\n    event WalletVersionRestored(address indexed wallet, bytes8 indexed version, address indexed owner);\n    event VersionAdded(bytes8 indexed version, address indexed code, address indexed oracle);\n    event VersionDeployed(bytes8 indexed version, address indexed code, address indexed oracle);\n\n    constructor (address owner1, address owner2, address owner3) FactoryStorage(owner1, owner2, owner3) {\n    }\n\n    function _createWallet(address _creator, address _target) private returns (address result) {\n        bytes memory\n        _code = hex\"60998061000d6000396000f30036601657341560145734602052336001602080a25b005b6000805260046000601c376302d05d3f6000511415604b5773dadadadadadadadadadadadadadadadadadadada602052602080f35b366000803760008036600073bebebebebebebebebebebebebebebebebebebebe5af415608f57341560855734602052600051336002602080a35b3d6000803e3d6000f35b3d6000803e3d6000fd\"; //log3-event-ids-address-funcid-opt (-2,-2) (min: 22440)\n        bytes20 creatorBytes = bytes20(_creator);\n        bytes20 targetBytes = bytes20(_target);\n        for (uint i = 0; i < 20; i++) {\n            _code[61 + i] = creatorBytes[i];\n            _code[101 + i] = targetBytes[i];\n        }\n        // solium-disable-next-line security/no-inline-assembly\n        assembly {\n            result := create(0, add(_code, 0x20), mload(_code))\n        }\n    }\n\n    function transferWalletOwnership(address _newOwner) external {\n        address _curOwner = IProxy(msg.sender).owner();\n        Wallet storage _sw = accounts_wallet[_curOwner];\n        require(msg.sender == _sw.addr, \"from: no wallet\");\n        require(_sw.owner == true, \"from: not wallet owner\");\n        Wallet storage _sw2 = accounts_wallet[_newOwner];\n        require(msg.sender == _sw2.addr, \"to: not same wallet as from\");\n        require(_sw2.owner == false, \"to: wallet owner\");\n        _sw2.owner = true;\n        _sw.owner = false;\n        _sw.addr = address(0);\n        IProxy(msg.sender).init(_newOwner, address(0));\n    }\n\n    function addWalletBackup(address _backup) external {\n        Wallet storage _sw = accounts_wallet[_backup];\n        require(_sw.addr == address(0), \"backup has no wallet\");\n        require(_sw.owner == false, \"backup is wallet owner\"); //\n        address _owner = IProxy(msg.sender).owner();\n        Wallet storage _sw_owner = accounts_wallet[_owner];\n        require(msg.sender == _sw_owner.addr, \"not wallet\");\n        require(_sw_owner.owner == true, \"no wallet owner\");\n        _sw.addr = msg.sender;\n    }\n\n    function removeWalletBackup(address _backup) external {\n        require(_backup != address(0), \"no backup\");\n        Wallet storage _sw = accounts_wallet[_backup];\n        require(_sw.addr == msg.sender, \"not wallet\");\n        require(_sw.owner == false, \"wallet backup not exist\");\n        _sw.addr = address(0);\n    }\n\n    function upgradeWallet(bytes8 _version) external {\n        address _code = versions_code[_version];\n        require(_code != address(0), \"no version code\");\n        address _owner = IProxy(msg.sender).owner();\n        Wallet storage _sw = accounts_wallet[_owner];\n        require(msg.sender == _sw.addr && _sw.owner == true, \"sender is not wallet owner\");\n        wallets_version[_sw.addr] = _version;\n        IProxy(msg.sender).init(_owner, _code);\n        IStorage(msg.sender).migrate();\n        emit WalletUpgraded(_sw.addr, _version);\n    }\n\n    function addVersion(address _target, address _oracle) multiSig2of3(0) public {\n        require(_target != address(0), \"no version\");\n        require(_oracle != address(0), \"no oracle version\");\n        require(IOracle(_oracle).initialized() != false, \"oracle not initialized\");\n        bytes8 _version = IStorage(_target).version();\n        require(IOracle(_oracle).version() == _version, 'version mistmatch');\n        address _code = versions_code[_version];\n        require(_code == address(0), \"version exists\");\n        require(versions_oracle[_version] == address(0), \"oracle exists\");\n        versions_code[_version] = _target;\n        versions_oracle[_version] = _oracle;\n        emit VersionAdded(_version, _code, _oracle);\n    }\n\n    function deployVersion(bytes8 _version) multiSig2of3(0) public {\n        address _code = versions_code[_version];\n        require(_code != address(0), \"version not exist\");\n        address _oracle = versions_oracle[_version];\n        require(_oracle != address(0), \"oracle not exist\");\n        production_version = _version;\n        production_version_code = _code;\n        production_version_oracle = _oracle;\n        emit VersionDeployed(_version, _code, _oracle);\n    }\n\n    function restoreWalletConfiguration() public {\n        Wallet storage _sw = accounts_wallet[msg.sender];\n        require(_sw.addr != address(0), \"no wallet\");\n        require(_sw.owner == true, \"not wallet owner\");\n        bytes8 _version = wallets_version[_sw.addr];\n        if (_version == LATEST) {\n            _version = production_version;\n        }\n        address _code = versions_code[_version];\n        require(_code != address(0), \"version not exist\");\n        IProxy(_sw.addr).init(msg.sender, _code);\n        emit WalletConfigurationRestored(_sw.addr, _version, msg.sender);\n    }\n\n    function restoreWalletOwnership() public {\n        Wallet storage _sw = accounts_wallet[msg.sender];\n        require(_sw.addr != address(0), \"no wallet\");\n        require(_sw.owner == true, \"not wallet owner\");\n\n        IProxy(_sw.addr).init(msg.sender, address(0));\n        emit WalletOwnershipRestored(_sw.addr, msg.sender);\n    }\n\n    function restoreWalletVersion() public {\n        Wallet storage _sw = accounts_wallet[msg.sender];\n        require(_sw.addr != address(0), \"no wallet\");\n        require(_sw.owner == true, \"not wallet owner\");\n\n        bytes8 _version = wallets_version[_sw.addr];\n        if (_version == LATEST) {\n            _version = production_version;\n        }\n        address _code = versions_code[_version];\n        require(_code != address(0), \"no version\");\n        IProxy(_sw.addr).init(address(0), _code);\n        emit WalletVersionRestored(_sw.addr, _version, msg.sender);\n    }\n\n    function getLatestVersion() public view returns (address) {\n        return production_version_code;\n    }\n\n    function getWallet(address _account) public view returns (address) {\n        return accounts_wallet[_account].addr;\n    }\n\n    function createWallet(bool _auto) public returns (address) {\n        require(address(swProxy) != address(0), \"no proxy\");\n        require(production_version_code != address(0), \"no prod version\"); //Must be here - ProxyLatest also needs it.\n        Wallet storage _sw = accounts_wallet[msg.sender];\n        if (_sw.addr == address(0)) {\n            _sw.addr = _createWallet(address(this), address(swProxy));\n            require(_sw.addr != address(0), \"wallet not created\");\n            _sw.owner = true;\n            if (_auto) {\n                require(address(swProxyLatest) != address(0), \"no auto version\");\n                require(versions_code[LATEST] == address(swProxyLatest), \"incorrect auto version\");\n                wallets_version[_sw.addr] = LATEST;\n                IProxy(_sw.addr).init(msg.sender, address(swProxyLatest));\n                IStorage(_sw.addr).migrate();\n                emit WalletCreated(_sw.addr, LATEST, msg.sender);\n            } else {\n                wallets_version[_sw.addr] = production_version;\n                IProxy(_sw.addr).init(msg.sender, production_version_code);\n                IStorage(_sw.addr).migrate();\n                emit WalletCreated(_sw.addr, production_version, msg.sender);\n            }\n\n        }\n        return _sw.addr;\n    }\n\n    function oracle() public view returns (address _oracle) {\n        bytes8 _version = wallets_version[msg.sender];\n        if (_version == LATEST) {\n            _version = production_version;\n        }\n        _oracle = versions_oracle[_version];\n    }\n\n    /*\n    receive () external payable {\n      if (msg.value > 0) {\n        emit GotEther(msg.sender, msg.value);\n      }\n    }\n    */\n\n    fallback () external {\n      /*\n        bytes8 _version = wallets_version[msg.sender];\n        if (_version == LATEST) {\n            _version = production_version;\n        }\n        address _oracle = versions_oracle[_version];\n       */\n        //require(_oracle != address(0), \"no oracle code\");\n        /*\n        // solium-disable-next-line security/no-inline-assembly\n        assembly {\n                calldatacopy(0x00, 0x00, calldatasize)\n                //let res := call(gas, sload(oracle_slot), callvalue, 0x00, calldatasize, 0, 0)\n                let res := staticcall(gas, sload(_oracle), 0x00, calldatasize, 0, 0)\n                returndatacopy(0x00, 0x00, returndatasize)\n                if res { return(0x00, returndatasize) }\n                revert(0x00, returndatasize)\n            }\n            */\n    }\n}\n\n",
  "sourcePath": "/opt/storage/data1/code/kirobo/ki-eth-contracts/contracts/Factory.sol",
  "compiler": {
    "name": "solc",
    "version": "0.8.2+commit.661d1103.Emscripten.clang"
  },
  "schemaVersion": "3.3.4",
  "updatedAt": "2021-03-21T20:16:32.866Z",
  "devdoc": {
    "kind": "dev",
    "methods": {},
    "version": 1
  },
  "userdoc": {
    "kind": "user",
    "methods": {},
    "version": 1
  }
}