{
  "contractName": "FactoryStorage",
  "abi": [
    {
      "inputs": [],
      "stateMutability": "nonpayable",
      "type": "constructor"
    },
    {
      "inputs": [],
      "name": "LATEST",
      "outputs": [
        {
          "internalType": "bytes8",
          "name": "",
          "type": "bytes8"
        }
      ],
      "stateMutability": "view",
      "type": "function"
    },
    {
      "inputs": [],
      "name": "owner",
      "outputs": [
        {
          "internalType": "address",
          "name": "",
          "type": "address"
        }
      ],
      "stateMutability": "view",
      "type": "function"
    },
    {
      "inputs": [],
      "name": "pendingOwner",
      "outputs": [
        {
          "internalType": "address",
          "name": "",
          "type": "address"
        }
      ],
      "stateMutability": "view",
      "type": "function"
    },
    {
      "inputs": [],
      "name": "proxy",
      "outputs": [
        {
          "internalType": "address",
          "name": "",
          "type": "address"
        }
      ],
      "stateMutability": "view",
      "type": "function"
    },
    {
      "inputs": [],
      "name": "swProxy",
      "outputs": [
        {
          "internalType": "contract Proxy",
          "name": "",
          "type": "address"
        }
      ],
      "stateMutability": "view",
      "type": "function"
    },
    {
      "inputs": [],
      "name": "swProxyLatest",
      "outputs": [
        {
          "internalType": "contract ProxyLatest",
          "name": "",
          "type": "address"
        }
      ],
      "stateMutability": "view",
      "type": "function"
    },
    {
      "inputs": [],
      "name": "target",
      "outputs": [
        {
          "internalType": "address",
          "name": "",
          "type": "address"
        }
      ],
      "stateMutability": "view",
      "type": "function"
    },
    {
      "inputs": [],
      "name": "migrate",
      "outputs": [],
      "stateMutability": "nonpayable",
      "type": "function"
    }
  ],
  "bytecode": "0x608060405234801561001057600080fd5b5060008054336001600160a01b03199182168117835560038054909216179055610c3090819061004090396000f3fe608060405234801561001057600080fd5b50600436106100885760003560e01c8063d4b839921161005b578063d4b83992146100f9578063e2adec9c14610101578063e30c397814610109578063ec5568891461011157610088565b80637721904c1461008d5780638c576fc3146100b15780638da5cb5b146100e75780638fd3ab80146100ef575b600080fd5b610095610119565b604080516001600160a01b039092168252519081900360200190f35b6100b9610128565b6040805177ffffffffffffffffffffffffffffffffffffffffffffffff199092168252519081900360200190f35b610095610135565b6100f7610144565b005b610095610283565b610095610292565b6100956102a1565b6100956102b0565b6004546001600160a01b031681565b651b185d195cdd60d21b81565b6000546001600160a01b031681565b6003546001600160a01b0316331461018f576040805162461bcd60e51b81526020600482015260096024820152686e6f742070726f787960b81b604482015290519081900360640190fd5b6004546001600160a01b03166101e9576040516101ab906102bf565b604051809103906000f0801580156101c7573d6000803e3d6000fd5b50600480546001600160a01b0319166001600160a01b03929092169190911790555b6005546001600160a01b031661028157604051610205906102cc565b604051809103906000f080158015610221573d6000803e3d6000fd5b50600580546001600160a01b03199081166001600160a01b039384161791829055651b185d195cdd60d21b60005260086020527f9f352c9233cee249fbc91fba5d1afd8f9fb06b88210f74d608d6f2a61123207480549290931691161790555b565b6002546001600160a01b031681565b6005546001600160a01b031681565b6001546001600160a01b031681565b6003546001600160a01b031681565b610426806102da83390190565b6104fb806107008339019056fe608060405234801561001057600080fd5b50600080546001600160a01b031916331790556103f4806100326000396000f3fe60806040526004361061004a5760003560e01c806302d05d3f146100705780638da5cb5b146100a1578063d4b83992146100b6578063f09a4016146100cb578063fec5a18d14610108575b36600080376000803660006001545af43d6000803e801561006a573d6000f35b503d6000fd5b34801561007c57600080fd5b5061008561013c565b604080516001600160a01b039092168252519081900360200190f35b3480156100ad57600080fd5b50610085610141565b3480156100c257600080fd5b50610085610150565b3480156100d757600080fd5b50610106600480360360408110156100ee57600080fd5b506001600160a01b038135811691602001351661015f565b005b34801561011457600080fd5b506101066004803603602081101561012b57600080fd5b50356001600160c01b0319166102a0565b600090565b6000546001600160a01b031690565b6001546001600160a01b031690565b306001600160a01b03166302d05d3f6040518163ffffffff1660e01b815260040160206040518083038186803b15801561019857600080fd5b505afa1580156101ac573d6000803e3d6000fd5b505050506040513d60208110156101c257600080fd5b50516001600160a01b0316331461020e576040805162461bcd60e51b815260206004820152600b60248201526a3737ba1031b932b0ba37b960a91b604482015290519081900360640190fd5b6000546001600160a01b0383811691161480159061023457506001600160a01b03821615155b1561025557600080546001600160a01b0319166001600160a01b0384161790555b6001546001600160a01b0382811691161480159061027b57506001600160a01b03811615155b1561029c57600180546001600160a01b0319166001600160a01b0383161790555b5050565b6000546001600160a01b031633146102eb576040805162461bcd60e51b81526020600482015260096024820152683737ba1037bbb732b960b91b604482015290519081900360640190fd5b306001600160a01b03166302d05d3f6040518163ffffffff1660e01b815260040160206040518083038186803b15801561032457600080fd5b505afa158015610338573d6000803e3d6000fd5b505050506040513d602081101561034e57600080fd5b5051604080516318beb60960e31b81526001600160c01b03198416600482015290516001600160a01b039092169163c5f5b0489160248082019260009290919082900301818387803b1580156103a357600080fd5b505af11580156103b7573d6000803e3d6000fd5b505050505056fea2646970667358221220afdb2eff051ddf50ec00b1bddd91245c071f2e520e60979f223f0b66a759725d64736f6c634300060b0033608060405234801561001057600080fd5b50600080546001600160a01b031916331790556104c9806100326000396000f3fe60806040526004361061004a5760003560e01c806302d05d3f146101455780638da5cb5b14610176578063d4b839921461018b578063f09a4016146101a0578063fec5a18d146101dd575b6000306001600160a01b03166302d05d3f6040518163ffffffff1660e01b815260040160206040518083038186803b15801561008557600080fd5b505afa158015610099573d6000803e3d6000fd5b505050506040513d60208110156100af57600080fd5b505160408051630e6d1de960e01b815290516001600160a01b0390921691630e6d1de991600480820192602092909190829003018186803b1580156100f357600080fd5b505afa158015610107573d6000803e3d6000fd5b505050506040513d602081101561011d57600080fd5b505190503660008037600080366000845af43d6000803e801561013f573d6000f35b503d6000fd5b34801561015157600080fd5b5061015a610211565b604080516001600160a01b039092168252519081900360200190f35b34801561018257600080fd5b5061015a610216565b34801561019757600080fd5b5061015a610225565b3480156101ac57600080fd5b506101db600480360360408110156101c357600080fd5b506001600160a01b0381358116916020013516610234565b005b3480156101e957600080fd5b506101db6004803603602081101561020057600080fd5b50356001600160c01b031916610375565b600090565b6000546001600160a01b031690565b6001546001600160a01b031690565b306001600160a01b03166302d05d3f6040518163ffffffff1660e01b815260040160206040518083038186803b15801561026d57600080fd5b505afa158015610281573d6000803e3d6000fd5b505050506040513d602081101561029757600080fd5b50516001600160a01b031633146102e3576040805162461bcd60e51b815260206004820152600b60248201526a3737ba1031b932b0ba37b960a91b604482015290519081900360640190fd5b6000546001600160a01b0383811691161480159061030957506001600160a01b03821615155b1561032a57600080546001600160a01b0319166001600160a01b0384161790555b6001546001600160a01b0382811691161480159061035057506001600160a01b03811615155b1561037157600180546001600160a01b0319166001600160a01b0383161790555b5050565b6000546001600160a01b031633146103c0576040805162461bcd60e51b81526020600482015260096024820152683737ba1037bbb732b960b91b604482015290519081900360640190fd5b306001600160a01b03166302d05d3f6040518163ffffffff1660e01b815260040160206040518083038186803b1580156103f957600080fd5b505afa15801561040d573d6000803e3d6000fd5b505050506040513d602081101561042357600080fd5b5051604080516318beb60960e31b81526001600160c01b03198416600482015290516001600160a01b039092169163c5f5b0489160248082019260009290919082900301818387803b15801561047857600080fd5b505af115801561048c573d6000803e3d6000fd5b505050505056fea26469706673582212209a5deacbb86f8522960efe9844a60fccda87d490a8939ee64d016cf53477104c64736f6c634300060b0033a26469706673582212205adbf17e20562780668ae507680479a61093bf9fd3927b0768a58f9f581ff4e364736f6c634300060b0033",
  "source": "// SPDX-License-Identifier: UNLICENSED\n\npragma solidity 0.6.11;\n\nimport \"./lib/Proxy.sol\";\nimport \"./lib/ProxyLatest.sol\";\n\ncontract FactoryStorage {\n    address public owner;\n    address public pendingOwner;\n    address public target;\n    address public proxy;\n\n    Proxy public swProxy;\n    ProxyLatest public swProxyLatest;\n\n    bytes8 public constant LATEST = bytes8(\"latest\");\n\n    struct Wallet {\n        address addr;\n        bool owner;\n    }\n\n    mapping(address => Wallet) internal accounts_wallet;\n    mapping(address => bytes8) internal wallets_version;\n    mapping(bytes8 => address) internal versions_code;\n\n    bytes8 internal production_version;\n    address internal production_version_code;\n\n    address internal production_version_oracle;\n    mapping(bytes8 => address) internal versions_oracle;\n\n    // storage end\n\n    modifier onlyProxy () {\n        require (msg.sender == proxy, \"not proxy\");\n        _;\n    }\n\n    modifier onlyOwner () {\n        require (msg.sender == owner, \"not owner\");\n        _;\n    }\n\n    constructor() public {\n        owner = msg.sender;\n        proxy = msg.sender; //in case we are using Factory directly\n    }\n\n    function migrate() public onlyProxy() {\n        if (address(swProxy) == address(0x00)){\n            swProxy = new Proxy();\n        }\n\n        if (address(swProxyLatest) == address(0x00)){\n            swProxyLatest = new ProxyLatest();\n            versions_code[LATEST] = address(swProxyLatest);\n        }\n    }\n\n}\n",
  "sourcePath": "/home/tal/code/kirobo/ki-eth-contracts/contracts/FactoryStorage.sol",
  "compiler": {
    "name": "solc",
    "version": "0.6.11+commit.5ef660b1.Emscripten.clang"
  },
  "schemaVersion": "3.0.23",
  "updatedAt": "2020-07-23T16:37:15.213Z",
  "devdoc": {
    "kind": "dev",
    "methods": {},
    "version": 1
  },
  "userdoc": {
    "kind": "user",
    "methods": {},
    "version": 1
  }
}