{
  "contractName": "FactoryProxy",
  "abi": [
    {
      "inputs": [
        {
          "internalType": "address",
          "name": "owner1",
          "type": "address"
        },
        {
          "internalType": "address",
          "name": "owner2",
          "type": "address"
        },
        {
          "internalType": "address",
          "name": "owner3",
          "type": "address"
        }
      ],
      "stateMutability": "nonpayable",
      "type": "constructor"
    },
    {
      "stateMutability": "nonpayable",
      "type": "fallback"
    },
    {
      "inputs": [],
      "name": "LATEST",
      "outputs": [
        {
          "internalType": "bytes8",
          "name": "",
          "type": "bytes8"
        }
      ],
      "stateMutability": "view",
      "type": "function"
    },
    {
      "inputs": [],
      "name": "cancel",
      "outputs": [],
      "stateMutability": "nonpayable",
      "type": "function"
    },
    {
      "inputs": [],
      "name": "frozen",
      "outputs": [
        {
          "internalType": "bool",
          "name": "",
          "type": "bool"
        }
      ],
      "stateMutability": "view",
      "type": "function"
    },
    {
      "inputs": [],
      "name": "isOwner",
      "outputs": [
        {
          "internalType": "bool",
          "name": "",
          "type": "bool"
        }
      ],
      "stateMutability": "view",
      "type": "function"
    },
    {
      "inputs": [
        {
          "internalType": "address",
          "name": "_owner",
          "type": "address"
        },
        {
          "internalType": "address",
          "name": "_newOwner",
          "type": "address"
        }
      ],
      "name": "replaceOwner",
      "outputs": [],
      "stateMutability": "nonpayable",
      "type": "function"
    },
    {
      "inputs": [],
      "name": "swProxy",
      "outputs": [
        {
          "internalType": "contract Proxy",
          "name": "",
          "type": "address"
        }
      ],
      "stateMutability": "view",
      "type": "function"
    },
    {
      "inputs": [],
      "name": "swProxyLatest",
      "outputs": [
        {
          "internalType": "contract ProxyLatest",
          "name": "",
          "type": "address"
        }
      ],
      "stateMutability": "view",
      "type": "function"
    },
    {
      "inputs": [],
      "name": "target",
      "outputs": [
        {
          "internalType": "address",
          "name": "",
          "type": "address"
        }
      ],
      "stateMutability": "view",
      "type": "function"
    },
    {
      "inputs": [
        {
          "internalType": "address",
          "name": "_target",
          "type": "address"
        }
      ],
      "name": "setTarget",
      "outputs": [],
      "stateMutability": "nonpayable",
      "type": "function"
    },
    {
      "inputs": [],
      "name": "freezeTarget",
      "outputs": [],
      "stateMutability": "nonpayable",
      "type": "function"
    }
  ],
  "bytecode": "0x60806040523480156200001157600080fd5b5060405162001889380380620018898339810160408190526200003491620003b5565b8282828282826001600160a01b0383166200008b5760405162461bcd60e51b815260206004820152601260248201527106f776e6572312063616e6e6f7420626520360741b60448201526064015b60405180910390fd5b6001600160a01b038216620000d85760405162461bcd60e51b815260206004820152601260248201527106f776e6572322063616e6e6f7420626520360741b604482015260640162000082565b6001600160a01b038116620001255760405162461bcd60e51b815260206004820152601260248201527106f776e6572332063616e6e6f7420626520360741b604482015260640162000082565b816001600160a01b0316836001600160a01b03161415620001895760405162461bcd60e51b815260206004820152601760248201527f6f776e6572312063616e6e6f74206265206f776e657232000000000000000000604482015260640162000082565b806001600160a01b0316826001600160a01b03161415620001ed5760405162461bcd60e51b815260206004820152601760248201527f6f776e6572322063616e6e6f74206265206f776e657233000000000000000000604482015260640162000082565b806001600160a01b0316836001600160a01b03161415620002515760405162461bcd60e51b815260206004820152601760248201527f6f776e6572312063616e6e6f74206265206f776e657233000000000000000000604482015260640162000082565b6001600160a01b039283166000908152602081905260408082208054600160ff19918216811790925594861683528183208054861682179055929094168152839020805490921617905551620002a7906200037c565b604051809103906000f080158015620002c4573d6000803e3d6000fd5b50600580546001600160a01b0319166001600160a01b0392909216919091179055604051620002f3906200038a565b604051809103906000f08015801562000310573d6000803e3d6000fd5b50600680546001600160a01b03199081166001600160a01b039384161791829055651b185d195cdd60d21b60005260096020527ff5c2ff9c62f1500bae0349717898df1f5d951101798678757bac40a4d7a86c27805492909316911617905550620003fe945050505050565b6104e38062000de083390190565b6105c680620012c383390190565b80516001600160a01b0381168114620003b057600080fd5b919050565b600080600060608486031215620003ca578283fd5b620003d58462000398565b9250620003e56020850162000398565b9150620003f56040850162000398565b90509250925092565b6109d2806200040e6000396000f3fe608060405234801561001057600080fd5b506004361061009e5760003560e01c8063ce04dafb11610066578063ce04dafb14610167578063d4b839921461016f578063e20056e614610182578063e2adec9c14610195578063ea8a1af0146101a85761009e565b8063054f7d9c146100c45780637721904c146100e6578063776d1a01146101115780638c576fc3146101265780638f32d59b1461014f575b36600080376000803660006004545af43d6000803e80156100be573d6000f35b503d6000fd5b600d546100d19060ff1681565b60405190151581526020015b60405180910390f35b6005546100f9906001600160a01b031681565b6040516001600160a01b0390911681526020016100dd565b61012461011f366004610799565b6101b0565b005b610136651b185d195cdd60d21b81565b6040516001600160c01b031990911681526020016100dd565b3360009081526020819052604090205460ff166100d1565b61012461036b565b6004546100f9906001600160a01b031681565b6101246101903660046107ba565b61048d565b6006546100f9906001600160a01b031681565b6101246106a3565b3360009081526020819052604081205460ff166101e85760405162461bcd60e51b81526004016101df9061093c565b60405180910390fd5b6001546001600160a01b031661022257600180546001600160a01b0319163317905561021760036000366106e4565b506002819055610367565b6001546001600160a01b031633141561024d5760405162461bcd60e51b81526004016101df906108ce565b600254811461026e5760405162461bcd60e51b81526004016101df90610897565b60003660405161027f9291906107ec565b60405190819003812090610295906003906107fc565b6040518091039020146102ba5760405162461bcd60e51b81526004016101df90610905565b600180546001600160a01b0319168155600d5460ff16151514156103095760405162461bcd60e51b8152602060048201526006602482015265333937bd32b760d11b60448201526064016101df565b6001600160a01b03821661034b5760405162461bcd60e51b81526020600482015260096024820152681b9bc81d185c99d95d60ba1b60448201526064016101df565b600480546001600160a01b0319166001600160a01b0384161790555b5050565b3360009081526020819052604081205460ff1661039a5760405162461bcd60e51b81526004016101df9061093c565b6001546001600160a01b03166103d457600180546001600160a01b031916331790556103c960036000366106e4565b50600281905561048a565b6001546001600160a01b03163314156103ff5760405162461bcd60e51b81526004016101df906108ce565b60025481146104205760405162461bcd60e51b81526004016101df90610897565b6000366040516104319291906107ec565b60405190819003812090610447906003906107fc565b60405180910390201461046c5760405162461bcd60e51b81526004016101df90610905565b600180546001600160a01b0319168155600d805460ff191690911790555b50565b3360009081526020819052604081205460ff166104bc5760405162461bcd60e51b81526004016101df9061093c565b6001546001600160a01b03166104f657600180546001600160a01b031916331790556104eb60036000366106e4565b50600281905561069e565b6001546001600160a01b03163314156105215760405162461bcd60e51b81526004016101df906108ce565b60025481146105425760405162461bcd60e51b81526004016101df90610897565b6000366040516105539291906107ec565b60405190819003812090610569906003906107fc565b60405180910390201461058e5760405162461bcd60e51b81526004016101df90610905565b600180546001600160a01b03191681556001600160a01b03841660009081526020819052604090205460ff161515146105fe5760405162461bcd60e51b81526020600482015260126024820152711bdddb995c881cda1bdd5b1908195e1a5cdd60721b60448201526064016101df565b6001600160a01b03821660009081526020819052604090205460ff16156106675760405162461bcd60e51b815260206004820152601a60248201527f6e6577206f776e65722073686f756c64206e6f7420657869737400000000000060448201526064016101df565b6001600160a01b03808416600090815260208190526040808220805460ff1990811690915592851682529020805490911660011790555b505050565b3360009081526020819052604090205460ff166106d25760405162461bcd60e51b81526004016101df9061093c565b600180546001600160a01b0319169055565b8280546106f090610961565b90600052602060002090601f0160209004810192826107125760008555610758565b82601f1061072b5782800160ff19823516178555610758565b82800160010185558215610758579182015b8281111561075857823582559160200191906001019061073d565b50610764929150610768565b5090565b5b808211156107645760008155600101610769565b80356001600160a01b038116811461079457600080fd5b919050565b6000602082840312156107aa578081fd5b6107b38261077d565b9392505050565b600080604083850312156107cc578081fd5b6107d58361077d565b91506107e36020840161077d565b90509250929050565b6000828483379101908152919050565b815460009081906002810460018083168061081857607f831692505b602080841082141561083857634e487b7160e01b87526022600452602487fd5b81801561084c576001811461085d57610889565b60ff19861689528489019650610889565b60008a815260209020885b868110156108815781548b820152908501908301610868565b505084890196505b509498975050505050505050565b60208082526018908201527f6d757374207369676e207468652073616d652076616c75650000000000000000604082015260600190565b6020808252601c908201527f73616d65206f776e65722063616e6e6f74207369676e20747769636500000000604082015260600190565b60208082526017908201527f6d757374207369676e207468652073616d652064617461000000000000000000604082015260600190565b6020808252600b908201526a6f6e6c79206f776e65727360a81b604082015260600190565b60028104600182168061097557607f821691505b6020821081141561099657634e487b7160e01b600052602260045260246000fd5b5091905056fea2646970667358221220403dd17cbc349f90c3602fe2e7aab7af7868c2ad065cd7bb3d8c9365ea99c84964736f6c63430008020033608060405234801561001057600080fd5b50600080546001600160a01b031916331790556104b1806100326000396000f3fe60806040526004361061004e5760003560e01c806302d05d3f146100c65780638da5cb5b146100f2578063d4b8399214610110578063f09a40161461012e578063fec5a18d14610150576100a0565b366100a05760405162461bcd60e51b815260206004820181905260248201527f73686f756c64206e6f7420616363657074206574686572206469726563746c7960448201526064015b60405180910390fd5b36600080376000803660006001545af43d6000803e80156100c0573d6000f35b503d6000fd5b3480156100d257600080fd5b5060005b6040516001600160a01b03909116815260200160405180910390f35b3480156100fe57600080fd5b506000546001600160a01b03166100d6565b34801561011c57600080fd5b506001546001600160a01b03166100d6565b34801561013a57600080fd5b5061014e610149366004610403565b610170565b005b34801561015c57600080fd5b5061014e61016b36600461043b565b6102c1565b306001600160a01b03166302d05d3f6040518163ffffffff1660e01b815260040160206040518083038186803b1580156101a957600080fd5b505afa1580156101bd573d6000803e3d6000fd5b505050506040513d601f19601f820116820180604052508101906101e191906103e0565b6001600160a01b0316336001600160a01b03161461022f5760405162461bcd60e51b815260206004820152600b60248201526a3737ba1031b932b0ba37b960a91b6044820152606401610097565b6000546001600160a01b0383811691161480159061025557506001600160a01b03821615155b1561027657600080546001600160a01b0319166001600160a01b0384161790555b6001546001600160a01b0382811691161480159061029c57506001600160a01b03811615155b156102bd57600180546001600160a01b0319166001600160a01b0383161790555b5050565b6000546001600160a01b031633146103075760405162461bcd60e51b81526020600482015260096024820152683737ba1037bbb732b960b91b6044820152606401610097565b306001600160a01b03166302d05d3f6040518163ffffffff1660e01b815260040160206040518083038186803b15801561034057600080fd5b505afa158015610354573d6000803e3d6000fd5b505050506040513d601f19601f8201168201806040525081019061037891906103e0565b6040516318beb60960e31b81526001600160c01b0319831660048201526001600160a01b03919091169063c5f5b04890602401600060405180830381600087803b1580156103c557600080fd5b505af11580156103d9573d6000803e3d6000fd5b5050505050565b6000602082840312156103f1578081fd5b81516103fc81610463565b9392505050565b60008060408385031215610415578081fd5b823561042081610463565b9150602083013561043081610463565b809150509250929050565b60006020828403121561044c578081fd5b81356001600160c01b0319811681146103fc578182fd5b6001600160a01b038116811461047857600080fd5b5056fea2646970667358221220c4f2469a6745377dfc4e20804ac5e31ee700d8006fa45986e2837db2354b71cc64736f6c63430008020033608060405234801561001057600080fd5b50600080546001600160a01b03191633179055610594806100326000396000f3fe60806040526004361061004e5760003560e01c806302d05d3f146101a95780638da5cb5b146101d5578063d4b83992146101f3578063f09a401614610211578063fec5a18d14610233576100a0565b366100a05760405162461bcd60e51b815260206004820181905260248201527f73686f756c64206e6f7420616363657074206574686572206469726563746c7960448201526064015b60405180910390fd5b6000306001600160a01b03166302d05d3f6040518163ffffffff1660e01b815260040160206040518083038186803b1580156100db57600080fd5b505afa1580156100ef573d6000803e3d6000fd5b505050506040513d601f19601f8201168201806040525081019061011391906104c3565b6001600160a01b0316630e6d1de96040518163ffffffff1660e01b815260040160206040518083038186803b15801561014b57600080fd5b505afa15801561015f573d6000803e3d6000fd5b505050506040513d601f19601f8201168201806040525081019061018391906104c3565b90503660008037600080366000845af43d6000803e80156101a3573d6000f35b503d6000fd5b3480156101b557600080fd5b5060005b6040516001600160a01b03909116815260200160405180910390f35b3480156101e157600080fd5b506000546001600160a01b03166101b9565b3480156101ff57600080fd5b506001546001600160a01b03166101b9565b34801561021d57600080fd5b5061023161022c3660046104e6565b610253565b005b34801561023f57600080fd5b5061023161024e36600461051e565b6103a4565b306001600160a01b03166302d05d3f6040518163ffffffff1660e01b815260040160206040518083038186803b15801561028c57600080fd5b505afa1580156102a0573d6000803e3d6000fd5b505050506040513d601f19601f820116820180604052508101906102c491906104c3565b6001600160a01b0316336001600160a01b0316146103125760405162461bcd60e51b815260206004820152600b60248201526a3737ba1031b932b0ba37b960a91b6044820152606401610097565b6000546001600160a01b0383811691161480159061033857506001600160a01b03821615155b1561035957600080546001600160a01b0319166001600160a01b0384161790555b6001546001600160a01b0382811691161480159061037f57506001600160a01b03811615155b156103a057600180546001600160a01b0319166001600160a01b0383161790555b5050565b6000546001600160a01b031633146103ea5760405162461bcd60e51b81526020600482015260096024820152683737ba1037bbb732b960b91b6044820152606401610097565b306001600160a01b03166302d05d3f6040518163ffffffff1660e01b815260040160206040518083038186803b15801561042357600080fd5b505afa158015610437573d6000803e3d6000fd5b505050506040513d601f19601f8201168201806040525081019061045b91906104c3565b6040516318beb60960e31b81526001600160c01b0319831660048201526001600160a01b03919091169063c5f5b04890602401600060405180830381600087803b1580156104a857600080fd5b505af11580156104bc573d6000803e3d6000fd5b5050505050565b6000602082840312156104d4578081fd5b81516104df81610546565b9392505050565b600080604083850312156104f8578081fd5b823561050381610546565b9150602083013561051381610546565b809150509250929050565b60006020828403121561052f578081fd5b81356001600160c01b0319811681146104df578182fd5b6001600160a01b038116811461055b57600080fd5b5056fea2646970667358221220f96bc7ce8678e406935e694208418c39274586cd0b965a1e78bffc4ecbe502ce64736f6c63430008020033",
  "immutableReferences": {},
  "source": "// SPDX-License-Identifier: UNLICENSED\n\npragma solidity ^0.8.0;\n\nimport \"./FactoryStorage.sol\";\nimport \"./Factory.sol\";\n\ncontract FactoryProxy is FactoryStorage {\n\n    bool public frozen;\n    \n    constructor(address owner1, address owner2, address owner3) FactoryStorage(owner1, owner2, owner3) {\n        // proxy = address(this);\n    }\n\n    function setTarget(address _target) public multiSig2of3(0) {\n        require(frozen != true, \"frozen\");\n        require(_target != address(0), \"no target\");\n        target = _target;\n    }\n\n    function freezeTarget() public multiSig2of3(0) {\n        frozen = true;\n    }\n\n    fallback () external {\n        // solium-disable-next-line security/no-inline-assembly\n        assembly {\n                calldatacopy(0x00, 0x00, calldatasize())\n                let res := delegatecall(gas(), sload(target.slot), 0x00, calldatasize(), 0, 0)\n                returndatacopy(0x00, 0x00, returndatasize())\n                if res { return(0x00, returndatasize()) }\n                revert(0x00, returndatasize())\n            }\n    }\n}\n",
  "sourcePath": "/opt/storage/data1/code/kirobo/ki-eth-contracts/contracts/FactoryProxy.sol",
  "compiler": {
    "name": "solc",
    "version": "0.8.2+commit.661d1103.Emscripten.clang"
  },
  "schemaVersion": "3.3.4",
  "updatedAt": "2021-03-21T20:16:32.883Z",
  "devdoc": {
    "kind": "dev",
    "methods": {},
    "version": 1
  },
  "userdoc": {
    "kind": "user",
    "methods": {},
    "version": 1
  }
}