{
  "contractName": "FactoryProxy",
  "abi": [
    {
      "inputs": [],
      "stateMutability": "nonpayable",
      "type": "constructor"
    },
    {
      "anonymous": false,
      "inputs": [
        {
          "indexed": true,
          "internalType": "address",
          "name": "previousOwner",
          "type": "address"
        }
      ],
      "name": "OwnershipRenounced",
      "type": "event"
    },
    {
      "anonymous": false,
      "inputs": [
        {
          "indexed": true,
          "internalType": "address",
          "name": "previousOwner",
          "type": "address"
        },
        {
          "indexed": true,
          "internalType": "address",
          "name": "newOwner",
          "type": "address"
        }
      ],
      "name": "OwnershipTransferred",
      "type": "event"
    },
    {
      "stateMutability": "payable",
      "type": "fallback",
      "payable": true
    },
    {
      "inputs": [],
      "name": "LATEST",
      "outputs": [
        {
          "internalType": "bytes8",
          "name": "",
          "type": "bytes8"
        }
      ],
      "stateMutability": "view",
      "type": "function",
      "constant": true
    },
    {
      "inputs": [],
      "name": "claimOwnership",
      "outputs": [],
      "stateMutability": "nonpayable",
      "type": "function"
    },
    {
      "inputs": [],
      "name": "migrate",
      "outputs": [],
      "stateMutability": "nonpayable",
      "type": "function"
    },
    {
      "inputs": [],
      "name": "owner",
      "outputs": [
        {
          "internalType": "address",
          "name": "",
          "type": "address"
        }
      ],
      "stateMutability": "view",
      "type": "function",
      "constant": true
    },
    {
      "inputs": [],
      "name": "pendingOwner",
      "outputs": [
        {
          "internalType": "address",
          "name": "",
          "type": "address"
        }
      ],
      "stateMutability": "view",
      "type": "function",
      "constant": true
    },
    {
      "inputs": [],
      "name": "proxy",
      "outputs": [
        {
          "internalType": "address",
          "name": "",
          "type": "address"
        }
      ],
      "stateMutability": "view",
      "type": "function",
      "constant": true
    },
    {
      "inputs": [],
      "name": "renounceOwnership",
      "outputs": [],
      "stateMutability": "nonpayable",
      "type": "function"
    },
    {
      "inputs": [],
      "name": "swProxy",
      "outputs": [
        {
          "internalType": "contract Proxy",
          "name": "",
          "type": "address"
        }
      ],
      "stateMutability": "view",
      "type": "function",
      "constant": true
    },
    {
      "inputs": [],
      "name": "swProxyLatest",
      "outputs": [
        {
          "internalType": "contract ProxyLatest",
          "name": "",
          "type": "address"
        }
      ],
      "stateMutability": "view",
      "type": "function",
      "constant": true
    },
    {
      "inputs": [],
      "name": "target",
      "outputs": [
        {
          "internalType": "address",
          "name": "",
          "type": "address"
        }
      ],
      "stateMutability": "view",
      "type": "function",
      "constant": true
    },
    {
      "inputs": [
        {
          "internalType": "address",
          "name": "newOwner",
          "type": "address"
        }
      ],
      "name": "transferOwnership",
      "outputs": [],
      "stateMutability": "nonpayable",
      "type": "function"
    },
    {
      "inputs": [
        {
          "internalType": "address",
          "name": "_target",
          "type": "address"
        }
      ],
      "name": "setTarget",
      "outputs": [],
      "stateMutability": "nonpayable",
      "type": "function"
    }
  ],
  "bytecode": "0x608060405234801561001057600080fd5b50600080546001600160a01b031990811633908117909255600380548216909217163017905561104b806100456000396000f3fe6080604052600436106100c75760003560e01c80638fd3ab8011610074578063e30c39781161004e578063e30c397814610214578063ec55688914610229578063f2fde38b1461023e576100c7565b80638fd3ab80146101d5578063d4b83992146101ea578063e2adec9c146101ff576100c7565b8063776d1a01116100a5578063776d1a011461014a5780638c576fc31461017d5780638da5cb5b146101c0576100c7565b80634e71e0c8146100ed578063715018a6146101045780637721904c14610119575b36600080376000803660006002545af43d6000803e80156100e7573d6000f35b503d6000fd5b3480156100f957600080fd5b50610102610271565b005b34801561011057600080fd5b50610102610334565b34801561012557600080fd5b5061012e6103c7565b604080516001600160a01b039092168252519081900360200190f35b34801561015657600080fd5b506101026004803603602081101561016d57600080fd5b50356001600160a01b03166103d6565b34801561018957600080fd5b506101926104d6565b6040805177ffffffffffffffffffffffffffffffffffffffffffffffff199092168252519081900360200190f35b3480156101cc57600080fd5b5061012e6104e3565b3480156101e157600080fd5b506101026104f2565b3480156101f657600080fd5b5061012e610631565b34801561020b57600080fd5b5061012e610640565b34801561022057600080fd5b5061012e61064f565b34801561023557600080fd5b5061012e61065e565b34801561024a57600080fd5b506101026004803603602081101561026157600080fd5b50356001600160a01b031661066d565b6001546001600160a01b031633146102d0576040805162461bcd60e51b815260206004820152601160248201527f6e6f742070656e64696e67206f776e6572000000000000000000000000000000604482015290519081900360640190fd5b600154600080546040516001600160a01b0393841693909116917f8be0079c531659141344cd1fd0a4f28419497f9722a3daafe3b4186f6b6457e091a360018054600080546001600160a01b03199081166001600160a01b03841617909155169055565b6000546001600160a01b0316331461037f576040805162461bcd60e51b81526020600482015260096024820152683737ba1037bbb732b960b91b604482015290519081900360640190fd5b600080546040516001600160a01b03909116917ff8df31144d9c2f0f6b59d69b8b98abd5459d07f2742c4df920b25aae33c6482091a2600080546001600160a01b0319169055565b6004546001600160a01b031681565b6000546001600160a01b03163314610421576040805162461bcd60e51b81526020600482015260096024820152683737ba1037bbb732b960b91b604482015290519081900360640190fd5b6001600160a01b038116610468576040805162461bcd60e51b81526020600482015260096024820152681b9bc81d185c99d95d60ba1b604482015290519081900360640190fd5b600280546001600160a01b0319166001600160a01b0383161790556040805163011fa75760e71b815290513091638fd3ab8091600480830192600092919082900301818387803b1580156104bb57600080fd5b505af11580156104cf573d6000803e3d6000fd5b5050505050565b651b185d195cdd60d21b81565b6000546001600160a01b031681565b6003546001600160a01b0316331461053d576040805162461bcd60e51b81526020600482015260096024820152686e6f742070726f787960b81b604482015290519081900360640190fd5b6004546001600160a01b031661059757604051610559906106da565b604051809103906000f080158015610575573d6000803e3d6000fd5b50600480546001600160a01b0319166001600160a01b03929092169190911790555b6005546001600160a01b031661062f576040516105b3906106e7565b604051809103906000f0801580156105cf573d6000803e3d6000fd5b50600580546001600160a01b03199081166001600160a01b039384161791829055651b185d195cdd60d21b60005260086020527f9f352c9233cee249fbc91fba5d1afd8f9fb06b88210f74d608d6f2a61123207480549290931691161790555b565b6002546001600160a01b031681565b6005546001600160a01b031681565b6001546001600160a01b031681565b6003546001600160a01b031681565b6000546001600160a01b031633146106b8576040805162461bcd60e51b81526020600482015260096024820152683737ba1037bbb732b960b91b604482015290519081900360640190fd5b600180546001600160a01b0319166001600160a01b0392909216919091179055565b610426806106f583390190565b6104fb80610b1b8339019056fe608060405234801561001057600080fd5b50600080546001600160a01b031916331790556103f4806100326000396000f3fe60806040526004361061004a5760003560e01c806302d05d3f146100705780638da5cb5b146100a1578063d4b83992146100b6578063f09a4016146100cb578063fec5a18d14610108575b36600080376000803660006001545af43d6000803e801561006a573d6000f35b503d6000fd5b34801561007c57600080fd5b5061008561013c565b604080516001600160a01b039092168252519081900360200190f35b3480156100ad57600080fd5b50610085610141565b3480156100c257600080fd5b50610085610150565b3480156100d757600080fd5b50610106600480360360408110156100ee57600080fd5b506001600160a01b038135811691602001351661015f565b005b34801561011457600080fd5b506101066004803603602081101561012b57600080fd5b50356001600160c01b0319166102a0565b600090565b6000546001600160a01b031690565b6001546001600160a01b031690565b306001600160a01b03166302d05d3f6040518163ffffffff1660e01b815260040160206040518083038186803b15801561019857600080fd5b505afa1580156101ac573d6000803e3d6000fd5b505050506040513d60208110156101c257600080fd5b50516001600160a01b0316331461020e576040805162461bcd60e51b815260206004820152600b60248201526a3737ba1031b932b0ba37b960a91b604482015290519081900360640190fd5b6000546001600160a01b0383811691161480159061023457506001600160a01b03821615155b1561025557600080546001600160a01b0319166001600160a01b0384161790555b6001546001600160a01b0382811691161480159061027b57506001600160a01b03811615155b1561029c57600180546001600160a01b0319166001600160a01b0383161790555b5050565b6000546001600160a01b031633146102eb576040805162461bcd60e51b81526020600482015260096024820152683737ba1037bbb732b960b91b604482015290519081900360640190fd5b306001600160a01b03166302d05d3f6040518163ffffffff1660e01b815260040160206040518083038186803b15801561032457600080fd5b505afa158015610338573d6000803e3d6000fd5b505050506040513d602081101561034e57600080fd5b5051604080516318beb60960e31b81526001600160c01b03198416600482015290516001600160a01b039092169163c5f5b0489160248082019260009290919082900301818387803b1580156103a357600080fd5b505af11580156103b7573d6000803e3d6000fd5b505050505056fea2646970667358221220fbcc24136dcbcc6a7b9355e1bfd4de39877c608ca7dfc68ade4fed28ec2a33aa64736f6c634300060b0033608060405234801561001057600080fd5b50600080546001600160a01b031916331790556104c9806100326000396000f3fe60806040526004361061004a5760003560e01c806302d05d3f146101455780638da5cb5b14610176578063d4b839921461018b578063f09a4016146101a0578063fec5a18d146101dd575b6000306001600160a01b03166302d05d3f6040518163ffffffff1660e01b815260040160206040518083038186803b15801561008557600080fd5b505afa158015610099573d6000803e3d6000fd5b505050506040513d60208110156100af57600080fd5b505160408051630e6d1de960e01b815290516001600160a01b0390921691630e6d1de991600480820192602092909190829003018186803b1580156100f357600080fd5b505afa158015610107573d6000803e3d6000fd5b505050506040513d602081101561011d57600080fd5b505190503660008037600080366000845af43d6000803e801561013f573d6000f35b503d6000fd5b34801561015157600080fd5b5061015a610211565b604080516001600160a01b039092168252519081900360200190f35b34801561018257600080fd5b5061015a610216565b34801561019757600080fd5b5061015a610225565b3480156101ac57600080fd5b506101db600480360360408110156101c357600080fd5b506001600160a01b0381358116916020013516610234565b005b3480156101e957600080fd5b506101db6004803603602081101561020057600080fd5b50356001600160c01b031916610375565b600090565b6000546001600160a01b031690565b6001546001600160a01b031690565b306001600160a01b03166302d05d3f6040518163ffffffff1660e01b815260040160206040518083038186803b15801561026d57600080fd5b505afa158015610281573d6000803e3d6000fd5b505050506040513d602081101561029757600080fd5b50516001600160a01b031633146102e3576040805162461bcd60e51b815260206004820152600b60248201526a3737ba1031b932b0ba37b960a91b604482015290519081900360640190fd5b6000546001600160a01b0383811691161480159061030957506001600160a01b03821615155b1561032a57600080546001600160a01b0319166001600160a01b0384161790555b6001546001600160a01b0382811691161480159061035057506001600160a01b03811615155b1561037157600180546001600160a01b0319166001600160a01b0383161790555b5050565b6000546001600160a01b031633146103c0576040805162461bcd60e51b81526020600482015260096024820152683737ba1037bbb732b960b91b604482015290519081900360640190fd5b306001600160a01b03166302d05d3f6040518163ffffffff1660e01b815260040160206040518083038186803b1580156103f957600080fd5b505afa15801561040d573d6000803e3d6000fd5b505050506040513d602081101561042357600080fd5b5051604080516318beb60960e31b81526001600160c01b03198416600482015290516001600160a01b039092169163c5f5b0489160248082019260009290919082900301818387803b15801561047857600080fd5b505af115801561048c573d6000803e3d6000fd5b505050505056fea26469706673582212209a5deacbb86f8522960efe9844a60fccda87d490a8939ee64d016cf53477104c64736f6c634300060b0033a26469706673582212208baee89fbf6ad6e8df25e7246add8aefb0c8621033bcd1a7c4080c8ab03ca2e064736f6c634300060b0033",
  "source": "// SPDX-License-Identifier: UNLICENSED\n\npragma solidity 0.6.11;\n\nimport \"./lib/FactoryClaimable.sol\";\nimport \"./Factory.sol\";\n\ncontract FactoryProxy is FactoryClaimable {\n\n    constructor() FactoryClaimable() public {\n        proxy = address(this);\n    }\n\n    function setTarget(address _target) public onlyOwner() {\n        require(_target != address(0), \"no target\");\n        target = _target;\n        FactoryStorage(this).migrate();\n    }\n\n    fallback () external payable {\n        // solium-disable-next-line security/no-inline-assembly\n        assembly {\n                calldatacopy(0x00, 0x00, calldatasize())\n                let res := delegatecall(gas(), sload(target_slot), 0x00, calldatasize(), 0, 0)\n                returndatacopy(0x00, 0x00, returndatasize())\n                if res { return(0x00, returndatasize()) }\n                revert(0x00, returndatasize())\n            }\n    }\n}\n",
  "sourcePath": "/home/tal/code/kirobo/ki-eth-contracts/contracts/FactoryProxy.sol",
  "compiler": {
    "name": "solc",
    "version": "0.6.11+commit.5ef660b1.Emscripten.clang"
  },
  "schemaVersion": "3.0.23",
  "updatedAt": "2020-07-20T18:33:57.446Z",
  "networkType": "ethereum",
  "devdoc": {
    "kind": "dev",
    "methods": {
      "claimOwnership()": {
        "details": "Allows the pendingOwner address to finalize the transfer."
      },
      "renounceOwnership()": {
        "details": "Allows the current owner to relinquish control of the contract."
      },
      "transferOwnership(address)": {
        "details": "Allows the current owner to set the pendingOwner address.",
        "params": {
          "newOwner": "The address to transfer ownership to."
        }
      }
    },
    "version": 1
  },
  "userdoc": {
    "kind": "user",
    "methods": {
      "renounceOwnership()": {
        "notice": "Renouncing to ownership will leave the contract without an owner. It will not be possible to call the functions with the `onlyOwner` modifier anymore."
      }
    },
    "version": 1
  }
}