{
  "contractName": "FactoryProxy",
  "abi": [
    {
      "inputs": [
        {
          "internalType": "address",
          "name": "owner1",
          "type": "address"
        },
        {
          "internalType": "address",
          "name": "owner2",
          "type": "address"
        },
        {
          "internalType": "address",
          "name": "owner3",
          "type": "address"
        }
      ],
      "stateMutability": "nonpayable",
      "type": "constructor"
    },
    {
      "stateMutability": "nonpayable",
      "type": "fallback"
    },
    {
      "inputs": [],
      "name": "LATEST",
      "outputs": [
        {
          "internalType": "bytes8",
          "name": "",
          "type": "bytes8"
        }
      ],
      "stateMutability": "view",
      "type": "function",
      "constant": true
    },
    {
      "inputs": [],
      "name": "cancel",
      "outputs": [],
      "stateMutability": "nonpayable",
      "type": "function"
    },
    {
      "inputs": [],
      "name": "frozen",
      "outputs": [
        {
          "internalType": "bool",
          "name": "",
          "type": "bool"
        }
      ],
      "stateMutability": "view",
      "type": "function",
      "constant": true
    },
    {
      "inputs": [],
      "name": "isOwner",
      "outputs": [
        {
          "internalType": "bool",
          "name": "",
          "type": "bool"
        }
      ],
      "stateMutability": "view",
      "type": "function",
      "constant": true
    },
    {
      "inputs": [
        {
          "internalType": "address",
          "name": "_owner",
          "type": "address"
        },
        {
          "internalType": "address",
          "name": "_newOwner",
          "type": "address"
        }
      ],
      "name": "replaceOwner",
      "outputs": [],
      "stateMutability": "nonpayable",
      "type": "function"
    },
    {
      "inputs": [],
      "name": "swProxy",
      "outputs": [
        {
          "internalType": "contract Proxy",
          "name": "",
          "type": "address"
        }
      ],
      "stateMutability": "view",
      "type": "function",
      "constant": true
    },
    {
      "inputs": [],
      "name": "swProxyLatest",
      "outputs": [
        {
          "internalType": "contract ProxyLatest",
          "name": "",
          "type": "address"
        }
      ],
      "stateMutability": "view",
      "type": "function",
      "constant": true
    },
    {
      "inputs": [],
      "name": "target",
      "outputs": [
        {
          "internalType": "address",
          "name": "",
          "type": "address"
        }
      ],
      "stateMutability": "view",
      "type": "function",
      "constant": true
    },
    {
      "inputs": [
        {
          "internalType": "address",
          "name": "_target",
          "type": "address"
        }
      ],
      "name": "setTarget",
      "outputs": [],
      "stateMutability": "nonpayable",
      "type": "function"
    },
    {
      "inputs": [],
      "name": "freezeTarget",
      "outputs": [],
      "stateMutability": "nonpayable",
      "type": "function"
    }
  ],
  "bytecode": "0x608060405234801561001057600080fd5b5060405161190f38038061190f8339818101604052606081101561003357600080fd5b50805160208201516040909201519091908282828282826001600160a01b03831661009a576040805162461bcd60e51b815260206004820152601260248201527106f776e6572312063616e6e6f7420626520360741b604482015290519081900360640190fd5b6001600160a01b0382166100ea576040805162461bcd60e51b815260206004820152601260248201527106f776e6572322063616e6e6f7420626520360741b604482015290519081900360640190fd5b6001600160a01b03811661013a576040805162461bcd60e51b815260206004820152601260248201527106f776e6572332063616e6e6f7420626520360741b604482015290519081900360640190fd5b816001600160a01b0316836001600160a01b031614156101a1576040805162461bcd60e51b815260206004820152601760248201527f6f776e6572312063616e6e6f74206265206f776e657232000000000000000000604482015290519081900360640190fd5b806001600160a01b0316826001600160a01b03161415610208576040805162461bcd60e51b815260206004820152601760248201527f6f776e6572322063616e6e6f74206265206f776e657233000000000000000000604482015290519081900360640190fd5b806001600160a01b0316836001600160a01b0316141561026f576040805162461bcd60e51b815260206004820152601760248201527f6f776e6572312063616e6e6f74206265206f776e657233000000000000000000604482015290519081900360640190fd5b6001600160a01b039283166000908152602081905260408082208054600160ff199182168117909255948616835281832080548616821790559290941681528390208054909216179055516102c390610393565b604051809103906000f0801580156102df573d6000803e3d6000fd5b50600580546001600160a01b0319166001600160a01b039290921691909117905560405161030c906103a0565b604051809103906000f080158015610328573d6000803e3d6000fd5b50600680546001600160a01b03199081166001600160a01b039384161791829055651b185d195cdd60d21b60005260096020527ff5c2ff9c62f1500bae0349717898df1f5d951101798678757bac40a4d7a86c278054929093169116179055506103ad945050505050565b61047c80610f4283390190565b610551806113be83390190565b610b86806103bc6000396000f3fe608060405234801561001057600080fd5b506004361061009e5760003560e01c8063ce04dafb11610066578063ce04dafb1461016a578063d4b8399214610172578063e20056e61461017a578063e2adec9c146101a8578063ea8a1af0146101b05761009e565b8063054f7d9c146100c45780637721904c146100e0578063776d1a01146101045780638c576fc31461012c5780638f32d59b14610162575b36600080376000803660006004545af43d6000803e80156100be573d6000f35b503d6000fd5b6100cc6101b8565b604080519115158252519081900360200190f35b6100e86101c1565b604080516001600160a01b039092168252519081900360200190f35b61012a6004803603602081101561011a57600080fd5b50356001600160a01b03166101d0565b005b61013461049f565b6040805177ffffffffffffffffffffffffffffffffffffffffffffffff199092168252519081900360200190f35b6100cc6104ac565b61012a6104c3565b6100e86106f8565b61012a6004803603604081101561019057600080fd5b506001600160a01b0381358116916020013516610707565b6100e8610a45565b61012a610a54565b600d5460ff1681565b6005546001600160a01b031681565b3360009081526020819052604081205460ff16610222576040805162461bcd60e51b815260206004820152600b60248201526a6f6e6c79206f776e65727360a81b604482015290519081900360640190fd5b6001546001600160a01b031661025c57600180546001600160a01b031916331790556102516003600036610ab8565b50600281905561049b565b6001546001600160a01b03163314156102bc576040805162461bcd60e51b815260206004820152601c60248201527f73616d65206f776e65722063616e6e6f74207369676e20747769636500000000604482015290519081900360640190fd5b600254811461030d576040805162461bcd60e51b81526020600482015260186024820152776d757374207369676e207468652073616d652076616c756560401b604482015290519081900360640190fd5b6000366040518083838082843760405192018290038220600380549196509450919250829184915060026000196101006001841615020190911604801561038b5780601f1061036957610100808354040283529182019161038b565b820191906000526020600020905b815481529060010190602001808311610377575b50509150506040518091039020146103e4576040805162461bcd60e51b81526020600482015260176024820152766d757374207369676e207468652073616d65206461746160481b604482015290519081900360640190fd5b600180546001600160a01b0319168155600d5460ff1615151415610438576040805162461bcd60e51b8152602060048201526006602482015265333937bd32b760d11b604482015290519081900360640190fd5b6001600160a01b03821661047f576040805162461bcd60e51b81526020600482015260096024820152681b9bc81d185c99d95d60ba1b604482015290519081900360640190fd5b600480546001600160a01b0319166001600160a01b0384161790555b5050565b651b185d195cdd60d21b81565b3360009081526020819052604090205460ff165b90565b3360009081526020819052604081205460ff16610515576040805162461bcd60e51b815260206004820152600b60248201526a6f6e6c79206f776e65727360a81b604482015290519081900360640190fd5b6001546001600160a01b031661054f57600180546001600160a01b031916331790556105446003600036610ab8565b5060028190556106f5565b6001546001600160a01b03163314156105af576040805162461bcd60e51b815260206004820152601c60248201527f73616d65206f776e65722063616e6e6f74207369676e20747769636500000000604482015290519081900360640190fd5b6002548114610600576040805162461bcd60e51b81526020600482015260186024820152776d757374207369676e207468652073616d652076616c756560401b604482015290519081900360640190fd5b6000366040518083838082843760405192018290038220600380549196509450919250829184915060026000196101006001841615020190911604801561067e5780601f1061065c57610100808354040283529182019161067e565b820191906000526020600020905b81548152906001019060200180831161066a575b50509150506040518091039020146106d7576040805162461bcd60e51b81526020600482015260176024820152766d757374207369676e207468652073616d65206461746160481b604482015290519081900360640190fd5b600180546001600160a01b0319168155600d805460ff191690911790555b50565b6004546001600160a01b031681565b3360009081526020819052604081205460ff16610759576040805162461bcd60e51b815260206004820152600b60248201526a6f6e6c79206f776e65727360a81b604482015290519081900360640190fd5b6001546001600160a01b031661079357600180546001600160a01b031916331790556107886003600036610ab8565b506002819055610a40565b6001546001600160a01b03163314156107f3576040805162461bcd60e51b815260206004820152601c60248201527f73616d65206f776e65722063616e6e6f74207369676e20747769636500000000604482015290519081900360640190fd5b6002548114610844576040805162461bcd60e51b81526020600482015260186024820152776d757374207369676e207468652073616d652076616c756560401b604482015290519081900360640190fd5b600036604051808383808284376040519201829003822060038054919650945091925082918491506002600019610100600184161502019091160480156108c25780601f106108a05761010080835404028352918201916108c2565b820191906000526020600020905b8154815290600101906020018083116108ae575b505091505060405180910390201461091b576040805162461bcd60e51b81526020600482015260176024820152766d757374207369676e207468652073616d65206461746160481b604482015290519081900360640190fd5b600180546001600160a01b03191681556001600160a01b03841660009081526020819052604090205460ff1615151461099b576040805162461bcd60e51b815260206004820152601260248201527f6f776e65722073686f756c642065786973740000000000000000000000000000604482015290519081900360640190fd5b6001600160a01b03821660009081526020819052604090205460ff1615610a09576040805162461bcd60e51b815260206004820152601a60248201527f6e6577206f776e65722073686f756c64206e6f74206578697374000000000000604482015290519081900360640190fd5b6001600160a01b03808416600090815260208190526040808220805460ff1990811690915592851682529020805490911660011790555b505050565b6006546001600160a01b031681565b3360009081526020819052604090205460ff16610aa6576040805162461bcd60e51b815260206004820152600b60248201526a6f6e6c79206f776e65727360a81b604482015290519081900360640190fd5b600180546001600160a01b0319169055565b828054600181600116156101000203166002900490600052602060002090601f016020900481019282601f10610af95782800160ff19823516178555610b26565b82800160010185558215610b26579182015b82811115610b26578235825591602001919060010190610b0b565b50610b32929150610b36565b5090565b6104c091905b80821115610b325760008155600101610b3c56fea2646970667358221220992055b16293abdf50b8cb736cc267f179349dd30a6eeb36f2f1ed21089a8e8164736f6c634300060b0033608060405234801561001057600080fd5b50600080546001600160a01b0319163317905561044a806100326000396000f3fe60806040526004361061004e5760003560e01c806302d05d3f146100c65780638da5cb5b146100f7578063d4b839921461010c578063f09a401614610121578063fec5a18d1461015e576100a0565b366100a0576040805162461bcd60e51b815260206004820181905260248201527f73686f756c64206e6f7420616363657074206574686572206469726563746c79604482015290519081900360640190fd5b36600080376000803660006001545af43d6000803e80156100c0573d6000f35b503d6000fd5b3480156100d257600080fd5b506100db610192565b604080516001600160a01b039092168252519081900360200190f35b34801561010357600080fd5b506100db610197565b34801561011857600080fd5b506100db6101a6565b34801561012d57600080fd5b5061015c6004803603604081101561014457600080fd5b506001600160a01b03813581169160200135166101b5565b005b34801561016a57600080fd5b5061015c6004803603602081101561018157600080fd5b50356001600160c01b0319166102f6565b600090565b6000546001600160a01b031690565b6001546001600160a01b031690565b306001600160a01b03166302d05d3f6040518163ffffffff1660e01b815260040160206040518083038186803b1580156101ee57600080fd5b505afa158015610202573d6000803e3d6000fd5b505050506040513d602081101561021857600080fd5b50516001600160a01b03163314610264576040805162461bcd60e51b815260206004820152600b60248201526a3737ba1031b932b0ba37b960a91b604482015290519081900360640190fd5b6000546001600160a01b0383811691161480159061028a57506001600160a01b03821615155b156102ab57600080546001600160a01b0319166001600160a01b0384161790555b6001546001600160a01b038281169116148015906102d157506001600160a01b03811615155b156102f257600180546001600160a01b0319166001600160a01b0383161790555b5050565b6000546001600160a01b03163314610341576040805162461bcd60e51b81526020600482015260096024820152683737ba1037bbb732b960b91b604482015290519081900360640190fd5b306001600160a01b03166302d05d3f6040518163ffffffff1660e01b815260040160206040518083038186803b15801561037a57600080fd5b505afa15801561038e573d6000803e3d6000fd5b505050506040513d60208110156103a457600080fd5b5051604080516318beb60960e31b81526001600160c01b03198416600482015290516001600160a01b039092169163c5f5b0489160248082019260009290919082900301818387803b1580156103f957600080fd5b505af115801561040d573d6000803e3d6000fd5b505050505056fea264697066735822122020de30b8c9af03ad30168309ec07b1b9f556ece7de337978db2519a56cd3f80364736f6c634300060b0033608060405234801561001057600080fd5b50600080546001600160a01b0319163317905561051f806100326000396000f3fe60806040526004361061004e5760003560e01c806302d05d3f1461019b5780638da5cb5b146101cc578063d4b83992146101e1578063f09a4016146101f6578063fec5a18d14610233576100a0565b366100a0576040805162461bcd60e51b815260206004820181905260248201527f73686f756c64206e6f7420616363657074206574686572206469726563746c79604482015290519081900360640190fd5b6000306001600160a01b03166302d05d3f6040518163ffffffff1660e01b815260040160206040518083038186803b1580156100db57600080fd5b505afa1580156100ef573d6000803e3d6000fd5b505050506040513d602081101561010557600080fd5b505160408051630e6d1de960e01b815290516001600160a01b0390921691630e6d1de991600480820192602092909190829003018186803b15801561014957600080fd5b505afa15801561015d573d6000803e3d6000fd5b505050506040513d602081101561017357600080fd5b505190503660008037600080366000845af43d6000803e8015610195573d6000f35b503d6000fd5b3480156101a757600080fd5b506101b0610267565b604080516001600160a01b039092168252519081900360200190f35b3480156101d857600080fd5b506101b061026c565b3480156101ed57600080fd5b506101b061027b565b34801561020257600080fd5b506102316004803603604081101561021957600080fd5b506001600160a01b038135811691602001351661028a565b005b34801561023f57600080fd5b506102316004803603602081101561025657600080fd5b50356001600160c01b0319166103cb565b600090565b6000546001600160a01b031690565b6001546001600160a01b031690565b306001600160a01b03166302d05d3f6040518163ffffffff1660e01b815260040160206040518083038186803b1580156102c357600080fd5b505afa1580156102d7573d6000803e3d6000fd5b505050506040513d60208110156102ed57600080fd5b50516001600160a01b03163314610339576040805162461bcd60e51b815260206004820152600b60248201526a3737ba1031b932b0ba37b960a91b604482015290519081900360640190fd5b6000546001600160a01b0383811691161480159061035f57506001600160a01b03821615155b1561038057600080546001600160a01b0319166001600160a01b0384161790555b6001546001600160a01b038281169116148015906103a657506001600160a01b03811615155b156103c757600180546001600160a01b0319166001600160a01b0383161790555b5050565b6000546001600160a01b03163314610416576040805162461bcd60e51b81526020600482015260096024820152683737ba1037bbb732b960b91b604482015290519081900360640190fd5b306001600160a01b03166302d05d3f6040518163ffffffff1660e01b815260040160206040518083038186803b15801561044f57600080fd5b505afa158015610463573d6000803e3d6000fd5b505050506040513d602081101561047957600080fd5b5051604080516318beb60960e31b81526001600160c01b03198416600482015290516001600160a01b039092169163c5f5b0489160248082019260009290919082900301818387803b1580156104ce57600080fd5b505af11580156104e2573d6000803e3d6000fd5b505050505056fea2646970667358221220918fd4cd0fed67c70c011ab9c3f4da29a538dbcd9436fb683ad89d74f329df5264736f6c634300060b0033",
  "immutableReferences": {},
  "source": "// SPDX-License-Identifier: UNLICENSED\n\npragma solidity 0.6.11;\n\nimport \"./FactoryStorage.sol\";\nimport \"./Factory.sol\";\n\ncontract FactoryProxy is FactoryStorage {\n\n    bool public frozen;\n    \n    constructor(address owner1, address owner2, address owner3) FactoryStorage(owner1, owner2, owner3) public {\n        // proxy = address(this);\n    }\n\n    function setTarget(address _target) public multiSig2of3(0) {\n        require(frozen != true, \"frozen\");\n        require(_target != address(0), \"no target\");\n        target = _target;\n    }\n\n    function freezeTarget() public multiSig2of3(0) {\n        frozen = true;\n    }\n\n    fallback () external {\n        // solium-disable-next-line security/no-inline-assembly\n        assembly {\n                calldatacopy(0x00, 0x00, calldatasize())\n                let res := delegatecall(gas(), sload(target_slot), 0x00, calldatasize(), 0, 0)\n                returndatacopy(0x00, 0x00, returndatasize())\n                if res { return(0x00, returndatasize()) }\n                revert(0x00, returndatasize())\n            }\n    }\n}\n",
  "sourcePath": "/Users/Tal/code/kirobo/ki-eth-contracts/contracts/FactoryProxy.sol",
  "compiler": {
    "name": "solc",
    "version": "0.6.11+commit.5ef660b1.Emscripten.clang"
  },
  "schemaVersion": "3.2.0",
  "updatedAt": "2020-08-30T11:55:24.027Z",
  "networkType": "ethereum",
  "devdoc": {
    "kind": "dev",
    "methods": {},
    "version": 1
  },
  "userdoc": {
    "kind": "user",
    "methods": {},
    "version": 1
  }
}