{
  "contractName": "Factory",
  "abi": [
    {
      "inputs": [
        {
          "internalType": "address",
          "name": "owner1",
          "type": "address"
        },
        {
          "internalType": "address",
          "name": "owner2",
          "type": "address"
        },
        {
          "internalType": "address",
          "name": "owner3",
          "type": "address"
        }
      ],
      "stateMutability": "nonpayable",
      "type": "constructor"
    },
    {
      "anonymous": false,
      "inputs": [
        {
          "indexed": true,
          "internalType": "bytes8",
          "name": "version",
          "type": "bytes8"
        },
        {
          "indexed": true,
          "internalType": "address",
          "name": "code",
          "type": "address"
        },
        {
          "indexed": true,
          "internalType": "address",
          "name": "oracle",
          "type": "address"
        }
      ],
      "name": "VersionAdded",
      "type": "event"
    },
    {
      "anonymous": false,
      "inputs": [
        {
          "indexed": true,
          "internalType": "bytes8",
          "name": "version",
          "type": "bytes8"
        },
        {
          "indexed": true,
          "internalType": "address",
          "name": "code",
          "type": "address"
        },
        {
          "indexed": true,
          "internalType": "address",
          "name": "oracle",
          "type": "address"
        }
      ],
      "name": "VersionDeployed",
      "type": "event"
    },
    {
      "anonymous": false,
      "inputs": [
        {
          "indexed": true,
          "internalType": "address",
          "name": "wallet",
          "type": "address"
        },
        {
          "indexed": true,
          "internalType": "bytes8",
          "name": "version",
          "type": "bytes8"
        },
        {
          "indexed": true,
          "internalType": "address",
          "name": "owner",
          "type": "address"
        }
      ],
      "name": "WalletConfigurationRestored",
      "type": "event"
    },
    {
      "anonymous": false,
      "inputs": [
        {
          "indexed": true,
          "internalType": "address",
          "name": "wallet",
          "type": "address"
        },
        {
          "indexed": true,
          "internalType": "bytes8",
          "name": "version",
          "type": "bytes8"
        },
        {
          "indexed": true,
          "internalType": "address",
          "name": "owner",
          "type": "address"
        }
      ],
      "name": "WalletCreated",
      "type": "event"
    },
    {
      "anonymous": false,
      "inputs": [
        {
          "indexed": true,
          "internalType": "address",
          "name": "wallet",
          "type": "address"
        },
        {
          "indexed": true,
          "internalType": "address",
          "name": "owner",
          "type": "address"
        }
      ],
      "name": "WalletOwnershipRestored",
      "type": "event"
    },
    {
      "anonymous": false,
      "inputs": [
        {
          "indexed": true,
          "internalType": "address",
          "name": "wallet",
          "type": "address"
        },
        {
          "indexed": true,
          "internalType": "bytes8",
          "name": "version",
          "type": "bytes8"
        }
      ],
      "name": "WalletUpgradeDismissed",
      "type": "event"
    },
    {
      "anonymous": false,
      "inputs": [
        {
          "indexed": true,
          "internalType": "address",
          "name": "wallet",
          "type": "address"
        },
        {
          "indexed": true,
          "internalType": "bytes8",
          "name": "version",
          "type": "bytes8"
        }
      ],
      "name": "WalletUpgradeRequested",
      "type": "event"
    },
    {
      "anonymous": false,
      "inputs": [
        {
          "indexed": true,
          "internalType": "address",
          "name": "wallet",
          "type": "address"
        },
        {
          "indexed": true,
          "internalType": "bytes8",
          "name": "version",
          "type": "bytes8"
        }
      ],
      "name": "WalletUpgraded",
      "type": "event"
    },
    {
      "anonymous": false,
      "inputs": [
        {
          "indexed": true,
          "internalType": "address",
          "name": "wallet",
          "type": "address"
        },
        {
          "indexed": true,
          "internalType": "bytes8",
          "name": "version",
          "type": "bytes8"
        },
        {
          "indexed": true,
          "internalType": "address",
          "name": "owner",
          "type": "address"
        }
      ],
      "name": "WalletVersionRestored",
      "type": "event"
    },
    {
      "stateMutability": "nonpayable",
      "type": "fallback"
    },
    {
      "inputs": [],
      "name": "CHAIN_ID",
      "outputs": [
        {
          "internalType": "uint256",
          "name": "",
          "type": "uint256"
        }
      ],
      "stateMutability": "view",
      "type": "function"
    },
    {
      "inputs": [],
      "name": "DOMAIN_SEPARATOR",
      "outputs": [
        {
          "internalType": "bytes32",
          "name": "",
          "type": "bytes32"
        }
      ],
      "stateMutability": "view",
      "type": "function"
    },
    {
      "inputs": [],
      "name": "LATEST",
      "outputs": [
        {
          "internalType": "bytes8",
          "name": "",
          "type": "bytes8"
        }
      ],
      "stateMutability": "view",
      "type": "function"
    },
    {
      "inputs": [],
      "name": "cancel",
      "outputs": [],
      "stateMutability": "nonpayable",
      "type": "function"
    },
    {
      "inputs": [],
      "name": "isOwner",
      "outputs": [
        {
          "internalType": "bool",
          "name": "",
          "type": "bool"
        }
      ],
      "stateMutability": "view",
      "type": "function"
    },
    {
      "inputs": [
        {
          "internalType": "address",
          "name": "owner",
          "type": "address"
        },
        {
          "internalType": "address",
          "name": "newOwner",
          "type": "address"
        }
      ],
      "name": "replaceOwner",
      "outputs": [],
      "stateMutability": "nonpayable",
      "type": "function"
    },
    {
      "inputs": [],
      "name": "s_frozen",
      "outputs": [
        {
          "internalType": "bool",
          "name": "",
          "type": "bool"
        }
      ],
      "stateMutability": "view",
      "type": "function"
    },
    {
      "inputs": [
        {
          "internalType": "address",
          "name": "newOwner",
          "type": "address"
        }
      ],
      "name": "transferWalletOwnership",
      "outputs": [],
      "stateMutability": "nonpayable",
      "type": "function"
    },
    {
      "inputs": [
        {
          "internalType": "address",
          "name": "backup",
          "type": "address"
        }
      ],
      "name": "addWalletBackup",
      "outputs": [],
      "stateMutability": "nonpayable",
      "type": "function"
    },
    {
      "inputs": [
        {
          "internalType": "address",
          "name": "backup",
          "type": "address"
        }
      ],
      "name": "removeWalletBackup",
      "outputs": [],
      "stateMutability": "nonpayable",
      "type": "function"
    },
    {
      "inputs": [
        {
          "internalType": "bytes8",
          "name": "version",
          "type": "bytes8"
        }
      ],
      "name": "upgradeWalletRequest",
      "outputs": [],
      "stateMutability": "nonpayable",
      "type": "function"
    },
    {
      "inputs": [],
      "name": "upgradeWalletDismiss",
      "outputs": [],
      "stateMutability": "nonpayable",
      "type": "function"
    },
    {
      "inputs": [],
      "name": "upgradeWalletExecute",
      "outputs": [],
      "stateMutability": "nonpayable",
      "type": "function"
    },
    {
      "inputs": [
        {
          "internalType": "address",
          "name": "target",
          "type": "address"
        },
        {
          "internalType": "address",
          "name": "targetOracle",
          "type": "address"
        }
      ],
      "name": "addVersion",
      "outputs": [],
      "stateMutability": "nonpayable",
      "type": "function"
    },
    {
      "inputs": [
        {
          "internalType": "bytes8",
          "name": "version",
          "type": "bytes8"
        }
      ],
      "name": "deployVersion",
      "outputs": [],
      "stateMutability": "nonpayable",
      "type": "function"
    },
    {
      "inputs": [],
      "name": "restoreWalletConfiguration",
      "outputs": [],
      "stateMutability": "nonpayable",
      "type": "function"
    },
    {
      "inputs": [],
      "name": "restoreWalletOwnership",
      "outputs": [],
      "stateMutability": "nonpayable",
      "type": "function"
    },
    {
      "inputs": [],
      "name": "restoreWalletVersion",
      "outputs": [],
      "stateMutability": "nonpayable",
      "type": "function"
    },
    {
      "inputs": [],
      "name": "getLatestVersion",
      "outputs": [
        {
          "internalType": "address",
          "name": "",
          "type": "address"
        }
      ],
      "stateMutability": "view",
      "type": "function"
    },
    {
      "inputs": [
        {
          "internalType": "address",
          "name": "account",
          "type": "address"
        }
      ],
      "name": "getWallet",
      "outputs": [
        {
          "internalType": "address",
          "name": "",
          "type": "address"
        }
      ],
      "stateMutability": "view",
      "type": "function"
    },
    {
      "inputs": [
        {
          "internalType": "address",
          "name": "account",
          "type": "address"
        }
      ],
      "name": "getWalletDebt",
      "outputs": [
        {
          "internalType": "uint88",
          "name": "",
          "type": "uint88"
        }
      ],
      "stateMutability": "view",
      "type": "function"
    },
    {
      "inputs": [
        {
          "internalType": "bool",
          "name": "autoMode",
          "type": "bool"
        }
      ],
      "name": "createWallet",
      "outputs": [
        {
          "internalType": "address",
          "name": "",
          "type": "address"
        }
      ],
      "stateMutability": "nonpayable",
      "type": "function"
    },
    {
      "inputs": [],
      "name": "oracle",
      "outputs": [
        {
          "internalType": "address",
          "name": "oracleAddress",
          "type": "address"
        }
      ],
      "stateMutability": "view",
      "type": "function"
    },
    {
      "inputs": [
        {
          "internalType": "address",
          "name": "newOperator",
          "type": "address"
        }
      ],
      "name": "setOperator",
      "outputs": [],
      "stateMutability": "nonpayable",
      "type": "function"
    },
    {
      "inputs": [
        {
          "internalType": "address",
          "name": "newActivator",
          "type": "address"
        }
      ],
      "name": "setActivator",
      "outputs": [],
      "stateMutability": "nonpayable",
      "type": "function"
    }
  ],
  "bytecode": "0x60806040523480156200001157600080fd5b5060405162004a6138038062004a61833981810160405260608110156200003757600080fd5b50805160208201516040909201519091908282828282826001600160a01b0383166200009f576040805162461bcd60e51b815260206004820152601260248201527106f776e6572312063616e6e6f7420626520360741b604482015290519081900360640190fd5b6001600160a01b038216620000f0576040805162461bcd60e51b815260206004820152601260248201527106f776e6572322063616e6e6f7420626520360741b604482015290519081900360640190fd5b6001600160a01b03811662000141576040805162461bcd60e51b815260206004820152601260248201527106f776e6572332063616e6e6f7420626520360741b604482015290519081900360640190fd5b816001600160a01b0316836001600160a01b03161415620001a9576040805162461bcd60e51b815260206004820152601760248201527f6f776e6572312063616e6e6f74206265206f776e657232000000000000000000604482015290519081900360640190fd5b806001600160a01b0316826001600160a01b0316141562000211576040805162461bcd60e51b815260206004820152601760248201527f6f776e6572322063616e6e6f74206265206f776e657233000000000000000000604482015290519081900360640190fd5b806001600160a01b0316836001600160a01b0316141562000279576040805162461bcd60e51b815260206004820152601760248201527f6f776e6572312063616e6e6f74206265206f776e657233000000000000000000604482015290519081900360640190fd5b6001600160a01b039283166000908152602081905260408082208054600160ff19918216811790925594861683528183208054861682179055929094168152839020805490921617905551620002cf9062000504565b604051809103906000f080158015620002ec573d6000803e3d6000fd5b50600580546001600160a01b0319166001600160a01b03929092169190911790556040516200031b9062000512565b604051809103906000f08015801562000338573d6000803e3d6000fd5b50600680546001600160a01b03199081166001600160a01b0393841617918290557f057e37c5a7fe81a5a811d5662fdb5c27e3e274bafbd2f0ad63411d0e05f848cf805492909316911617905550506010602052505060017f6e0956cda88cad152e89927e53611735b61a5c762d1428573c6931b0a5efcb018190557f8c6065603763fec3f5742441d3833f3f43b982453612d76adb39a885e3006b5f8190557f853b2fefe141400fef543280f93d98bd49996069f632d0d20236afeeed8e46a28190557fb3edd0d534d647cffdae9f1294f11ad21f3fcf2814bea44c92bbb8d384a57d9e8190557f1588ac671d87f82adc0e6ae8ab009c0de98f92a20243897597e566bc59b9c1268190557f61a7346ab5ebdac457db2a901eaf1b805239b6049a1b2f34bab85e2e274f39cb8190557f20edfb71820f6f00f6a84ccfefb91587cd9f849f8349b0a3182a4795899d9cd98190557f4ef6145e44e4298293af15ae5f84f922a836b1d6db608fd5008f32a528b312a98190557f5f04e77c60ed37290f5789e2e9c5d396103f3c4b14614065cbb4c8362609d5a581905560096000527fa8197f9f3066d467dba941614f445cf878e0beb059ed920f6258667ed2470eb85550620005209050565b610da680620036c983390190565b6105f2806200446f83390190565b61319980620005306000396000f3fe608060405234801561001057600080fd5b50600436106101a35760003560e01c806385e1f4d0116100ee578063b3ab15fb11610097578063cf2f774111610071578063cf2f774114610478578063e20056e61461049e578063ea8a1af0146104cc578063ee858968146104d4576101a3565b8063b3ab15fb1461041f578063bf3b110114610445578063c411ce9a1461046b576101a3565b806397e61ee4116100c857806397e61ee4146103c3578063a196de83146103f1578063a7ecbd8d14610417576101a3565b806385e1f4d0146103655780638c576fc31461036e5780638f32d59b1461039b576101a3565b80633644e515116101505780637c0cc0be1161012a5780637c0cc0be1461032f5780637dc0d1d014610355578063842bb7321461035d576101a3565b80633644e5151461026b5780634b613c2014610286578063785c6841146102ad576101a3565b80631a05b142116101815780631a05b1421461021d5780631a34bf7b146102255780632bc68db71461024c576101a3565b806304d0a647146101a5578063065c5000146101f75780630e6d1de9146101ff575b005b6101db600480360360208110156101bb57600080fd5b506001600160a01b03903581166000908152600760205260409020541690565b604080516001600160a01b039092168252519081900360200190f35b6101a36104dc565b6101db600b546801000000000000000090046001600160a01b031690565b6101a3610694565b6101a36004803603602081101561023b57600080fd5b50356001600160c01b0319166108aa565b6101db6004803603602081101561026257600080fd5b50351515610abe565b61027460115481565b60408051918252519081900360200190f35b6101a36004803603602081101561029c57600080fd5b50356001600160c01b031916610fd3565b61030f600480360360208110156102c357600080fd5b50356001600160a01b03166001600160a01b0316600090815260076020526040902054750100000000000000000000000000000000000000000090046affffffffffffffffffffff1690565b604080516affffffffffffffffffffff9092168252519081900360200190f35b6101a36004803603602081101561034557600080fd5b50356001600160a01b0316611387565b6101db6115b8565b6101a3611615565b61027460125481565b61037e651b185d195cdd60d21b81565b604080516001600160c01b03199092168252519081900360200190f35b3360009081526020819052604090205460ff165b604080519115158252519081900360200190f35b6101a3600480360360408110156103d957600080fd5b506001600160a01b0381358116916020013516611766565b6101a36004803603602081101561040757600080fd5b50356001600160a01b0316611da2565b6101a3611fae565b6101a36004803603602081101561043557600080fd5b50356001600160a01b03166121af565b6101a36004803603602081101561045b57600080fd5b50356001600160a01b03166123e0565b6013546103af9060ff1681565b6101a36004803603602081101561048e57600080fd5b50356001600160a01b031661268c565b6101a3600480360360408110156104b457600080fd5b506001600160a01b03813581169160200135166127b4565b6101a3612ae1565b6101a3612b45565b6000336001600160a01b0316638da5cb5b6040518163ffffffff1660e01b815260040160206040518083038186803b15801561051757600080fd5b505afa15801561052b573d6000803e3d6000fd5b505050506040513d602081101561054157600080fd5b50516001600160a01b038082166000908152600760205260409020805492935091163314801561057e57508054600160a01b900460ff1615156001145b6105cf576040805162461bcd60e51b815260206004820152601a60248201527f73656e646572206973206e6f742077616c6c6574206f776e6572000000000000604482015290519081900360640190fd5b80546001600160a01b03166000908152600960205260409020600181015461063e576040805162461bcd60e51b815260206004820152601260248201527f72657175657374206e6f74206578736973740000000000000000000000000000604482015290519081900360640190fd5b6000600182018190558154835460405160c09290921b6001600160c01b031916926001600160a01b03909116917f961290359efe263198ef169c00e476f9ad4e7a4c16df78e709c88f1f84747ddf9190a3505050565b33600090815260076020526040902080546001600160a01b03166106eb576040805162461bcd60e51b81526020600482015260096024820152681b9bc81dd85b1b195d60ba1b604482015290519081900360640190fd5b8054600160a01b900460ff161515600114610740576040805162461bcd60e51b815260206004820152601060248201526f3737ba103bb0b63632ba1037bbb732b960811b604482015290519081900360640190fd5b80546001600160a01b031660009081526008602052604090205460c01b6001600160c01b03198116651b185d195cdd60d21b14156107805750600b5460c01b5b6001600160c01b031981166000908152600a60205260409020546001600160a01b0316806107f5576040805162461bcd60e51b815260206004820152601160248201527f76657273696f6e206e6f74206578697374000000000000000000000000000000604482015290519081900360640190fd5b82546040805163784d200b60e11b81523360048201526001600160a01b0384811660248301529151919092169163f09a401691604480830192600092919082900301818387803b15801561084857600080fd5b505af115801561085c573d6000803e3d6000fd5b505084546040513393506001600160c01b0319861692506001600160a01b03909116907f9dff4715dcc255fd0abdc515933401366bac62424c60e57d607dfe9003f2dc1790600090a4505050565b6001600160c01b031981166000908152600a60205260409020546001600160a01b03168061091f576040805162461bcd60e51b815260206004820152600f60248201527f6e6f2076657273696f6e20636f64650000000000000000000000000000000000604482015290519081900360640190fd5b6000336001600160a01b0316638da5cb5b6040518163ffffffff1660e01b815260040160206040518083038186803b15801561095a57600080fd5b505afa15801561096e573d6000803e3d6000fd5b505050506040513d602081101561098457600080fd5b50516001600160a01b03808216600090815260076020526040902080549293509116331480156109c157508054600160a01b900460ff1615156001145b610a12576040805162461bcd60e51b815260206004820152601a60248201527f73656e646572206973206e6f742077616c6c6574206f776e6572000000000000604482015290519081900360640190fd5b604080518082019091526001600160c01b03198516815260208101610a3a426202a300613039565b905281546001600160a01b0390811660009081526009602090815260408083208551815467ffffffffffffffff191660c09190911c1781559490910151600190940193909355835492516001600160c01b0319881693909216917fd8b538975844017c9b6a22b04268c624c8a43b3e15f89bd7e22afb30238732ea9190a350505050565b6005546000906001600160a01b0316610b1e576040805162461bcd60e51b815260206004820152600860248201527f6e6f2070726f7879000000000000000000000000000000000000000000000000604482015290519081900360640190fd5b600b546801000000000000000090046001600160a01b0316610b87576040805162461bcd60e51b815260206004820152600f60248201527f6e6f2070726f642076657273696f6e0000000000000000000000000000000000604482015290519081900360640190fd5b33600090815260076020526040902080546001600160a01b0316610fc357600554610bbc9030906001600160a01b0316612e4d565b81546001600160a01b0319166001600160a01b039182161780835516610c29576040805162461bcd60e51b815260206004820152601260248201527f77616c6c6574206e6f7420637265617465640000000000000000000000000000604482015290519081900360640190fd5b805460ff60a01b1916600160a01b1781558215610e6e576006546001600160a01b0316610c9d576040805162461bcd60e51b815260206004820152600f60248201527f6e6f206175746f2076657273696f6e0000000000000000000000000000000000604482015290519081900360640190fd5b600654651b185d195cdd60d21b600052600a6020527f057e37c5a7fe81a5a811d5662fdb5c27e3e274bafbd2f0ad63411d0e05f848cf546001600160a01b03908116911614610d33576040805162461bcd60e51b815260206004820152601660248201527f696e636f7272656374206175746f2076657273696f6e00000000000000000000604482015290519081900360640190fd5b80546001600160a01b03908116600090815260086020526040808220805467ffffffffffffffff1916676c617465737400001790558354600654825163784d200b60e11b81523360048201529085166024820152915193169263f09a40169260448084019391929182900301818387803b158015610db057600080fd5b505af1158015610dc4573d6000803e3d6000fd5b505082546040805163011fa75760e71b815290516001600160a01b039092169350638fd3ab80925060048082019260009290919082900301818387803b158015610e0d57600080fd5b505af1158015610e21573d6000803e3d6000fd5b50508254604051339350651b185d195cdd60d21b92506001600160a01b03909116907f689c6b1155ee0314d789d2c8968b47cb04b9c8592446c127023fc6399b17310c90600090a4610fc3565b600b805482546001600160a01b03908116600090815260086020526040808220805467ffffffffffffffff191667ffffffffffffffff9095169490941790935584549354835163784d200b60e11b815233600482015268010000000000000000909104831660248201529251939091169263f09a401692604480820193929182900301818387803b158015610f0257600080fd5b505af1158015610f16573d6000803e3d6000fd5b505082546040805163011fa75760e71b815290516001600160a01b039092169350638fd3ab80925060048082019260009290919082900301818387803b158015610f5f57600080fd5b505af1158015610f73573d6000803e3d6000fd5b5050600b54835460405133945060c09290921b6001600160c01b03191692506001600160a01b0316907f689c6b1155ee0314d789d2c8968b47cb04b9c8592446c127023fc6399b17310c90600090a45b546001600160a01b031692915050565b3360009081526020819052604081205460ff16611025576040805162461bcd60e51b815260206004820152600b60248201526a6f6e6c79206f776e65727360a81b604482015290519081900360640190fd5b6001546001600160a01b031661105f57600180546001600160a01b031916331790556110546003600036612fa0565b506002819055611383565b6001546001600160a01b03163314156110bf576040805162461bcd60e51b815260206004820152601c60248201527f73616d65206f776e65722063616e6e6f74207369676e20747769636500000000604482015290519081900360640190fd5b6002548114611115576040805162461bcd60e51b815260206004820152601860248201527f6d757374207369676e207468652073616d652076616c75650000000000000000604482015290519081900360640190fd5b6000366040518083838082843760405192018290038220600380549196509450919250829184915061114690613051565b80156111895780601f10611167576101008083540402835291820191611189565b820191906000526020600020905b815481529060010190602001808311611175575b50509150506040518091039020146111e2576040805162461bcd60e51b81526020600482015260176024820152766d757374207369676e207468652073616d65206461746160481b604482015290519081900360640190fd5b600180546001600160a01b03191690556001600160c01b031982166000908152600a60205260409020546001600160a01b031680611267576040805162461bcd60e51b815260206004820152601160248201527f76657273696f6e206e6f74206578697374000000000000000000000000000000604482015290519081900360640190fd5b6001600160c01b031983166000908152600d60205260409020546001600160a01b0316806112dc576040805162461bcd60e51b815260206004820152601060248201527f6f7261636c65206e6f7420657869737400000000000000000000000000000000604482015290519081900360640190fd5b600b805467ffffffffffffffff191660c086901c177fffffffff0000000000000000000000000000000000000000ffffffffffffffff16680100000000000000006001600160a01b0385811691820292909217909255600c80546001600160a01b03191691841691821790556040519091906001600160c01b03198716907fb4d04ce57b22f1de0bfbaebe42d34d0616a77b6de95fde396bbd054851d22f5890600090a450505b5050565b3360009081526020819052604081205460ff166113d9576040805162461bcd60e51b815260206004820152600b60248201526a6f6e6c79206f776e65727360a81b604482015290519081900360640190fd5b6001546001600160a01b031661140857600180546001600160a01b031916331790556110546003600036612fa0565b6001546001600160a01b0316331415611468576040805162461bcd60e51b815260206004820152601c60248201527f73616d65206f776e65722063616e6e6f74207369676e20747769636500000000604482015290519081900360640190fd5b60025481146114be576040805162461bcd60e51b815260206004820152601860248201527f6d757374207369676e207468652073616d652076616c75650000000000000000604482015290519081900360640190fd5b600036604051808383808284376040519201829003822060038054919650945091925082918491506114ef90613051565b80156115325780601f10611510576101008083540402835291820191611532565b820191906000526020600020905b81548152906001019060200180831161151e575b505091505060405180910390201461158b576040805162461bcd60e51b81526020600482015260176024820152766d757374207369676e207468652073616d65206461746160481b604482015290519081900360640190fd5b600180546001600160a01b0319908116909155600f80546001600160a01b03851692169190911790555050565b3360009081526008602052604081205460c01b6001600160c01b03198116651b185d195cdd60d21b14156115ee5750600b5460c01b5b6001600160c01b0319166000908152600d60205260409020546001600160a01b0316919050565b33600090815260076020526040902080546001600160a01b031661166c576040805162461bcd60e51b81526020600482015260096024820152681b9bc81dd85b1b195d60ba1b604482015290519081900360640190fd5b8054600160a01b900460ff1615156001146116c1576040805162461bcd60e51b815260206004820152601060248201526f3737ba103bb0b63632ba1037bbb732b960811b604482015290519081900360640190fd5b80546040805163784d200b60e11b815233600482015260006024820181905291516001600160a01b039093169263f09a40169260448084019391929182900301818387803b15801561171257600080fd5b505af1158015611726573d6000803e3d6000fd5b505082546040513393506001600160a01b0390911691507f5818d755b157239746017f59fc87c7100652290409a15a7d4fba19ff98efcb5f90600090a350565b3360009081526020819052604081205460ff166117b8576040805162461bcd60e51b815260206004820152600b60248201526a6f6e6c79206f776e65727360a81b604482015290519081900360640190fd5b6001546001600160a01b03166117f257600180546001600160a01b031916331790556117e76003600036612fa0565b506002819055611d9d565b6001546001600160a01b0316331415611852576040805162461bcd60e51b815260206004820152601c60248201527f73616d65206f776e65722063616e6e6f74207369676e20747769636500000000604482015290519081900360640190fd5b60025481146118a8576040805162461bcd60e51b815260206004820152601860248201527f6d757374207369676e207468652073616d652076616c75650000000000000000604482015290519081900360640190fd5b600036604051808383808284376040519201829003822060038054919650945091925082918491506118d990613051565b801561191c5780601f106118fa57610100808354040283529182019161191c565b820191906000526020600020905b815481529060010190602001808311611908575b5050915050604051809103902014611975576040805162461bcd60e51b81526020600482015260176024820152766d757374207369676e207468652073616d65206461746160481b604482015290519081900360640190fd5b600180546001600160a01b03191690556001600160a01b0383166119cd576040805162461bcd60e51b815260206004820152600a6024820152693737903b32b939b4b7b760b11b604482015290519081900360640190fd5b6001600160a01b038216611a28576040805162461bcd60e51b815260206004820152601160248201527f6e6f206f7261636c652076657273696f6e000000000000000000000000000000604482015290519081900360640190fd5b816001600160a01b031663158ef93e6040518163ffffffff1660e01b815260040160206040518083038186803b158015611a6157600080fd5b505afa158015611a75573d6000803e3d6000fd5b505050506040513d6020811015611a8b57600080fd5b5051611ade576040805162461bcd60e51b815260206004820152601660248201527f6f7261636c65206e6f7420696e697469616c697a656400000000000000000000604482015290519081900360640190fd5b6000836001600160a01b03166354fd4d506040518163ffffffff1660e01b815260040160206040518083038186803b158015611b1957600080fd5b505afa158015611b2d573d6000803e3d6000fd5b505050506040513d6020811015611b4357600080fd5b5051604080517f54fd4d5000000000000000000000000000000000000000000000000000000000815290519192506001600160c01b03198316916001600160a01b038616916354fd4d50916004808301926020929190829003018186803b158015611bad57600080fd5b505afa158015611bc1573d6000803e3d6000fd5b505050506040513d6020811015611bd757600080fd5b50516001600160c01b03191614611c35576040805162461bcd60e51b815260206004820152601160248201527f76657273696f6e206d6973746d61746368000000000000000000000000000000604482015290519081900360640190fd5b6001600160c01b031981166000908152600a60205260409020546001600160a01b03168015611cab576040805162461bcd60e51b815260206004820152600e60248201527f76657273696f6e20657869737473000000000000000000000000000000000000604482015290519081900360640190fd5b6001600160c01b031982166000908152600d60205260409020546001600160a01b031615611d20576040805162461bcd60e51b815260206004820152600d60248201527f6f7261636c652065786973747300000000000000000000000000000000000000604482015290519081900360640190fd5b6001600160c01b031982166000818152600a6020908152604080832080546001600160a01b03808c166001600160a01b031992831617909255600d90935281842080548a8316941684179055905191939085169290917ff3c8e7c782d00f601a9d70107849e3f4894c000271e60377966bcfa99ca3ead29190a450505b505050565b6001600160a01b038082166000908152600760205260409020805490911615611e12576040805162461bcd60e51b815260206004820152601460248201527f6261636b757020686173206e6f2077616c6c6574000000000000000000000000604482015290519081900360640190fd5b8054600160a01b900460ff1615611e70576040805162461bcd60e51b815260206004820152601660248201527f6261636b75702069732077616c6c6574206f776e657200000000000000000000604482015290519081900360640190fd5b6000336001600160a01b0316638da5cb5b6040518163ffffffff1660e01b815260040160206040518083038186803b158015611eab57600080fd5b505afa158015611ebf573d6000803e3d6000fd5b505050506040513d6020811015611ed557600080fd5b50516001600160a01b038082166000908152600760205260409020805492935091163314611f37576040805162461bcd60e51b815260206004820152600a6024820152691b9bdd081dd85b1b195d60b21b604482015290519081900360640190fd5b8054600160a01b900460ff161515600114611f99576040805162461bcd60e51b815260206004820152600f60248201527f6e6f2077616c6c6574206f776e65720000000000000000000000000000000000604482015290519081900360640190fd5b505080546001600160a01b0319163317905550565b33600090815260076020526040902080546001600160a01b0316612005576040805162461bcd60e51b81526020600482015260096024820152681b9bc81dd85b1b195d60ba1b604482015290519081900360640190fd5b8054600160a01b900460ff16151560011461205a576040805162461bcd60e51b815260206004820152601060248201526f3737ba103bb0b63632ba1037bbb732b960811b604482015290519081900360640190fd5b80546001600160a01b031660009081526008602052604090205460c01b6001600160c01b03198116651b185d195cdd60d21b141561209a5750600b5460c01b5b6001600160c01b031981166000908152600a60205260409020546001600160a01b0316806120fc576040805162461bcd60e51b815260206004820152600a6024820152693737903b32b939b4b7b760b11b604482015290519081900360640190fd5b82546040805163784d200b60e11b81526000600482018190526001600160a01b0385811660248401529251929093169263f09a40169260448084019382900301818387803b15801561214d57600080fd5b505af1158015612161573d6000803e3d6000fd5b505084546040513393506001600160c01b0319861692506001600160a01b03909116907f674e126c2ea08c63dbe99eca56b1e9bd3b8d412a467e57060a5953f6e3c2060090600090a4505050565b3360009081526020819052604081205460ff16612201576040805162461bcd60e51b815260206004820152600b60248201526a6f6e6c79206f776e65727360a81b604482015290519081900360640190fd5b6001546001600160a01b031661223057600180546001600160a01b031916331790556110546003600036612fa0565b6001546001600160a01b0316331415612290576040805162461bcd60e51b815260206004820152601c60248201527f73616d65206f776e65722063616e6e6f74207369676e20747769636500000000604482015290519081900360640190fd5b60025481146122e6576040805162461bcd60e51b815260206004820152601860248201527f6d757374207369676e207468652073616d652076616c75650000000000000000604482015290519081900360640190fd5b6000366040518083838082843760405192018290038220600380549196509450919250829184915061231790613051565b801561235a5780601f1061233857610100808354040283529182019161235a565b820191906000526020600020905b815481529060010190602001808311612346575b50509150506040518091039020146123b3576040805162461bcd60e51b81526020600482015260176024820152766d757374207369676e207468652073616d65206461746160481b604482015290519081900360640190fd5b600180546001600160a01b0319908116909155600e80546001600160a01b03851692169190911790555050565b6000336001600160a01b0316638da5cb5b6040518163ffffffff1660e01b815260040160206040518083038186803b15801561241b57600080fd5b505afa15801561242f573d6000803e3d6000fd5b505050506040513d602081101561244557600080fd5b50516001600160a01b0380821660009081526007602052604090208054929350911633146124ba576040805162461bcd60e51b815260206004820152600f60248201527f66726f6d3a206e6f2077616c6c65740000000000000000000000000000000000604482015290519081900360640190fd5b8054600160a01b900460ff16151560011461251c576040805162461bcd60e51b815260206004820152601660248201527f66726f6d3a206e6f742077616c6c6574206f776e657200000000000000000000604482015290519081900360640190fd5b6001600160a01b0383811660009081526007602052604090208054909116331461258d576040805162461bcd60e51b815260206004820152601b60248201527f746f3a206e6f742073616d652077616c6c65742061732066726f6d0000000000604482015290519081900360640190fd5b8054600160a01b900460ff16156125eb576040805162461bcd60e51b815260206004820152601060248201527f746f3a2077616c6c6574206f776e657200000000000000000000000000000000604482015290519081900360640190fd5b805460ff60a01b1916600160a01b17815581547fffffffffffffffffffffff0000000000000000000000000000000000000000001682556040805163784d200b60e11b81526001600160a01b03861660048201526000602482018190529151339263f09a4016926044808201939182900301818387803b15801561266e57600080fd5b505af1158015612682573d6000803e3d6000fd5b5050505050505050565b6001600160a01b0381166126e7576040805162461bcd60e51b815260206004820152600960248201527f6e6f206261636b75700000000000000000000000000000000000000000000000604482015290519081900360640190fd5b6001600160a01b03808216600090815260076020526040902080549091163314612745576040805162461bcd60e51b815260206004820152600a6024820152691b9bdd081dd85b1b195d60b21b604482015290519081900360640190fd5b8054600160a01b900460ff16156127a3576040805162461bcd60e51b815260206004820152601760248201527f77616c6c6574206261636b7570206e6f74206578697374000000000000000000604482015290519081900360640190fd5b80546001600160a01b031916905550565b3360009081526020819052604081205460ff16612806576040805162461bcd60e51b815260206004820152600b60248201526a6f6e6c79206f776e65727360a81b604482015290519081900360640190fd5b6001546001600160a01b031661283557600180546001600160a01b031916331790556117e76003600036612fa0565b6001546001600160a01b0316331415612895576040805162461bcd60e51b815260206004820152601c60248201527f73616d65206f776e65722063616e6e6f74207369676e20747769636500000000604482015290519081900360640190fd5b60025481146128eb576040805162461bcd60e51b815260206004820152601860248201527f6d757374207369676e207468652073616d652076616c75650000000000000000604482015290519081900360640190fd5b6000366040518083838082843760405192018290038220600380549196509450919250829184915061291c90613051565b801561295f5780601f1061293d57610100808354040283529182019161295f565b820191906000526020600020905b81548152906001019060200180831161294b575b50509150506040518091039020146129b8576040805162461bcd60e51b81526020600482015260176024820152766d757374207369676e207468652073616d65206461746160481b604482015290519081900360640190fd5b600180546001600160a01b03191681556001600160a01b03841660009081526020819052604090205460ff16151514612a38576040805162461bcd60e51b815260206004820152601260248201527f6f776e65722073686f756c642065786973740000000000000000000000000000604482015290519081900360640190fd5b6001600160a01b03821660009081526020819052604090205460ff1615612aa6576040805162461bcd60e51b815260206004820152601a60248201527f6e6577206f776e65722073686f756c64206e6f74206578697374000000000000604482015290519081900360640190fd5b6001600160a01b03808416600090815260208190526040808220805460ff199081169091559285168252902080549091166001179055505050565b3360009081526020819052604090205460ff16612b33576040805162461bcd60e51b815260206004820152600b60248201526a6f6e6c79206f776e65727360a81b604482015290519081900360640190fd5b600180546001600160a01b0319169055565b6000336001600160a01b0316638da5cb5b6040518163ffffffff1660e01b815260040160206040518083038186803b158015612b8057600080fd5b505afa158015612b94573d6000803e3d6000fd5b505050506040513d6020811015612baa57600080fd5b50516001600160a01b0380821660009081526007602052604090208054929350911633148015612be757508054600160a01b900460ff1615156001145b612c38576040805162461bcd60e51b815260206004820152601a60248201527f73656e646572206973206e6f742077616c6c6574206f776e6572000000000000604482015290519081900360640190fd5b80546001600160a01b031660009081526009602052604090206001810154612ca7576040805162461bcd60e51b815260206004820152601260248201527f72657175657374206e6f74206578736973740000000000000000000000000000604482015290519081900360640190fd5b4281600101541115612d00576040805162461bcd60e51b815260206004820152600960248201527f746f6f206561726c790000000000000000000000000000000000000000000000604482015290519081900360640190fd5b805482546001600160a01b039081166000908152600860209081526040808320805467ffffffffffffffff191667ffffffffffffffff871617905560c09490941b6001600160c01b031981168352600a90915283822054845163784d200b60e11b81528885166004820152931660248401529251339263f09a401692604480830193919282900301818387803b158015612d9957600080fd5b505af1158015612dad573d6000803e3d6000fd5b50505050336001600160a01b0316638fd3ab806040518163ffffffff1660e01b8152600401600060405180830381600087803b158015612dec57600080fd5b505af1158015612e00573d6000803e3d6000fd5b505084546040516001600160c01b0319851693506001600160a01b0390911691507feafb3b932d1424e32ec924eb9695430fd852ce33327c076abb1699b72ec58f1690600090a350505050565b6000806040518060e0016040528060a681526020016130be60a691399050606084811b9084901b60005b6014811015612f8c57828160148110612ea057634e487b7160e01b600052603260045260246000fd5b1a60f81b84612eb083603d613039565b81518110612ece57634e487b7160e01b600052603260045260246000fd5b60200101907effffffffffffffffffffffffffffffffffffffffffffffffffffffffffffff1916908160001a905350818160148110612f1d57634e487b7160e01b600052603260045260246000fd5b1a60f81b84612f2d836065613039565b81518110612f4b57634e487b7160e01b600052603260045260246000fd5b60200101907effffffffffffffffffffffffffffffffffffffffffffffffffffffffffffff1916908160001a90535080612f848161308c565b915050612e77565b508251602084016000f09695505050505050565b828054612fac90613051565b90600052602060002090601f016020900481019282612fce5760008555613014565b82601f10612fe75782800160ff19823516178555613014565b82800160010185558215613014579182015b82811115613014578235825591602001919060010190612ff9565b50613020929150613024565b5090565b5b808211156130205760008155600101613025565b6000821982111561304c5761304c6130a7565b500190565b60028104600182168061306557607f821691505b6020821081141561308657634e487b7160e01b600052602260045260246000fd5b50919050565b60006000198214156130a0576130a06130a7565b5060010190565b634e487b7160e01b600052601160045260246000fdfe60998061000d6000396000f30036601657341560145734602052336001602080a25b005b6000805260046000601c376302d05d3f6000511415604b5773dadadadadadadadadadadadadadadadadadadada602052602080f35b366000803760008036600073bebebebebebebebebebebebebebebebebebebebe5af415608f57341560855734602052600051336002602080a35b3d6000803e3d6000f35b3d6000803e3d6000fda26469706673582212206180d35972b94106c4f5e2bca8ccf4b662bf2dd501d75578b9b9856fe274693964736f6c63430008020033608060405234801561001057600080fd5b50600080546001600160a01b03191633179055610d74806100326000396000f3fe60806040526004361061009a5760003560e01c80639db5dbe411610069578063e9bb84c21161004e578063e9bb84c2146102de578063f09a401614610317578063fec5a18d14610352576100ec565b80639db5dbe41461027d578063d4b83992146102c0576100ec565b806302d05d3f14610112578063260558a01461013e5780636dbf2fa0146101cd5780638da5cb5b1461025f576100ec565b366100ec576040805162461bcd60e51b815260206004820181905260248201527f73686f756c64206e6f7420616363657074206574686572206469726563746c79604482015290519081900360640190fd5b36600080376000803660006001545af43d6000803e801561010c573d6000f35b503d6000fd5b34801561011e57600080fd5b5060005b604080516001600160a01b039092168252519081900360200190f35b34801561014a57600080fd5b506101cb6004803603604081101561016157600080fd5b6001600160a01b03823516919081019060408101602082013564010000000081111561018c57600080fd5b82018360208201111561019e57600080fd5b803590602001918460018302840111640100000000831117156101c057600080fd5b50909250905061039e565b005b3480156101d957600080fd5b506101cb600480360360608110156101f057600080fd5b6001600160a01b038235169160208101359181019060608101604082013564010000000081111561022057600080fd5b82018360208201111561023257600080fd5b8035906020019184600183028401116401000000008311171561025457600080fd5b50909250905061054e565b34801561026b57600080fd5b506000546001600160a01b0316610122565b34801561028957600080fd5b506101cb600480360360608110156102a057600080fd5b506001600160a01b0381358116916020810135909116906040013561067e565b3480156102cc57600080fd5b506001546001600160a01b0316610122565b3480156102ea57600080fd5b506101cb6004803603604081101561030157600080fd5b506001600160a01b038135169060200135610840565b34801561032357600080fd5b506101cb6004803603604081101561033a57600080fd5b506001600160a01b038135811691602001351661095f565b34801561035e57600080fd5b506101cb6004803603602081101561037557600080fd5b50357fffffffffffffffff00000000000000000000000000000000000000000000000016610abf565b306001600160a01b03166302d05d3f6040518163ffffffff1660e01b815260040160206040518083038186803b1580156103d757600080fd5b505afa1580156103eb573d6000803e3d6000fd5b505050506040513d602081101561040157600080fd5b50516001600160a01b0316331461044d576040805162461bcd60e51b815260206004820152600b60248201526a3737ba1031b932b0ba37b960a91b604482015290519081900360640190fd5b600080846001600160a01b031684846040518083838082843760405192019450600093509091505080830381855afa9150503d80600081146104ab576040519150601f19603f3d011682016040523d82523d6000602084013e6104b0565b606091505b509150915081610547576104c381610c1b565b60405162461bcd60e51b81526004018080602001828103825283818151815260200191508051906020019080838360005b8381101561050c5781810151838201526020016104f4565b50505050905090810190601f1680156105395780820380516001836020036101000a031916815260200191505b509250505060405180910390fd5b5050505050565b306001600160a01b03166302d05d3f6040518163ffffffff1660e01b815260040160206040518083038186803b15801561058757600080fd5b505afa15801561059b573d6000803e3d6000fd5b505050506040513d60208110156105b157600080fd5b50516001600160a01b031633146105fd576040805162461bcd60e51b815260206004820152600b60248201526a3737ba1031b932b0ba37b960a91b604482015290519081900360640190fd5b600080856001600160a01b0316858585604051808383808284376040519201945060009350909150508083038185875af1925050503d806000811461065e576040519150601f19603f3d011682016040523d82523d6000602084013e610663565b606091505b509150915081610676576104c381610c1b565b505050505050565b306001600160a01b03166302d05d3f6040518163ffffffff1660e01b815260040160206040518083038186803b1580156106b757600080fd5b505afa1580156106cb573d6000803e3d6000fd5b505050506040513d60208110156106e157600080fd5b50516001600160a01b0316331461072d576040805162461bcd60e51b815260206004820152600b60248201526a3737ba1031b932b0ba37b960a91b604482015290519081900360640190fd5b604080516001600160a01b038481166024830152604480830185905283518084039091018152606490920183526020820180517bffffffffffffffffffffffffffffffffffffffffffffffffffffffff167fa9059cbb000000000000000000000000000000000000000000000000000000001781529251825160009485949389169362013880939092909182918083835b602083106107dd5780518252601f1990920191602091820191016107be565b6001836020036101000a03801982511681845116808217855250505050505090500191505060006040518083038160008787f1925050503d80600081146104ab576040519150601f19603f3d011682016040523d82523d6000602084013e6104b0565b306001600160a01b03166302d05d3f6040518163ffffffff1660e01b815260040160206040518083038186803b15801561087957600080fd5b505afa15801561088d573d6000803e3d6000fd5b505050506040513d60208110156108a357600080fd5b50516001600160a01b031633146108ef576040805162461bcd60e51b815260206004820152600b60248201526a3737ba1031b932b0ba37b960a91b604482015290519081900360640190fd5b60405160009081906001600160a01b03851690614e2090859084818181858888f193505050503d8060008114610941576040519150601f19603f3d011682016040523d82523d6000602084013e610946565b606091505b509150915081610959576104c381610c1b565b50505050565b306001600160a01b03166302d05d3f6040518163ffffffff1660e01b815260040160206040518083038186803b15801561099857600080fd5b505afa1580156109ac573d6000803e3d6000fd5b505050506040513d60208110156109c257600080fd5b50516001600160a01b03163314610a0e576040805162461bcd60e51b815260206004820152600b60248201526a3737ba1031b932b0ba37b960a91b604482015290519081900360640190fd5b6000546001600160a01b03838116911614801590610a3457506001600160a01b03821615155b15610a62576000805473ffffffffffffffffffffffffffffffffffffffff19166001600160a01b0384161790555b6001546001600160a01b03828116911614801590610a8857506001600160a01b03811615155b15610ab6576001805473ffffffffffffffffffffffffffffffffffffffff19166001600160a01b0383161790555b50506001600255565b6000546001600160a01b03163314610b1e576040805162461bcd60e51b815260206004820152600960248201527f6e6f74206f776e65720000000000000000000000000000000000000000000000604482015290519081900360640190fd5b306001600160a01b03166302d05d3f6040518163ffffffff1660e01b815260040160206040518083038186803b158015610b5757600080fd5b505afa158015610b6b573d6000803e3d6000fd5b505050506040513d6020811015610b8157600080fd5b5051604080517fc5f5b0480000000000000000000000000000000000000000000000000000000081527fffffffffffffffff0000000000000000000000000000000000000000000000008416600482015290516001600160a01b039092169163c5f5b0489160248082019260009290919082900301818387803b158015610c0757600080fd5b505af1158015610547573d6000803e3d6000fd5b6060604482511015610c4757604051806060016040528060258152602001610d1a602591399050610d14565b6004820180519092602401906020811015610c6157600080fd5b8101908080516040519392919084640100000000821115610c8157600080fd5b908301906020820185811115610c9657600080fd5b8251640100000000811182820188101715610cb057600080fd5b82525081516020918201929091019080838360005b83811015610cdd578181015183820152602001610cc5565b50505050905090810190601f168015610d0a5780820380516001836020036101000a031916815260200191505b5060405250505090505b91905056fe57616c6c65743a205472616e73616374696f6e2072657665727465642073696c656e746c79a2646970667358221220bce7831b4e6f20bf4257386d47df8fe7dc5eb720a91e79abbdf475899b0167cd64736f6c63430008020033608060405234801561001057600080fd5b50600080546001600160a01b031916331790556105c0806100326000396000f3fe60806040526004361061005e5760003560e01c8063d4b8399211610043578063d4b839921461020e578063f09a40161461022c578063fec5a18d14610269576100b0565b806302d05d3f146101c45780638da5cb5b146101f0576100b0565b366100b0576040805162461bcd60e51b815260206004820181905260248201527f73686f756c64206e6f7420616363657074206574686572206469726563746c79604482015290519081900360640190fd5b6000306001600160a01b03166302d05d3f6040518163ffffffff1660e01b815260040160206040518083038186803b1580156100eb57600080fd5b505afa1580156100ff573d6000803e3d6000fd5b505050506040513d602081101561011557600080fd5b5051604080517f0e6d1de900000000000000000000000000000000000000000000000000000000815290516001600160a01b0390921691630e6d1de991600480820192602092909190829003018186803b15801561017257600080fd5b505afa158015610186573d6000803e3d6000fd5b505050506040513d602081101561019c57600080fd5b505190503660008037600080366000845af43d6000803e80156101be573d6000f35b503d6000fd5b3480156101d057600080fd5b5060005b604080516001600160a01b039092168252519081900360200190f35b3480156101fc57600080fd5b506000546001600160a01b03166101d4565b34801561021a57600080fd5b506001546001600160a01b03166101d4565b34801561023857600080fd5b506102676004803603604081101561024f57600080fd5b506001600160a01b03813581169160200135166102b5565b005b34801561027557600080fd5b506102676004803603602081101561028c57600080fd5b50357fffffffffffffffff00000000000000000000000000000000000000000000000016610427565b306001600160a01b03166302d05d3f6040518163ffffffff1660e01b815260040160206040518083038186803b1580156102ee57600080fd5b505afa158015610302573d6000803e3d6000fd5b505050506040513d602081101561031857600080fd5b50516001600160a01b03163314610376576040805162461bcd60e51b815260206004820152600b60248201527f6e6f742063726561746f72000000000000000000000000000000000000000000604482015290519081900360640190fd5b6000546001600160a01b0383811691161480159061039c57506001600160a01b03821615155b156103ca576000805473ffffffffffffffffffffffffffffffffffffffff19166001600160a01b0384161790555b6001546001600160a01b038281169116148015906103f057506001600160a01b03811615155b1561041e576001805473ffffffffffffffffffffffffffffffffffffffff19166001600160a01b0383161790555b50506001600255565b6000546001600160a01b03163314610486576040805162461bcd60e51b815260206004820152600960248201527f6e6f74206f776e65720000000000000000000000000000000000000000000000604482015290519081900360640190fd5b306001600160a01b03166302d05d3f6040518163ffffffff1660e01b815260040160206040518083038186803b1580156104bf57600080fd5b505afa1580156104d3573d6000803e3d6000fd5b505050506040513d60208110156104e957600080fd5b5051604080517fc5f5b0480000000000000000000000000000000000000000000000000000000081527fffffffffffffffff0000000000000000000000000000000000000000000000008416600482015290516001600160a01b039092169163c5f5b0489160248082019260009290919082900301818387803b15801561056f57600080fd5b505af1158015610583573d6000803e3d6000fd5b505050505056fea2646970667358221220214d97a7b69c1ccb04a71ef50e6fc4b877d92ce4f85dffe1804529d72cfdc1d864736f6c63430008020033",
  "immutableReferences": {},
  "source": "// SPDX-License-Identifier: UNLICENSED\n\npragma solidity ^0.8.0;\npragma abicoder v1;\n\nimport \"./FactoryStorage.sol\";\nimport \"./lib/IOracle.sol\";\n\ncontract Factory is FactoryStorage {\n    event WalletCreated(\n        address indexed wallet,\n        bytes8 indexed version,\n        address indexed owner\n    );\n    event WalletUpgraded(address indexed wallet, bytes8 indexed version);\n    event WalletUpgradeRequested(address indexed wallet, bytes8 indexed version);\n    event WalletUpgradeDismissed(address indexed wallet, bytes8 indexed version);\n    event WalletConfigurationRestored(\n        address indexed wallet,\n        bytes8 indexed version,\n        address indexed owner\n    );\n    event WalletOwnershipRestored(\n        address indexed wallet,\n        address indexed owner\n    );\n    event WalletVersionRestored(\n        address indexed wallet,\n        bytes8 indexed version,\n        address indexed owner\n    );\n    event VersionAdded(\n        bytes8 indexed version,\n        address indexed code,\n        address indexed oracle\n    );\n    event VersionDeployed(\n        bytes8 indexed version,\n        address indexed code,\n        address indexed oracle\n    );\n\n    constructor(\n        address owner1,\n        address owner2,\n        address owner3\n    ) FactoryStorage(owner1, owner2, owner3) {}\n\n    function _createWallet(address creator, address target)\n        private\n        returns (address result)\n    {\n        bytes memory code =\n            hex\"60998061000d6000396000f30036601657341560145734602052336001602080a25b005b6000805260046000601c376302d05d3f6000511415604b5773dadadadadadadadadadadadadadadadadadadada602052602080f35b366000803760008036600073bebebebebebebebebebebebebebebebebebebebe5af415608f57341560855734602052600051336002602080a35b3d6000803e3d6000f35b3d6000803e3d6000fd\"; //log3-event-ids-address-funcid-opt (-2,-2) (min: 22440)\n        bytes20 creatorBytes = bytes20(creator);\n        bytes20 targetBytes = bytes20(target);\n        for (uint256 i = 0; i < 20; i++) {\n            code[61 + i] = creatorBytes[i];\n            code[101 + i] = targetBytes[i];\n        }\n        // solium-disable-next-line security/no-inline-assembly\n        assembly {\n            result := create(0, add(code, 0x20), mload(code))\n        }\n    }\n\n    function transferWalletOwnership(address newOwner) external {\n        address curOwner = IProxy(msg.sender).owner();\n        Wallet storage sp_sw = s_accounts_wallet[curOwner];\n        require(msg.sender == sp_sw.addr, \"from: no wallet\");\n        require(sp_sw.owner == true, \"from: not wallet owner\");\n        Wallet storage sp_sw2 = s_accounts_wallet[newOwner];\n        require(msg.sender == sp_sw2.addr, \"to: not same wallet as from\");\n        require(sp_sw2.owner == false, \"to: wallet owner\");\n        sp_sw2.owner = true;\n        sp_sw.owner = false;\n        sp_sw.addr = address(0);\n        IProxy(msg.sender).init(newOwner, address(0));\n    }\n\n    function addWalletBackup(address backup) external {\n        Wallet storage sp_sw = s_accounts_wallet[backup];\n        require(sp_sw.addr == address(0), \"backup has no wallet\");\n        require(sp_sw.owner == false, \"backup is wallet owner\"); //\n        address owner = IProxy(msg.sender).owner();\n        Wallet storage sp_sw_owner = s_accounts_wallet[owner];\n        require(msg.sender == sp_sw_owner.addr, \"not wallet\");\n        require(sp_sw_owner.owner == true, \"no wallet owner\");\n        sp_sw.addr = msg.sender;\n    }\n\n    function removeWalletBackup(address backup) external {\n        require(backup != address(0), \"no backup\");\n        Wallet storage sp_sw = s_accounts_wallet[backup];\n        require(sp_sw.addr == msg.sender, \"not wallet\");\n        require(sp_sw.owner == false, \"wallet backup not exist\");\n        sp_sw.addr = address(0);\n    }\n\n    function upgradeWalletRequest(bytes8 version) external {\n        address code = s_versions_code[version];\n        require(code != address(0), \"no version code\");\n        address owner = IProxy(msg.sender).owner();\n        Wallet storage sp_sw = s_accounts_wallet[owner];\n        require(\n            msg.sender == sp_sw.addr && sp_sw.owner == true,\n            \"sender is not wallet owner\"\n        );\n        s_wallets_upgrade_requests[sp_sw.addr] = UpgradeRequest({ version: version, validAt: block.timestamp + 48 hours});\n        emit WalletUpgradeRequested(sp_sw.addr, version);\n    }\n\n    function upgradeWalletDismiss() external {\n        address owner = IProxy(msg.sender).owner();\n        Wallet storage sp_sw = s_accounts_wallet[owner];\n        require(\n            msg.sender == sp_sw.addr && sp_sw.owner == true,\n            \"sender is not wallet owner\"\n        );\n        UpgradeRequest storage sp_upgradeRequest = s_wallets_upgrade_requests[sp_sw.addr];\n        require(\n            sp_upgradeRequest.validAt > 0,\n            \"request not exsist\"\n        );\n        sp_upgradeRequest.validAt = 0;\n        emit WalletUpgradeDismissed(sp_sw.addr, sp_upgradeRequest.version);\n    }\n\n    function upgradeWalletExecute() external {\n        address owner = IProxy(msg.sender).owner();\n        Wallet storage sp_sw = s_accounts_wallet[owner];\n        require(\n            msg.sender == sp_sw.addr && sp_sw.owner == true,\n            \"sender is not wallet owner\"\n        );\n        UpgradeRequest storage sp_upgradeRequest = s_wallets_upgrade_requests[sp_sw.addr];\n        require(\n            sp_upgradeRequest.validAt > 0,\n            \"request not exsist\"\n        );\n        require(\n            sp_upgradeRequest.validAt <= block.timestamp,\n            \"too early\"\n        );\n        bytes8 version = sp_upgradeRequest.version;\n        s_wallets_version[sp_sw.addr] = version;\n        IProxy(msg.sender).init(owner, s_versions_code[version]);\n        IStorage(msg.sender).migrate();\n        emit WalletUpgraded(sp_sw.addr, version);\n    }\n\n    function addVersion(address target, address targetOracle)\n        public\n        multiSig2of3(0)\n    {\n        require(target != address(0), \"no version\");\n        require(targetOracle != address(0), \"no oracle version\");\n        require(\n            IOracle(targetOracle).initialized() != false,\n            \"oracle not initialized\"\n        );\n        bytes8 version = IStorage(target).version();\n        require(IOracle(targetOracle).version() == version, \"version mistmatch\");\n        address code = s_versions_code[version];\n        require(code == address(0), \"version exists\");\n        require(s_versions_oracle[version] == address(0), \"oracle exists\");\n        s_versions_code[version] = target;\n        s_versions_oracle[version] = targetOracle;\n        emit VersionAdded(version, code, targetOracle);\n    }\n\n    function deployVersion(bytes8 version) public multiSig2of3(0) {\n        address code = s_versions_code[version];\n        require(code != address(0), \"version not exist\");\n        address oracleAddress = s_versions_oracle[version];\n        require(oracleAddress != address(0), \"oracle not exist\");\n        s_production_version = version;\n        s_production_version_code = code;\n        s_production_version_oracle = oracleAddress;\n        emit VersionDeployed(version, code, oracleAddress);\n    }\n\n    function restoreWalletConfiguration() public {\n        Wallet storage sp_sw = s_accounts_wallet[msg.sender];\n        require(sp_sw.addr != address(0), \"no wallet\");\n        require(sp_sw.owner == true, \"not wallet owner\");\n        bytes8 version = s_wallets_version[sp_sw.addr];\n        if (version == LATEST) {\n            version = s_production_version;\n        }\n        address code = s_versions_code[version];\n        require(code != address(0), \"version not exist\");\n        IProxy(sp_sw.addr).init(msg.sender, code);\n        emit WalletConfigurationRestored(sp_sw.addr, version, msg.sender);\n    }\n\n    function restoreWalletOwnership() public {\n        Wallet storage sp_sw = s_accounts_wallet[msg.sender];\n        require(sp_sw.addr != address(0), \"no wallet\");\n        require(sp_sw.owner == true, \"not wallet owner\");\n\n        IProxy(sp_sw.addr).init(msg.sender, address(0));\n        emit WalletOwnershipRestored(sp_sw.addr, msg.sender);\n    }\n\n    function restoreWalletVersion() public {\n        Wallet storage sp_sw = s_accounts_wallet[msg.sender];\n        require(sp_sw.addr != address(0), \"no wallet\");\n        require(sp_sw.owner == true, \"not wallet owner\");\n\n        bytes8 version = s_wallets_version[sp_sw.addr];\n        if (version == LATEST) {\n            version = s_production_version;\n        }\n        address code = s_versions_code[version];\n        require(code != address(0), \"no version\");\n        IProxy(sp_sw.addr).init(address(0), code);\n        emit WalletVersionRestored(sp_sw.addr, version, msg.sender);\n    }\n\n    function getLatestVersion() public view returns (address) {\n        return s_production_version_code;\n    }\n\n    function getWallet(address account) public view returns (address) {\n        return s_accounts_wallet[account].addr;\n    }\n\n    function getWalletDebt(address account) public view returns (uint88) {\n        return s_accounts_wallet[account].debt;\n    }\n\n    function createWallet(bool autoMode) public returns (address) {\n        require(address(s_swProxy) != address(0), \"no proxy\");\n        require(s_production_version_code != address(0), \"no prod version\"); //Must be here - ProxyLatest also needs it.\n        Wallet storage sp_sw = s_accounts_wallet[msg.sender];\n        if (sp_sw.addr == address(0)) {\n            sp_sw.addr = _createWallet(address(this), address(s_swProxy));\n            require(sp_sw.addr != address(0), \"wallet not created\");\n            sp_sw.owner = true;\n            if (autoMode) {\n                require(\n                    address(s_swProxyLatest) != address(0),\n                    \"no auto version\"\n                );\n                require(\n                    s_versions_code[LATEST] == address(s_swProxyLatest),\n                    \"incorrect auto version\"\n                );\n                s_wallets_version[sp_sw.addr] = LATEST;\n                IProxy(sp_sw.addr).init(msg.sender, address(s_swProxyLatest));\n                IStorage(sp_sw.addr).migrate();\n                emit WalletCreated(sp_sw.addr, LATEST, msg.sender);\n            } else {\n                s_wallets_version[sp_sw.addr] = s_production_version;\n                IProxy(sp_sw.addr).init(msg.sender, s_production_version_code);\n                IStorage(sp_sw.addr).migrate();\n                emit WalletCreated(sp_sw.addr, s_production_version, msg.sender);\n            }\n        }\n        return sp_sw.addr;\n    }\n\n    function oracle() public view returns (address oracleAddress) {\n        bytes8 version = s_wallets_version[msg.sender];\n        if (version == LATEST) {\n            version = s_production_version;\n        }\n        oracleAddress = s_versions_oracle[version];\n    }\n\n    function setOperator(address newOperator) public  multiSig2of3(0) {\n      s_operator = newOperator;\n    }\n\n    function setActivator(address newActivator) public  multiSig2of3(0) {\n      s_activator = newActivator;\n    }\n\n    /*\n    receive () external payable {\n      if (msg.value > 0) {\n        emit GotEther(msg.sender, msg.value);\n      }\n    }\n    */\n\n    fallback() external {\n        /*\n        bytes8 _version = wallets_version[msg.sender];\n        if (_version == LATEST) {\n            _version = production_version;\n        }\n        address _oracle = versions_oracle[_version];\n       */\n        //require(_oracle != address(0), \"no oracle code\");\n        /*\n        // solium-disable-next-line security/no-inline-assembly\n        assembly {\n                calldatacopy(0x00, 0x00, calldatasize)\n                //let res := call(gas, sload(oracle_slot), callvalue, 0x00, calldatasize, 0, 0)\n                let res := staticcall(gas, sload(_oracle), 0x00, calldatasize, 0, 0)\n                returndatacopy(0x00, 0x00, returndatasize)\n                if res { return(0x00, returndatasize) }\n                revert(0x00, returndatasize)\n            }\n            */\n    }\n}\n",
  "sourcePath": "/opt/storage/data1/code/kirobo/ki-eth-contracts/contracts/Factory.sol",
  "compiler": {
    "name": "solc",
    "version": "0.8.2+commit.661d1103.Emscripten.clang"
  },
  "schemaVersion": "3.3.4",
  "updatedAt": "2021-05-02T20:37:10.490Z",
  "networkType": "ethereum",
  "devdoc": {
    "kind": "dev",
    "methods": {},
    "version": 1
  },
  "userdoc": {
    "kind": "user",
    "methods": {},
    "version": 1
  }
}