{
  "contractName": "Factory",
  "abi": [
    {
      "inputs": [],
      "stateMutability": "nonpayable",
      "type": "constructor"
    },
    {
      "anonymous": false,
      "inputs": [
        {
          "indexed": true,
          "internalType": "address",
          "name": "wallet",
          "type": "address"
        },
        {
          "indexed": false,
          "internalType": "uint256",
          "name": "nonce",
          "type": "uint256"
        },
        {
          "indexed": false,
          "internalType": "uint256",
          "name": "index",
          "type": "uint256"
        },
        {
          "indexed": false,
          "internalType": "uint256",
          "name": "innerIndex",
          "type": "uint256"
        }
      ],
      "name": "BatchMultiSigCallPackedFailed",
      "type": "event"
    },
    {
      "anonymous": false,
      "inputs": [
        {
          "indexed": true,
          "internalType": "uint256",
          "name": "mode",
          "type": "uint256"
        },
        {
          "indexed": false,
          "internalType": "uint256",
          "name": "block",
          "type": "uint256"
        },
        {
          "indexed": false,
          "internalType": "uint256",
          "name": "nonce",
          "type": "uint256"
        }
      ],
      "name": "BatchTransfered",
      "type": "event"
    },
    {
      "anonymous": false,
      "inputs": [
        {
          "indexed": true,
          "internalType": "address",
          "name": "previousOwner",
          "type": "address"
        },
        {
          "indexed": true,
          "internalType": "address",
          "name": "newOwner",
          "type": "address"
        }
      ],
      "name": "OwnershipTransferred",
      "type": "event"
    },
    {
      "anonymous": false,
      "inputs": [
        {
          "indexed": true,
          "internalType": "bytes8",
          "name": "version",
          "type": "bytes8"
        },
        {
          "indexed": true,
          "internalType": "address",
          "name": "code",
          "type": "address"
        },
        {
          "indexed": true,
          "internalType": "address",
          "name": "oracle",
          "type": "address"
        }
      ],
      "name": "VersionAdded",
      "type": "event"
    },
    {
      "anonymous": false,
      "inputs": [
        {
          "indexed": true,
          "internalType": "bytes8",
          "name": "version",
          "type": "bytes8"
        },
        {
          "indexed": true,
          "internalType": "address",
          "name": "code",
          "type": "address"
        },
        {
          "indexed": true,
          "internalType": "address",
          "name": "oracle",
          "type": "address"
        }
      ],
      "name": "VersionDeployed",
      "type": "event"
    },
    {
      "anonymous": false,
      "inputs": [
        {
          "indexed": true,
          "internalType": "address",
          "name": "wallet",
          "type": "address"
        },
        {
          "indexed": true,
          "internalType": "address",
          "name": "backup",
          "type": "address"
        }
      ],
      "name": "WalletBackupRemoved",
      "type": "event"
    },
    {
      "anonymous": false,
      "inputs": [
        {
          "indexed": true,
          "internalType": "address",
          "name": "wallet",
          "type": "address"
        },
        {
          "indexed": true,
          "internalType": "address",
          "name": "owner",
          "type": "address"
        },
        {
          "indexed": true,
          "internalType": "address",
          "name": "backup",
          "type": "address"
        }
      ],
      "name": "WalletBakcupCreated",
      "type": "event"
    },
    {
      "anonymous": false,
      "inputs": [
        {
          "indexed": true,
          "internalType": "address",
          "name": "wallet",
          "type": "address"
        },
        {
          "indexed": true,
          "internalType": "bytes8",
          "name": "version",
          "type": "bytes8"
        },
        {
          "indexed": true,
          "internalType": "address",
          "name": "owner",
          "type": "address"
        }
      ],
      "name": "WalletConfigurationRestored",
      "type": "event"
    },
    {
      "anonymous": false,
      "inputs": [
        {
          "indexed": true,
          "internalType": "address",
          "name": "wallet",
          "type": "address"
        },
        {
          "indexed": true,
          "internalType": "bytes8",
          "name": "version",
          "type": "bytes8"
        },
        {
          "indexed": true,
          "internalType": "address",
          "name": "owner",
          "type": "address"
        }
      ],
      "name": "WalletCreated",
      "type": "event"
    },
    {
      "anonymous": false,
      "inputs": [
        {
          "indexed": true,
          "internalType": "address",
          "name": "wallet",
          "type": "address"
        },
        {
          "indexed": true,
          "internalType": "address",
          "name": "owner",
          "type": "address"
        }
      ],
      "name": "WalletOwnershipRestored",
      "type": "event"
    },
    {
      "anonymous": false,
      "inputs": [
        {
          "indexed": true,
          "internalType": "address",
          "name": "wallet",
          "type": "address"
        },
        {
          "indexed": true,
          "internalType": "address",
          "name": "owner",
          "type": "address"
        },
        {
          "indexed": true,
          "internalType": "address",
          "name": "newOwner",
          "type": "address"
        }
      ],
      "name": "WalletOwnershipTransfered",
      "type": "event"
    },
    {
      "anonymous": false,
      "inputs": [
        {
          "indexed": true,
          "internalType": "address",
          "name": "wallet",
          "type": "address"
        },
        {
          "indexed": true,
          "internalType": "bytes8",
          "name": "version",
          "type": "bytes8"
        }
      ],
      "name": "WalletUpgradeDismissed",
      "type": "event"
    },
    {
      "anonymous": false,
      "inputs": [
        {
          "indexed": true,
          "internalType": "address",
          "name": "wallet",
          "type": "address"
        },
        {
          "indexed": true,
          "internalType": "bytes8",
          "name": "version",
          "type": "bytes8"
        }
      ],
      "name": "WalletUpgradeRequested",
      "type": "event"
    },
    {
      "anonymous": false,
      "inputs": [
        {
          "indexed": true,
          "internalType": "address",
          "name": "wallet",
          "type": "address"
        },
        {
          "indexed": true,
          "internalType": "bytes8",
          "name": "version",
          "type": "bytes8"
        }
      ],
      "name": "WalletUpgraded",
      "type": "event"
    },
    {
      "anonymous": false,
      "inputs": [
        {
          "indexed": true,
          "internalType": "address",
          "name": "wallet",
          "type": "address"
        },
        {
          "indexed": true,
          "internalType": "bytes8",
          "name": "version",
          "type": "bytes8"
        },
        {
          "indexed": true,
          "internalType": "address",
          "name": "owner",
          "type": "address"
        }
      ],
      "name": "WalletVersionRestored",
      "type": "event"
    },
    {
      "inputs": [],
      "name": "BATCH_MULTI_SIG_CALL_LIMITS_TYPEHASH",
      "outputs": [
        {
          "internalType": "bytes32",
          "name": "",
          "type": "bytes32"
        }
      ],
      "stateMutability": "view",
      "type": "function"
    },
    {
      "inputs": [],
      "name": "BATCH_MULTI_SIG_CALL_TRANSACTION_TYPEHASH",
      "outputs": [
        {
          "internalType": "bytes32",
          "name": "",
          "type": "bytes32"
        }
      ],
      "stateMutability": "view",
      "type": "function"
    },
    {
      "inputs": [],
      "name": "BATCH_MULTI_SIG_CALL_TYPEHASH",
      "outputs": [
        {
          "internalType": "bytes32",
          "name": "",
          "type": "bytes32"
        }
      ],
      "stateMutability": "view",
      "type": "function"
    },
    {
      "inputs": [],
      "name": "CHAIN_ID",
      "outputs": [
        {
          "internalType": "uint256",
          "name": "",
          "type": "uint256"
        }
      ],
      "stateMutability": "view",
      "type": "function"
    },
    {
      "inputs": [],
      "name": "DOMAIN_SEPARATOR",
      "outputs": [
        {
          "internalType": "bytes32",
          "name": "",
          "type": "bytes32"
        }
      ],
      "stateMutability": "view",
      "type": "function"
    },
    {
      "inputs": [],
      "name": "LATEST",
      "outputs": [
        {
          "internalType": "bytes8",
          "name": "",
          "type": "bytes8"
        }
      ],
      "stateMutability": "view",
      "type": "function"
    },
    {
      "inputs": [],
      "name": "owner",
      "outputs": [
        {
          "internalType": "address",
          "name": "",
          "type": "address"
        }
      ],
      "stateMutability": "view",
      "type": "function"
    },
    {
      "inputs": [],
      "name": "renounceOwnership",
      "outputs": [],
      "stateMutability": "nonpayable",
      "type": "function"
    },
    {
      "inputs": [],
      "name": "s_frozen",
      "outputs": [
        {
          "internalType": "bool",
          "name": "",
          "type": "bool"
        }
      ],
      "stateMutability": "view",
      "type": "function"
    },
    {
      "inputs": [
        {
          "internalType": "address",
          "name": "newOwner",
          "type": "address"
        }
      ],
      "name": "transferOwnership",
      "outputs": [],
      "stateMutability": "nonpayable",
      "type": "function"
    },
    {
      "inputs": [],
      "name": "isOwner",
      "outputs": [
        {
          "internalType": "bool",
          "name": "",
          "type": "bool"
        }
      ],
      "stateMutability": "view",
      "type": "function"
    },
    {
      "inputs": [
        {
          "internalType": "address",
          "name": "newOwner",
          "type": "address"
        }
      ],
      "name": "transferWalletOwnership",
      "outputs": [],
      "stateMutability": "nonpayable",
      "type": "function"
    },
    {
      "inputs": [
        {
          "internalType": "address",
          "name": "backup",
          "type": "address"
        }
      ],
      "name": "addWalletBackup",
      "outputs": [],
      "stateMutability": "nonpayable",
      "type": "function"
    },
    {
      "inputs": [
        {
          "internalType": "address",
          "name": "backup",
          "type": "address"
        }
      ],
      "name": "removeWalletBackup",
      "outputs": [],
      "stateMutability": "nonpayable",
      "type": "function"
    },
    {
      "inputs": [
        {
          "internalType": "bytes8",
          "name": "version",
          "type": "bytes8"
        }
      ],
      "name": "upgradeWalletRequest",
      "outputs": [],
      "stateMutability": "nonpayable",
      "type": "function"
    },
    {
      "inputs": [],
      "name": "upgradeWalletDismiss",
      "outputs": [],
      "stateMutability": "nonpayable",
      "type": "function"
    },
    {
      "inputs": [],
      "name": "upgradeWalletExecute",
      "outputs": [],
      "stateMutability": "nonpayable",
      "type": "function"
    },
    {
      "inputs": [
        {
          "internalType": "address",
          "name": "target",
          "type": "address"
        },
        {
          "internalType": "address",
          "name": "targetOracle",
          "type": "address"
        }
      ],
      "name": "addVersion",
      "outputs": [],
      "stateMutability": "nonpayable",
      "type": "function"
    },
    {
      "inputs": [
        {
          "internalType": "bytes8",
          "name": "version",
          "type": "bytes8"
        }
      ],
      "name": "deployVersion",
      "outputs": [],
      "stateMutability": "nonpayable",
      "type": "function"
    },
    {
      "inputs": [],
      "name": "restoreWalletConfiguration",
      "outputs": [],
      "stateMutability": "nonpayable",
      "type": "function"
    },
    {
      "inputs": [],
      "name": "restoreWalletOwnership",
      "outputs": [],
      "stateMutability": "nonpayable",
      "type": "function"
    },
    {
      "inputs": [],
      "name": "restoreWalletVersion",
      "outputs": [],
      "stateMutability": "nonpayable",
      "type": "function"
    },
    {
      "inputs": [],
      "name": "getLatestVersion",
      "outputs": [
        {
          "internalType": "address",
          "name": "",
          "type": "address"
        }
      ],
      "stateMutability": "view",
      "type": "function"
    },
    {
      "inputs": [
        {
          "internalType": "address",
          "name": "account",
          "type": "address"
        }
      ],
      "name": "getWallet",
      "outputs": [
        {
          "internalType": "address",
          "name": "",
          "type": "address"
        }
      ],
      "stateMutability": "view",
      "type": "function"
    },
    {
      "inputs": [
        {
          "internalType": "address",
          "name": "account",
          "type": "address"
        }
      ],
      "name": "getWalletDebt",
      "outputs": [
        {
          "internalType": "uint88",
          "name": "",
          "type": "uint88"
        }
      ],
      "stateMutability": "view",
      "type": "function"
    },
    {
      "inputs": [
        {
          "internalType": "bool",
          "name": "autoMode",
          "type": "bool"
        }
      ],
      "name": "createWallet",
      "outputs": [
        {
          "internalType": "address",
          "name": "",
          "type": "address"
        }
      ],
      "stateMutability": "nonpayable",
      "type": "function"
    },
    {
      "inputs": [],
      "name": "oracle",
      "outputs": [
        {
          "internalType": "address",
          "name": "oracleAddress",
          "type": "address"
        }
      ],
      "stateMutability": "view",
      "type": "function"
    }
  ],
  "bytecode": "0x60806040523480156200001157600080fd5b506200001d33620000f7565b6040516200002b9062000147565b604051809103906000f08015801562000048573d6000803e3d6000fd5b50600280546001600160a01b0319166001600160a01b0392909216919091179055604051620000779062000155565b604051809103906000f08015801562000094573d6000803e3d6000fd5b50600380546001600160a01b03929092166001600160a01b03199283168117909155651b185d195cdd60d21b60005260076020527f2a3f3ea100e75b92349ded449e14dab25a5afa6b5c3043834a80569d459659b3805490921617905562000163565b600080546001600160a01b038381166001600160a01b0319831681178455604051919092169283917f8be0079c531659141344cd1fd0a4f28419497f9722a3daafe3b4186f6b6457e09190a35050565b610eb5806200261d83390190565b61053b80620034d283390190565b6124aa80620001736000396000f3fe608060405234801561001057600080fd5b50600436106101a95760003560e01c806385e1f4d0116100f9578063a7ecbd8d11610097578063cde420d411610071578063cde420d4146103d9578063cf2f774114610400578063ee85896814610413578063f2fde38b1461041b57600080fd5b8063a7ecbd8d146103b1578063bf3b1101146103b9578063c411ce9a146103cc57600080fd5b80638f32d59b116100d35780638f32d59b1461034c57806397e61ee414610364578063a18a359214610377578063a196de831461039e57600080fd5b806385e1f4d0146103095780638c576fc3146103125780638da5cb5b1461033b57600080fd5b80633644e51511610166578063785c684111610140578063785c6841146102795780637dc0d1d0146102d257806384017e9e146102da578063842bb7321461030157600080fd5b80633644e515146102475780634b613c201461025e578063715018a61461027157600080fd5b806304d0a647146101ae578063065c5000146101f75780630e6d1de9146102015780631a05b142146102195780631a34bf7b146102215780632bc68db714610234575b600080fd5b6101da6101bc3660046121ac565b6001600160a01b039081166000908152600460205260409020541690565b6040516001600160a01b0390911681526020015b60405180910390f35b6101ff61042e565b005b600854600160401b90046001600160a01b03166101da565b6101ff6105b1565b6101ff61022f36600461225b565b610761565b6101da610242366004612223565b610934565b610250600d5481565b6040519081526020016101ee565b6101ff61026c36600461225b565b610de2565b6101ff610f53565b6102b66102873660046121ac565b6001600160a01b0316600090815260046020526040902054600160a81b90046affffffffffffffffffffff1690565b6040516affffffffffffffffffffff90911681526020016101ee565b6101da610f89565b6102507f35003f325e988c91f18b3f34e8f472f01101e6ec716b790224c5ea764360a6de81565b6101ff610fe6565b610250600e5481565b610322651b185d195cdd60d21b81565b6040516001600160c01b031990911681526020016101ee565b6000546001600160a01b03166101da565b6103546110e3565b60405190151581526020016101ee565b6101ff6103723660046121eb565b611107565b6102507f7406f509561cded1fb8d0b04e508006fe023e31067b4d47c53f740a2d61a70db81565b6101ff6103ac3660046121ac565b6114f2565b6101ff611765565b6101ff6103c73660046121ac565b61190f565b600f546103549060ff1681565b6102507fb01f70f4696dcff4d93db6a62106ddf54ba4a3d9041a71c319924d6a476d7b0f81565b6101ff61040e3660046121ac565b611baf565b6101ff611ceb565b6101ff6104293660046121ac565b611f9e565b6000336001600160a01b0316638da5cb5b6040518163ffffffff1660e01b815260040160206040518083038186803b15801561046957600080fd5b505afa15801561047d573d6000803e3d6000fd5b505050506040513d601f19601f820116820180604052508101906104a191906121cf565b6001600160a01b03818116600090815260046020526040902080549293509116331480156104d757508054600160a01b900460ff165b6104fc5760405162461bcd60e51b81526004016104f390612315565b60405180910390fd5b80546001600160a01b03166000908152600660205260409020600181015461055b5760405162461bcd60e51b81526020600482015260126024820152711c995c5d595cdd081b9bdd08195e1cda5cdd60721b60448201526064016104f3565b6000600182018190558154835460405160c09290921b6001600160c01b031916926001600160a01b03909116917f961290359efe263198ef169c00e476f9ad4e7a4c16df78e709c88f1f84747ddf9190a3505050565b33600090815260046020526040902080546001600160a01b03166105e75760405162461bcd60e51b81526004016104f390612293565b8054600160a01b900460ff1661060f5760405162461bcd60e51b81526004016104f3906122b6565b80546001600160a01b031660009081526005602052604090205460c01b6001600160c01b03198116651b185d195cdd60d21b141561064f575060085460c01b5b6001600160c01b031981166000908152600760205260409020546001600160a01b0316806106b35760405162461bcd60e51b81526020600482015260116024820152701d995c9cda5bdb881b9bdd08195e1a5cdd607a1b60448201526064016104f3565b825460405163784d200b60e11b81523360048201526001600160a01b0383811660248301529091169063f09a401690604401600060405180830381600087803b1580156106ff57600080fd5b505af1158015610713573d6000803e3d6000fd5b505084546040513393506001600160c01b0319861692506001600160a01b03909116907f9dff4715dcc255fd0abdc515933401366bac62424c60e57d607dfe9003f2dc1790600090a4505050565b6001600160c01b031981166000908152600760205260409020546001600160a01b0316806107c35760405162461bcd60e51b815260206004820152600f60248201526e6e6f2076657273696f6e20636f646560881b60448201526064016104f3565b6000336001600160a01b0316638da5cb5b6040518163ffffffff1660e01b815260040160206040518083038186803b1580156107fe57600080fd5b505afa158015610812573d6000803e3d6000fd5b505050506040513d601f19601f8201168201806040525081019061083691906121cf565b6001600160a01b038181166000908152600460205260409020805492935091163314801561086c57508054600160a01b900460ff165b6108885760405162461bcd60e51b81526004016104f390612315565b604080518082019091526001600160c01b031985168152602081016108b0426202a30061234c565b905281546001600160a01b0390811660009081526006602090815260408083208551815467ffffffffffffffff191660c09190911c1781559490910151600190940193909355835492516001600160c01b0319881693909216917fd8b538975844017c9b6a22b04268c624c8a43b3e15f89bd7e22afb30238732ea9190a350505050565b6002546000906001600160a01b031661097a5760405162461bcd60e51b81526020600482015260086024820152676e6f2070726f787960c01b60448201526064016104f3565b600854600160401b90046001600160a01b03166109cb5760405162461bcd60e51b815260206004820152600f60248201526e373790383937b2103b32b939b4b7b760891b60448201526064016104f3565b33600090815260046020526040902080546001600160a01b0316610dd257600254610a009030906001600160a01b0316612039565b81546001600160a01b0319166001600160a01b03919091169081178255610a5e5760405162461bcd60e51b81526020600482015260126024820152711dd85b1b195d081b9bdd0818dc99585d195960721b60448201526064016104f3565b805460ff60a01b1916600160a01b1781558215610c83576003546001600160a01b0316610abf5760405162461bcd60e51b815260206004820152600f60248201526e37379030baba37903b32b939b4b7b760891b60448201526064016104f3565b600354651b185d195cdd60d21b60005260076020527f2a3f3ea100e75b92349ded449e14dab25a5afa6b5c3043834a80569d459659b3546001600160a01b03908116911614610b495760405162461bcd60e51b815260206004820152601660248201527534b731b7b93932b1ba1030baba37903b32b939b4b7b760511b60448201526064016104f3565b80546001600160a01b0390811660009081526005602052604090819020805467ffffffffffffffff1916676c617465737400001790558254600354915163784d200b60e11b815233600482015291831660248301529091169063f09a401690604401600060405180830381600087803b158015610bc557600080fd5b505af1158015610bd9573d6000803e3d6000fd5b505082546040805163011fa75760e71b815290516001600160a01b039092169350638fd3ab80925060048082019260009290919082900301818387803b158015610c2257600080fd5b505af1158015610c36573d6000803e3d6000fd5b50508254604051339350651b185d195cdd60d21b92506001600160a01b03909116907f689c6b1155ee0314d789d2c8968b47cb04b9c8592446c127023fc6399b17310c90600090a4610dd2565b6008805482546001600160a01b0390811660009081526005602052604090819020805467ffffffffffffffff191667ffffffffffffffff9094169390931790925583549254915163784d200b60e11b8152336004820152600160401b90920481166024830152919091169063f09a401690604401600060405180830381600087803b158015610d1157600080fd5b505af1158015610d25573d6000803e3d6000fd5b505082546040805163011fa75760e71b815290516001600160a01b039092169350638fd3ab80925060048082019260009290919082900301818387803b158015610d6e57600080fd5b505af1158015610d82573d6000803e3d6000fd5b5050600854835460405133945060c09290921b6001600160c01b03191692506001600160a01b0316907f689c6b1155ee0314d789d2c8968b47cb04b9c8592446c127023fc6399b17310c90600090a45b546001600160a01b031692915050565b6000546001600160a01b03163314610e0c5760405162461bcd60e51b81526004016104f3906122e0565b6001600160c01b031981166000908152600760205260409020546001600160a01b031680610e705760405162461bcd60e51b81526020600482015260116024820152701d995c9cda5bdb881b9bdd08195e1a5cdd607a1b60448201526064016104f3565b6001600160c01b031982166000908152600a60205260409020546001600160a01b031680610ed35760405162461bcd60e51b815260206004820152601060248201526f1bdc9858db19481b9bdd08195e1a5cdd60821b60448201526064016104f3565b600880546001600160a01b03808516600160401b81026001600160e01b031990931660c088901c1792909217909255600980549284166001600160a01b0319909316831790556040516001600160c01b03198616907fb4d04ce57b22f1de0bfbaebe42d34d0616a77b6de95fde396bbd054851d22f5890600090a4505050565b6000546001600160a01b03163314610f7d5760405162461bcd60e51b81526004016104f3906122e0565b610f87600061215c565b565b3360009081526005602052604081205460c01b6001600160c01b03198116651b185d195cdd60d21b1415610fbf575060085460c01b5b6001600160c01b0319166000908152600a60205260409020546001600160a01b0316919050565b33600090815260046020526040902080546001600160a01b031661101c5760405162461bcd60e51b81526004016104f390612293565b8054600160a01b900460ff166110445760405162461bcd60e51b81526004016104f3906122b6565b805460405163784d200b60e11b8152336004820152600060248201526001600160a01b039091169063f09a401690604401600060405180830381600087803b15801561108f57600080fd5b505af11580156110a3573d6000803e3d6000fd5b505082546040513393506001600160a01b0390911691507f5818d755b157239746017f59fc87c7100652290409a15a7d4fba19ff98efcb5f90600090a350565b6000336110f86000546001600160a01b031690565b6001600160a01b031614905090565b6000546001600160a01b031633146111315760405162461bcd60e51b81526004016104f3906122e0565b6001600160a01b0382166111745760405162461bcd60e51b815260206004820152600a6024820152693737903b32b939b4b7b760b11b60448201526064016104f3565b6001600160a01b0381166111be5760405162461bcd60e51b815260206004820152601160248201527037379037b930b1b632903b32b939b4b7b760791b60448201526064016104f3565b806001600160a01b031663158ef93e6040518163ffffffff1660e01b815260040160206040518083038186803b1580156111f757600080fd5b505afa15801561120b573d6000803e3d6000fd5b505050506040513d601f19601f8201168201806040525081019061122f919061223f565b6112745760405162461bcd60e51b81526020600482015260166024820152751bdc9858db19481b9bdd081a5b9a5d1a585b1a5e995960521b60448201526064016104f3565b6000826001600160a01b03166354fd4d506040518163ffffffff1660e01b815260040160206040518083038186803b1580156112af57600080fd5b505afa1580156112c3573d6000803e3d6000fd5b505050506040513d601f19601f820116820180604052508101906112e79190612277565b9050806001600160c01b031916826001600160a01b03166354fd4d506040518163ffffffff1660e01b815260040160206040518083038186803b15801561132d57600080fd5b505afa158015611341573d6000803e3d6000fd5b505050506040513d601f19601f820116820180604052508101906113659190612277565b6001600160c01b031916146113b05760405162461bcd60e51b81526020600482015260116024820152700eccae4e6d2dedc40dad2e6e8dac2e8c6d607b1b60448201526064016104f3565b6001600160c01b031981166000908152600760205260409020546001600160a01b031680156114125760405162461bcd60e51b815260206004820152600e60248201526d76657273696f6e2065786973747360901b60448201526064016104f3565b6001600160c01b031982166000908152600a60205260409020546001600160a01b0316156114725760405162461bcd60e51b815260206004820152600d60248201526c6f7261636c652065786973747360981b60448201526064016104f3565b6001600160c01b03198216600081815260076020908152604080832080546001600160a01b03808b166001600160a01b031992831617909255600a9093528184208054898316941684179055905191939085169290917ff3c8e7c782d00f601a9d70107849e3f4894c000271e60377966bcfa99ca3ead29190a450505050565b6001600160a01b0381166115485760405162461bcd60e51b815260206004820152601c60248201527f696e707574206261636b75702077616c6c656420697320656d7074790000000060448201526064016104f3565b6001600160a01b0380821660009081526004602052604090208054909116156115aa5760405162461bcd60e51b8152602060048201526014602482015273189858dadd5c081a185cc81b9bc81dd85b1b195d60621b60448201526064016104f3565b8054600160a01b900460ff16156115fc5760405162461bcd60e51b81526020600482015260166024820152753130b1b5bab81034b9903bb0b63632ba1037bbb732b960511b60448201526064016104f3565b6000336001600160a01b0316638da5cb5b6040518163ffffffff1660e01b815260040160206040518083038186803b15801561163757600080fd5b505afa15801561164b573d6000803e3d6000fd5b505050506040513d601f19601f8201168201806040525081019061166f91906121cf565b6001600160a01b0381811660009081526004602052604090208054929350911633146116ca5760405162461bcd60e51b815260206004820152600a6024820152691b9bdd081dd85b1b195d60b21b60448201526064016104f3565b8054600160a01b900460ff166117145760405162461bcd60e51b815260206004820152600f60248201526e3737903bb0b63632ba1037bbb732b960891b60448201526064016104f3565b82546001600160a01b0319163390811784556040516001600160a01b0386811692908516917f3ad2922e4515f4b3c6ab65f6821393167f3c684aa85b6decef33c3585f72127f90600090a450505050565b33600090815260046020526040902080546001600160a01b031661179b5760405162461bcd60e51b81526004016104f390612293565b8054600160a01b900460ff166117c35760405162461bcd60e51b81526004016104f3906122b6565b80546001600160a01b031660009081526005602052604090205460c01b6001600160c01b03198116651b185d195cdd60d21b1415611803575060085460c01b5b6001600160c01b031981166000908152600760205260409020546001600160a01b0316806118605760405162461bcd60e51b815260206004820152600a6024820152693737903b32b939b4b7b760b11b60448201526064016104f3565b825460405163784d200b60e11b8152600060048201526001600160a01b0383811660248301529091169063f09a401690604401600060405180830381600087803b1580156118ad57600080fd5b505af11580156118c1573d6000803e3d6000fd5b505084546040513393506001600160c01b0319861692506001600160a01b03909116907f674e126c2ea08c63dbe99eca56b1e9bd3b8d412a467e57060a5953f6e3c2060090600090a4505050565b6000336001600160a01b0316638da5cb5b6040518163ffffffff1660e01b815260040160206040518083038186803b15801561194a57600080fd5b505afa15801561195e573d6000803e3d6000fd5b505050506040513d601f19601f8201168201806040525081019061198291906121cf565b6001600160a01b0381811660009081526004602052604090208054929350911633146119e25760405162461bcd60e51b815260206004820152600f60248201526e199c9bdb4e881b9bc81dd85b1b195d608a1b60448201526064016104f3565b8054600160a01b900460ff16611a335760405162461bcd60e51b8152602060048201526016602482015275333937b69d103737ba103bb0b63632ba1037bbb732b960511b60448201526064016104f3565b6001600160a01b03838116600090815260046020526040902080549091163314611a9f5760405162461bcd60e51b815260206004820152601b60248201527f746f3a206e6f742073616d652077616c6c65742061732066726f6d000000000060448201526064016104f3565b8054600160a01b900460ff1615611aeb5760405162461bcd60e51b815260206004820152601060248201526f3a379d103bb0b63632ba1037bbb732b960811b60448201526064016104f3565b805460ff60a01b1916600160a01b17815581546001600160a81b031916825560405163784d200b60e11b81526001600160a01b038516600482015260006024820152339063f09a401690604401600060405180830381600087803b158015611b5257600080fd5b505af1158015611b66573d6000803e3d6000fd5b505083546040516001600160a01b0388811694508781169350909116907fc5853bc5765dbba0cd599900c9ce5a619c8a552624bef9e0ac3783ddd2cfea3f90600090a450505050565b6001600160a01b038116611bf15760405162461bcd60e51b815260206004820152600960248201526806e6f206261636b75760bc1b60448201526064016104f3565b6001600160a01b03808216600090815260046020526040902080549091163314611c4a5760405162461bcd60e51b815260206004820152600a6024820152691b9bdd081dd85b1b195d60b21b60448201526064016104f3565b8054600160a01b900460ff1615611ca35760405162461bcd60e51b815260206004820152601760248201527f77616c6c6574206261636b7570206e6f7420657869737400000000000000000060448201526064016104f3565b80546001600160a01b03191681556040516001600160a01b038316906000907fa83abfa8492f1b783786f803e26a0a9884011a0a4e8bf78310b44ad7937589f5908290a35050565b6000336001600160a01b0316638da5cb5b6040518163ffffffff1660e01b815260040160206040518083038186803b158015611d2657600080fd5b505afa158015611d3a573d6000803e3d6000fd5b505050506040513d601f19601f82011682018060405250810190611d5e91906121cf565b6001600160a01b0381811660009081526004602052604090208054929350911633148015611d9457508054600160a01b900460ff165b611db05760405162461bcd60e51b81526004016104f390612315565b80546001600160a01b031660009081526006602052604090206001810154611e0f5760405162461bcd60e51b81526020600482015260126024820152711c995c5d595cdd081b9bdd08195e1cda5cdd60721b60448201526064016104f3565b4281600101541115611e4f5760405162461bcd60e51b8152602060048201526009602482015268746f6f206561726c7960b81b60448201526064016104f3565b805482546001600160a01b039081166000908152600560209081526040808320805467ffffffffffffffff191667ffffffffffffffff871617905560c09490941b6001600160c01b03198116835260079091529083902054925163784d200b60e11b8152868316600482015292909116602483015290339063f09a401690604401600060405180830381600087803b158015611eea57600080fd5b505af1158015611efe573d6000803e3d6000fd5b50505050336001600160a01b0316638fd3ab806040518163ffffffff1660e01b8152600401600060405180830381600087803b158015611f3d57600080fd5b505af1158015611f51573d6000803e3d6000fd5b505084546040516001600160c01b0319851693506001600160a01b0390911691507feafb3b932d1424e32ec924eb9695430fd852ce33327c076abb1699b72ec58f1690600090a350505050565b6000546001600160a01b03163314611fc85760405162461bcd60e51b81526004016104f3906122e0565b6001600160a01b03811661202d5760405162461bcd60e51b815260206004820152602660248201527f4f776e61626c653a206e6577206f776e657220697320746865207a65726f206160448201526564647265737360d01b60648201526084016104f3565b6120368161215c565b50565b6000806040518060e0016040528060a681526020016123cf60a691399050606084811b9084901b60005b60148110156121485782816014811061208c57634e487b7160e01b600052603260045260246000fd5b1a60f81b8461209c83603d61234c565b815181106120ba57634e487b7160e01b600052603260045260246000fd5b60200101906001600160f81b031916908160001a9053508181601481106120f157634e487b7160e01b600052603260045260246000fd5b1a60f81b8461210183606561234c565b8151811061211f57634e487b7160e01b600052603260045260246000fd5b60200101906001600160f81b031916908160001a9053508061214081612364565b915050612063565b508251602084016000f09695505050505050565b600080546001600160a01b038381166001600160a01b0319831681178455604051919092169283917f8be0079c531659141344cd1fd0a4f28419497f9722a3daafe3b4186f6b6457e09190a35050565b6000602082840312156121bd578081fd5b81356121c881612395565b9392505050565b6000602082840312156121e0578081fd5b81516121c881612395565b600080604083850312156121fd578081fd5b823561220881612395565b9150602083013561221881612395565b809150509250929050565b600060208284031215612234578081fd5b81356121c8816123aa565b600060208284031215612250578081fd5b81516121c8816123aa565b60006020828403121561226c578081fd5b81356121c8816123b8565b600060208284031215612288578081fd5b81516121c8816123b8565b6020808252600990820152681b9bc81dd85b1b195d60ba1b604082015260600190565b60208082526010908201526f3737ba103bb0b63632ba1037bbb732b960811b604082015260600190565b6020808252818101527f4f776e61626c653a2063616c6c6572206973206e6f7420746865206f776e6572604082015260600190565b6020808252601a908201527f73656e646572206973206e6f742077616c6c6574206f776e6572000000000000604082015260600190565b6000821982111561235f5761235f61237f565b500190565b60006000198214156123785761237861237f565b5060010190565b634e487b7160e01b600052601160045260246000fd5b6001600160a01b038116811461203657600080fd5b801515811461203657600080fd5b6001600160c01b03198116811461203657600080fdfe60998061000d6000396000f30036601657341560145734602052336001602080a25b005b6000805260046000601c376302d05d3f6000511415604b5773dadadadadadadadadadadadadadadadadadadada602052602080f35b366000803760008036600073bebebebebebebebebebebebebebebebebebebebe5af415608f57341560855734602052600051336002602080a35b3d6000803e3d6000f35b3d6000803e3d6000fda2646970667358221220d9511c8a372fa4c60ffb1daafb9ca68235f1bd37afc2ab0d0d64838937a2e49164736f6c63430008040033608060405234801561001057600080fd5b50600080546001600160a01b03191633179055610e83806100326000396000f3fe6080604052600436106100955760003560e01c8063d4b8399211610059578063d4b83992146102b7578063d5995c4a146102d5578063e3de58971461031e578063f09a401614610367578063fec5a18d146103a2576100e7565b806302d05d3f1461010d57806359c091a61461013957806363a3660c146101c85780638a1f6075146102075780638da5cb5b14610299576100e7565b366100e7576040805162461bcd60e51b815260206004820181905260248201527f73686f756c64206e6f7420616363657074206574686572206469726563746c79604482015290519081900360640190fd5b36600080376000803660006001545af43d6000803e8015610107573d6000f35b503d6000fd5b34801561011957600080fd5b5060005b604080516001600160a01b039092168252519081900360200190f35b34801561014557600080fd5b506101c66004803603606081101561015c57600080fd5b6001600160a01b03823516919081019060408101602082013564010000000081111561018757600080fd5b82018360208201111561019957600080fd5b803590602001918460018302840111640100000000831117156101bb57600080fd5b9193509150356103d6565b005b3480156101d457600080fd5b506101c6600480360360608110156101eb57600080fd5b506001600160a01b0381351690602081013590604001356105dc565b34801561021357600080fd5b506101c66004803603608081101561022a57600080fd5b6001600160a01b038235169160208101359181019060608101604082013564010000000081111561025a57600080fd5b82018360208201111561026c57600080fd5b8035906020019184600183028401116401000000008311171561028e57600080fd5b91935091503561074c565b3480156102a557600080fd5b506000546001600160a01b031661011d565b3480156102c357600080fd5b506001546001600160a01b031661011d565b3480156102e157600080fd5b506101c6600480360360808110156102f857600080fd5b506001600160a01b038135811691602081013590911690604081013590606001356108d2565b34801561032a57600080fd5b506103556004803603602081101561034157600080fd5b503560009081526002602052604090205490565b60408051918252519081900360200190f35b34801561037357600080fd5b506101c66004803603604081101561038a57600080fd5b506001600160a01b0381358116916020013516610ab4565b3480156103ae57600080fd5b506101c6600480360360208110156103c557600080fd5b50356001600160c01b031916610bf5565b306001600160a01b03166302d05d3f6040518163ffffffff1660e01b815260040160206040518083038186803b15801561040f57600080fd5b505afa158015610423573d6000803e3d6000fd5b505050506040513d602081101561043957600080fd5b50516001600160a01b03163314610485576040805162461bcd60e51b815260206004820152600b60248201526a3737ba1031b932b0ba37b960a91b604482015290519081900360640190fd5b80156104da57600081815260026020526040902054156104da576040805162461bcd60e51b815260206004820152601c6024820152600080516020610e2e833981519152604482015290519081900360640190fd5b600080856001600160a01b031685856040518083838082843760405192019450600093509091505080830381855afa9150503d8060008114610538576040519150601f19603f3d011682016040523d82523d6000602084013e61053d565b606091505b5091509150816105d45761055081610d0c565b60405162461bcd60e51b81526004018080602001828103825283818151815260200191508051906020019080838360005b83811015610599578181015183820152602001610581565b50505050905090810190601f1680156105c65780820380516001836020036101000a031916815260200191505b509250505060405180910390fd5b505050505050565b306001600160a01b03166302d05d3f6040518163ffffffff1660e01b815260040160206040518083038186803b15801561061557600080fd5b505afa158015610629573d6000803e3d6000fd5b505050506040513d602081101561063f57600080fd5b50516001600160a01b0316331461068b576040805162461bcd60e51b815260206004820152600b60248201526a3737ba1031b932b0ba37b960a91b604482015290519081900360640190fd5b80156106e057600081815260026020526040902054156106e0576040805162461bcd60e51b815260206004820152601c6024820152600080516020610e2e833981519152604482015290519081900360640190fd5b60405160009081906001600160a01b0386169085908381818185875af1925050503d806000811461072d576040519150601f19603f3d011682016040523d82523d6000602084013e610732565b606091505b5091509150816107455761055081610d0c565b5050505050565b306001600160a01b03166302d05d3f6040518163ffffffff1660e01b815260040160206040518083038186803b15801561078557600080fd5b505afa158015610799573d6000803e3d6000fd5b505050506040513d60208110156107af57600080fd5b50516001600160a01b031633146107fb576040805162461bcd60e51b815260206004820152600b60248201526a3737ba1031b932b0ba37b960a91b604482015290519081900360640190fd5b80156108505760008181526002602052604090205415610850576040805162461bcd60e51b815260206004820152601c6024820152600080516020610e2e833981519152604482015290519081900360640190fd5b600080866001600160a01b0316868686604051808383808284376040519201945060009350909150508083038185875af1925050503d80600081146108b1576040519150601f19603f3d011682016040523d82523d6000602084013e6108b6565b606091505b5091509150816108c95761055081610d0c565b50505050505050565b306001600160a01b03166302d05d3f6040518163ffffffff1660e01b815260040160206040518083038186803b15801561090b57600080fd5b505afa15801561091f573d6000803e3d6000fd5b505050506040513d602081101561093557600080fd5b50516001600160a01b03163314610981576040805162461bcd60e51b815260206004820152600b60248201526a3737ba1031b932b0ba37b960a91b604482015290519081900360640190fd5b80156109d657600081815260026020526040902054156109d6576040805162461bcd60e51b815260206004820152601c6024820152600080516020610e2e833981519152604482015290519081900360640190fd5b604080516001600160a01b038581166024830152604480830186905283518084039091018152606490920183526020820180516001600160e01b031663a9059cbb60e01b178152925182516000948594938a169392918291908083835b60208310610a525780518252601f199092019160209182019101610a33565b6001836020036101000a0380198251168184511680821785525050505050509050019150506000604051808303816000865af19150503d8060008114610538576040519150601f19603f3d011682016040523d82523d6000602084013e61053d565b306001600160a01b03166302d05d3f6040518163ffffffff1660e01b815260040160206040518083038186803b158015610aed57600080fd5b505afa158015610b01573d6000803e3d6000fd5b505050506040513d6020811015610b1757600080fd5b50516001600160a01b03163314610b63576040805162461bcd60e51b815260206004820152600b60248201526a3737ba1031b932b0ba37b960a91b604482015290519081900360640190fd5b6000546001600160a01b03838116911614801590610b8957506001600160a01b03821615155b15610baa57600080546001600160a01b0319166001600160a01b0384161790555b6001546001600160a01b03828116911614801590610bd057506001600160a01b03811615155b15610bf157600180546001600160a01b0319166001600160a01b0383161790555b5050565b6000546001600160a01b03163314610c40576040805162461bcd60e51b81526020600482015260096024820152683737ba1037bbb732b960b91b604482015290519081900360640190fd5b306001600160a01b03166302d05d3f6040518163ffffffff1660e01b815260040160206040518083038186803b158015610c7957600080fd5b505afa158015610c8d573d6000803e3d6000fd5b505050506040513d6020811015610ca357600080fd5b5051604080516318beb60960e31b81526001600160c01b03198416600482015290516001600160a01b039092169163c5f5b0489160248082019260009290919082900301818387803b158015610cf857600080fd5b505af1158015610745573d6000803e3d6000fd5b6060604482511015610d3757604051806060016040528060258152602001610e096025913992915050565b6004820180519092602401906020811015610d5157600080fd5b8101908080516040519392919084640100000000821115610d7157600080fd5b908301906020820185811115610d8657600080fd5b8251640100000000811182820188101715610da057600080fd5b82525081516020918201929091019080838360005b83811015610dcd578181015183820152602001610db5565b50505050905090810190601f168015610dfa5780820380516001836020036101000a031916815260200191505b50604052505050905091905056fe57616c6c65743a205472616e73616374696f6e2072657665727465642073696c656e746c7957616c6c65743a207472616e73616374696f6e2063616e63656c656400000000a2646970667358221220b56a765fa6ed8b67c12ae7df68f69b866d4e24ffbf3589921447cc1e0ee20b1f64736f6c63430008040033608060405234801561001057600080fd5b50600080546001600160a01b03191633179055610509806100326000396000f3fe60806040526004361061004e5760003560e01c806302d05d3f1461019b5780638da5cb5b146101c7578063d4b83992146101e5578063f09a401614610203578063fec5a18d14610240576100a0565b366100a0576040805162461bcd60e51b815260206004820181905260248201527f73686f756c64206e6f7420616363657074206574686572206469726563746c79604482015290519081900360640190fd5b6000306001600160a01b03166302d05d3f6040518163ffffffff1660e01b815260040160206040518083038186803b1580156100db57600080fd5b505afa1580156100ef573d6000803e3d6000fd5b505050506040513d602081101561010557600080fd5b505160408051630e6d1de960e01b815290516001600160a01b0390921691630e6d1de991600480820192602092909190829003018186803b15801561014957600080fd5b505afa15801561015d573d6000803e3d6000fd5b505050506040513d602081101561017357600080fd5b505190503660008037600080366000845af43d6000803e8015610195573d6000f35b503d6000fd5b3480156101a757600080fd5b5060005b604080516001600160a01b039092168252519081900360200190f35b3480156101d357600080fd5b506000546001600160a01b03166101ab565b3480156101f157600080fd5b506001546001600160a01b03166101ab565b34801561020f57600080fd5b5061023e6004803603604081101561022657600080fd5b506001600160a01b0381358116916020013516610274565b005b34801561024c57600080fd5b5061023e6004803603602081101561026357600080fd5b50356001600160c01b0319166103b5565b306001600160a01b03166302d05d3f6040518163ffffffff1660e01b815260040160206040518083038186803b1580156102ad57600080fd5b505afa1580156102c1573d6000803e3d6000fd5b505050506040513d60208110156102d757600080fd5b50516001600160a01b03163314610323576040805162461bcd60e51b815260206004820152600b60248201526a3737ba1031b932b0ba37b960a91b604482015290519081900360640190fd5b6000546001600160a01b0383811691161480159061034957506001600160a01b03821615155b1561036a57600080546001600160a01b0319166001600160a01b0384161790555b6001546001600160a01b0382811691161480159061039057506001600160a01b03811615155b156103b157600180546001600160a01b0319166001600160a01b0383161790555b5050565b6000546001600160a01b03163314610400576040805162461bcd60e51b81526020600482015260096024820152683737ba1037bbb732b960b91b604482015290519081900360640190fd5b306001600160a01b03166302d05d3f6040518163ffffffff1660e01b815260040160206040518083038186803b15801561043957600080fd5b505afa15801561044d573d6000803e3d6000fd5b505050506040513d602081101561046357600080fd5b5051604080516318beb60960e31b81526001600160c01b03198416600482015290516001600160a01b039092169163c5f5b0489160248082019260009290919082900301818387803b1580156104b857600080fd5b505af11580156104cc573d6000803e3d6000fd5b505050505056fea26469706673582212208aa460dd156fb10eba2c8e52370a6d694189013d90546579b295edfbddf290cb64736f6c63430008040033",
  "immutableReferences": {},
  "source": "// SPDX-License-Identifier: UNLICENSED\n\npragma solidity ^0.8.0;\npragma abicoder v2;\n\nimport \"./FactoryStorage.sol\";\nimport \"./lib/IOracle.sol\";\n\n/** @title Factory contract \n    @author Tal Asa <tal@kirobo.io> \n    @notice Factory contract - defines functions that are used by all related contracts\n */\ncontract Factory is FactoryStorage {\n    bytes32 public constant BATCH_MULTI_SIG_CALL_TYPEHASH =\n        keccak256(\n            \"BatchMultiSigCall(Limits limits,Transaction transaction)Limits(uint256 sessionId)Transaction(address signer,address to,uint256 value,uint32 gasLimit,uint16 flags,bytes data)\"\n        );\n\n    bytes32 public constant BATCH_MULTI_SIG_CALL_LIMITS_TYPEHASH =\n        keccak256(\"Limits(uint256 sessionId)\");\n\n    bytes32 public constant BATCH_MULTI_SIG_CALL_TRANSACTION_TYPEHASH =\n        keccak256(\n            \"Transaction(address signer,address to,uint256 value,uint32 gasLimit,uint16 flags,bytes data)\"\n        );\n\n    event WalletCreated(\n        address indexed wallet,\n        bytes8 indexed version,\n        address indexed owner\n    );\n\n    event WalletUpgraded(address indexed wallet, bytes8 indexed version);\n\n    event WalletUpgradeRequested(\n        address indexed wallet,\n        bytes8 indexed version\n    );\n\n    event WalletUpgradeDismissed(\n        address indexed wallet,\n        bytes8 indexed version\n    );\n\n    event WalletConfigurationRestored(\n        address indexed wallet,\n        bytes8 indexed version,\n        address indexed owner\n    );\n\n    event WalletOwnershipRestored(\n        address indexed wallet,\n        address indexed owner\n    );\n\n    event WalletVersionRestored(\n        address indexed wallet,\n        bytes8 indexed version,\n        address indexed owner\n    );\n\n    event WalletOwnershipTransfered(\n        address indexed wallet,\n        address indexed owner,\n        address indexed newOwner\n    );\n\n    event WalletBakcupCreated(\n        address indexed wallet,\n        address indexed owner,\n        address indexed backup\n    );\n\n    event WalletBackupRemoved(address indexed wallet, address indexed backup);\n\n    event VersionAdded(\n        bytes8 indexed version,\n        address indexed code,\n        address indexed oracle\n    );\n\n    event VersionDeployed(\n        bytes8 indexed version,\n        address indexed code,\n        address indexed oracle\n    );\n\n    event BatchMultiSigCallPackedFailed(\n        address indexed wallet,\n        uint256 nonce,\n        uint256 index,\n        uint256 innerIndex\n    );\n    event BatchTransfered(uint256 indexed mode, uint256 block, uint256 nonce);\n\n    constructor() FactoryStorage() {}\n\n    function isOwner() external view returns (bool) {\n        return owner() == msg.sender;\n    }\n\n    /** @notice transferWalletOwnership - the function transfers the ownership of the wallet \n                to the newOwner in the input param\n        @param newOwner (address) - address of the new owner that the ownership will move to\n     */\n    function transferWalletOwnership(address newOwner) external {\n        address curOwner = IProxy(msg.sender).owner();\n        Wallet storage sp_sw = s_accounts_wallet[curOwner];\n        require(msg.sender == sp_sw.addr, \"from: no wallet\");\n        require(sp_sw.owner, \"from: not wallet owner\");\n        Wallet storage sp_sw2 = s_accounts_wallet[newOwner];\n        require(msg.sender == sp_sw2.addr, \"to: not same wallet as from\");\n        require(sp_sw2.owner == false, \"to: wallet owner\");\n        sp_sw2.owner = true;\n        sp_sw.owner = false;\n        sp_sw.addr = address(0);\n        IProxy(msg.sender).init(newOwner, address(0));\n        emit WalletOwnershipTransfered(sp_sw.addr, curOwner, newOwner);\n    }\n\n    /** @notice addWalletBackup - adds a backup to the current wallet owner \n        @param backup (address) - the address of the backup wallet\n     */\n    function addWalletBackup(address backup) external {\n        require(backup != address(0), \"input backup walled is empty\");\n        Wallet storage sp_sw = s_accounts_wallet[backup];\n        require(sp_sw.addr == address(0), \"backup has no wallet\");\n        require(sp_sw.owner == false, \"backup is wallet owner\");\n        address owner = IProxy(msg.sender).owner();\n        Wallet storage sp_sw_owner = s_accounts_wallet[owner];\n        require(msg.sender == sp_sw_owner.addr, \"not wallet\");\n        require(sp_sw_owner.owner, \"no wallet owner\");\n        sp_sw.addr = msg.sender;\n        emit WalletBakcupCreated(sp_sw.addr, owner, backup);\n    }\n\n    /** @notice removeWalletBackup - removes a specific address from being the owners backup\n        @param backup (address) - the address of the backup wallet\n     */\n    function removeWalletBackup(address backup) external {\n        require(backup != address(0), \"no backup\");\n        Wallet storage sp_sw = s_accounts_wallet[backup];\n        require(sp_sw.addr == msg.sender, \"not wallet\");\n        require(sp_sw.owner == false, \"wallet backup not exist\");\n        sp_sw.addr = address(0);\n        emit WalletBackupRemoved(sp_sw.addr, backup);\n    }\n\n    /** @notice upgradeWalletRequest - lets the owner of the wallet an option to upgrade his wallet version\n        @param version (bytes8) - version number\n    */\n    function upgradeWalletRequest(bytes8 version) external {\n        address code = s_versions_code[version];\n        require(code != address(0), \"no version code\");\n        address owner = IProxy(msg.sender).owner();\n        Wallet storage sp_sw = s_accounts_wallet[owner];\n        require(\n            msg.sender == sp_sw.addr && sp_sw.owner,\n            \"sender is not wallet owner\"\n        );\n        s_wallets_upgrade_requests[sp_sw.addr] = UpgradeRequest({\n            version: version,\n            validAt: block.timestamp + 48 hours\n        });\n        emit WalletUpgradeRequested(sp_sw.addr, version);\n    }\n\n    /** @notice upgradeWalletDismiss - dismiss the request for wallet upgrade\n     */\n    function upgradeWalletDismiss() external {\n        address owner = IProxy(msg.sender).owner();\n        Wallet storage sp_sw = s_accounts_wallet[owner];\n        require(\n            msg.sender == sp_sw.addr && sp_sw.owner,\n            \"sender is not wallet owner\"\n        );\n        UpgradeRequest storage sp_upgradeRequest = s_wallets_upgrade_requests[\n            sp_sw.addr\n        ];\n        require(sp_upgradeRequest.validAt > 0, \"request not exsist\");\n        sp_upgradeRequest.validAt = 0;\n        emit WalletUpgradeDismissed(sp_sw.addr, sp_upgradeRequest.version);\n    }\n\n    /** @notice upgradeWalletExecute - upgrages the wallet version\n     */\n    function upgradeWalletExecute() external {\n        address owner = IProxy(msg.sender).owner();\n        Wallet storage sp_sw = s_accounts_wallet[owner];\n        require(\n            msg.sender == sp_sw.addr && sp_sw.owner,\n            \"sender is not wallet owner\"\n        );\n        UpgradeRequest storage sp_upgradeRequest = s_wallets_upgrade_requests[\n            sp_sw.addr\n        ];\n        require(sp_upgradeRequest.validAt > 0, \"request not exsist\");\n        require(sp_upgradeRequest.validAt <= block.timestamp, \"too early\");\n        bytes8 version = sp_upgradeRequest.version;\n        s_wallets_version[sp_sw.addr] = version;\n        IProxy(msg.sender).init(owner, s_versions_code[version]);\n        IStorage(msg.sender).migrate();\n        emit WalletUpgraded(sp_sw.addr, version);\n    }\n\n    /** @notice addVersion - add a specific version\n        @param target(address)\n        @param targetOracle(address)\n     */\n    function addVersion(address target, address targetOracle)\n        external\n        onlyOwner\n    {\n        require(target != address(0), \"no version\");\n        require(targetOracle != address(0), \"no oracle version\");\n        require(\n            IOracle(targetOracle).initialized() != false,\n            \"oracle not initialized\"\n        );\n        bytes8 version = IStorage(target).version();\n        require(\n            IOracle(targetOracle).version() == version,\n            \"version mistmatch\"\n        );\n        address code = s_versions_code[version];\n        require(code == address(0), \"version exists\");\n        require(s_versions_oracle[version] == address(0), \"oracle exists\");\n        s_versions_code[version] = target;\n        s_versions_oracle[version] = targetOracle;\n        emit VersionAdded(version, code, targetOracle);\n    }\n\n    /** @notice deployVersion - deployment of a specific version to the system \n        @param version(bytes8) - the version to deploy\n    */\n    function deployVersion(bytes8 version) external onlyOwner {\n        address code = s_versions_code[version];\n        require(code != address(0), \"version not exist\");\n        address oracleAddress = s_versions_oracle[version];\n        require(oracleAddress != address(0), \"oracle not exist\");\n        s_production_version = version;\n        s_production_version_code = code;\n        s_production_version_oracle = oracleAddress;\n        emit VersionDeployed(version, code, oracleAddress);\n    }\n\n    function restoreWalletConfiguration() external {\n        Wallet storage sp_sw = s_accounts_wallet[msg.sender];\n        require(sp_sw.addr != address(0), \"no wallet\");\n        require(sp_sw.owner, \"not wallet owner\");\n        bytes8 version = s_wallets_version[sp_sw.addr];\n        if (version == LATEST) {\n            version = s_production_version;\n        }\n        address code = s_versions_code[version];\n        require(code != address(0), \"version not exist\");\n        IProxy(sp_sw.addr).init(msg.sender, code);\n        emit WalletConfigurationRestored(sp_sw.addr, version, msg.sender);\n    }\n\n    function restoreWalletOwnership() external {\n        Wallet storage sp_sw = s_accounts_wallet[msg.sender];\n        require(sp_sw.addr != address(0), \"no wallet\");\n        require(sp_sw.owner, \"not wallet owner\");\n\n        IProxy(sp_sw.addr).init(msg.sender, address(0));\n        emit WalletOwnershipRestored(sp_sw.addr, msg.sender);\n    }\n\n    function restoreWalletVersion() external {\n        Wallet storage sp_sw = s_accounts_wallet[msg.sender];\n        require(sp_sw.addr != address(0), \"no wallet\");\n        require(sp_sw.owner, \"not wallet owner\");\n\n        bytes8 version = s_wallets_version[sp_sw.addr];\n        if (version == LATEST) {\n            version = s_production_version;\n        }\n        address code = s_versions_code[version];\n        require(code != address(0), \"no version\");\n        IProxy(sp_sw.addr).init(address(0), code);\n        emit WalletVersionRestored(sp_sw.addr, version, msg.sender);\n    }\n\n    function getLatestVersion() external view returns (address) {\n        return s_production_version_code;\n    }\n\n    function getWallet(address account) external view returns (address) {\n        return s_accounts_wallet[account].addr;\n    }\n\n    function getWalletDebt(address account) external view returns (uint88) {\n        return s_accounts_wallet[account].debt;\n    }\n\n    /** @notice createWallet - create a new wallet\n        @param autoMode(bool) - if true: sets the wallet with the latest version\n                                if false: sets the wallet with the production version\n        @return address\n    */\n    function createWallet(bool autoMode) external returns (address) {\n        require(address(s_swProxy) != address(0), \"no proxy\");\n        require(s_production_version_code != address(0), \"no prod version\"); //Must be here - ProxyLatest also needs it.\n        Wallet storage sp_sw = s_accounts_wallet[msg.sender];\n        if (sp_sw.addr == address(0)) {\n            sp_sw.addr = _createWallet(address(this), address(s_swProxy));\n            require(sp_sw.addr != address(0), \"wallet not created\");\n            sp_sw.owner = true;\n            if (autoMode) {\n                require(\n                    address(s_swProxyLatest) != address(0),\n                    \"no auto version\"\n                );\n                require(\n                    s_versions_code[LATEST] == address(s_swProxyLatest),\n                    \"incorrect auto version\"\n                );\n                s_wallets_version[sp_sw.addr] = LATEST;\n                IProxy(sp_sw.addr).init(msg.sender, address(s_swProxyLatest));\n                IStorage(sp_sw.addr).migrate();\n                emit WalletCreated(sp_sw.addr, LATEST, msg.sender);\n            } else {\n                s_wallets_version[sp_sw.addr] = s_production_version;\n                IProxy(sp_sw.addr).init(msg.sender, s_production_version_code);\n                IStorage(sp_sw.addr).migrate();\n                emit WalletCreated(\n                    sp_sw.addr,\n                    s_production_version,\n                    msg.sender\n                );\n            }\n        }\n        return sp_sw.addr;\n    }\n\n    function oracle() external view returns (address oracleAddress) {\n        bytes8 version = s_wallets_version[msg.sender];\n        if (version == LATEST) {\n            version = s_production_version;\n        }\n        oracleAddress = s_versions_oracle[version];\n    }\n\n    /** @notice _createWallet - private function that  */\n    function _createWallet(address creator, address target)\n        private\n        returns (address result)\n    {\n        bytes\n            memory code = hex\"60998061000d6000396000f30036601657341560145734602052336001602080a25b005b6000805260046000601c376302d05d3f6000511415604b5773dadadadadadadadadadadadadadadadadadadada602052602080f35b366000803760008036600073bebebebebebebebebebebebebebebebebebebebe5af415608f57341560855734602052600051336002602080a35b3d6000803e3d6000f35b3d6000803e3d6000fd\"; //log3-event-ids-address-funcid-opt (-2,-2) (min: 22440)\n        bytes20 creatorBytes = bytes20(creator);\n        bytes20 targetBytes = bytes20(target);\n        for (uint256 i = 0; i < 20; i++) {\n            code[61 + i] = creatorBytes[i];\n            code[101 + i] = targetBytes[i];\n        }\n        assembly {\n            result := create(0, add(code, 0x20), mload(code))\n        }\n    }\n}\n",
  "sourcePath": "/Users/tal/code/kirobo/ki-eth-contracts/contracts/Factory.sol",
  "compiler": {
    "name": "solc",
    "version": "0.8.4+commit.c7e474f2.Emscripten.clang"
  },
  "schemaVersion": "3.3.4",
  "updatedAt": "2021-09-13T14:41:25.978Z",
  "devdoc": {
    "author": "Tal Asa <tal@kirobo.io> ",
    "kind": "dev",
    "methods": {
      "addVersion(address,address)": {
        "params": {
          "target": "(address)",
          "targetOracle": "(address)"
        }
      },
      "addWalletBackup(address)": {
        "params": {
          "backup": "(address) - the address of the backup wallet"
        }
      },
      "createWallet(bool)": {
        "params": {
          "autoMode": "(bool) - if true: sets the wallet with the latest version if false: sets the wallet with the production version"
        },
        "returns": {
          "_0": "address"
        }
      },
      "deployVersion(bytes8)": {
        "params": {
          "version": "(bytes8) - the version to deploy"
        }
      },
      "owner()": {
        "details": "Returns the address of the current owner."
      },
      "removeWalletBackup(address)": {
        "params": {
          "backup": "(address) - the address of the backup wallet"
        }
      },
      "renounceOwnership()": {
        "details": "Leaves the contract without owner. It will not be possible to call `onlyOwner` functions anymore. Can only be called by the current owner. NOTE: Renouncing ownership will leave the contract without an owner, thereby removing any functionality that is only available to the owner."
      },
      "transferOwnership(address)": {
        "details": "Transfers ownership of the contract to a new account (`newOwner`). Can only be called by the current owner."
      },
      "transferWalletOwnership(address)": {
        "params": {
          "newOwner": "(address) - address of the new owner that the ownership will move to"
        }
      },
      "upgradeWalletRequest(bytes8)": {
        "params": {
          "version": "(bytes8) - version number"
        }
      }
    },
    "title": "Factory contract ",
    "version": 1
  },
  "userdoc": {
    "kind": "user",
    "methods": {
      "addVersion(address,address)": {
        "notice": "addVersion - add a specific version"
      },
      "addWalletBackup(address)": {
        "notice": "addWalletBackup - adds a backup to the current wallet owner "
      },
      "createWallet(bool)": {
        "notice": "createWallet - create a new wallet"
      },
      "deployVersion(bytes8)": {
        "notice": "deployVersion - deployment of a specific version to the system "
      },
      "removeWalletBackup(address)": {
        "notice": "removeWalletBackup - removes a specific address from being the owners backup"
      },
      "transferWalletOwnership(address)": {
        "notice": "transferWalletOwnership - the function transfers the ownership of the wallet  to the newOwner in the input param"
      },
      "upgradeWalletDismiss()": {
        "notice": "upgradeWalletDismiss - dismiss the request for wallet upgrade"
      },
      "upgradeWalletExecute()": {
        "notice": "upgradeWalletExecute - upgrages the wallet version"
      },
      "upgradeWalletRequest(bytes8)": {
        "notice": "upgradeWalletRequest - lets the owner of the wallet an option to upgrade his wallet version"
      }
    },
    "notice": "Factory contract - defines functions that are used by all related contracts",
    "version": 1
  }
}