{
  "contractName": "FactoryProxy",
  "abi": [
    {
      "inputs": [
        {
          "internalType": "address",
          "name": "owner1",
          "type": "address"
        },
        {
          "internalType": "address",
          "name": "owner2",
          "type": "address"
        },
        {
          "internalType": "address",
          "name": "owner3",
          "type": "address"
        }
      ],
      "stateMutability": "nonpayable",
      "type": "constructor"
    },
    {
      "stateMutability": "payable",
      "type": "fallback"
    },
    {
      "inputs": [],
      "name": "LATEST",
      "outputs": [
        {
          "internalType": "bytes8",
          "name": "",
          "type": "bytes8"
        }
      ],
      "stateMutability": "view",
      "type": "function"
    },
    {
      "inputs": [],
      "name": "cancel",
      "outputs": [],
      "stateMutability": "nonpayable",
      "type": "function"
    },
    {
      "inputs": [],
      "name": "isOwner",
      "outputs": [
        {
          "internalType": "bool",
          "name": "",
          "type": "bool"
        }
      ],
      "stateMutability": "view",
      "type": "function"
    },
    {
      "inputs": [
        {
          "internalType": "address",
          "name": "_owner",
          "type": "address"
        },
        {
          "internalType": "address",
          "name": "_newOwner",
          "type": "address"
        }
      ],
      "name": "replaceOwner",
      "outputs": [],
      "stateMutability": "nonpayable",
      "type": "function"
    },
    {
      "inputs": [],
      "name": "swProxy",
      "outputs": [
        {
          "internalType": "contract Proxy",
          "name": "",
          "type": "address"
        }
      ],
      "stateMutability": "view",
      "type": "function"
    },
    {
      "inputs": [],
      "name": "swProxyLatest",
      "outputs": [
        {
          "internalType": "contract ProxyLatest",
          "name": "",
          "type": "address"
        }
      ],
      "stateMutability": "view",
      "type": "function"
    },
    {
      "inputs": [],
      "name": "target",
      "outputs": [
        {
          "internalType": "address",
          "name": "",
          "type": "address"
        }
      ],
      "stateMutability": "view",
      "type": "function"
    },
    {
      "inputs": [
        {
          "internalType": "address",
          "name": "_target",
          "type": "address"
        }
      ],
      "name": "setTarget",
      "outputs": [],
      "stateMutability": "nonpayable",
      "type": "function"
    }
  ],
  "bytecode": "0x608060405234801561001057600080fd5b5060405161162e38038061162e8339818101604052606081101561003357600080fd5b50805160208201516040909201519091908282828282826001600160a01b03831661009a576040805162461bcd60e51b815260206004820152601260248201527106f776e6572312063616e6e6f7420626520360741b604482015290519081900360640190fd5b6001600160a01b0382166100ea576040805162461bcd60e51b815260206004820152601260248201527106f776e6572322063616e6e6f7420626520360741b604482015290519081900360640190fd5b6001600160a01b03811661013a576040805162461bcd60e51b815260206004820152601260248201527106f776e6572332063616e6e6f7420626520360741b604482015290519081900360640190fd5b816001600160a01b0316836001600160a01b031614156101a1576040805162461bcd60e51b815260206004820152601760248201527f6f776e6572312063616e6e6f74206265206f776e657232000000000000000000604482015290519081900360640190fd5b806001600160a01b0316826001600160a01b03161415610208576040805162461bcd60e51b815260206004820152601760248201527f6f776e6572322063616e6e6f74206265206f776e657233000000000000000000604482015290519081900360640190fd5b806001600160a01b0316836001600160a01b0316141561026f576040805162461bcd60e51b815260206004820152601760248201527f6f776e6572312063616e6e6f74206265206f776e657233000000000000000000604482015290519081900360640190fd5b6001600160a01b039283166000908152602081905260408082208054600160ff199182168117909255948616835281832080548616821790559290941681528390208054909216179055516102c390610393565b604051809103906000f0801580156102df573d6000803e3d6000fd5b50600780546001600160a01b0319166001600160a01b039290921691909117905560405161030c906103a0565b604051809103906000f080158015610328573d6000803e3d6000fd5b50600880546001600160a01b03199081166001600160a01b039384161791829055651b185d195cdd60d21b600052600b6020527f150364903d20041ab7205931760308b745a5e8df0037a8f7c129b402fa43b4a48054929093169116179055506103ad945050505050565b61042680610d0d83390190565b6104fb8061113383390190565b610951806103bc6000396000f3fe60806040526004361061007b5760003560e01c8063d4b839921161004e578063d4b8399214610173578063e20056e614610188578063e2adec9c146101c3578063ea8a1af0146101d85761007b565b80637721904c146100a1578063776d1a01146100d25780638c576fc3146101075780638f32d59b1461014a575b36600080376000803660006006545af43d6000803e801561009b573d6000f35b503d6000fd5b3480156100ad57600080fd5b506100b66101ed565b604080516001600160a01b039092168252519081900360200190f35b3480156100de57600080fd5b50610105600480360360208110156100f557600080fd5b50356001600160a01b03166101fc565b005b34801561011357600080fd5b5061011c610492565b6040805177ffffffffffffffffffffffffffffffffffffffffffffffff199092168252519081900360200190f35b34801561015657600080fd5b5061015f61049f565b604080519115158252519081900360200190f35b34801561017f57600080fd5b506100b66104b6565b34801561019457600080fd5b50610105600480360360408110156101ab57600080fd5b506001600160a01b03813581169160200135166104c5565b3480156101cf57600080fd5b506100b6610810565b3480156101e457600080fd5b5061010561081f565b6007546001600160a01b031681565b3360009081526020819052604081205460ff1661024e576040805162461bcd60e51b815260206004820152600b60248201526a6f6e6c79206f776e65727360a81b604482015290519081900360640190fd5b6003546001600160a01b031661028857600380546001600160a01b0319163317905561027d6005600036610883565b50600481905561048e565b6003546001600160a01b03163314156102e8576040805162461bcd60e51b815260206004820152601c60248201527f73616d65206f776e65722063616e6e6f74207369676e20747769636500000000604482015290519081900360640190fd5b600454811461033e576040805162461bcd60e51b815260206004820152601860248201527f6d757374207369676e207468652073616d652076616c75650000000000000000604482015290519081900360640190fd5b600036604051808383808284376040519201829003822060058054919650945091925082918491506002600019610100600184161502019091160480156103bc5780601f1061039a5761010080835404028352918201916103bc565b820191906000526020600020905b8154815290600101906020018083116103a8575b505091505060405180910390201461041b576040805162461bcd60e51b815260206004820152601760248201527f6d757374207369676e207468652073616d652064617461000000000000000000604482015290519081900360640190fd5b600380546001600160a01b03191690556001600160a01b038216610472576040805162461bcd60e51b81526020600482015260096024820152681b9bc81d185c99d95d60ba1b604482015290519081900360640190fd5b600680546001600160a01b0319166001600160a01b0384161790555b5050565b651b185d195cdd60d21b81565b3360009081526020819052604090205460ff165b90565b6006546001600160a01b031681565b3360009081526020819052604081205460ff16610517576040805162461bcd60e51b815260206004820152600b60248201526a6f6e6c79206f776e65727360a81b604482015290519081900360640190fd5b6003546001600160a01b031661055157600380546001600160a01b031916331790556105466005600036610883565b50600481905561080b565b6003546001600160a01b03163314156105b1576040805162461bcd60e51b815260206004820152601c60248201527f73616d65206f776e65722063616e6e6f74207369676e20747769636500000000604482015290519081900360640190fd5b6004548114610607576040805162461bcd60e51b815260206004820152601860248201527f6d757374207369676e207468652073616d652076616c75650000000000000000604482015290519081900360640190fd5b600036604051808383808284376040519201829003822060058054919650945091925082918491506002600019610100600184161502019091160480156106855780601f10610663576101008083540402835291820191610685565b820191906000526020600020905b815481529060010190602001808311610671575b50509150506040518091039020146106e4576040805162461bcd60e51b815260206004820152601760248201527f6d757374207369676e207468652073616d652064617461000000000000000000604482015290519081900360640190fd5b600380546001600160a01b03191690556001600160a01b03831660009081526020819052604090205460ff161515600114610766576040805162461bcd60e51b815260206004820152601260248201527f6f776e65722073686f756c642065786973740000000000000000000000000000604482015290519081900360640190fd5b6001600160a01b03821660009081526020819052604090205460ff16156107d4576040805162461bcd60e51b815260206004820152601a60248201527f6e6577206f776e65722073686f756c64206e6f74206578697374000000000000604482015290519081900360640190fd5b6001600160a01b03808416600090815260208190526040808220805460ff1990811690915592851682529020805490911660011790555b505050565b6008546001600160a01b031681565b3360009081526020819052604090205460ff16610871576040805162461bcd60e51b815260206004820152600b60248201526a6f6e6c79206f776e65727360a81b604482015290519081900360640190fd5b600380546001600160a01b0319169055565b828054600181600116156101000203166002900490600052602060002090601f016020900481019282601f106108c45782800160ff198235161785556108f1565b828001600101855582156108f1579182015b828111156108f15782358255916020019190600101906108d6565b506108fd929150610901565b5090565b6104b391905b808211156108fd576000815560010161090756fea26469706673582212202d323060fa32cb8fa1aafb4dd6171af1da148a9031f5a5dc494aae9d964eabb264736f6c634300060b0033608060405234801561001057600080fd5b50600080546001600160a01b031916331790556103f4806100326000396000f3fe60806040526004361061004a5760003560e01c806302d05d3f146100705780638da5cb5b146100a1578063d4b83992146100b6578063f09a4016146100cb578063fec5a18d14610108575b36600080376000803660006001545af43d6000803e801561006a573d6000f35b503d6000fd5b34801561007c57600080fd5b5061008561013c565b604080516001600160a01b039092168252519081900360200190f35b3480156100ad57600080fd5b50610085610141565b3480156100c257600080fd5b50610085610150565b3480156100d757600080fd5b50610106600480360360408110156100ee57600080fd5b506001600160a01b038135811691602001351661015f565b005b34801561011457600080fd5b506101066004803603602081101561012b57600080fd5b50356001600160c01b0319166102a0565b600090565b6000546001600160a01b031690565b6001546001600160a01b031690565b306001600160a01b03166302d05d3f6040518163ffffffff1660e01b815260040160206040518083038186803b15801561019857600080fd5b505afa1580156101ac573d6000803e3d6000fd5b505050506040513d60208110156101c257600080fd5b50516001600160a01b0316331461020e576040805162461bcd60e51b815260206004820152600b60248201526a3737ba1031b932b0ba37b960a91b604482015290519081900360640190fd5b6000546001600160a01b0383811691161480159061023457506001600160a01b03821615155b1561025557600080546001600160a01b0319166001600160a01b0384161790555b6001546001600160a01b0382811691161480159061027b57506001600160a01b03811615155b1561029c57600180546001600160a01b0319166001600160a01b0383161790555b5050565b6000546001600160a01b031633146102eb576040805162461bcd60e51b81526020600482015260096024820152683737ba1037bbb732b960b91b604482015290519081900360640190fd5b306001600160a01b03166302d05d3f6040518163ffffffff1660e01b815260040160206040518083038186803b15801561032457600080fd5b505afa158015610338573d6000803e3d6000fd5b505050506040513d602081101561034e57600080fd5b5051604080516318beb60960e31b81526001600160c01b03198416600482015290516001600160a01b039092169163c5f5b0489160248082019260009290919082900301818387803b1580156103a357600080fd5b505af11580156103b7573d6000803e3d6000fd5b505050505056fea2646970667358221220afdb2eff051ddf50ec00b1bddd91245c071f2e520e60979f223f0b66a759725d64736f6c634300060b0033608060405234801561001057600080fd5b50600080546001600160a01b031916331790556104c9806100326000396000f3fe60806040526004361061004a5760003560e01c806302d05d3f146101455780638da5cb5b14610176578063d4b839921461018b578063f09a4016146101a0578063fec5a18d146101dd575b6000306001600160a01b03166302d05d3f6040518163ffffffff1660e01b815260040160206040518083038186803b15801561008557600080fd5b505afa158015610099573d6000803e3d6000fd5b505050506040513d60208110156100af57600080fd5b505160408051630e6d1de960e01b815290516001600160a01b0390921691630e6d1de991600480820192602092909190829003018186803b1580156100f357600080fd5b505afa158015610107573d6000803e3d6000fd5b505050506040513d602081101561011d57600080fd5b505190503660008037600080366000845af43d6000803e801561013f573d6000f35b503d6000fd5b34801561015157600080fd5b5061015a610211565b604080516001600160a01b039092168252519081900360200190f35b34801561018257600080fd5b5061015a610216565b34801561019757600080fd5b5061015a610225565b3480156101ac57600080fd5b506101db600480360360408110156101c357600080fd5b506001600160a01b0381358116916020013516610234565b005b3480156101e957600080fd5b506101db6004803603602081101561020057600080fd5b50356001600160c01b031916610375565b600090565b6000546001600160a01b031690565b6001546001600160a01b031690565b306001600160a01b03166302d05d3f6040518163ffffffff1660e01b815260040160206040518083038186803b15801561026d57600080fd5b505afa158015610281573d6000803e3d6000fd5b505050506040513d602081101561029757600080fd5b50516001600160a01b031633146102e3576040805162461bcd60e51b815260206004820152600b60248201526a3737ba1031b932b0ba37b960a91b604482015290519081900360640190fd5b6000546001600160a01b0383811691161480159061030957506001600160a01b03821615155b1561032a57600080546001600160a01b0319166001600160a01b0384161790555b6001546001600160a01b0382811691161480159061035057506001600160a01b03811615155b1561037157600180546001600160a01b0319166001600160a01b0383161790555b5050565b6000546001600160a01b031633146103c0576040805162461bcd60e51b81526020600482015260096024820152683737ba1037bbb732b960b91b604482015290519081900360640190fd5b306001600160a01b03166302d05d3f6040518163ffffffff1660e01b815260040160206040518083038186803b1580156103f957600080fd5b505afa15801561040d573d6000803e3d6000fd5b505050506040513d602081101561042357600080fd5b5051604080516318beb60960e31b81526001600160c01b03198416600482015290516001600160a01b039092169163c5f5b0489160248082019260009290919082900301818387803b15801561047857600080fd5b505af115801561048c573d6000803e3d6000fd5b505050505056fea26469706673582212209a5deacbb86f8522960efe9844a60fccda87d490a8939ee64d016cf53477104c64736f6c634300060b0033",
  "source": "// SPDX-License-Identifier: UNLICENSED\n\npragma solidity 0.6.11;\n\nimport \"./FactoryStorage.sol\";\nimport \"./Factory.sol\";\n\ncontract FactoryProxy is FactoryStorage {\n\n    constructor(address owner1, address owner2, address owner3) FactoryStorage(owner1, owner2, owner3) public {\n        // proxy = address(this);\n    }\n\n    function setTarget(address _target) public multiSig2of3(0) {\n        require(_target != address(0), \"no target\");\n        target = _target;\n    }\n\n    fallback () external payable {\n        // solium-disable-next-line security/no-inline-assembly\n        assembly {\n                calldatacopy(0x00, 0x00, calldatasize())\n                let res := delegatecall(gas(), sload(target_slot), 0x00, calldatasize(), 0, 0)\n                returndatacopy(0x00, 0x00, returndatasize())\n                if res { return(0x00, returndatasize()) }\n                revert(0x00, returndatasize())\n            }\n    }\n}\n",
  "sourcePath": "/home/tal/code/kirobo/ki-eth-contracts/contracts/FactoryProxy.sol",
  "compiler": {
    "name": "solc",
    "version": "0.6.11+commit.5ef660b1.Emscripten.clang"
  },
  "schemaVersion": "3.0.23",
  "updatedAt": "2020-07-26T10:40:25.260Z",
  "devdoc": {
    "kind": "dev",
    "methods": {},
    "version": 1
  },
  "userdoc": {
    "kind": "user",
    "methods": {},
    "version": 1
  }
}