{
  "contractName": "Factory",
  "abi": [
    {
      "inputs": [
        {
          "internalType": "address",
          "name": "owner1",
          "type": "address"
        },
        {
          "internalType": "address",
          "name": "owner2",
          "type": "address"
        },
        {
          "internalType": "address",
          "name": "owner3",
          "type": "address"
        }
      ],
      "stateMutability": "nonpayable",
      "type": "constructor"
    },
    {
      "anonymous": false,
      "inputs": [
        {
          "indexed": true,
          "internalType": "bytes8",
          "name": "version",
          "type": "bytes8"
        },
        {
          "indexed": true,
          "internalType": "address",
          "name": "code",
          "type": "address"
        },
        {
          "indexed": true,
          "internalType": "address",
          "name": "oracle",
          "type": "address"
        }
      ],
      "name": "VersionAdded",
      "type": "event"
    },
    {
      "anonymous": false,
      "inputs": [
        {
          "indexed": true,
          "internalType": "bytes8",
          "name": "version",
          "type": "bytes8"
        },
        {
          "indexed": true,
          "internalType": "address",
          "name": "code",
          "type": "address"
        },
        {
          "indexed": true,
          "internalType": "address",
          "name": "oracle",
          "type": "address"
        }
      ],
      "name": "VersionDeployed",
      "type": "event"
    },
    {
      "anonymous": false,
      "inputs": [
        {
          "indexed": true,
          "internalType": "address",
          "name": "wallet",
          "type": "address"
        },
        {
          "indexed": true,
          "internalType": "bytes8",
          "name": "version",
          "type": "bytes8"
        },
        {
          "indexed": true,
          "internalType": "address",
          "name": "owner",
          "type": "address"
        }
      ],
      "name": "WalletConfigurationRestored",
      "type": "event"
    },
    {
      "anonymous": false,
      "inputs": [
        {
          "indexed": true,
          "internalType": "address",
          "name": "wallet",
          "type": "address"
        },
        {
          "indexed": true,
          "internalType": "bytes8",
          "name": "version",
          "type": "bytes8"
        },
        {
          "indexed": true,
          "internalType": "address",
          "name": "owner",
          "type": "address"
        }
      ],
      "name": "WalletCreated",
      "type": "event"
    },
    {
      "anonymous": false,
      "inputs": [
        {
          "indexed": true,
          "internalType": "address",
          "name": "wallet",
          "type": "address"
        },
        {
          "indexed": true,
          "internalType": "address",
          "name": "owner",
          "type": "address"
        }
      ],
      "name": "WalletOwnershipRestored",
      "type": "event"
    },
    {
      "anonymous": false,
      "inputs": [
        {
          "indexed": true,
          "internalType": "address",
          "name": "wallet",
          "type": "address"
        },
        {
          "indexed": true,
          "internalType": "bytes8",
          "name": "version",
          "type": "bytes8"
        }
      ],
      "name": "WalletUpgraded",
      "type": "event"
    },
    {
      "anonymous": false,
      "inputs": [
        {
          "indexed": true,
          "internalType": "address",
          "name": "wallet",
          "type": "address"
        },
        {
          "indexed": true,
          "internalType": "bytes8",
          "name": "version",
          "type": "bytes8"
        },
        {
          "indexed": true,
          "internalType": "address",
          "name": "owner",
          "type": "address"
        }
      ],
      "name": "WalletVersionRestored",
      "type": "event"
    },
    {
      "stateMutability": "nonpayable",
      "type": "fallback"
    },
    {
      "inputs": [],
      "name": "DOMAIN_SEPARATOR",
      "outputs": [
        {
          "internalType": "bytes32",
          "name": "",
          "type": "bytes32"
        }
      ],
      "stateMutability": "view",
      "type": "function"
    },
    {
      "inputs": [],
      "name": "LATEST",
      "outputs": [
        {
          "internalType": "bytes8",
          "name": "",
          "type": "bytes8"
        }
      ],
      "stateMutability": "view",
      "type": "function"
    },
    {
      "inputs": [],
      "name": "TRANSFER_SELECTOR",
      "outputs": [
        {
          "internalType": "bytes4",
          "name": "",
          "type": "bytes4"
        }
      ],
      "stateMutability": "view",
      "type": "function"
    },
    {
      "inputs": [],
      "name": "TRANSFER_TYPEHASH",
      "outputs": [
        {
          "internalType": "bytes32",
          "name": "",
          "type": "bytes32"
        }
      ],
      "stateMutability": "view",
      "type": "function"
    },
    {
      "inputs": [],
      "name": "cancel",
      "outputs": [],
      "stateMutability": "nonpayable",
      "type": "function"
    },
    {
      "inputs": [],
      "name": "isOwner",
      "outputs": [
        {
          "internalType": "bool",
          "name": "",
          "type": "bool"
        }
      ],
      "stateMutability": "view",
      "type": "function"
    },
    {
      "inputs": [
        {
          "internalType": "address",
          "name": "_owner",
          "type": "address"
        },
        {
          "internalType": "address",
          "name": "_newOwner",
          "type": "address"
        }
      ],
      "name": "replaceOwner",
      "outputs": [],
      "stateMutability": "nonpayable",
      "type": "function"
    },
    {
      "inputs": [],
      "name": "swProxy",
      "outputs": [
        {
          "internalType": "contract Proxy",
          "name": "",
          "type": "address"
        }
      ],
      "stateMutability": "view",
      "type": "function"
    },
    {
      "inputs": [],
      "name": "swProxyLatest",
      "outputs": [
        {
          "internalType": "contract ProxyLatest",
          "name": "",
          "type": "address"
        }
      ],
      "stateMutability": "view",
      "type": "function"
    },
    {
      "inputs": [],
      "name": "target",
      "outputs": [
        {
          "internalType": "address",
          "name": "",
          "type": "address"
        }
      ],
      "stateMutability": "view",
      "type": "function"
    },
    {
      "inputs": [
        {
          "internalType": "address",
          "name": "_newOwner",
          "type": "address"
        }
      ],
      "name": "transferWalletOwnership",
      "outputs": [],
      "stateMutability": "nonpayable",
      "type": "function"
    },
    {
      "inputs": [
        {
          "internalType": "address",
          "name": "_backup",
          "type": "address"
        }
      ],
      "name": "addWalletBackup",
      "outputs": [],
      "stateMutability": "nonpayable",
      "type": "function"
    },
    {
      "inputs": [
        {
          "internalType": "address",
          "name": "_backup",
          "type": "address"
        }
      ],
      "name": "removeWalletBackup",
      "outputs": [],
      "stateMutability": "nonpayable",
      "type": "function"
    },
    {
      "inputs": [
        {
          "internalType": "bytes8",
          "name": "_version",
          "type": "bytes8"
        }
      ],
      "name": "upgradeWallet",
      "outputs": [],
      "stateMutability": "nonpayable",
      "type": "function"
    },
    {
      "inputs": [
        {
          "internalType": "address",
          "name": "_target",
          "type": "address"
        },
        {
          "internalType": "address",
          "name": "_oracle",
          "type": "address"
        }
      ],
      "name": "addVersion",
      "outputs": [],
      "stateMutability": "nonpayable",
      "type": "function"
    },
    {
      "inputs": [
        {
          "internalType": "bytes8",
          "name": "_version",
          "type": "bytes8"
        }
      ],
      "name": "deployVersion",
      "outputs": [],
      "stateMutability": "nonpayable",
      "type": "function"
    },
    {
      "inputs": [],
      "name": "restoreWalletConfiguration",
      "outputs": [],
      "stateMutability": "nonpayable",
      "type": "function"
    },
    {
      "inputs": [],
      "name": "restoreWalletOwnership",
      "outputs": [],
      "stateMutability": "nonpayable",
      "type": "function"
    },
    {
      "inputs": [],
      "name": "restoreWalletVersion",
      "outputs": [],
      "stateMutability": "nonpayable",
      "type": "function"
    },
    {
      "inputs": [],
      "name": "getLatestVersion",
      "outputs": [
        {
          "internalType": "address",
          "name": "",
          "type": "address"
        }
      ],
      "stateMutability": "view",
      "type": "function"
    },
    {
      "inputs": [
        {
          "internalType": "address",
          "name": "_account",
          "type": "address"
        }
      ],
      "name": "getWallet",
      "outputs": [
        {
          "internalType": "address",
          "name": "",
          "type": "address"
        }
      ],
      "stateMutability": "view",
      "type": "function"
    },
    {
      "inputs": [
        {
          "internalType": "bool",
          "name": "_auto",
          "type": "bool"
        }
      ],
      "name": "createWallet",
      "outputs": [
        {
          "internalType": "address",
          "name": "",
          "type": "address"
        }
      ],
      "stateMutability": "nonpayable",
      "type": "function"
    },
    {
      "inputs": [],
      "name": "oracle",
      "outputs": [
        {
          "internalType": "address",
          "name": "_oracle",
          "type": "address"
        }
      ],
      "stateMutability": "view",
      "type": "function"
    },
    {
      "inputs": [
        {
          "components": [
            {
              "internalType": "uint8",
              "name": "v",
              "type": "uint8"
            },
            {
              "internalType": "bytes32",
              "name": "r",
              "type": "bytes32"
            },
            {
              "internalType": "bytes32",
              "name": "s",
              "type": "bytes32"
            },
            {
              "internalType": "address",
              "name": "token",
              "type": "address"
            },
            {
              "internalType": "address",
              "name": "to",
              "type": "address"
            },
            {
              "internalType": "uint256",
              "name": "value",
              "type": "uint256"
            },
            {
              "internalType": "uint256",
              "name": "nonceLimit",
              "type": "uint256"
            },
            {
              "internalType": "uint256",
              "name": "gasPriceLimit",
              "type": "uint256"
            }
          ],
          "internalType": "struct Factory.Transfer[]",
          "name": "tr",
          "type": "tuple[]"
        }
      ],
      "name": "batchTransfer",
      "outputs": [],
      "stateMutability": "nonpayable",
      "type": "function"
    },
    {
      "inputs": [],
      "name": "operator",
      "outputs": [
        {
          "internalType": "address",
          "name": "",
          "type": "address"
        }
      ],
      "stateMutability": "view",
      "type": "function"
    },
    {
      "inputs": [],
      "name": "activator",
      "outputs": [
        {
          "internalType": "address",
          "name": "",
          "type": "address"
        }
      ],
      "stateMutability": "view",
      "type": "function"
    },
    {
      "inputs": [],
      "name": "managers",
      "outputs": [
        {
          "internalType": "address",
          "name": "",
          "type": "address"
        },
        {
          "internalType": "address",
          "name": "",
          "type": "address"
        }
      ],
      "stateMutability": "view",
      "type": "function"
    },
    {
      "inputs": [
        {
          "internalType": "address",
          "name": "oper",
          "type": "address"
        }
      ],
      "name": "setOperator",
      "outputs": [],
      "stateMutability": "nonpayable",
      "type": "function"
    },
    {
      "inputs": [
        {
          "internalType": "address",
          "name": "act",
          "type": "address"
        }
      ],
      "name": "setActivator",
      "outputs": [],
      "stateMutability": "nonpayable",
      "type": "function"
    }
  ],
  "bytecode": "0x60806040523480156200001157600080fd5b5060405162004037380380620040378339810160408190526200003491620003ce565b8282828282826001600160a01b0383166200008b576040805162461bcd60e51b815260206004820152601260248201527106f776e6572312063616e6e6f7420626520360741b604482015290519081900360640190fd5b6001600160a01b038216620000dc576040805162461bcd60e51b815260206004820152601260248201527106f776e6572322063616e6e6f7420626520360741b604482015290519081900360640190fd5b6001600160a01b0381166200012d576040805162461bcd60e51b815260206004820152601260248201527106f776e6572332063616e6e6f7420626520360741b604482015290519081900360640190fd5b816001600160a01b0316836001600160a01b0316141562000195576040805162461bcd60e51b815260206004820152601760248201527f6f776e6572312063616e6e6f74206265206f776e657232000000000000000000604482015290519081900360640190fd5b806001600160a01b0316826001600160a01b03161415620001fd576040805162461bcd60e51b815260206004820152601760248201527f6f776e6572322063616e6e6f74206265206f776e657233000000000000000000604482015290519081900360640190fd5b806001600160a01b0316836001600160a01b0316141562000265576040805162461bcd60e51b815260206004820152601760248201527f6f776e6572312063616e6e6f74206265206f776e657233000000000000000000604482015290519081900360640190fd5b6001600160a01b039283166000908152602081905260408082208054600160ff19918216811790925594861683528183208054861682179055929094168152839020805490921617905551620002bb9062000395565b604051809103906000f080158015620002d8573d6000803e3d6000fd5b50600580546001600160a01b0319166001600160a01b03929092169190911790556040516200030790620003a3565b604051809103906000f08015801562000324573d6000803e3d6000fd5b50600680546001600160a01b03199081166001600160a01b039384161791829055651b185d195cdd60d21b60005260096020527ff5c2ff9c62f1500bae0349717898df1f5d951101798678757bac40a4d7a86c27805492909316911617905550506001600f55506200041792505050565b610466806200369683390190565b61053b8062003afc83390190565b80516001600160a01b0381168114620003c957600080fd5b919050565b600080600060608486031215620003e3578283fd5b620003ee84620003b1565b9250620003fe60208501620003b1565b91506200040e60408501620003b1565b90509250925092565b61326f80620004276000396000f3fe608060405234801561001057600080fd5b50600436106101ce5760003560e01c80637dc0d1d011610104578063b3ab15fb116100a2578063d4b8399211610071578063d4b83992146103f4578063e20056e614610407578063e2adec9c1461041a578063ea8a1af01461042d576101ce565b8063b3ab15fb146103a8578063bf3b1101146103bb578063c5f5b048146103ce578063cf2f7741146103e1576101ce565b80638f32d59b116100de5780638f32d59b1461035757806397e61ee41461037a578063a196de831461038d578063a7ecbd8d146103a0576101ce565b80637dc0d1d01461031e578063842bb732146103265780638c576fc31461032e576101ce565b80634b613c2011610171578063723117051161014b57806372311705146102b157806372e93225146102d15780637721904c146102f85780637c0cc0be1461030b576101ce565b80634b613c201461027c5780634ecea9921461028f578063570ca735146102a0576101ce565b80630e6d1de9116101ad5780630e6d1de9146102485780631a05b142146102615780632bc68db7146102695780633644e515146101d0576101ce565b8062bf26f4146101d057806304d0a6471461020a5780630b3adf9314610235575b005b6101f77ff728cfc064674dacd2ced2a03acd588dfd299d5e4716726c6d5ec364d16406eb81565b6040519081526020015b60405180910390f35b61021d610218366004612d50565b610435565b6040516001600160a01b039091168152602001610201565b6101ce610243366004612dc7565b610456565b61021d600a54600160401b90046001600160a01b031690565b6101ce6108d1565b61021d610277366004612e38565b610a85565b6101ce61028a366004612e70565b610f33565b600e546001600160a01b031661021d565b600d546001600160a01b031661021d565b600d54600e54604051610201926001600160a01b03908116921690612f8e565b6102df63c61f08fd60e01b81565b6040516001600160e01b03199091168152602001610201565b60055461021d906001600160a01b031681565b6101ce610319366004612d50565b61128b565b61021d611498565b6101ce6114f5565b61033e651b185d195cdd60d21b81565b6040516001600160c01b03199091168152602001610201565b3360009081526020819052604090205460ff166040519015158152602001610201565b6101ce610388366004612d8f565b6115f8565b6101ce61039b366004612d50565b611bb6565b6101ce611d9c565b6101ce6103b6366004612d50565b611f4a565b6101ce6103c9366004612d50565b612157565b6101ce6103dc366004612e70565b6123b5565b6101ce6103ef366004612d50565b612632565b60045461021d906001600160a01b031681565b6101ce610415366004612d8f565b612737565b60065461021d906001600160a01b031681565b6101ce612a35565b6001600160a01b03808216600090815260076020526040902054165b919050565b600e546001600160a01b031633146104b55760405162461bcd60e51b815260206004820152601a60248201527f57616c6c65743a2073656e646572206e6f7420616c6c6f77656400000000000060448201526064015b60405180910390fd5b600f54600019600081815b858110156107c657368787838181106104e957634e487b7160e01b600052603260045260246000fd5b610100029190910191506000905060016105a17ff728cfc064674dacd2ced2a03acd588dfd299d5e4716726c6d5ec364d16406eb61052d6080860160608701612d50565b61053d60a0870160808801612d50565b6040805160208101949094526001600160a01b039283169084015216606082015260a080860135608083015260c0808701359183019190915260e0808701359183019190915201604051602081830303815290604052805190602001206000612a99565b6105ae6020850185612f51565b604080516000815260208181018084529490945260ff9092168282015291850135606082015290840135608082015260a0016020604051602081039080840390855afa158015610602573d6000803e3d6000fd5b5050506020604051035190508160c00135851015610622578160c0013594505b8160c00135861115610636578160c0013595505b8160e0013584111561064a578160e0013593505b6001600160a01b0380821660009081526007602052604090205416806106b25760405162461bcd60e51b815260206004820152601c60248201527f466163746f72793a207369676e6572206973206e6f74206f776e65720000000060448201526064016104ac565b6000806001600160a01b0383166203d0906106d36080880160608901612d50565b6106e360a0890160808a01612d50565b6040516001600160a01b0392831660248201529116604482015260a0880135606482015260840160408051601f198184030181529181526020820180516001600160e01b03166323e5d69960e21b1790525161073f9190612f72565b60006040518083038160008787f1925050503d806000811461077d576040519150601f19603f3d011682016040523d82523d6000602084013e610782565b606091505b5091509150816107ae5761079581612b4e565b60405162461bcd60e51b81526004016104ac9190612fa8565b505050505080806107be906130ab565b9150506104c0565b503a8110156108175760405162461bcd60e51b815260206004820152601b60248201527f466163746f72793a2067617320707269636520746f6f2068696768000000000060448201526064016104ac565b838310156108605760405162461bcd60e51b8152602060048201526016602482015275466163746f72793a206e6f6e636520746f6f206c6f7760501b60448201526064016104ac565b61086d84620186a0613028565b82106108bb5760405162461bcd60e51b815260206004820152601760248201527f466163746f72793a206e6f6e636520746f6f206869676800000000000000000060448201526064016104ac565b6108c6826001613028565b600f55505050505050565b33600090815260076020526040902080546001600160a01b03166109075760405162461bcd60e51b81526004016104ac90612fdb565b8054600160a01b900460ff1615156001146109345760405162461bcd60e51b81526004016104ac90612ffe565b80546001600160a01b031660009081526008602052604090205460c01b6001600160c01b03198116651b185d195cdd60d21b14156109745750600a5460c01b5b6001600160c01b031981166000908152600960205260409020546001600160a01b0316806109d85760405162461bcd60e51b81526020600482015260116024820152701d995c9cda5bdb881b9bdd08195e1a5cdd607a1b60448201526064016104ac565b825460405163784d200b60e11b81526001600160a01b039091169063f09a401690610a099033908590600401612f8e565b600060405180830381600087803b158015610a2357600080fd5b505af1158015610a37573d6000803e3d6000fd5b505084546040513393506001600160c01b0319861692506001600160a01b03909116907f9dff4715dcc255fd0abdc515933401366bac62424c60e57d607dfe9003f2dc1790600090a4505050565b6005546000906001600160a01b0316610acb5760405162461bcd60e51b81526020600482015260086024820152676e6f2070726f787960c01b60448201526064016104ac565b600a54600160401b90046001600160a01b0316610b1c5760405162461bcd60e51b815260206004820152600f60248201526e373790383937b2103b32b939b4b7b760891b60448201526064016104ac565b33600090815260076020526040902080546001600160a01b0316610f2357600554610b519030906001600160a01b0316612b94565b81546001600160a01b0319166001600160a01b039182161780835516610bae5760405162461bcd60e51b81526020600482015260126024820152711dd85b1b195d081b9bdd0818dc99585d195960721b60448201526064016104ac565b805460ff60a01b1916600160a01b1781558215610dd5576006546001600160a01b0316610c0f5760405162461bcd60e51b815260206004820152600f60248201526e37379030baba37903b32b939b4b7b760891b60448201526064016104ac565b600654651b185d195cdd60d21b60005260096020527ff5c2ff9c62f1500bae0349717898df1f5d951101798678757bac40a4d7a86c27546001600160a01b03908116911614610c995760405162461bcd60e51b815260206004820152601660248201527534b731b7b93932b1ba1030baba37903b32b939b4b7b760511b60448201526064016104ac565b80546001600160a01b0390811660009081526008602052604090819020805467ffffffffffffffff1916676c617465737400001790558254600654915163784d200b60e11b81529083169263f09a401692610cfd9233929190911690600401612f8e565b600060405180830381600087803b158015610d1757600080fd5b505af1158015610d2b573d6000803e3d6000fd5b505082546040805163011fa75760e71b815290516001600160a01b039092169350638fd3ab80925060048082019260009290919082900301818387803b158015610d7457600080fd5b505af1158015610d88573d6000803e3d6000fd5b50508254604051339350651b185d195cdd60d21b92506001600160a01b03909116907f689c6b1155ee0314d789d2c8968b47cb04b9c8592446c127023fc6399b17310c90600090a4610f23565b600a805482546001600160a01b0390811660009081526008602052604090819020805467ffffffffffffffff191667ffffffffffffffff9094169390931790925583549254915163784d200b60e11b81529281169263f09a401692610e48923392600160401b9092041690600401612f8e565b600060405180830381600087803b158015610e6257600080fd5b505af1158015610e76573d6000803e3d6000fd5b505082546040805163011fa75760e71b815290516001600160a01b039092169350638fd3ab80925060048082019260009290919082900301818387803b158015610ebf57600080fd5b505af1158015610ed3573d6000803e3d6000fd5b5050600a54835460405133945060c09290921b6001600160c01b03191692506001600160a01b0316907f689c6b1155ee0314d789d2c8968b47cb04b9c8592446c127023fc6399b17310c90600090a45b546001600160a01b031692915050565b3360009081526020819052604081205460ff16610f85576040805162461bcd60e51b815260206004820152600b60248201526a6f6e6c79206f776e65727360a81b604482015290519081900360640190fd5b6001546001600160a01b0316610fbf57600180546001600160a01b03191633179055610fb46003600036612cb7565b506002819055611287565b6001546001600160a01b031633141561100d576040805162461bcd60e51b815260206004820152601c602482015260008051602061321a833981519152604482015290519081900360640190fd5b6002548114611051576040805162461bcd60e51b815260206004820152601860248201526000805160206131fa833981519152604482015290519081900360640190fd5b6000366040518083838082843760405192018290038220600380549196509450919250829184915061108290613070565b80156110c55780601f106110a35761010080835404028352918201916110c5565b820191906000526020600020905b8154815290600101906020018083116110b1575b505091505060405180910390201461111e576040805162461bcd60e51b81526020600482015260176024820152766d757374207369676e207468652073616d65206461746160481b604482015290519081900360640190fd5b600180546001600160a01b03191690556001600160c01b031982166000908152600960205260409020546001600160a01b0316806111925760405162461bcd60e51b81526020600482015260116024820152701d995c9cda5bdb881b9bdd08195e1a5cdd607a1b60448201526064016104ac565b6001600160c01b031983166000908152600c60205260409020546001600160a01b0316806111f55760405162461bcd60e51b815260206004820152601060248201526f1bdc9858db19481b9bdd08195e1a5cdd60821b60448201526064016104ac565b600a805467ffffffffffffffff191660c086901c1768010000000000000000600160e01b031916600160401b6001600160a01b0385811691820292909217909255600b80546001600160a01b03191691841691821790556040519091906001600160c01b03198716907fb4d04ce57b22f1de0bfbaebe42d34d0616a77b6de95fde396bbd054851d22f5890600090a450505b5050565b3360009081526020819052604081205460ff166112dd576040805162461bcd60e51b815260206004820152600b60248201526a6f6e6c79206f776e65727360a81b604482015290519081900360640190fd5b6001546001600160a01b031661130c57600180546001600160a01b03191633179055610fb46003600036612cb7565b6001546001600160a01b031633141561135a576040805162461bcd60e51b815260206004820152601c602482015260008051602061321a833981519152604482015290519081900360640190fd5b600254811461139e576040805162461bcd60e51b815260206004820152601860248201526000805160206131fa833981519152604482015290519081900360640190fd5b600036604051808383808284376040519201829003822060038054919650945091925082918491506113cf90613070565b80156114125780601f106113f0576101008083540402835291820191611412565b820191906000526020600020905b8154815290600101906020018083116113fe575b505091505060405180910390201461146b576040805162461bcd60e51b81526020600482015260176024820152766d757374207369676e207468652073616d65206461746160481b604482015290519081900360640190fd5b600180546001600160a01b0319908116909155600e80546001600160a01b03851692169190911790555050565b3360009081526008602052604081205460c01b6001600160c01b03198116651b185d195cdd60d21b14156114ce5750600a5460c01b5b6001600160c01b0319166000908152600c60205260409020546001600160a01b0316919050565b33600090815260076020526040902080546001600160a01b031661152b5760405162461bcd60e51b81526004016104ac90612fdb565b8054600160a01b900460ff1615156001146115585760405162461bcd60e51b81526004016104ac90612ffe565b805460405163784d200b60e11b81526001600160a01b039091169063f09a40169061158a903390600090600401612f8e565b600060405180830381600087803b1580156115a457600080fd5b505af11580156115b8573d6000803e3d6000fd5b505082546040513393506001600160a01b0390911691507f5818d755b157239746017f59fc87c7100652290409a15a7d4fba19ff98efcb5f90600090a350565b3360009081526020819052604081205460ff1661164a576040805162461bcd60e51b815260206004820152600b60248201526a6f6e6c79206f776e65727360a81b604482015290519081900360640190fd5b6001546001600160a01b031661168457600180546001600160a01b031916331790556116796003600036612cb7565b506002819055611bb1565b6001546001600160a01b03163314156116d2576040805162461bcd60e51b815260206004820152601c602482015260008051602061321a833981519152604482015290519081900360640190fd5b6002548114611716576040805162461bcd60e51b815260206004820152601860248201526000805160206131fa833981519152604482015290519081900360640190fd5b6000366040518083838082843760405192018290038220600380549196509450919250829184915061174790613070565b801561178a5780601f1061176857610100808354040283529182019161178a565b820191906000526020600020905b815481529060010190602001808311611776575b50509150506040518091039020146117e3576040805162461bcd60e51b81526020600482015260176024820152766d757374207369676e207468652073616d65206461746160481b604482015290519081900360640190fd5b600180546001600160a01b03191690556001600160a01b0383166118365760405162461bcd60e51b815260206004820152600a6024820152693737903b32b939b4b7b760b11b60448201526064016104ac565b6001600160a01b0382166118805760405162461bcd60e51b815260206004820152601160248201527037379037b930b1b632903b32b939b4b7b760791b60448201526064016104ac565b816001600160a01b031663158ef93e6040518163ffffffff1660e01b815260040160206040518083038186803b1580156118b957600080fd5b505afa1580156118cd573d6000803e3d6000fd5b505050506040513d601f19601f820116820180604052508101906118f19190612e54565b6119365760405162461bcd60e51b81526020600482015260166024820152751bdc9858db19481b9bdd081a5b9a5d1a585b1a5e995960521b60448201526064016104ac565b6000836001600160a01b03166354fd4d506040518163ffffffff1660e01b815260040160206040518083038186803b15801561197157600080fd5b505afa158015611985573d6000803e3d6000fd5b505050506040513d601f19601f820116820180604052508101906119a99190612e8c565b9050806001600160c01b031916836001600160a01b03166354fd4d506040518163ffffffff1660e01b815260040160206040518083038186803b1580156119ef57600080fd5b505afa158015611a03573d6000803e3d6000fd5b505050506040513d601f19601f82011682018060405250810190611a279190612e8c565b6001600160c01b03191614611a725760405162461bcd60e51b81526020600482015260116024820152700eccae4e6d2dedc40dad2e6e8dac2e8c6d607b1b60448201526064016104ac565b6001600160c01b031981166000908152600960205260409020546001600160a01b03168015611ad45760405162461bcd60e51b815260206004820152600e60248201526d76657273696f6e2065786973747360901b60448201526064016104ac565b6001600160c01b031982166000908152600c60205260409020546001600160a01b031615611b345760405162461bcd60e51b815260206004820152600d60248201526c6f7261636c652065786973747360981b60448201526064016104ac565b6001600160c01b03198216600081815260096020908152604080832080546001600160a01b03808c166001600160a01b031992831617909255600c90935281842080548a8316941684179055905191939085169290917ff3c8e7c782d00f601a9d70107849e3f4894c000271e60377966bcfa99ca3ead29190a450505b505050565b6001600160a01b038082166000908152600760205260409020805490911615611c185760405162461bcd60e51b8152602060048201526014602482015273189858dadd5c081a185cc81b9bc81dd85b1b195d60621b60448201526064016104ac565b8054600160a01b900460ff1615611c6a5760405162461bcd60e51b81526020600482015260166024820152753130b1b5bab81034b9903bb0b63632ba1037bbb732b960511b60448201526064016104ac565b6000336001600160a01b0316638da5cb5b6040518163ffffffff1660e01b815260040160206040518083038186803b158015611ca557600080fd5b505afa158015611cb9573d6000803e3d6000fd5b505050506040513d601f19601f82011682018060405250810190611cdd9190612d73565b6001600160a01b038181166000908152600760205260409020805492935091163314611d385760405162461bcd60e51b815260206004820152600a6024820152691b9bdd081dd85b1b195d60b21b60448201526064016104ac565b8054600160a01b900460ff161515600114611d875760405162461bcd60e51b815260206004820152600f60248201526e3737903bb0b63632ba1037bbb732b960891b60448201526064016104ac565b505080546001600160a01b0319163317905550565b33600090815260076020526040902080546001600160a01b0316611dd25760405162461bcd60e51b81526004016104ac90612fdb565b8054600160a01b900460ff161515600114611dff5760405162461bcd60e51b81526004016104ac90612ffe565b80546001600160a01b031660009081526008602052604090205460c01b6001600160c01b03198116651b185d195cdd60d21b1415611e3f5750600a5460c01b5b6001600160c01b031981166000908152600960205260409020546001600160a01b031680611e9c5760405162461bcd60e51b815260206004820152600a6024820152693737903b32b939b4b7b760b11b60448201526064016104ac565b825460405163784d200b60e11b81526001600160a01b039091169063f09a401690611ece906000908590600401612f8e565b600060405180830381600087803b158015611ee857600080fd5b505af1158015611efc573d6000803e3d6000fd5b505084546040513393506001600160c01b0319861692506001600160a01b03909116907f674e126c2ea08c63dbe99eca56b1e9bd3b8d412a467e57060a5953f6e3c2060090600090a4505050565b3360009081526020819052604081205460ff16611f9c576040805162461bcd60e51b815260206004820152600b60248201526a6f6e6c79206f776e65727360a81b604482015290519081900360640190fd5b6001546001600160a01b0316611fcb57600180546001600160a01b03191633179055610fb46003600036612cb7565b6001546001600160a01b0316331415612019576040805162461bcd60e51b815260206004820152601c602482015260008051602061321a833981519152604482015290519081900360640190fd5b600254811461205d576040805162461bcd60e51b815260206004820152601860248201526000805160206131fa833981519152604482015290519081900360640190fd5b6000366040518083838082843760405192018290038220600380549196509450919250829184915061208e90613070565b80156120d15780601f106120af5761010080835404028352918201916120d1565b820191906000526020600020905b8154815290600101906020018083116120bd575b505091505060405180910390201461212a576040805162461bcd60e51b81526020600482015260176024820152766d757374207369676e207468652073616d65206461746160481b604482015290519081900360640190fd5b600180546001600160a01b0319908116909155600d80546001600160a01b03851692169190911790555050565b6000336001600160a01b0316638da5cb5b6040518163ffffffff1660e01b815260040160206040518083038186803b15801561219257600080fd5b505afa1580156121a6573d6000803e3d6000fd5b505050506040513d601f19601f820116820180604052508101906121ca9190612d73565b6001600160a01b03818116600090815260076020526040902080549293509116331461222a5760405162461bcd60e51b815260206004820152600f60248201526e199c9bdb4e881b9bc81dd85b1b195d608a1b60448201526064016104ac565b8054600160a01b900460ff1615156001146122805760405162461bcd60e51b8152602060048201526016602482015275333937b69d103737ba103bb0b63632ba1037bbb732b960511b60448201526064016104ac565b6001600160a01b038381166000908152600760205260409020805490911633146122ec5760405162461bcd60e51b815260206004820152601b60248201527f746f3a206e6f742073616d652077616c6c65742061732066726f6d000000000060448201526064016104ac565b8054600160a01b900460ff16156123385760405162461bcd60e51b815260206004820152601060248201526f3a379d103bb0b63632ba1037bbb732b960811b60448201526064016104ac565b805460ff60a01b1916600160a01b17815581546001600160a81b031916825560405163784d200b60e11b8152339063f09a40169061237d908790600090600401612f8e565b600060405180830381600087803b15801561239757600080fd5b505af11580156123ab573d6000803e3d6000fd5b5050505050505050565b6001600160c01b031981166000908152600960205260409020546001600160a01b0316806124175760405162461bcd60e51b815260206004820152600f60248201526e6e6f2076657273696f6e20636f646560881b60448201526064016104ac565b6000336001600160a01b0316638da5cb5b6040518163ffffffff1660e01b815260040160206040518083038186803b15801561245257600080fd5b505afa158015612466573d6000803e3d6000fd5b505050506040513d601f19601f8201168201806040525081019061248a9190612d73565b6001600160a01b03818116600090815260076020526040902080549293509116331480156124c557508054600160a01b900460ff1615156001145b6125115760405162461bcd60e51b815260206004820152601a60248201527f73656e646572206973206e6f742077616c6c6574206f776e657200000000000060448201526064016104ac565b80546001600160a01b031660009081526008602052604090819020805467ffffffffffffffff191660c087901c1790555163784d200b60e11b8152339063f09a4016906125649085908790600401612f8e565b600060405180830381600087803b15801561257e57600080fd5b505af1158015612592573d6000803e3d6000fd5b50505050336001600160a01b0316638fd3ab806040518163ffffffff1660e01b8152600401600060405180830381600087803b1580156125d157600080fd5b505af11580156125e5573d6000803e3d6000fd5b505082546040516001600160c01b0319881693506001600160a01b0390911691507feafb3b932d1424e32ec924eb9695430fd852ce33327c076abb1699b72ec58f1690600090a350505050565b6001600160a01b0381166126745760405162461bcd60e51b815260206004820152600960248201526806e6f206261636b75760bc1b60448201526064016104ac565b6001600160a01b038082166000908152600760205260409020805490911633146126cd5760405162461bcd60e51b815260206004820152600a6024820152691b9bdd081dd85b1b195d60b21b60448201526064016104ac565b8054600160a01b900460ff16156127265760405162461bcd60e51b815260206004820152601760248201527f77616c6c6574206261636b7570206e6f7420657869737400000000000000000060448201526064016104ac565b80546001600160a01b031916905550565b3360009081526020819052604081205460ff16612789576040805162461bcd60e51b815260206004820152600b60248201526a6f6e6c79206f776e65727360a81b604482015290519081900360640190fd5b6001546001600160a01b03166127b857600180546001600160a01b031916331790556116796003600036612cb7565b6001546001600160a01b0316331415612806576040805162461bcd60e51b815260206004820152601c602482015260008051602061321a833981519152604482015290519081900360640190fd5b600254811461284a576040805162461bcd60e51b815260206004820152601860248201526000805160206131fa833981519152604482015290519081900360640190fd5b6000366040518083838082843760405192018290038220600380549196509450919250829184915061287b90613070565b80156128be5780601f1061289c5761010080835404028352918201916128be565b820191906000526020600020905b8154815290600101906020018083116128aa575b5050915050604051809103902014612917576040805162461bcd60e51b81526020600482015260176024820152766d757374207369676e207468652073616d65206461746160481b604482015290519081900360640190fd5b600180546001600160a01b03191681556001600160a01b03841660009081526020819052604090205460ff1615151461298c576040805162461bcd60e51b81526020600482015260126024820152711bdddb995c881cda1bdd5b1908195e1a5cdd60721b604482015290519081900360640190fd5b6001600160a01b03821660009081526020819052604090205460ff16156129fa576040805162461bcd60e51b815260206004820152601a60248201527f6e6577206f776e65722073686f756c64206e6f74206578697374000000000000604482015290519081900360640190fd5b6001600160a01b03808416600090815260208190526040808220805460ff199081169091559285168252902080549091166001179055505050565b3360009081526020819052604090205460ff16612a87576040805162461bcd60e51b815260206004820152600b60248201526a6f6e6c79206f776e65727360a81b604482015290519081900360640190fd5b600180546001600160a01b0319169055565b60008115612afc5760405161190160f01b60208201527ff728cfc064674dacd2ced2a03acd588dfd299d5e4716726c6d5ec364d16406eb602282015260428101849052606201604051602081830303815290604052805190602001209050612b48565b6040517f19457468657265756d205369676e6564204d6573736167653a0a3332000000006020820152603c8101849052605c016040516020818303038152906040528051906020012090505b92915050565b6060604482511015612b7a5760405180606001604052806025815260200161312f602591399050610451565b60048201915081806020019051810190612b489190612ea8565b6000806040518060e0016040528060a6815260200161315460a691399050606084811b9084901b60005b6014811015612ca357828160148110612be757634e487b7160e01b600052603260045260246000fd5b1a60f81b84612bf783603d613028565b81518110612c1557634e487b7160e01b600052603260045260246000fd5b60200101906001600160f81b031916908160001a905350818160148110612c4c57634e487b7160e01b600052603260045260246000fd5b1a60f81b84612c5c836065613028565b81518110612c7a57634e487b7160e01b600052603260045260246000fd5b60200101906001600160f81b031916908160001a90535080612c9b816130ab565b915050612bbe565b508251602084016000f09695505050505050565b828054612cc390613070565b90600052602060002090601f016020900481019282612ce55760008555612d2b565b82601f10612cfe5782800160ff19823516178555612d2b565b82800160010185558215612d2b579182015b82811115612d2b578235825591602001919060010190612d10565b50612d37929150612d3b565b5090565b5b80821115612d375760008155600101612d3c565b600060208284031215612d61578081fd5b8135612d6c816130f2565b9392505050565b600060208284031215612d84578081fd5b8151612d6c816130f2565b60008060408385031215612da1578081fd5b8235612dac816130f2565b91506020830135612dbc816130f2565b809150509250929050565b60008060208385031215612dd9578182fd5b823567ffffffffffffffff80821115612df0578384fd5b818501915085601f830112612e03578384fd5b813581811115612e11578485fd5b86602061010083028501011115612e26578485fd5b60209290920196919550909350505050565b600060208284031215612e49578081fd5b8135612d6c8161310a565b600060208284031215612e65578081fd5b8151612d6c8161310a565b600060208284031215612e81578081fd5b8135612d6c81613118565b600060208284031215612e9d578081fd5b8151612d6c81613118565b600060208284031215612eb9578081fd5b815167ffffffffffffffff80821115612ed0578283fd5b818401915084601f830112612ee3578283fd5b815181811115612ef557612ef56130dc565b604051601f8201601f19908116603f01168101908382118183101715612f1d57612f1d6130dc565b81604052828152876020848701011115612f35578586fd5b612f46836020830160208801613040565b979650505050505050565b600060208284031215612f62578081fd5b813560ff81168114612d6c578182fd5b60008251612f84818460208701613040565b9190910192915050565b6001600160a01b0392831681529116602082015260400190565b6000602082528251806020840152612fc7816040850160208701613040565b601f01601f19169190910160400192915050565b6020808252600990820152681b9bc81dd85b1b195d60ba1b604082015260600190565b60208082526010908201526f3737ba103bb0b63632ba1037bbb732b960811b604082015260600190565b6000821982111561303b5761303b6130c6565b500190565b60005b8381101561305b578181015183820152602001613043565b8381111561306a576000848401525b50505050565b60028104600182168061308457607f821691505b602082108114156130a557634e487b7160e01b600052602260045260246000fd5b50919050565b60006000198214156130bf576130bf6130c6565b5060010190565b634e487b7160e01b600052601160045260246000fd5b634e487b7160e01b600052604160045260246000fd5b6001600160a01b038116811461310757600080fd5b50565b801515811461310757600080fd5b6001600160c01b03198116811461310757600080fdfe57616c6c65743a205472616e73616374696f6e2072657665727465642073696c656e746c7960998061000d6000396000f30036601657341560145734602052336001602080a25b005b6000805260046000601c376302d05d3f6000511415604b5773dadadadadadadadadadadadadadadadadadadada602052602080f35b366000803760008036600073bebebebebebebebebebebebebebebebebebebebe5af415608f57341560855734602052600051336002602080a35b3d6000803e3d6000f35b3d6000803e3d6000fd6d757374207369676e207468652073616d652076616c7565000000000000000073616d65206f776e65722063616e6e6f74207369676e20747769636500000000a2646970667358221220fcfacc3ce3aff54fbaf1856cb1ba3244f0dd6c096bc61b286f99ce3f65cde1f364736f6c63430008020033608060405234801561001057600080fd5b50600080546001600160a01b03191633179055610434806100326000396000f3fe60806040526004361061004e5760003560e01c806302d05d3f146100c65780638da5cb5b146100f2578063d4b8399214610110578063f09a40161461012e578063fec5a18d1461016b576100a0565b366100a0576040805162461bcd60e51b815260206004820181905260248201527f73686f756c64206e6f7420616363657074206574686572206469726563746c79604482015290519081900360640190fd5b36600080376000803660006001545af43d6000803e80156100c0573d6000f35b503d6000fd5b3480156100d257600080fd5b5060005b604080516001600160a01b039092168252519081900360200190f35b3480156100fe57600080fd5b506000546001600160a01b03166100d6565b34801561011c57600080fd5b506001546001600160a01b03166100d6565b34801561013a57600080fd5b506101696004803603604081101561015157600080fd5b506001600160a01b038135811691602001351661019f565b005b34801561017757600080fd5b506101696004803603602081101561018e57600080fd5b50356001600160c01b0319166102e0565b306001600160a01b03166302d05d3f6040518163ffffffff1660e01b815260040160206040518083038186803b1580156101d857600080fd5b505afa1580156101ec573d6000803e3d6000fd5b505050506040513d602081101561020257600080fd5b50516001600160a01b0316331461024e576040805162461bcd60e51b815260206004820152600b60248201526a3737ba1031b932b0ba37b960a91b604482015290519081900360640190fd5b6000546001600160a01b0383811691161480159061027457506001600160a01b03821615155b1561029557600080546001600160a01b0319166001600160a01b0384161790555b6001546001600160a01b038281169116148015906102bb57506001600160a01b03811615155b156102dc57600180546001600160a01b0319166001600160a01b0383161790555b5050565b6000546001600160a01b0316331461032b576040805162461bcd60e51b81526020600482015260096024820152683737ba1037bbb732b960b91b604482015290519081900360640190fd5b306001600160a01b03166302d05d3f6040518163ffffffff1660e01b815260040160206040518083038186803b15801561036457600080fd5b505afa158015610378573d6000803e3d6000fd5b505050506040513d602081101561038e57600080fd5b5051604080516318beb60960e31b81526001600160c01b03198416600482015290516001600160a01b039092169163c5f5b0489160248082019260009290919082900301818387803b1580156103e357600080fd5b505af11580156103f7573d6000803e3d6000fd5b505050505056fea2646970667358221220be639f880d41e6e2ac04a73e2de79797758e07dbef3e871053a9bf42d81491ee64736f6c63430008020033608060405234801561001057600080fd5b50600080546001600160a01b03191633179055610509806100326000396000f3fe60806040526004361061004e5760003560e01c806302d05d3f1461019b5780638da5cb5b146101c7578063d4b83992146101e5578063f09a401614610203578063fec5a18d14610240576100a0565b366100a0576040805162461bcd60e51b815260206004820181905260248201527f73686f756c64206e6f7420616363657074206574686572206469726563746c79604482015290519081900360640190fd5b6000306001600160a01b03166302d05d3f6040518163ffffffff1660e01b815260040160206040518083038186803b1580156100db57600080fd5b505afa1580156100ef573d6000803e3d6000fd5b505050506040513d602081101561010557600080fd5b505160408051630e6d1de960e01b815290516001600160a01b0390921691630e6d1de991600480820192602092909190829003018186803b15801561014957600080fd5b505afa15801561015d573d6000803e3d6000fd5b505050506040513d602081101561017357600080fd5b505190503660008037600080366000845af43d6000803e8015610195573d6000f35b503d6000fd5b3480156101a757600080fd5b5060005b604080516001600160a01b039092168252519081900360200190f35b3480156101d357600080fd5b506000546001600160a01b03166101ab565b3480156101f157600080fd5b506001546001600160a01b03166101ab565b34801561020f57600080fd5b5061023e6004803603604081101561022657600080fd5b506001600160a01b0381358116916020013516610274565b005b34801561024c57600080fd5b5061023e6004803603602081101561026357600080fd5b50356001600160c01b0319166103b5565b306001600160a01b03166302d05d3f6040518163ffffffff1660e01b815260040160206040518083038186803b1580156102ad57600080fd5b505afa1580156102c1573d6000803e3d6000fd5b505050506040513d60208110156102d757600080fd5b50516001600160a01b03163314610323576040805162461bcd60e51b815260206004820152600b60248201526a3737ba1031b932b0ba37b960a91b604482015290519081900360640190fd5b6000546001600160a01b0383811691161480159061034957506001600160a01b03821615155b1561036a57600080546001600160a01b0319166001600160a01b0384161790555b6001546001600160a01b0382811691161480159061039057506001600160a01b03811615155b156103b157600180546001600160a01b0319166001600160a01b0383161790555b5050565b6000546001600160a01b03163314610400576040805162461bcd60e51b81526020600482015260096024820152683737ba1037bbb732b960b91b604482015290519081900360640190fd5b306001600160a01b03166302d05d3f6040518163ffffffff1660e01b815260040160206040518083038186803b15801561043957600080fd5b505afa15801561044d573d6000803e3d6000fd5b505050506040513d602081101561046357600080fd5b5051604080516318beb60960e31b81526001600160c01b03198416600482015290516001600160a01b039092169163c5f5b0489160248082019260009290919082900301818387803b1580156104b857600080fd5b505af11580156104cc573d6000803e3d6000fd5b505050505056fea26469706673582212207aee8b17bab646ad6789814025bc85715b49127b1b5a4176c955fe61497bff6b64736f6c63430008020033",
  "immutableReferences": {},
  "source": "// SPDX-License-Identifier: UNLICENSED\n\npragma solidity ^0.8.0;\npragma abicoder v2;\n\nimport \"./FactoryStorage.sol\";\nimport \"./lib/IOracle.sol\";\n\ncontract Factory is FactoryStorage {\n    event WalletCreated(\n        address indexed wallet,\n        bytes8 indexed version,\n        address indexed owner\n    );\n    event WalletUpgraded(address indexed wallet, bytes8 indexed version);\n    event WalletConfigurationRestored(\n        address indexed wallet,\n        bytes8 indexed version,\n        address indexed owner\n    );\n    event WalletOwnershipRestored(\n        address indexed wallet,\n        address indexed owner\n    );\n    event WalletVersionRestored(\n        address indexed wallet,\n        bytes8 indexed version,\n        address indexed owner\n    );\n    event VersionAdded(\n        bytes8 indexed version,\n        address indexed code,\n        address indexed oracle\n    );\n    event VersionDeployed(\n        bytes8 indexed version,\n        address indexed code,\n        address indexed oracle\n    );\n\n    constructor(\n        address owner1,\n        address owner2,\n        address owner3\n    ) FactoryStorage(owner1, owner2, owner3) {}\n\n    function _createWallet(address _creator, address _target)\n        private\n        returns (address result)\n    {\n        bytes memory _code =\n            hex\"60998061000d6000396000f30036601657341560145734602052336001602080a25b005b6000805260046000601c376302d05d3f6000511415604b5773dadadadadadadadadadadadadadadadadadadada602052602080f35b366000803760008036600073bebebebebebebebebebebebebebebebebebebebe5af415608f57341560855734602052600051336002602080a35b3d6000803e3d6000f35b3d6000803e3d6000fd\"; //log3-event-ids-address-funcid-opt (-2,-2) (min: 22440)\n        bytes20 creatorBytes = bytes20(_creator);\n        bytes20 targetBytes = bytes20(_target);\n        for (uint256 i = 0; i < 20; i++) {\n            _code[61 + i] = creatorBytes[i];\n            _code[101 + i] = targetBytes[i];\n        }\n        // solium-disable-next-line security/no-inline-assembly\n        assembly {\n            result := create(0, add(_code, 0x20), mload(_code))\n        }\n    }\n\n    function transferWalletOwnership(address _newOwner) external {\n        address _curOwner = IProxy(msg.sender).owner();\n        Wallet storage _sw = accounts_wallet[_curOwner];\n        require(msg.sender == _sw.addr, \"from: no wallet\");\n        require(_sw.owner == true, \"from: not wallet owner\");\n        Wallet storage _sw2 = accounts_wallet[_newOwner];\n        require(msg.sender == _sw2.addr, \"to: not same wallet as from\");\n        require(_sw2.owner == false, \"to: wallet owner\");\n        _sw2.owner = true;\n        _sw.owner = false;\n        _sw.addr = address(0);\n        IProxy(msg.sender).init(_newOwner, address(0));\n    }\n\n    function addWalletBackup(address _backup) external {\n        Wallet storage _sw = accounts_wallet[_backup];\n        require(_sw.addr == address(0), \"backup has no wallet\");\n        require(_sw.owner == false, \"backup is wallet owner\"); //\n        address _owner = IProxy(msg.sender).owner();\n        Wallet storage _sw_owner = accounts_wallet[_owner];\n        require(msg.sender == _sw_owner.addr, \"not wallet\");\n        require(_sw_owner.owner == true, \"no wallet owner\");\n        _sw.addr = msg.sender;\n    }\n\n    function removeWalletBackup(address _backup) external {\n        require(_backup != address(0), \"no backup\");\n        Wallet storage _sw = accounts_wallet[_backup];\n        require(_sw.addr == msg.sender, \"not wallet\");\n        require(_sw.owner == false, \"wallet backup not exist\");\n        _sw.addr = address(0);\n    }\n\n    function upgradeWallet(bytes8 _version) external {\n        address _code = versions_code[_version];\n        require(_code != address(0), \"no version code\");\n        address _owner = IProxy(msg.sender).owner();\n        Wallet storage _sw = accounts_wallet[_owner];\n        require(\n            msg.sender == _sw.addr && _sw.owner == true,\n            \"sender is not wallet owner\"\n        );\n        wallets_version[_sw.addr] = _version;\n        IProxy(msg.sender).init(_owner, _code);\n        IStorage(msg.sender).migrate();\n        emit WalletUpgraded(_sw.addr, _version);\n    }\n\n    function addVersion(address _target, address _oracle)\n        public\n        multiSig2of3(0)\n    {\n        require(_target != address(0), \"no version\");\n        require(_oracle != address(0), \"no oracle version\");\n        require(\n            IOracle(_oracle).initialized() != false,\n            \"oracle not initialized\"\n        );\n        bytes8 _version = IStorage(_target).version();\n        require(IOracle(_oracle).version() == _version, \"version mistmatch\");\n        address _code = versions_code[_version];\n        require(_code == address(0), \"version exists\");\n        require(versions_oracle[_version] == address(0), \"oracle exists\");\n        versions_code[_version] = _target;\n        versions_oracle[_version] = _oracle;\n        emit VersionAdded(_version, _code, _oracle);\n    }\n\n    function deployVersion(bytes8 _version) public multiSig2of3(0) {\n        address _code = versions_code[_version];\n        require(_code != address(0), \"version not exist\");\n        address _oracle = versions_oracle[_version];\n        require(_oracle != address(0), \"oracle not exist\");\n        production_version = _version;\n        production_version_code = _code;\n        production_version_oracle = _oracle;\n        emit VersionDeployed(_version, _code, _oracle);\n    }\n\n    function restoreWalletConfiguration() public {\n        Wallet storage _sw = accounts_wallet[msg.sender];\n        require(_sw.addr != address(0), \"no wallet\");\n        require(_sw.owner == true, \"not wallet owner\");\n        bytes8 _version = wallets_version[_sw.addr];\n        if (_version == LATEST) {\n            _version = production_version;\n        }\n        address _code = versions_code[_version];\n        require(_code != address(0), \"version not exist\");\n        IProxy(_sw.addr).init(msg.sender, _code);\n        emit WalletConfigurationRestored(_sw.addr, _version, msg.sender);\n    }\n\n    function restoreWalletOwnership() public {\n        Wallet storage _sw = accounts_wallet[msg.sender];\n        require(_sw.addr != address(0), \"no wallet\");\n        require(_sw.owner == true, \"not wallet owner\");\n\n        IProxy(_sw.addr).init(msg.sender, address(0));\n        emit WalletOwnershipRestored(_sw.addr, msg.sender);\n    }\n\n    function restoreWalletVersion() public {\n        Wallet storage _sw = accounts_wallet[msg.sender];\n        require(_sw.addr != address(0), \"no wallet\");\n        require(_sw.owner == true, \"not wallet owner\");\n\n        bytes8 _version = wallets_version[_sw.addr];\n        if (_version == LATEST) {\n            _version = production_version;\n        }\n        address _code = versions_code[_version];\n        require(_code != address(0), \"no version\");\n        IProxy(_sw.addr).init(address(0), _code);\n        emit WalletVersionRestored(_sw.addr, _version, msg.sender);\n    }\n\n    function getLatestVersion() public view returns (address) {\n        return production_version_code;\n    }\n\n    function getWallet(address _account) public view returns (address) {\n        return accounts_wallet[_account].addr;\n    }\n\n    function createWallet(bool _auto) public returns (address) {\n        require(address(swProxy) != address(0), \"no proxy\");\n        require(production_version_code != address(0), \"no prod version\"); //Must be here - ProxyLatest also needs it.\n        Wallet storage _sw = accounts_wallet[msg.sender];\n        if (_sw.addr == address(0)) {\n            _sw.addr = _createWallet(address(this), address(swProxy));\n            require(_sw.addr != address(0), \"wallet not created\");\n            _sw.owner = true;\n            if (_auto) {\n                require(\n                    address(swProxyLatest) != address(0),\n                    \"no auto version\"\n                );\n                require(\n                    versions_code[LATEST] == address(swProxyLatest),\n                    \"incorrect auto version\"\n                );\n                wallets_version[_sw.addr] = LATEST;\n                IProxy(_sw.addr).init(msg.sender, address(swProxyLatest));\n                IStorage(_sw.addr).migrate();\n                emit WalletCreated(_sw.addr, LATEST, msg.sender);\n            } else {\n                wallets_version[_sw.addr] = production_version;\n                IProxy(_sw.addr).init(msg.sender, production_version_code);\n                IStorage(_sw.addr).migrate();\n                emit WalletCreated(_sw.addr, production_version, msg.sender);\n            }\n        }\n        return _sw.addr;\n    }\n\n    function oracle() public view returns (address _oracle) {\n        bytes8 _version = wallets_version[msg.sender];\n        if (_version == LATEST) {\n            _version = production_version;\n        }\n        _oracle = versions_oracle[_version];\n    }\n\n    // keccak256(\"acceptTokens(address recipient,uint256 value,bytes32 secretHash)\");\n    bytes32 public constant TRANSFER_TYPEHASH = 0xf728cfc064674dacd2ced2a03acd588dfd299d5e4716726c6d5ec364d16406eb;\n    // keccak256(\"acceptTokens(address recipient,uint256 value,bytes32 secretHash)\");\n    bytes32 public constant DOMAIN_SEPARATOR = 0xf728cfc064674dacd2ced2a03acd588dfd299d5e4716726c6d5ec364d16406eb;\n\n    // bytes4(keccak256(\"sendEther(address payable,uint256)\"));\n    bytes4 public constant TRANSFER_SELECTOR = 0xc61f08fd;\n\n    struct Transfer {\n        uint8 v;\n        bytes32 r;\n        bytes32 s;\n        address token;\n        address to;\n        uint256 value;\n        uint256 nonceLimit;\n        uint256 gasPriceLimit;\n    }\n\n    function batchTransfer(Transfer[] calldata tr) public {\n      require(msg.sender == _activator, \"Wallet: sender not allowed\");\n      uint256 nonce = s_nonce;\n      uint256 minNonce = type(uint256).max;\n      uint256 maxNonce = 0;\n      uint256 minGasPrice = type(uint256).max;\n      for(uint256 i = 0; i < tr.length; i++) {\n        Transfer calldata call = tr[i];\n        address signer = ecrecover(\n          _messageToRecover(keccak256(abi.encode(TRANSFER_TYPEHASH, call.token, call.to, call.value, call.nonceLimit, call.gasPriceLimit)), false),\n          call.v,\n          call.r,\n          call.s\n        );\n        if (maxNonce < call.nonceLimit) {\n          maxNonce = call.nonceLimit;\n        }\n        if (minNonce > call.nonceLimit) {\n          minNonce = call.nonceLimit;\n        }\n        if (minGasPrice > call.gasPriceLimit) {\n          minGasPrice = call.gasPriceLimit;\n        }\n        address wallet = accounts_wallet[signer].addr;\n        require(wallet != address(0), \"Factory: signer is not owner\");\n        (bool success, bytes memory res) = wallet.call{gas: 250000}(abi.encodeWithSignature(\"sendERC20(address,address,uint256)\", call.token, call.to, call.value));\n        if (!success) {\n            revert(_getRevertMsg(res));\n        }\n        // IWallet(wallet).sendEther(payable(call.to), call.value);\n      }\n      require(minGasPrice >= tx.gasprice, \"Factory: gas price too high\");\n      require(minNonce >= nonce, \"Factory: nonce too low\");\n      require(maxNonce < nonce+100000, \"Factory: nonce too high\");\n      s_nonce = maxNonce + 1;\n    }\n\n    function _getRevertMsg(bytes memory returnData)\n        internal\n        pure\n        returns (string memory)\n    {\n        if (returnData.length < 68)\n            return \"Wallet: Transaction reverted silently\";\n\n        assembly {\n            returnData := add(returnData, 0x04)\n        }\n        return abi.decode(returnData, (string));\n    }\n\n\n    function _messageToRecover(bytes32 hashedUnsignedMessage, bool eip712)\n        private\n        view\n        returns (bytes32)\n    {\n        if (eip712) {\n            return\n                keccak256(\n                    abi.encodePacked(\n                        \"\\x19\\x01\",\n                        DOMAIN_SEPARATOR,\n                        hashedUnsignedMessage\n                    )\n                );\n        }\n        return\n            keccak256(\n                abi.encodePacked(\n                    \"\\x19Ethereum Signed Message:\\n32\",\n                    hashedUnsignedMessage\n                )\n            );\n    }\n\n\n    function operator() public view returns (address) {\n      return _operator;\n    }\n\n    function activator() public view returns (address) {\n      return _activator;\n    }\n\n    function managers() public view returns (address, address) {\n      return (_operator, _activator);\n    }\n\n    function setOperator(address oper) public  multiSig2of3(0) {\n      _operator = oper;\n    }\n\n    function setActivator(address act) public  multiSig2of3(0) {\n      _activator = act;\n    }\n\n    /*\n    receive () external payable {\n      if (msg.value > 0) {\n        emit GotEther(msg.sender, msg.value);\n      }\n    }\n    */\n\n    fallback() external {\n        /*\n        bytes8 _version = wallets_version[msg.sender];\n        if (_version == LATEST) {\n            _version = production_version;\n        }\n        address _oracle = versions_oracle[_version];\n       */\n        //require(_oracle != address(0), \"no oracle code\");\n        /*\n        // solium-disable-next-line security/no-inline-assembly\n        assembly {\n                calldatacopy(0x00, 0x00, calldatasize)\n                //let res := call(gas, sload(oracle_slot), callvalue, 0x00, calldatasize, 0, 0)\n                let res := staticcall(gas, sload(_oracle), 0x00, calldatasize, 0, 0)\n                returndatacopy(0x00, 0x00, returndatasize)\n                if res { return(0x00, returndatasize) }\n                revert(0x00, returndatasize)\n            }\n            */\n    }\n}\n",
  "sourcePath": "/Users/Tal/code/kirobo/ki-eth-contracts/contracts/Factory.sol",
  "compiler": {
    "name": "solc",
    "version": "0.8.2+commit.661d1103.Emscripten.clang"
  },
  "schemaVersion": "3.3.4",
  "updatedAt": "2021-04-13T23:14:26.094Z",
  "devdoc": {
    "kind": "dev",
    "methods": {},
    "version": 1
  },
  "userdoc": {
    "kind": "user",
    "methods": {},
    "version": 1
  }
}