{
  "contractName": "Oracle",
  "abi": [
    {
      "inputs": [
        {
          "internalType": "address",
          "name": "owner1",
          "type": "address"
        },
        {
          "internalType": "address",
          "name": "owner2",
          "type": "address"
        },
        {
          "internalType": "address",
          "name": "owner3",
          "type": "address"
        }
      ],
      "stateMutability": "nonpayable",
      "type": "constructor"
    },
    {
      "stateMutability": "nonpayable",
      "type": "fallback"
    },
    {
      "inputs": [],
      "name": "cancel",
      "outputs": [],
      "stateMutability": "nonpayable",
      "type": "function"
    },
    {
      "inputs": [],
      "name": "initialized",
      "outputs": [
        {
          "internalType": "bool",
          "name": "",
          "type": "bool"
        }
      ],
      "stateMutability": "view",
      "type": "function"
    },
    {
      "inputs": [],
      "name": "isOwner",
      "outputs": [
        {
          "internalType": "bool",
          "name": "",
          "type": "bool"
        }
      ],
      "stateMutability": "view",
      "type": "function"
    },
    {
      "inputs": [],
      "name": "paymentAddress",
      "outputs": [
        {
          "internalType": "address payable",
          "name": "",
          "type": "address"
        }
      ],
      "stateMutability": "view",
      "type": "function"
    },
    {
      "inputs": [
        {
          "internalType": "address",
          "name": "_owner",
          "type": "address"
        },
        {
          "internalType": "address",
          "name": "_newOwner",
          "type": "address"
        }
      ],
      "name": "replaceOwner",
      "outputs": [],
      "stateMutability": "nonpayable",
      "type": "function"
    },
    {
      "inputs": [
        {
          "internalType": "address payable",
          "name": "_payto",
          "type": "address"
        }
      ],
      "name": "setPaymentAddress",
      "outputs": [],
      "stateMutability": "nonpayable",
      "type": "function"
    },
    {
      "inputs": [
        {
          "internalType": "address",
          "name": "_token",
          "type": "address"
        },
        {
          "internalType": "bool",
          "name": "_safe",
          "type": "bool"
        }
      ],
      "name": "update20",
      "outputs": [],
      "stateMutability": "payable",
      "type": "function"
    },
    {
      "inputs": [
        {
          "internalType": "address",
          "name": "_token",
          "type": "address"
        },
        {
          "internalType": "bool",
          "name": "_safe",
          "type": "bool"
        }
      ],
      "name": "update721",
      "outputs": [],
      "stateMutability": "nonpayable",
      "type": "function"
    },
    {
      "inputs": [
        {
          "internalType": "address",
          "name": "_token",
          "type": "address"
        }
      ],
      "name": "is20Safe",
      "outputs": [
        {
          "internalType": "bool",
          "name": "",
          "type": "bool"
        }
      ],
      "stateMutability": "view",
      "type": "function"
    },
    {
      "inputs": [
        {
          "internalType": "address",
          "name": "_token",
          "type": "address"
        }
      ],
      "name": "is721Safe",
      "outputs": [
        {
          "internalType": "bool",
          "name": "",
          "type": "bool"
        }
      ],
      "stateMutability": "view",
      "type": "function"
    },
    {
      "inputs": [],
      "name": "version",
      "outputs": [
        {
          "internalType": "bytes8",
          "name": "",
          "type": "bytes8"
        }
      ],
      "stateMutability": "pure",
      "type": "function"
    }
  ],
  "bytecode": "0x608060405234801561001057600080fd5b5060405161117c38038061117c8339818101604052606081101561003357600080fd5b50805160208201516040909201519091908282826001600160a01b038316610097576040805162461bcd60e51b815260206004820152601260248201527106f776e6572312063616e6e6f7420626520360741b604482015290519081900360640190fd5b6001600160a01b0382166100e7576040805162461bcd60e51b815260206004820152601260248201527106f776e6572322063616e6e6f7420626520360741b604482015290519081900360640190fd5b6001600160a01b038116610137576040805162461bcd60e51b815260206004820152601260248201527106f776e6572332063616e6e6f7420626520360741b604482015290519081900360640190fd5b816001600160a01b0316836001600160a01b0316141561019e576040805162461bcd60e51b815260206004820152601760248201527f6f776e6572312063616e6e6f74206265206f776e657232000000000000000000604482015290519081900360640190fd5b806001600160a01b0316826001600160a01b03161415610205576040805162461bcd60e51b815260206004820152601760248201527f6f776e6572322063616e6e6f74206265206f776e657233000000000000000000604482015290519081900360640190fd5b806001600160a01b0316836001600160a01b0316141561026c576040805162461bcd60e51b815260206004820152601760248201527f6f776e6572312063616e6e6f74206265206f776e657233000000000000000000604482015290519081900360640190fd5b6001600160a01b039283166000908152602081905260408082208054600160ff199182168117909255948616835281832080548616821790559290941681529283208054909216179055610eb393508392506102c99150396000f3fe60806040526004361061009c5760003560e01c80638f32d59b116100645780638f32d59b146101b4578063a597a0f9146101d9578063dfc0758814610207578063dfeb38a01461024a578063e20056e614610285578063ea8a1af0146102c05761009c565b8063158ef93e146100ab5780634f60c522146100d457806354fd4d50146101175780635e1e10041461014a578063633423be1461017f575b3480156100a857600080fd5b50005b3480156100b757600080fd5b506100c06102d5565b604080519115158252519081900360200190f35b3480156100e057600080fd5b506100c0600480360360208110156100f757600080fd5b50356001600160a01b031660009081526006602052604090205460ff1690565b34801561012357600080fd5b5064312e322e3160d81b604080516001600160c01b03199092168252519081900360200190f35b34801561015657600080fd5b5061017d6004803603602081101561016d57600080fd5b50356001600160a01b031661033b565b005b34801561018b57600080fd5b506004546001600160a01b0316604080516001600160a01b039092168252519081900360200190f35b3480156101c057600080fd5b503360009081526020819052604090205460ff166100c0565b61017d600480360360408110156101ef57600080fd5b506001600160a01b03813516906020013515156105be565b34801561021357600080fd5b506100c06004803603602081101561022a57600080fd5b50356001600160a01b031660009081526005602052604090205460ff1690565b34801561025657600080fd5b5061017d6004803603604081101561026d57600080fd5b506001600160a01b03813516906020013515156107f2565b34801561029157600080fd5b5061017d600480360360408110156102a857600080fd5b506001600160a01b0381358116916020013516610a1a565b3480156102cc57600080fd5b5061017d610d25565b6004546000906001600160a01b0316610335576040805162461bcd60e51b815260206004820152601b60248201527f7061796d656e7420616464726573732063616e6e6f7420626520300000000000604482015290519081900360640190fd5b50600190565b3360009081526020819052604081205460ff1661038d576040805162461bcd60e51b815260206004820152600b60248201526a6f6e6c79206f776e65727360a81b604482015290519081900360640190fd5b6001546001600160a01b03166103c757600180546001600160a01b031916331790556103bc6003600036610d89565b5060028190556105ba565b6001546001600160a01b0316331415610415576040805162461bcd60e51b815260206004820152601c6024820152600080516020610e5e833981519152604482015290519081900360640190fd5b6002548114610466576040805162461bcd60e51b81526020600482015260186024820152776d757374207369676e207468652073616d652076616c756560401b604482015290519081900360640190fd5b6000366040518083838082843760405192018290038220600380549196509450919250829184915061049790610e22565b80156104da5780601f106104b85761010080835404028352918201916104da565b820191906000526020600020905b8154815290600101906020018083116104c6575b5050915050604051809103902014610533576040805162461bcd60e51b81526020600482015260176024820152766d757374207369676e207468652073616d65206461746160481b604482015290519081900360640190fd5b600180546001600160a01b03191690556001600160a01b03821661059e576040805162461bcd60e51b815260206004820152601b60248201527f7061796d656e7420616464726573732063616e6e6f7420626520300000000000604482015290519081900360640190fd5b600480546001600160a01b0319166001600160a01b0384161790555b5050565b33600090815260208190526040902054349060ff16610612576040805162461bcd60e51b815260206004820152600b60248201526a6f6e6c79206f776e65727360a81b604482015290519081900360640190fd5b6001546001600160a01b031661064c57600180546001600160a01b031916331790556106416003600036610d89565b5060028190556107ed565b6001546001600160a01b031633141561069a576040805162461bcd60e51b815260206004820152601c6024820152600080516020610e5e833981519152604482015290519081900360640190fd5b60025481146106eb576040805162461bcd60e51b81526020600482015260186024820152776d757374207369676e207468652073616d652076616c756560401b604482015290519081900360640190fd5b6000366040518083838082843760405192018290038220600380549196509450919250829184915061071c90610e22565b801561075f5780601f1061073d57610100808354040283529182019161075f565b820191906000526020600020905b81548152906001019060200180831161074b575b50509150506040518091039020146107b8576040805162461bcd60e51b81526020600482015260176024820152766d757374207369676e207468652073616d65206461746160481b604482015290519081900360640190fd5b600180546001600160a01b03191690556001600160a01b0383166000908152600560205260409020805460ff19168315151790555b505050565b3360009081526020819052604081205460ff16610844576040805162461bcd60e51b815260206004820152600b60248201526a6f6e6c79206f776e65727360a81b604482015290519081900360640190fd5b6001546001600160a01b031661087357600180546001600160a01b031916331790556106416003600036610d89565b6001546001600160a01b03163314156108c1576040805162461bcd60e51b815260206004820152601c6024820152600080516020610e5e833981519152604482015290519081900360640190fd5b6002548114610912576040805162461bcd60e51b81526020600482015260186024820152776d757374207369676e207468652073616d652076616c756560401b604482015290519081900360640190fd5b6000366040518083838082843760405192018290038220600380549196509450919250829184915061094390610e22565b80156109865780601f10610964576101008083540402835291820191610986565b820191906000526020600020905b815481529060010190602001808311610972575b50509150506040518091039020146109df576040805162461bcd60e51b81526020600482015260176024820152766d757374207369676e207468652073616d65206461746160481b604482015290519081900360640190fd5b600180546001600160a01b03191690556001600160a01b0383166000908152600660205260409020805483151560ff19909116179055505050565b3360009081526020819052604081205460ff16610a6c576040805162461bcd60e51b815260206004820152600b60248201526a6f6e6c79206f776e65727360a81b604482015290519081900360640190fd5b6001546001600160a01b0316610a9b57600180546001600160a01b031916331790556106416003600036610d89565b6001546001600160a01b0316331415610ae9576040805162461bcd60e51b815260206004820152601c6024820152600080516020610e5e833981519152604482015290519081900360640190fd5b6002548114610b3a576040805162461bcd60e51b81526020600482015260186024820152776d757374207369676e207468652073616d652076616c756560401b604482015290519081900360640190fd5b60003660405180838380828437604051920182900382206003805491965094509192508291849150610b6b90610e22565b8015610bae5780601f10610b8c576101008083540402835291820191610bae565b820191906000526020600020905b815481529060010190602001808311610b9a575b5050915050604051809103902014610c07576040805162461bcd60e51b81526020600482015260176024820152766d757374207369676e207468652073616d65206461746160481b604482015290519081900360640190fd5b600180546001600160a01b03191681556001600160a01b03841660009081526020819052604090205460ff16151514610c7c576040805162461bcd60e51b81526020600482015260126024820152711bdddb995c881cda1bdd5b1908195e1a5cdd60721b604482015290519081900360640190fd5b6001600160a01b03821660009081526020819052604090205460ff1615610cea576040805162461bcd60e51b815260206004820152601a60248201527f6e6577206f776e65722073686f756c64206e6f74206578697374000000000000604482015290519081900360640190fd5b6001600160a01b03808416600090815260208190526040808220805460ff199081169091559285168252902080549091166001179055505050565b3360009081526020819052604090205460ff16610d77576040805162461bcd60e51b815260206004820152600b60248201526a6f6e6c79206f776e65727360a81b604482015290519081900360640190fd5b600180546001600160a01b0319169055565b828054610d9590610e22565b90600052602060002090601f016020900481019282610db75760008555610dfd565b82601f10610dd05782800160ff19823516178555610dfd565b82800160010185558215610dfd579182015b82811115610dfd578235825591602001919060010190610de2565b50610e09929150610e0d565b5090565b5b80821115610e095760008155600101610e0e565b600281046001821680610e3657607f821691505b60208210811415610e5757634e487b7160e01b600052602260045260246000fd5b5091905056fe73616d65206f776e65722063616e6e6f74207369676e20747769636500000000a2646970667358221220a1ad73044d25ec2c5381fa54da66a4f475a735a58285d0dc10dab66b27900ce464736f6c63430008020033",
  "immutableReferences": {},
  "source": "// SPDX-License-Identifier: UNLICENSED\n\npragma solidity ^0.8.0;\npragma abicoder v1;\n\nimport \"./lib/OracleBase.sol\";\n\ncontract Oracle is OracleBase {\n    mapping(address => bool) private tokens_20;\n    mapping(address => bool) private tokens_721;\n\n    constructor(\n        address owner1,\n        address owner2,\n        address owner3\n    ) MultiSig(owner1, owner2, owner3) {}\n\n    function update20(address _token, bool _safe)\n        public\n        payable\n        multiSig2of3(msg.value)\n    {\n        tokens_20[_token] = _safe;\n    }\n\n    function update721(address _token, bool _safe) public multiSig2of3(0) {\n        tokens_721[_token] = _safe;\n    }\n\n    function is20Safe(address _token) public view override returns (bool) {\n        return tokens_20[_token];\n    }\n\n    function is721Safe(address _token) public view override returns (bool) {\n        return tokens_721[_token];\n    }\n\n    function version() public pure override returns (bytes8) {\n        return bytes8(\"1.2.1\");\n    }\n\n    fallback() external {}\n}\n",
  "sourcePath": "/Users/Tal/code/kirobo/ki-eth-contracts/contracts/Oracle.sol",
  "compiler": {
    "name": "solc",
    "version": "0.8.2+commit.661d1103.Emscripten.clang"
  },
  "schemaVersion": "3.3.4",
  "updatedAt": "2021-04-13T23:14:26.159Z",
  "devdoc": {
    "kind": "dev",
    "methods": {},
    "version": 1
  },
  "userdoc": {
    "kind": "user",
    "methods": {},
    "version": 1
  }
}