{
  "contractName": "Oracle",
  "abi": [
    {
      "inputs": [
        {
          "internalType": "address",
          "name": "owner1",
          "type": "address"
        },
        {
          "internalType": "address",
          "name": "owner2",
          "type": "address"
        },
        {
          "internalType": "address",
          "name": "owner3",
          "type": "address"
        }
      ],
      "stateMutability": "nonpayable",
      "type": "constructor"
    },
    {
      "anonymous": false,
      "inputs": [
        {
          "indexed": true,
          "internalType": "address",
          "name": "from",
          "type": "address"
        }
      ],
      "name": "MultiSigCancel",
      "type": "event"
    },
    {
      "anonymous": false,
      "inputs": [
        {
          "indexed": true,
          "internalType": "address",
          "name": "from",
          "type": "address"
        },
        {
          "indexed": true,
          "internalType": "bytes4",
          "name": "selector",
          "type": "bytes4"
        },
        {
          "indexed": false,
          "internalType": "uint256",
          "name": "value",
          "type": "uint256"
        },
        {
          "indexed": false,
          "internalType": "bytes32",
          "name": "hashedData",
          "type": "bytes32"
        }
      ],
      "name": "MultiSigExecute",
      "type": "event"
    },
    {
      "anonymous": false,
      "inputs": [
        {
          "indexed": true,
          "internalType": "address",
          "name": "by",
          "type": "address"
        },
        {
          "indexed": true,
          "internalType": "address",
          "name": "from",
          "type": "address"
        },
        {
          "indexed": true,
          "internalType": "address",
          "name": "to",
          "type": "address"
        }
      ],
      "name": "MultiSigReplaceOwnerCall",
      "type": "event"
    },
    {
      "anonymous": false,
      "inputs": [
        {
          "indexed": true,
          "internalType": "address",
          "name": "from",
          "type": "address"
        },
        {
          "indexed": true,
          "internalType": "bytes4",
          "name": "selector",
          "type": "bytes4"
        },
        {
          "indexed": false,
          "internalType": "uint256",
          "name": "value",
          "type": "uint256"
        },
        {
          "indexed": false,
          "internalType": "bytes32",
          "name": "hashedData",
          "type": "bytes32"
        }
      ],
      "name": "MultiSigRequest",
      "type": "event"
    },
    {
      "stateMutability": "nonpayable",
      "type": "fallback"
    },
    {
      "inputs": [],
      "name": "cancel",
      "outputs": [],
      "stateMutability": "nonpayable",
      "type": "function"
    },
    {
      "inputs": [],
      "name": "initialized",
      "outputs": [
        {
          "internalType": "bool",
          "name": "",
          "type": "bool"
        }
      ],
      "stateMutability": "view",
      "type": "function"
    },
    {
      "inputs": [],
      "name": "isOwner",
      "outputs": [
        {
          "internalType": "bool",
          "name": "",
          "type": "bool"
        }
      ],
      "stateMutability": "view",
      "type": "function"
    },
    {
      "inputs": [],
      "name": "paymentAddress",
      "outputs": [
        {
          "internalType": "address payable",
          "name": "",
          "type": "address"
        }
      ],
      "stateMutability": "view",
      "type": "function"
    },
    {
      "inputs": [
        {
          "internalType": "address",
          "name": "owner",
          "type": "address"
        },
        {
          "internalType": "address",
          "name": "newOwner",
          "type": "address"
        }
      ],
      "name": "replaceOwner",
      "outputs": [],
      "stateMutability": "nonpayable",
      "type": "function"
    },
    {
      "inputs": [],
      "name": "s_action",
      "outputs": [
        {
          "internalType": "address",
          "name": "owner",
          "type": "address"
        },
        {
          "internalType": "uint256",
          "name": "value",
          "type": "uint256"
        },
        {
          "internalType": "bytes32",
          "name": "data",
          "type": "bytes32"
        }
      ],
      "stateMutability": "view",
      "type": "function"
    },
    {
      "inputs": [
        {
          "internalType": "address payable",
          "name": "payto",
          "type": "address"
        }
      ],
      "name": "setPaymentAddress",
      "outputs": [],
      "stateMutability": "nonpayable",
      "type": "function"
    },
    {
      "inputs": [
        {
          "internalType": "bytes",
          "name": "data",
          "type": "bytes"
        }
      ],
      "name": "sig",
      "outputs": [
        {
          "internalType": "bytes4",
          "name": "",
          "type": "bytes4"
        }
      ],
      "stateMutability": "pure",
      "type": "function"
    },
    {
      "inputs": [
        {
          "internalType": "address",
          "name": "token",
          "type": "address"
        },
        {
          "internalType": "bool",
          "name": "safe",
          "type": "bool"
        }
      ],
      "name": "update20",
      "outputs": [],
      "stateMutability": "nonpayable",
      "type": "function"
    },
    {
      "inputs": [
        {
          "internalType": "address",
          "name": "token",
          "type": "address"
        },
        {
          "internalType": "bool",
          "name": "safe",
          "type": "bool"
        }
      ],
      "name": "update721",
      "outputs": [],
      "stateMutability": "nonpayable",
      "type": "function"
    },
    {
      "inputs": [
        {
          "internalType": "address",
          "name": "token",
          "type": "address"
        }
      ],
      "name": "is20Safe",
      "outputs": [
        {
          "internalType": "bool",
          "name": "",
          "type": "bool"
        }
      ],
      "stateMutability": "view",
      "type": "function"
    },
    {
      "inputs": [
        {
          "internalType": "address",
          "name": "token",
          "type": "address"
        }
      ],
      "name": "is721Safe",
      "outputs": [
        {
          "internalType": "bool",
          "name": "",
          "type": "bool"
        }
      ],
      "stateMutability": "view",
      "type": "function"
    },
    {
      "inputs": [],
      "name": "version",
      "outputs": [
        {
          "internalType": "bytes8",
          "name": "",
          "type": "bytes8"
        }
      ],
      "stateMutability": "pure",
      "type": "function"
    }
  ],
  "bytecode": "0x608060405234801561001057600080fd5b506040516115203803806115208339818101604052606081101561003357600080fd5b50805160208201516040909201519091908282826001600160a01b0383166100a2576040805162461bcd60e51b815260206004820152601c60248201527f4d756c74695369673a206f776e6572312063616e6e6f74206265203000000000604482015290519081900360640190fd5b6001600160a01b0382166100fd576040805162461bcd60e51b815260206004820152601c60248201527f4d756c74695369673a206f776e6572322063616e6e6f74206265203000000000604482015290519081900360640190fd5b6001600160a01b038116610158576040805162461bcd60e51b815260206004820152601c60248201527f4d756c74695369673a206f776e6572332063616e6e6f74206265203000000000604482015290519081900360640190fd5b816001600160a01b0316836001600160a01b031614156101a95760405162461bcd60e51b81526004018080602001828103825260218152602001806114de6021913960400191505060405180910390fd5b806001600160a01b0316826001600160a01b031614156101fa5760405162461bcd60e51b81526004018080602001828103825260218152602001806114bd6021913960400191505060405180910390fd5b806001600160a01b0316836001600160a01b0316141561024b5760405162461bcd60e51b81526004018080602001828103825260218152602001806114ff6021913960400191505060405180910390fd5b6001600160a01b039283166000908152602081905260408082208054600160ff19918216811790925594861683528183208054861682179055929094168152928320805490921617905561121593508392506102a89150396000f3fe608060405234801561001057600080fd5b50600436106100c95760003560e01c8063633423be11610086578063dfc0758811610063578063dfc07588146102a7578063dfeb38a0146102dd578063e20056e61461030b578063ea8a1af01461033957005b8063633423be146102395780638f32d59b14610261578063a597a0f91461027957005b8063158ef93e146100cb57806327dcc4ef146100e75780634f60c5221461017457806354fd4d50146101aa5780635d2cf095146101d05780635e1e100414610213575b005b6100d3610341565b604080519115158252519081900360200190f35b610157600480360360208110156100fd57600080fd5b81019060208101813564010000000081111561011857600080fd5b82018360208201111561012a57600080fd5b8035906020019184600183028401116401000000008311171561014c57600080fd5b509092509050610360565b604080516001600160e01b03199092168252519081900360200190f35b6100d36004803603602081101561018a57600080fd5b50356001600160a01b031660009081526007602052604090205460ff1690565b64312e322e3160d81b604080516001600160c01b03199092168252519081900360200190f35b6002546003546004546101eb926001600160a01b0316919083565b604080516001600160a01b039094168452602084019290925282820152519081900360600190f35b6100c96004803603602081101561022957600080fd5b50356001600160a01b0316610454565b6005546001600160a01b0316604080516001600160a01b039092168252519081900360200190f35b3360009081526020819052604090205460ff166100d3565b6100c96004803603604081101561028f57600080fd5b506001600160a01b03813516906020013515156106fb565b6100d3600480360360208110156102bd57600080fd5b50356001600160a01b031660009081526006602052604090205460ff1690565b6100c9600480360360408110156102f357600080fd5b506001600160a01b0381351690602001351515610951565b6100c96004803603604081101561032157600080fd5b506001600160a01b0381358116916020013516610b59565b6100c9610d7d565b6005546000906001600160a01b031661035a5750600090565b50600190565b600060048210156103735750600061044e565b60188383600381811061039657634e487b7160e01b600052603260045260246000fd5b909101356001600160f81b03191690911c90506010848460028181106103cc57634e487b7160e01b600052603260045260246000fd5b909101356001600160f81b03191690911c905060088585600181811061040257634e487b7160e01b600052603260045260246000fd5b909101356001600160f81b03191690911c9050858560008161043457634e487b7160e01b600052603260045260246000fd5b9050013560f81c60f81b6001600160f81b03191617171790505b92915050565b3360009081526020819052604081205460ff16801561047e57506001546001600160a01b03163314155b6104b95760405162461bcd60e51b815260040180806020018281038252603081526020018061109e6030913960400191505060405180910390fd5b600080366040518083838082843760405192018290039091206002549095506001600160a01b0316151593506105619250505057600280546001600160a01b0319163317905560048190556003829055610514600036610360565b604080518481526020810184905281516001600160e01b0319939093169233927feeb0bd41c2b0ff931f981a964047b0a1a26ab644f801be86da62c770313f724f928290030190a3505050565b6002546001600160a01b03163314156105ab5760405162461bcd60e51b81526004018080602001828103825260268152602001806111ba6026913960400191505060405180910390fd5b60035482146105eb5760405162461bcd60e51b81526004018080602001828103825260228152602001806110ce6022913960400191505060405180910390fd5b600454811461062b5760405162461bcd60e51b81526004018080602001828103825260218152602001806111776021913960400191505060405180910390fd5b600280546001600160a01b0319169055610646600036610360565b604080518481526020810184905281516001600160e01b03199390931692339260008051602061112c833981519152928290030190a36001600160a01b0383166106d7576040805162461bcd60e51b815260206004820152601b60248201527f7061796d656e7420616464726573732063616e6e6f7420626520300000000000604482015290519081900360640190fd5b5050600580546001600160a01b0319166001600160a01b0392909216919091179055565b3360009081526020819052604081205460ff16801561072557506001546001600160a01b03163314155b6107605760405162461bcd60e51b815260040180806020018281038252603081526020018061109e6030913960400191505060405180910390fd5b600080366040518083838082843760405192018290039091206002549095506001600160a01b0316151593506108099250505057600280546001600160a01b03191633179055600481905560038290556107bb600036610360565b604080518481526020810184905281516001600160e01b0319939093169233927feeb0bd41c2b0ff931f981a964047b0a1a26ab644f801be86da62c770313f724f928290030190a350505050565b6002546001600160a01b03163314156108535760405162461bcd60e51b81526004018080602001828103825260268152602001806111ba6026913960400191505060405180910390fd5b60035482146108935760405162461bcd60e51b81526004018080602001828103825260228152602001806110ce6022913960400191505060405180910390fd5b60045481146108d35760405162461bcd60e51b81526004018080602001828103825260218152602001806111776021913960400191505060405180910390fd5b600280546001600160a01b03191690556108ee600036610360565b604080518481526020810184905281516001600160e01b03199390931692339260008051602061112c833981519152928290030190a350506001600160a01b03919091166000908152600660205260409020805460ff1916911515919091179055565b3360009081526020819052604081205460ff16801561097b57506001546001600160a01b03163314155b6109b65760405162461bcd60e51b815260040180806020018281038252603081526020018061109e6030913960400191505060405180910390fd5b600080366040518083838082843760405192018290039091206002549095506001600160a01b031615159350610a119250505057600280546001600160a01b03191633179055600481905560038290556107bb600036610360565b6002546001600160a01b0316331415610a5b5760405162461bcd60e51b81526004018080602001828103825260268152602001806111ba6026913960400191505060405180910390fd5b6003548214610a9b5760405162461bcd60e51b81526004018080602001828103825260228152602001806110ce6022913960400191505060405180910390fd5b6004548114610adb5760405162461bcd60e51b81526004018080602001828103825260218152602001806111776021913960400191505060405180910390fd5b600280546001600160a01b0319169055610af6600036610360565b604080518481526020810184905281516001600160e01b03199390931692339260008051602061112c833981519152928290030190a350506001600160a01b03919091166000908152600760205260409020805460ff1916911515919091179055565b6001600160a01b038216610bb4576040805162461bcd60e51b815260206004820152601b60248201527f4d756c74695369673a206f776e65722063616e6e6f7420626520300000000000604482015290519081900360640190fd5b6001600160a01b038116610c0f576040805162461bcd60e51b815260206004820152601f60248201527f4d756c74695369673a206e6577204f776e65722063616e6e6f74206265203000604482015290519081900360640190fd5b6001600160a01b03821660009081526020819052604090205460ff161515600114610c81576040805162461bcd60e51b815260206004820152601a60248201527f4d756c74695369673a206f776e6572206d757374206578697374000000000000604482015290519081900360640190fd5b6001600160a01b038216331415610cc95760405162461bcd60e51b815260040180806020018281038252602b81526020018061114c602b913960400191505060405180910390fd5b6001600160a01b03811660009081526020819052604090205460ff1615610d215760405162461bcd60e51b81526004018080602001828103825260228152602001806111986022913960400191505060405180910390fd5b600180546001600160a01b0319166001600160a01b038481169182179092556040519183169133907f3f83b5e276aedb8b7501b6812a09510fd4f92e3db05921939f715fbb980c67f290600090a4610d798282610e74565b5050565b3360009081526020819052604090205460ff16610de1576040805162461bcd60e51b815260206004820181905260248201527f4d756c74695369673a206f6e6c79206f776e6572732063616e2063616e63656c604482015290519081900360640190fd5b6001546001600160a01b0316331415610e2b5760405162461bcd60e51b815260040180806020018281038252603c8152602001806110f0603c913960400191505060405180910390fd5b600280546001600160a01b031990811690915560018054909116905560405133907f30ec0961b65153901ed6dc5cfe8d736772c29b94b3024a497d0b3198dcbd317d90600090a2565b3360009081526020819052604081205460ff168015610e9e57506001546001600160a01b03163314155b610ed95760405162461bcd60e51b815260040180806020018281038252603081526020018061109e6030913960400191505060405180910390fd5b600080366040518083838082843760405192018290039091206002549095506001600160a01b031615159350610f349250505057600280546001600160a01b03191633179055600481905560038290556107bb600036610360565b6002546001600160a01b0316331415610f7e5760405162461bcd60e51b81526004018080602001828103825260268152602001806111ba6026913960400191505060405180910390fd5b6003548214610fbe5760405162461bcd60e51b81526004018080602001828103825260228152602001806110ce6022913960400191505060405180910390fd5b6004548114610ffe5760405162461bcd60e51b81526004018080602001828103825260218152602001806111776021913960400191505060405180910390fd5b600280546001600160a01b0319169055611019600036610360565b604080518481526020810184905281516001600160e01b03199390931692339260008051602061112c833981519152928290030190a350506001600160a01b03918216600090815260208190526040808220805460ff19908116909155929093168152919091208054909116600190811790915580546001600160a01b031916905556fe4d756c74695369673a206f6e6c79206f776e657273207468617420617265206e6f74206265696e672072656d6f7665644d756c74695369673a206d757374207369676e207468652073616d652076616c75654d756c74695369673a206f6e6c79206f776e657273207468617420617265206e6f74206265696e67207265706c616365642063616e2063616e63656c0b5363f980745c7335c6e90cf3e542e8c9444d9fa5371ad688760cda3776539b4d756c74695369673a2073656e646572732063616e6e6f74207265706c616365207468656d73656c7665734d756c74695369673a206d757374207369676e207468652073616d6520646174614d756c74695369673a206e6577206f776e6572206d757374206e6f742065786973744d756c74695369673a2073616d65206f776e65722063616e6e6f74207369676e207477696365a26469706673582212202f1001ec9375525ac6b2548eb70beb0bae23f7e67107d70661d93b288f4e1dde64736f6c634300080400334d756c74695369673a206f776e6572322063616e6e6f74206265206f776e6572334d756c74695369673a206f776e6572312063616e6e6f74206265206f776e6572324d756c74695369673a206f776e6572312063616e6e6f74206265206f776e657233",
  "immutableReferences": {},
  "source": "// SPDX-License-Identifier: UNLICENSED\n\npragma solidity ^0.8.0;\npragma abicoder v1;\n\nimport \"./lib/OracleBase.sol\";\n\ncontract Oracle is OracleBase {\n    mapping(address => bool) private s_tokens_20;\n    mapping(address => bool) private s_tokens_721;\n\n    constructor(\n        address owner1,\n        address owner2,\n        address owner3\n    ) MultiSig(owner1, owner2, owner3) {}\n\n    function update20(address token, bool safe) external multiSig2of3(0) {\n        s_tokens_20[token] = safe;\n    }\n\n    function update721(address token, bool safe) external multiSig2of3(0) {\n        s_tokens_721[token] = safe;\n    }\n\n    function is20Safe(address token) external view override returns (bool) {\n        return s_tokens_20[token];\n    }\n\n    function is721Safe(address token) external view override returns (bool) {\n        return s_tokens_721[token];\n    }\n\n    function version() external pure override returns (bytes8) {\n        return bytes8(\"1.2.1\");\n    }\n\n    fallback() external {}\n}\n",
  "sourcePath": "/Users/tal/code/kirobo/ki-eth-contracts/contracts/Oracle.sol",
  "compiler": {
    "name": "solc",
    "version": "0.8.4+commit.c7e474f2.Emscripten.clang"
  },
  "schemaVersion": "3.3.4",
  "updatedAt": "2021-09-13T14:41:26.115Z",
  "devdoc": {
    "kind": "dev",
    "methods": {},
    "version": 1
  },
  "userdoc": {
    "kind": "user",
    "methods": {},
    "version": 1
  }
}