{
  "contractName": "Oracle2",
  "abi": [
    {
      "inputs": [],
      "name": "initialized",
      "outputs": [
        {
          "internalType": "bool",
          "name": "",
          "type": "bool"
        }
      ],
      "stateMutability": "view",
      "type": "function"
    },
    {
      "inputs": [],
      "name": "paymentAddress",
      "outputs": [
        {
          "internalType": "address payable",
          "name": "",
          "type": "address"
        }
      ],
      "stateMutability": "view",
      "type": "function"
    },
    {
      "inputs": [
        {
          "internalType": "address payable",
          "name": "_payto",
          "type": "address"
        }
      ],
      "name": "setPaymentAddress",
      "outputs": [],
      "stateMutability": "nonpayable",
      "type": "function"
    },
    {
      "inputs": [
        {
          "internalType": "address",
          "name": "_token",
          "type": "address"
        },
        {
          "internalType": "bool",
          "name": "_safe",
          "type": "bool"
        }
      ],
      "name": "updateToken",
      "outputs": [],
      "stateMutability": "nonpayable",
      "type": "function"
    },
    {
      "inputs": [
        {
          "internalType": "address",
          "name": "_token",
          "type": "address"
        }
      ],
      "name": "isTokenSafe",
      "outputs": [
        {
          "internalType": "bool",
          "name": "",
          "type": "bool"
        }
      ],
      "stateMutability": "view",
      "type": "function"
    },
    {
      "inputs": [
        {
          "internalType": "address",
          "name": "_token",
          "type": "address"
        }
      ],
      "name": "is20Safe",
      "outputs": [
        {
          "internalType": "bool",
          "name": "",
          "type": "bool"
        }
      ],
      "stateMutability": "view",
      "type": "function"
    },
    {
      "inputs": [
        {
          "internalType": "address",
          "name": "_token",
          "type": "address"
        }
      ],
      "name": "is721Safe",
      "outputs": [
        {
          "internalType": "bool",
          "name": "",
          "type": "bool"
        }
      ],
      "stateMutability": "view",
      "type": "function"
    },
    {
      "inputs": [],
      "name": "version",
      "outputs": [
        {
          "internalType": "bytes8",
          "name": "",
          "type": "bytes8"
        }
      ],
      "stateMutability": "pure",
      "type": "function"
    }
  ],
  "bytecode": "0x608060405234801561001057600080fd5b50610305806100206000396000f3fe608060405234801561001057600080fd5b50600436106100885760003560e01c80635e1e10041161005b5780635e1e100414610105578063633423be1461012d578063b3cbf39614610151578063dfc07588146100a957610088565b8063158ef93e1461008d5780634f60c522146100a957806354cad8a6146100a957806354fd4d50146100cf575b600080fd5b61009561017f565b604080519115158252519081900360200190f35b610095600480360360208110156100bf57600080fd5b50356001600160a01b03166101e3565b6100d7610201565b6040805177ffffffffffffffffffffffffffffffffffffffffffffffff199092168252519081900360200190f35b61012b6004803603602081101561011b57600080fd5b50356001600160a01b031661020b565b005b610135610295565b604080516001600160a01b039092168252519081900360200190f35b61012b6004803603604081101561016757600080fd5b506001600160a01b03813516906020013515156102a4565b600080546001600160a01b03166101dd576040805162461bcd60e51b815260206004820152601b60248201527f7061796d656e7420616464726573732063616e6e6f7420626520300000000000604482015290519081900360640190fd5b50600190565b6001600160a01b031660009081526001602052604090205460ff1690565b62302e3160e81b90565b6001600160a01b038116610266576040805162461bcd60e51b815260206004820152601b60248201527f7061796d656e7420616464726573732063616e6e6f7420626520300000000000604482015290519081900360640190fd5b6000805473ffffffffffffffffffffffffffffffffffffffff19166001600160a01b0392909216919091179055565b6000546001600160a01b031690565b6001600160a01b03919091166000908152600160205260409020805460ff191691151591909117905556fea264697066735822122021427748ebaeb87153e6e28a881ad19b3843d2c7e4307616c9fdfe069d6d0a0f64736f6c634300060b0033",
  "source": "// SPDX-License-Identifier: UNLICENSED\n\npragma solidity 0.6.11;\n\nimport \"../lib/OracleBase.sol\";\n\ncontract Oracle2 is OracleBase {\n\n    mapping (address=>bool) private tokens;\n\n    function updateToken(address _token, bool _safe) public {\n        tokens[_token] = _safe;\n    }\n\n    function isTokenSafe(address _token) public view returns (bool) {\n        return tokens[_token];\n    }\n\n    function is20Safe(address _token) public view override returns (bool) {\n        return tokens[_token];\n    }\n\n    function is721Safe(address _token) public view override returns (bool) {\n        return tokens[_token];\n    }\n\n    function version() external pure override returns (bytes8) {\n      return bytes8(\"0.1\");\n    }\n\n}",
  "sourcePath": "/home/tal/code/kirobo/ki-eth-contracts/contracts/test/Oracle2.sol",
  "compiler": {
    "name": "solc",
    "version": "0.6.11+commit.5ef660b1.Emscripten.clang"
  },
  "schemaVersion": "3.0.23",
  "updatedAt": "2020-07-20T14:03:01.942Z",
  "devdoc": {
    "kind": "dev",
    "methods": {},
    "version": 1
  },
  "userdoc": {
    "kind": "user",
    "methods": {},
    "version": 1
  }
}