{
  "contractName": "Oracle",
  "abi": [
    {
      "inputs": [
        {
          "internalType": "address",
          "name": "owner1",
          "type": "address"
        },
        {
          "internalType": "address",
          "name": "owner2",
          "type": "address"
        },
        {
          "internalType": "address",
          "name": "owner3",
          "type": "address"
        }
      ],
      "stateMutability": "nonpayable",
      "type": "constructor"
    },
    {
      "stateMutability": "nonpayable",
      "type": "fallback"
    },
    {
      "inputs": [],
      "name": "cancel",
      "outputs": [],
      "stateMutability": "nonpayable",
      "type": "function"
    },
    {
      "inputs": [],
      "name": "initialized",
      "outputs": [
        {
          "internalType": "bool",
          "name": "",
          "type": "bool"
        }
      ],
      "stateMutability": "view",
      "type": "function",
      "constant": true
    },
    {
      "inputs": [],
      "name": "isOwner",
      "outputs": [
        {
          "internalType": "bool",
          "name": "",
          "type": "bool"
        }
      ],
      "stateMutability": "view",
      "type": "function",
      "constant": true
    },
    {
      "inputs": [],
      "name": "paymentAddress",
      "outputs": [
        {
          "internalType": "address payable",
          "name": "",
          "type": "address"
        }
      ],
      "stateMutability": "view",
      "type": "function",
      "constant": true
    },
    {
      "inputs": [
        {
          "internalType": "address",
          "name": "_owner",
          "type": "address"
        },
        {
          "internalType": "address",
          "name": "_newOwner",
          "type": "address"
        }
      ],
      "name": "replaceOwner",
      "outputs": [],
      "stateMutability": "nonpayable",
      "type": "function"
    },
    {
      "inputs": [
        {
          "internalType": "address payable",
          "name": "_payto",
          "type": "address"
        }
      ],
      "name": "setPaymentAddress",
      "outputs": [],
      "stateMutability": "nonpayable",
      "type": "function"
    },
    {
      "inputs": [
        {
          "internalType": "address",
          "name": "_token",
          "type": "address"
        },
        {
          "internalType": "bool",
          "name": "_safe",
          "type": "bool"
        }
      ],
      "name": "update20",
      "outputs": [],
      "stateMutability": "payable",
      "type": "function",
      "payable": true
    },
    {
      "inputs": [
        {
          "internalType": "address",
          "name": "_token",
          "type": "address"
        },
        {
          "internalType": "bool",
          "name": "_safe",
          "type": "bool"
        }
      ],
      "name": "update721",
      "outputs": [],
      "stateMutability": "nonpayable",
      "type": "function"
    },
    {
      "inputs": [
        {
          "internalType": "address",
          "name": "_token",
          "type": "address"
        }
      ],
      "name": "is20Safe",
      "outputs": [
        {
          "internalType": "bool",
          "name": "",
          "type": "bool"
        }
      ],
      "stateMutability": "view",
      "type": "function",
      "constant": true
    },
    {
      "inputs": [
        {
          "internalType": "address",
          "name": "_token",
          "type": "address"
        }
      ],
      "name": "is721Safe",
      "outputs": [
        {
          "internalType": "bool",
          "name": "",
          "type": "bool"
        }
      ],
      "stateMutability": "view",
      "type": "function",
      "constant": true
    },
    {
      "inputs": [],
      "name": "version",
      "outputs": [
        {
          "internalType": "bytes8",
          "name": "",
          "type": "bytes8"
        }
      ],
      "stateMutability": "pure",
      "type": "function",
      "constant": true
    }
  ],
  "bytecode": "0x608060405234801561001057600080fd5b506040516111f73803806111f78339818101604052606081101561003357600080fd5b50805160208201516040909201519091908282826001600160a01b038316610097576040805162461bcd60e51b815260206004820152601260248201527106f776e6572312063616e6e6f7420626520360741b604482015290519081900360640190fd5b6001600160a01b0382166100e7576040805162461bcd60e51b815260206004820152601260248201527106f776e6572322063616e6e6f7420626520360741b604482015290519081900360640190fd5b6001600160a01b038116610137576040805162461bcd60e51b815260206004820152601260248201527106f776e6572332063616e6e6f7420626520360741b604482015290519081900360640190fd5b816001600160a01b0316836001600160a01b0316141561019e576040805162461bcd60e51b815260206004820152601760248201527f6f776e6572312063616e6e6f74206265206f776e657232000000000000000000604482015290519081900360640190fd5b806001600160a01b0316826001600160a01b03161415610205576040805162461bcd60e51b815260206004820152601760248201527f6f776e6572322063616e6e6f74206265206f776e657233000000000000000000604482015290519081900360640190fd5b806001600160a01b0316836001600160a01b0316141561026c576040805162461bcd60e51b815260206004820152601760248201527f6f776e6572312063616e6e6f74206265206f776e657233000000000000000000604482015290519081900360640190fd5b6001600160a01b039283166000908152602081905260408082208054600160ff199182168117909255948616835281832080548616821790559290941681529283208054909216179055610f2e93508392506102c99150396000f3fe6080604052600436106100ac5760003560e01c80638f32d59b11610074578063dfeb38a01161004e578063dfeb38a014610236578063e20056e614610271578063ea8a1af0146102ac576100ac565b80638f32d59b146101c0578063a597a0f9146101d5578063dfc0758814610203576100ac565b8063158ef93e146100bb5780634f60c522146100e457806354fd4d50146101175780635e1e10041461015a578063633423be1461018f575b3480156100b857600080fd5b50005b3480156100c757600080fd5b506100d06102c1565b604080519115158252519081900360200190f35b3480156100f057600080fd5b506100d06004803603602081101561010757600080fd5b50356001600160a01b0316610328565b34801561012357600080fd5b5061012c610346565b6040805177ffffffffffffffffffffffffffffffffffffffffffffffff199092168252519081900360200190f35b34801561016657600080fd5b5061018d6004803603602081101561017d57600080fd5b50356001600160a01b0316610352565b005b34801561019b57600080fd5b506101a46105f1565b604080516001600160a01b039092168252519081900360200190f35b3480156101cc57600080fd5b506100d0610600565b61018d600480360360408110156101eb57600080fd5b506001600160a01b0381351690602001351515610616565b34801561020f57600080fd5b506100d06004803603602081101561022657600080fd5b50356001600160a01b0316610866565b34801561024257600080fd5b5061018d6004803603604081101561025957600080fd5b506001600160a01b0381351690602001351515610884565b34801561027d57600080fd5b5061018d6004803603604081101561029457600080fd5b506001600160a01b0381358116916020013516610ac8565b3480156102b857600080fd5b5061018d610dfc565b6006546000906001600160a01b0316610321576040805162461bcd60e51b815260206004820152601b60248201527f7061796d656e7420616464726573732063616e6e6f7420626520300000000000604482015290519081900360640190fd5b5060015b90565b6001600160a01b031660009081526008602052604090205460ff1690565b64312e322e3160d81b90565b3360009081526020819052604081205460ff166103a4576040805162461bcd60e51b815260206004820152600b60248201526a6f6e6c79206f776e65727360a81b604482015290519081900360640190fd5b6003546001600160a01b03166103de57600380546001600160a01b031916331790556103d36005600036610e60565b5060048190556105ed565b6003546001600160a01b031633141561043e576040805162461bcd60e51b815260206004820152601c60248201527f73616d65206f776e65722063616e6e6f74207369676e20747769636500000000604482015290519081900360640190fd5b600454811461048f576040805162461bcd60e51b81526020600482015260186024820152776d757374207369676e207468652073616d652076616c756560401b604482015290519081900360640190fd5b6000366040518083838082843760405192018290038220600580549196509450919250829184915060026000196101006001841615020190911604801561050d5780601f106104eb57610100808354040283529182019161050d565b820191906000526020600020905b8154815290600101906020018083116104f9575b5050915050604051809103902014610566576040805162461bcd60e51b81526020600482015260176024820152766d757374207369676e207468652073616d65206461746160481b604482015290519081900360640190fd5b600380546001600160a01b03191690556001600160a01b0382166105d1576040805162461bcd60e51b815260206004820152601b60248201527f7061796d656e7420616464726573732063616e6e6f7420626520300000000000604482015290519081900360640190fd5b600680546001600160a01b0319166001600160a01b0384161790555b5050565b6006546001600160a01b031690565b3360009081526020819052604090205460ff1690565b33600090815260208190526040902054349060ff1661066a576040805162461bcd60e51b815260206004820152600b60248201526a6f6e6c79206f776e65727360a81b604482015290519081900360640190fd5b6003546001600160a01b03166106a457600380546001600160a01b031916331790556106996005600036610e60565b506004819055610861565b6003546001600160a01b0316331415610704576040805162461bcd60e51b815260206004820152601c60248201527f73616d65206f776e65722063616e6e6f74207369676e20747769636500000000604482015290519081900360640190fd5b6004548114610755576040805162461bcd60e51b81526020600482015260186024820152776d757374207369676e207468652073616d652076616c756560401b604482015290519081900360640190fd5b600036604051808383808284376040519201829003822060058054919650945091925082918491506002600019610100600184161502019091160480156107d35780601f106107b15761010080835404028352918201916107d3565b820191906000526020600020905b8154815290600101906020018083116107bf575b505091505060405180910390201461082c576040805162461bcd60e51b81526020600482015260176024820152766d757374207369676e207468652073616d65206461746160481b604482015290519081900360640190fd5b600380546001600160a01b03191690556001600160a01b0383166000908152600760205260409020805460ff19168315151790555b505050565b6001600160a01b031660009081526007602052604090205460ff1690565b3360009081526020819052604081205460ff166108d6576040805162461bcd60e51b815260206004820152600b60248201526a6f6e6c79206f776e65727360a81b604482015290519081900360640190fd5b6003546001600160a01b031661090557600380546001600160a01b031916331790556106996005600036610e60565b6003546001600160a01b0316331415610965576040805162461bcd60e51b815260206004820152601c60248201527f73616d65206f776e65722063616e6e6f74207369676e20747769636500000000604482015290519081900360640190fd5b60045481146109b6576040805162461bcd60e51b81526020600482015260186024820152776d757374207369676e207468652073616d652076616c756560401b604482015290519081900360640190fd5b60003660405180838380828437604051920182900382206005805491965094509192508291849150600260001961010060018416150201909116048015610a345780601f10610a12576101008083540402835291820191610a34565b820191906000526020600020905b815481529060010190602001808311610a20575b5050915050604051809103902014610a8d576040805162461bcd60e51b81526020600482015260176024820152766d757374207369676e207468652073616d65206461746160481b604482015290519081900360640190fd5b600380546001600160a01b03191690556001600160a01b0383166000908152600860205260409020805483151560ff19909116179055505050565b3360009081526020819052604081205460ff16610b1a576040805162461bcd60e51b815260206004820152600b60248201526a6f6e6c79206f776e65727360a81b604482015290519081900360640190fd5b6003546001600160a01b0316610b4957600380546001600160a01b031916331790556106996005600036610e60565b6003546001600160a01b0316331415610ba9576040805162461bcd60e51b815260206004820152601c60248201527f73616d65206f776e65722063616e6e6f74207369676e20747769636500000000604482015290519081900360640190fd5b6004548114610bfa576040805162461bcd60e51b81526020600482015260186024820152776d757374207369676e207468652073616d652076616c756560401b604482015290519081900360640190fd5b60003660405180838380828437604051920182900382206005805491965094509192508291849150600260001961010060018416150201909116048015610c785780601f10610c56576101008083540402835291820191610c78565b820191906000526020600020905b815481529060010190602001808311610c64575b5050915050604051809103902014610cd1576040805162461bcd60e51b81526020600482015260176024820152766d757374207369676e207468652073616d65206461746160481b604482015290519081900360640190fd5b600380546001600160a01b03191690556001600160a01b03831660009081526020819052604090205460ff161515600114610d53576040805162461bcd60e51b815260206004820152601260248201527f6f776e65722073686f756c642065786973740000000000000000000000000000604482015290519081900360640190fd5b6001600160a01b03821660009081526020819052604090205460ff1615610dc1576040805162461bcd60e51b815260206004820152601a60248201527f6e6577206f776e65722073686f756c64206e6f74206578697374000000000000604482015290519081900360640190fd5b6001600160a01b03808416600090815260208190526040808220805460ff199081169091559285168252902080549091166001179055505050565b3360009081526020819052604090205460ff16610e4e576040805162461bcd60e51b815260206004820152600b60248201526a6f6e6c79206f776e65727360a81b604482015290519081900360640190fd5b600380546001600160a01b0319169055565b828054600181600116156101000203166002900490600052602060002090601f016020900481019282601f10610ea15782800160ff19823516178555610ece565b82800160010185558215610ece579182015b82811115610ece578235825591602001919060010190610eb3565b50610eda929150610ede565b5090565b61032591905b80821115610eda5760008155600101610ee456fea264697066735822122041436e6f7b3f7f336a1aeb21d37f3c695d92b682723b1afb6425df6dc6711fc764736f6c634300060b0033",
  "source": "// SPDX-License-Identifier: UNLICENSED\n\npragma solidity 0.6.11;\n\nimport \"./lib/OracleBase.sol\";\n\ncontract Oracle is OracleBase {\n    mapping (address=>bool) private tokens_20;\n    mapping (address=>bool) private tokens_721;\n\n    constructor(address owner1, address owner2, address owner3) MultiSig(owner1, owner2, owner3) public {\n    }\n\n    function update20(address _token, bool _safe) public multiSig2of3(msg.value) payable {\n      tokens_20[_token] = _safe;\n    }\n\n    function update721(address _token, bool _safe) public multiSig2of3(0) {\n        tokens_721[_token] = _safe;\n    }\n\n    function is20Safe (address _token) public view override returns (bool) {\n        return tokens_20[_token];\n    }\n\n    function is721Safe(address _token) public view override returns (bool) {\n        return tokens_721[_token];\n    }\n\n    function version() public pure override returns (bytes8) {\n        return bytes8(\"1.2.1\");\n    }\n\n    fallback () external { }\n\n}",
  "sourcePath": "/home/tal/code/kirobo/ki-eth-contracts/contracts/Oracle.sol",
  "compiler": {
    "name": "solc",
    "version": "0.6.11+commit.5ef660b1.Emscripten.clang"
  },
  "schemaVersion": "3.0.23",
  "updatedAt": "2020-07-26T17:45:48.779Z",
  "networkType": "ethereum",
  "devdoc": {
    "kind": "dev",
    "methods": {},
    "version": 1
  },
  "userdoc": {
    "kind": "user",
    "methods": {},
    "version": 1
  }
}