{
  "contractName": "Oracle2",
  "abi": [
    {
      "inputs": [
        {
          "internalType": "address",
          "name": "owner1",
          "type": "address"
        },
        {
          "internalType": "address",
          "name": "owner2",
          "type": "address"
        },
        {
          "internalType": "address",
          "name": "owner3",
          "type": "address"
        }
      ],
      "stateMutability": "nonpayable",
      "type": "constructor"
    },
    {
      "inputs": [],
      "name": "cancel",
      "outputs": [],
      "stateMutability": "nonpayable",
      "type": "function"
    },
    {
      "inputs": [],
      "name": "initialized",
      "outputs": [
        {
          "internalType": "bool",
          "name": "",
          "type": "bool"
        }
      ],
      "stateMutability": "view",
      "type": "function"
    },
    {
      "inputs": [],
      "name": "isOwner",
      "outputs": [
        {
          "internalType": "bool",
          "name": "",
          "type": "bool"
        }
      ],
      "stateMutability": "view",
      "type": "function"
    },
    {
      "inputs": [],
      "name": "paymentAddress",
      "outputs": [
        {
          "internalType": "address payable",
          "name": "",
          "type": "address"
        }
      ],
      "stateMutability": "view",
      "type": "function"
    },
    {
      "inputs": [
        {
          "internalType": "address",
          "name": "_owner",
          "type": "address"
        },
        {
          "internalType": "address",
          "name": "_newOwner",
          "type": "address"
        }
      ],
      "name": "replaceOwner",
      "outputs": [],
      "stateMutability": "nonpayable",
      "type": "function"
    },
    {
      "inputs": [
        {
          "internalType": "address payable",
          "name": "_payto",
          "type": "address"
        }
      ],
      "name": "setPaymentAddress",
      "outputs": [],
      "stateMutability": "nonpayable",
      "type": "function"
    },
    {
      "inputs": [
        {
          "internalType": "address",
          "name": "_token",
          "type": "address"
        },
        {
          "internalType": "bool",
          "name": "_safe",
          "type": "bool"
        }
      ],
      "name": "updateToken",
      "outputs": [],
      "stateMutability": "nonpayable",
      "type": "function"
    },
    {
      "inputs": [
        {
          "internalType": "address",
          "name": "_token",
          "type": "address"
        }
      ],
      "name": "isTokenSafe",
      "outputs": [
        {
          "internalType": "bool",
          "name": "",
          "type": "bool"
        }
      ],
      "stateMutability": "view",
      "type": "function"
    },
    {
      "inputs": [
        {
          "internalType": "address",
          "name": "_token",
          "type": "address"
        }
      ],
      "name": "is20Safe",
      "outputs": [
        {
          "internalType": "bool",
          "name": "",
          "type": "bool"
        }
      ],
      "stateMutability": "view",
      "type": "function"
    },
    {
      "inputs": [
        {
          "internalType": "address",
          "name": "_token",
          "type": "address"
        }
      ],
      "name": "is721Safe",
      "outputs": [
        {
          "internalType": "bool",
          "name": "",
          "type": "bool"
        }
      ],
      "stateMutability": "view",
      "type": "function"
    },
    {
      "inputs": [],
      "name": "version",
      "outputs": [
        {
          "internalType": "bytes8",
          "name": "",
          "type": "bytes8"
        }
      ],
      "stateMutability": "pure",
      "type": "function"
    }
  ],
  "bytecode": "0x608060405234801561001057600080fd5b50604051610c62380380610c628339818101604052606081101561003357600080fd5b50805160208201516040909201519091908282826001600160a01b038316610097576040805162461bcd60e51b815260206004820152601260248201527106f776e6572312063616e6e6f7420626520360741b604482015290519081900360640190fd5b6001600160a01b0382166100e7576040805162461bcd60e51b815260206004820152601260248201527106f776e6572322063616e6e6f7420626520360741b604482015290519081900360640190fd5b6001600160a01b038116610137576040805162461bcd60e51b815260206004820152601260248201527106f776e6572332063616e6e6f7420626520360741b604482015290519081900360640190fd5b816001600160a01b0316836001600160a01b0316141561019e576040805162461bcd60e51b815260206004820152601760248201527f6f776e6572312063616e6e6f74206265206f776e657232000000000000000000604482015290519081900360640190fd5b806001600160a01b0316826001600160a01b03161415610205576040805162461bcd60e51b815260206004820152601760248201527f6f776e6572322063616e6e6f74206265206f776e657233000000000000000000604482015290519081900360640190fd5b806001600160a01b0316836001600160a01b0316141561026c576040805162461bcd60e51b815260206004820152601760248201527f6f776e6572312063616e6e6f74206265206f776e657233000000000000000000604482015290519081900360640190fd5b6001600160a01b039283166000908152602081905260408082208054600160ff19918216811790925594861683528183208054861682179055929094168152928320805490921617905561099993508392506102c99150396000f3fe608060405234801561001057600080fd5b50600436106100a95760003560e01c8063633423be11610071578063633423be1461014c5780638f32d59b14610174578063b3cbf3961461018c578063dfc07588146100ca578063e20056e6146101d1578063ea8a1af0146101ff576100a9565b8063158ef93e146100ae5780634f60c522146100ca57806354cad8a6146100ca57806354fd4d50146101005780635e1e100414610124575b600080fd5b6100b6610207565b604080519115158252519081900360200190f35b6100b6600480360360208110156100e057600080fd5b50356001600160a01b031660009081526005602052604090205460ff1690565b62302e3160e81b604080516001600160c01b03199092168252519081900360200190f35b61014a6004803603602081101561013a57600080fd5b50356001600160a01b031661026d565b005b6004546001600160a01b0316604080516001600160a01b039092168252519081900360200190f35b3360009081526020819052604090205460ff166100b6565b61014a600480360360408110156101a257600080fd5b5080356001600160a01b03166000908152600560209081526040909120805460ff191691909201351515179055565b61014a600480360360408110156101e757600080fd5b506001600160a01b0381358116916020013516610502565b61014a61082b565b6004546000906001600160a01b0316610267576040805162461bcd60e51b815260206004820152601b60248201527f7061796d656e7420616464726573732063616e6e6f7420626520300000000000604482015290519081900360640190fd5b50600190565b3360009081526020819052604081205460ff166102bf576040805162461bcd60e51b815260206004820152600b60248201526a6f6e6c79206f776e65727360a81b604482015290519081900360640190fd5b6001546001600160a01b03166102f957600180546001600160a01b031916331790556102ee600360003661088f565b5060028190556104fe565b6001546001600160a01b0316331415610359576040805162461bcd60e51b815260206004820152601c60248201527f73616d65206f776e65722063616e6e6f74207369676e20747769636500000000604482015290519081900360640190fd5b60025481146103aa576040805162461bcd60e51b81526020600482015260186024820152776d757374207369676e207468652073616d652076616c756560401b604482015290519081900360640190fd5b600036604051808383808284376040519201829003822060038054919650945091925082918491506103db90610928565b801561041e5780601f106103fc57610100808354040283529182019161041e565b820191906000526020600020905b81548152906001019060200180831161040a575b5050915050604051809103902014610477576040805162461bcd60e51b81526020600482015260176024820152766d757374207369676e207468652073616d65206461746160481b604482015290519081900360640190fd5b600180546001600160a01b03191690556001600160a01b0382166104e2576040805162461bcd60e51b815260206004820152601b60248201527f7061796d656e7420616464726573732063616e6e6f7420626520300000000000604482015290519081900360640190fd5b600480546001600160a01b0319166001600160a01b0384161790555b5050565b3360009081526020819052604081205460ff16610554576040805162461bcd60e51b815260206004820152600b60248201526a6f6e6c79206f776e65727360a81b604482015290519081900360640190fd5b6001546001600160a01b031661058e57600180546001600160a01b03191633179055610583600360003661088f565b506002819055610826565b6001546001600160a01b03163314156105ee576040805162461bcd60e51b815260206004820152601c60248201527f73616d65206f776e65722063616e6e6f74207369676e20747769636500000000604482015290519081900360640190fd5b600254811461063f576040805162461bcd60e51b81526020600482015260186024820152776d757374207369676e207468652073616d652076616c756560401b604482015290519081900360640190fd5b6000366040518083838082843760405192018290038220600380549196509450919250829184915061067090610928565b80156106b35780601f106106915761010080835404028352918201916106b3565b820191906000526020600020905b81548152906001019060200180831161069f575b505091505060405180910390201461070c576040805162461bcd60e51b81526020600482015260176024820152766d757374207369676e207468652073616d65206461746160481b604482015290519081900360640190fd5b600180546001600160a01b03191681556001600160a01b03841660009081526020819052604090205460ff16151514610781576040805162461bcd60e51b81526020600482015260126024820152711bdddb995c881cda1bdd5b1908195e1a5cdd60721b604482015290519081900360640190fd5b6001600160a01b03821660009081526020819052604090205460ff16156107ef576040805162461bcd60e51b815260206004820152601a60248201527f6e6577206f776e65722073686f756c64206e6f74206578697374000000000000604482015290519081900360640190fd5b6001600160a01b03808416600090815260208190526040808220805460ff1990811690915592851682529020805490911660011790555b505050565b3360009081526020819052604090205460ff1661087d576040805162461bcd60e51b815260206004820152600b60248201526a6f6e6c79206f776e65727360a81b604482015290519081900360640190fd5b600180546001600160a01b0319169055565b82805461089b90610928565b90600052602060002090601f0160209004810192826108bd5760008555610903565b82601f106108d65782800160ff19823516178555610903565b82800160010185558215610903579182015b828111156109035782358255916020019190600101906108e8565b5061090f929150610913565b5090565b5b8082111561090f5760008155600101610914565b60028104600182168061093c57607f821691505b6020821081141561095d57634e487b7160e01b600052602260045260246000fd5b5091905056fea26469706673582212200cd0bc409c15951cd4982a01292dfb9a68bca298293d2ff74e9d3cde8d3cdc6764736f6c63430008020033",
  "immutableReferences": {},
  "source": "// SPDX-License-Identifier: UNLICENSED\n\npragma solidity ^0.8.0;\npragma abicoder v1;\n\nimport \"../lib/OracleBase.sol\";\n\ncontract Oracle2 is OracleBase {\n    mapping(address => bool) private tokens;\n\n    constructor(\n        address owner1,\n        address owner2,\n        address owner3\n    ) MultiSig(owner1, owner2, owner3) {}\n\n    function updateToken(address _token, bool _safe) public {\n        tokens[_token] = _safe;\n    }\n\n    function isTokenSafe(address _token) public view returns (bool) {\n        return tokens[_token];\n    }\n\n    function is20Safe(address _token) public view override returns (bool) {\n        return tokens[_token];\n    }\n\n    function is721Safe(address _token) public view override returns (bool) {\n        return tokens[_token];\n    }\n\n    function version() external pure override returns (bytes8) {\n        return bytes8(\"0.1\");\n    }\n}\n",
  "sourcePath": "/Users/Tal/code/kirobo/ki-eth-contracts/contracts/test/Oracle2.sol",
  "compiler": {
    "name": "solc",
    "version": "0.8.2+commit.661d1103.Emscripten.clang"
  },
  "schemaVersion": "3.3.4",
  "updatedAt": "2021-04-13T23:14:26.457Z",
  "devdoc": {
    "kind": "dev",
    "methods": {},
    "version": 1
  },
  "userdoc": {
    "kind": "user",
    "methods": {},
    "version": 1
  }
}