{
  "contractName": "Oracle2",
  "abi": [
    {
      "inputs": [
        {
          "internalType": "address",
          "name": "owner1",
          "type": "address"
        },
        {
          "internalType": "address",
          "name": "owner2",
          "type": "address"
        },
        {
          "internalType": "address",
          "name": "owner3",
          "type": "address"
        }
      ],
      "stateMutability": "nonpayable",
      "type": "constructor"
    },
    {
      "anonymous": false,
      "inputs": [
        {
          "indexed": false,
          "internalType": "address",
          "name": "at",
          "type": "address"
        }
      ],
      "name": "ContractDeployed",
      "type": "event"
    },
    {
      "anonymous": false,
      "inputs": [
        {
          "indexed": false,
          "internalType": "address",
          "name": "at",
          "type": "address"
        }
      ],
      "name": "ContractDeployed2",
      "type": "event"
    },
    {
      "anonymous": false,
      "inputs": [
        {
          "indexed": true,
          "internalType": "address",
          "name": "from",
          "type": "address"
        }
      ],
      "name": "MultiSigCancel",
      "type": "event"
    },
    {
      "anonymous": false,
      "inputs": [
        {
          "indexed": true,
          "internalType": "address",
          "name": "from",
          "type": "address"
        },
        {
          "indexed": true,
          "internalType": "bytes4",
          "name": "selector",
          "type": "bytes4"
        },
        {
          "indexed": false,
          "internalType": "uint256",
          "name": "value",
          "type": "uint256"
        },
        {
          "indexed": false,
          "internalType": "bytes32",
          "name": "hashedData",
          "type": "bytes32"
        }
      ],
      "name": "MultiSigExecute",
      "type": "event"
    },
    {
      "anonymous": false,
      "inputs": [
        {
          "indexed": true,
          "internalType": "address",
          "name": "by",
          "type": "address"
        },
        {
          "indexed": true,
          "internalType": "address",
          "name": "from",
          "type": "address"
        },
        {
          "indexed": true,
          "internalType": "address",
          "name": "to",
          "type": "address"
        }
      ],
      "name": "MultiSigReplaceOwnerCall",
      "type": "event"
    },
    {
      "anonymous": false,
      "inputs": [
        {
          "indexed": true,
          "internalType": "address",
          "name": "from",
          "type": "address"
        },
        {
          "indexed": true,
          "internalType": "bytes4",
          "name": "selector",
          "type": "bytes4"
        },
        {
          "indexed": false,
          "internalType": "uint256",
          "name": "value",
          "type": "uint256"
        },
        {
          "indexed": false,
          "internalType": "bytes32",
          "name": "hashedData",
          "type": "bytes32"
        }
      ],
      "name": "MultiSigRequest",
      "type": "event"
    },
    {
      "anonymous": false,
      "inputs": [
        {
          "indexed": true,
          "internalType": "address",
          "name": "from",
          "type": "address"
        },
        {
          "indexed": false,
          "internalType": "uint256",
          "name": "value",
          "type": "uint256"
        }
      ],
      "name": "Received",
      "type": "event"
    },
    {
      "anonymous": false,
      "inputs": [
        {
          "indexed": true,
          "internalType": "address",
          "name": "to",
          "type": "address"
        },
        {
          "indexed": false,
          "internalType": "uint256",
          "name": "value",
          "type": "uint256"
        }
      ],
      "name": "Transfered",
      "type": "event"
    },
    {
      "stateMutability": "nonpayable",
      "type": "fallback"
    },
    {
      "inputs": [],
      "name": "cancel",
      "outputs": [],
      "stateMutability": "nonpayable",
      "type": "function"
    },
    {
      "inputs": [
        {
          "internalType": "bytes",
          "name": "bytecode",
          "type": "bytes"
        },
        {
          "internalType": "bytes32",
          "name": "salt",
          "type": "bytes32"
        }
      ],
      "name": "deployContract2_",
      "outputs": [
        {
          "internalType": "address",
          "name": "addr",
          "type": "address"
        }
      ],
      "stateMutability": "nonpayable",
      "type": "function"
    },
    {
      "inputs": [
        {
          "internalType": "bytes",
          "name": "bytecode",
          "type": "bytes"
        }
      ],
      "name": "deployContract_",
      "outputs": [
        {
          "internalType": "address",
          "name": "addr",
          "type": "address"
        }
      ],
      "stateMutability": "nonpayable",
      "type": "function"
    },
    {
      "inputs": [],
      "name": "getOwnTarget_",
      "outputs": [
        {
          "internalType": "address",
          "name": "",
          "type": "address"
        }
      ],
      "stateMutability": "view",
      "type": "function"
    },
    {
      "inputs": [],
      "name": "initialized",
      "outputs": [
        {
          "internalType": "bool",
          "name": "",
          "type": "bool"
        }
      ],
      "stateMutability": "view",
      "type": "function"
    },
    {
      "inputs": [],
      "name": "isOwner",
      "outputs": [
        {
          "internalType": "bool",
          "name": "",
          "type": "bool"
        }
      ],
      "stateMutability": "view",
      "type": "function"
    },
    {
      "inputs": [],
      "name": "paymentAddress",
      "outputs": [
        {
          "internalType": "address payable",
          "name": "",
          "type": "address"
        }
      ],
      "stateMutability": "view",
      "type": "function"
    },
    {
      "inputs": [
        {
          "internalType": "address",
          "name": "owner",
          "type": "address"
        },
        {
          "internalType": "address",
          "name": "newOwner",
          "type": "address"
        }
      ],
      "name": "replaceOwner",
      "outputs": [],
      "stateMutability": "nonpayable",
      "type": "function"
    },
    {
      "inputs": [],
      "name": "s_action",
      "outputs": [
        {
          "internalType": "address",
          "name": "owner",
          "type": "address"
        },
        {
          "internalType": "uint256",
          "name": "value",
          "type": "uint256"
        },
        {
          "internalType": "bytes32",
          "name": "data",
          "type": "bytes32"
        }
      ],
      "stateMutability": "view",
      "type": "function"
    },
    {
      "inputs": [
        {
          "internalType": "address",
          "name": "target",
          "type": "address"
        }
      ],
      "name": "setOwnTarget_",
      "outputs": [],
      "stateMutability": "nonpayable",
      "type": "function"
    },
    {
      "inputs": [
        {
          "internalType": "address payable",
          "name": "payto",
          "type": "address"
        }
      ],
      "name": "setPaymentAddress",
      "outputs": [],
      "stateMutability": "nonpayable",
      "type": "function"
    },
    {
      "inputs": [
        {
          "internalType": "bytes",
          "name": "data",
          "type": "bytes"
        }
      ],
      "name": "sig",
      "outputs": [
        {
          "internalType": "bytes4",
          "name": "",
          "type": "bytes4"
        }
      ],
      "stateMutability": "pure",
      "type": "function"
    },
    {
      "inputs": [
        {
          "internalType": "address payable",
          "name": "to",
          "type": "address"
        },
        {
          "internalType": "uint256",
          "name": "value",
          "type": "uint256"
        }
      ],
      "name": "transferOwnEther_",
      "outputs": [],
      "stateMutability": "nonpayable",
      "type": "function"
    },
    {
      "stateMutability": "payable",
      "type": "receive"
    },
    {
      "inputs": [
        {
          "internalType": "address",
          "name": "token",
          "type": "address"
        },
        {
          "internalType": "bool",
          "name": "safe",
          "type": "bool"
        }
      ],
      "name": "updateToken",
      "outputs": [],
      "stateMutability": "nonpayable",
      "type": "function"
    },
    {
      "inputs": [
        {
          "internalType": "address",
          "name": "token",
          "type": "address"
        }
      ],
      "name": "isTokenSafe",
      "outputs": [
        {
          "internalType": "bool",
          "name": "",
          "type": "bool"
        }
      ],
      "stateMutability": "view",
      "type": "function"
    },
    {
      "inputs": [
        {
          "internalType": "address",
          "name": "token",
          "type": "address"
        }
      ],
      "name": "is20Safe",
      "outputs": [
        {
          "internalType": "bool",
          "name": "",
          "type": "bool"
        }
      ],
      "stateMutability": "view",
      "type": "function"
    },
    {
      "inputs": [
        {
          "internalType": "address",
          "name": "token",
          "type": "address"
        }
      ],
      "name": "is721Safe",
      "outputs": [
        {
          "internalType": "bool",
          "name": "",
          "type": "bool"
        }
      ],
      "stateMutability": "view",
      "type": "function"
    },
    {
      "inputs": [],
      "name": "version",
      "outputs": [
        {
          "internalType": "bytes8",
          "name": "",
          "type": "bytes8"
        }
      ],
      "stateMutability": "pure",
      "type": "function"
    }
  ],
  "bytecode": "0x60806040523480156200001157600080fd5b50604051620020c7380380620020c7833981810160405260608110156200003757600080fd5b50805160208201516040909201519091908282828282826001600160a01b038316620000aa576040805162461bcd60e51b815260206004820152601c60248201527f4d756c74695369673a206f776e6572312063616e6e6f74206265203000000000604482015290519081900360640190fd5b6001600160a01b03821662000106576040805162461bcd60e51b815260206004820152601c60248201527f4d756c74695369673a206f776e6572322063616e6e6f74206265203000000000604482015290519081900360640190fd5b6001600160a01b03811662000162576040805162461bcd60e51b815260206004820152601c60248201527f4d756c74695369673a206f776e6572332063616e6e6f74206265203000000000604482015290519081900360640190fd5b816001600160a01b0316836001600160a01b03161415620001b55760405162461bcd60e51b8152600401808060200182810382526021815260200180620020856021913960400191505060405180910390fd5b806001600160a01b0316826001600160a01b03161415620002085760405162461bcd60e51b8152600401808060200182810382526021815260200180620020646021913960400191505060405180910390fd5b806001600160a01b0316836001600160a01b031614156200025b5760405162461bcd60e51b8152600401808060200182810382526021815260200180620020a66021913960400191505060405180910390fd5b6001600160a01b039283166000908152602081905260408082208054600160ff199182168117909255948616835281832080548616821790559290941681529283208054909216179055611da79650869550620002bd945092505050396000f3fe60806040526004361061010d5760003560e01c80635e1e100411610095578063b3cbf39611610064578063b3cbf396146107be578063dfc0758814610649578063e20056e614610810578063e84bc4de1461084b578063ea8a1af01461087e5761014a565b80635e1e10041461070d578063633423be146107425780638d101cfa146107605780638f32d59b146107995761014a565b8063477d8c74116100dc578063477d8c74146105965780634f60c5221461064957806354cad8a61461064957806354fd4d501461068c5780635d2cf095146106bd5761014a565b8063158ef93e146103e457806327dcc4ef1461040d57806327e3bb9b146104a75780632d7d90e7146105785761014a565b3661014a5760408051348152905133917f88a5966d370b9919b20f3e2c13ff65706f196a4e32cc2c12bf57088f88525874919081900360200190a2005b34801561015657600080fd5b503360009081526020819052604081205460ff16801561018157506001546001600160a01b03163314155b6101bc5760405162461bcd60e51b8152600401808060200182810382526030815260200180611c106030913960400191505060405180910390fd5b600080366040518083838082843760405192018290039091206002549095506001600160a01b0316151593506102519250505057600280546001600160a01b0319163317905560048190556003829055610217600036610893565b604080518481526020810184905281516001600160e01b031993909316923392600080516020611c62833981519152928290030190a35050005b6002546001600160a01b031633141561029b5760405162461bcd60e51b8152600401808060200182810382526026815260200180611d4c6026913960400191505060405180910390fd5b60035482146102db5760405162461bcd60e51b8152600401808060200182810382526022815260200180611c406022913960400191505060405180910390fd5b600454811461031b5760405162461bcd60e51b8152600401808060200182810382526021815260200180611d096021913960400191505060405180910390fd5b600280546001600160a01b0319169055610336600036610893565b604080518481526020810184905281516001600160e01b031993909316923392600080516020611cbe833981519152928290030190a36005546001600160a01b03166103bd576040805162461bcd60e51b815260206004820152601160248201527015d85b1b195d0e881b9bc81d185c99d95d607a1b604482015290519081900360640190fd5b3660008037600080366000806005545af13d6000803e80156103de573d6000f35b503d6000fd5b3480156103f057600080fd5b506103f9610987565b604080519115158252519081900360200190f35b34801561041957600080fd5b5061048a6004803603602081101561043057600080fd5b81019060208101813564010000000081111561044b57600080fd5b82018360208201111561045d57600080fd5b8035906020019184600183028401116401000000008311171561047f57600080fd5b509092509050610893565b604080516001600160e01b03199092168252519081900360200190f35b3480156104b357600080fd5b5061055c600480360360408110156104ca57600080fd5b8101906020810181356401000000008111156104e557600080fd5b8201836020820111156104f757600080fd5b8035906020019184600183028401116401000000008311171561051957600080fd5b91908080601f01602080910402602001604051908101604052809392919081815260200183838082843760009201919091525092955050913592506109a6915050565b604080516001600160a01b039092168252519081900360200190f35b34801561058457600080fd5b506005546001600160a01b031661055c565b3480156105a257600080fd5b5061055c600480360360208110156105b957600080fd5b8101906020810181356401000000008111156105d457600080fd5b8201836020820111156105e657600080fd5b8035906020019184600183028401116401000000008311171561060857600080fd5b91908080601f016020809104026020016040519081016040528093929190818152602001838380828437600092019190915250929550610c6e945050505050565b34801561065557600080fd5b506103f96004803603602081101561066c57600080fd5b50356001600160a01b031660009081526007602052604090205460ff1690565b34801561069857600080fd5b5062302e3160e81b604080516001600160c01b03199092168252519081900360200190f35b3480156106c957600080fd5b506002546003546004546106e5926001600160a01b0316919083565b604080516001600160a01b039094168452602084019290925282820152519081900360600190f35b34801561071957600080fd5b506107406004803603602081101561073057600080fd5b50356001600160a01b0316610f34565b005b34801561074e57600080fd5b506006546001600160a01b031661055c565b34801561076c57600080fd5b506107406004803603604081101561078357600080fd5b506001600160a01b0381351690602001356111c9565b3480156107a557600080fd5b503360009081526020819052604090205460ff166103f9565b3480156107ca57600080fd5b50610740600480360360408110156107e157600080fd5b5080356001600160a01b03166000908152600760209081526040909120805460ff191691909201351515179055565b34801561081c57600080fd5b506107406004803603604081101561083357600080fd5b506001600160a01b03813581169160200135166114cc565b34801561085757600080fd5b506107406004803603602081101561086e57600080fd5b50356001600160a01b03166116f0565b34801561088a57600080fd5b506107406118ef565b600060048210156108a657506000610981565b6018838360038181106108c957634e487b7160e01b600052603260045260246000fd5b909101356001600160f81b03191690911c90506010848460028181106108ff57634e487b7160e01b600052603260045260246000fd5b909101356001600160f81b03191690911c905060088585600181811061093557634e487b7160e01b600052603260045260246000fd5b909101356001600160f81b03191690911c9050858560008161096757634e487b7160e01b600052603260045260246000fd5b9050013560f81c60f81b6001600160f81b03191617171790505b92915050565b6006546000906001600160a01b03166109a05750600090565b50600190565b33600090815260208190526040812054819060ff1680156109d257506001546001600160a01b03163314155b610a0d5760405162461bcd60e51b8152600401808060200182810382526030815260200180611c106030913960400191505060405180910390fd5b600080366040518083838082843760405192018290039091206002549095506001600160a01b031615159350610aa49250505057600280546001600160a01b0319163317905560048190556003829055610a68600036610893565b604080518481526020810184905281516001600160e01b031993909316923392600080516020611c62833981519152928290030190a350610c67565b6002546001600160a01b0316331415610aee5760405162461bcd60e51b8152600401808060200182810382526026815260200180611d4c6026913960400191505060405180910390fd5b6003548214610b2e5760405162461bcd60e51b8152600401808060200182810382526022815260200180611c406022913960400191505060405180910390fd5b6004548114610b6e5760405162461bcd60e51b8152600401808060200182810382526021815260200180611d096021913960400191505060405180910390fd5b600280546001600160a01b0319169055610b89600036610893565b604080518481526020810184905281516001600160e01b031993909316923392600080516020611cbe833981519152928290030190a38451610c12576040805162461bcd60e51b815260206004820152601f60248201527f57616c6c65743a2062797465636f6465206c656e677468206973207a65726f00604482015290519081900360640190fd5b838551602087016000f59250823b610c2957600080fd5b604080516001600160a01b038516815290517f6b0b64cb715e4ac8b26124630e025cb11302d3a86c10a737be92f1c17b389c359181900360200190a1505b5092915050565b33600090815260208190526040812054819060ff168015610c9a57506001546001600160a01b03163314155b610cd55760405162461bcd60e51b8152600401808060200182810382526030815260200180611c106030913960400191505060405180910390fd5b600080366040518083838082843760405192018290039091206002549095506001600160a01b031615159350610d6c9250505057600280546001600160a01b0319163317905560048190556003829055610d30600036610893565b604080518481526020810184905281516001600160e01b031993909316923392600080516020611c62833981519152928290030190a350610f2e565b6002546001600160a01b0316331415610db65760405162461bcd60e51b8152600401808060200182810382526026815260200180611d4c6026913960400191505060405180910390fd5b6003548214610df65760405162461bcd60e51b8152600401808060200182810382526022815260200180611c406022913960400191505060405180910390fd5b6004548114610e365760405162461bcd60e51b8152600401808060200182810382526021815260200180611d096021913960400191505060405180910390fd5b600280546001600160a01b0319169055610e51600036610893565b604080518481526020810184905281516001600160e01b031993909316923392600080516020611cbe833981519152928290030190a38351610eda576040805162461bcd60e51b815260206004820152601f60248201527f57616c6c65743a2062797465636f6465206c656e677468206973207a65726f00604482015290519081900360640190fd5b8351602085016000f09250823b610ef057600080fd5b604080516001600160a01b038516815290517f8ffcdc15a283d706d38281f500270d8b5a656918f555de0913d7455e3e6bc1bf9181900360200190a1505b50919050565b3360009081526020819052604081205460ff168015610f5e57506001546001600160a01b03163314155b610f995760405162461bcd60e51b8152600401808060200182810382526030815260200180611c106030913960400191505060405180910390fd5b600080366040518083838082843760405192018290039091206002549095506001600160a01b03161515935061102f9250505057600280546001600160a01b0319163317905560048190556003829055610ff4600036610893565b604080518481526020810184905281516001600160e01b031993909316923392600080516020611c62833981519152928290030190a3505050565b6002546001600160a01b03163314156110795760405162461bcd60e51b8152600401808060200182810382526026815260200180611d4c6026913960400191505060405180910390fd5b60035482146110b95760405162461bcd60e51b8152600401808060200182810382526022815260200180611c406022913960400191505060405180910390fd5b60045481146110f95760405162461bcd60e51b8152600401808060200182810382526021815260200180611d096021913960400191505060405180910390fd5b600280546001600160a01b0319169055611114600036610893565b604080518481526020810184905281516001600160e01b031993909316923392600080516020611cbe833981519152928290030190a36001600160a01b0383166111a5576040805162461bcd60e51b815260206004820152601b60248201527f7061796d656e7420616464726573732063616e6e6f7420626520300000000000604482015290519081900360640190fd5b5050600680546001600160a01b0319166001600160a01b0392909216919091179055565b3360009081526020819052604081205460ff1680156111f357506001546001600160a01b03163314155b61122e5760405162461bcd60e51b8152600401808060200182810382526030815260200180611c106030913960400191505060405180910390fd5b600080366040518083838082843760405192018290039091206002549095506001600160a01b0316151593506112c59250505057600280546001600160a01b0319163317905560048190556003829055611289600036610893565b604080518481526020810184905281516001600160e01b031993909316923392600080516020611c62833981519152928290030190a350505050565b6002546001600160a01b031633141561130f5760405162461bcd60e51b8152600401808060200182810382526026815260200180611d4c6026913960400191505060405180910390fd5b600354821461134f5760405162461bcd60e51b8152600401808060200182810382526022815260200180611c406022913960400191505060405180910390fd5b600454811461138f5760405162461bcd60e51b8152600401808060200182810382526021815260200180611d096021913960400191505060405180910390fd5b600280546001600160a01b03191690556113aa600036610893565b604080518481526020810184905281516001600160e01b031993909316923392600080516020611cbe833981519152928290030190a36040516000906001600160a01b0386169085908381818185875af1925050503d806000811461142b576040519150601f19603f3d011682016040523d82523d6000602084013e611430565b606091505b5050905080611486576040805162461bcd60e51b815260206004820152601760248201527f57616c6c65743a207472616e73666572206661696c6564000000000000000000604482015290519081900360640190fd5b6040805185815290516001600160a01b038716917f419013ffbfd3a7e95a13645088f1f9b8aff6057aaa2a840cc18ddbbec3d1677c919081900360200190a25050505050565b6001600160a01b038216611527576040805162461bcd60e51b815260206004820152601b60248201527f4d756c74695369673a206f776e65722063616e6e6f7420626520300000000000604482015290519081900360640190fd5b6001600160a01b038116611582576040805162461bcd60e51b815260206004820152601f60248201527f4d756c74695369673a206e6577204f776e65722063616e6e6f74206265203000604482015290519081900360640190fd5b6001600160a01b03821660009081526020819052604090205460ff1615156001146115f4576040805162461bcd60e51b815260206004820152601a60248201527f4d756c74695369673a206f776e6572206d757374206578697374000000000000604482015290519081900360640190fd5b6001600160a01b03821633141561163c5760405162461bcd60e51b815260040180806020018281038252602b815260200180611cde602b913960400191505060405180910390fd5b6001600160a01b03811660009081526020819052604090205460ff16156116945760405162461bcd60e51b8152600401808060200182810382526022815260200180611d2a6022913960400191505060405180910390fd5b600180546001600160a01b0319166001600160a01b038481169182179092556040519183169133907f3f83b5e276aedb8b7501b6812a09510fd4f92e3db05921939f715fbb980c67f290600090a46116ec82826119e6565b5050565b3360009081526020819052604081205460ff16801561171a57506001546001600160a01b03163314155b6117555760405162461bcd60e51b8152600401808060200182810382526030815260200180611c106030913960400191505060405180910390fd5b600080366040518083838082843760405192018290039091206002549095506001600160a01b0316151593506117b09250505057600280546001600160a01b0319163317905560048190556003829055610ff4600036610893565b6002546001600160a01b03163314156117fa5760405162461bcd60e51b8152600401808060200182810382526026815260200180611d4c6026913960400191505060405180910390fd5b600354821461183a5760405162461bcd60e51b8152600401808060200182810382526022815260200180611c406022913960400191505060405180910390fd5b600454811461187a5760405162461bcd60e51b8152600401808060200182810382526021815260200180611d096021913960400191505060405180910390fd5b600280546001600160a01b0319169055611895600036610893565b604080518481526020810184905281516001600160e01b031993909316923392600080516020611cbe833981519152928290030190a35050600580546001600160a01b0319166001600160a01b0392909216919091179055565b3360009081526020819052604090205460ff16611953576040805162461bcd60e51b815260206004820181905260248201527f4d756c74695369673a206f6e6c79206f776e6572732063616e2063616e63656c604482015290519081900360640190fd5b6001546001600160a01b031633141561199d5760405162461bcd60e51b815260040180806020018281038252603c815260200180611c82603c913960400191505060405180910390fd5b600280546001600160a01b031990811690915560018054909116905560405133907f30ec0961b65153901ed6dc5cfe8d736772c29b94b3024a497d0b3198dcbd317d90600090a2565b3360009081526020819052604081205460ff168015611a1057506001546001600160a01b03163314155b611a4b5760405162461bcd60e51b8152600401808060200182810382526030815260200180611c106030913960400191505060405180910390fd5b600080366040518083838082843760405192018290039091206002549095506001600160a01b031615159350611aa69250505057600280546001600160a01b0319163317905560048190556003829055611289600036610893565b6002546001600160a01b0316331415611af05760405162461bcd60e51b8152600401808060200182810382526026815260200180611d4c6026913960400191505060405180910390fd5b6003548214611b305760405162461bcd60e51b8152600401808060200182810382526022815260200180611c406022913960400191505060405180910390fd5b6004548114611b705760405162461bcd60e51b8152600401808060200182810382526021815260200180611d096021913960400191505060405180910390fd5b600280546001600160a01b0319169055611b8b600036610893565b604080518481526020810184905281516001600160e01b031993909316923392600080516020611cbe833981519152928290030190a350506001600160a01b03918216600090815260208190526040808220805460ff19908116909155929093168152919091208054909116600190811790915580546001600160a01b031916905556fe4d756c74695369673a206f6e6c79206f776e657273207468617420617265206e6f74206265696e672072656d6f7665644d756c74695369673a206d757374207369676e207468652073616d652076616c7565eeb0bd41c2b0ff931f981a964047b0a1a26ab644f801be86da62c770313f724f4d756c74695369673a206f6e6c79206f776e657273207468617420617265206e6f74206265696e67207265706c616365642063616e2063616e63656c0b5363f980745c7335c6e90cf3e542e8c9444d9fa5371ad688760cda3776539b4d756c74695369673a2073656e646572732063616e6e6f74207265706c616365207468656d73656c7665734d756c74695369673a206d757374207369676e207468652073616d6520646174614d756c74695369673a206e6577206f776e6572206d757374206e6f742065786973744d756c74695369673a2073616d65206f776e65722063616e6e6f74207369676e207477696365a2646970667358221220008d2b94707b142b83d5621b0ef6d0d0fe261fa1e3b89d3c37d2fb350c4161fa64736f6c634300080400334d756c74695369673a206f776e6572322063616e6e6f74206265206f776e6572334d756c74695369673a206f776e6572312063616e6e6f74206265206f776e6572324d756c74695369673a206f776e6572312063616e6e6f74206265206f776e657233",
  "immutableReferences": {},
  "source": "// SPDX-License-Identifier: UNLICENSED\n\npragma solidity ^0.8.0;\npragma abicoder v1;\n\nimport \"../lib/OracleBase.sol\";\n\ncontract Oracle2 is OracleBase {\n    mapping(address => bool) private s_tokens;\n\n    constructor(\n        address owner1,\n        address owner2,\n        address owner3\n    ) MultiSigWallet(owner1, owner2, owner3) {}\n\n    function updateToken(address token, bool safe) public {\n        s_tokens[token] = safe;\n    }\n\n    function isTokenSafe(address token) public view returns (bool) {\n        return s_tokens[token];\n    }\n\n    function is20Safe(address token) public view override returns (bool) {\n        return s_tokens[token];\n    }\n\n    function is721Safe(address token) public view override returns (bool) {\n        return s_tokens[token];\n    }\n\n    function version() external pure override returns (bytes8) {\n        return bytes8(\"0.1\");\n    }\n}\n",
  "sourcePath": "/Users/orishalom/repositories/ki-eth-contracts/contracts/test/Oracle2.sol",
  "compiler": {
    "name": "solc",
    "version": "0.8.4+commit.c7e474f2.Emscripten.clang"
  },
  "schemaVersion": "3.3.4",
  "updatedAt": "2021-09-29T07:56:03.929Z",
  "devdoc": {
    "kind": "dev",
    "methods": {},
    "version": 1
  },
  "userdoc": {
    "kind": "user",
    "methods": {},
    "version": 1
  }
}