{
  "contractName": "Oracle2",
  "abi": [
    {
      "inputs": [
        {
          "internalType": "address",
          "name": "owner1",
          "type": "address"
        },
        {
          "internalType": "address",
          "name": "owner2",
          "type": "address"
        },
        {
          "internalType": "address",
          "name": "owner3",
          "type": "address"
        }
      ],
      "stateMutability": "nonpayable",
      "type": "constructor"
    },
    {
      "inputs": [],
      "name": "cancel",
      "outputs": [],
      "stateMutability": "nonpayable",
      "type": "function"
    },
    {
      "inputs": [],
      "name": "initialized",
      "outputs": [
        {
          "internalType": "bool",
          "name": "",
          "type": "bool"
        }
      ],
      "stateMutability": "view",
      "type": "function"
    },
    {
      "inputs": [],
      "name": "isOwner",
      "outputs": [
        {
          "internalType": "bool",
          "name": "",
          "type": "bool"
        }
      ],
      "stateMutability": "view",
      "type": "function"
    },
    {
      "inputs": [],
      "name": "paymentAddress",
      "outputs": [
        {
          "internalType": "address payable",
          "name": "",
          "type": "address"
        }
      ],
      "stateMutability": "view",
      "type": "function"
    },
    {
      "inputs": [
        {
          "internalType": "address",
          "name": "_owner",
          "type": "address"
        },
        {
          "internalType": "address",
          "name": "_newOwner",
          "type": "address"
        }
      ],
      "name": "replaceOwner",
      "outputs": [],
      "stateMutability": "nonpayable",
      "type": "function"
    },
    {
      "inputs": [
        {
          "internalType": "address payable",
          "name": "_payto",
          "type": "address"
        }
      ],
      "name": "setPaymentAddress",
      "outputs": [],
      "stateMutability": "nonpayable",
      "type": "function"
    },
    {
      "inputs": [
        {
          "internalType": "address",
          "name": "_token",
          "type": "address"
        },
        {
          "internalType": "bool",
          "name": "_safe",
          "type": "bool"
        }
      ],
      "name": "updateToken",
      "outputs": [],
      "stateMutability": "nonpayable",
      "type": "function"
    },
    {
      "inputs": [
        {
          "internalType": "address",
          "name": "_token",
          "type": "address"
        }
      ],
      "name": "isTokenSafe",
      "outputs": [
        {
          "internalType": "bool",
          "name": "",
          "type": "bool"
        }
      ],
      "stateMutability": "view",
      "type": "function"
    },
    {
      "inputs": [
        {
          "internalType": "address",
          "name": "_token",
          "type": "address"
        }
      ],
      "name": "is20Safe",
      "outputs": [
        {
          "internalType": "bool",
          "name": "",
          "type": "bool"
        }
      ],
      "stateMutability": "view",
      "type": "function"
    },
    {
      "inputs": [
        {
          "internalType": "address",
          "name": "_token",
          "type": "address"
        }
      ],
      "name": "is721Safe",
      "outputs": [
        {
          "internalType": "bool",
          "name": "",
          "type": "bool"
        }
      ],
      "stateMutability": "view",
      "type": "function"
    },
    {
      "inputs": [],
      "name": "version",
      "outputs": [
        {
          "internalType": "bytes8",
          "name": "",
          "type": "bytes8"
        }
      ],
      "stateMutability": "pure",
      "type": "function"
    }
  ],
  "bytecode": "0x608060405234801561001057600080fd5b50604051610cbb380380610cbb8339818101604052606081101561003357600080fd5b50805160208201516040909201519091908282826001600160a01b038316610097576040805162461bcd60e51b815260206004820152601260248201527106f776e6572312063616e6e6f7420626520360741b604482015290519081900360640190fd5b6001600160a01b0382166100e7576040805162461bcd60e51b815260206004820152601260248201527106f776e6572322063616e6e6f7420626520360741b604482015290519081900360640190fd5b6001600160a01b038116610137576040805162461bcd60e51b815260206004820152601260248201527106f776e6572332063616e6e6f7420626520360741b604482015290519081900360640190fd5b816001600160a01b0316836001600160a01b0316141561019e576040805162461bcd60e51b815260206004820152601760248201527f6f776e6572312063616e6e6f74206265206f776e657232000000000000000000604482015290519081900360640190fd5b806001600160a01b0316826001600160a01b03161415610205576040805162461bcd60e51b815260206004820152601760248201527f6f776e6572322063616e6e6f74206265206f776e657233000000000000000000604482015290519081900360640190fd5b806001600160a01b0316836001600160a01b0316141561026c576040805162461bcd60e51b815260206004820152601760248201527f6f776e6572312063616e6e6f74206265206f776e657233000000000000000000604482015290519081900360640190fd5b6001600160a01b039283166000908152602081905260408082208054600160ff1991821681179092559486168352818320805486168217905592909416815292832080549092161790556109f293508392506102c99150396000f3fe608060405234801561001057600080fd5b50600436106100b95760003560e01c8063633423be11610081578063dfc075881161005b578063dfc07588146100da578063e20056e6146101b8578063ea8a1af0146101e6576100b9565b8063633423be1461015e5780638f32d59b14610182578063b3cbf3961461018a576100b9565b8063158ef93e146100be5780634f60c522146100da57806354cad8a6146100da57806354fd4d50146101005780635e1e100414610136575b600080fd5b6100c66101ee565b604080519115158252519081900360200190f35b6100c6600480360360208110156100f057600080fd5b50356001600160a01b0316610255565b610108610273565b6040805177ffffffffffffffffffffffffffffffffffffffffffffffff199092168252519081900360200190f35b61015c6004803603602081101561014c57600080fd5b50356001600160a01b031661027d565b005b610166610527565b604080516001600160a01b039092168252519081900360200190f35b6100c6610536565b61015c600480360360408110156101a057600080fd5b506001600160a01b038135169060200135151561054c565b61015c600480360360408110156101ce57600080fd5b506001600160a01b0381358116916020013516610577565b61015c6108c0565b6004546000906001600160a01b031661024e576040805162461bcd60e51b815260206004820152601b60248201527f7061796d656e7420616464726573732063616e6e6f7420626520300000000000604482015290519081900360640190fd5b5060015b90565b6001600160a01b031660009081526005602052604090205460ff1690565b62302e3160e81b90565b3360009081526020819052604081205460ff166102cf576040805162461bcd60e51b815260206004820152600b60248201526a6f6e6c79206f776e65727360a81b604482015290519081900360640190fd5b6001546001600160a01b031661030957600180546001600160a01b031916331790556102fe6003600036610924565b506002819055610523565b6001546001600160a01b0316331415610369576040805162461bcd60e51b815260206004820152601c60248201527f73616d65206f776e65722063616e6e6f74207369676e20747769636500000000604482015290519081900360640190fd5b60025481146103bf576040805162461bcd60e51b815260206004820152601860248201527f6d757374207369676e207468652073616d652076616c75650000000000000000604482015290519081900360640190fd5b6000366040518083838082843760405192018290038220600380549196509450919250829184915060026000196101006001841615020190911604801561043d5780601f1061041b57610100808354040283529182019161043d565b820191906000526020600020905b815481529060010190602001808311610429575b505091505060405180910390201461049c576040805162461bcd60e51b815260206004820152601760248201527f6d757374207369676e207468652073616d652064617461000000000000000000604482015290519081900360640190fd5b600180546001600160a01b03191690556001600160a01b038216610507576040805162461bcd60e51b815260206004820152601b60248201527f7061796d656e7420616464726573732063616e6e6f7420626520300000000000604482015290519081900360640190fd5b600480546001600160a01b0319166001600160a01b0384161790555b5050565b6004546001600160a01b031690565b3360009081526020819052604090205460ff1690565b6001600160a01b03919091166000908152600560205260409020805460ff1916911515919091179055565b3360009081526020819052604081205460ff166105c9576040805162461bcd60e51b815260206004820152600b60248201526a6f6e6c79206f776e65727360a81b604482015290519081900360640190fd5b6001546001600160a01b031661060357600180546001600160a01b031916331790556105f86003600036610924565b5060028190556108bb565b6001546001600160a01b0316331415610663576040805162461bcd60e51b815260206004820152601c60248201527f73616d65206f776e65722063616e6e6f74207369676e20747769636500000000604482015290519081900360640190fd5b60025481146106b9576040805162461bcd60e51b815260206004820152601860248201527f6d757374207369676e207468652073616d652076616c75650000000000000000604482015290519081900360640190fd5b600036604051808383808284376040519201829003822060038054919650945091925082918491506002600019610100600184161502019091160480156107375780601f10610715576101008083540402835291820191610737565b820191906000526020600020905b815481529060010190602001808311610723575b5050915050604051809103902014610796576040805162461bcd60e51b815260206004820152601760248201527f6d757374207369676e207468652073616d652064617461000000000000000000604482015290519081900360640190fd5b600180546001600160a01b03191681556001600160a01b03841660009081526020819052604090205460ff16151514610816576040805162461bcd60e51b815260206004820152601260248201527f6f776e65722073686f756c642065786973740000000000000000000000000000604482015290519081900360640190fd5b6001600160a01b03821660009081526020819052604090205460ff1615610884576040805162461bcd60e51b815260206004820152601a60248201527f6e6577206f776e65722073686f756c64206e6f74206578697374000000000000604482015290519081900360640190fd5b6001600160a01b03808416600090815260208190526040808220805460ff1990811690915592851682529020805490911660011790555b505050565b3360009081526020819052604090205460ff16610912576040805162461bcd60e51b815260206004820152600b60248201526a6f6e6c79206f776e65727360a81b604482015290519081900360640190fd5b600180546001600160a01b0319169055565b828054600181600116156101000203166002900490600052602060002090601f016020900481019282601f106109655782800160ff19823516178555610992565b82800160010185558215610992579182015b82811115610992578235825591602001919060010190610977565b5061099e9291506109a2565b5090565b61025291905b8082111561099e57600081556001016109a856fea2646970667358221220267fcbdaa698798f4e2477e4e3ffe24384d422df65ab790e89d394098952672b64736f6c634300060b0033",
  "source": "// SPDX-License-Identifier: UNLICENSED\n\npragma solidity 0.6.11;\n\nimport \"../lib/OracleBase.sol\";\n\ncontract Oracle2 is OracleBase {\n\n    mapping (address=>bool) private tokens;\n\n    constructor(address owner1, address owner2, address owner3) MultiSig(owner1, owner2, owner3) public {\n    }\n\n    function updateToken(address _token, bool _safe) public {\n        tokens[_token] = _safe;\n    }\n\n    function isTokenSafe(address _token) public view returns (bool) {\n        return tokens[_token];\n    }\n\n    function is20Safe(address _token) public view override returns (bool) {\n        return tokens[_token];\n    }\n\n    function is721Safe(address _token) public view override returns (bool) {\n        return tokens[_token];\n    }\n\n    function version() external pure override returns (bytes8) {\n      return bytes8(\"0.1\");\n    }\n\n}",
  "sourcePath": "/home/tal/code/kirobo/ki-eth-contracts/contracts/test/Oracle2.sol",
  "compiler": {
    "name": "solc",
    "version": "0.6.11+commit.5ef660b1.Emscripten.clang"
  },
  "schemaVersion": "3.0.23",
  "updatedAt": "2020-07-23T16:58:51.416Z",
  "devdoc": {
    "kind": "dev",
    "methods": {},
    "version": 1
  },
  "userdoc": {
    "kind": "user",
    "methods": {},
    "version": 1
  }
}