{
  "contractName": "Oracle2",
  "abi": [
    {
      "inputs": [
        {
          "internalType": "address",
          "name": "owner1",
          "type": "address"
        },
        {
          "internalType": "address",
          "name": "owner2",
          "type": "address"
        },
        {
          "internalType": "address",
          "name": "owner3",
          "type": "address"
        }
      ],
      "stateMutability": "nonpayable",
      "type": "constructor"
    },
    {
      "anonymous": false,
      "inputs": [
        {
          "indexed": true,
          "internalType": "address",
          "name": "from",
          "type": "address"
        }
      ],
      "name": "MultiSigCancel",
      "type": "event"
    },
    {
      "anonymous": false,
      "inputs": [
        {
          "indexed": true,
          "internalType": "address",
          "name": "from",
          "type": "address"
        },
        {
          "indexed": true,
          "internalType": "bytes4",
          "name": "selector",
          "type": "bytes4"
        },
        {
          "indexed": false,
          "internalType": "uint256",
          "name": "value",
          "type": "uint256"
        },
        {
          "indexed": false,
          "internalType": "bytes32",
          "name": "hashedData",
          "type": "bytes32"
        }
      ],
      "name": "MultiSigExecute",
      "type": "event"
    },
    {
      "anonymous": false,
      "inputs": [
        {
          "indexed": true,
          "internalType": "address",
          "name": "by",
          "type": "address"
        },
        {
          "indexed": true,
          "internalType": "address",
          "name": "from",
          "type": "address"
        },
        {
          "indexed": true,
          "internalType": "address",
          "name": "to",
          "type": "address"
        }
      ],
      "name": "MultiSigReplaceOwnerCall",
      "type": "event"
    },
    {
      "anonymous": false,
      "inputs": [
        {
          "indexed": true,
          "internalType": "address",
          "name": "from",
          "type": "address"
        },
        {
          "indexed": true,
          "internalType": "bytes4",
          "name": "selector",
          "type": "bytes4"
        },
        {
          "indexed": false,
          "internalType": "uint256",
          "name": "value",
          "type": "uint256"
        },
        {
          "indexed": false,
          "internalType": "bytes32",
          "name": "hashedData",
          "type": "bytes32"
        }
      ],
      "name": "MultiSigRequest",
      "type": "event"
    },
    {
      "inputs": [],
      "name": "cancel",
      "outputs": [],
      "stateMutability": "nonpayable",
      "type": "function"
    },
    {
      "inputs": [],
      "name": "initialized",
      "outputs": [
        {
          "internalType": "bool",
          "name": "",
          "type": "bool"
        }
      ],
      "stateMutability": "view",
      "type": "function"
    },
    {
      "inputs": [],
      "name": "isOwner",
      "outputs": [
        {
          "internalType": "bool",
          "name": "",
          "type": "bool"
        }
      ],
      "stateMutability": "view",
      "type": "function"
    },
    {
      "inputs": [],
      "name": "paymentAddress",
      "outputs": [
        {
          "internalType": "address payable",
          "name": "",
          "type": "address"
        }
      ],
      "stateMutability": "view",
      "type": "function"
    },
    {
      "inputs": [
        {
          "internalType": "address",
          "name": "owner",
          "type": "address"
        },
        {
          "internalType": "address",
          "name": "newOwner",
          "type": "address"
        }
      ],
      "name": "replaceOwner",
      "outputs": [],
      "stateMutability": "nonpayable",
      "type": "function"
    },
    {
      "inputs": [],
      "name": "s_action",
      "outputs": [
        {
          "internalType": "address",
          "name": "owner",
          "type": "address"
        },
        {
          "internalType": "uint256",
          "name": "value",
          "type": "uint256"
        },
        {
          "internalType": "bytes32",
          "name": "data",
          "type": "bytes32"
        }
      ],
      "stateMutability": "view",
      "type": "function"
    },
    {
      "inputs": [
        {
          "internalType": "address payable",
          "name": "payto",
          "type": "address"
        }
      ],
      "name": "setPaymentAddress",
      "outputs": [],
      "stateMutability": "nonpayable",
      "type": "function"
    },
    {
      "inputs": [
        {
          "internalType": "bytes",
          "name": "data",
          "type": "bytes"
        }
      ],
      "name": "sig",
      "outputs": [
        {
          "internalType": "bytes4",
          "name": "",
          "type": "bytes4"
        }
      ],
      "stateMutability": "pure",
      "type": "function"
    },
    {
      "inputs": [
        {
          "internalType": "address",
          "name": "token",
          "type": "address"
        },
        {
          "internalType": "bool",
          "name": "safe",
          "type": "bool"
        }
      ],
      "name": "updateToken",
      "outputs": [],
      "stateMutability": "nonpayable",
      "type": "function"
    },
    {
      "inputs": [
        {
          "internalType": "address",
          "name": "token",
          "type": "address"
        }
      ],
      "name": "isTokenSafe",
      "outputs": [
        {
          "internalType": "bool",
          "name": "",
          "type": "bool"
        }
      ],
      "stateMutability": "view",
      "type": "function"
    },
    {
      "inputs": [
        {
          "internalType": "address",
          "name": "token",
          "type": "address"
        }
      ],
      "name": "is20Safe",
      "outputs": [
        {
          "internalType": "bool",
          "name": "",
          "type": "bool"
        }
      ],
      "stateMutability": "view",
      "type": "function"
    },
    {
      "inputs": [
        {
          "internalType": "address",
          "name": "token",
          "type": "address"
        }
      ],
      "name": "is721Safe",
      "outputs": [
        {
          "internalType": "bool",
          "name": "",
          "type": "bool"
        }
      ],
      "stateMutability": "view",
      "type": "function"
    },
    {
      "inputs": [],
      "name": "version",
      "outputs": [
        {
          "internalType": "bytes8",
          "name": "",
          "type": "bytes8"
        }
      ],
      "stateMutability": "pure",
      "type": "function"
    }
  ],
  "bytecode": "0x608060405234801561001057600080fd5b506040516110d03803806110d08339818101604052606081101561003357600080fd5b50805160208201516040909201519091908282826001600160a01b0383166100a2576040805162461bcd60e51b815260206004820152601c60248201527f4d756c74695369673a206f776e6572312063616e6e6f74206265203000000000604482015290519081900360640190fd5b6001600160a01b0382166100fd576040805162461bcd60e51b815260206004820152601c60248201527f4d756c74695369673a206f776e6572322063616e6e6f74206265203000000000604482015290519081900360640190fd5b6001600160a01b038116610158576040805162461bcd60e51b815260206004820152601c60248201527f4d756c74695369673a206f776e6572332063616e6e6f74206265203000000000604482015290519081900360640190fd5b816001600160a01b0316836001600160a01b031614156101a95760405162461bcd60e51b815260040180806020018281038252602181526020018061108e6021913960400191505060405180910390fd5b806001600160a01b0316826001600160a01b031614156101fa5760405162461bcd60e51b815260040180806020018281038252602181526020018061106d6021913960400191505060405180910390fd5b806001600160a01b0316836001600160a01b0316141561024b5760405162461bcd60e51b81526004018080602001828103825260218152602001806110af6021913960400191505060405180910390fd5b6001600160a01b039283166000908152602081905260408082208054600160ff199182168117909255948616835281832080548616821790559290941681529283208054909216179055610dc593508392506102a89150396000f3fe608060405234801561001057600080fd5b50600436106100cf5760003560e01c80635e1e10041161008c578063b3cbf39611610066578063b3cbf39614610282578063dfc075881461017d578063e20056e6146102c7578063ea8a1af0146102f557600080fd5b80635e1e10041461021a578063633423be146102425780638f32d59b1461026a57600080fd5b8063158ef93e146100d457806327dcc4ef146100f05780634f60c5221461017d57806354cad8a61461017d57806354fd4d50146101b35780635d2cf095146101d7575b600080fd5b6100dc6102fd565b604080519115158252519081900360200190f35b6101606004803603602081101561010657600080fd5b81019060208101813564010000000081111561012157600080fd5b82018360208201111561013357600080fd5b8035906020019184600183028401116401000000008311171561015557600080fd5b50909250905061031c565b604080516001600160e01b03199092168252519081900360200190f35b6100dc6004803603602081101561019357600080fd5b50356001600160a01b031660009081526006602052604090205460ff1690565b62302e3160e81b604080516001600160c01b03199092168252519081900360200190f35b6002546003546004546101f2926001600160a01b0316919083565b604080516001600160a01b039094168452602084019290925282820152519081900360600190f35b6102406004803603602081101561023057600080fd5b50356001600160a01b0316610410565b005b6005546001600160a01b0316604080516001600160a01b039092168252519081900360200190f35b3360009081526020819052604090205460ff166100dc565b6102406004803603604081101561029857600080fd5b5080356001600160a01b03166000908152600660209081526040909120805460ff191691909201351515179055565b610240600480360360408110156102dd57600080fd5b506001600160a01b03813581169160200135166106c9565b6102406108ed565b6005546000906001600160a01b03166103165750600090565b50600190565b6000600482101561032f5750600061040a565b60188383600381811061035257634e487b7160e01b600052603260045260246000fd5b909101356001600160f81b03191690911c905060108484600281811061038857634e487b7160e01b600052603260045260246000fd5b909101356001600160f81b03191690911c90506008858560018181106103be57634e487b7160e01b600052603260045260246000fd5b909101356001600160f81b03191690911c905085856000816103f057634e487b7160e01b600052603260045260246000fd5b9050013560f81c60f81b6001600160f81b03191617171790505b92915050565b3360009081526020819052604081205460ff16801561043a57506001546001600160a01b03163314155b6104755760405162461bcd60e51b8152600401808060200182810382526030815260200180610c6e6030913960400191505060405180910390fd5b600080366040518083838082843760405192018290039091206002549095506001600160a01b03161515935061051d9250505057600280546001600160a01b03191633179055600481905560038290556104d060003661031c565b604080518481526020810184905281516001600160e01b0319939093169233927feeb0bd41c2b0ff931f981a964047b0a1a26ab644f801be86da62c770313f724f928290030190a3505050565b6002546001600160a01b03163314156105675760405162461bcd60e51b8152600401808060200182810382526026815260200180610d6a6026913960400191505060405180910390fd5b60035482146105a75760405162461bcd60e51b8152600401808060200182810382526022815260200180610c9e6022913960400191505060405180910390fd5b60045481146105e75760405162461bcd60e51b8152600401808060200182810382526021815260200180610d276021913960400191505060405180910390fd5b600280546001600160a01b031916905561060260003661031c565b604080518481526020810184905281516001600160e01b0319939093169233927f0b5363f980745c7335c6e90cf3e542e8c9444d9fa5371ad688760cda3776539b928290030190a36001600160a01b0383166106a5576040805162461bcd60e51b815260206004820152601b60248201527f7061796d656e7420616464726573732063616e6e6f7420626520300000000000604482015290519081900360640190fd5b5050600580546001600160a01b0319166001600160a01b0392909216919091179055565b6001600160a01b038216610724576040805162461bcd60e51b815260206004820152601b60248201527f4d756c74695369673a206f776e65722063616e6e6f7420626520300000000000604482015290519081900360640190fd5b6001600160a01b03811661077f576040805162461bcd60e51b815260206004820152601f60248201527f4d756c74695369673a206e6577204f776e65722063616e6e6f74206265203000604482015290519081900360640190fd5b6001600160a01b03821660009081526020819052604090205460ff1615156001146107f1576040805162461bcd60e51b815260206004820152601a60248201527f4d756c74695369673a206f776e6572206d757374206578697374000000000000604482015290519081900360640190fd5b6001600160a01b0382163314156108395760405162461bcd60e51b815260040180806020018281038252602b815260200180610cfc602b913960400191505060405180910390fd5b6001600160a01b03811660009081526020819052604090205460ff16156108915760405162461bcd60e51b8152600401808060200182810382526022815260200180610d486022913960400191505060405180910390fd5b600180546001600160a01b0319166001600160a01b038481169182179092556040519183169133907f3f83b5e276aedb8b7501b6812a09510fd4f92e3db05921939f715fbb980c67f290600090a46108e982826109e4565b5050565b3360009081526020819052604090205460ff16610951576040805162461bcd60e51b815260206004820181905260248201527f4d756c74695369673a206f6e6c79206f776e6572732063616e2063616e63656c604482015290519081900360640190fd5b6001546001600160a01b031633141561099b5760405162461bcd60e51b815260040180806020018281038252603c815260200180610cc0603c913960400191505060405180910390fd5b600280546001600160a01b031990811690915560018054909116905560405133907f30ec0961b65153901ed6dc5cfe8d736772c29b94b3024a497d0b3198dcbd317d90600090a2565b3360009081526020819052604081205460ff168015610a0e57506001546001600160a01b03163314155b610a495760405162461bcd60e51b8152600401808060200182810382526030815260200180610c6e6030913960400191505060405180910390fd5b600080366040518083838082843760405192018290039091206002549095506001600160a01b031615159350610af29250505057600280546001600160a01b0319163317905560048190556003829055610aa460003661031c565b604080518481526020810184905281516001600160e01b0319939093169233927feeb0bd41c2b0ff931f981a964047b0a1a26ab644f801be86da62c770313f724f928290030190a350505050565b6002546001600160a01b0316331415610b3c5760405162461bcd60e51b8152600401808060200182810382526026815260200180610d6a6026913960400191505060405180910390fd5b6003548214610b7c5760405162461bcd60e51b8152600401808060200182810382526022815260200180610c9e6022913960400191505060405180910390fd5b6004548114610bbc5760405162461bcd60e51b8152600401808060200182810382526021815260200180610d276021913960400191505060405180910390fd5b600280546001600160a01b0319169055610bd760003661031c565b604080518481526020810184905281516001600160e01b0319939093169233927f0b5363f980745c7335c6e90cf3e542e8c9444d9fa5371ad688760cda3776539b928290030190a350506001600160a01b03918216600090815260208190526040808220805460ff19908116909155929093168152919091208054909116600190811790915580546001600160a01b031916905556fe4d756c74695369673a206f6e6c79206f776e657273207468617420617265206e6f74206265696e672072656d6f7665644d756c74695369673a206d757374207369676e207468652073616d652076616c75654d756c74695369673a206f6e6c79206f776e657273207468617420617265206e6f74206265696e67207265706c616365642063616e2063616e63656c4d756c74695369673a2073656e646572732063616e6e6f74207265706c616365207468656d73656c7665734d756c74695369673a206d757374207369676e207468652073616d6520646174614d756c74695369673a206e6577206f776e6572206d757374206e6f742065786973744d756c74695369673a2073616d65206f776e65722063616e6e6f74207369676e207477696365a2646970667358221220c6f9c0ae18e1afd5262c694408e49fb137324ffa7a0a5c136019cc7bd2a5617a64736f6c634300080400334d756c74695369673a206f776e6572322063616e6e6f74206265206f776e6572334d756c74695369673a206f776e6572312063616e6e6f74206265206f776e6572324d756c74695369673a206f776e6572312063616e6e6f74206265206f776e657233",
  "immutableReferences": {},
  "source": "// SPDX-License-Identifier: UNLICENSED\n\npragma solidity ^0.8.0;\npragma abicoder v1;\n\nimport \"../lib/OracleBase.sol\";\n\ncontract Oracle2 is OracleBase {\n    mapping(address => bool) private s_tokens;\n\n    constructor(\n        address owner1,\n        address owner2,\n        address owner3\n    ) MultiSig(owner1, owner2, owner3) {}\n\n    function updateToken(address token, bool safe) public {\n        s_tokens[token] = safe;\n    }\n\n    function isTokenSafe(address token) public view returns (bool) {\n        return s_tokens[token];\n    }\n\n    function is20Safe(address token) public view override returns (bool) {\n        return s_tokens[token];\n    }\n\n    function is721Safe(address token) public view override returns (bool) {\n        return s_tokens[token];\n    }\n\n    function version() external pure override returns (bytes8) {\n        return bytes8(\"0.1\");\n    }\n}\n",
  "sourcePath": "/Users/tal/code/kirobo/ki-eth-contracts/contracts/test/Oracle2.sol",
  "compiler": {
    "name": "solc",
    "version": "0.8.4+commit.c7e474f2.Emscripten.clang"
  },
  "schemaVersion": "3.3.4",
  "updatedAt": "2021-09-13T14:41:26.240Z",
  "devdoc": {
    "kind": "dev",
    "methods": {},
    "version": 1
  },
  "userdoc": {
    "kind": "user",
    "methods": {},
    "version": 1
  }
}