{
  "contractName": "Proxy",
  "abi": [
    {
      "stateMutability": "payable",
      "type": "fallback"
    },
    {
      "inputs": [],
      "name": "creator",
      "outputs": [
        {
          "internalType": "address",
          "name": "",
          "type": "address"
        }
      ],
      "stateMutability": "pure",
      "type": "function"
    },
    {
      "inputs": [
        {
          "internalType": "address",
          "name": "__owner",
          "type": "address"
        },
        {
          "internalType": "address",
          "name": "__target",
          "type": "address"
        }
      ],
      "name": "init",
      "outputs": [],
      "stateMutability": "nonpayable",
      "type": "function"
    },
    {
      "inputs": [],
      "name": "owner",
      "outputs": [
        {
          "internalType": "address",
          "name": "",
          "type": "address"
        }
      ],
      "stateMutability": "view",
      "type": "function"
    },
    {
      "inputs": [],
      "name": "target",
      "outputs": [
        {
          "internalType": "address",
          "name": "",
          "type": "address"
        }
      ],
      "stateMutability": "view",
      "type": "function"
    },
    {
      "inputs": [
        {
          "internalType": "bytes8",
          "name": "_version",
          "type": "bytes8"
        }
      ],
      "name": "upgrade",
      "outputs": [],
      "stateMutability": "nonpayable",
      "type": "function"
    }
  ],
  "bytecode": "0x608060405234801561001057600080fd5b50600080546001600160a01b031916331790556103f4806100326000396000f3fe60806040526004361061004a5760003560e01c806302d05d3f146100705780638da5cb5b146100a1578063d4b83992146100b6578063f09a4016146100cb578063fec5a18d14610108575b36600080376000803660006001545af43d6000803e801561006a573d6000f35b503d6000fd5b34801561007c57600080fd5b5061008561013c565b604080516001600160a01b039092168252519081900360200190f35b3480156100ad57600080fd5b50610085610141565b3480156100c257600080fd5b50610085610150565b3480156100d757600080fd5b50610106600480360360408110156100ee57600080fd5b506001600160a01b038135811691602001351661015f565b005b34801561011457600080fd5b506101066004803603602081101561012b57600080fd5b50356001600160c01b0319166102a0565b600090565b6000546001600160a01b031690565b6001546001600160a01b031690565b306001600160a01b03166302d05d3f6040518163ffffffff1660e01b815260040160206040518083038186803b15801561019857600080fd5b505afa1580156101ac573d6000803e3d6000fd5b505050506040513d60208110156101c257600080fd5b50516001600160a01b0316331461020e576040805162461bcd60e51b815260206004820152600b60248201526a3737ba1031b932b0ba37b960a91b604482015290519081900360640190fd5b6000546001600160a01b0383811691161480159061023457506001600160a01b03821615155b1561025557600080546001600160a01b0319166001600160a01b0384161790555b6001546001600160a01b0382811691161480159061027b57506001600160a01b03811615155b1561029c57600180546001600160a01b0319166001600160a01b0383161790555b5050565b6000546001600160a01b031633146102eb576040805162461bcd60e51b81526020600482015260096024820152683737ba1037bbb732b960b91b604482015290519081900360640190fd5b306001600160a01b03166302d05d3f6040518163ffffffff1660e01b815260040160206040518083038186803b15801561032457600080fd5b505afa158015610338573d6000803e3d6000fd5b505050506040513d602081101561034e57600080fd5b5051604080516318beb60960e31b81526001600160c01b03198416600482015290516001600160a01b039092169163c5f5b0489160248082019260009290919082900301818387803b1580156103a357600080fd5b505af11580156103b7573d6000803e3d6000fd5b505050505056fea2646970667358221220afdb2eff051ddf50ec00b1bddd91245c071f2e520e60979f223f0b66a759725d64736f6c634300060b0033",
  "source": "// SPDX-License-Identifier: UNLICENSED\n\npragma solidity 0.6.11;\n\nimport \"./StorageBase.sol\";\n\ncontract Proxy is StorageBase {\n\n   // receive () external payable {\n   //     if (msg.value > 0) {\n   //         emit GotEther(msg.sender, msg.value);\n   //     }\n   // }\n\n   fallback () external payable {\n        // solium-disable-next-line security/no-inline-assembly\n        assembly {\n                calldatacopy(0x00, 0x00, calldatasize())\n                let res := delegatecall(gas(), sload(_target_slot), 0x00, calldatasize(), 0, 0)\n                returndatacopy(0x00, 0x00, returndatasize())\n                if res { return(0x00, returndatasize()) }\n                revert(0x00, returndatasize())\n            }\n    }\n}\n\n",
  "sourcePath": "/home/tal/code/kirobo/ki-eth-contracts/contracts/lib/Proxy.sol",
  "compiler": {
    "name": "solc",
    "version": "0.6.11+commit.5ef660b1.Emscripten.clang"
  },
  "schemaVersion": "3.0.23",
  "updatedAt": "2020-07-26T12:19:35.402Z",
  "devdoc": {
    "kind": "dev",
    "methods": {},
    "version": 1
  },
  "userdoc": {
    "kind": "user",
    "methods": {},
    "version": 1
  }
}