{
  "contractName": "Proxy",
  "abi": [
    {
      "stateMutability": "payable",
      "type": "fallback"
    },
    {
      "inputs": [],
      "name": "creator",
      "outputs": [
        {
          "internalType": "address",
          "name": "",
          "type": "address"
        }
      ],
      "stateMutability": "pure",
      "type": "function"
    },
    {
      "inputs": [
        {
          "internalType": "address",
          "name": "newOwner",
          "type": "address"
        },
        {
          "internalType": "address",
          "name": "newTarget",
          "type": "address"
        }
      ],
      "name": "init",
      "outputs": [],
      "stateMutability": "nonpayable",
      "type": "function"
    },
    {
      "inputs": [],
      "name": "owner",
      "outputs": [
        {
          "internalType": "address",
          "name": "",
          "type": "address"
        }
      ],
      "stateMutability": "view",
      "type": "function"
    },
    {
      "inputs": [],
      "name": "target",
      "outputs": [
        {
          "internalType": "address",
          "name": "",
          "type": "address"
        }
      ],
      "stateMutability": "view",
      "type": "function"
    },
    {
      "inputs": [
        {
          "internalType": "bytes8",
          "name": "version",
          "type": "bytes8"
        }
      ],
      "name": "upgrade",
      "outputs": [],
      "stateMutability": "nonpayable",
      "type": "function"
    },
    {
      "stateMutability": "payable",
      "type": "receive"
    },
    {
      "inputs": [
        {
          "internalType": "address",
          "name": "target",
          "type": "address"
        },
        {
          "internalType": "uint256",
          "name": "value",
          "type": "uint256"
        },
        {
          "internalType": "bytes",
          "name": "data",
          "type": "bytes"
        },
        {
          "internalType": "bytes32",
          "name": "messageHash",
          "type": "bytes32"
        }
      ],
      "name": "LocalCall",
      "outputs": [],
      "stateMutability": "nonpayable",
      "type": "function"
    },
    {
      "inputs": [
        {
          "internalType": "address payable",
          "name": "to",
          "type": "address"
        },
        {
          "internalType": "uint256",
          "name": "value",
          "type": "uint256"
        },
        {
          "internalType": "bytes32",
          "name": "messageHash",
          "type": "bytes32"
        }
      ],
      "name": "transferEth",
      "outputs": [],
      "stateMutability": "nonpayable",
      "type": "function"
    },
    {
      "inputs": [
        {
          "internalType": "address",
          "name": "token",
          "type": "address"
        },
        {
          "internalType": "address payable",
          "name": "to",
          "type": "address"
        },
        {
          "internalType": "uint256",
          "name": "value",
          "type": "uint256"
        },
        {
          "internalType": "bytes32",
          "name": "messageHash",
          "type": "bytes32"
        }
      ],
      "name": "transferERC20",
      "outputs": [],
      "stateMutability": "nonpayable",
      "type": "function"
    },
    {
      "inputs": [
        {
          "internalType": "address",
          "name": "target",
          "type": "address"
        },
        {
          "internalType": "bytes",
          "name": "data",
          "type": "bytes"
        },
        {
          "internalType": "bytes32",
          "name": "messageHash",
          "type": "bytes32"
        }
      ],
      "name": "LocalStaticCall",
      "outputs": [],
      "stateMutability": "view",
      "type": "function"
    },
    {
      "inputs": [
        {
          "internalType": "bytes32",
          "name": "messageHash",
          "type": "bytes32"
        }
      ],
      "name": "isBlocked",
      "outputs": [
        {
          "internalType": "uint256",
          "name": "",
          "type": "uint256"
        }
      ],
      "stateMutability": "view",
      "type": "function"
    }
  ],
  "bytecode": "0x608060405234801561001057600080fd5b50600080546001600160a01b03191633179055610e83806100326000396000f3fe6080604052600436106100955760003560e01c8063d4b8399211610059578063d4b83992146102b7578063d5995c4a146102d5578063e3de58971461031e578063f09a401614610367578063fec5a18d146103a2576100e7565b806302d05d3f1461010d57806359c091a61461013957806363a3660c146101c85780638a1f6075146102075780638da5cb5b14610299576100e7565b366100e7576040805162461bcd60e51b815260206004820181905260248201527f73686f756c64206e6f7420616363657074206574686572206469726563746c79604482015290519081900360640190fd5b36600080376000803660006001545af43d6000803e8015610107573d6000f35b503d6000fd5b34801561011957600080fd5b5060005b604080516001600160a01b039092168252519081900360200190f35b34801561014557600080fd5b506101c66004803603606081101561015c57600080fd5b6001600160a01b03823516919081019060408101602082013564010000000081111561018757600080fd5b82018360208201111561019957600080fd5b803590602001918460018302840111640100000000831117156101bb57600080fd5b9193509150356103d6565b005b3480156101d457600080fd5b506101c6600480360360608110156101eb57600080fd5b506001600160a01b0381351690602081013590604001356105dc565b34801561021357600080fd5b506101c66004803603608081101561022a57600080fd5b6001600160a01b038235169160208101359181019060608101604082013564010000000081111561025a57600080fd5b82018360208201111561026c57600080fd5b8035906020019184600183028401116401000000008311171561028e57600080fd5b91935091503561074c565b3480156102a557600080fd5b506000546001600160a01b031661011d565b3480156102c357600080fd5b506001546001600160a01b031661011d565b3480156102e157600080fd5b506101c6600480360360808110156102f857600080fd5b506001600160a01b038135811691602081013590911690604081013590606001356108d2565b34801561032a57600080fd5b506103556004803603602081101561034157600080fd5b503560009081526002602052604090205490565b60408051918252519081900360200190f35b34801561037357600080fd5b506101c66004803603604081101561038a57600080fd5b506001600160a01b0381358116916020013516610ab4565b3480156103ae57600080fd5b506101c6600480360360208110156103c557600080fd5b50356001600160c01b031916610bf5565b306001600160a01b03166302d05d3f6040518163ffffffff1660e01b815260040160206040518083038186803b15801561040f57600080fd5b505afa158015610423573d6000803e3d6000fd5b505050506040513d602081101561043957600080fd5b50516001600160a01b03163314610485576040805162461bcd60e51b815260206004820152600b60248201526a3737ba1031b932b0ba37b960a91b604482015290519081900360640190fd5b80156104da57600081815260026020526040902054156104da576040805162461bcd60e51b815260206004820152601c6024820152600080516020610e2e833981519152604482015290519081900360640190fd5b600080856001600160a01b031685856040518083838082843760405192019450600093509091505080830381855afa9150503d8060008114610538576040519150601f19603f3d011682016040523d82523d6000602084013e61053d565b606091505b5091509150816105d45761055081610d0c565b60405162461bcd60e51b81526004018080602001828103825283818151815260200191508051906020019080838360005b83811015610599578181015183820152602001610581565b50505050905090810190601f1680156105c65780820380516001836020036101000a031916815260200191505b509250505060405180910390fd5b505050505050565b306001600160a01b03166302d05d3f6040518163ffffffff1660e01b815260040160206040518083038186803b15801561061557600080fd5b505afa158015610629573d6000803e3d6000fd5b505050506040513d602081101561063f57600080fd5b50516001600160a01b0316331461068b576040805162461bcd60e51b815260206004820152600b60248201526a3737ba1031b932b0ba37b960a91b604482015290519081900360640190fd5b80156106e057600081815260026020526040902054156106e0576040805162461bcd60e51b815260206004820152601c6024820152600080516020610e2e833981519152604482015290519081900360640190fd5b60405160009081906001600160a01b0386169085908381818185875af1925050503d806000811461072d576040519150601f19603f3d011682016040523d82523d6000602084013e610732565b606091505b5091509150816107455761055081610d0c565b5050505050565b306001600160a01b03166302d05d3f6040518163ffffffff1660e01b815260040160206040518083038186803b15801561078557600080fd5b505afa158015610799573d6000803e3d6000fd5b505050506040513d60208110156107af57600080fd5b50516001600160a01b031633146107fb576040805162461bcd60e51b815260206004820152600b60248201526a3737ba1031b932b0ba37b960a91b604482015290519081900360640190fd5b80156108505760008181526002602052604090205415610850576040805162461bcd60e51b815260206004820152601c6024820152600080516020610e2e833981519152604482015290519081900360640190fd5b600080866001600160a01b0316868686604051808383808284376040519201945060009350909150508083038185875af1925050503d80600081146108b1576040519150601f19603f3d011682016040523d82523d6000602084013e6108b6565b606091505b5091509150816108c95761055081610d0c565b50505050505050565b306001600160a01b03166302d05d3f6040518163ffffffff1660e01b815260040160206040518083038186803b15801561090b57600080fd5b505afa15801561091f573d6000803e3d6000fd5b505050506040513d602081101561093557600080fd5b50516001600160a01b03163314610981576040805162461bcd60e51b815260206004820152600b60248201526a3737ba1031b932b0ba37b960a91b604482015290519081900360640190fd5b80156109d657600081815260026020526040902054156109d6576040805162461bcd60e51b815260206004820152601c6024820152600080516020610e2e833981519152604482015290519081900360640190fd5b604080516001600160a01b038581166024830152604480830186905283518084039091018152606490920183526020820180516001600160e01b031663a9059cbb60e01b178152925182516000948594938a169392918291908083835b60208310610a525780518252601f199092019160209182019101610a33565b6001836020036101000a0380198251168184511680821785525050505050509050019150506000604051808303816000865af19150503d8060008114610538576040519150601f19603f3d011682016040523d82523d6000602084013e61053d565b306001600160a01b03166302d05d3f6040518163ffffffff1660e01b815260040160206040518083038186803b158015610aed57600080fd5b505afa158015610b01573d6000803e3d6000fd5b505050506040513d6020811015610b1757600080fd5b50516001600160a01b03163314610b63576040805162461bcd60e51b815260206004820152600b60248201526a3737ba1031b932b0ba37b960a91b604482015290519081900360640190fd5b6000546001600160a01b03838116911614801590610b8957506001600160a01b03821615155b15610baa57600080546001600160a01b0319166001600160a01b0384161790555b6001546001600160a01b03828116911614801590610bd057506001600160a01b03811615155b15610bf157600180546001600160a01b0319166001600160a01b0383161790555b5050565b6000546001600160a01b03163314610c40576040805162461bcd60e51b81526020600482015260096024820152683737ba1037bbb732b960b91b604482015290519081900360640190fd5b306001600160a01b03166302d05d3f6040518163ffffffff1660e01b815260040160206040518083038186803b158015610c7957600080fd5b505afa158015610c8d573d6000803e3d6000fd5b505050506040513d6020811015610ca357600080fd5b5051604080516318beb60960e31b81526001600160c01b03198416600482015290516001600160a01b039092169163c5f5b0489160248082019260009290919082900301818387803b158015610cf857600080fd5b505af1158015610745573d6000803e3d6000fd5b6060604482511015610d3757604051806060016040528060258152602001610e096025913992915050565b6004820180519092602401906020811015610d5157600080fd5b8101908080516040519392919084640100000000821115610d7157600080fd5b908301906020820185811115610d8657600080fd5b8251640100000000811182820188101715610da057600080fd5b82525081516020918201929091019080838360005b83811015610dcd578181015183820152602001610db5565b50505050905090810190601f168015610dfa5780820380516001836020036101000a031916815260200191505b50604052505050905091905056fe57616c6c65743a205472616e73616374696f6e2072657665727465642073696c656e746c7957616c6c65743a207472616e73616374696f6e2063616e63656c656400000000a2646970667358221220501a62d7a6b92ccf9e764f230200b339c1b11cfee59c68787e134fdd493de0c264736f6c63430008040033",
  "immutableReferences": {},
  "source": "// SPDX-License-Identifier: UNLICENSED\n\npragma solidity ^0.8.0;\npragma abicoder v1;\n\nimport \"./StorageBase.sol\";\nimport \"./Storage.sol\";\n\ncontract Proxy is StorageBase {\n    fallback() external payable {\n        assembly {\n            calldatacopy(0x00, 0x00, calldatasize())\n            let res := delegatecall(\n                gas(),\n                sload(s_target.slot),\n                0x00,\n                calldatasize(),\n                0,\n                0\n            )\n            returndatacopy(0x00, 0x00, returndatasize())\n            if res {\n                return(0x00, returndatasize())\n            }\n            revert(0x00, returndatasize())\n        }\n    }\n\n    receive() external payable {\n        revert(\"should not accept ether directly\");\n    }\n\n    function LocalCall(\n        address target,\n        uint256 value,\n        bytes calldata data,\n        bytes32 messageHash\n    ) external onlyCreator() {\n        if (messageHash != 0) {\n            require(\n                s_blocked[messageHash] == 0,\n                \"Wallet: transaction canceled\"\n            );\n        }\n        (bool success, bytes memory res) = target.call{value: value}(data);\n        if (!success) {\n            revert(_getRevertMsg(res));\n        }\n    }\n\n    function transferEth(\n        address payable to,\n        uint256 value,\n        bytes32 messageHash\n    ) external onlyCreator() {\n        if (messageHash != 0) {\n            require(\n                s_blocked[messageHash] == 0,\n                \"Wallet: transaction canceled\"\n            );\n        }\n        (bool success, bytes memory res) = to.call{value: value}(\n            \"\"\n        );\n        if (!success) {\n            revert(_getRevertMsg(res));\n        }\n    }\n\n    function transferERC20(\n        address token,\n        address payable to,\n        uint256 value,\n        bytes32 messageHash\n    ) external onlyCreator() {\n        if (messageHash != 0) {\n            require(\n                s_blocked[messageHash] == 0,\n                \"Wallet: transaction canceled\"\n            );\n        }\n        (bool success, bytes memory res) = token.call(\n            abi.encodeWithSignature(\"transfer(address,uint256)\", to, value)\n        );\n        if (!success) {\n            revert(_getRevertMsg(res));\n        }\n    }\n\n    function LocalStaticCall(\n        address target,\n        bytes calldata data,\n        bytes32 messageHash\n    ) external view onlyCreator() {\n        if (messageHash != 0) {\n            require(\n                s_blocked[messageHash] == 0,\n                \"Wallet: transaction canceled\"\n            );\n        }\n        (bool success, bytes memory res) = target.staticcall(data);\n        if (!success) {\n            revert(_getRevertMsg(res));\n        }\n    }\n\n    function isBlocked(bytes32 messageHash) external view returns (uint256) {\n        return s_blocked[messageHash];\n    }\n\n    function _getRevertMsg(bytes memory returnData)\n        internal\n        pure\n        returns (string memory)\n    {\n        if (returnData.length < 68)\n            return \"Wallet: Transaction reverted silently\";\n\n        assembly {\n            returnData := add(returnData, 0x04)\n        }\n        return abi.decode(returnData, (string));\n    }\n}\n",
  "sourcePath": "/Users/orishalom/repositories/ki-eth-contracts/contracts/lib/Proxy.sol",
  "compiler": {
    "name": "solc",
    "version": "0.8.4+commit.c7e474f2.Emscripten.clang"
  },
  "schemaVersion": "3.3.4",
  "updatedAt": "2021-09-29T07:56:03.896Z",
  "devdoc": {
    "kind": "dev",
    "methods": {},
    "version": 1
  },
  "userdoc": {
    "kind": "user",
    "methods": {},
    "version": 1
  }
}