{
  "contractName": "Proxy",
  "abi": [
    {
      "stateMutability": "payable",
      "type": "fallback"
    },
    {
      "inputs": [],
      "name": "creator",
      "outputs": [
        {
          "internalType": "address",
          "name": "",
          "type": "address"
        }
      ],
      "stateMutability": "pure",
      "type": "function"
    },
    {
      "inputs": [
        {
          "internalType": "address",
          "name": "newOwner",
          "type": "address"
        },
        {
          "internalType": "address",
          "name": "newTarget",
          "type": "address"
        }
      ],
      "name": "init",
      "outputs": [],
      "stateMutability": "nonpayable",
      "type": "function"
    },
    {
      "inputs": [],
      "name": "owner",
      "outputs": [
        {
          "internalType": "address",
          "name": "",
          "type": "address"
        }
      ],
      "stateMutability": "view",
      "type": "function"
    },
    {
      "inputs": [],
      "name": "target",
      "outputs": [
        {
          "internalType": "address",
          "name": "",
          "type": "address"
        }
      ],
      "stateMutability": "view",
      "type": "function"
    },
    {
      "inputs": [
        {
          "internalType": "bytes8",
          "name": "version",
          "type": "bytes8"
        }
      ],
      "name": "upgrade",
      "outputs": [],
      "stateMutability": "nonpayable",
      "type": "function"
    },
    {
      "stateMutability": "payable",
      "type": "receive"
    },
    {
      "inputs": [
        {
          "internalType": "address",
          "name": "target",
          "type": "address"
        },
        {
          "internalType": "uint256",
          "name": "value",
          "type": "uint256"
        },
        {
          "internalType": "bytes",
          "name": "data",
          "type": "bytes"
        }
      ],
      "name": "call",
      "outputs": [],
      "stateMutability": "nonpayable",
      "type": "function"
    },
    {
      "inputs": [
        {
          "internalType": "address",
          "name": "target",
          "type": "address"
        },
        {
          "internalType": "bytes",
          "name": "data",
          "type": "bytes"
        }
      ],
      "name": "staticcall",
      "outputs": [],
      "stateMutability": "view",
      "type": "function"
    },
    {
      "inputs": [
        {
          "internalType": "address payable",
          "name": "to",
          "type": "address"
        },
        {
          "internalType": "uint256",
          "name": "value",
          "type": "uint256"
        }
      ],
      "name": "transferEth",
      "outputs": [],
      "stateMutability": "nonpayable",
      "type": "function"
    },
    {
      "inputs": [
        {
          "internalType": "address",
          "name": "token",
          "type": "address"
        },
        {
          "internalType": "address payable",
          "name": "to",
          "type": "address"
        },
        {
          "internalType": "uint256",
          "name": "value",
          "type": "uint256"
        }
      ],
      "name": "transferERC20",
      "outputs": [],
      "stateMutability": "nonpayable",
      "type": "function"
    }
  ],
  "bytecode": "0x608060405234801561001057600080fd5b50600080546001600160a01b03191633179055610d74806100326000396000f3fe60806040526004361061009a5760003560e01c80639db5dbe411610069578063e9bb84c21161004e578063e9bb84c2146102de578063f09a401614610317578063fec5a18d14610352576100ec565b80639db5dbe41461027d578063d4b83992146102c0576100ec565b806302d05d3f14610112578063260558a01461013e5780636dbf2fa0146101cd5780638da5cb5b1461025f576100ec565b366100ec576040805162461bcd60e51b815260206004820181905260248201527f73686f756c64206e6f7420616363657074206574686572206469726563746c79604482015290519081900360640190fd5b36600080376000803660006001545af43d6000803e801561010c573d6000f35b503d6000fd5b34801561011e57600080fd5b5060005b604080516001600160a01b039092168252519081900360200190f35b34801561014a57600080fd5b506101cb6004803603604081101561016157600080fd5b6001600160a01b03823516919081019060408101602082013564010000000081111561018c57600080fd5b82018360208201111561019e57600080fd5b803590602001918460018302840111640100000000831117156101c057600080fd5b50909250905061039e565b005b3480156101d957600080fd5b506101cb600480360360608110156101f057600080fd5b6001600160a01b038235169160208101359181019060608101604082013564010000000081111561022057600080fd5b82018360208201111561023257600080fd5b8035906020019184600183028401116401000000008311171561025457600080fd5b50909250905061054e565b34801561026b57600080fd5b506000546001600160a01b0316610122565b34801561028957600080fd5b506101cb600480360360608110156102a057600080fd5b506001600160a01b0381358116916020810135909116906040013561067e565b3480156102cc57600080fd5b506001546001600160a01b0316610122565b3480156102ea57600080fd5b506101cb6004803603604081101561030157600080fd5b506001600160a01b038135169060200135610840565b34801561032357600080fd5b506101cb6004803603604081101561033a57600080fd5b506001600160a01b038135811691602001351661095f565b34801561035e57600080fd5b506101cb6004803603602081101561037557600080fd5b50357fffffffffffffffff00000000000000000000000000000000000000000000000016610abf565b306001600160a01b03166302d05d3f6040518163ffffffff1660e01b815260040160206040518083038186803b1580156103d757600080fd5b505afa1580156103eb573d6000803e3d6000fd5b505050506040513d602081101561040157600080fd5b50516001600160a01b0316331461044d576040805162461bcd60e51b815260206004820152600b60248201526a3737ba1031b932b0ba37b960a91b604482015290519081900360640190fd5b600080846001600160a01b031684846040518083838082843760405192019450600093509091505080830381855afa9150503d80600081146104ab576040519150601f19603f3d011682016040523d82523d6000602084013e6104b0565b606091505b509150915081610547576104c381610c1b565b60405162461bcd60e51b81526004018080602001828103825283818151815260200191508051906020019080838360005b8381101561050c5781810151838201526020016104f4565b50505050905090810190601f1680156105395780820380516001836020036101000a031916815260200191505b509250505060405180910390fd5b5050505050565b306001600160a01b03166302d05d3f6040518163ffffffff1660e01b815260040160206040518083038186803b15801561058757600080fd5b505afa15801561059b573d6000803e3d6000fd5b505050506040513d60208110156105b157600080fd5b50516001600160a01b031633146105fd576040805162461bcd60e51b815260206004820152600b60248201526a3737ba1031b932b0ba37b960a91b604482015290519081900360640190fd5b600080856001600160a01b0316858585604051808383808284376040519201945060009350909150508083038185875af1925050503d806000811461065e576040519150601f19603f3d011682016040523d82523d6000602084013e610663565b606091505b509150915081610676576104c381610c1b565b505050505050565b306001600160a01b03166302d05d3f6040518163ffffffff1660e01b815260040160206040518083038186803b1580156106b757600080fd5b505afa1580156106cb573d6000803e3d6000fd5b505050506040513d60208110156106e157600080fd5b50516001600160a01b0316331461072d576040805162461bcd60e51b815260206004820152600b60248201526a3737ba1031b932b0ba37b960a91b604482015290519081900360640190fd5b604080516001600160a01b038481166024830152604480830185905283518084039091018152606490920183526020820180517bffffffffffffffffffffffffffffffffffffffffffffffffffffffff167fa9059cbb000000000000000000000000000000000000000000000000000000001781529251825160009485949389169362013880939092909182918083835b602083106107dd5780518252601f1990920191602091820191016107be565b6001836020036101000a03801982511681845116808217855250505050505090500191505060006040518083038160008787f1925050503d80600081146104ab576040519150601f19603f3d011682016040523d82523d6000602084013e6104b0565b306001600160a01b03166302d05d3f6040518163ffffffff1660e01b815260040160206040518083038186803b15801561087957600080fd5b505afa15801561088d573d6000803e3d6000fd5b505050506040513d60208110156108a357600080fd5b50516001600160a01b031633146108ef576040805162461bcd60e51b815260206004820152600b60248201526a3737ba1031b932b0ba37b960a91b604482015290519081900360640190fd5b60405160009081906001600160a01b03851690614e2090859084818181858888f193505050503d8060008114610941576040519150601f19603f3d011682016040523d82523d6000602084013e610946565b606091505b509150915081610959576104c381610c1b565b50505050565b306001600160a01b03166302d05d3f6040518163ffffffff1660e01b815260040160206040518083038186803b15801561099857600080fd5b505afa1580156109ac573d6000803e3d6000fd5b505050506040513d60208110156109c257600080fd5b50516001600160a01b03163314610a0e576040805162461bcd60e51b815260206004820152600b60248201526a3737ba1031b932b0ba37b960a91b604482015290519081900360640190fd5b6000546001600160a01b03838116911614801590610a3457506001600160a01b03821615155b15610a62576000805473ffffffffffffffffffffffffffffffffffffffff19166001600160a01b0384161790555b6001546001600160a01b03828116911614801590610a8857506001600160a01b03811615155b15610ab6576001805473ffffffffffffffffffffffffffffffffffffffff19166001600160a01b0383161790555b50506001600255565b6000546001600160a01b03163314610b1e576040805162461bcd60e51b815260206004820152600960248201527f6e6f74206f776e65720000000000000000000000000000000000000000000000604482015290519081900360640190fd5b306001600160a01b03166302d05d3f6040518163ffffffff1660e01b815260040160206040518083038186803b158015610b5757600080fd5b505afa158015610b6b573d6000803e3d6000fd5b505050506040513d6020811015610b8157600080fd5b5051604080517fc5f5b0480000000000000000000000000000000000000000000000000000000081527fffffffffffffffff0000000000000000000000000000000000000000000000008416600482015290516001600160a01b039092169163c5f5b0489160248082019260009290919082900301818387803b158015610c0757600080fd5b505af1158015610547573d6000803e3d6000fd5b6060604482511015610c4757604051806060016040528060258152602001610d1a602591399050610d14565b6004820180519092602401906020811015610c6157600080fd5b8101908080516040519392919084640100000000821115610c8157600080fd5b908301906020820185811115610c9657600080fd5b8251640100000000811182820188101715610cb057600080fd5b82525081516020918201929091019080838360005b83811015610cdd578181015183820152602001610cc5565b50505050905090810190601f168015610d0a5780820380516001836020036101000a031916815260200191505b5060405250505090505b91905056fe57616c6c65743a205472616e73616374696f6e2072657665727465642073696c656e746c79a2646970667358221220bce7831b4e6f20bf4257386d47df8fe7dc5eb720a91e79abbdf475899b0167cd64736f6c63430008020033",
  "immutableReferences": {},
  "source": "// SPDX-License-Identifier: UNLICENSED\n\npragma solidity ^0.8.0;\npragma abicoder v1;\n\nimport \"./StorageBase.sol\";\n\ncontract Proxy is StorageBase {\n    receive() external payable {\n        revert(\"should not accept ether directly\");\n    }\n\n    function call(address target, uint256 value, /*uint256 gas,*/ bytes calldata data) public onlyCreator() {\n    //     target.call{value: value}(data);\n    //     target.call{value: value}(data);\n    //     target.call{value: value}(data);\n    //     target.call{value: value}(data);\n    //     target.call{value: value}(data);\n    //     target.call{value: value}(data);\n    //     target.call{value: value}(data);\n    //     target.call{value: value}(data);\n    //     target.call{value: value}(data);\n      (bool success, bytes memory res) = \n        target.call{value: value}(data);\n      if (!success) {\n        revert(_getRevertMsg(res));\n      }\n    }\n\n    function staticcall(address target, /* uint256 value, uint256 gas,*/ bytes calldata data) public view onlyCreator() {\n      (bool success, bytes memory res) = \n        target.staticcall(data);\n      if (!success) {\n        revert(_getRevertMsg(res));\n      }\n    }\n\n    function transferEth(address payable to, uint256 value)\n        public\n        onlyCreator()\n    {\n        (bool success, bytes memory res) = \n            to.call{gas: 20000, value: value}(\"\");\n        if (!success) {\n            revert(_getRevertMsg(res));\n        }\n    }\n\n    function transferERC20(address token, address payable to, uint256 value)\n        external\n        onlyCreator()\n    {\n        (bool success, bytes memory res) = \n            token.call{gas: 80000}(abi.encodeWithSignature(\"transfer(address,uint256)\", to, value));\n        if (!success) {\n            revert(_getRevertMsg(res));\n        }\n    }\n\n    function _getRevertMsg(bytes memory returnData)\n        internal\n        pure\n        returns (string memory)\n    {\n        if (returnData.length < 68)\n            return \"Wallet: Transaction reverted silently\";\n\n        assembly {\n            returnData := add(returnData, 0x04)\n        }\n        return abi.decode(returnData, (string));\n    }\n\n    fallback() external payable {\n        // solium-disable-next-line security/no-inline-assembly\n        assembly {\n            calldatacopy(0x00, 0x00, calldatasize())\n            let res := delegatecall(\n                gas(),\n                sload(s_target.slot),\n                0x00,\n                calldatasize(),\n                0,\n                0\n            )\n            returndatacopy(0x00, 0x00, returndatasize())\n            if res {\n                return(0x00, returndatasize())\n            }\n            revert(0x00, returndatasize())\n        }\n    }\n}\n",
  "sourcePath": "/opt/storage/data1/code/kirobo/ki-eth-contracts/contracts/lib/Proxy.sol",
  "compiler": {
    "name": "solc",
    "version": "0.8.2+commit.661d1103.Emscripten.clang"
  },
  "schemaVersion": "3.3.4",
  "updatedAt": "2021-05-02T20:37:08.127Z",
  "devdoc": {
    "kind": "dev",
    "methods": {},
    "version": 1
  },
  "userdoc": {
    "kind": "user",
    "methods": {},
    "version": 1
  }
}