{
  "contractName": "Root",
  "abi": [
    {
      "inputs": [
        {
          "internalType": "uint256",
          "name": "_a",
          "type": "uint256"
        },
        {
          "internalType": "uint256",
          "name": "_n",
          "type": "uint256"
        },
        {
          "internalType": "uint256",
          "name": "_dp",
          "type": "uint256"
        },
        {
          "internalType": "uint256",
          "name": "_maxIts",
          "type": "uint256"
        }
      ],
      "name": "nthRoot",
      "outputs": [
        {
          "internalType": "uint256",
          "name": "",
          "type": "uint256"
        }
      ],
      "stateMutability": "pure",
      "type": "function"
    }
  ],
  "bytecode": "0x608060405234801561001057600080fd5b50610391806100206000396000f3fe608060405234801561001057600080fd5b506004361061002b5760003560e01c80636469cfac14610030575b600080fd5b61005f6004803603608081101561004657600080fd5b5080359060208101359060408101359060600135610071565b60408051918252519081900360200190f35b60006001841161009157634e487b7160e01b600052600160045260246000fd5b600061009e84600161019c565b6100a990600a61021a565b90506000866100b8878461021a565b6100c291906102f4565b9050816000805b8083141580156100d857508682105b1561017757508160006100ec60018b610313565b6100f6908361021a565b90508461010382846102f4565b1115610139578961011482876101b4565b61011e9084610313565b61012891906101b4565b6101329083610313565b9350610166565b898261014583886101b4565b61014f9190610313565b61015991906101b4565b610163908361019c565b93505b61016f8361032a565b9250506100c9565b600a61018484600561019c565b61018e91906101b4565b9a9950505050505050505050565b600082198211156101af576101af610345565b500190565b6000826101cf57634e487b7160e01b81526012600452602481fd5b500490565b80825b60018086116101e65750610211565b8187048211156101f8576101f8610345565b8086161561020557918102915b9490941c9380026101d7565b94509492505050565b60006102296000198484610230565b9392505050565b60008261023f57506001610229565b8161024c57506000610229565b8160018114610262576002811461026c57610299565b6001915050610229565b60ff84111561027d5761027d610345565b6001841b91508482111561029357610293610345565b50610229565b5060208310610133831016604e8410600b84101617156102cc575081810a838111156102c7576102c7610345565b610229565b6102d984848460016101d4565b8086048211156102eb576102eb610345565b02949350505050565b600081600019048311821515161561030e5761030e610345565b500290565b60008282101561032557610325610345565b500390565b600060001982141561033e5761033e610345565b5060010190565b634e487b7160e01b600052601160045260246000fdfea264697066735822122014e13cbaed15d1eb4af97ff271c9441bf1b481b87783e9ba261d364b5f907fd564736f6c63430008020033",
  "immutableReferences": {},
  "source": "// SPDX-License-Identifier: UNLICENSED\n\npragma solidity ^0.8.0;\npragma abicoder v1;\n\ncontract Root {\n    // calculates a^(1/n) to dp decimal places\n    // maxIts bounds the number of iterations performed\n    function nthRoot(\n        uint256 _a,\n        uint256 _n,\n        uint256 _dp,\n        uint256 _maxIts\n    ) public pure returns (uint256) {\n        assert(_n > 1);\n\n        // The scale factor is a crude way to turn everything into integer calcs.\n        // Actually do (a * (10 ^ ((dp + 1) * n))) ^ (1/n)\n        // We calculate to one extra dp and round at the end\n        uint256 one = 10**(1 + _dp);\n        uint256 a0 = one**_n * _a;\n\n        // Initial guess: 1.0\n        uint256 xNew = one;\n\n        uint256 iter = 0;\n        uint256 x = 0;\n        while (xNew != x && iter < _maxIts) {\n            x = xNew;\n            uint256 t0 = x**(_n - 1);\n            if (x * t0 > a0) {\n                xNew = x - (x - a0 / t0) / _n;\n            } else {\n                xNew = x + (a0 / t0 - x) / _n;\n            }\n            ++iter;\n        }\n\n        // Round to nearest in the last dp.\n        return (xNew + 5) / 10;\n    }\n}\n",
  "sourcePath": "/opt/storage/data1/code/kirobo/ki-eth-contracts/contracts/lib/Root.sol",
  "compiler": {
    "name": "solc",
    "version": "0.8.2+commit.661d1103.Emscripten.clang"
  },
  "schemaVersion": "3.3.4",
  "updatedAt": "2021-09-29T12:43:32.227Z",
  "networkType": "ethereum",
  "devdoc": {
    "kind": "dev",
    "methods": {},
    "version": 1
  },
  "userdoc": {
    "kind": "user",
    "methods": {},
    "version": 1
  }
}