{
  "contractName": "Root",
  "abi": [
    {
      "inputs": [
        {
          "internalType": "uint256",
          "name": "_a",
          "type": "uint256"
        },
        {
          "internalType": "uint256",
          "name": "_n",
          "type": "uint256"
        },
        {
          "internalType": "uint256",
          "name": "_dp",
          "type": "uint256"
        },
        {
          "internalType": "uint256",
          "name": "_maxIts",
          "type": "uint256"
        }
      ],
      "name": "nthRoot",
      "outputs": [
        {
          "internalType": "uint256",
          "name": "",
          "type": "uint256"
        }
      ],
      "stateMutability": "pure",
      "type": "function"
    }
  ],
  "bytecode": "0x608060405234801561001057600080fd5b50610134806100206000396000f3fe6080604052348015600f57600080fd5b506004361060285760003560e01c80636469cfac14602d575b600080fd5b605960048036036080811015604157600080fd5b5080359060208101359060408101359060600135606b565b60408051918252519081900360200190f35b600060018411607657fe5b60018301600a0a84810a8602816000805b808314158015609557508682105b1560e95750816000198901810a80820285101560c6578981868160b457fe5b0483038160bd57fe5b048203935060de565b898282878160d057fe5b04038160d857fe5b04820193505b826001019250506087565b600a60058401049a995050505050505050505056fea26469706673582212202d90fe09cf268299e43cbca414edacd80d4b5ee6ba9c0d78db2a44aee2f978ac64736f6c634300060b0033",
  "source": "// SPDX-License-Identifier: UNLICENSED\n\npragma solidity 0.6.11;\n\ncontract Root {\n\n    // calculates a^(1/n) to dp decimal places\n    // maxIts bounds the number of iterations performed\n    function nthRoot(uint _a, uint _n, uint _dp, uint _maxIts) pure public returns(uint) {\n        assert (_n > 1);\n\n        // The scale factor is a crude way to turn everything into integer calcs.\n        // Actually do (a * (10 ^ ((dp + 1) * n))) ^ (1/n)\n        // We calculate to one extra dp and round at the end\n        uint one = 10 ** (1 + _dp);\n        uint a0 = one ** _n * _a;\n\n        // Initial guess: 1.0\n        uint xNew = one;\n\n        uint iter = 0;\n        uint x = 0;\n        while (xNew != x && iter < _maxIts) {\n            x = xNew;\n            uint t0 = x ** (_n - 1);\n            if (x * t0 > a0) {\n                xNew = x - (x - a0 / t0) / _n;\n            } else {\n                xNew = x + (a0 / t0 - x) / _n;\n            }\n            ++iter;\n        }\n\n        // Round to nearest in the last dp.\n        return (xNew + 5) / 10;\n    }\n}\n\n\n",
  "sourcePath": "/home/tal/code/kirobo/ki-eth-contracts/contracts/lib/Root.sol",
  "compiler": {
    "name": "solc",
    "version": "0.6.11+commit.5ef660b1.Emscripten.clang"
  },
  "schemaVersion": "3.0.23",
  "updatedAt": "2020-07-23T16:58:56.335Z",
  "networkType": "ethereum",
  "devdoc": {
    "kind": "dev",
    "methods": {},
    "version": 1
  },
  "userdoc": {
    "kind": "user",
    "methods": {},
    "version": 1
  }
}