{
  "contractName": "Sanity",
  "abi": [
    {
      "inputs": [],
      "stateMutability": "nonpayable",
      "type": "constructor"
    },
    {
      "anonymous": false,
      "inputs": [
        {
          "indexed": false,
          "internalType": "address",
          "name": "by",
          "type": "address"
        },
        {
          "indexed": false,
          "internalType": "string",
          "name": "to",
          "type": "string"
        }
      ],
      "name": "NameChanged",
      "type": "event"
    },
    {
      "anonymous": false,
      "inputs": [
        {
          "indexed": false,
          "internalType": "uint256",
          "name": "value",
          "type": "uint256"
        }
      ],
      "name": "ValueChanged",
      "type": "event"
    },
    {
      "inputs": [],
      "name": "s_name",
      "outputs": [
        {
          "internalType": "string",
          "name": "",
          "type": "string"
        }
      ],
      "stateMutability": "view",
      "type": "function"
    },
    {
      "inputs": [],
      "name": "s_owner",
      "outputs": [
        {
          "internalType": "address",
          "name": "",
          "type": "address"
        }
      ],
      "stateMutability": "view",
      "type": "function"
    },
    {
      "inputs": [],
      "name": "getValue",
      "outputs": [
        {
          "internalType": "uint256",
          "name": "",
          "type": "uint256"
        }
      ],
      "stateMutability": "view",
      "type": "function"
    },
    {
      "inputs": [
        {
          "internalType": "uint256",
          "name": "value",
          "type": "uint256"
        }
      ],
      "name": "setValue",
      "outputs": [],
      "stateMutability": "nonpayable",
      "type": "function"
    },
    {
      "inputs": [
        {
          "internalType": "string",
          "name": "name",
          "type": "string"
        }
      ],
      "name": "setName",
      "outputs": [],
      "stateMutability": "nonpayable",
      "type": "function"
    },
    {
      "inputs": [],
      "name": "cancel",
      "outputs": [],
      "stateMutability": "nonpayable",
      "type": "function"
    }
  ],
  "bytecode": "0x608060405234801561001057600080fd5b50604080518082019091526006808252654b69726f626f60d01b602090920191825261003e9160009161005b565b50600280546001600160a01b03191633179055606460015561012f565b828054610067906100f4565b90600052602060002090601f01602090048101928261008957600085556100cf565b82601f106100a257805160ff19168380011785556100cf565b828001600101855582156100cf579182015b828111156100cf5782518255916020019190600101906100b4565b506100db9291506100df565b5090565b5b808211156100db57600081556001016100e0565b60028104600182168061010857607f821691505b6020821081141561012957634e487b7160e01b600052602260045260246000fd5b50919050565b6105238061013e6000396000f3fe608060405234801561001057600080fd5b50600436106100725760003560e01c8063c47f002711610050578063c47f002714610128578063e3978240146101ce578063ea8a1af01461021757610072565b80632096525514610077578063552410771461008c578063bba1964f146100ab575b600080fd5b60015460408051918252519081900360200190f35b6100a9600480360360208110156100a257600080fd5b503561021f565b005b6100b361027e565b6040805160208082528351818301528351919283929083019185019080838360005b838110156100ed5781810151838201526020016100d5565b50505050905090810190601f16801561011a5780820380516001836020036101000a031916815260200191505b509250505060405180910390f35b6100a96004803603602081101561013e57600080fd5b81019060208101813564010000000081111561015957600080fd5b82018360208201111561016b57600080fd5b8035906020019184600183028401116401000000008311171561018d57600080fd5b91908080601f01602080910402602001604051908101604052809392919081815260200183838082843760009201919091525092955061030c945050505050565b6002546101ee9073ffffffffffffffffffffffffffffffffffffffff1681565b6040805173ffffffffffffffffffffffffffffffffffffffff9092168252519081900360200190f35b6100a96103da565b60025473ffffffffffffffffffffffffffffffffffffffff16331461024357600080fd5b60018190556040805182815290517f93fe6d397c74fdf1402a8b72e47b68512f0510d7b98a4bc4cbdf6ac7108b3c599181900360200190a150565b6000805461028b9061048b565b80601f01602080910402602001604051908101604052809291908181526020018280546102b79061048b565b80156103045780601f106102d957610100808354040283529160200191610304565b820191906000526020600020905b8154815290600101906020018083116102e757829003601f168201915b505050505081565b805161031f9060009060208401906103f2565b507f3b0a43ccc1ccd1c76ebb1a8d998fdfe1ded3766582dbbbcdda83889170bec53d3382604051808373ffffffffffffffffffffffffffffffffffffffff16815260200180602001828103825283818151815260200191508051906020019080838360005b8381101561039c578181015183820152602001610384565b50505050905090810190601f1680156103c95780820380516001836020036101000a031916815260200191505b50935050505060405180910390a150565b6003600081546103e9906104c6565b90915550600080fd5b8280546103fe9061048b565b90600052602060002090601f0160209004810192826104205760008555610466565b82601f1061043957805160ff1916838001178555610466565b82800160010185558215610466579182015b8281111561046657825182559160200191906001019061044b565b50610472929150610476565b5090565b5b808211156104725760008155600101610477565b60028104600182168061049f57607f821691505b602082108114156104c057634e487b7160e01b600052602260045260246000fd5b50919050565b60006000198214156104e657634e487b7160e01b81526011600452602481fd5b506001019056fea2646970667358221220053df3cf61ca6254d6c9ffe36685390190fcf402d7f42f6735131642df6a1dd264736f6c63430008020033",
  "immutableReferences": {},
  "source": "// SPDX-License-Identifier: UNLICENSED\n\npragma solidity ^0.8.0;\npragma abicoder v1;\n\ncontract Sanity {\n    string public s_name;\n    uint256 private s_value;\n    address public s_owner;\n    uint256 private s_cancelCount;\n\n    modifier ownerOnly {\n        if (msg.sender != s_owner) {\n            revert();\n        }\n        _;\n    }\n\n    event NameChanged(address by, string to);\n    event ValueChanged(uint256 value);\n\n    constructor() {\n        s_name = \"Kirobo\";\n        s_owner = msg.sender;\n        s_value = 100;\n    }\n\n    function getValue() public view returns (uint256) {\n        return s_value;\n    }\n\n    function setValue(uint256 value) public ownerOnly {\n        s_value = value;\n        emit ValueChanged(value);\n    }\n\n    function setName(string memory name) public {\n        s_name = name;\n        emit NameChanged(msg.sender, name);\n    }\n\n    function cancel() public {\n        ++s_cancelCount;\n        revert();\n    }\n}\n",
  "sourcePath": "/opt/storage/data1/code/kirobo/ki-eth-contracts/contracts/test/Sanity.sol",
  "compiler": {
    "name": "solc",
    "version": "0.8.2+commit.661d1103.Emscripten.clang"
  },
  "schemaVersion": "3.3.4",
  "updatedAt": "2021-05-02T20:37:10.479Z",
  "networkType": "ethereum",
  "devdoc": {
    "kind": "dev",
    "methods": {},
    "version": 1
  },
  "userdoc": {
    "kind": "user",
    "methods": {},
    "version": 1
  }
}