{
  "contractName": "Sanity",
  "abi": [
    {
      "inputs": [],
      "stateMutability": "nonpayable",
      "type": "constructor"
    },
    {
      "anonymous": false,
      "inputs": [
        {
          "indexed": false,
          "internalType": "address",
          "name": "by",
          "type": "address"
        },
        {
          "indexed": false,
          "internalType": "string",
          "name": "to",
          "type": "string"
        }
      ],
      "name": "NameChanged",
      "type": "event"
    },
    {
      "anonymous": false,
      "inputs": [
        {
          "indexed": false,
          "internalType": "uint256",
          "name": "value",
          "type": "uint256"
        }
      ],
      "name": "ValueChanged",
      "type": "event"
    },
    {
      "inputs": [],
      "name": "name",
      "outputs": [
        {
          "internalType": "string",
          "name": "",
          "type": "string"
        }
      ],
      "stateMutability": "view",
      "type": "function"
    },
    {
      "inputs": [],
      "name": "owner",
      "outputs": [
        {
          "internalType": "address",
          "name": "",
          "type": "address"
        }
      ],
      "stateMutability": "view",
      "type": "function"
    },
    {
      "inputs": [],
      "name": "getValue",
      "outputs": [
        {
          "internalType": "uint256",
          "name": "",
          "type": "uint256"
        }
      ],
      "stateMutability": "view",
      "type": "function"
    },
    {
      "inputs": [
        {
          "internalType": "uint256",
          "name": "_value",
          "type": "uint256"
        }
      ],
      "name": "setValue",
      "outputs": [],
      "stateMutability": "nonpayable",
      "type": "function"
    },
    {
      "inputs": [
        {
          "internalType": "string",
          "name": "_name",
          "type": "string"
        }
      ],
      "name": "setName",
      "outputs": [],
      "stateMutability": "nonpayable",
      "type": "function"
    },
    {
      "inputs": [],
      "name": "cancel",
      "outputs": [],
      "stateMutability": "nonpayable",
      "type": "function"
    }
  ],
  "bytecode": "0x608060405234801561001057600080fd5b50604080518082019091526006808252654b69726f626f60d01b602090920191825261003e9160009161005b565b50600280546001600160a01b03191633179055606460015561012f565b828054610067906100f4565b90600052602060002090601f01602090048101928261008957600085556100cf565b82601f106100a257805160ff19168380011785556100cf565b828001600101855582156100cf579182015b828111156100cf5782518255916020019190600101906100b4565b506100db9291506100df565b5090565b5b808211156100db57600081556001016100e0565b60028104600182168061010857607f821691505b6020821081141561012957634e487b7160e01b600052602260045260246000fd5b50919050565b6105488061013e6000396000f3fe608060405234801561001057600080fd5b50600436106100625760003560e01c806306fdde0314610067578063209652551461008557806355241077146100965780638da5cb5b146100ab578063c47f0027146100d6578063ea8a1af0146100e9575b600080fd5b61006f6100f1565b60405161007c9190610447565b60405180910390f35b60015460405190815260200161007c565b6100a96100a4366004610373565b61017f565b005b6002546100be906001600160a01b031681565b6040516001600160a01b03909116815260200161007c565b6100a96100e43660046102c9565b6101d2565b6100a9610218565b600080546100fe9061049a565b80601f016020809104026020016040519081016040528092919081815260200182805461012a9061049a565b80156101775780601f1061014c57610100808354040283529160200191610177565b820191906000526020600020905b81548152906001019060200180831161015a57829003601f168201915b505050505081565b6002546001600160a01b0316331461019657600080fd5b60018190556040518181527f93fe6d397c74fdf1402a8b72e47b68512f0510d7b98a4bc4cbdf6ac7108b3c59906020015b60405180910390a150565b80516101e5906000906020840190610230565b507f3b0a43ccc1ccd1c76ebb1a8d998fdfe1ded3766582dbbbcdda83889170bec53d3360006040516101c792919061038b565b600360008154610227906104d5565b90915550600080fd5b82805461023c9061049a565b90600052602060002090601f01602090048101928261025e57600085556102a4565b82601f1061027757805160ff19168380011785556102a4565b828001600101855582156102a4579182015b828111156102a4578251825591602001919060010190610289565b506102b09291506102b4565b5090565b5b808211156102b057600081556001016102b5565b6000602082840312156102da578081fd5b813567ffffffffffffffff808211156102f1578283fd5b818401915084601f830112610304578283fd5b813581811115610316576103166104fc565b604051601f8201601f19908116603f0116810190838211818310171561033e5761033e6104fc565b81604052828152876020848701011115610356578586fd5b826020860160208301379182016020019490945295945050505050565b600060208284031215610384578081fd5b5035919050565b6001600160a01b038316815260406020808301919091528254600091908290600281046001828116806103bf57607f831692505b8583108114156103dd57634e487b7160e01b87526022600452602487fd5b60408801839052606088018180156103fc576001811461040d57610437565b60ff19861682528782019650610437565b60008b815260209020895b8681101561043157815484820152908501908901610418565b83019750505b50949a9950505050505050505050565b6000602080835283518082850152825b8181101561047357858101830151858201604001528201610457565b818111156104845783604083870101525b50601f01601f1916929092016040019392505050565b6002810460018216806104ae57607f821691505b602082108114156104cf57634e487b7160e01b600052602260045260246000fd5b50919050565b60006000198214156104f557634e487b7160e01b81526011600452602481fd5b5060010190565b634e487b7160e01b600052604160045260246000fdfea26469706673582212205cc3f2a9926bb2dafcf0cbf8851758fb312202e5c7ade3c513d1ba02e382607464736f6c63430008020033",
  "immutableReferences": {},
  "source": "// SPDX-License-Identifier: UNLICENSED\n\npragma solidity ^0.8.0;\n\ncontract Sanity {\n\n    string public name;\n    uint256 private value;\n    address public owner;\n    uint256 private cancelCount;\n\n    modifier  ownerOnly {\n        if (msg.sender != owner) {\n            revert();\n        }\n        _;\n    }\n\n    event NameChanged(address by, string to);\n    event ValueChanged(uint256 value);\n\n    constructor() {\n        name = \"Kirobo\";\n        owner = msg.sender;\n        value = 100;\n    }\n\n    function getValue() view public returns (uint256) {\n        return value;\n    }\n\n    function setValue(uint256 _value) public ownerOnly {\n        value = _value;\n        emit ValueChanged(value);\n    }\n\n    function setName(string memory _name) public {\n        name = _name;\n        emit NameChanged(msg.sender, name);\n    }\n\n    function cancel() public {\n        ++cancelCount;\n        revert();\n    }\n}\n",
  "sourcePath": "/opt/storage/data1/code/kirobo/ki-eth-contracts/contracts/test/Sanity.sol",
  "compiler": {
    "name": "solc",
    "version": "0.8.2+commit.661d1103.Emscripten.clang"
  },
  "schemaVersion": "3.3.4",
  "updatedAt": "2021-03-22T14:21:08.862Z",
  "networkType": "ethereum",
  "devdoc": {
    "kind": "dev",
    "methods": {},
    "version": 1
  },
  "userdoc": {
    "kind": "user",
    "methods": {},
    "version": 1
  }
}