{
  "contractName": "Sanity",
  "abi": [
    {
      "inputs": [],
      "stateMutability": "nonpayable",
      "type": "constructor"
    },
    {
      "anonymous": false,
      "inputs": [
        {
          "indexed": false,
          "internalType": "address",
          "name": "by",
          "type": "address"
        },
        {
          "indexed": false,
          "internalType": "string",
          "name": "to",
          "type": "string"
        }
      ],
      "name": "NameChanged",
      "type": "event"
    },
    {
      "anonymous": false,
      "inputs": [
        {
          "indexed": false,
          "internalType": "uint256",
          "name": "value",
          "type": "uint256"
        }
      ],
      "name": "ValueChanged",
      "type": "event"
    },
    {
      "inputs": [],
      "name": "s_name",
      "outputs": [
        {
          "internalType": "string",
          "name": "",
          "type": "string"
        }
      ],
      "stateMutability": "view",
      "type": "function"
    },
    {
      "inputs": [],
      "name": "s_owner",
      "outputs": [
        {
          "internalType": "address",
          "name": "",
          "type": "address"
        }
      ],
      "stateMutability": "view",
      "type": "function"
    },
    {
      "inputs": [],
      "name": "getValue",
      "outputs": [
        {
          "internalType": "uint256",
          "name": "",
          "type": "uint256"
        }
      ],
      "stateMutability": "view",
      "type": "function"
    },
    {
      "inputs": [
        {
          "internalType": "uint256",
          "name": "value",
          "type": "uint256"
        }
      ],
      "name": "setValue",
      "outputs": [],
      "stateMutability": "nonpayable",
      "type": "function"
    },
    {
      "inputs": [
        {
          "internalType": "string",
          "name": "name",
          "type": "string"
        }
      ],
      "name": "setName",
      "outputs": [],
      "stateMutability": "nonpayable",
      "type": "function"
    },
    {
      "inputs": [],
      "name": "cancel",
      "outputs": [],
      "stateMutability": "nonpayable",
      "type": "function"
    }
  ],
  "bytecode": "0x608060405234801561001057600080fd5b50604080518082019091526006808252654b69726f626f60d01b602090920191825261003e9160009161005b565b50600280546001600160a01b03191633179055606460015561012f565b828054610067906100f4565b90600052602060002090601f01602090048101928261008957600085556100cf565b82601f106100a257805160ff19168380011785556100cf565b828001600101855582156100cf579182015b828111156100cf5782518255916020019190600101906100b4565b506100db9291506100df565b5090565b5b808211156100db57600081556001016100e0565b600181811c9082168061010857607f821691505b6020821081141561012957634e487b7160e01b600052602260045260246000fd5b50919050565b6104df8061013e6000396000f3fe608060405234801561001057600080fd5b50600436106100625760003560e01c80632096525514610067578063552410771461007c578063bba1964f1461009b578063c47f002714610118578063e3978240146101be578063ea8a1af0146101ed575b600080fd5b60015460408051918252519081900360200190f35b6100996004803603602081101561009257600080fd5b50356101f5565b005b6100a3610247565b6040805160208082528351818301528351919283929083019185019080838360005b838110156100dd5781810151838201526020016100c5565b50505050905090810190601f16801561010a5780820380516001836020036101000a031916815260200191505b509250505060405180910390f35b6100996004803603602081101561012e57600080fd5b81019060208101813564010000000081111561014957600080fd5b82018360208201111561015b57600080fd5b8035906020019184600183028401116401000000008311171561017d57600080fd5b91908080601f0160208091040260200160405190810160405280939291908181526020018383808284376000920191909152509295506102d5945050505050565b6002546101d1906001600160a01b031681565b604080516001600160a01b039092168252519081900360200190f35b610099610396565b6002546001600160a01b0316331461020c57600080fd5b60018190556040805182815290517f93fe6d397c74fdf1402a8b72e47b68512f0510d7b98a4bc4cbdf6ac7108b3c599181900360200190a150565b6000805461025490610447565b80601f016020809104026020016040519081016040528092919081815260200182805461028090610447565b80156102cd5780601f106102a2576101008083540402835291602001916102cd565b820191906000526020600020905b8154815290600101906020018083116102b057829003601f168201915b505050505081565b80516102e89060009060208401906103ae565b507f3b0a43ccc1ccd1c76ebb1a8d998fdfe1ded3766582dbbbcdda83889170bec53d338260405180836001600160a01b0316815260200180602001828103825283818151815260200191508051906020019080838360005b83811015610358578181015183820152602001610340565b50505050905090810190601f1680156103855780820380516001836020036101000a031916815260200191505b50935050505060405180910390a150565b6003600081546103a590610482565b90915550600080fd5b8280546103ba90610447565b90600052602060002090601f0160209004810192826103dc5760008555610422565b82601f106103f557805160ff1916838001178555610422565b82800160010185558215610422579182015b82811115610422578251825591602001919060010190610407565b5061042e929150610432565b5090565b5b8082111561042e5760008155600101610433565b600181811c9082168061045b57607f821691505b6020821081141561047c57634e487b7160e01b600052602260045260246000fd5b50919050565b60006000198214156104a257634e487b7160e01b81526011600452602481fd5b506001019056fea2646970667358221220e1ea634537e6e52e022f1139fe48d46c4b5994853428173a04544d6e85f7314864736f6c63430008040033",
  "immutableReferences": {},
  "source": "// SPDX-License-Identifier: UNLICENSED\n\npragma solidity ^0.8.0;\npragma abicoder v1;\n\ncontract Sanity {\n    string public s_name;\n    uint256 private s_value;\n    address public s_owner;\n    uint256 private s_cancelCount;\n\n    modifier ownerOnly {\n        if (msg.sender != s_owner) {\n            revert();\n        }\n        _;\n    }\n\n    event NameChanged(address by, string to);\n    event ValueChanged(uint256 value);\n\n    constructor() {\n        s_name = \"Kirobo\";\n        s_owner = msg.sender;\n        s_value = 100;\n    }\n\n    function getValue() public view returns (uint256) {\n        return s_value;\n    }\n\n    function setValue(uint256 value) public ownerOnly {\n        s_value = value;\n        emit ValueChanged(value);\n    }\n\n    function setName(string memory name) public {\n        s_name = name;\n        emit NameChanged(msg.sender, name);\n    }\n\n    function cancel() public {\n        ++s_cancelCount;\n        revert();\n    }\n}\n",
  "sourcePath": "/Users/orishalom/repositories/ki-eth-contracts/contracts/test/Sanity.sol",
  "compiler": {
    "name": "solc",
    "version": "0.8.4+commit.c7e474f2.Emscripten.clang"
  },
  "schemaVersion": "3.3.4",
  "updatedAt": "2021-09-29T12:43:32.093Z",
  "networkType": "ethereum",
  "devdoc": {
    "kind": "dev",
    "methods": {},
    "version": 1
  },
  "userdoc": {
    "kind": "user",
    "methods": {},
    "version": 1
  }
}