{
  "contractName": "Sanity",
  "abi": [
    {
      "inputs": [],
      "stateMutability": "nonpayable",
      "type": "constructor"
    },
    {
      "anonymous": false,
      "inputs": [
        {
          "indexed": false,
          "internalType": "address",
          "name": "by",
          "type": "address"
        },
        {
          "indexed": false,
          "internalType": "string",
          "name": "to",
          "type": "string"
        }
      ],
      "name": "NameChanged",
      "type": "event"
    },
    {
      "anonymous": false,
      "inputs": [
        {
          "indexed": false,
          "internalType": "uint256",
          "name": "value",
          "type": "uint256"
        }
      ],
      "name": "ValueChanged",
      "type": "event"
    },
    {
      "inputs": [],
      "name": "name",
      "outputs": [
        {
          "internalType": "string",
          "name": "",
          "type": "string"
        }
      ],
      "stateMutability": "view",
      "type": "function"
    },
    {
      "inputs": [],
      "name": "owner",
      "outputs": [
        {
          "internalType": "address",
          "name": "",
          "type": "address"
        }
      ],
      "stateMutability": "view",
      "type": "function"
    },
    {
      "inputs": [],
      "name": "getValue",
      "outputs": [
        {
          "internalType": "uint256",
          "name": "",
          "type": "uint256"
        }
      ],
      "stateMutability": "view",
      "type": "function"
    },
    {
      "inputs": [
        {
          "internalType": "uint256",
          "name": "_value",
          "type": "uint256"
        }
      ],
      "name": "setValue",
      "outputs": [],
      "stateMutability": "nonpayable",
      "type": "function"
    },
    {
      "inputs": [
        {
          "internalType": "string",
          "name": "_name",
          "type": "string"
        }
      ],
      "name": "setName",
      "outputs": [],
      "stateMutability": "nonpayable",
      "type": "function"
    },
    {
      "inputs": [],
      "name": "cancel",
      "outputs": [],
      "stateMutability": "nonpayable",
      "type": "function"
    }
  ],
  "bytecode": "0x608060405234801561001057600080fd5b50604080518082019091526006808252654b69726f626f60d01b602090920191825261003e9160009161005b565b50600280546001600160a01b0319163317905560646001556100f6565b828054600181600116156101000203166002900490600052602060002090601f016020900481019282601f1061009c57805160ff19168380011785556100c9565b828001600101855582156100c9579182015b828111156100c95782518255916020019190600101906100ae565b506100d59291506100d9565b5090565b6100f391905b808211156100d557600081556001016100df565b90565b6104a0806101056000396000f3fe608060405234801561001057600080fd5b50600436106100725760003560e01c80638da5cb5b116100505780638da5cb5b1461012d578063c47f002714610151578063ea8a1af0146101f757610072565b806306fdde031461007757806320965255146100f4578063552410771461010e575b600080fd5b61007f6101ff565b6040805160208082528351818301528351919283929083019185019080838360005b838110156100b95781810151838201526020016100a1565b50505050905090810190601f1680156100e65780820380516001836020036101000a031916815260200191505b509250505060405180910390f35b6100fc61028d565b60408051918252519081900360200190f35b61012b6004803603602081101561012457600080fd5b5035610294565b005b6101356102e6565b604080516001600160a01b039092168252519081900360200190f35b61012b6004803603602081101561016757600080fd5b81019060208101813564010000000081111561018257600080fd5b82018360208201111561019457600080fd5b803590602001918460018302840111640100000000831117156101b657600080fd5b91908080601f0160208091040260200160405190810160405280939291908181526020018383808284376000920191909152509295506102f5945050505050565b61012b6103c4565b6000805460408051602060026001851615610100026000190190941693909304601f810184900484028201840190925281815292918301828280156102855780601f1061025a57610100808354040283529160200191610285565b820191906000526020600020905b81548152906001019060200180831161026857829003601f168201915b505050505081565b6001545b90565b6002546001600160a01b031633146102ab57600080fd5b60018190556040805182815290517f93fe6d397c74fdf1402a8b72e47b68512f0510d7b98a4bc4cbdf6ac7108b3c599181900360200190a150565b6002546001600160a01b031681565b80516103089060009060208401906103d2565b5060408051338082526020820183815260008054600260001961010060018416150201909116049484018590527f3b0a43ccc1ccd1c76ebb1a8d998fdfe1ded3766582dbbbcdda83889170bec53d94929390929091906060830190849080156103b25780601f10610387576101008083540402835291602001916103b2565b820191906000526020600020905b81548152906001019060200180831161039557829003601f168201915b5050935050505060405180910390a150565b600380546001019055600080fd5b828054600181600116156101000203166002900490600052602060002090601f016020900481019282601f1061041357805160ff1916838001178555610440565b82800160010185558215610440579182015b82811115610440578251825591602001919060010190610425565b5061044c929150610450565b5090565b61029191905b8082111561044c576000815560010161045656fea26469706673582212201c7ee1a1b30aa0d7df19c4b50a321b6940d8e202d0ffc5d213b85e4ae8abd3be64736f6c634300060b0033",
  "source": "// SPDX-License-Identifier: UNLICENSED\n\npragma solidity 0.6.11;\n\ncontract Sanity {\n\n    string public name;\n    uint256 private value;\n    address public owner;\n    uint256 private cancelCount;\n\n    modifier  ownerOnly {\n        if (msg.sender != owner) {\n            revert();\n        }\n        _;\n    }\n\n    event NameChanged(address by, string to);\n    event ValueChanged(uint256 value);\n\n    constructor() public {\n        name = \"Kirobo\";\n        owner = msg.sender;\n        value = 100;\n    }\n\n    function getValue() view public returns (uint256) {\n        return value;\n    }\n\n    function setValue(uint256 _value) public ownerOnly {\n        value = _value;\n        emit ValueChanged(value);\n    }\n\n    function setName(string memory _name) public {\n        name = _name;\n        emit NameChanged(msg.sender, name);\n    }\n\n    function cancel() public {\n        ++cancelCount;\n        revert();\n    }\n}\n",
  "sourcePath": "/home/tal/code/kirobo/ki-eth-contracts/contracts/test/Sanity.sol",
  "compiler": {
    "name": "solc",
    "version": "0.6.11+commit.5ef660b1.Emscripten.clang"
  },
  "schemaVersion": "3.0.23",
  "updatedAt": "2020-07-20T14:16:41.847Z",
  "networkType": "ethereum",
  "devdoc": {
    "kind": "dev",
    "methods": {},
    "version": 1
  },
  "userdoc": {
    "kind": "user",
    "methods": {},
    "version": 1
  }
}