{
  "contractName": "Sender",
  "abi": [
    {
      "stateMutability": "payable",
      "type": "fallback"
    },
    {
      "stateMutability": "payable",
      "type": "receive"
    },
    {
      "inputs": [
        {
          "internalType": "address payable",
          "name": "_to",
          "type": "address"
        },
        {
          "internalType": "uint256",
          "name": "_value",
          "type": "uint256"
        }
      ],
      "name": "sendEther",
      "outputs": [],
      "stateMutability": "nonpayable",
      "type": "function"
    }
  ],
  "bytecode": "0x608060405234801561001057600080fd5b5060cd8061001f6000396000f3fe608060405260043610601f5760003560e01c8063c1756a2c146027576025565b36602557005b005b348015603257600080fd5b50602560048036036040811015604757600080fd5b50604051813573ffffffffffffffffffffffffffffffffffffffff1691602001359082906108fc8315029083906000818181858888f193505050501580156092573d6000803e3d6000fd5b50505056fea2646970667358221220ff6d3030d37b5b250d62eb41f448e460f655f70434a8820a051b09942a90916b64736f6c634300060b0033",
  "source": "// SPDX-License-Identifier: UNLICENSED\n\npragma solidity 0.6.11;\n\ncontract Sender {\n    function sendEther(address payable _to, uint256 _value) public {\n        _to.transfer(_value);\n    }\n    fallback () external payable {}\n    receive () external payable {}\n}\n",
  "sourcePath": "/home/tal/code/kirobo/ki-eth-contracts/contracts/test/Sender.sol",
  "compiler": {
    "name": "solc",
    "version": "0.6.11+commit.5ef660b1.Emscripten.clang"
  },
  "schemaVersion": "3.0.23",
  "updatedAt": "2020-07-26T17:30:29.261Z",
  "devdoc": {
    "kind": "dev",
    "methods": {},
    "version": 1
  },
  "userdoc": {
    "kind": "user",
    "methods": {},
    "version": 1
  }
}