{
  "contractName": "Sender",
  "abi": [
    {
      "stateMutability": "payable",
      "type": "fallback"
    },
    {
      "stateMutability": "payable",
      "type": "receive"
    },
    {
      "inputs": [
        {
          "internalType": "address payable",
          "name": "to",
          "type": "address"
        },
        {
          "internalType": "uint256",
          "name": "value",
          "type": "uint256"
        }
      ],
      "name": "sendEther",
      "outputs": [],
      "stateMutability": "nonpayable",
      "type": "function"
    }
  ],
  "bytecode": "0x608060405234801561001057600080fd5b5060cd8061001f6000396000f3fe608060405260043610601f5760003560e01c8063c1756a2c146027576025565b36602557005b005b348015603257600080fd5b50602560048036036040811015604757600080fd5b50604051813573ffffffffffffffffffffffffffffffffffffffff1691602001359082906108fc8315029083906000818181858888f193505050501580156092573d6000803e3d6000fd5b50505056fea264697066735822122018e3911a60e0bcd12ce3c612047a4a905f523f7ff821c3b83515ee359351966a64736f6c63430008020033",
  "immutableReferences": {},
  "source": "// SPDX-License-Identifier: UNLICENSED\n\npragma solidity ^0.8.0;\npragma abicoder v1;\n\ncontract Sender {\n    function sendEther(address payable to, uint256 value) public {\n        to.transfer(value);\n    }\n\n    fallback() external payable {}\n\n    receive() external payable {}\n}\n",
  "sourcePath": "/opt/storage/data1/code/kirobo/ki-eth-contracts/contracts/test/Sender.sol",
  "compiler": {
    "name": "solc",
    "version": "0.8.2+commit.661d1103.Emscripten.clang"
  },
  "schemaVersion": "3.3.4",
  "updatedAt": "2021-05-02T20:37:10.481Z",
  "networkType": "ethereum",
  "devdoc": {
    "kind": "dev",
    "methods": {},
    "version": 1
  },
  "userdoc": {
    "kind": "user",
    "methods": {},
    "version": 1
  }
}