{
  "contractName": "StorageBase",
  "abi": [
    {
      "inputs": [],
      "stateMutability": "nonpayable",
      "type": "constructor"
    },
    {
      "inputs": [],
      "name": "owner",
      "outputs": [
        {
          "internalType": "address",
          "name": "",
          "type": "address"
        }
      ],
      "stateMutability": "view",
      "type": "function"
    },
    {
      "inputs": [],
      "name": "target",
      "outputs": [
        {
          "internalType": "address",
          "name": "",
          "type": "address"
        }
      ],
      "stateMutability": "view",
      "type": "function"
    },
    {
      "inputs": [],
      "name": "creator",
      "outputs": [
        {
          "internalType": "address",
          "name": "",
          "type": "address"
        }
      ],
      "stateMutability": "pure",
      "type": "function"
    },
    {
      "inputs": [
        {
          "internalType": "address",
          "name": "__owner",
          "type": "address"
        },
        {
          "internalType": "address",
          "name": "__target",
          "type": "address"
        }
      ],
      "name": "init",
      "outputs": [],
      "stateMutability": "nonpayable",
      "type": "function"
    },
    {
      "inputs": [
        {
          "internalType": "bytes8",
          "name": "_version",
          "type": "bytes8"
        }
      ],
      "name": "upgrade",
      "outputs": [],
      "stateMutability": "nonpayable",
      "type": "function"
    }
  ],
  "bytecode": "0x608060405234801561001057600080fd5b50600080546001600160a01b0319163317905561039f806100326000396000f3fe608060405234801561001057600080fd5b50600436106100575760003560e01c806302d05d3f1461005c5780638da5cb5b14610080578063d4b8399214610088578063f09a401614610090578063fec5a18d146100c0575b600080fd5b6100646100e7565b604080516001600160a01b039092168252519081900360200190f35b6100646100ec565b6100646100fb565b6100be600480360360408110156100a657600080fd5b506001600160a01b038135811691602001351661010a565b005b6100be600480360360208110156100d657600080fd5b50356001600160c01b03191661024b565b600090565b6000546001600160a01b031690565b6001546001600160a01b031690565b306001600160a01b03166302d05d3f6040518163ffffffff1660e01b815260040160206040518083038186803b15801561014357600080fd5b505afa158015610157573d6000803e3d6000fd5b505050506040513d602081101561016d57600080fd5b50516001600160a01b031633146101b9576040805162461bcd60e51b815260206004820152600b60248201526a3737ba1031b932b0ba37b960a91b604482015290519081900360640190fd5b6000546001600160a01b038381169116148015906101df57506001600160a01b03821615155b1561020057600080546001600160a01b0319166001600160a01b0384161790555b6001546001600160a01b0382811691161480159061022657506001600160a01b03811615155b1561024757600180546001600160a01b0319166001600160a01b0383161790555b5050565b6000546001600160a01b03163314610296576040805162461bcd60e51b81526020600482015260096024820152683737ba1037bbb732b960b91b604482015290519081900360640190fd5b306001600160a01b03166302d05d3f6040518163ffffffff1660e01b815260040160206040518083038186803b1580156102cf57600080fd5b505afa1580156102e3573d6000803e3d6000fd5b505050506040513d60208110156102f957600080fd5b5051604080516318beb60960e31b81526001600160c01b03198416600482015290516001600160a01b039092169163c5f5b0489160248082019260009290919082900301818387803b15801561034e57600080fd5b505af1158015610362573d6000803e3d6000fd5b505050505056fea26469706673582212207af7d76354efaa1631cc045c8460261b6656f3ded6ddcb5ea8b09566d3c1a87f64736f6c634300060b0033",
  "source": "// SPDX-License-Identifier: UNLICENSED\n\npragma solidity 0.6.11;\n\ninterface ICreator {\n    function upgradeWallet(bytes8 _id) external;\n    function transferWalletOwnership(address _newOwner) external;\n    function addWalletBackup(address _wallet) external;\n    function removeWalletBackup(address _wallet) external;\n    function getLatestVersion() external view returns (address);\n    function oracle() external view returns (address);\n}\n\ninterface IProxy {\n    function init(address _owner, address _target) external;\n    function owner() external view returns (address);\n    function target() external view returns (address);\n}\n\ninterface IStorage {\n    function migrate() external;\n    function version() external pure returns (bytes8);\n}\n\ninterface IStorageBase {\n    function owner() external view returns (address);\n}\n\ncontract StorageBase is IProxy {\n    address internal _owner;\n    address internal _target;\n\n    function owner() external view override returns (address) {\n        return _owner;\n    }\n\n    function target() external view override returns (address) {\n        return _target;\n    }\n\n    function creator() external pure returns (address) {\n        return address(0);\n    }\n\n    modifier onlyCreator () {\n        require (msg.sender == this.creator(), \"not creator\");\n        _;\n    }\n\n    modifier onlyOwner () {\n        require (msg.sender == _owner, \"not owner\");\n        _;\n    }\n\n    function init(address __owner, address __target) external onlyCreator() override {\n        if (__owner != _owner && __owner != address(0)) _owner = __owner;\n        if (__target != _target && __target != address(0)) _target = __target;\n    }\n\n    constructor () public {\n        _owner = msg.sender;\n    }\n\n    function upgrade(bytes8 _version) public onlyOwner() {\n        ICreator(this.creator()).upgradeWallet(_version);\n    }\n\n}\n",
  "sourcePath": "/home/tal/code/kirobo/ki-eth-contracts/contracts/lib/StorageBase.sol",
  "compiler": {
    "name": "solc",
    "version": "0.6.11+commit.5ef660b1.Emscripten.clang"
  },
  "schemaVersion": "3.0.23",
  "updatedAt": "2020-07-26T12:19:35.421Z",
  "devdoc": {
    "kind": "dev",
    "methods": {},
    "version": 1
  },
  "userdoc": {
    "kind": "user",
    "methods": {},
    "version": 1
  }
}