{
  "contractName": "Trust",
  "abi": [
    {
      "inputs": [
        {
          "internalType": "address payable",
          "name": "wallet",
          "type": "address"
        },
        {
          "internalType": "uint40",
          "name": "start",
          "type": "uint40"
        },
        {
          "internalType": "uint32",
          "name": "period",
          "type": "uint32"
        },
        {
          "internalType": "uint16",
          "name": "times",
          "type": "uint16"
        },
        {
          "internalType": "uint256",
          "name": "amount",
          "type": "uint256"
        },
        {
          "internalType": "bool",
          "name": "cancelable",
          "type": "bool"
        }
      ],
      "stateMutability": "payable",
      "type": "constructor"
    },
    {
      "anonymous": false,
      "inputs": [
        {
          "indexed": true,
          "internalType": "address",
          "name": "from",
          "type": "address"
        },
        {
          "indexed": false,
          "internalType": "uint256",
          "name": "value",
          "type": "uint256"
        }
      ],
      "name": "GotEther",
      "type": "event"
    },
    {
      "anonymous": false,
      "inputs": [
        {
          "indexed": true,
          "internalType": "address",
          "name": "to",
          "type": "address"
        },
        {
          "indexed": false,
          "internalType": "uint256",
          "name": "value",
          "type": "uint256"
        }
      ],
      "name": "SentEther",
      "type": "event"
    },
    {
      "stateMutability": "payable",
      "type": "receive"
    },
    {
      "inputs": [],
      "name": "isOwner",
      "outputs": [
        {
          "internalType": "bool",
          "name": "",
          "type": "bool"
        }
      ],
      "stateMutability": "view",
      "type": "function"
    },
    {
      "inputs": [],
      "name": "fund",
      "outputs": [
        {
          "components": [
            {
              "internalType": "address payable",
              "name": "wallet",
              "type": "address"
            },
            {
              "internalType": "uint40",
              "name": "start",
              "type": "uint40"
            },
            {
              "internalType": "uint32",
              "name": "period",
              "type": "uint32"
            },
            {
              "internalType": "uint16",
              "name": "times",
              "type": "uint16"
            },
            {
              "internalType": "bool",
              "name": "cancelable",
              "type": "bool"
            }
          ],
          "internalType": "struct Trust.Fund",
          "name": "",
          "type": "tuple"
        }
      ],
      "stateMutability": "view",
      "type": "function"
    },
    {
      "inputs": [],
      "name": "getPaymentValue",
      "outputs": [
        {
          "internalType": "uint256",
          "name": "",
          "type": "uint256"
        }
      ],
      "stateMutability": "view",
      "type": "function"
    },
    {
      "inputs": [],
      "name": "getNextPaymentTimestamp",
      "outputs": [
        {
          "internalType": "uint256",
          "name": "",
          "type": "uint256"
        }
      ],
      "stateMutability": "view",
      "type": "function"
    },
    {
      "inputs": [],
      "name": "getTotalPayed",
      "outputs": [
        {
          "internalType": "uint256",
          "name": "",
          "type": "uint256"
        }
      ],
      "stateMutability": "view",
      "type": "function"
    },
    {
      "inputs": [],
      "name": "getPaymentAmount",
      "outputs": [
        {
          "internalType": "uint256",
          "name": "",
          "type": "uint256"
        }
      ],
      "stateMutability": "view",
      "type": "function"
    },
    {
      "inputs": [],
      "name": "activateTrust",
      "outputs": [],
      "stateMutability": "nonpayable",
      "type": "function"
    },
    {
      "inputs": [],
      "name": "getBalance",
      "outputs": [
        {
          "internalType": "uint256",
          "name": "",
          "type": "uint256"
        }
      ],
      "stateMutability": "view",
      "type": "function"
    },
    {
      "inputs": [],
      "name": "destroy",
      "outputs": [],
      "stateMutability": "nonpayable",
      "type": "function"
    },
    {
      "inputs": [],
      "name": "version",
      "outputs": [
        {
          "internalType": "bytes8",
          "name": "",
          "type": "bytes8"
        }
      ],
      "stateMutability": "pure",
      "type": "function"
    }
  ],
  "bytecode": "0x60806040526040516109bb3803806109bb833981016040819052610022916101a3565b341561005e5760405134815233907fc105bc3e1f2504fd54e7e6356af5f26fd670efc4a667b823e75f65d63c6bab669060200160405180910390a25b6001600160a01b03861661007157600080fd5b6001600160a01b03861633141561008757600080fd5b60008564ffffffffff161180156100a4575060008463ffffffff16115b80156100b4575060008361ffff16115b80156100c05750600082115b6100c957600080fd5b6100d761ffff84168361023d565b3410156100e357600080fd5b600380546001600160a01b0319908116331790915560028054600094909455911515600160f81b026001600160f81b0361ffff909516600160e81b0261ffff60e81b1963ffffffff909716600160c81b0263ffffffff60c81b1964ffffffffff909916600160a01b0264ffffffffff60a01b196001600160a01b039b909b16969094169590951798909816919091179590951691909117929092169390931792909216179055610268565b8051801515811461019e57600080fd5b919050565b60008060008060008060c087890312156101bb578182fd5b86516001600160a01b03811681146101d1578283fd5b602088015190965064ffffffffff811681146101eb578283fd5b604088015190955063ffffffff81168114610204578283fd5b606088015190945061ffff8116811461021b578283fd5b6080880151909350915061023160a0880161018e565b90509295509295509295565b600081600019048311821515161561026357634e487b7160e01b81526011600452602481fd5b500290565b610744806102776000396000f3fe6080604052600436106100b55760003560e01c80637bf04e3f116100695780638f32d59b1161004e5780638f32d59b146101c9578063b60d4288146101fa578063b8d66c5b14610315576100f8565b80637bf04e3f1461019f57806383197ef0146101b4576100f8565b80633e8817aa1161009a5780633e8817aa1461013a57806354fd4d501461014f57806358ea2c0f1461018a576100f8565b806312065fe0146100fd5780632742353414610125576100f8565b366100f85734156100f65760405134815233907fc105bc3e1f2504fd54e7e6356af5f26fd670efc4a667b823e75f65d63c6bab669060200160405180910390a25b005b600080fd5b34801561010957600080fd5b5061011261032a565b6040519081526020015b60405180910390f35b34801561013157600080fd5b506100f661032f565b34801561014657600080fd5b50600054610112565b34801561015b57600080fd5b506040517f302e310000000000000000000000000000000000000000000000000000000000815260200161011c565b34801561019657600080fd5b506101126103df565b3480156101ab57600080fd5b506101126104b9565b3480156101c057600080fd5b506100f66105af565b3480156101d557600080fd5b506101ea6003546001600160a01b0316331490565b604051901515815260200161011c565b34801561020657600080fd5b506102b76040805160a081018252600080825260208201819052918101829052606081018290526080810191909152506040805160a0810182526002546001600160a01b0381168252600160a01b810464ffffffffff166020830152600160c81b810463ffffffff1692820192909252600160e81b820461ffff1660608201527f010000000000000000000000000000000000000000000000000000000000000090910460ff161515608082015290565b60405161011c9190600060a0820190506001600160a01b03835116825264ffffffffff602084015116602083015263ffffffff604084015116604083015261ffff606084015116606083015260808301511515608083015292915050565b34801561032157600080fd5b50600154610112565b475b90565b60006103396103df565b90506000811161034857600080fd5b806001600082825461035a9190610635565b90915550506002546040516001600160a01b039091169082156108fc029083906000818181858888f19350505050158015610399573d6000803e3d6000fd5b506002546040518281526001600160a01b03909116907f69653cad22163f3a958003e9b2beebd4a65139765733fd4d3d41be96eb4e3a069060200160405180910390a250565b600254600090600160a01b900464ffffffffff164210156104025750600061032c565b60025461042790600160e81b810461ffff1690600160c81b900463ffffffff166106b5565b6002546104489163ffffffff1690600160a01b900464ffffffffff1661064d565b64ffffffffff16421061045c57504761032c565b600154600054600254600160c81b810463ffffffff169061048b90600160a01b900464ffffffffff16426106e1565b6104959190610676565b6104a0906001610635565b6104aa9190610696565b6104b491906106e1565b905090565b600254600090600160a01b900464ffffffffff164210156104eb5750600254600160a01b900464ffffffffff1661032c565b60025460009061051390600160e81b810461ffff1690600160c81b900463ffffffff166106b5565b6002546105349163ffffffff1690600160a01b900464ffffffffff1661064d565b64ffffffffff1690508042106105625747156105585764ffffffffff16905061032c565b506000905061032c565b600254600054600154600160c81b90920463ffffffff16916105849190610676565b61058e9190610696565b6002546105a99190600160a01b900464ffffffffff16610635565b91505090565b6003546001600160a01b03163314610627576040517f08c379a000000000000000000000000000000000000000000000000000000000815260206004820152601860248201527f6d73672e73656e64657220213d2073656c662e6f776e65720000000000000000604482015260640160405180910390fd5b6003546001600160a01b0316ff5b60008219821115610648576106486106f8565b500190565b600064ffffffffff80831681851680830382111561066d5761066d6106f8565b01949350505050565b60008261069157634e487b7160e01b81526012600452602481fd5b500490565b60008160001904831182151516156106b0576106b06106f8565b500290565b600063ffffffff808316818516818304811182151516156106d8576106d86106f8565b02949350505050565b6000828210156106f3576106f36106f8565b500390565b634e487b7160e01b600052601160045260246000fdfea2646970667358221220249acbe98693ef4057aab9cd8ff3f950e9d3721e9158c287f8e7dee939ac0d6264736f6c63430008020033",
  "immutableReferences": {},
  "source": "// SPDX-License-Identifier: UNLICENSED\n\npragma solidity ^0.8.0;\npragma abicoder v2;\n\n// import \"openzeppelin-solidity/contracts/math/SafeMath.sol\";\n\ncontract Trust {\n    // using SafeMath for uint32;\n    // using SafeMath for uint40;\n    // using SafeMath for uint256;\n\n    struct Fund {\n        address payable wallet;\n        uint40 start;\n        uint32 period;\n        uint16 times;\n        bool cancelable;\n    }\n\n    struct Self {\n        address payable owner;\n    }\n\n    uint256 private s_amount;\n    uint256 private s_payed;\n    Fund private s_fund;\n    Self private s_self;\n\n    event GotEther(address indexed from, uint256 value);\n    event SentEther(address indexed to, uint256 value);\n\n    constructor(\n        address payable wallet,\n        uint40 start,\n        uint32 period,\n        uint16 times,\n        uint256 amount,\n        bool cancelable\n    ) payable logPayment() {\n        require(wallet != address(0));\n        require(wallet != msg.sender);\n        require((start > 0) && (period > 0) && (times > 0) && (amount > 0));\n        require(msg.value >= amount * times);\n\n        s_self.owner = payable(msg.sender);\n        s_fund.wallet = wallet;\n        s_fund.start = start;\n        s_fund.period = period;\n        s_fund.times = times;\n        s_amount = amount;\n        s_fund.cancelable = cancelable;\n    }\n\n    modifier logPayment {\n        if (msg.value > 0) {\n            emit GotEther(msg.sender, msg.value);\n        }\n        _;\n    }\n\n    modifier onlyOwner() {\n        require(msg.sender == s_self.owner, \"msg.sender != self.owner\");\n        _;\n    }\n\n    function isOwner() external view returns (bool) {\n        return msg.sender == s_self.owner;\n    }\n\n    function fund() external view returns (Fund memory) {\n      return s_fund;\n    }\n\n    function getPaymentValue() public view returns (uint256) {\n        // solium-disable-next-line security/no-block-members\n        if (block.timestamp < s_fund.start) {\n            return 0;\n        }\n        // solium-disable-next-line security/no-block-members\n        if (block.timestamp >= s_fund.start + (s_fund.period * s_fund.times)) {\n            return address(this).balance;\n        }\n        // solium-disable-next-line security/no-block-members\n        return\n            ((((block.timestamp - s_fund.start) / s_fund.period) + 1) * s_amount) -\n            s_payed;\n    }\n\n    function getNextPaymentTimestamp() public view returns (uint256) {\n        // solium-disable-next-line security/no-block-members\n        if (block.timestamp < s_fund.start) {\n            return s_fund.start;\n        }\n        uint256 endTimestamp = s_fund.start + (s_fund.period * s_fund.times);\n        // solium-disable-next-line security/no-block-members\n        if (block.timestamp >= endTimestamp) {\n            if (address(this).balance > 0) {\n                // solium-disable-next-line security/no-block-members\n                return uint40(endTimestamp);\n            }\n            return uint40(0);\n        }\n        // solium-disable-next-line security/no-block-members\n        return s_fund.start + ((s_payed / s_amount) * s_fund.period);\n    }\n\n    function getTotalPayed() public view returns (uint256) {\n        return s_payed;\n    }\n\n    function getPaymentAmount() public view returns (uint256) {\n        return s_amount;\n    }\n\n    function activateTrust() public {\n        uint256 toPay = getPaymentValue();\n        require(toPay > 0);\n        s_payed += toPay;\n        s_fund.wallet.transfer(toPay);\n        emit SentEther(s_fund.wallet, toPay);\n    }\n\n    function getBalance() public view returns (uint256) {\n        return address(this).balance;\n    }\n\n    function destroy() public onlyOwner() {\n        selfdestruct(s_self.owner);\n    }\n\n    receive() external payable logPayment() {}\n\n    function version() public pure returns (bytes8) {\n        return bytes8(\"0.1\");\n    }\n}\n",
  "sourcePath": "/opt/storage/data1/code/kirobo/ki-eth-contracts/contracts/Trust.sol",
  "compiler": {
    "name": "solc",
    "version": "0.8.2+commit.661d1103.Emscripten.clang"
  },
  "schemaVersion": "3.3.4",
  "updatedAt": "2021-05-02T20:37:07.841Z",
  "devdoc": {
    "kind": "dev",
    "methods": {},
    "version": 1
  },
  "userdoc": {
    "kind": "user",
    "methods": {},
    "version": 1
  }
}