{
  "contractName": "Trust",
  "abi": [
    {
      "inputs": [
        {
          "internalType": "address payable",
          "name": "_wallet",
          "type": "address"
        },
        {
          "internalType": "uint40",
          "name": "_start",
          "type": "uint40"
        },
        {
          "internalType": "uint32",
          "name": "_period",
          "type": "uint32"
        },
        {
          "internalType": "uint16",
          "name": "_times",
          "type": "uint16"
        },
        {
          "internalType": "uint256",
          "name": "_amount",
          "type": "uint256"
        },
        {
          "internalType": "bool",
          "name": "_cancelable",
          "type": "bool"
        }
      ],
      "stateMutability": "payable",
      "type": "constructor"
    },
    {
      "anonymous": false,
      "inputs": [
        {
          "indexed": true,
          "internalType": "address",
          "name": "from",
          "type": "address"
        },
        {
          "indexed": false,
          "internalType": "uint256",
          "name": "value",
          "type": "uint256"
        }
      ],
      "name": "GotEther",
      "type": "event"
    },
    {
      "anonymous": false,
      "inputs": [
        {
          "indexed": true,
          "internalType": "address",
          "name": "to",
          "type": "address"
        },
        {
          "indexed": false,
          "internalType": "uint256",
          "name": "value",
          "type": "uint256"
        }
      ],
      "name": "SentEther",
      "type": "event"
    },
    {
      "inputs": [],
      "name": "fund",
      "outputs": [
        {
          "internalType": "address payable",
          "name": "wallet",
          "type": "address"
        },
        {
          "internalType": "uint40",
          "name": "start",
          "type": "uint40"
        },
        {
          "internalType": "uint32",
          "name": "period",
          "type": "uint32"
        },
        {
          "internalType": "uint16",
          "name": "times",
          "type": "uint16"
        },
        {
          "internalType": "bool",
          "name": "cancelable",
          "type": "bool"
        }
      ],
      "stateMutability": "view",
      "type": "function"
    },
    {
      "stateMutability": "payable",
      "type": "receive"
    },
    {
      "inputs": [],
      "name": "isOwner",
      "outputs": [
        {
          "internalType": "bool",
          "name": "",
          "type": "bool"
        }
      ],
      "stateMutability": "view",
      "type": "function"
    },
    {
      "inputs": [],
      "name": "getPaymentValue",
      "outputs": [
        {
          "internalType": "uint256",
          "name": "",
          "type": "uint256"
        }
      ],
      "stateMutability": "view",
      "type": "function"
    },
    {
      "inputs": [],
      "name": "getNextPaymentTimestamp",
      "outputs": [
        {
          "internalType": "uint256",
          "name": "",
          "type": "uint256"
        }
      ],
      "stateMutability": "view",
      "type": "function"
    },
    {
      "inputs": [],
      "name": "getTotalPayed",
      "outputs": [
        {
          "internalType": "uint256",
          "name": "",
          "type": "uint256"
        }
      ],
      "stateMutability": "view",
      "type": "function"
    },
    {
      "inputs": [],
      "name": "getPaymentAmount",
      "outputs": [
        {
          "internalType": "uint256",
          "name": "",
          "type": "uint256"
        }
      ],
      "stateMutability": "view",
      "type": "function"
    },
    {
      "inputs": [],
      "name": "activateTrust",
      "outputs": [],
      "stateMutability": "nonpayable",
      "type": "function"
    },
    {
      "inputs": [],
      "name": "getBalance",
      "outputs": [
        {
          "internalType": "uint256",
          "name": "",
          "type": "uint256"
        }
      ],
      "stateMutability": "view",
      "type": "function"
    },
    {
      "inputs": [],
      "name": "destroy",
      "outputs": [],
      "stateMutability": "nonpayable",
      "type": "function"
    },
    {
      "inputs": [],
      "name": "version",
      "outputs": [
        {
          "internalType": "bytes8",
          "name": "",
          "type": "bytes8"
        }
      ],
      "stateMutability": "pure",
      "type": "function"
    }
  ],
  "bytecode": "0x6080604052604051610a5f380380610a5f833981810160405260c081101561002657600080fd5b508051602082015160408301516060840151608085015160a090950151939492939192909134156100885760408051348152905133917fc105bc3e1f2504fd54e7e6356af5f26fd670efc4a667b823e75f65d63c6bab66919081900360200190a25b6001600160a01b03861661009b57600080fd5b6001600160a01b0386163314156100b157600080fd5b60008564ffffffffff161180156100ce575060008463ffffffff16115b80156100de575060008361ffff16115b80156100ea5750600082115b6100f357600080fd5b61010e8361ffff16836101c560201b6105751790919060201c565b34101561011a57600080fd5b600380546001600160a01b0319908116331790915560028054600094909455911515600160f81b026001600160f81b0361ffff909516600160e81b0261ffff60e81b1963ffffffff909716600160c81b0263ffffffff60c81b1964ffffffffff909916600160a01b0264ffffffffff60a01b196001600160a01b039b909b16969094169590951798909816919091179590951691909117929092169390931792909216179055610227565b6000826101d457506000610221565b828202828482816101e157fe5b041461021e5760405162461bcd60e51b8152600401808060200182810382526021815260200180610a3e6021913960400191505060405180910390fd5b90505b92915050565b610808806102366000396000f3fe6080604052600436106100955760003560e01c80637bf04e3f116100595780637bf04e3f1461018757806383197ef01461019c5780638f32d59b146101b1578063b60d4288146101da578063b8d66c5b14610235576100d9565b806312065fe0146100de57806327423534146101055780633e8817aa1461011a57806354fd4d501461012f57806358ea2c0f14610172576100d9565b366100d95734156100d75760408051348152905133917fc105bc3e1f2504fd54e7e6356af5f26fd670efc4a667b823e75f65d63c6bab66919081900360200190a25b005b600080fd5b3480156100ea57600080fd5b506100f361024a565b60408051918252519081900360200190f35b34801561011157600080fd5b506100d761024f565b34801561012657600080fd5b506100f36102f0565b34801561013b57600080fd5b506101446102f6565b6040805177ffffffffffffffffffffffffffffffffffffffffffffffff199092168252519081900360200190f35b34801561017e57600080fd5b506100f3610300565b34801561019357600080fd5b506100f36103f0565b3480156101a857600080fd5b506100d76104ad565b3480156101bd57600080fd5b506101c661051a565b604080519115158252519081900360200190f35b3480156101e657600080fd5b506101ef61052b565b604080516001600160a01b03909616865264ffffffffff909416602086015263ffffffff9092168484015261ffff16606084015215156080830152519081900360a00190f35b34801561024157600080fd5b506100f361056f565b475b90565b6000610259610300565b90506000811161026857600080fd5b60018054820190556002546040516001600160a01b039091169082156108fc029083906000818181858888f193505050501580156102aa573d6000803e3d6000fd5b506002546040805183815290516001600160a01b03909216917f69653cad22163f3a958003e9b2beebd4a65139765733fd4d3d41be96eb4e3a069181900360200190a250565b60005490565b62302e3160e81b90565b600254600090600160a01b900464ffffffffff164210156103235750600061024c565b600254610367906103509063ffffffff600160c81b820481169161ffff600160e81b909104169061057516565b600254600160a01b900464ffffffffff16906105d7565b421061037457504761024c565b600180546000546002546103eb936103df92916103d391906103c79063ffffffff600160c81b82048116916103bb91429164ffffffffff600160a01b909104169061063116565b9063ffffffff61067316565b9063ffffffff6105d716565b9063ffffffff61057516565b9063ffffffff61063116565b905090565b600254600090600160a01b900464ffffffffff164210156104225750600254600160a01b900464ffffffffff1661024c565b600254600090610452906103509063ffffffff600160c81b820481169161ffff600160e81b909104169061057516565b905080421061047957471561046f5764ffffffffff16905061024c565b506000905061024c565b6002546000546001546104a7926103509263ffffffff600160c81b9092048216926103d39290919061067316565b91505090565b6003546001600160a01b0316331461050c576040805162461bcd60e51b815260206004820152601860248201527f6d73672e73656e64657220213d2073656c662e6f776e65720000000000000000604482015290519081900360640190fd5b6003546001600160a01b0316ff5b6003546001600160a01b0316331490565b6002546001600160a01b03811690600160a01b810464ffffffffff1690600160c81b810463ffffffff1690600160e81b810461ffff1690600160f81b900460ff1685565b60015490565b600082610584575060006105d1565b8282028284828161059157fe5b04146105ce5760405162461bcd60e51b81526004018080602001828103825260218152602001806107b26021913960400191505060405180910390fd5b90505b92915050565b6000828201838110156105ce576040805162461bcd60e51b815260206004820152601b60248201527f536166654d6174683a206164646974696f6e206f766572666c6f770000000000604482015290519081900360640190fd5b60006105ce83836040518060400160405280601e81526020017f536166654d6174683a207375627472616374696f6e206f766572666c6f7700008152506106b5565b60006105ce83836040518060400160405280601a81526020017f536166654d6174683a206469766973696f6e206279207a65726f00000000000081525061074c565b600081848411156107445760405162461bcd60e51b81526004018080602001828103825283818151815260200191508051906020019080838360005b838110156107095781810151838201526020016106f1565b50505050905090810190601f1680156107365780820380516001836020036101000a031916815260200191505b509250505060405180910390fd5b505050900390565b6000818361079b5760405162461bcd60e51b81526020600482018181528351602484015283519092839260449091019190850190808383600083156107095781810151838201526020016106f1565b5060008385816107a757fe5b049594505050505056fe536166654d6174683a206d756c7469706c69636174696f6e206f766572666c6f77a264697066735822122039d1b4e534005be1b6f8a28f9e585d62320a91fdcd6e7ec2f79380273cf55a4a64736f6c634300060b0033536166654d6174683a206d756c7469706c69636174696f6e206f766572666c6f77",
  "source": "// SPDX-License-Identifier: UNLICENSED\n\npragma solidity 0.6.11;\n\nimport \"../node_modules/openzeppelin-solidity/contracts/math/SafeMath.sol\";\n\ncontract Trust {\n\n    using SafeMath for uint32;\n    using SafeMath for uint40;\n    using SafeMath for uint256;\n\n    struct Fund {\n        address payable wallet;\n        uint40  start;\n        uint32  period;\n        uint16  times;\n        bool    cancelable;\n    }\n\n    struct Self {\n        address payable owner;\n    }\n\n    uint256 private amount;\n    uint256 private payed;\n    Fund public fund;\n    Self private self;\n\n    event GotEther          (address indexed from, uint256 value);\n    event SentEther         (address indexed to, uint256 value);\n\n    constructor (address  payable _wallet,\n                 uint40   _start,\n                 uint32   _period,\n                 uint16   _times,\n                 uint256  _amount,\n                 bool     _cancelable)\n                payable logPayment() public {\n\n        require(_wallet != address(0));\n        require(_wallet != msg.sender);\n        require((_start > 0) && (_period > 0) && (_times > 0) && (_amount > 0));\n        require(msg.value >= _amount.mul(_times));\n\n        self.owner = msg.sender;\n        fund.wallet = _wallet;\n        fund.start = _start;\n        fund.period = _period;\n        fund.times = _times;\n        amount = _amount;\n        fund.cancelable = _cancelable;\n    }\n\n    modifier logPayment {\n        if (msg.value > 0) {\n            emit GotEther(msg.sender, msg.value);\n        }\n        _;\n    }\n\n    modifier onlyOwner () {\n        require (msg.sender == self.owner, \"msg.sender != self.owner\");\n        _;\n    }\n\n    function isOwner () public view returns (bool) {\n        return msg.sender == self.owner;\n    }\n\n    function getPaymentValue() public view returns (uint256) {\n        // solium-disable-next-line security/no-block-members\n        if (block.timestamp < fund.start) {\n            return 0;\n        }\n        // solium-disable-next-line security/no-block-members\n        if (block.timestamp >= fund.start.add(fund.period.mul(fund.times))) {\n            return address(this).balance;\n        }\n        // solium-disable-next-line security/no-block-members\n        return block.timestamp.sub(fund.start).div(fund.period).add(1).mul(amount).sub(payed);\n    }\n\n    function getNextPaymentTimestamp() public view returns (uint256) {\n        // solium-disable-next-line security/no-block-members\n        if (block.timestamp < fund.start) {\n            return fund.start;\n        }\n        uint256 endTimestamp = fund.start.add(fund.period.mul(fund.times));\n        // solium-disable-next-line security/no-block-members\n        if (block.timestamp >= endTimestamp) {\n            if (address(this).balance > 0) {\n                // solium-disable-next-line security/no-block-members\n                return uint40(endTimestamp);\n            }\n            return uint40(0);\n        }\n        // solium-disable-next-line security/no-block-members\n        return fund.start.add(payed.div(amount).mul(fund.period));\n    }\n\n    function getTotalPayed () public view returns (uint256) {\n        return payed;\n    }\n\n    function getPaymentAmount () public view returns (uint256) {\n        return amount;\n    }\n\n    function activateTrust() public {\n        uint256 toPay = getPaymentValue();\n        require (toPay > 0);\n        payed += toPay;\n        fund.wallet.transfer(toPay);\n        emit SentEther(fund.wallet, toPay);\n    }\n\n    function getBalance () public view returns (uint256) {\n        return address(this).balance;\n    }\n\n    function destroy() public onlyOwner() {\n        selfdestruct (self.owner);\n    }\n\n    receive () external logPayment() payable {\n    }\n\n    function version() public pure returns (bytes8) {\n        return bytes8(\"0.1\");\n    }\n}\n",
  "sourcePath": "/home/tal/code/kirobo/ki-eth-contracts/contracts/Trust.sol",
  "compiler": {
    "name": "solc",
    "version": "0.6.11+commit.5ef660b1.Emscripten.clang"
  },
  "schemaVersion": "3.0.23",
  "updatedAt": "2020-07-26T10:40:25.275Z",
  "devdoc": {
    "kind": "dev",
    "methods": {},
    "version": 1
  },
  "userdoc": {
    "kind": "user",
    "methods": {},
    "version": 1
  }
}