{
  "contractName": "Wallet2",
  "abi": [
    {
      "anonymous": false,
      "inputs": [
        {
          "indexed": false,
          "internalType": "uint256",
          "name": "newValue",
          "type": "uint256"
        }
      ],
      "name": "ValueChanged",
      "type": "event"
    },
    {
      "inputs": [],
      "name": "BACKUP_STATE_ACTIVATED",
      "outputs": [
        {
          "internalType": "uint8",
          "name": "",
          "type": "uint8"
        }
      ],
      "stateMutability": "view",
      "type": "function"
    },
    {
      "inputs": [],
      "name": "BACKUP_STATE_ENABLED",
      "outputs": [
        {
          "internalType": "uint8",
          "name": "",
          "type": "uint8"
        }
      ],
      "stateMutability": "view",
      "type": "function"
    },
    {
      "inputs": [],
      "name": "BACKUP_STATE_PENDING",
      "outputs": [
        {
          "internalType": "uint8",
          "name": "",
          "type": "uint8"
        }
      ],
      "stateMutability": "view",
      "type": "function"
    },
    {
      "inputs": [],
      "name": "BACKUP_STATE_REGISTERED",
      "outputs": [
        {
          "internalType": "uint8",
          "name": "",
          "type": "uint8"
        }
      ],
      "stateMutability": "view",
      "type": "function"
    },
    {
      "inputs": [],
      "name": "CHAIN_ID",
      "outputs": [
        {
          "internalType": "uint256",
          "name": "",
          "type": "uint256"
        }
      ],
      "stateMutability": "view",
      "type": "function"
    },
    {
      "inputs": [],
      "name": "DOMAIN_SEPARATOR",
      "outputs": [
        {
          "internalType": "bytes32",
          "name": "",
          "type": "bytes32"
        }
      ],
      "stateMutability": "view",
      "type": "function"
    },
    {
      "inputs": [],
      "name": "creator",
      "outputs": [
        {
          "internalType": "address",
          "name": "",
          "type": "address"
        }
      ],
      "stateMutability": "pure",
      "type": "function"
    },
    {
      "inputs": [
        {
          "internalType": "address",
          "name": "newOwner",
          "type": "address"
        },
        {
          "internalType": "address",
          "name": "newTarget",
          "type": "address"
        }
      ],
      "name": "init",
      "outputs": [],
      "stateMutability": "nonpayable",
      "type": "function"
    },
    {
      "inputs": [],
      "name": "owner",
      "outputs": [
        {
          "internalType": "address",
          "name": "",
          "type": "address"
        }
      ],
      "stateMutability": "view",
      "type": "function"
    },
    {
      "inputs": [],
      "name": "target",
      "outputs": [
        {
          "internalType": "address",
          "name": "",
          "type": "address"
        }
      ],
      "stateMutability": "view",
      "type": "function"
    },
    {
      "inputs": [],
      "name": "uid",
      "outputs": [
        {
          "internalType": "bytes32",
          "name": "",
          "type": "bytes32"
        }
      ],
      "stateMutability": "view",
      "type": "function"
    },
    {
      "inputs": [
        {
          "internalType": "bytes8",
          "name": "version",
          "type": "bytes8"
        }
      ],
      "name": "upgrade",
      "outputs": [],
      "stateMutability": "nonpayable",
      "type": "function"
    },
    {
      "inputs": [
        {
          "internalType": "uint256",
          "name": "value",
          "type": "uint256"
        },
        {
          "internalType": "uint256",
          "name": "mul",
          "type": "uint256"
        }
      ],
      "name": "setValue",
      "outputs": [],
      "stateMutability": "payable",
      "type": "function"
    },
    {
      "inputs": [],
      "name": "getValue",
      "outputs": [
        {
          "internalType": "uint256",
          "name": "",
          "type": "uint256"
        }
      ],
      "stateMutability": "view",
      "type": "function"
    },
    {
      "inputs": [],
      "name": "migrate",
      "outputs": [],
      "stateMutability": "nonpayable",
      "type": "function"
    },
    {
      "inputs": [],
      "name": "version",
      "outputs": [
        {
          "internalType": "bytes8",
          "name": "",
          "type": "bytes8"
        }
      ],
      "stateMutability": "pure",
      "type": "function"
    },
    {
      "inputs": [],
      "name": "removeOwner",
      "outputs": [],
      "stateMutability": "nonpayable",
      "type": "function"
    },
    {
      "inputs": [],
      "name": "removeTarget",
      "outputs": [],
      "stateMutability": "nonpayable",
      "type": "function"
    }
  ],
  "bytecode": "0x608060405234801561001057600080fd5b50600080546001600160a01b03191633179055610763806100326000396000f3fe6080604052600436106101095760003560e01c80638da5cb5b11610095578063e1bc35ab11610064578063e1bc35ab146102b4578063f09a4016146102c9578063f514ce3614610304578063f99ff3e814610319578063fec5a18d1461032e57600080fd5b80638da5cb5b146102415780638fd3ab801461025f578063b2724e2014610274578063d4b839921461029657600080fd5b80633d562561116100dc5780633d562561146101975780633e95e62c146101c257806354fd4d50146101d75780637b8d56e31461020857806385e1f4d01461022b57600080fd5b806302d05d3f1461010e578063209652551461013a578063246f8b961461015d5780633644e51514610181575b600080fd5b34801561011a57600080fd5b5060005b604080516001600160a01b039092168252519081900360200190f35b34801561014657600080fd5b506008545b60408051918252519081900360200190f35b34801561016957600080fd5b5061017f600080546001600160a01b0319169055565b005b34801561018d57600080fd5b5061014b60065481565b3480156101a357600080fd5b506101ac600181565b6040805160ff9092168252519081900360200190f35b3480156101ce57600080fd5b506101ac600381565b3480156101e357600080fd5b5062302e3160e81b604080516001600160c01b03199092168252519081900360200190f35b61017f6004803603604081101561021e57600080fd5b5080359060200135610362565b34801561023757600080fd5b5061014b60075481565b34801561024d57600080fd5b506000546001600160a01b031661011e565b34801561026b57600080fd5b5061017f6103f2565b34801561028057600080fd5b5061017f600180546001600160a01b0319169055565b3480156102a257600080fd5b506001546001600160a01b031661011e565b3480156102c057600080fd5b506101ac600281565b3480156102d557600080fd5b5061017f600480360360408110156102ec57600080fd5b506001600160a01b03813581169160200135166104a3565b34801561031057600080fd5b5060045461014b565b34801561032557600080fd5b506101ac600081565b34801561033a57600080fd5b5061017f6004803603602081101561035157600080fd5b50356001600160c01b0319166105e4565b6000546001600160a01b031633146103ad576040805162461bcd60e51b81526020600482015260096024820152683737ba1037bbb732b960b91b604482015290519081900360640190fd5b6103b78183610702565b600881905560408051918252517f93fe6d397c74fdf1402a8b72e47b68512f0510d7b98a4bc4cbdf6ac7108b3c599181900360200190a15050565b306001600160a01b03166302d05d3f6040518163ffffffff1660e01b815260040160206040518083038186803b15801561042b57600080fd5b505afa15801561043f573d6000803e3d6000fd5b505050506040513d602081101561045557600080fd5b50516001600160a01b031633146104a1576040805162461bcd60e51b815260206004820152600b60248201526a3737ba1031b932b0ba37b960a91b604482015290519081900360640190fd5b565b306001600160a01b03166302d05d3f6040518163ffffffff1660e01b815260040160206040518083038186803b1580156104dc57600080fd5b505afa1580156104f0573d6000803e3d6000fd5b505050506040513d602081101561050657600080fd5b50516001600160a01b03163314610552576040805162461bcd60e51b815260206004820152600b60248201526a3737ba1031b932b0ba37b960a91b604482015290519081900360640190fd5b6000546001600160a01b0383811691161480159061057857506001600160a01b03821615155b1561059957600080546001600160a01b0319166001600160a01b0384161790555b6001546001600160a01b038281169116148015906105bf57506001600160a01b03811615155b156105e057600180546001600160a01b0319166001600160a01b0383161790555b5050565b6000546001600160a01b0316331461062f576040805162461bcd60e51b81526020600482015260096024820152683737ba1037bbb732b960b91b604482015290519081900360640190fd5b306001600160a01b03166302d05d3f6040518163ffffffff1660e01b815260040160206040518083038186803b15801561066857600080fd5b505afa15801561067c573d6000803e3d6000fd5b505050506040513d602081101561069257600080fd5b5051604080516318beb60960e31b81526001600160c01b03198416600482015290516001600160a01b039092169163c5f5b0489160248082019260009290919082900301818387803b1580156106e757600080fd5b505af11580156106fb573d6000803e3d6000fd5b5050505050565b600081600019048311821515161561072857634e487b7160e01b81526011600452602481fd5b50029056fea2646970667358221220c7ef03673970e068ae59d62d355e540d277ca50a39e233ff645bc8e89c451bd264736f6c63430008040033",
  "immutableReferences": {},
  "source": "// SPDX-License-Identifier: UNLICENSED\n\npragma solidity ^0.8.0;\npragma abicoder v1;\n\nimport \"../lib/StorageBase.sol\";\nimport \"../lib/Storage.sol\";\nimport \"./Storage2.sol\";\n\ncontract Wallet2 is IStorage, StorageBase, Storage, Storage2 {\n    event ValueChanged(uint256 newValue);\n\n    function setValue(uint256 value, uint256 mul) public payable onlyOwner {\n        s_value = value * mul;\n        emit ValueChanged(s_value);\n    }\n\n    function getValue() public view returns (uint256) {\n        return s_value;\n    }\n\n    // IStorage Implementation\n\n    function migrate() external override onlyCreator() {}\n\n    function version() public pure override returns (bytes8) {\n        return bytes8(\"0.1\");\n    }\n\n    function removeOwner() public {\n        s_owner = address(0);\n    }\n\n    function removeTarget() public {\n        s_target = address(0);\n    }\n}\n",
  "sourcePath": "/Users/tal/code/kirobo/ki-eth-contracts/contracts/test/Wallet2.sol",
  "compiler": {
    "name": "solc",
    "version": "0.8.4+commit.c7e474f2.Emscripten.clang"
  },
  "schemaVersion": "3.3.4",
  "updatedAt": "2021-09-13T14:41:26.245Z",
  "devdoc": {
    "kind": "dev",
    "methods": {},
    "version": 1
  },
  "userdoc": {
    "kind": "user",
    "methods": {},
    "version": 1
  }
}