{
  "contractName": "Wallet",
  "abi": [
    {
      "anonymous": false,
      "inputs": [
        {
          "indexed": true,
          "internalType": "address",
          "name": "creator",
          "type": "address"
        },
        {
          "indexed": true,
          "internalType": "address",
          "name": "wallet",
          "type": "address"
        },
        {
          "indexed": true,
          "internalType": "address",
          "name": "activator",
          "type": "address"
        },
        {
          "indexed": false,
          "internalType": "uint8",
          "name": "state",
          "type": "uint8"
        }
      ],
      "name": "BackupActivated",
      "type": "event"
    },
    {
      "anonymous": false,
      "inputs": [
        {
          "indexed": true,
          "internalType": "address",
          "name": "creator",
          "type": "address"
        },
        {
          "indexed": true,
          "internalType": "address",
          "name": "owner",
          "type": "address"
        },
        {
          "indexed": true,
          "internalType": "address",
          "name": "wallet",
          "type": "address"
        },
        {
          "indexed": false,
          "internalType": "uint32",
          "name": "timeout",
          "type": "uint32"
        },
        {
          "indexed": false,
          "internalType": "uint40",
          "name": "timestamp",
          "type": "uint40"
        },
        {
          "indexed": false,
          "internalType": "uint8",
          "name": "state",
          "type": "uint8"
        }
      ],
      "name": "BackupChanged",
      "type": "event"
    },
    {
      "anonymous": false,
      "inputs": [
        {
          "indexed": true,
          "internalType": "address",
          "name": "creator",
          "type": "address"
        },
        {
          "indexed": true,
          "internalType": "address",
          "name": "wallet",
          "type": "address"
        },
        {
          "indexed": false,
          "internalType": "uint40",
          "name": "timestamp",
          "type": "uint40"
        },
        {
          "indexed": false,
          "internalType": "uint8",
          "name": "state",
          "type": "uint8"
        }
      ],
      "name": "BackupEnabled",
      "type": "event"
    },
    {
      "anonymous": false,
      "inputs": [
        {
          "indexed": true,
          "internalType": "address",
          "name": "creator",
          "type": "address"
        },
        {
          "indexed": true,
          "internalType": "address",
          "name": "payee",
          "type": "address"
        },
        {
          "indexed": false,
          "internalType": "uint256",
          "name": "amount",
          "type": "uint256"
        },
        {
          "indexed": false,
          "internalType": "bool",
          "name": "reward",
          "type": "bool"
        }
      ],
      "name": "BackupPayment",
      "type": "event"
    },
    {
      "anonymous": false,
      "inputs": [
        {
          "indexed": true,
          "internalType": "address",
          "name": "creator",
          "type": "address"
        },
        {
          "indexed": true,
          "internalType": "address",
          "name": "wallet",
          "type": "address"
        },
        {
          "indexed": false,
          "internalType": "uint8",
          "name": "state",
          "type": "uint8"
        }
      ],
      "name": "BackupRegistered",
      "type": "event"
    },
    {
      "anonymous": false,
      "inputs": [
        {
          "indexed": true,
          "internalType": "address",
          "name": "creator",
          "type": "address"
        },
        {
          "indexed": true,
          "internalType": "address",
          "name": "owner",
          "type": "address"
        },
        {
          "indexed": true,
          "internalType": "address",
          "name": "wallet",
          "type": "address"
        },
        {
          "indexed": false,
          "internalType": "uint8",
          "name": "state",
          "type": "uint8"
        }
      ],
      "name": "BackupRemoved",
      "type": "event"
    },
    {
      "anonymous": false,
      "inputs": [
        {
          "indexed": true,
          "internalType": "address",
          "name": "creator",
          "type": "address"
        },
        {
          "indexed": true,
          "internalType": "address",
          "name": "activator",
          "type": "address"
        },
        {
          "indexed": false,
          "internalType": "address[]",
          "name": "wallets",
          "type": "address[]"
        }
      ],
      "name": "InheritanceActivated",
      "type": "event"
    },
    {
      "anonymous": false,
      "inputs": [
        {
          "indexed": true,
          "internalType": "address",
          "name": "creator",
          "type": "address"
        },
        {
          "indexed": true,
          "internalType": "address",
          "name": "owner",
          "type": "address"
        },
        {
          "indexed": false,
          "internalType": "uint40",
          "name": "timeout",
          "type": "uint40"
        },
        {
          "indexed": false,
          "internalType": "uint40",
          "name": "timestamp",
          "type": "uint40"
        }
      ],
      "name": "InheritanceChanged",
      "type": "event"
    },
    {
      "anonymous": false,
      "inputs": [
        {
          "indexed": true,
          "internalType": "address",
          "name": "creator",
          "type": "address"
        },
        {
          "indexed": true,
          "internalType": "address",
          "name": "owner",
          "type": "address"
        },
        {
          "indexed": false,
          "internalType": "address[]",
          "name": "wallets",
          "type": "address[]"
        },
        {
          "indexed": false,
          "internalType": "uint16[]",
          "name": "bps",
          "type": "uint16[]"
        }
      ],
      "name": "InheritanceHeirsChanged",
      "type": "event"
    },
    {
      "anonymous": false,
      "inputs": [
        {
          "indexed": true,
          "internalType": "address",
          "name": "creator",
          "type": "address"
        },
        {
          "indexed": true,
          "internalType": "address",
          "name": "payee",
          "type": "address"
        },
        {
          "indexed": false,
          "internalType": "uint256",
          "name": "amount",
          "type": "uint256"
        },
        {
          "indexed": false,
          "internalType": "bool",
          "name": "reward",
          "type": "bool"
        }
      ],
      "name": "InheritancePayment",
      "type": "event"
    },
    {
      "anonymous": false,
      "inputs": [
        {
          "indexed": true,
          "internalType": "address",
          "name": "creator",
          "type": "address"
        },
        {
          "indexed": true,
          "internalType": "address",
          "name": "owner",
          "type": "address"
        }
      ],
      "name": "InheritanceRemoved",
      "type": "event"
    },
    {
      "anonymous": false,
      "inputs": [
        {
          "indexed": true,
          "internalType": "address",
          "name": "creator",
          "type": "address"
        },
        {
          "indexed": true,
          "internalType": "address",
          "name": "owner",
          "type": "address"
        },
        {
          "indexed": true,
          "internalType": "address",
          "name": "pendingOwner",
          "type": "address"
        },
        {
          "indexed": false,
          "internalType": "uint8",
          "name": "state",
          "type": "uint8"
        }
      ],
      "name": "OwnershipReclaimed",
      "type": "event"
    },
    {
      "anonymous": false,
      "inputs": [
        {
          "indexed": true,
          "internalType": "address",
          "name": "creator",
          "type": "address"
        },
        {
          "indexed": true,
          "internalType": "address",
          "name": "previousOwner",
          "type": "address"
        },
        {
          "indexed": true,
          "internalType": "address",
          "name": "newOwner",
          "type": "address"
        },
        {
          "indexed": false,
          "internalType": "uint8",
          "name": "state",
          "type": "uint8"
        }
      ],
      "name": "OwnershipTransferred",
      "type": "event"
    },
    {
      "anonymous": false,
      "inputs": [
        {
          "indexed": true,
          "internalType": "address",
          "name": "creator",
          "type": "address"
        },
        {
          "indexed": true,
          "internalType": "address",
          "name": "owner",
          "type": "address"
        },
        {
          "indexed": true,
          "internalType": "address",
          "name": "to",
          "type": "address"
        },
        {
          "indexed": false,
          "internalType": "uint256",
          "name": "value",
          "type": "uint256"
        }
      ],
      "name": "SentEther",
      "type": "event"
    },
    {
      "anonymous": false,
      "inputs": [
        {
          "indexed": true,
          "internalType": "address",
          "name": "creator",
          "type": "address"
        },
        {
          "indexed": true,
          "internalType": "address",
          "name": "token",
          "type": "address"
        },
        {
          "indexed": false,
          "internalType": "address",
          "name": "from",
          "type": "address"
        },
        {
          "indexed": true,
          "internalType": "address",
          "name": "to",
          "type": "address"
        },
        {
          "indexed": false,
          "internalType": "uint256",
          "name": "value",
          "type": "uint256"
        }
      ],
      "name": "Transfer20",
      "type": "event"
    },
    {
      "anonymous": false,
      "inputs": [
        {
          "indexed": true,
          "internalType": "address",
          "name": "creator",
          "type": "address"
        },
        {
          "indexed": true,
          "internalType": "address",
          "name": "token",
          "type": "address"
        },
        {
          "indexed": false,
          "internalType": "address",
          "name": "from",
          "type": "address"
        },
        {
          "indexed": true,
          "internalType": "address",
          "name": "to",
          "type": "address"
        },
        {
          "indexed": false,
          "internalType": "uint256",
          "name": "id",
          "type": "uint256"
        },
        {
          "indexed": false,
          "internalType": "bytes",
          "name": "data",
          "type": "bytes"
        }
      ],
      "name": "Transfer721",
      "type": "event"
    },
    {
      "stateMutability": "nonpayable",
      "type": "fallback"
    },
    {
      "inputs": [],
      "name": "BACKUP_STATE_ACTIVATED",
      "outputs": [
        {
          "internalType": "uint8",
          "name": "",
          "type": "uint8"
        }
      ],
      "stateMutability": "view",
      "type": "function"
    },
    {
      "inputs": [],
      "name": "BACKUP_STATE_ENABLED",
      "outputs": [
        {
          "internalType": "uint8",
          "name": "",
          "type": "uint8"
        }
      ],
      "stateMutability": "view",
      "type": "function"
    },
    {
      "inputs": [],
      "name": "BACKUP_STATE_PENDING",
      "outputs": [
        {
          "internalType": "uint8",
          "name": "",
          "type": "uint8"
        }
      ],
      "stateMutability": "view",
      "type": "function"
    },
    {
      "inputs": [],
      "name": "BACKUP_STATE_REGISTERED",
      "outputs": [
        {
          "internalType": "uint8",
          "name": "",
          "type": "uint8"
        }
      ],
      "stateMutability": "view",
      "type": "function"
    },
    {
      "inputs": [],
      "name": "accept",
      "outputs": [],
      "stateMutability": "nonpayable",
      "type": "function"
    },
    {
      "inputs": [],
      "name": "activateBackup",
      "outputs": [],
      "stateMutability": "nonpayable",
      "type": "function"
    },
    {
      "inputs": [],
      "name": "activateInheritance",
      "outputs": [],
      "stateMutability": "nonpayable",
      "type": "function"
    },
    {
      "inputs": [],
      "name": "claimOwnership",
      "outputs": [],
      "stateMutability": "nonpayable",
      "type": "function"
    },
    {
      "inputs": [],
      "name": "clearInheritance",
      "outputs": [],
      "stateMutability": "nonpayable",
      "type": "function"
    },
    {
      "inputs": [],
      "name": "creator",
      "outputs": [
        {
          "internalType": "address",
          "name": "",
          "type": "address"
        }
      ],
      "stateMutability": "pure",
      "type": "function"
    },
    {
      "inputs": [],
      "name": "decline",
      "outputs": [],
      "stateMutability": "nonpayable",
      "type": "function"
    },
    {
      "inputs": [],
      "name": "enable",
      "outputs": [],
      "stateMutability": "nonpayable",
      "type": "function"
    },
    {
      "inputs": [],
      "name": "getBackupState",
      "outputs": [
        {
          "internalType": "uint8",
          "name": "",
          "type": "uint8"
        }
      ],
      "stateMutability": "view",
      "type": "function"
    },
    {
      "inputs": [],
      "name": "getBackupTimeLeft",
      "outputs": [
        {
          "internalType": "uint40",
          "name": "_res",
          "type": "uint40"
        }
      ],
      "stateMutability": "view",
      "type": "function"
    },
    {
      "inputs": [],
      "name": "getBackupTimeout",
      "outputs": [
        {
          "internalType": "uint40",
          "name": "",
          "type": "uint40"
        }
      ],
      "stateMutability": "view",
      "type": "function"
    },
    {
      "inputs": [],
      "name": "getBackupTimestamp",
      "outputs": [
        {
          "internalType": "uint40",
          "name": "",
          "type": "uint40"
        }
      ],
      "stateMutability": "view",
      "type": "function"
    },
    {
      "inputs": [],
      "name": "getBackupWallet",
      "outputs": [
        {
          "internalType": "address",
          "name": "",
          "type": "address"
        }
      ],
      "stateMutability": "view",
      "type": "function"
    },
    {
      "inputs": [],
      "name": "getHeirs",
      "outputs": [
        {
          "internalType": "bytes32[8]",
          "name": "heirs",
          "type": "bytes32[8]"
        }
      ],
      "stateMutability": "view",
      "type": "function"
    },
    {
      "inputs": [],
      "name": "getInheritanceTimeLeft",
      "outputs": [
        {
          "internalType": "uint40",
          "name": "_res",
          "type": "uint40"
        }
      ],
      "stateMutability": "view",
      "type": "function"
    },
    {
      "inputs": [],
      "name": "getInheritanceTimeout",
      "outputs": [
        {
          "internalType": "uint40",
          "name": "",
          "type": "uint40"
        }
      ],
      "stateMutability": "view",
      "type": "function"
    },
    {
      "inputs": [],
      "name": "getInheritanceTimestamp",
      "outputs": [
        {
          "internalType": "uint40",
          "name": "",
          "type": "uint40"
        }
      ],
      "stateMutability": "view",
      "type": "function"
    },
    {
      "inputs": [],
      "name": "getOwner",
      "outputs": [
        {
          "internalType": "address",
          "name": "",
          "type": "address"
        }
      ],
      "stateMutability": "view",
      "type": "function"
    },
    {
      "inputs": [],
      "name": "getTotalBPS",
      "outputs": [
        {
          "internalType": "uint256",
          "name": "total",
          "type": "uint256"
        }
      ],
      "stateMutability": "view",
      "type": "function"
    },
    {
      "inputs": [],
      "name": "getTotalTransfered",
      "outputs": [
        {
          "internalType": "uint256",
          "name": "total",
          "type": "uint256"
        }
      ],
      "stateMutability": "view",
      "type": "function"
    },
    {
      "inputs": [
        {
          "internalType": "address",
          "name": "__owner",
          "type": "address"
        },
        {
          "internalType": "address",
          "name": "__target",
          "type": "address"
        }
      ],
      "name": "init",
      "outputs": [],
      "stateMutability": "nonpayable",
      "type": "function"
    },
    {
      "inputs": [],
      "name": "isBackup",
      "outputs": [
        {
          "internalType": "bool",
          "name": "",
          "type": "bool"
        }
      ],
      "stateMutability": "view",
      "type": "function"
    },
    {
      "inputs": [],
      "name": "isInheritanceActivated",
      "outputs": [
        {
          "internalType": "bool",
          "name": "",
          "type": "bool"
        }
      ],
      "stateMutability": "view",
      "type": "function"
    },
    {
      "inputs": [],
      "name": "isInheritanceEnabled",
      "outputs": [
        {
          "internalType": "bool",
          "name": "",
          "type": "bool"
        }
      ],
      "stateMutability": "view",
      "type": "function"
    },
    {
      "inputs": [],
      "name": "isOwner",
      "outputs": [
        {
          "internalType": "bool",
          "name": "",
          "type": "bool"
        }
      ],
      "stateMutability": "view",
      "type": "function"
    },
    {
      "inputs": [],
      "name": "owner",
      "outputs": [
        {
          "internalType": "address",
          "name": "",
          "type": "address"
        }
      ],
      "stateMutability": "view",
      "type": "function"
    },
    {
      "inputs": [],
      "name": "reclaimOwnership",
      "outputs": [],
      "stateMutability": "nonpayable",
      "type": "function"
    },
    {
      "inputs": [],
      "name": "removeBackup",
      "outputs": [],
      "stateMutability": "nonpayable",
      "type": "function"
    },
    {
      "inputs": [
        {
          "internalType": "address",
          "name": "_wallet",
          "type": "address"
        },
        {
          "internalType": "uint32",
          "name": "_timeout",
          "type": "uint32"
        }
      ],
      "name": "setBackup",
      "outputs": [],
      "stateMutability": "nonpayable",
      "type": "function"
    },
    {
      "inputs": [
        {
          "internalType": "address payable[]",
          "name": "_wallets",
          "type": "address[]"
        },
        {
          "internalType": "uint16[]",
          "name": "_bps",
          "type": "uint16[]"
        }
      ],
      "name": "setHeirs",
      "outputs": [],
      "stateMutability": "nonpayable",
      "type": "function"
    },
    {
      "inputs": [
        {
          "internalType": "uint32",
          "name": "_timeout",
          "type": "uint32"
        }
      ],
      "name": "setInheritance",
      "outputs": [],
      "stateMutability": "nonpayable",
      "type": "function"
    },
    {
      "inputs": [],
      "name": "target",
      "outputs": [
        {
          "internalType": "address",
          "name": "",
          "type": "address"
        }
      ],
      "stateMutability": "view",
      "type": "function"
    },
    {
      "inputs": [
        {
          "internalType": "bytes8",
          "name": "_version",
          "type": "bytes8"
        }
      ],
      "name": "upgrade",
      "outputs": [],
      "stateMutability": "nonpayable",
      "type": "function"
    },
    {
      "inputs": [
        {
          "internalType": "address payable",
          "name": "_to",
          "type": "address"
        },
        {
          "internalType": "uint256",
          "name": "_value",
          "type": "uint256"
        }
      ],
      "name": "sendEther",
      "outputs": [],
      "stateMutability": "nonpayable",
      "type": "function"
    },
    {
      "inputs": [
        {
          "internalType": "address",
          "name": "_token",
          "type": "address"
        },
        {
          "internalType": "address",
          "name": "_to",
          "type": "address"
        },
        {
          "internalType": "uint256",
          "name": "_value",
          "type": "uint256"
        }
      ],
      "name": "transfer20",
      "outputs": [],
      "stateMutability": "nonpayable",
      "type": "function"
    },
    {
      "inputs": [
        {
          "internalType": "address",
          "name": "_token",
          "type": "address"
        },
        {
          "internalType": "address",
          "name": "_from",
          "type": "address"
        },
        {
          "internalType": "address",
          "name": "_to",
          "type": "address"
        },
        {
          "internalType": "uint256",
          "name": "_value",
          "type": "uint256"
        }
      ],
      "name": "transferFrom20",
      "outputs": [],
      "stateMutability": "nonpayable",
      "type": "function"
    },
    {
      "inputs": [
        {
          "internalType": "address",
          "name": "_token",
          "type": "address"
        },
        {
          "internalType": "address",
          "name": "_to",
          "type": "address"
        },
        {
          "internalType": "uint256",
          "name": "_value",
          "type": "uint256"
        }
      ],
      "name": "transfer721",
      "outputs": [],
      "stateMutability": "nonpayable",
      "type": "function"
    },
    {
      "inputs": [
        {
          "internalType": "address",
          "name": "_token",
          "type": "address"
        },
        {
          "internalType": "address",
          "name": "_from",
          "type": "address"
        },
        {
          "internalType": "address",
          "name": "_to",
          "type": "address"
        },
        {
          "internalType": "uint256",
          "name": "_id",
          "type": "uint256"
        }
      ],
      "name": "transferFrom721",
      "outputs": [],
      "stateMutability": "nonpayable",
      "type": "function"
    },
    {
      "inputs": [
        {
          "internalType": "address",
          "name": "_token",
          "type": "address"
        },
        {
          "internalType": "address",
          "name": "_from",
          "type": "address"
        },
        {
          "internalType": "address",
          "name": "_to",
          "type": "address"
        },
        {
          "internalType": "uint256",
          "name": "_id",
          "type": "uint256"
        }
      ],
      "name": "safeTransferFrom721",
      "outputs": [],
      "stateMutability": "nonpayable",
      "type": "function"
    },
    {
      "inputs": [
        {
          "internalType": "address",
          "name": "_token",
          "type": "address"
        },
        {
          "internalType": "address",
          "name": "_from",
          "type": "address"
        },
        {
          "internalType": "address",
          "name": "_to",
          "type": "address"
        },
        {
          "internalType": "uint256",
          "name": "_id",
          "type": "uint256"
        },
        {
          "internalType": "bytes",
          "name": "_data",
          "type": "bytes"
        }
      ],
      "name": "safeTransferFrom721$Data",
      "outputs": [],
      "stateMutability": "nonpayable",
      "type": "function"
    },
    {
      "inputs": [],
      "name": "getBalance",
      "outputs": [
        {
          "internalType": "uint256",
          "name": "",
          "type": "uint256"
        }
      ],
      "stateMutability": "view",
      "type": "function"
    },
    {
      "inputs": [
        {
          "internalType": "address",
          "name": "_token",
          "type": "address"
        }
      ],
      "name": "balanceOf20",
      "outputs": [
        {
          "internalType": "uint256",
          "name": "",
          "type": "uint256"
        }
      ],
      "stateMutability": "view",
      "type": "function"
    },
    {
      "inputs": [
        {
          "internalType": "address",
          "name": "_token",
          "type": "address"
        }
      ],
      "name": "balanceOf721",
      "outputs": [
        {
          "internalType": "uint256",
          "name": "",
          "type": "uint256"
        }
      ],
      "stateMutability": "view",
      "type": "function"
    },
    {
      "inputs": [
        {
          "internalType": "address",
          "name": "_token",
          "type": "address"
        }
      ],
      "name": "is20Safe",
      "outputs": [
        {
          "internalType": "bool",
          "name": "",
          "type": "bool"
        }
      ],
      "stateMutability": "view",
      "type": "function"
    },
    {
      "inputs": [
        {
          "internalType": "address",
          "name": "_token",
          "type": "address"
        }
      ],
      "name": "is721Safe",
      "outputs": [
        {
          "internalType": "bool",
          "name": "",
          "type": "bool"
        }
      ],
      "stateMutability": "view",
      "type": "function"
    },
    {
      "inputs": [
        {
          "internalType": "address",
          "name": "",
          "type": "address"
        },
        {
          "internalType": "address",
          "name": "",
          "type": "address"
        },
        {
          "internalType": "uint256",
          "name": "",
          "type": "uint256"
        },
        {
          "internalType": "bytes",
          "name": "",
          "type": "bytes"
        }
      ],
      "name": "onERC721Received",
      "outputs": [
        {
          "internalType": "bytes4",
          "name": "",
          "type": "bytes4"
        }
      ],
      "stateMutability": "pure",
      "type": "function"
    },
    {
      "inputs": [],
      "name": "migrate",
      "outputs": [],
      "stateMutability": "nonpayable",
      "type": "function"
    },
    {
      "inputs": [],
      "name": "version",
      "outputs": [
        {
          "internalType": "bytes8",
          "name": "",
          "type": "bytes8"
        }
      ],
      "stateMutability": "pure",
      "type": "function"
    }
  ],
  "bytecode": "0x608060405234801561001057600080fd5b50600080546001600160a01b03191633179055614cee806100326000396000f3fe608060405234801561001057600080fd5b506004361061030b5760003560e01c80638da5cb5b1161019d578063c572f15d116100e9578063e520d104116100a2578063f808a3091161007c578063f808a3091461062f578063f99ff3e814610642578063fdafd4eb1461064a578063fec5a18d146106625761030b565b8063e520d10414610601578063e767e13714610614578063f09a40161461061c5761030b565b8063c572f15d146105b5578063cd7dbf4a146105bd578063d4b83992146105d5578063dfc07588146105e6578063e1bc35ab146105f9578063e2e1d83b146104e35761030b565b8063a05a439611610156578063af1fd6f811610130578063af1fd6f814610578578063b9b3abe014610587578063c1756a2c1461059a578063c1c8277f146105ad5761030b565b8063a05a439614610555578063a3907d7114610568578063ab040107146105705761030b565b80638da5cb5b146104f65780638f32d59b146105075780638fd3ab801461051b578063916b07de146105235780639db652f4146105365780639e091e871461054d5761030b565b806336d62d401161025c5780634eae51f41161021557806354fd4d50116101ef57806354fd4d50146104ba5780637396f189146104d05780637db683ee146104e3578063893d20e8146104f65761030b565b80634eae51f41461047f5780634f60c5221461049457806350ea2297146104a75761030b565b806336d62d40146104345780633d5625611461043c5780633e95e62c14610456578063447046bf1461045e57806349629f081461046f5780634e71e0c8146104775761030b565b8063150b7a02116102c95780632852b71c116102a35780632852b71c146104095780632a5dc72a146104115780632beac3bc146104195780632e2625421461042c5761030b565b8063150b7a02146103a957806318f9c690146103e0578063283faec7146103f65761030b565b806253d7b01461030d57806302d05d3f1461033f57806303c01e681461035a5780630ca9dcca1461037e57806312065fe014610391578063120e860c146103a1575b005b610324600c54600160381b900464ffffffffff1690565b60405164ffffffffff90911681526020015b60405180910390f35b60005b6040516001600160a01b039091168152602001610336565b61036e6002546001600160a01b0316331490565b6040519015158152602001610336565b61030b61038c366004614669565b610675565b475b604051908152602001610336565b61030b6108d3565b6103c76103b7366004614776565b630a85bd0160e11b949350505050565b6040516001600160e01b03199091168152602001610336565b610324600254600160c81b900463ffffffff1690565b61030b610404366004614669565b610e06565b61030b611026565b600354610393565b61030b610427366004614736565b61117e565b61030b6113b1565b610393611605565b610444600181565b60405160ff9091168152602001610336565b610444600381565b6002546001600160a01b0316610342565b61030b61169b565b61030b611d85565b610487612027565b6040516103369190614aa9565b61036e6104a23660046145c7565b61210c565b61030b6104b5366004614934565b612273565b60405164312e322e3160d81b8152602001610336565b61030b6104de3660046147e0565b6124bf565b6103936104f13660046145c7565b612990565b6000546001600160a01b0316610342565b61036e6000546001600160a01b0316331490565b61030b612a0a565b61030b610531366004614736565b612ac9565b610324600254600160a01b900464ffffffffff1690565b610324612b95565b61030b6105633660046146b9565b612c39565b61030b612e69565b61030b613038565b600c5464ffffffffff16610324565b61030b610595366004614669565b6130b9565b61030b6105a8366004614606565b613313565b61030b613549565b6103246136ad565b61036e600c54600160281b900460ff16151560011490565b6001546001600160a01b0316610342565b61036e6105f43660046145c7565b61375e565b610444600281565b61030b61060f366004614814565b613871565b61030b613fb5565b61030b61062a366004614631565b61402a565b610444600254600160e81b900460ff1690565b610444600081565b61036e600c54600160301b900460ff16151560011490565b61030b6106703660046148f4565b61417b565b306001600160a01b0316638da5cb5b6040518163ffffffff1660e01b815260040160206040518083038186803b1580156106ae57600080fd5b505afa1580156106c2573d6000803e3d6000fd5b505050506040513d601f19601f820116820180604052508101906106e691906145ea565b6001600160a01b0316336001600160a01b03161480156107135750600254600160e81b900460ff16600314155b6107385760405162461bcd60e51b815260040161072f90614b26565b60405180910390fd5b6001600160a01b03841661075e5760405162461bcd60e51b815260040161072f90614aff565b60006001600160a01b038416156107755783610777565b305b9050826001600160a01b0316856001600160a01b0316306001600160a01b03166302d05d3f6040518163ffffffff1660e01b815260040160206040518083038186803b1580156107c657600080fd5b505afa1580156107da573d6000803e3d6000fd5b505050506040513d601f19601f820116820180604052508101906107fe91906145ea565b6001600160a01b03167fc604e07085b3abf38e6f3918d5247f94fdde3c9b2ad1dbf93421ae055c34d823848660405161085b9291906001600160a01b03929092168252602082015260606040820181905260009082015260800190565b60405180910390a46040516323b872dd60e01b81523060048201526001600160a01b038481166024830152604482018490528616906323b872dd906064015b600060405180830381600087803b1580156108b457600080fd5b505af11580156108c8573d6000803e3d6000fd5b505050505050505050565b60028054600160e81b900460ff16146109235760405162461bcd60e51b8152602060048201526012602482015271189858dadd5c081b9bdd08195b98589b195960721b604482015260640161072f565b6002546001600160a01b031661096e5760405162461bcd60e51b815260206004820152601060248201526f189858dadd5c081b9bdd08195e1a5cdd60821b604482015260640161072f565b6109766136ad565b64ffffffffff16156109b65760405162461bcd60e51b8152602060048201526009602482015268746f6f206561726c7960b81b604482015260640161072f565b600254600160e81b900460ff166003146109de576002805460ff60e81b1916600360e81b1790555b600254604080516302d05d3f60e01b8152905133926001600160a01b03169130916302d05d3f91600480820192602092909190829003018186803b158015610a2557600080fd5b505afa158015610a39573d6000803e3d6000fd5b505050506040513d601f19601f82011682018060405250810190610a5d91906145ea565b600254604051600160e81b90910460ff1681526001600160a01b0391909116907fd4e12feccfc0af60abe3d9f07eaf999abd3329b4570bf80fdb4d5019f7f823d89060200160405180910390a460004790506000306001600160a01b03166302d05d3f6040518163ffffffff1660e01b815260040160206040518083038186803b158015610aea57600080fd5b505afa158015610afe573d6000803e3d6000fd5b505050506040513d601f19601f82011682018060405250810190610b2291906145ea565b6001600160a01b0316637dc0d1d06040518163ffffffff1660e01b815260040160206040518083038186803b158015610b5a57600080fd5b505afa158015610b6e573d6000803e3d6000fd5b505050506040513d601f19601f82011682018060405250810190610b9291906145ea565b6001600160a01b031663633423be6040518163ffffffff1660e01b815260040160206040518083038186803b158015610bca57600080fd5b505afa158015610bde573d6000803e3d6000fd5b505050506040513d601f19601f82011682018060405250810190610c0291906145ea565b90506001600160a01b0381166108fc610c1c606485614be0565b6040518115909202916000818181858888f1935050505015610d0057806001600160a01b0316306001600160a01b03166302d05d3f6040518163ffffffff1660e01b815260040160206040518083038186803b158015610c7b57600080fd5b505afa158015610c8f573d6000803e3d6000fd5b505050506040513d601f19601f82011682018060405250810190610cb391906145ea565b6001600160a01b03167f6e66b5d043b2434fe7d48f9b96e07c1fa4d6c6a7d7ac43fc1afc30267b368698610ce8606486614be0565b60408051918252600060208301520160405180910390a35b336108fc610d106103e885614be0565b6040518115909202916000818181858888f19350505050158015610d38573d6000803e3d6000fd5b50336001600160a01b0316306001600160a01b03166302d05d3f6040518163ffffffff1660e01b815260040160206040518083038186803b158015610d7c57600080fd5b505afa158015610d90573d6000803e3d6000fd5b505050506040513d601f19601f82011682018060405250810190610db491906145ea565b6001600160a01b03167f6e66b5d043b2434fe7d48f9b96e07c1fa4d6c6a7d7ac43fc1afc30267b368698610dea6103e886614be0565b6040805191825260016020830152015b60405180910390a35050565b306001600160a01b0316638da5cb5b6040518163ffffffff1660e01b815260040160206040518083038186803b158015610e3f57600080fd5b505afa158015610e53573d6000803e3d6000fd5b505050506040513d601f19601f82011682018060405250810190610e7791906145ea565b6001600160a01b0316336001600160a01b0316148015610ea45750600254600160e81b900460ff16600314155b610ec05760405162461bcd60e51b815260040161072f90614b26565b6001600160a01b038416610ee65760405162461bcd60e51b815260040161072f90614aff565b60006001600160a01b03841615610efd5783610eff565b305b9050826001600160a01b0316856001600160a01b0316306001600160a01b03166302d05d3f6040518163ffffffff1660e01b815260040160206040518083038186803b158015610f4e57600080fd5b505afa158015610f62573d6000803e3d6000fd5b505050506040513d601f19601f82011682018060405250810190610f8691906145ea565b6001600160a01b03167fc604e07085b3abf38e6f3918d5247f94fdde3c9b2ad1dbf93421ae055c34d8238486604051610fe39291906001600160a01b03929092168252602082015260606040820181905260009082015260800190565b60405180910390a4604051632142170760e11b81523060048201526001600160a01b038481166024830152604482018490528616906342842e0e9060640161089a565b6002546001600160a01b031633146110505760405162461bcd60e51b815260040161072f90614adb565b600254600160e81b900460ff161561109f5760405162461bcd60e51b81526020600482015260126024820152716261636b7570206e6f742070656e64696e6760701b604482015260640161072f565b6002805460ff60e81b1916600160e81b1790819055604080516302d05d3f60e01b815290516001600160a01b039092169130916302d05d3f916004808301926020929190829003018186803b1580156110f757600080fd5b505afa15801561110b573d6000803e3d6000fd5b505050506040513d601f19601f8201168201806040525081019061112f91906145ea565b600254604051600160e81b90910460ff1681526001600160a01b0391909116907f9b13e751ba276b9ecf994e9ecc38b895af7cded05c07f20e506f4a57f98dc3d39060200160405180910390a3565b306001600160a01b0316638da5cb5b6040518163ffffffff1660e01b815260040160206040518083038186803b1580156111b757600080fd5b505afa1580156111cb573d6000803e3d6000fd5b505050506040513d601f19601f820116820180604052508101906111ef91906145ea565b6001600160a01b0316336001600160a01b031614801561121c5750600254600160e81b900460ff16600314155b6112385760405162461bcd60e51b815260040161072f90614b26565b6001600160a01b03831661125e5760405162461bcd60e51b815260040161072f90614aff565b816001600160a01b0316836001600160a01b0316306001600160a01b03166302d05d3f6040518163ffffffff1660e01b815260040160206040518083038186803b1580156112ab57600080fd5b505afa1580156112bf573d6000803e3d6000fd5b505050506040513d601f19601f820116820180604052508101906112e391906145ea565b60408051308152602081018690526001600160a01b0392909216917fd3c84574047e20dd5aac4c7a9e0b36668586ab67fae246b0259385a8d68ff832910160405180910390a460405163a9059cbb60e01b81526001600160a01b0383811660048301526024820183905284169063a9059cbb90604401602060405180830381600087803b15801561137357600080fd5b505af1158015611387573d6000803e3d6000fd5b505050506040513d601f19601f820116820180604052508101906113ab91906148d4565b50505050565b306001600160a01b0316638da5cb5b6040518163ffffffff1660e01b815260040160206040518083038186803b1580156113ea57600080fd5b505afa1580156113fe573d6000803e3d6000fd5b505050506040513d601f19601f8201168201806040525081019061142291906145ea565b6001600160a01b0316336001600160a01b031614801561144f5750600254600160e81b900460ff16600314155b61146b5760405162461bcd60e51b815260040161072f90614b26565b336001600160a01b0316306001600160a01b03166302d05d3f6040518163ffffffff1660e01b815260040160206040518083038186803b1580156114ae57600080fd5b505afa1580156114c2573d6000803e3d6000fd5b505050506040513d601f19601f820116820180604052508101906114e691906145ea565b6001600160a01b03167f386ee292f5f7e1923094e3f15e2c182b0ffaa3b312df32094e994d8e0f1d393a60405160405180910390a3600c5464ffffffffff161561153957600c805464ffffffffff191690555b600c54600160281b900460ff161561155b57600c805465ff0000000000191690555b600c54600160301b900460ff161561157e57600c805466ff000000000000191690555b6003541561158c5760006003555b60005b6008811015611602576000600482600881106115bb57634e487b7160e01b600052603260045260246000fd5b0180549091506001600160a01b03166115d45750611602565b8054600160a01b900460ff16156115f157805460ff60a01b191681555b506115fb81614c5c565b905061158f565b50565b6000805b60088110156116975760006004826008811061163557634e487b7160e01b600052603260045260246000fd5b01546001600160a01b0316141561164b57611697565b6004816008811061166c57634e487b7160e01b600052603260045260246000fd5b015461168390600160a81b900461ffff1683614bc8565b91508061168f81614c5c565b915050611609565b5090565b600c54600160281b900460ff1615156001146116f95760405162461bcd60e51b815260206004820152601a60248201527f696e6865726974616e6365206973206e6f7420656e61626c6564000000000000604482015260640161072f565b600c54600160301b900460ff16156117535760405162461bcd60e51b815260206004820152601860248201527f696e6865726974616e6365206973206163746976617465640000000000000000604482015260640161072f565b61175b612b95565b64ffffffffff161561179b5760405162461bcd60e51b8152602060048201526009602482015268746f6f206561726c7960b81b604482015260640161072f565b600c805466ff0000000000001916600160301b179055604080516302d05d3f60e01b81529051479160009130916302d05d3f916004828101926020929190829003018186803b1580156117ed57600080fd5b505afa158015611801573d6000803e3d6000fd5b505050506040513d601f19601f8201168201806040525081019061182591906145ea565b6001600160a01b0316637dc0d1d06040518163ffffffff1660e01b815260040160206040518083038186803b15801561185d57600080fd5b505afa158015611871573d6000803e3d6000fd5b505050506040513d601f19601f8201168201806040525081019061189591906145ea565b6001600160a01b031663633423be6040518163ffffffff1660e01b815260040160206040518083038186803b1580156118cd57600080fd5b505afa1580156118e1573d6000803e3d6000fd5b505050506040513d601f19601f8201168201806040525081019061190591906145ea565b90506001600160a01b0381166108fc61191f606485614be0565b6040518115909202916000818181858888f1935050505015611a0357806001600160a01b0316306001600160a01b03166302d05d3f6040518163ffffffff1660e01b815260040160206040518083038186803b15801561197e57600080fd5b505afa158015611992573d6000803e3d6000fd5b505050506040513d601f19601f820116820180604052508101906119b691906145ea565b6001600160a01b03167f0d0176dbbceb582bb24dc965bd866421e9de5afe8bb827dc2a48df2826ad40fd6119eb606486614be0565b60408051918252600060208301520160405180910390a35b336108fc611a136103e885614be0565b6040518115909202916000818181858888f19350505050158015611a3b573d6000803e3d6000fd5b50336001600160a01b0316306001600160a01b03166302d05d3f6040518163ffffffff1660e01b815260040160206040518083038186803b158015611a7f57600080fd5b505afa158015611a93573d6000803e3d6000fd5b505050506040513d601f19601f82011682018060405250810190611ab791906145ea565b6001600160a01b03167f0d0176dbbceb582bb24dc965bd866421e9de5afe8bb827dc2a48df2826ad40fd611aed6103e886614be0565b60408051918252600160208301520160405180910390a347915060005b6008811015611bd657600060048260088110611b3657634e487b7160e01b600052603260045260246000fd5b0180549091506001600160a01b0316611b4f5750611bd6565b8054600160a81b900461ffff1615611bc35780546001600160a01b038116906108fc9061271090611b8b90600160a81b900461ffff1688614c00565b611b959190614be0565b6040518115909202916000818181858888f18554901515600160a01b0260ff60a01b19909116178555505050505b5080611bce81614c5c565b915050611b0a565b611be04784614c1f565b60035560008167ffffffffffffffff811115611c0c57634e487b7160e01b600052604160045260246000fd5b604051908082528060200260200182016040528015611c35578160200160208202803683370190505b50905060005b82811015611cc357600060048260088110611c6657634e487b7160e01b600052603260045260246000fd5b01805484519192506001600160a01b031690849084908110611c9857634e487b7160e01b600052603260045260246000fd5b6001600160a01b03909216602092830291909101909101525080611cbb81614c5c565b915050611c3b565b50336001600160a01b0316306001600160a01b03166302d05d3f6040518163ffffffff1660e01b815260040160206040518083038186803b158015611d0757600080fd5b505afa158015611d1b573d6000803e3d6000fd5b505050506040513d601f19601f82011682018060405250810190611d3f91906145ea565b6001600160a01b03167f7ad28155b9b8629f2cd82bb7d184fbd7726696408380767a0cf3ef763209da8a83604051611d779190614a49565b60405180910390a350505050565b6002546001600160a01b03163314611daf5760405162461bcd60e51b815260040161072f90614adb565b600254600160e81b900460ff16600314611e025760405162461bcd60e51b8152602060048201526014602482015273189858dadd5c081b9bdd081858dd1a5d985d195960621b604482015260640161072f565b6002805460ff60e81b198116909155600054604080516302d05d3f60e01b815290516001600160a01b03938416939092169130916302d05d3f916004808301926020929190829003018186803b158015611e5b57600080fd5b505afa158015611e6f573d6000803e3d6000fd5b505050506040513d601f19601f82011682018060405250810190611e9391906145ea565b600254604051600160e81b90910460ff1681526001600160a01b0391909116907fa477fcc649c392c3ab5443bd6c7e532261a90d5e3f29376513d5275e277ddae39060200160405180910390a46002546000546001600160a01b03908116911614611fc857306001600160a01b03166302d05d3f6040518163ffffffff1660e01b815260040160206040518083038186803b158015611f3157600080fd5b505afa158015611f45573d6000803e3d6000fd5b505050506040513d601f19601f82011682018060405250810190611f6991906145ea565b60025460405163bf3b110160e01b81526001600160a01b03918216600482015291169063bf3b110190602401600060405180830381600087803b158015611faf57600080fd5b505af1158015611fc3573d6000803e3d6000fd5b505050505b600280546001600160a01b03191690819055600160c81b900463ffffffff1615611ffd576002805463ffffffff60c81b191690555b600254600160a01b900464ffffffffff1615612025576002805464ffffffffff60a01b191690555b565b61202f6144ae565b60005b60088110156116975760006004826008811061205e57634e487b7160e01b600052603260045260246000fd5b0180549091506001600160a01b03166120775750611697565b8054600160a81b810460481b6affff0000000000000000001690600160a01b900460ff166120a65760006120ac565b600160581b5b82546120ca919060601b6bffffffffffffffffffffffff1916614bc8565b6120d49190614bc8565b8383600881106120f457634e487b7160e01b600052603260045260246000fd5b6020020152508061210481614c5c565b915050612032565b6000306001600160a01b03166302d05d3f6040518163ffffffff1660e01b815260040160206040518083038186803b15801561214757600080fd5b505afa15801561215b573d6000803e3d6000fd5b505050506040513d601f19601f8201168201806040525081019061217f91906145ea565b6001600160a01b0316637dc0d1d06040518163ffffffff1660e01b815260040160206040518083038186803b1580156121b757600080fd5b505afa1580156121cb573d6000803e3d6000fd5b505050506040513d601f19601f820116820180604052508101906121ef91906145ea565b6040516327b0629160e11b81526001600160a01b0384811660048301529190911690634f60c522906024015b60206040518083038186803b15801561223357600080fd5b505afa158015612247573d6000803e3d6000fd5b505050506040513d601f19601f8201168201806040525081019061226b91906148d4565b90505b919050565b306001600160a01b0316638da5cb5b6040518163ffffffff1660e01b815260040160206040518083038186803b1580156122ac57600080fd5b505afa1580156122c0573d6000803e3d6000fd5b505050506040513d601f19601f820116820180604052508101906122e491906145ea565b6001600160a01b0316336001600160a01b03161480156123115750600254600160e81b900460ff16600314155b61232d5760405162461bcd60e51b815260040161072f90614b26565b600c54600160301b900460ff161561237f5760405162461bcd60e51b81526020600482015260156024820152741a5b9a195c9a5d185b98d9481858dd1a5d985d1959605a1b604482015260640161072f565b600c54429064ffffffffff1663ffffffff8316146123ae57600c805464ffffffffff191663ffffffff84161790555b600c54600160281b900460ff1615156001146123da57600c805465ff00000000001916600160281b1790555b600c80546bffffffffff000000000000001916600160381b64ffffffffff841602179055604080516302d05d3f60e01b81529051339130916302d05d3f91600480820192602092909190829003018186803b15801561243857600080fd5b505afa15801561244c573d6000803e3d6000fd5b505050506040513d601f19601f8201168201806040525081019061247091906145ea565b6040805163ffffffff8616815264ffffffffff851660208201526001600160a01b0392909216917f219376dc9430460f83af8f607e5c09085e95b4d8096b01b231afc1ee7958d5e29101610dfa565b306001600160a01b0316638da5cb5b6040518163ffffffff1660e01b815260040160206040518083038186803b1580156124f857600080fd5b505afa15801561250c573d6000803e3d6000fd5b505050506040513d601f19601f8201168201806040525081019061253091906145ea565b6001600160a01b0316336001600160a01b031614801561255d5750600254600160e81b900460ff16600314155b6125795760405162461bcd60e51b815260040161072f90614b26565b6001600160a01b0382166125bb5760405162461bcd60e51b815260206004820152600960248201526806e6f206261636b75760bc1b604482015260640161072f565b6000546001600160a01b038381169116141561260b5760405162461bcd60e51b815260206004820152600f60248201526e3130b1b5bab81034b99037bbb732b960891b604482015260640161072f565b6002546001600160a01b03838116911614612832576002546001600160a01b03161561270157306001600160a01b03166302d05d3f6040518163ffffffff1660e01b815260040160206040518083038186803b15801561266a57600080fd5b505afa15801561267e573d6000803e3d6000fd5b505050506040513d601f19601f820116820180604052508101906126a291906145ea565b60025460405163cf2f774160e01b81526001600160a01b03918216600482015291169063cf2f774190602401600060405180830381600087803b1580156126e857600080fd5b505af11580156126fc573d6000803e3d6000fd5b505050505b600280546001600160a01b0319166001600160a01b038416179055604080516302d05d3f60e01b8152905130916302d05d3f916004808301926020929190829003018186803b15801561275357600080fd5b505afa158015612767573d6000803e3d6000fd5b505050506040513d601f19601f8201168201806040525081019061278b91906145ea565b60405163a196de8360e01b81526001600160a01b038481166004830152919091169063a196de8390602401600060405180830381600087803b1580156127d057600080fd5b505af11580156127e4573d6000803e3d6000fd5b5050600254600160e81b900460ff1615915061280a9050576002805460ff60e81b191690555b600254600160a01b900464ffffffffff1615612832576002805464ffffffffff60a01b191690555b60025463ffffffff828116600160c81b909204161461286a576002805463ffffffff60c81b1916600160c81b63ffffffff8416021790555b60028054600160e81b900460ff16141561289f576002805464ffffffffff60a01b1916600160a01b64ffffffffff4216021790555b600054604080516302d05d3f60e01b815290516001600160a01b0380861693169130916302d05d3f91600480820192602092909190829003018186803b1580156128e857600080fd5b505afa1580156128fc573d6000803e3d6000fd5b505050506040513d601f19601f8201168201806040525081019061292091906145ea565b6002546040805163ffffffff87168152600160a01b830464ffffffffff166020820152600160e81b90920460ff16908201526001600160a01b0391909116907fea8790173f54c9b092a2e436f8aa3840b46da469df3b5161893625d09bfc54e59060600160405180910390a45050565b6040516370a0823160e01b81523060048201526000906001600160a01b038316906370a082319060240160206040518083038186803b1580156129d257600080fd5b505afa1580156129e6573d6000803e3d6000fd5b505050506040513d601f19601f8201168201806040525081019061226b919061491c565b306001600160a01b03166302d05d3f6040518163ffffffff1660e01b815260040160206040518083038186803b158015612a4357600080fd5b505afa158015612a57573d6000803e3d6000fd5b505050506040513d601f19601f82011682018060405250810190612a7b91906145ea565b6001600160a01b0316336001600160a01b0316146120255760405162461bcd60e51b815260206004820152600b60248201526a3737ba1031b932b0ba37b960a91b604482015260640161072f565b306001600160a01b0316638da5cb5b6040518163ffffffff1660e01b815260040160206040518083038186803b158015612b0257600080fd5b505afa158015612b16573d6000803e3d6000fd5b505050506040513d601f19601f82011682018060405250810190612b3a91906145ea565b6001600160a01b0316336001600160a01b0316148015612b675750600254600160e81b900460ff16600314155b612b835760405162461bcd60e51b815260040161072f90614b26565b612b908360008484610675565b505050565b600c546000904290600160381b900464ffffffffff1615801590612bcd5750600c5464ffffffffff600160381b909104811690821610155b8015612bff5750600c54612bef90600160381b900464ffffffffff1682614c36565b600c5464ffffffffff9182169116115b1561169757600c54612c1f90600160381b900464ffffffffff1682614c36565b600c54612c33919064ffffffffff16614c36565b91505090565b306001600160a01b0316638da5cb5b6040518163ffffffff1660e01b815260040160206040518083038186803b158015612c7257600080fd5b505afa158015612c86573d6000803e3d6000fd5b505050506040513d601f19601f82011682018060405250810190612caa91906145ea565b6001600160a01b0316336001600160a01b0316148015612cd75750600254600160e81b900460ff16600314155b612cf35760405162461bcd60e51b815260040161072f90614b26565b6001600160a01b038516612d195760405162461bcd60e51b815260040161072f90614aff565b60006001600160a01b03851615612d305784612d32565b305b9050836001600160a01b0316866001600160a01b0316306001600160a01b03166302d05d3f6040518163ffffffff1660e01b815260040160206040518083038186803b158015612d8157600080fd5b505afa158015612d95573d6000803e3d6000fd5b505050506040513d601f19601f82011682018060405250810190612db991906145ea565b6001600160a01b03167fc604e07085b3abf38e6f3918d5247f94fdde3c9b2ad1dbf93421ae055c34d823848787604051612df593929190614a19565b60405180910390a4604051635c46a7ef60e11b81526001600160a01b0387169063b88d4fde90612e2f9030908890889088906004016149dc565b600060405180830381600087803b158015612e4957600080fd5b505af1158015612e5d573d6000803e3d6000fd5b50505050505050505050565b6000546001600160a01b0316331480612e8c57506002546001600160a01b031633145b612ed85760405162461bcd60e51b815260206004820152601860248201527f6e656974686572206f776e6572206e6f72206261636b75700000000000000000604482015260640161072f565b600254600160e81b900460ff16600114612f2c5760405162461bcd60e51b8152602060048201526015602482015274189858dadd5c081b9bdd081c9959da5cdd195c9959605a1b604482015260640161072f565b6000426002805460ff60e81b1916600160e91b1764ffffffffff60a01b1916600160a01b64ffffffffff8416021790819055604080516302d05d3f60e01b815290519293506001600160a01b039091169130916302d05d3f916004808301926020929190829003018186803b158015612fa457600080fd5b505afa158015612fb8573d6000803e3d6000fd5b505050506040513d601f19601f82011682018060405250810190612fdc91906145ea565b6002546040805164ffffffffff86168152600160e81b90920460ff1660208301526001600160a01b0392909216917f6108265a31b1c1ca2c7f424e7e33437d70ea2dbefdd8ee475060d1bdd0a85bf3910160405180910390a350565b6002546001600160a01b031633146130625760405162461bcd60e51b815260040161072f90614adb565b600254600160e81b900460ff16156130b15760405162461bcd60e51b81526020600482015260126024820152716261636b7570206e6f742070656e64696e6760701b604482015260640161072f565b61202561427e565b306001600160a01b0316638da5cb5b6040518163ffffffff1660e01b815260040160206040518083038186803b1580156130f257600080fd5b505afa158015613106573d6000803e3d6000fd5b505050506040513d601f19601f8201168201806040525081019061312a91906145ea565b6001600160a01b0316336001600160a01b03161480156131575750600254600160e81b900460ff16600314155b6131735760405162461bcd60e51b815260040161072f90614b26565b6001600160a01b0384166131995760405162461bcd60e51b815260040161072f90614aff565b60006001600160a01b038416156131b057836131b2565b305b9050826001600160a01b0316856001600160a01b0316306001600160a01b03166302d05d3f6040518163ffffffff1660e01b815260040160206040518083038186803b15801561320157600080fd5b505afa158015613215573d6000803e3d6000fd5b505050506040513d601f19601f8201168201806040525081019061323991906145ea565b604080516001600160a01b0386811682526020820188905292909216917fd3c84574047e20dd5aac4c7a9e0b36668586ab67fae246b0259385a8d68ff832910160405180910390a46040516323b872dd60e01b81526001600160a01b0385811660048301528481166024830152604482018490528616906323b872dd90606401602060405180830381600087803b1580156132d357600080fd5b505af11580156132e7573d6000803e3d6000fd5b505050506040513d601f19601f8201168201806040525081019061330b91906148d4565b505050505050565b306001600160a01b0316638da5cb5b6040518163ffffffff1660e01b815260040160206040518083038186803b15801561334c57600080fd5b505afa158015613360573d6000803e3d6000fd5b505050506040513d601f19601f8201168201806040525081019061338491906145ea565b6001600160a01b0316336001600160a01b03161480156133b15750600254600160e81b900460ff16600314155b6133cd5760405162461bcd60e51b815260040161072f90614b26565b6000811161340a5760405162461bcd60e51b815260206004820152600a602482015269076616c7565203d3d20360b41b604482015260640161072f565b4781111561344c5760405162461bcd60e51b815260206004820152600f60248201526e76616c7565203e2062616c616e636560881b604482015260640161072f565b816001600160a01b0316306001600160a01b0316306001600160a01b03166302d05d3f6040518163ffffffff1660e01b815260040160206040518083038186803b15801561349957600080fd5b505afa1580156134ad573d6000803e3d6000fd5b505050506040513d601f19601f820116820180604052508101906134d191906145ea565b6001600160a01b03167f3be46aed611cf5224bae34b9b31732c6f1ea767507681489b72839b6425b9e3a8460405161350b91815260200190565b60405180910390a46040516001600160a01b0383169082156108fc029083906000818181858888f19350505050158015612b90573d6000803e3d6000fd5b6000546001600160a01b031633146135735760405162461bcd60e51b815260040161072f90614b50565b600254600160e81b900460ff166003146135c65760405162461bcd60e51b8152602060048201526014602482015273189858dadd5c081b9bdd081858dd1a5d985d195960621b604482015260640161072f565b6002805460ff60e81b1916600160e81b1790819055600054604080516302d05d3f60e01b815290516001600160a01b0393841693929092169130916302d05d3f916004808301926020929190829003018186803b15801561362657600080fd5b505afa15801561363a573d6000803e3d6000fd5b505050506040513d601f19601f8201168201806040525081019061365e91906145ea565b600254604051600160e81b90910460ff1681526001600160a01b0391909116907f7bb264af598eac77bc57cdad3b10f6eddc737a116ef45e864d3626346dcb23b49060200160405180910390a4565b6002546000904290600160a01b900464ffffffffff16158015906136e5575060025464ffffffffff600160a01b909104811690821610155b8015613724575060025461370790600160a01b900464ffffffffff1682614c36565b60025464ffffffffff91909116600160c81b90910463ffffffff16115b156116975760025461374490600160a01b900464ffffffffff1682614c36565b600254612c339190600160c81b900463ffffffff16614c36565b6000306001600160a01b03166302d05d3f6040518163ffffffff1660e01b815260040160206040518083038186803b15801561379957600080fd5b505afa1580156137ad573d6000803e3d6000fd5b505050506040513d601f19601f820116820180604052508101906137d191906145ea565b6001600160a01b0316637dc0d1d06040518163ffffffff1660e01b815260040160206040518083038186803b15801561380957600080fd5b505afa15801561381d573d6000803e3d6000fd5b505050506040513d601f19601f8201168201806040525081019061384191906145ea565b604051631bf80eb160e31b81526001600160a01b038481166004830152919091169063dfc075889060240161221b565b306001600160a01b0316638da5cb5b6040518163ffffffff1660e01b815260040160206040518083038186803b1580156138aa57600080fd5b505afa1580156138be573d6000803e3d6000fd5b505050506040513d601f19601f820116820180604052508101906138e291906145ea565b6001600160a01b0316336001600160a01b031614801561390f5750600254600160e81b900460ff16600314155b61392b5760405162461bcd60e51b815260040161072f90614b26565b600c54600160301b900460ff161561397d5760405162461bcd60e51b81526020600482015260156024820152741a5b9a195c9a5d185b98d9481858dd1a5d985d1959605a1b604482015260640161072f565b6008825111156139c05760405162461bcd60e51b815260206004820152600e60248201526d746f6f206d616e7920686569727360901b604482015260640161072f565b8051825114613a115760405162461bcd60e51b815260206004820152601960248201527f686569727320616e642062707320646f6e2774206d6174636800000000000000604482015260640161072f565b6000805b8351811015613b6457828181518110613a3e57634e487b7160e01b600052603260045260246000fd5b602002602001015161ffff1682613a559190614bc8565b915060006001600160a01b0316848281518110613a8257634e487b7160e01b600052603260045260246000fd5b60200260200101516001600160a01b03161415613acb5760405162461bcd60e51b81526020600482015260076024820152663737903432b4b960c91b604482015260640161072f565b306001600160a01b0316848281518110613af557634e487b7160e01b600052603260045260246000fd5b60200260200101516001600160a01b03161415613b545760405162461bcd60e51b815260206004820152601860248201527f63757272656e7420636f6e747261637420697320686569720000000000000000604482015260640161072f565b613b5d81614c5c565b9050613a15565b612710821115613ba35760405162461bcd60e51b815260206004820152600a602482015269746f74616c3e3130302560b01b604482015260640161072f565b5060005b8351811015613d1157600060048260088110613bd357634e487b7160e01b600052603260045260246000fd5b019050848281518110613bf657634e487b7160e01b600052603260045260246000fd5b602090810291909101015181546001600160a01b03908116911614613c5b57848281518110613c3557634e487b7160e01b600052603260045260246000fd5b602090810291909101015181546001600160a01b0319166001600160a01b039091161781555b838281518110613c7b57634e487b7160e01b600052603260045260246000fd5b60209081029190910101518154600160a81b900461ffff908116911614613ce357838281518110613cbc57634e487b7160e01b600052603260045260246000fd5b6020908102919091010151815461ffff909116600160a81b0261ffff60a81b199091161781555b8054600160a01b900460ff1615613d0057805460ff60a01b191681555b50613d0a81614c5c565b9050613ba7565b613d1d60016008614c1f565b811015613d6c57600060048260088110613d4757634e487b7160e01b600052603260045260246000fd5b0180549091506001600160a01b031615613d6a5780546001600160a01b03191681555b505b60008167ffffffffffffffff811115613d9557634e487b7160e01b600052604160045260246000fd5b604051908082528060200260200182016040528015613dbe578160200160208202803683370190505b50905060008267ffffffffffffffff811115613dea57634e487b7160e01b600052604160045260246000fd5b604051908082528060200260200182016040528015613e13578160200160208202803683370190505b50905060005b83811015613eef57600060048260088110613e4457634e487b7160e01b600052603260045260246000fd5b01805485519192506001600160a01b031690859084908110613e7657634e487b7160e01b600052603260045260246000fd5b60200260200101906001600160a01b031690816001600160a01b0316815250508060000160159054906101000a900461ffff16838381518110613ec957634e487b7160e01b600052603260045260246000fd5b61ffff909216602092830291909101909101525080613ee781614c5c565b915050613e19565b50336001600160a01b0316306001600160a01b03166302d05d3f6040518163ffffffff1660e01b815260040160206040518083038186803b158015613f3357600080fd5b505afa158015613f47573d6000803e3d6000fd5b505050506040513d601f19601f82011682018060405250810190613f6b91906145ea565b6001600160a01b03167fa52c4f91db65575e6917fd3e55dc251bf777970366ade6b0df9abc78e0345df58484604051613fa5929190614a5c565b60405180910390a3505050505050565b6000546001600160a01b03163314613fdf5760405162461bcd60e51b815260040161072f90614b50565b6002546001600160a01b03166130b15760405162461bcd60e51b815260206004820152601060248201526f189858dadd5c081b9bdd08195e1a5cdd60821b604482015260640161072f565b306001600160a01b03166302d05d3f6040518163ffffffff1660e01b815260040160206040518083038186803b15801561406357600080fd5b505afa158015614077573d6000803e3d6000fd5b505050506040513d601f19601f8201168201806040525081019061409b91906145ea565b6001600160a01b0316336001600160a01b0316146140e95760405162461bcd60e51b815260206004820152600b60248201526a3737ba1031b932b0ba37b960a91b604482015260640161072f565b6000546001600160a01b0383811691161480159061410f57506001600160a01b03821615155b1561413057600080546001600160a01b0319166001600160a01b0384161790555b6001546001600160a01b0382811691161480159061415657506001600160a01b03811615155b1561417757600180546001600160a01b0319166001600160a01b0383161790555b5050565b6000546001600160a01b031633146141a55760405162461bcd60e51b815260040161072f90614b50565b306001600160a01b03166302d05d3f6040518163ffffffff1660e01b815260040160206040518083038186803b1580156141de57600080fd5b505afa1580156141f2573d6000803e3d6000fd5b505050506040513d601f19601f8201168201806040525081019061421691906145ea565b6040516318beb60960e31b81526001600160c01b0319831660048201526001600160a01b03919091169063c5f5b04890602401600060405180830381600087803b15801561426357600080fd5b505af1158015614277573d6000803e3d6000fd5b5050505050565b6002546001600160a01b0316801561436f57306001600160a01b03166302d05d3f6040518163ffffffff1660e01b815260040160206040518083038186803b1580156142c957600080fd5b505afa1580156142dd573d6000803e3d6000fd5b505050506040513d601f19601f8201168201806040525081019061430191906145ea565b60405163cf2f774160e01b81526001600160a01b038381166004830152919091169063cf2f774190602401600060405180830381600087803b15801561434657600080fd5b505af115801561435a573d6000803e3d6000fd5b5050600280546001600160a01b031916905550505b600254600160c81b900463ffffffff1615614395576002805463ffffffff60c81b191690555b600254600160a01b900464ffffffffff16156143bd576002805464ffffffffff60a01b191690555b600254600160e81b900460ff16156143dd576002805460ff60e81b191690555b600054604080516302d05d3f60e01b815290516001600160a01b0380851693169130916302d05d3f91600480820192602092909190829003018186803b15801561442657600080fd5b505afa15801561443a573d6000803e3d6000fd5b505050506040513d601f19601f8201168201806040525081019061445e91906145ea565b600254604051600160e81b90910460ff1681526001600160a01b0391909116907f7e9b775ba644794a5770a533d5fc90e00b98f998e81c66fce5d7f4e1bc3d87189060200160405180910390a450565b6040518061010001604052806008906020820280368337509192915050565b600082601f8301126144dd578081fd5b813560206144f26144ed83614ba4565b614b73565b828152818101908583018385028701840188101561450e578586fd5b855b8581101561453b57813561ffff81168114614529578788fd5b84529284019290840190600101614510565b5090979650505050505050565b600082601f830112614558578081fd5b813567ffffffffffffffff81111561457257614572614c8d565b614585601f8201601f1916602001614b73565b818152846020838601011115614599578283fd5b816020850160208301379081016020019190915292915050565b803563ffffffff8116811461226e57600080fd5b6000602082840312156145d8578081fd5b81356145e381614ca3565b9392505050565b6000602082840312156145fb578081fd5b81516145e381614ca3565b60008060408385031215614618578081fd5b823561462381614ca3565b946020939093013593505050565b60008060408385031215614643578182fd5b823561464e81614ca3565b9150602083013561465e81614ca3565b809150509250929050565b6000806000806080858703121561467e578182fd5b843561468981614ca3565b9350602085013561469981614ca3565b925060408501356146a981614ca3565b9396929550929360600135925050565b600080600080600060a086880312156146d0578081fd5b85356146db81614ca3565b945060208601356146eb81614ca3565b935060408601356146fb81614ca3565b925060608601359150608086013567ffffffffffffffff81111561471d578182fd5b61472988828901614548565b9150509295509295909350565b60008060006060848603121561474a578283fd5b833561475581614ca3565b9250602084013561476581614ca3565b929592945050506040919091013590565b6000806000806080858703121561478b578182fd5b843561479681614ca3565b935060208501356147a681614ca3565b925060408501359150606085013567ffffffffffffffff8111156147c8578182fd5b6147d487828801614548565b91505092959194509250565b600080604083850312156147f2578182fd5b82356147fd81614ca3565b915061480b602084016145b3565b90509250929050565b60008060408385031215614826578182fd5b823567ffffffffffffffff8082111561483d578384fd5b818501915085601f830112614850578384fd5b813560206148606144ed83614ba4565b82815281810190858301838502870184018b101561487c578889fd5b8896505b848710156148a757803561489381614ca3565b835260019690960195918301918301614880565b50965050860135925050808211156148bd578283fd5b506148ca858286016144cd565b9150509250929050565b6000602082840312156148e5578081fd5b815180151581146145e3578182fd5b600060208284031215614905578081fd5b81356001600160c01b0319811681146145e3578182fd5b60006020828403121561492d578081fd5b5051919050565b600060208284031215614945578081fd5b6145e3826145b3565b6000815180845260208085019450808401835b838110156149865781516001600160a01b031687529582019590820190600101614961565b509495945050505050565b60008151808452815b818110156149b65760208185018101518683018201520161499a565b818111156149c75782602083870101525b50601f01601f19169290920160200192915050565b6001600160a01b0385811682528416602082015260408101839052608060608201819052600090614a0f90830184614991565b9695505050505050565b600060018060a01b038516825283602083015260606040830152614a406060830184614991565b95945050505050565b6000602082526145e3602083018461494e565b600060408252614a6f604083018561494e565b828103602084810191909152845180835285820192820190845b8181101561453b57845161ffff1683529383019391830191600101614a89565b6101008101818360005b6008811015614ad2578151835260209283019290910190600101614ab3565b50505092915050565b6020808252600a908201526906e6f74206261636b75760b41b604082015260600190565b6020808252600d908201526c05f746f6b656e2069732030783609c1b604082015260600190565b60208082526010908201526f3737ba1030b1ba34bb329037bbb732b960811b604082015260600190565b6020808252600990820152683737ba1037bbb732b960b91b604082015260600190565b604051601f8201601f1916810167ffffffffffffffff81118282101715614b9c57614b9c614c8d565b604052919050565b600067ffffffffffffffff821115614bbe57614bbe614c8d565b5060209081020190565b60008219821115614bdb57614bdb614c77565b500190565b600082614bfb57634e487b7160e01b81526012600452602481fd5b500490565b6000816000190483118215151615614c1a57614c1a614c77565b500290565b600082821015614c3157614c31614c77565b500390565b600064ffffffffff83811690831681811015614c5457614c54614c77565b039392505050565b6000600019821415614c7057614c70614c77565b5060010190565b634e487b7160e01b600052601160045260246000fd5b634e487b7160e01b600052604160045260246000fd5b6001600160a01b038116811461160257600080fdfea2646970667358221220280ba9374c065085cc787fdb6de87a34c19732907f85d77b79539f493f97858364736f6c63430008020033",
  "immutableReferences": {},
  "source": "// SPDX-License-Identifier: UNLICENSED\n\npragma solidity ^0.8.0;\n\n//import \"openzeppelin-solidity/contracts/math/SafeMath.sol\";\nimport \"../node_modules/openzeppelin-solidity/contracts/token/ERC20/IERC20.sol\";\nimport \"../node_modules/openzeppelin-solidity/contracts/token/ERC721/IERC721.sol\";\nimport \"../node_modules/openzeppelin-solidity/contracts/token/ERC721/IERC721Receiver.sol\";\n\nimport \"./lib/IOracle.sol\";\nimport \"./lib/Heritable.sol\";\n//import \"./Trust.sol\";\n\ncontract Wallet is IStorage, Heritable {\n    //using SafeMath for uint256;\n\n    event SentEther     (address indexed creator, address indexed owner, address indexed to, uint256 value);\n    event Transfer20    (address indexed creator, address indexed token, address from, address indexed to, uint256 value);\n    event Transfer721   (address indexed creator, address indexed token, address from, address indexed to, uint256 id, bytes data);\n\n    function sendEther (address payable _to, uint256 _value) public onlyActiveOwner() {\n        require (_value > 0, \"value == 0\");\n        require (_value <= address(this).balance, \"value > balance\");\n        emit SentEther (this.creator(), address(this), _to, _value);\n        _to.transfer (_value);\n    }\n\n    function transfer20 (address _token, address _to, uint256 _value) public onlyActiveOwner() {\n        require(_token != address(0), \"_token is 0x0\");\n        emit Transfer20 (this.creator(), _token, address(this), _to, _value);\n        IERC20(_token).transfer(_to, _value);\n    }\n\n    function transferFrom20 (address _token, address _from, address _to, uint256 _value) public onlyActiveOwner() {\n        require(_token != address(0), \"_token is 0x0\");\n        address from = _from == address(0) ? address(this): address(_from);\n        emit Transfer20 (this.creator(), _token, from, _to, _value);\n        IERC20(_token).transferFrom(_from, _to, _value);\n    }\n\n    function transfer721 (address _token, address _to, uint256 _value) public onlyActiveOwner() {\n        transferFrom721 (_token, address(0), _to, _value);\n    }\n\n    function transferFrom721 (address _token, address _from, address _to, uint256 _id) public onlyActiveOwner() {\n        require(_token != address(0), \"_token is 0x0\");\n        address from = _from == address(0) ? address(this): address(_from);\n        emit Transfer721 (this.creator(), _token, from, _to, _id, \"\");\n        IERC721(_token).transferFrom(address(this), _to, _id);\n    }\n\n    function safeTransferFrom721 (address _token, address _from, address _to, uint256 _id) public onlyActiveOwner() {\n        require(_token != address(0), \"_token is 0x0\");\n        address from = _from == address(0) ? address(this): address(_from);\n        emit Transfer721 (this.creator(), _token, from, _to, _id, \"\");\n        IERC721(_token).safeTransferFrom(address(this), _to, _id);\n    }\n\n    function safeTransferFrom721$Data (address _token, address _from, address _to, uint256 _id, bytes memory _data) public onlyActiveOwner() {\n        require(_token != address(0), \"_token is 0x0\");\n        address from = _from == address(0) ? address(this): address(_from);\n        emit Transfer721 (this.creator(), _token, from, _to, _id, _data);\n        IERC721(_token).safeTransferFrom(address(this), _to, _id, _data);\n    }\n\n    function getBalance () public view returns (uint256) {\n        return address(this).balance;\n    }\n\n    function balanceOf20 (address _token) public view returns (uint256) {\n        return IERC20(_token).balanceOf(address(this));\n    }\n\n    function balanceOf721 (address _token) public view returns (uint256) {\n        return IERC721(_token).balanceOf(address(this));\n    }\n\n    function is20Safe (address _token) public view returns (bool) {\n        return IOracle(ICreator(this.creator()).oracle()).is20Safe(_token);\n    }\n\n    function is721Safe (address _token) public view returns (bool) {\n        return IOracle(ICreator(this.creator()).oracle()).is721Safe(_token);\n    }\n\n    //function onERC721Received(address operator, address from, uint256 tokenId, bytes data) public returns (bytes4) {\n    function onERC721Received (address, address, uint256, bytes memory) public pure returns (bytes4) {\n        return this.onERC721Received.selector;\n    }\n\n    /*\n    function createTrust(address _wallet, uint40 _start, uint32 _period, uint16 _times, uint256 _amount, bool _cancelable) payable public {\n        require(trust == Trust(0));\n        trust = (new Trust).value(_amount.mul(_times))(_wallet, _start, _period, _times, _amount, _cancelable);\n    }\n\n    function destroyTrust() public {\n        require(trust != Trust(0));\n        trust.destroy();\n        trust = Trust(0);\n    }\n\n    function getTrust() public view returns (Trust) {\n        return trust;\n    }\n    */\n\n    // IStorage Implementation\n    function migrate () external onlyCreator() override {}\n\n    function version() public pure override returns (bytes8){\n        return bytes8(\"1.2.1\");\n    }\n\n    fallback () external { }\n\n}\n",
  "sourcePath": "/opt/storage/data1/code/kirobo/ki-eth-contracts/contracts/Wallet.sol",
  "compiler": {
    "name": "solc",
    "version": "0.8.2+commit.661d1103.Emscripten.clang"
  },
  "schemaVersion": "3.3.4",
  "updatedAt": "2021-03-21T20:16:32.908Z",
  "devdoc": {
    "kind": "dev",
    "methods": {},
    "version": 1
  },
  "userdoc": {
    "kind": "user",
    "methods": {},
    "version": 1
  }
}