{
  "contractName": "Wallet",
  "abi": [
    {
      "anonymous": false,
      "inputs": [
        {
          "indexed": true,
          "internalType": "address",
          "name": "creator",
          "type": "address"
        },
        {
          "indexed": true,
          "internalType": "address",
          "name": "wallet",
          "type": "address"
        },
        {
          "indexed": true,
          "internalType": "address",
          "name": "activator",
          "type": "address"
        },
        {
          "indexed": false,
          "internalType": "uint8",
          "name": "state",
          "type": "uint8"
        }
      ],
      "name": "BackupActivated",
      "type": "event"
    },
    {
      "anonymous": false,
      "inputs": [
        {
          "indexed": true,
          "internalType": "address",
          "name": "creator",
          "type": "address"
        },
        {
          "indexed": true,
          "internalType": "address",
          "name": "owner",
          "type": "address"
        },
        {
          "indexed": true,
          "internalType": "address",
          "name": "wallet",
          "type": "address"
        },
        {
          "indexed": false,
          "internalType": "uint32",
          "name": "timeout",
          "type": "uint32"
        },
        {
          "indexed": false,
          "internalType": "uint40",
          "name": "timestamp",
          "type": "uint40"
        },
        {
          "indexed": false,
          "internalType": "uint8",
          "name": "state",
          "type": "uint8"
        }
      ],
      "name": "BackupChanged",
      "type": "event"
    },
    {
      "anonymous": false,
      "inputs": [
        {
          "indexed": true,
          "internalType": "address",
          "name": "creator",
          "type": "address"
        },
        {
          "indexed": true,
          "internalType": "address",
          "name": "wallet",
          "type": "address"
        },
        {
          "indexed": false,
          "internalType": "uint40",
          "name": "timestamp",
          "type": "uint40"
        },
        {
          "indexed": false,
          "internalType": "uint8",
          "name": "state",
          "type": "uint8"
        }
      ],
      "name": "BackupEnabled",
      "type": "event"
    },
    {
      "anonymous": false,
      "inputs": [
        {
          "indexed": true,
          "internalType": "address",
          "name": "creator",
          "type": "address"
        },
        {
          "indexed": true,
          "internalType": "address",
          "name": "payee",
          "type": "address"
        },
        {
          "indexed": false,
          "internalType": "uint256",
          "name": "amount",
          "type": "uint256"
        },
        {
          "indexed": false,
          "internalType": "bool",
          "name": "reward",
          "type": "bool"
        }
      ],
      "name": "BackupPayment",
      "type": "event"
    },
    {
      "anonymous": false,
      "inputs": [
        {
          "indexed": true,
          "internalType": "address",
          "name": "creator",
          "type": "address"
        },
        {
          "indexed": true,
          "internalType": "address",
          "name": "wallet",
          "type": "address"
        },
        {
          "indexed": false,
          "internalType": "uint8",
          "name": "state",
          "type": "uint8"
        }
      ],
      "name": "BackupRegistered",
      "type": "event"
    },
    {
      "anonymous": false,
      "inputs": [
        {
          "indexed": true,
          "internalType": "address",
          "name": "creator",
          "type": "address"
        },
        {
          "indexed": true,
          "internalType": "address",
          "name": "owner",
          "type": "address"
        },
        {
          "indexed": true,
          "internalType": "address",
          "name": "wallet",
          "type": "address"
        },
        {
          "indexed": false,
          "internalType": "uint8",
          "name": "state",
          "type": "uint8"
        }
      ],
      "name": "BackupRemoved",
      "type": "event"
    },
    {
      "anonymous": false,
      "inputs": [
        {
          "indexed": true,
          "internalType": "address",
          "name": "creator",
          "type": "address"
        },
        {
          "indexed": true,
          "internalType": "address",
          "name": "owner",
          "type": "address"
        },
        {
          "indexed": true,
          "internalType": "address",
          "name": "activator",
          "type": "address"
        },
        {
          "indexed": false,
          "internalType": "uint256",
          "name": "value",
          "type": "uint256"
        }
      ],
      "name": "BatchCall",
      "type": "event"
    },
    {
      "anonymous": false,
      "inputs": [
        {
          "indexed": true,
          "internalType": "address",
          "name": "creator",
          "type": "address"
        },
        {
          "indexed": true,
          "internalType": "address",
          "name": "activator",
          "type": "address"
        },
        {
          "indexed": false,
          "internalType": "address[]",
          "name": "wallets",
          "type": "address[]"
        }
      ],
      "name": "InheritanceActivated",
      "type": "event"
    },
    {
      "anonymous": false,
      "inputs": [
        {
          "indexed": true,
          "internalType": "address",
          "name": "creator",
          "type": "address"
        },
        {
          "indexed": true,
          "internalType": "address",
          "name": "owner",
          "type": "address"
        },
        {
          "indexed": false,
          "internalType": "uint40",
          "name": "timeout",
          "type": "uint40"
        },
        {
          "indexed": false,
          "internalType": "uint40",
          "name": "timestamp",
          "type": "uint40"
        }
      ],
      "name": "InheritanceChanged",
      "type": "event"
    },
    {
      "anonymous": false,
      "inputs": [
        {
          "indexed": true,
          "internalType": "address",
          "name": "creator",
          "type": "address"
        },
        {
          "indexed": true,
          "internalType": "address",
          "name": "owner",
          "type": "address"
        },
        {
          "indexed": false,
          "internalType": "address[]",
          "name": "wallets",
          "type": "address[]"
        },
        {
          "indexed": false,
          "internalType": "uint16[]",
          "name": "bps",
          "type": "uint16[]"
        }
      ],
      "name": "InheritanceHeirsChanged",
      "type": "event"
    },
    {
      "anonymous": false,
      "inputs": [
        {
          "indexed": true,
          "internalType": "address",
          "name": "creator",
          "type": "address"
        },
        {
          "indexed": true,
          "internalType": "address",
          "name": "payee",
          "type": "address"
        },
        {
          "indexed": false,
          "internalType": "uint256",
          "name": "amount",
          "type": "uint256"
        },
        {
          "indexed": false,
          "internalType": "bool",
          "name": "reward",
          "type": "bool"
        }
      ],
      "name": "InheritancePayment",
      "type": "event"
    },
    {
      "anonymous": false,
      "inputs": [
        {
          "indexed": true,
          "internalType": "address",
          "name": "creator",
          "type": "address"
        },
        {
          "indexed": true,
          "internalType": "address",
          "name": "owner",
          "type": "address"
        }
      ],
      "name": "InheritanceRemoved",
      "type": "event"
    },
    {
      "anonymous": false,
      "inputs": [
        {
          "indexed": true,
          "internalType": "address",
          "name": "creator",
          "type": "address"
        },
        {
          "indexed": true,
          "internalType": "address",
          "name": "owner",
          "type": "address"
        },
        {
          "indexed": true,
          "internalType": "address",
          "name": "pendingOwner",
          "type": "address"
        },
        {
          "indexed": false,
          "internalType": "uint8",
          "name": "state",
          "type": "uint8"
        }
      ],
      "name": "OwnershipReclaimed",
      "type": "event"
    },
    {
      "anonymous": false,
      "inputs": [
        {
          "indexed": true,
          "internalType": "address",
          "name": "creator",
          "type": "address"
        },
        {
          "indexed": true,
          "internalType": "address",
          "name": "previousOwner",
          "type": "address"
        },
        {
          "indexed": true,
          "internalType": "address",
          "name": "newOwner",
          "type": "address"
        },
        {
          "indexed": false,
          "internalType": "uint8",
          "name": "state",
          "type": "uint8"
        }
      ],
      "name": "OwnershipTransferred",
      "type": "event"
    },
    {
      "stateMutability": "nonpayable",
      "type": "fallback"
    },
    {
      "inputs": [],
      "name": "BACKUP_STATE_ACTIVATED",
      "outputs": [
        {
          "internalType": "uint8",
          "name": "",
          "type": "uint8"
        }
      ],
      "stateMutability": "view",
      "type": "function",
      "constant": true
    },
    {
      "inputs": [],
      "name": "BACKUP_STATE_ENABLED",
      "outputs": [
        {
          "internalType": "uint8",
          "name": "",
          "type": "uint8"
        }
      ],
      "stateMutability": "view",
      "type": "function",
      "constant": true
    },
    {
      "inputs": [],
      "name": "BACKUP_STATE_PENDING",
      "outputs": [
        {
          "internalType": "uint8",
          "name": "",
          "type": "uint8"
        }
      ],
      "stateMutability": "view",
      "type": "function",
      "constant": true
    },
    {
      "inputs": [],
      "name": "BACKUP_STATE_REGISTERED",
      "outputs": [
        {
          "internalType": "uint8",
          "name": "",
          "type": "uint8"
        }
      ],
      "stateMutability": "view",
      "type": "function",
      "constant": true
    },
    {
      "inputs": [],
      "name": "CHAIN_ID",
      "outputs": [
        {
          "internalType": "uint256",
          "name": "",
          "type": "uint256"
        }
      ],
      "stateMutability": "view",
      "type": "function",
      "constant": true
    },
    {
      "inputs": [],
      "name": "DOMAIN_SEPARATOR",
      "outputs": [
        {
          "internalType": "bytes32",
          "name": "",
          "type": "bytes32"
        }
      ],
      "stateMutability": "view",
      "type": "function",
      "constant": true
    },
    {
      "inputs": [],
      "name": "NAME",
      "outputs": [
        {
          "internalType": "string",
          "name": "",
          "type": "string"
        }
      ],
      "stateMutability": "view",
      "type": "function",
      "constant": true
    },
    {
      "inputs": [],
      "name": "VERSION",
      "outputs": [
        {
          "internalType": "string",
          "name": "",
          "type": "string"
        }
      ],
      "stateMutability": "view",
      "type": "function",
      "constant": true
    },
    {
      "inputs": [],
      "name": "VERSION_NUMBER",
      "outputs": [
        {
          "internalType": "uint8",
          "name": "",
          "type": "uint8"
        }
      ],
      "stateMutability": "view",
      "type": "function",
      "constant": true
    },
    {
      "inputs": [],
      "name": "accept",
      "outputs": [],
      "stateMutability": "nonpayable",
      "type": "function"
    },
    {
      "inputs": [],
      "name": "activateBackup",
      "outputs": [],
      "stateMutability": "nonpayable",
      "type": "function"
    },
    {
      "inputs": [],
      "name": "activateInheritance",
      "outputs": [],
      "stateMutability": "nonpayable",
      "type": "function"
    },
    {
      "inputs": [],
      "name": "claimOwnership",
      "outputs": [],
      "stateMutability": "nonpayable",
      "type": "function"
    },
    {
      "inputs": [],
      "name": "clearInheritance",
      "outputs": [],
      "stateMutability": "nonpayable",
      "type": "function"
    },
    {
      "inputs": [],
      "name": "creator",
      "outputs": [
        {
          "internalType": "address",
          "name": "",
          "type": "address"
        }
      ],
      "stateMutability": "pure",
      "type": "function",
      "constant": true
    },
    {
      "inputs": [],
      "name": "decline",
      "outputs": [],
      "stateMutability": "nonpayable",
      "type": "function"
    },
    {
      "inputs": [],
      "name": "enable",
      "outputs": [],
      "stateMutability": "nonpayable",
      "type": "function"
    },
    {
      "inputs": [],
      "name": "getBackupState",
      "outputs": [
        {
          "internalType": "uint8",
          "name": "",
          "type": "uint8"
        }
      ],
      "stateMutability": "view",
      "type": "function",
      "constant": true
    },
    {
      "inputs": [],
      "name": "getBackupTimeLeft",
      "outputs": [
        {
          "internalType": "uint40",
          "name": "res",
          "type": "uint40"
        }
      ],
      "stateMutability": "view",
      "type": "function",
      "constant": true
    },
    {
      "inputs": [],
      "name": "getBackupTimeout",
      "outputs": [
        {
          "internalType": "uint40",
          "name": "",
          "type": "uint40"
        }
      ],
      "stateMutability": "view",
      "type": "function",
      "constant": true
    },
    {
      "inputs": [],
      "name": "getBackupTimestamp",
      "outputs": [
        {
          "internalType": "uint40",
          "name": "",
          "type": "uint40"
        }
      ],
      "stateMutability": "view",
      "type": "function",
      "constant": true
    },
    {
      "inputs": [],
      "name": "getBackupWallet",
      "outputs": [
        {
          "internalType": "address",
          "name": "",
          "type": "address"
        }
      ],
      "stateMutability": "view",
      "type": "function",
      "constant": true
    },
    {
      "inputs": [],
      "name": "getHeirs",
      "outputs": [
        {
          "internalType": "bytes32[8]",
          "name": "heirs",
          "type": "bytes32[8]"
        }
      ],
      "stateMutability": "view",
      "type": "function",
      "constant": true
    },
    {
      "inputs": [],
      "name": "getInheritanceTimeLeft",
      "outputs": [
        {
          "internalType": "uint40",
          "name": "res",
          "type": "uint40"
        }
      ],
      "stateMutability": "view",
      "type": "function",
      "constant": true
    },
    {
      "inputs": [],
      "name": "getInheritanceTimeout",
      "outputs": [
        {
          "internalType": "uint40",
          "name": "",
          "type": "uint40"
        }
      ],
      "stateMutability": "view",
      "type": "function",
      "constant": true
    },
    {
      "inputs": [],
      "name": "getInheritanceTimestamp",
      "outputs": [
        {
          "internalType": "uint40",
          "name": "",
          "type": "uint40"
        }
      ],
      "stateMutability": "view",
      "type": "function",
      "constant": true
    },
    {
      "inputs": [],
      "name": "getTotalBPS",
      "outputs": [
        {
          "internalType": "uint256",
          "name": "total",
          "type": "uint256"
        }
      ],
      "stateMutability": "view",
      "type": "function",
      "constant": true
    },
    {
      "inputs": [],
      "name": "getTotalTransfered",
      "outputs": [
        {
          "internalType": "uint256",
          "name": "total",
          "type": "uint256"
        }
      ],
      "stateMutability": "view",
      "type": "function",
      "constant": true
    },
    {
      "inputs": [
        {
          "internalType": "address",
          "name": "newOwner",
          "type": "address"
        },
        {
          "internalType": "address",
          "name": "newTarget",
          "type": "address"
        }
      ],
      "name": "init",
      "outputs": [],
      "stateMutability": "nonpayable",
      "type": "function"
    },
    {
      "inputs": [],
      "name": "isBackup",
      "outputs": [
        {
          "internalType": "bool",
          "name": "",
          "type": "bool"
        }
      ],
      "stateMutability": "view",
      "type": "function",
      "constant": true
    },
    {
      "inputs": [],
      "name": "isInheritanceActivated",
      "outputs": [
        {
          "internalType": "bool",
          "name": "",
          "type": "bool"
        }
      ],
      "stateMutability": "view",
      "type": "function",
      "constant": true
    },
    {
      "inputs": [],
      "name": "isInheritanceEnabled",
      "outputs": [
        {
          "internalType": "bool",
          "name": "",
          "type": "bool"
        }
      ],
      "stateMutability": "view",
      "type": "function",
      "constant": true
    },
    {
      "inputs": [],
      "name": "isOwner",
      "outputs": [
        {
          "internalType": "bool",
          "name": "",
          "type": "bool"
        }
      ],
      "stateMutability": "view",
      "type": "function",
      "constant": true
    },
    {
      "inputs": [],
      "name": "owner",
      "outputs": [
        {
          "internalType": "address",
          "name": "",
          "type": "address"
        }
      ],
      "stateMutability": "view",
      "type": "function",
      "constant": true
    },
    {
      "inputs": [],
      "name": "reclaimOwnership",
      "outputs": [],
      "stateMutability": "nonpayable",
      "type": "function"
    },
    {
      "inputs": [],
      "name": "removeBackup",
      "outputs": [],
      "stateMutability": "nonpayable",
      "type": "function"
    },
    {
      "inputs": [
        {
          "internalType": "address",
          "name": "wallet",
          "type": "address"
        },
        {
          "internalType": "uint32",
          "name": "timeout",
          "type": "uint32"
        }
      ],
      "name": "setBackup",
      "outputs": [],
      "stateMutability": "nonpayable",
      "type": "function"
    },
    {
      "inputs": [
        {
          "internalType": "address payable[]",
          "name": "wallets",
          "type": "address[]"
        },
        {
          "internalType": "uint16[]",
          "name": "bps",
          "type": "uint16[]"
        }
      ],
      "name": "setHeirs",
      "outputs": [],
      "stateMutability": "nonpayable",
      "type": "function"
    },
    {
      "inputs": [
        {
          "internalType": "uint32",
          "name": "timeout",
          "type": "uint32"
        }
      ],
      "name": "setInheritance",
      "outputs": [],
      "stateMutability": "nonpayable",
      "type": "function"
    },
    {
      "inputs": [
        {
          "internalType": "bytes4",
          "name": "selector",
          "type": "bytes4"
        }
      ],
      "name": "supportsInterface",
      "outputs": [
        {
          "internalType": "bool",
          "name": "",
          "type": "bool"
        }
      ],
      "stateMutability": "pure",
      "type": "function",
      "constant": true
    },
    {
      "inputs": [
        {
          "internalType": "bytes4",
          "name": "selector",
          "type": "bytes4"
        }
      ],
      "name": "supportsStaticCall",
      "outputs": [
        {
          "internalType": "bool",
          "name": "",
          "type": "bool"
        }
      ],
      "stateMutability": "pure",
      "type": "function",
      "constant": true
    },
    {
      "inputs": [],
      "name": "target",
      "outputs": [
        {
          "internalType": "address",
          "name": "",
          "type": "address"
        }
      ],
      "stateMutability": "view",
      "type": "function",
      "constant": true
    },
    {
      "inputs": [],
      "name": "uid",
      "outputs": [
        {
          "internalType": "bytes32",
          "name": "",
          "type": "bytes32"
        }
      ],
      "stateMutability": "view",
      "type": "function",
      "constant": true
    },
    {
      "inputs": [
        {
          "internalType": "bytes8",
          "name": "version",
          "type": "bytes8"
        }
      ],
      "name": "upgrade",
      "outputs": [],
      "stateMutability": "nonpayable",
      "type": "function"
    },
    {
      "stateMutability": "payable",
      "type": "receive",
      "payable": true
    },
    {
      "inputs": [],
      "name": "getBalance",
      "outputs": [
        {
          "internalType": "uint256",
          "name": "",
          "type": "uint256"
        }
      ],
      "stateMutability": "view",
      "type": "function",
      "constant": true
    },
    {
      "inputs": [
        {
          "internalType": "address",
          "name": "token",
          "type": "address"
        }
      ],
      "name": "balanceOf20",
      "outputs": [
        {
          "internalType": "uint256",
          "name": "",
          "type": "uint256"
        }
      ],
      "stateMutability": "view",
      "type": "function",
      "constant": true
    },
    {
      "inputs": [
        {
          "internalType": "address",
          "name": "token",
          "type": "address"
        }
      ],
      "name": "balanceOf721",
      "outputs": [
        {
          "internalType": "uint256",
          "name": "",
          "type": "uint256"
        }
      ],
      "stateMutability": "view",
      "type": "function",
      "constant": true
    },
    {
      "inputs": [],
      "name": "migrate",
      "outputs": [],
      "stateMutability": "nonpayable",
      "type": "function"
    },
    {
      "inputs": [],
      "name": "version",
      "outputs": [
        {
          "internalType": "bytes8",
          "name": "",
          "type": "bytes8"
        }
      ],
      "stateMutability": "pure",
      "type": "function",
      "constant": true
    },
    {
      "inputs": [
        {
          "internalType": "bytes32",
          "name": "messageHash",
          "type": "bytes32"
        }
      ],
      "name": "blockTransaction",
      "outputs": [],
      "stateMutability": "nonpayable",
      "type": "function"
    },
    {
      "inputs": [
        {
          "internalType": "bytes32",
          "name": "messageHash",
          "type": "bytes32"
        }
      ],
      "name": "unblockTransaction",
      "outputs": [],
      "stateMutability": "nonpayable",
      "type": "function"
    },
    {
      "inputs": [
        {
          "internalType": "address",
          "name": "token",
          "type": "address"
        },
        {
          "internalType": "address",
          "name": "account",
          "type": "address"
        },
        {
          "internalType": "uint256",
          "name": "value",
          "type": "uint256"
        }
      ],
      "name": "erc20BalanceGT",
      "outputs": [],
      "stateMutability": "view",
      "type": "function",
      "constant": true
    },
    {
      "inputs": [
        {
          "components": [
            {
              "internalType": "uint8",
              "name": "v",
              "type": "uint8"
            },
            {
              "internalType": "bytes32",
              "name": "r",
              "type": "bytes32"
            },
            {
              "internalType": "bytes32",
              "name": "s",
              "type": "bytes32"
            },
            {
              "internalType": "bytes32",
              "name": "typeHash",
              "type": "bytes32"
            },
            {
              "internalType": "address",
              "name": "to",
              "type": "address"
            },
            {
              "internalType": "uint256",
              "name": "value",
              "type": "uint256"
            },
            {
              "components": [
                {
                  "internalType": "bool",
                  "name": "simple",
                  "type": "bool"
                },
                {
                  "internalType": "bool",
                  "name": "staticcall",
                  "type": "bool"
                },
                {
                  "internalType": "uint32",
                  "name": "gasLimit",
                  "type": "uint32"
                }
              ],
              "internalType": "struct Wallet.MetaData",
              "name": "metaData",
              "type": "tuple"
            },
            {
              "internalType": "bytes",
              "name": "data",
              "type": "bytes"
            }
          ],
          "internalType": "struct Wallet.Call",
          "name": "call",
          "type": "tuple"
        },
        {
          "internalType": "address",
          "name": "activator",
          "type": "address"
        },
        {
          "internalType": "uint256",
          "name": "targetNonce",
          "type": "uint256"
        }
      ],
      "name": "generateMessage",
      "outputs": [
        {
          "internalType": "bytes",
          "name": "",
          "type": "bytes"
        }
      ],
      "stateMutability": "pure",
      "type": "function",
      "constant": true
    },
    {
      "inputs": [
        {
          "components": [
            {
              "internalType": "uint8",
              "name": "v1",
              "type": "uint8"
            },
            {
              "internalType": "bytes32",
              "name": "r1",
              "type": "bytes32"
            },
            {
              "internalType": "bytes32",
              "name": "s1",
              "type": "bytes32"
            },
            {
              "internalType": "uint8",
              "name": "v2",
              "type": "uint8"
            },
            {
              "internalType": "bytes32",
              "name": "r2",
              "type": "bytes32"
            },
            {
              "internalType": "bytes32",
              "name": "s2",
              "type": "bytes32"
            },
            {
              "internalType": "bytes32",
              "name": "typeHash",
              "type": "bytes32"
            },
            {
              "internalType": "address",
              "name": "to",
              "type": "address"
            },
            {
              "internalType": "uint256",
              "name": "value",
              "type": "uint256"
            },
            {
              "components": [
                {
                  "internalType": "bool",
                  "name": "simple",
                  "type": "bool"
                },
                {
                  "internalType": "bool",
                  "name": "staticcall",
                  "type": "bool"
                },
                {
                  "internalType": "uint32",
                  "name": "gasLimit",
                  "type": "uint32"
                }
              ],
              "internalType": "struct Wallet.MetaData",
              "name": "metaData",
              "type": "tuple"
            },
            {
              "internalType": "bytes",
              "name": "data",
              "type": "bytes"
            }
          ],
          "internalType": "struct Wallet.XCall",
          "name": "call",
          "type": "tuple"
        },
        {
          "internalType": "uint256",
          "name": "targetNonce",
          "type": "uint256"
        }
      ],
      "name": "generateXXMessage",
      "outputs": [
        {
          "internalType": "bytes",
          "name": "",
          "type": "bytes"
        }
      ],
      "stateMutability": "pure",
      "type": "function",
      "constant": true
    },
    {
      "inputs": [
        {
          "components": [
            {
              "internalType": "uint8",
              "name": "v",
              "type": "uint8"
            },
            {
              "internalType": "bytes32",
              "name": "r",
              "type": "bytes32"
            },
            {
              "internalType": "bytes32",
              "name": "s",
              "type": "bytes32"
            },
            {
              "internalType": "bytes32",
              "name": "typeHash",
              "type": "bytes32"
            },
            {
              "internalType": "address",
              "name": "to",
              "type": "address"
            },
            {
              "internalType": "uint256",
              "name": "value",
              "type": "uint256"
            },
            {
              "components": [
                {
                  "internalType": "bool",
                  "name": "simple",
                  "type": "bool"
                },
                {
                  "internalType": "bool",
                  "name": "staticcall",
                  "type": "bool"
                },
                {
                  "internalType": "uint32",
                  "name": "gasLimit",
                  "type": "uint32"
                }
              ],
              "internalType": "struct Wallet.MetaData",
              "name": "metaData",
              "type": "tuple"
            },
            {
              "internalType": "bytes",
              "name": "data",
              "type": "bytes"
            }
          ],
          "internalType": "struct Wallet.Call[]",
          "name": "tr",
          "type": "tuple[]"
        }
      ],
      "name": "executeBatchCall",
      "outputs": [],
      "stateMutability": "payable",
      "type": "function",
      "payable": true
    },
    {
      "inputs": [
        {
          "components": [
            {
              "internalType": "uint8",
              "name": "v1",
              "type": "uint8"
            },
            {
              "internalType": "bytes32",
              "name": "r1",
              "type": "bytes32"
            },
            {
              "internalType": "bytes32",
              "name": "s1",
              "type": "bytes32"
            },
            {
              "internalType": "uint8",
              "name": "v2",
              "type": "uint8"
            },
            {
              "internalType": "bytes32",
              "name": "r2",
              "type": "bytes32"
            },
            {
              "internalType": "bytes32",
              "name": "s2",
              "type": "bytes32"
            },
            {
              "internalType": "bytes32",
              "name": "typeHash",
              "type": "bytes32"
            },
            {
              "internalType": "address",
              "name": "to",
              "type": "address"
            },
            {
              "internalType": "uint256",
              "name": "value",
              "type": "uint256"
            },
            {
              "components": [
                {
                  "internalType": "bool",
                  "name": "simple",
                  "type": "bool"
                },
                {
                  "internalType": "bool",
                  "name": "staticcall",
                  "type": "bool"
                },
                {
                  "internalType": "uint32",
                  "name": "gasLimit",
                  "type": "uint32"
                }
              ],
              "internalType": "struct Wallet.MetaData",
              "name": "metaData",
              "type": "tuple"
            },
            {
              "internalType": "bytes",
              "name": "data",
              "type": "bytes"
            }
          ],
          "internalType": "struct Wallet.XCall[]",
          "name": "tr",
          "type": "tuple[]"
        }
      ],
      "name": "executeXXBatchCall",
      "outputs": [],
      "stateMutability": "payable",
      "type": "function",
      "payable": true
    },
    {
      "inputs": [],
      "name": "cancelCall",
      "outputs": [],
      "stateMutability": "nonpayable",
      "type": "function"
    },
    {
      "inputs": [],
      "name": "nonce",
      "outputs": [
        {
          "internalType": "uint32",
          "name": "",
          "type": "uint32"
        }
      ],
      "stateMutability": "view",
      "type": "function",
      "constant": true
    }
  ],
  "bytecode": "0x608060405234801561001057600080fd5b50600080546001600160a01b031916331790556157ef80620000336000396000f3fe6080604052600436106103845760003560e01c80638fd3ab80116101d1578063d6d6705611610102578063e961a203116100a0578063f99ff3e81161006f578063f99ff3e814610a30578063fdafd4eb14610a45578063fec5a18d14610a64578063ffa1ad7414610a84576103d8565b8063e961a203146109bc578063f09a4016146109dc578063f514ce36146109fc578063f808a30914610a11576103d8565b8063e2e1d83b116100dc578063e2e1d83b14610708578063e520d10414610967578063e5f9f94d14610987578063e767e137146109a7576103d8565b8063d6d670561461091f578063dfed14b514610932578063e1bc35ab14610952576103d8565b8063af1fd6f81161016f578063c1c8277f11610149578063c1c8277f146108b8578063c572f15d146108cd578063cd7dbf4a146108e2578063d4b8399214610901576103d8565b8063af1fd6f814610857578063affed0e014610873578063b809e2f914610898576103d8565b8063a3907d71116101ab578063a3907d71146107ca578063a3f4df7e146107df578063aab3291a14610822578063ab04010714610842576103d8565b80638fd3ab801461077d5780639db652f4146107925780639e091e87146107b5576103d8565b80633d562561116102b657806350ea2297116102545780638025e303116102235780638025e303146105ec57806385e1f4d0146107285780638da5cb5b1461073e5780638f32d59b1461075c576103d8565b806350ea2297146106a557806354fd4d50146106c55780637396f189146106e85780637db683ee14610708576103d8565b8063447046bf11610290578063447046bf1461063b57806349629f08146106595780634e71e0c81461066e5780634eae51f414610683576103d8565b80633d562561146105ec5780633e95e62c14610613578063413d4f2314610628576103d8565b806323443944116103235780632a5dc72a116102fd5780632a5dc72a146105975780632e262542146105ac5780633644e515146105c157806336d62d40146105d7576103d8565b8063234439441461054d57806325b50934146105625780632852b71c14610582576103d8565b806303c01e681161035f57806303c01e68146104d857806312065fe0146104f9578063120e860c1461051657806318f9c6901461052b576103d8565b806253d7b01461044657806301ffc9a71461048057806302d05d3f146104b0576103d8565b366103d85760405162461bcd60e51b815260206004820152601b60248201527f57616c6c65743a206e6f7420616365657074696e67206574686572000000000060448201526064015b60405180910390fd5b005b3480156103e457600080fd5b506000356001600160e01b031916630a85bd0160e11b148061041857506000356001600160e01b03191663f23a6e6160e01b145b8061043557506000356001600160e01b03191663bc197c8160e01b145b156103d65760046000803760206000f35b34801561045257600080fd5b50601054600160381b900464ffffffffff165b60405164ffffffffff90911681526020015b60405180910390f35b34801561048c57600080fd5b506104a061049b366004615211565b610ab1565b6040519015158152602001610477565b3480156104bc57600080fd5b5060005b6040516001600160a01b039091168152602001610477565b3480156104e457600080fd5b506104a06003546001600160a01b0316331490565b34801561050557600080fd5b50475b604051908152602001610477565b34801561052257600080fd5b506103d6610ae8565b34801561053757600080fd5b50600354600160c81b900463ffffffff16610465565b34801561055957600080fd5b506103d6611040565b34801561056e57600080fd5b506104a061057d366004615211565b6110da565b34801561058e57600080fd5b506103d6611161565b3480156105a357600080fd5b50601154610508565b3480156105b857600080fd5b506103d66112d3565b3480156105cd57600080fd5b5061050860065481565b3480156105e357600080fd5b506105086114c8565b3480156105f857600080fd5b50610601600181565b60405160ff9091168152602001610477565b34801561061f57600080fd5b50610601600381565b6103d6610636366004615199565b61155b565b34801561064757600080fd5b506003546001600160a01b03166104c0565b34801561066557600080fd5b506103d6611b61565b34801561067a57600080fd5b506103d66122f1565b34801561068f57600080fd5b506106986125a8565b604051610477919061542d565b3480156106b157600080fd5b506103d66106c036600461538d565b61268b565b3480156106d157600080fd5b5060405164312e322e3160d81b8152602001610477565b3480156106f457600080fd5b506103d66107033660046150a2565b612888565b34801561071457600080fd5b50610508610723366004614ff2565b612cfc565b34801561073457600080fd5b5061050860075481565b34801561074a57600080fd5b506000546001600160a01b03166104c0565b34801561076857600080fd5b506104a06000546001600160a01b0316331490565b34801561078957600080fd5b506103d6612d76565b34801561079e57600080fd5b50600354600160a01b900464ffffffffff16610465565b3480156107c157600080fd5b50610465612f41565b3480156107d657600080fd5b506103d6612fe5565b3480156107eb57600080fd5b506108156040518060400160405280600a8152602001694b69726f626f204f435760b01b81525081565b6040516104779190615545565b34801561082e57600080fd5b5061081561083d3660046152f1565b6131b2565b34801561084e57600080fd5b506103d66131c7565b34801561086357600080fd5b5060105464ffffffffff16610465565b34801561087f57600080fd5b5060055460405163ffffffff9091168152602001610477565b3480156108a457600080fd5b506103d66108b33660046151f9565b61326f565b3480156108c457600080fd5b506103d66132cb565b3480156108d957600080fd5b50610465613446565b3480156108ee57600080fd5b50601054600160281b900460ff166104a0565b34801561090d57600080fd5b506001546001600160a01b03166104c0565b6103d661092d366004615199565b6134d8565b34801561093e57600080fd5b506103d661094d366004615062565b613c11565b34801561095e57600080fd5b50610601600281565b34801561097357600080fd5b506103d66109823660046150d6565b613cd8565b34801561099357600080fd5b506103d66109a23660046151f9565b614462565b3480156109b357600080fd5b506103d661450e565b3480156109c857600080fd5b506108156109d736600461532d565b6145a9565b3480156109e857600080fd5b506103d66109f736600461502a565b6145bc565b348015610a0857600080fd5b50600454610508565b348015610a1d57600080fd5b50600354600160e81b900460ff16610601565b348015610a3c57600080fd5b50610601600081565b348015610a5157600080fd5b50601054600160301b900460ff166104a0565b348015610a7057600080fd5b506103d6610a7f366004615239565b6146fd565b348015610a9057600080fd5b50610815604051806040016040528060018152602001603160f81b81525081565b60006001600160e01b031982166301ffc9a760e01b1480610ae257506001600160e01b03198216630271189760e51b145b92915050565b600354600160e81b900460ff16600214610b3e576040805162461bcd60e51b8152602060048201526012602482015271189858dadd5c081b9bdd08195b98589b195960721b604482015290519081900360640190fd5b6003546001600160a01b0316610b8e576040805162461bcd60e51b815260206004820152601060248201526f189858dadd5c081b9bdd08195e1a5cdd60821b604482015290519081900360640190fd5b610b96613446565b64ffffffffff1615610bdb576040805162461bcd60e51b8152602060048201526009602482015268746f6f206561726c7960b81b604482015290519081900360640190fd5b60038054600160e81b900460ff1614610c02576003805460ff60e81b1916600360e81b1790555b600354604080516302d05d3f60e01b8152905133926001600160a01b03169130916302d05d3f91600480820192602092909190829003018186803b158015610c4957600080fd5b505afa158015610c5d573d6000803e3d6000fd5b505050506040513d6020811015610c7357600080fd5b505160035460408051600160e81b90920460ff168252516001600160a01b03909216917fd4e12feccfc0af60abe3d9f07eaf999abd3329b4570bf80fdb4d5019f7f823d8916020908290030190a460004790506000306001600160a01b03166302d05d3f6040518163ffffffff1660e01b815260040160206040518083038186803b158015610d0157600080fd5b505afa158015610d15573d6000803e3d6000fd5b505050506040513d6020811015610d2b57600080fd5b5051604080516307dc0d1d60e41b815290516001600160a01b0390921691637dc0d1d091600480820192602092909190829003018186803b158015610d6f57600080fd5b505afa158015610d83573d6000803e3d6000fd5b505050506040513d6020811015610d9957600080fd5b50516040805163319a11df60e11b815290516001600160a01b039092169163633423be91600480820192602092909190829003018186803b158015610ddd57600080fd5b505afa158015610df1573d6000803e3d6000fd5b505050506040513d6020811015610e0757600080fd5b5051905060006001600160a01b03821660648460405162030d4092909104906000818181858888f193505050503d8060008114610e60576040519150601f19603f3d011682016040523d82523d6000602084013e610e65565b606091505b505090508015610f2657816001600160a01b0316306001600160a01b03166302d05d3f6040518163ffffffff1660e01b815260040160206040518083038186803b158015610eb257600080fd5b505afa158015610ec6573d6000803e3d6000fd5b505050506040513d6020811015610edc57600080fd5b50516001600160a01b03167f6e66b5d043b2434fe7d48f9b96e07c1fa4d6c6a7d7ac43fc1afc30267b36869860648660408051929091048252600060208301528051918290030190a35b6000336103e88560405162030d4092909104906000818181858888f193505050503d8060008114610f73576040519150601f19603f3d011682016040523d82523d6000602084013e610f78565b606091505b50509050801561103a57336001600160a01b0316306001600160a01b03166302d05d3f6040518163ffffffff1660e01b815260040160206040518083038186803b158015610fc557600080fd5b505afa158015610fd9573d6000803e3d6000fd5b505050506040513d6020811015610fef57600080fd5b50516001600160a01b03167f6e66b5d043b2434fe7d48f9b96e07c1fa4d6c6a7d7ac43fc1afc30267b3686986103e88760408051929091048252600160208301528051918290030190a35b50505050565b6000546001600160a01b031633148015611066575060038054600160e81b900460ff1614155b6110aa576040805162461bcd60e51b815260206004820152601060248201526f3737ba1030b1ba34bb329037bbb732b960811b604482015290519081900360640190fd5b6005546110be9063ffffffff166001615668565b6005805463ffffffff191663ffffffff92909216919091179055565b60006001600160e01b03198216630b135d3f60e11b148061110b57506001600160e01b031982166301ffc9a760e01b145b8061112657506001600160e01b03198216630a85bd0160e11b145b8061114157506001600160e01b0319821663f23a6e6160e01b145b80610ae257506001600160e01b0319821663bc197c8160e01b1492915050565b6003546001600160a01b031633146111ad576040805162461bcd60e51b815260206004820152600a60248201526906e6f74206261636b75760b41b604482015290519081900360640190fd5b600354600160e81b900460ff1615611201576040805162461bcd60e51b81526020600482015260126024820152716261636b7570206e6f742070656e64696e6760701b604482015290519081900360640190fd5b6003805460ff60e81b198116600160e81b17909155604080516302d05d3f60e01b815290516001600160a01b039092169130916302d05d3f916004808301926020929190829003018186803b15801561125957600080fd5b505afa15801561126d573d6000803e3d6000fd5b505050506040513d602081101561128357600080fd5b505160035460408051600160e81b90920460ff168252516001600160a01b03909216917f9b13e751ba276b9ecf994e9ecc38b895af7cded05c07f20e506f4a57f98dc3d3916020908290030190a3565b6000546001600160a01b0316331480156112f9575060038054600160e81b900460ff1614155b61133d576040805162461bcd60e51b815260206004820152601060248201526f3737ba1030b1ba34bb329037bbb732b960811b604482015290519081900360640190fd5b336001600160a01b0316306001600160a01b03166302d05d3f6040518163ffffffff1660e01b815260040160206040518083038186803b15801561138057600080fd5b505afa158015611394573d6000803e3d6000fd5b505050506040513d60208110156113aa57600080fd5b50516040516001600160a01b03909116907f386ee292f5f7e1923094e3f15e2c182b0ffaa3b312df32094e994d8e0f1d393a90600090a360105464ffffffffff16156113ff576010805464ffffffffff191690555b601054600160281b900460ff1615611421576010805465ff0000000000191690555b601054600160301b900460ff1615611444576010805466ff000000000000191690555b601154156114525760006011555b60005b60088110156114c557600060088281811061148057634e487b7160e01b600052603260045260246000fd5b0180549091506001600160a01b0316611497575050565b8054600160a01b900460ff16156114b457805460ff60a01b191681555b506114be81615738565b9050611455565b50565b6000805b60088110156115575760006008828181106114f757634e487b7160e01b600052603260045260246000fd5b01546001600160a01b0316141561150c575090565b60088181811061152c57634e487b7160e01b600052603260045260246000fd5b015461154390600160a81b900461ffff1683615650565b91508061154f81615738565b9150506114cc565b5090565b60038054600160e81b900460ff1614156115af576040805162461bcd60e51b815260206004820152601060248201526f6e6f742061637469766520737461746560801b604482015290519081900360640190fd5b6000306001600160a01b03166302d05d3f6040518163ffffffff1660e01b815260040160206040518083038186803b1580156115ea57600080fd5b505afa1580156115fe573d6000803e3d6000fd5b505050506040513d601f19601f82011682018060405250810190611622919061500e565b90506000816001600160a01b0316634ecea9926040518163ffffffff1660e01b815260040160206040518083038186803b15801561165f57600080fd5b505afa158015611673573d6000803e3d6000fd5b505050506040513d601f19601f82011682018060405250810190611697919061500e565b60055460005491925063ffffffff16906001600160a01b039081169083163314806116ca5750336001600160a01b038216145b6117165760405162461bcd60e51b815260206004820152601a60248201527f57616c6c65743a2073656e646572206e6f7420616c6c6f77656400000000000060448201526064016103cd565b60005b85811015611afb573687878381811061174257634e487b7160e01b600052603260045260246000fd5b9050602002810190611754919061559d565b9050600061176860a0830160808401614ff2565b9050600061177e6101208401610100850161538d565b63ffffffff169050600060016117b46117a08633898c63ffffffff160161481b565b805160209091012060608701351515614998565b6117c160208701876153a7565b604080516000815260208181018084529490945260ff9092168282015291870135606082015290860135608082015260a0016020604051602081039080840390855afa158015611815573d6000803e3d6000fd5b5050604051601f1901519150506001600160a01b03811633141561187b5760405162461bcd60e51b815260206004820152601f60248201527f57616c6c65743a2073656e6465722063616e6e6f74206265207369676e65720060448201526064016103cd565b856001600160a01b0316816001600160a01b031614806118ac5750876001600160a01b0316816001600160a01b0316145b6118f85760405162461bcd60e51b815260206004820152601a60248201527f57616c6c65743a207369676e6572206e6f7420616c6c6f77656400000000000060448201526064016103cd565b6001600160a01b03831633148015906119235750806001600160a01b0316836001600160a01b031614155b801561193857506001600160a01b0383163014155b80156119565750886001600160a01b0316836001600160a01b031614155b6119a25760405162461bcd60e51b815260206004820152601e60248201527f57616c6c65743a207265656e7472616e6379206e6f7420616c6c6f776564000060448201526064016103cd565b506000806119b7610100860160e087016151d9565b611a3f57836001600160a01b0316600084116119d3575a6119d5565b835b60a08701356119e8610120890189615558565b6040516119f692919061541d565b600060405180830381858888f193505050503d8060008114611a34576040519150601f19603f3d011682016040523d82523d6000602084013e611a39565b606091505b50611ab8565b836001600160a01b031660008411611a57575a611a59565b835b611a67610120880188615558565b604051611a7592919061541d565b6000604051808303818686fa925050503d8060008114611ab1576040519150601f19603f3d011682016040523d82523d6000602084013e611ab6565b606091505b505b9150915081611ae357611aca81614a31565b60405162461bcd60e51b81526004016103cd9190615545565b50505050508080611af390615738565b915050611719565b506005805463ffffffff191686840163ffffffff161790556040514381526001600160a01b0384811691838216918716907f38634a1857869887aba8b9dde8624489eb6dab90d7f84bdc133c95a2523b90739060200160405180910390a4505050505050565b601054600160281b900460ff16611bbf576040805162461bcd60e51b815260206004820152601a60248201527f696e6865726974616e6365206973206e6f7420656e61626c6564000000000000604482015290519081900360640190fd5b601054600160301b900460ff1615611c1e576040805162461bcd60e51b815260206004820152601860248201527f696e6865726974616e6365206973206163746976617465640000000000000000604482015290519081900360640190fd5b611c26612f41565b64ffffffffff1615611c6b576040805162461bcd60e51b8152602060048201526009602482015268746f6f206561726c7960b81b604482015290519081900360640190fd5b6010805466ff0000000000001916600160301b179055604080516302d05d3f60e01b81529051479160009130916302d05d3f916004808301926020929190829003018186803b158015611cbd57600080fd5b505afa158015611cd1573d6000803e3d6000fd5b505050506040513d6020811015611ce757600080fd5b5051604080516307dc0d1d60e41b815290516001600160a01b0390921691637dc0d1d091600480820192602092909190829003018186803b158015611d2b57600080fd5b505afa158015611d3f573d6000803e3d6000fd5b505050506040513d6020811015611d5557600080fd5b50516040805163319a11df60e11b815290516001600160a01b039092169163633423be91600480820192602092909190829003018186803b158015611d9957600080fd5b505afa158015611dad573d6000803e3d6000fd5b505050506040513d6020811015611dc357600080fd5b5051905060006001600160a01b038216611dde606485615690565b60405162030d4091906000818181858888f193505050503d8060008114611e21576040519150601f19603f3d011682016040523d82523d6000602084013e611e26565b606091505b505090508015611eec57816001600160a01b0316306001600160a01b03166302d05d3f6040518163ffffffff1660e01b815260040160206040518083038186803b158015611e7357600080fd5b505afa158015611e87573d6000803e3d6000fd5b505050506040513d6020811015611e9d57600080fd5b50516001600160a01b03167f0d0176dbbceb582bb24dc965bd866421e9de5afe8bb827dc2a48df2826ad40fd611ed4606487615690565b60408051918252600060208301528051918290030190a35b600033611efb6103e886615690565b60405162030d4091906000818181858888f193505050503d8060008114611f3e576040519150601f19603f3d011682016040523d82523d6000602084013e611f43565b606091505b50509050801561200a57336001600160a01b0316306001600160a01b03166302d05d3f6040518163ffffffff1660e01b815260040160206040518083038186803b158015611f9057600080fd5b505afa158015611fa4573d6000803e3d6000fd5b505050506040513d6020811015611fba57600080fd5b50516001600160a01b03167f0d0176dbbceb582bb24dc965bd866421e9de5afe8bb827dc2a48df2826ad40fd611ff26103e888615690565b60408051918252600160208301528051918290030190a35b47935060005b600881101561210f57600060088281811061203b57634e487b7160e01b600052603260045260246000fd5b0180549091506001600160a01b0316612054575061210f565b8054600160a81b900461ffff16156120fc5780546000906001600160a01b038116906127109061208f90600160a81b900461ffff168a6156b0565b6120999190615690565b60405162030d4091906000818181858888f193505050503d80600081146120dc576040519150601f19603f3d011682016040523d82523d6000602084013e6120e1565b606091505b50508254901515600160a01b0260ff60a01b19909116178255505b508061210781615738565b915050612010565b61211947866156cf565b60115560008167ffffffffffffffff81111561214557634e487b7160e01b600052604160045260246000fd5b60405190808252806020026020018201604052801561216e578160200160208202803683370190505b50905060005b828110156121fb57600060088281811061219e57634e487b7160e01b600052603260045260246000fd5b01805484519192506001600160a01b0316908490849081106121d057634e487b7160e01b600052603260045260246000fd5b6001600160a01b039092166020928302919091019091015250806121f381615738565b915050612174565b50336001600160a01b0316306001600160a01b03166302d05d3f6040518163ffffffff1660e01b815260040160206040518083038186803b15801561223f57600080fd5b505afa158015612253573d6000803e3d6000fd5b505050506040513d602081101561226957600080fd5b505160408051602080825285518282015285516001600160a01b03909416937f7ad28155b9b8629f2cd82bb7d184fbd7726696408380767a0cf3ef763209da8a93879392839291830191858201910280838360005b838110156122d65781810151838201526020016122be565b505050509050019250505060405180910390a3505050505050565b6003546001600160a01b0316331461233d576040805162461bcd60e51b815260206004820152600a60248201526906e6f74206261636b75760b41b604482015290519081900360640190fd5b60038054600160e81b900460ff1614612394576040805162461bcd60e51b8152602060048201526014602482015273189858dadd5c081b9bdd081858dd1a5d985d195960621b604482015290519081900360640190fd5b6003805460ff60e81b198116909155600054604080516302d05d3f60e01b815290516001600160a01b03938416939092169130916302d05d3f916004808301926020929190829003018186803b1580156123ed57600080fd5b505afa158015612401573d6000803e3d6000fd5b505050506040513d602081101561241757600080fd5b505160035460408051600160e81b90920460ff168252516001600160a01b03909216917fa477fcc649c392c3ab5443bd6c7e532261a90d5e3f29376513d5275e277ddae3916020908290030190a46003546000546001600160a01b0390811691161461254957306001600160a01b03166302d05d3f6040518163ffffffff1660e01b815260040160206040518083038186803b1580156124b657600080fd5b505afa1580156124ca573d6000803e3d6000fd5b505050506040513d60208110156124e057600080fd5b50516003546040805163bf3b110160e01b81526001600160a01b0392831660048201529051919092169163bf3b110191602480830192600092919082900301818387803b15801561253057600080fd5b505af1158015612544573d6000803e3d6000fd5b505050505b600380546001600160a01b03191690819055600160c81b900463ffffffff161561257e576003805463ffffffff60c81b191690555b600354600160a01b900464ffffffffff16156125a6576003805464ffffffffff60a01b191690555b565b6125b0614ef2565b60005b60088110156115575760006008828181106125de57634e487b7160e01b600052603260045260246000fd5b0180549091506001600160a01b03166125f657505090565b8054600160a81b810460481b6affff0000000000000000001690600160a01b900460ff1661262557600061262b565b600160581b5b8254612649919060601b6bffffffffffffffffffffffff1916615650565b6126539190615650565b83836008811061267357634e487b7160e01b600052603260045260246000fd5b6020020152508061268381615738565b9150506125b3565b6000546001600160a01b0316331480156126b1575060038054600160e81b900460ff1614155b6126f5576040805162461bcd60e51b815260206004820152601060248201526f3737ba1030b1ba34bb329037bbb732b960811b604482015290519081900360640190fd5b601054600160301b900460ff161561274c576040805162461bcd60e51b81526020600482015260156024820152741a5b9a195c9a5d185b98d9481858dd1a5d985d1959605a1b604482015290519081900360640190fd5b601054429064ffffffffff1663ffffffff83161461277b576010805464ffffffffff191663ffffffff84161790555b601054600160281b900460ff1615156001146127a7576010805465ff00000000001916600160281b1790555b601080546bffffffffff000000000000001916600160381b64ffffffffff841602179055604080516302d05d3f60e01b81529051339130916302d05d3f91600480820192602092909190829003018186803b15801561280557600080fd5b505afa158015612819573d6000803e3d6000fd5b505050506040513d602081101561282f57600080fd5b50516040805163ffffffff8616815264ffffffffff8516602082015281516001600160a01b03909316927f219376dc9430460f83af8f607e5c09085e95b4d8096b01b231afc1ee7958d5e2929181900390910190a35050565b6000546001600160a01b0316331480156128ae575060038054600160e81b900460ff1614155b6128f2576040805162461bcd60e51b815260206004820152601060248201526f3737ba1030b1ba34bb329037bbb732b960811b604482015290519081900360640190fd5b6001600160a01b038216612939576040805162461bcd60e51b815260206004820152600960248201526806e6f206261636b75760bc1b604482015290519081900360640190fd5b6000546001600160a01b038381169116141561298e576040805162461bcd60e51b815260206004820152600f60248201526e3130b1b5bab81034b99037bbb732b960891b604482015290519081900360640190fd5b6003546001600160a01b03838116911614612bab576003546001600160a01b031615612a8057306001600160a01b03166302d05d3f6040518163ffffffff1660e01b815260040160206040518083038186803b1580156129ed57600080fd5b505afa158015612a01573d6000803e3d6000fd5b505050506040513d6020811015612a1757600080fd5b50516003546040805163cf2f774160e01b81526001600160a01b0392831660048201529051919092169163cf2f774191602480830192600092919082900301818387803b158015612a6757600080fd5b505af1158015612a7b573d6000803e3d6000fd5b505050505b600380546001600160a01b0319166001600160a01b038416179055604080516302d05d3f60e01b8152905130916302d05d3f916004808301926020929190829003018186803b158015612ad257600080fd5b505afa158015612ae6573d6000803e3d6000fd5b505050506040513d6020811015612afc57600080fd5b50516040805163a196de8360e01b81526001600160a01b0385811660048301529151919092169163a196de8391602480830192600092919082900301818387803b158015612b4957600080fd5b505af1158015612b5d573d6000803e3d6000fd5b5050600354600160e81b900460ff16159150612b839050576003805460ff60e81b191690555b600354600160a01b900464ffffffffff1615612bab576003805464ffffffffff60a01b191690555b60035463ffffffff828116600160c81b9092041614612be3576003805463ffffffff60c81b1916600160c81b63ffffffff8416021790555b600354600160e81b900460ff1660021415612c19576003805464ffffffffff60a01b1916600160a01b64ffffffffff4216021790555b600054604080516302d05d3f60e01b815290516001600160a01b0380861693169130916302d05d3f91600480820192602092909190829003018186803b158015612c6257600080fd5b505afa158015612c76573d6000803e3d6000fd5b505050506040513d6020811015612c8c57600080fd5b50516003546040805163ffffffff87168152600160a01b830464ffffffffff166020820152600160e81b90920460ff1682820152516001600160a01b03909216917fea8790173f54c9b092a2e436f8aa3840b46da469df3b5161893625d09bfc54e5916060908290030190a45050565b6040516370a0823160e01b81523060048201526000906001600160a01b038316906370a082319060240160206040518083038186803b158015612d3e57600080fd5b505afa158015612d52573d6000803e3d6000fd5b505050506040513d601f19601f82011682018060405250810190610ae29190615375565b306001600160a01b03166302d05d3f6040518163ffffffff1660e01b815260040160206040518083038186803b158015612daf57600080fd5b505afa158015612dc3573d6000803e3d6000fd5b505050506040513d6020811015612dd957600080fd5b50516001600160a01b03163314612e25576040805162461bcd60e51b815260206004820152600b60248201526a3737ba1031b932b0ba37b960a91b604482015290519081900360640190fd5b4630601060c0612e366001436156cf565b40901b901c17600160f81b1760048190556007829055604080518082018252600a8152694b69726f626f204f435760b01b6020918201528151808301835260018152603160f81b908201529051612f23927fd87cd6ef79d4e2b95e15ce8abf732db51ec771f1ca2edccf22a46c729ac56472927fddc2fe95794a7a4bc7ff98c0a711a262fc20ca1b842849f62c342e4818c148cd927fc89efdaa54c0f20c7adf612882df0950f5a951637e0307cdcb4c672f298b8bc69287923092019586526020860194909452604085019290925260608401526001600160a01b0316608083015260a082015260c00190565b60408051601f19818403018152919052805160209091012060065550565b6010546000904290600160381b900464ffffffffff1615801590612f79575060105464ffffffffff600160381b909104811690821610155b8015612fab5750601054612f9b90600160381b900464ffffffffff16826156e6565b60105464ffffffffff9182169116115b1561155757601054612fcb90600160381b900464ffffffffff16826156e6565b601054612fdf919064ffffffffff166156e6565b91505090565b6000546001600160a01b031633148061300857506003546001600160a01b031633145b613059576040805162461bcd60e51b815260206004820152601860248201527f6e656974686572206f776e6572206e6f72206261636b75700000000000000000604482015290519081900360640190fd5b600354600160e81b900460ff166001146130b2576040805162461bcd60e51b8152602060048201526015602482015274189858dadd5c081b9bdd081c9959da5cdd195c9959605a1b604482015290519081900360640190fd5b6000426003805464ffffffffff8316600160a01b0269ff00000000ffffffffff60a01b1990911617600160e91b1790819055604080516302d05d3f60e01b815290519293506001600160a01b039091169130916302d05d3f916004808301926020929190829003018186803b15801561312a57600080fd5b505afa15801561313e573d6000803e3d6000fd5b505050506040513d602081101561315457600080fd5b50516003546040805164ffffffffff86168152600160e81b90920460ff16602083015280516001600160a01b03909316927f6108265a31b1c1ca2c7f424e7e33437d70ea2dbefdd8ee475060d1bdd0a85bf39281900390910190a350565b60606131bf84848461481b565b949350505050565b6003546001600160a01b03163314613213576040805162461bcd60e51b815260206004820152600a60248201526906e6f74206261636b75760b41b604482015290519081900360640190fd5b600354600160e81b900460ff1615613267576040805162461bcd60e51b81526020600482015260126024820152716261636b7570206e6f742070656e64696e6760701b604482015290519081900360640190fd5b6125a6614a76565b6000546001600160a01b031633146132ba576040805162461bcd60e51b81526020600482015260096024820152683737ba1037bbb732b960b91b604482015290519081900360640190fd5b600090815260026020526040812055565b6000546001600160a01b03163314613316576040805162461bcd60e51b81526020600482015260096024820152683737ba1037bbb732b960b91b604482015290519081900360640190fd5b60038054600160e81b900460ff161461336d576040805162461bcd60e51b8152602060048201526014602482015273189858dadd5c081b9bdd081858dd1a5d985d195960621b604482015290519081900360640190fd5b60038054600160e81b60ff60e81b19821617909155600054604080516302d05d3f60e01b815290516001600160a01b03938416939092169130916302d05d3f916004808301926020929190829003018186803b1580156133cc57600080fd5b505afa1580156133e0573d6000803e3d6000fd5b505050506040513d60208110156133f657600080fd5b505160035460408051600160e81b90920460ff168252516001600160a01b03909216917f7bb264af598eac77bc57cdad3b10f6eddc737a116ef45e864d3626346dcb23b4916020908290030190a4565b6003546000904290600160a01b900464ffffffffff161580159061347e575060035464ffffffffff600160a01b909104811690821610155b80156134ab5750600354600160a01b810464ffffffffff908116830316600160c81b90910463ffffffff16115b1561155757600354600160a01b810464ffffffffff16909103600160c81b90910463ffffffff1603919050565b60038054600160e81b900460ff16141561352c576040805162461bcd60e51b815260206004820152601060248201526f6e6f742061637469766520737461746560801b604482015290519081900360640190fd5b6000306001600160a01b03166302d05d3f6040518163ffffffff1660e01b815260040160206040518083038186803b15801561356757600080fd5b505afa15801561357b573d6000803e3d6000fd5b505050506040513d601f19601f8201168201806040525081019061359f919061500e565b90506000816001600160a01b0316634ecea9926040518163ffffffff1660e01b815260040160206040518083038186803b1580156135dc57600080fd5b505afa1580156135f0573d6000803e3d6000fd5b505050506040513d601f19601f82011682018060405250810190613614919061500e565b6000549091506001600160a01b03163314806136385750336001600160a01b038216145b6136965760405162461bcd60e51b815260206004820152602960248201527f57616c6c65743a2073656e646572206973206e6f74206f776e6572206e6f722060448201526830b1ba34bb30ba37b960b91b60648201526084016103cd565b60005b83811015613b9357368585838181106136c257634e487b7160e01b600052603260045260246000fd5b90506020028101906136d491906155bd565b60055490915060009060019061370b906136f790859063ffffffff168701614c93565b805160209091012060c08501351515614998565b61371860208501856153a7565b604080516000815260208181018084529490945260ff9092168282015291850135606082015290840135608082015260a0016020604051602081039080840390855afa15801561376c573d6000803e3d6000fd5b5050604051601f190151600554909250600091506001906137ae9061379a90869063ffffffff168801614c93565b805160209091012060c08601351515614998565b6137be60808601606087016153a7565b6040805160008152602081018083529390935260ff90911690820152608080860135606083015260a08087013591830191909152016020604051602081039080840390855afa158015613815573d6000803e3d6000fd5b5050604051601f1901516000549092506001600160a01b0384811691161490506138815760405162461bcd60e51b815260206004820152601c60248201527f57616c6c65743a207369676e657231206973206e6f74206f776e65720000000060448201526064016103cd565b846001600160a01b0316816001600160a01b0316146138e25760405162461bcd60e51b815260206004820181905260248201527f57616c6c65743a207369676e657232206973206e6f7420616374697661746f7260448201526064016103cd565b6001600160a01b0382166138fd610100850160e08601614ff2565b6001600160a01b03161415801561393657506001600160a01b03811661392a610100850160e08601614ff2565b6001600160a01b031614155b801561395b57503061394f610100850160e08601614ff2565b6001600160a01b031614155b801561398957506001600160a01b03861661397d610100850160e08601614ff2565b6001600160a01b031614155b6139d55760405162461bcd60e51b815260206004820152601e60248201527f57616c6c65743a207265656e7472616e6379206e6f7420616c6c6f776564000060448201526064016103cd565b5060009050806139ed610160840161014085016151d9565b613ab457613a02610100840160e08501614ff2565b6001600160a01b03166000613a1f6101808601610160870161538d565b63ffffffff1611613a30575a613a49565b613a426101808501610160860161538d565b63ffffffff165b610100850135613a5d610180870187615558565b604051613a6b92919061541d565b600060405180830381858888f193505050503d8060008114613aa9576040519150601f19603f3d011682016040523d82523d6000602084013e613aae565b606091505b50613b6b565b613ac5610100840160e08501614ff2565b6001600160a01b03166000613ae26101808601610160870161538d565b63ffffffff1611613af3575a613b0c565b613b056101808501610160860161538d565b63ffffffff165b613b1a610180860186615558565b604051613b2892919061541d565b6000604051808303818686fa925050503d8060008114613b64576040519150601f19603f3d011682016040523d82523d6000602084013e613b69565b606091505b505b9150915081613b7d57611aca81614a31565b5050508080613b8b90615738565b915050613699565b50600554613ba890849063ffffffff16615668565b6005805463ffffffff191663ffffffff929092169190911790556000546040514381526001600160a01b0383811692811691908516907f38634a1857869887aba8b9dde8624489eb6dab90d7f84bdc133c95a2523b90739060200160405180910390a450505050565b6040516370a0823160e01b81526001600160a01b0383811660048301528291908516906370a082319060240160206040518083038186803b158015613c5557600080fd5b505afa158015613c69573d6000803e3d6000fd5b505050506040513d601f19601f82011682018060405250810190613c8d9190615375565b1015613cd35760405162461bcd60e51b8152602060048201526015602482015274455243323042616c616e63653a20746f6f206c6f7760581b60448201526064016103cd565b505050565b6000546001600160a01b031633148015613cfe575060038054600160e81b900460ff1614155b613d42576040805162461bcd60e51b815260206004820152601060248201526f3737ba1030b1ba34bb329037bbb732b960811b604482015290519081900360640190fd5b601054600160301b900460ff1615613d99576040805162461bcd60e51b81526020600482015260156024820152741a5b9a195c9a5d185b98d9481858dd1a5d985d1959605a1b604482015290519081900360640190fd5b600882511115613de1576040805162461bcd60e51b815260206004820152600e60248201526d746f6f206d616e7920686569727360901b604482015290519081900360640190fd5b8051825114613e37576040805162461bcd60e51b815260206004820152601960248201527f686569727320616e642062707320646f6e2774206d6174636800000000000000604482015290519081900360640190fd5b6000805b8351811015613f9457828181518110613e6457634e487b7160e01b600052603260045260246000fd5b602002602001015161ffff1682613e7b9190615650565b915060006001600160a01b0316848281518110613ea857634e487b7160e01b600052603260045260246000fd5b60200260200101516001600160a01b03161415613ef6576040805162461bcd60e51b81526020600482015260076024820152663737903432b4b960c91b604482015290519081900360640190fd5b306001600160a01b0316848281518110613f2057634e487b7160e01b600052603260045260246000fd5b60200260200101516001600160a01b03161415613f84576040805162461bcd60e51b815260206004820152601860248201527f63757272656e7420636f6e747261637420697320686569720000000000000000604482015290519081900360640190fd5b613f8d81615738565b9050613e3b565b612710821115613fd8576040805162461bcd60e51b815260206004820152600a602482015269746f74616c3e3130302560b01b604482015290519081900360640190fd5b5060005b835181101561414557600060088281811061400757634e487b7160e01b600052603260045260246000fd5b01905084828151811061402a57634e487b7160e01b600052603260045260246000fd5b602090810291909101015181546001600160a01b0390811691161461408f5784828151811061406957634e487b7160e01b600052603260045260246000fd5b602090810291909101015181546001600160a01b0319166001600160a01b039091161781555b8382815181106140af57634e487b7160e01b600052603260045260246000fd5b60209081029190910101518154600160a81b900461ffff908116911614614117578382815181106140f057634e487b7160e01b600052603260045260246000fd5b6020908102919091010151815461ffff909116600160a81b0261ffff60a81b199091161781555b8054600160a01b900460ff161561413457805460ff60a01b191681555b5061413e81615738565b9050613fdc565b614151600160086156cf565b81101561419f57600060088281811061417a57634e487b7160e01b600052603260045260246000fd5b0180549091506001600160a01b03161561419d5780546001600160a01b03191681555b505b60008167ffffffffffffffff8111156141c857634e487b7160e01b600052604160045260246000fd5b6040519080825280602002602001820160405280156141f1578160200160208202803683370190505b50905060008267ffffffffffffffff81111561421d57634e487b7160e01b600052604160045260246000fd5b604051908082528060200260200182016040528015614246578160200160208202803683370190505b50905060005b8381101561432157600060088281811061427657634e487b7160e01b600052603260045260246000fd5b01805485519192506001600160a01b0316908590849081106142a857634e487b7160e01b600052603260045260246000fd5b60200260200101906001600160a01b031690816001600160a01b0316815250508060000160159054906101000a900461ffff168383815181106142fb57634e487b7160e01b600052603260045260246000fd5b61ffff90921660209283029190910190910152508061431981615738565b91505061424c565b50336001600160a01b0316306001600160a01b03166302d05d3f6040518163ffffffff1660e01b815260040160206040518083038186803b15801561436557600080fd5b505afa158015614379573d6000803e3d6000fd5b505050506040513d602081101561438f57600080fd5b50516040805181815285519181019190915284516001600160a01b03909216917fa52c4f91db65575e6917fd3e55dc251bf777970366ade6b0df9abc78e0345df591869186919081906020828101916060840191878101910280838360005b838110156144065781810151838201526020016143ee565b50505050905001838103825284818151815260200191508051906020019060200280838360005b8381101561444557818101518382015260200161442d565b5050505090500194505050505060405180910390a3505050505050565b6000546001600160a01b031633146144ad576040805162461bcd60e51b81526020600482015260096024820152683737ba1037bbb732b960b91b604482015290519081900360640190fd5b806144fa5760405162461bcd60e51b815260206004820152601b60248201527f626c6f636b696e6720307830206973206e6f7420616c6c6f776564000000000060448201526064016103cd565b600090815260026020526040902060019055565b6000546001600160a01b03163314614559576040805162461bcd60e51b81526020600482015260096024820152683737ba1037bbb732b960b91b604482015290519081900360640190fd5b6003546001600160a01b0316613267576040805162461bcd60e51b815260206004820152601060248201526f189858dadd5c081b9bdd08195e1a5cdd60821b604482015290519081900360640190fd5b60606145b58383614c93565b9392505050565b306001600160a01b03166302d05d3f6040518163ffffffff1660e01b815260040160206040518083038186803b1580156145f557600080fd5b505afa158015614609573d6000803e3d6000fd5b505050506040513d602081101561461f57600080fd5b50516001600160a01b0316331461466b576040805162461bcd60e51b815260206004820152600b60248201526a3737ba1031b932b0ba37b960a91b604482015290519081900360640190fd5b6000546001600160a01b0383811691161480159061469157506001600160a01b03821615155b156146b257600080546001600160a01b0319166001600160a01b0384161790555b6001546001600160a01b038281169116148015906146d857506001600160a01b03811615155b156146f957600180546001600160a01b0319166001600160a01b0383161790555b5050565b6000546001600160a01b03163314614748576040805162461bcd60e51b81526020600482015260096024820152683737ba1037bbb732b960b91b604482015290519081900360640190fd5b306001600160a01b03166302d05d3f6040518163ffffffff1660e01b815260040160206040518083038186803b15801561478157600080fd5b505afa158015614795573d6000803e3d6000fd5b505050506040513d60208110156147ab57600080fd5b5051604080516318beb60960e31b81526001600160c01b03198416600482015290516001600160a01b039092169163c5f5b0489160248082019260009290919082900301818387803b15801561480057600080fd5b505af1158015614814573d6000803e3d6000fd5b5050505050565b606061482d60e0850160c086016151d9565b6148cf5760608401358361484760a0870160808801614ff2565b60a08701358561485e6101008a0160e08b016151d9565b6148706101208b016101008c0161538d565b6148866148816101208d018d615558565b614e10565b6148946101208d018d615558565b6148a2916004908290615628565b6040516020016148bb9a9998979695949392919061545f565b6040516020818303038152906040526131bf565b6060840135836148e560a0870160808801614ff2565b60a0870135856148fc6101008a0160e08b016151d9565b61490e6101208b016101008c0161538d565b61491c6101208c018c615558565b60405161492a92919061541d565b6040805191829003822060208301999099526001600160a01b0397881690820152959094166060860152608085019290925260a0840152151560c083015263ffffffff1660e08201526101008101919091526101200160405160208183030381529060405290509392505050565b600081156149e05760065460405161190160f01b6020820152602281019190915260428101849052606201604051602081830303815290604052805190602001209050610ae2565b6040517f19457468657265756d205369676e6564204d6573736167653a0a3332000000006020820152603c8101849052605c0160405160208183030381529060405280519060200120905092915050565b6060604482511015614a5c576040518060600160405280602581526020016157956025913992915050565b60048201915081806020019051810190610ae29190615261565b6003546001600160a01b03168015614b6157306001600160a01b03166302d05d3f6040518163ffffffff1660e01b815260040160206040518083038186803b158015614ac157600080fd5b505afa158015614ad5573d6000803e3d6000fd5b505050506040513d6020811015614aeb57600080fd5b50516040805163cf2f774160e01b81526001600160a01b0384811660048301529151919092169163cf2f774191602480830192600092919082900301818387803b158015614b3857600080fd5b505af1158015614b4c573d6000803e3d6000fd5b5050600380546001600160a01b031916905550505b600354600160c81b900463ffffffff1615614b87576003805463ffffffff60c81b191690555b600354600160a01b900464ffffffffff1615614baf576003805464ffffffffff60a01b191690555b600354600160e81b900460ff1615614bcf576003805460ff60e81b191690555b600054604080516302d05d3f60e01b815290516001600160a01b0380851693169130916302d05d3f91600480820192602092909190829003018186803b158015614c1857600080fd5b505afa158015614c2c573d6000803e3d6000fd5b505050506040513d6020811015614c4257600080fd5b505160035460408051600160e81b90920460ff168252516001600160a01b03909216917f7e9b775ba644794a5770a533d5fc90e00b98f998e81c66fce5d7f4e1bc3d8718916020908290030190a450565b6060614ca7610140840161012085016151d9565b614d455760c0830135614cc1610100850160e08601614ff2565b61010085013584614cda610160880161014089016151d9565b614cec61018089016101608a0161538d565b614cfd6148816101808b018b615558565b614d0b6101808b018b615558565b614d19916004908290615628565b604051602001614d31999897969594939291906154d7565b6040516020818303038152906040526145b5565b60c0830135614d5b610100850160e08601614ff2565b61010085013584614d74610160880161014089016151d9565b614d8661018089016101608a0161538d565b614d946101808a018a615558565b604051614da292919061541d565b604051908190038120614df9979695949392916020019687526001600160a01b03959095166020870152604086019390935260608501919091521515608084015263ffffffff1660a083015260c082015260e00190565b604051602081830303815290604052905092915050565b6000601883836003818110614e3557634e487b7160e01b600052603260045260246000fd5b909101356001600160f81b03191690911c9050601084846002818110614e6b57634e487b7160e01b600052603260045260246000fd5b909101356001600160f81b03191690911c9050600885856001818110614ea157634e487b7160e01b600052603260045260246000fd5b909101356001600160f81b03191690911c90508585600081614ed357634e487b7160e01b600052603260045260246000fd5b9050013560f81c60f81b6001600160f81b031916171717905092915050565b6040518061010001604052806008906020820280368337509192915050565b60008083601f840112614f22578182fd5b50813567ffffffffffffffff811115614f39578182fd5b6020830191508360208260051b8501011115614f5457600080fd5b9250929050565b600082601f830112614f6b578081fd5b81356020614f80614f7b83615604565b6155d3565b80838252828201915082860187848660051b8901011115614f9f578586fd5b855b85811015614fcc57813561ffff81168114614fba578788fd5b84529284019290840190600101614fa1565b5090979650505050505050565b803563ffffffff81168114614fed57600080fd5b919050565b600060208284031215615003578081fd5b81356145b58161577f565b60006020828403121561501f578081fd5b81516145b58161577f565b6000806040838503121561503c578081fd5b82356150478161577f565b915060208301356150578161577f565b809150509250929050565b600080600060608486031215615076578081fd5b83356150818161577f565b925060208401356150918161577f565b929592945050506040919091013590565b600080604083850312156150b4578182fd5b82356150bf8161577f565b91506150cd60208401614fd9565b90509250929050565b600080604083850312156150e8578081fd5b823567ffffffffffffffff808211156150ff578283fd5b818501915085601f830112615112578283fd5b81356020615122614f7b83615604565b8083825282820191508286018a848660051b8901011115615141578788fd5b8796505b8487101561516c5780356151588161577f565b835260019690960195918301918301615145565b5096505086013592505080821115615182578283fd5b5061518f85828601614f5b565b9150509250929050565b600080602083850312156151ab578182fd5b823567ffffffffffffffff8111156151c1578283fd5b6151cd85828601614f11565b90969095509350505050565b6000602082840312156151ea578081fd5b813580151581146145b5578182fd5b60006020828403121561520a578081fd5b5035919050565b600060208284031215615222578081fd5b81356001600160e01b0319811681146145b5578182fd5b60006020828403121561524a578081fd5b81356001600160c01b0319811681146145b5578182fd5b600060208284031215615272578081fd5b815167ffffffffffffffff80821115615289578283fd5b818401915084601f83011261529c578283fd5b8151818111156152ae576152ae615769565b6152c1601f8201601f19166020016155d3565b91508082528560208285010111156152d7578384fd5b6152e881602084016020860161570c565b50949350505050565b600080600060608486031215615305578081fd5b833567ffffffffffffffff81111561531b578182fd5b84016101408187031215615081578182fd5b6000806040838503121561533f578182fd5b823567ffffffffffffffff811115615355578283fd5b83016101a08186031215615367578283fd5b946020939093013593505050565b600060208284031215615386578081fd5b5051919050565b60006020828403121561539e578081fd5b6145b582614fd9565b6000602082840312156153b8578081fd5b813560ff811681146145b5578182fd5b81835281816020850137506000828201602090810191909152601f909101601f19169091010190565b6000815180845261540981602086016020860161570c565b601f01601f19169290920160200192915050565b8183823760009101908152919050565b6101008101818360005b6008811015615456578151835260209283019290910190600101615437565b50505092915050565b8a81526001600160a01b038a8116602083015289166040820152606081018890526080810187905285151560a082015263ffffffff851660c08201526001600160e01b0319841660e082015261012061010082018190526000906154c683820185876153c8565b9d9c50505050505050505050505050565b8981526001600160a01b03891660208201526040810188905260608101879052851515608082015263ffffffff851660a08201526001600160e01b0319841660c082015261010060e0820181905260009061553583820185876153c8565b9c9b505050505050505050505050565b6020815260006145b560208301846153f1565b6000808335601e1984360301811261556e578283fd5b83018035915067ffffffffffffffff821115615588578283fd5b602001915036819003821315614f5457600080fd5b6000823561013e198336030181126155b3578182fd5b9190910192915050565b6000823561019e198336030181126155b3578182fd5b604051601f8201601f1916810167ffffffffffffffff811182821017156155fc576155fc615769565b604052919050565b600067ffffffffffffffff82111561561e5761561e615769565b5060051b60200190565b60008085851115615637578182fd5b83861115615643578182fd5b5050820193919092039150565b6000821982111561566357615663615753565b500190565b600063ffffffff80831681851680830382111561568757615687615753565b01949350505050565b6000826156ab57634e487b7160e01b81526012600452602481fd5b500490565b60008160001904831182151516156156ca576156ca615753565b500290565b6000828210156156e1576156e1615753565b500390565b600064ffffffffff8381169083168181101561570457615704615753565b039392505050565b60005b8381101561572757818101518382015260200161570f565b8381111561103a5750506000910152565b600060001982141561574c5761574c615753565b5060010190565b634e487b7160e01b600052601160045260246000fd5b634e487b7160e01b600052604160045260246000fd5b6001600160a01b03811681146114c557600080fdfe57616c6c65743a205472616e73616374696f6e2072657665727465642073696c656e746c79a2646970667358221220caad75d46a7ae641b0a89c3392e25c6f834b43a1211904342366f6b39ca9f6aa64736f6c63430008040033",
  "immutableReferences": {},
  "source": "// SPDX-License-Identifier: UNLICENSED\n\npragma solidity ^0.8.0;\npragma abicoder v2;\n\nimport \"openzeppelin-solidity/contracts/token/ERC20/IERC20.sol\";\nimport \"openzeppelin-solidity/contracts/token/ERC721/IERC721.sol\";\nimport \"openzeppelin-solidity/contracts/utils/cryptography/SignatureChecker.sol\";\nimport \"./lib/IOracle.sol\";\nimport \"./lib/Heritable.sol\";\n\ncontract Wallet is IStorage, Heritable {\n    using SignatureChecker for address;\n\n    uint8 public constant VERSION_NUMBER = 0x1;\n    string public constant NAME = \"Kirobo OCW\";\n    string public constant VERSION = \"1\";\n\n    event BatchCall(\n        address indexed creator,\n        address indexed owner,\n        address indexed activator,\n        uint256 value\n    );\n\n    function getBalance() public view returns (uint256) {\n        return address(this).balance;\n    }\n\n    function balanceOf20(address token) public view returns (uint256) {\n        return IERC20(token).balanceOf(address(this));\n    }\n\n    function balanceOf721(address token) public view returns (uint256) {\n        return IERC721(token).balanceOf(address(this));\n    }\n\n    function migrate() external override onlyCreator {\n        uint256 chainId;\n        assembly {\n            chainId := chainid()\n        }\n\n        s_uid = bytes32(\n            (uint256(VERSION_NUMBER) << 248) |\n                ((uint256(blockhash(block.number - 1)) << 192) >> 16) |\n                uint256(uint160(address(this)))\n        );\n\n        CHAIN_ID = chainId;\n\n        DOMAIN_SEPARATOR = keccak256(\n            abi.encode(\n                keccak256(\n                    \"EIP712Domain(string name,string version,uint256 chainId,address verifyingContract,bytes32 salt)\"\n                ),\n                keccak256(bytes(NAME)),\n                keccak256(bytes(VERSION)),\n                chainId,\n                address(this),\n                s_uid\n            )\n        );\n    }\n\n    function version() public pure override returns (bytes8) {\n        return bytes8(\"1.2.1\");\n    }\n\n    fallback() external {\n        if (\n            msg.sig == SELECTOR_ON_ERC721_RECEIVED ||\n            msg.sig == SELECTOR_ON_ERC1155_RECEIVED ||\n            msg.sig == SELECTOR_ON_ERC1155_BATCH_RECEIVED\n        ) {\n            assembly {\n                calldatacopy(0, 0, 0x04)\n                return(0, 0x20)\n            }\n        }\n    }\n\n    receive() external payable {\n        require(false, \"Wallet: not aceepting ether\");\n    }\n\n    struct MetaData {\n        bool simple;\n        bool staticcall;\n        uint32 gasLimit;\n    }\n\n    struct Call {\n        uint8 v;\n        bytes32 r;\n        bytes32 s;\n        bytes32 typeHash;\n        address to;\n        uint256 value;\n        MetaData metaData;\n        bytes data;\n    }\n\n    struct Transfer {\n        uint8 v;\n        bytes32 r;\n        bytes32 s;\n        address to;\n        uint256 value;\n    }\n\n    struct Signature {\n        uint8 v;\n        bytes32 r;\n        bytes32 s;\n    }\n\n    struct Send {\n        uint8 v;\n        bytes32 r;\n        bytes32 s;\n        address to;\n        uint256 value;\n        bool eip712;\n    }\n\n    struct XCall {\n        uint8 v1;\n        bytes32 r1;\n        bytes32 s1;\n        uint8 v2;\n        bytes32 r2;\n        bytes32 s2;\n        bytes32 typeHash;\n        address to;\n        uint256 value;\n        MetaData metaData;\n        bytes data;\n    }\n\n    function blockTransaction(bytes32 messageHash) external onlyOwner {\n        require(messageHash != bytes32(0), \"blocking 0x0 is not allowed\");\n        s_blocked[messageHash] = 1;\n    }\n\n    function unblockTransaction(bytes32 messageHash) external onlyOwner {\n        s_blocked[messageHash] = 0;\n    }\n\n    function _selector(bytes calldata data) private pure returns (bytes4) {\n        return\n            data[0] |\n            (bytes4(data[1]) >> 8) |\n            (bytes4(data[2]) >> 16) |\n            (bytes4(data[3]) >> 24);\n    }\n\n    function erc20BalanceGT(\n        address token,\n        address account,\n        uint256 value\n    ) external view {\n        require(\n            IERC20(token).balanceOf(account) >= value,\n            \"ERC20Balance: too low\"\n        );\n    }\n\n    function generateMessage(\n        Call calldata call,\n        address activator,\n        uint256 targetNonce\n    ) public pure returns (bytes memory) {\n        return _generateMessage(call, activator, targetNonce);\n    }\n\n    function generateXXMessage(XCall calldata call, uint256 targetNonce)\n        public\n        pure\n        returns (bytes memory)\n    {\n        return _generateXXMessage(call, targetNonce);\n    }\n\n    function _generateMessage(\n        Call calldata call,\n        address activator,\n        uint256 targetNonce\n    ) private pure returns (bytes memory) {\n        return\n            call.metaData.simple\n                ? abi.encode(\n                    call.typeHash,\n                    activator,\n                    call.to,\n                    call.value,\n                    targetNonce,\n                    call.metaData.staticcall,\n                    call.metaData.gasLimit,\n                    keccak256(call.data)\n                )\n                : abi.encode(\n                    call.typeHash,\n                    activator,\n                    call.to,\n                    call.value,\n                    targetNonce,\n                    call.metaData.staticcall,\n                    call.metaData.gasLimit,\n                    _selector(call.data),\n                    call.data[4:]\n                );\n    }\n\n    function _generateXXMessage(XCall calldata call, uint256 targetNonce)\n        private\n        pure\n        returns (bytes memory)\n    {\n        return\n            call.metaData.simple\n                ? abi.encode(\n                    call.typeHash,\n                    call.to,\n                    call.value,\n                    targetNonce,\n                    call.metaData.staticcall,\n                    call.metaData.gasLimit,\n                    keccak256(call.data)\n                )\n                : abi.encode(\n                    call.typeHash,\n                    call.to,\n                    call.value,\n                    targetNonce,\n                    call.metaData.staticcall,\n                    call.metaData.gasLimit,\n                    _selector(call.data),\n                    call.data[4:]\n                );\n    }\n\n    function executeBatchCall(Call[] calldata tr)\n        public\n        payable\n        onlyActiveState\n    {\n        address creator = this.creator();\n        address activator = ICreator(creator).activator();\n        uint32 currentNonce = s_nonce;\n        address owner = s_owner;\n        require(\n            msg.sender == activator || msg.sender == owner,\n            \"Wallet: sender not allowed\"\n        );\n\n        for (uint256 i = 0; i < tr.length; i++) {\n            Call calldata call = tr[i];\n            address to = call.to;\n            uint256 gasLimit = call.metaData.gasLimit;\n            unchecked {\n                address signer = ecrecover(\n                    _messageToRecover(\n                        keccak256(\n                            _generateMessage(call, msg.sender, currentNonce + i)\n                        ),\n                        call.typeHash != bytes32(0)\n                    ),\n                    call.v,\n                    call.r,\n                    call.s\n                );\n                require(\n                    signer != msg.sender,\n                    \"Wallet: sender cannot be signer\"\n                );\n                require(\n                    signer == owner || signer == activator,\n                    \"Wallet: signer not allowed\"\n                );\n                require(\n                    to != msg.sender &&\n                        to != signer &&\n                        to != address(this) &&\n                        to != creator,\n                    \"Wallet: reentrancy not allowed\"\n                );\n            }\n            (bool success, bytes memory res) = call.metaData.staticcall\n                ? to.staticcall{gas: gasLimit > 0 ? gasLimit : gasleft()}(\n                    call.data\n                )\n                : to.call{\n                    gas: gasLimit > 0 ? gasLimit : gasleft(),\n                    value: call.value\n                }(call.data);\n            if (!success) {\n                revert(_getRevertMsg(res));\n            }\n        }\n        unchecked {\n            s_nonce = currentNonce + uint32(tr.length);\n        }\n        emit BatchCall(creator, owner, activator, block.number);\n    }\n\n    function executeXXBatchCall(XCall[] calldata tr)\n        public\n        payable\n        onlyActiveState\n    {\n        address creator = this.creator();\n        address activator = ICreator(creator).activator();\n        require(\n            msg.sender == s_owner || msg.sender == activator,\n            \"Wallet: sender is not owner nor activator\"\n        );\n\n        for (uint256 i = 0; i < tr.length; i++) {\n            XCall calldata call = tr[i];\n\n            unchecked {\n                address signer1 = ecrecover(\n                    _messageToRecover(\n                        keccak256(_generateXXMessage(call, s_nonce + i)),\n                        call.typeHash != bytes32(0)\n                    ),\n                    call.v1,\n                    call.r1,\n                    call.s1\n                );\n                address signer2 = ecrecover(\n                    _messageToRecover(\n                        keccak256(_generateXXMessage(call, s_nonce + i)),\n                        call.typeHash != bytes32(0)\n                    ),\n                    call.v2,\n                    call.r2,\n                    call.s2\n                );\n                require(signer1 == s_owner, \"Wallet: signer1 is not owner\");\n                require(\n                    signer2 == activator,\n                    \"Wallet: signer2 is not activator\"\n                );\n                require(\n                    call.to != signer1 &&\n                        call.to != signer2 &&\n                        call.to != address(this) &&\n                        call.to != creator,\n                    \"Wallet: reentrancy not allowed\"\n                );\n            }\n            (bool success, bytes memory res) = call.metaData.staticcall\n                ? call.to.staticcall{\n                    gas: call.metaData.gasLimit > 0\n                        ? call.metaData.gasLimit\n                        : gasleft()\n                }(call.data)\n                : call.to.call{\n                    gas: call.metaData.gasLimit > 0\n                        ? call.metaData.gasLimit\n                        : gasleft(),\n                    value: call.value\n                }(call.data);\n            if (!success) {\n                revert(_getRevertMsg(res));\n            }\n        }\n        s_nonce = s_nonce + uint32(tr.length);\n        emit BatchCall(creator, s_owner, activator, block.number);\n    }\n\n    function _getRevertMsg(bytes memory returnData)\n        internal\n        pure\n        returns (string memory)\n    {\n        if (returnData.length < 68)\n            return \"Wallet: Transaction reverted silently\";\n\n        assembly {\n            returnData := add(returnData, 0x04)\n        }\n        return abi.decode(returnData, (string));\n    }\n\n    function cancelCall() public onlyActiveOwner {\n        s_nonce = s_nonce + 1;\n    }\n\n    function nonce() public view returns (uint32) {\n        return s_nonce;\n    }\n\n    function _messageToRecover(bytes32 hashedUnsignedMessage, bool eip712)\n        private\n        view\n        returns (bytes32)\n    {\n        if (eip712) {\n            return\n                keccak256(\n                    abi.encodePacked(\n                        \"\\x19\\x01\",\n                        DOMAIN_SEPARATOR,\n                        hashedUnsignedMessage\n                    )\n                );\n        }\n        return\n            keccak256(\n                abi.encodePacked(\n                    \"\\x19Ethereum Signed Message:\\n32\",\n                    hashedUnsignedMessage\n                )\n            );\n    }\n}\n",
  "sourcePath": "/Users/orishalom/repositories/ki-eth-contracts/contracts/Wallet.sol",
  "compiler": {
    "name": "solc",
    "version": "0.8.4+commit.c7e474f2.Emscripten.clang"
  },
  "schemaVersion": "3.3.4",
  "updatedAt": "2021-09-29T12:43:32.210Z",
  "networkType": "ethereum",
  "devdoc": {
    "kind": "dev",
    "methods": {
      "getBackupTimeLeft()": {
        "returns": {
          "res": "(uint40) - time left in seconds untill the backup is enabled or 0 if the time has passed"
        }
      },
      "getHeirs()": {
        "returns": {
          "heirs": "(bytes32[MAX_HEIRS])"
        }
      },
      "getInheritanceTimeLeft()": {
        "returns": {
          "res": "(uint40) - time left in seconds untill the inheritance is enabled or 0 if the time has passed"
        }
      },
      "getTotalBPS()": {
        "returns": {
          "total": "(uint256) "
        }
      },
      "setBackup(address,uint32)": {
        "params": {
          "timeout": "(type uint32) - timeout in seconds  Requirements: 1. must enter a wallet address 2. owner wallet address must be different then the backup wallet address Caution: this operation will override the previous backup wallet",
          "wallet": ": (type address) - backup wallet address"
        }
      },
      "setHeirs(address[],uint16[])": {
        "details": "the function emits an event called InheritanceHeirsChanged with the new heirs wallets and funds",
        "params": {
          "bps": "- uint16[] - an array of funds for each heir (bps => 0.01%)",
          "wallets": "- address payable[] - an array of wallets, one for each heir"
        }
      },
      "setInheritance(uint32)": {
        "params": {
          "timeout": "(uint32) - hold the block timeStamp and the timeout is set from that time"
        }
      }
    },
    "version": 1
  },
  "userdoc": {
    "kind": "user",
    "methods": {
      "accept()": {
        "notice": "sets the status of the backup to registered if the status was pending"
      },
      "activateBackup()": {
        "notice": "activates backup wallet conditions: 1. backup is enabled 2. backup wallet needs to be set 3. backup time that was set is now 0"
      },
      "activateInheritance()": {
        "notice": "activateInheritance function check if all the necessary measures have been fufilled and then sends the funds defined to the heirs wallets"
      },
      "claimOwnership()": {
        "notice": "once a backup wallet was activated the ownership of the original wallet needs to be claimed by the owner of the backup wallet restrictions: 1. only the backup wallet owner can claim the original wallet 2. backup status needs to be active"
      },
      "clearInheritance()": {
        "notice": "clearInheritance the function removes the heir list asociated with a apecific wallet resets the timeOut and unactivates the inharitance process from the wallet owner"
      },
      "enable()": {
        "notice": "sets the status of the backup to be enabled can be triggered by the owner or by the backup    "
      },
      "getBackupTimeLeft()": {
        "notice": "checks the time left until the backup can be activated"
      },
      "getHeirs()": {
        "notice": "getHeirs - get the heir list as a bytes32 array"
      },
      "getInheritanceTimeLeft()": {
        "notice": "getInheritanceTimeLeft - checks the time left until the inheritance can be activated"
      },
      "getTotalBPS()": {
        "notice": "getTotalBPS - calculates and returns the total bps (1 bps = 0.01%) sets to be sent once the inheritance will take effect"
      },
      "reclaimOwnership()": {
        "notice": "the owner that created the backup wallet can reclaim the account back restrictions: 1. only the original wallet owner can reclaim his original wallet 2. backup status needs to be active"
      },
      "removeBackup()": {
        "notice": "removes the owner's backup wallet"
      },
      "setBackup(address,uint32)": {
        "notice": "this function sets the backup wallet to a specific activeOwner"
      },
      "setHeirs(address[],uint16[])": {
        "notice": "setHeir - as the name suggests, the function sets the heirs to a specific wallet"
      },
      "setInheritance(uint32)": {
        "notice": "setInheritance the function sets the time conditions for the inheritance"
      }
    },
    "version": 1
  }
}