{
  "contractName": "Wallet2",
  "abi": [
    {
      "anonymous": false,
      "inputs": [
        {
          "indexed": false,
          "internalType": "uint256",
          "name": "newValue",
          "type": "uint256"
        }
      ],
      "name": "ValueChanged",
      "type": "event"
    },
    {
      "inputs": [],
      "name": "BACKUP_STATE_ACTIVATED",
      "outputs": [
        {
          "internalType": "uint8",
          "name": "",
          "type": "uint8"
        }
      ],
      "stateMutability": "view",
      "type": "function"
    },
    {
      "inputs": [],
      "name": "BACKUP_STATE_ENABLED",
      "outputs": [
        {
          "internalType": "uint8",
          "name": "",
          "type": "uint8"
        }
      ],
      "stateMutability": "view",
      "type": "function"
    },
    {
      "inputs": [],
      "name": "BACKUP_STATE_PENDING",
      "outputs": [
        {
          "internalType": "uint8",
          "name": "",
          "type": "uint8"
        }
      ],
      "stateMutability": "view",
      "type": "function"
    },
    {
      "inputs": [],
      "name": "BACKUP_STATE_REGISTERED",
      "outputs": [
        {
          "internalType": "uint8",
          "name": "",
          "type": "uint8"
        }
      ],
      "stateMutability": "view",
      "type": "function"
    },
    {
      "inputs": [],
      "name": "creator",
      "outputs": [
        {
          "internalType": "address",
          "name": "",
          "type": "address"
        }
      ],
      "stateMutability": "pure",
      "type": "function"
    },
    {
      "inputs": [
        {
          "internalType": "address",
          "name": "__owner",
          "type": "address"
        },
        {
          "internalType": "address",
          "name": "__target",
          "type": "address"
        }
      ],
      "name": "init",
      "outputs": [],
      "stateMutability": "nonpayable",
      "type": "function"
    },
    {
      "inputs": [],
      "name": "owner",
      "outputs": [
        {
          "internalType": "address",
          "name": "",
          "type": "address"
        }
      ],
      "stateMutability": "view",
      "type": "function"
    },
    {
      "inputs": [],
      "name": "target",
      "outputs": [
        {
          "internalType": "address",
          "name": "",
          "type": "address"
        }
      ],
      "stateMutability": "view",
      "type": "function"
    },
    {
      "inputs": [
        {
          "internalType": "bytes8",
          "name": "_version",
          "type": "bytes8"
        }
      ],
      "name": "upgrade",
      "outputs": [],
      "stateMutability": "nonpayable",
      "type": "function"
    },
    {
      "inputs": [
        {
          "internalType": "uint256",
          "name": "_value",
          "type": "uint256"
        },
        {
          "internalType": "uint256",
          "name": "_mul",
          "type": "uint256"
        }
      ],
      "name": "setValue",
      "outputs": [],
      "stateMutability": "payable",
      "type": "function"
    },
    {
      "inputs": [],
      "name": "getValue",
      "outputs": [
        {
          "internalType": "uint256",
          "name": "",
          "type": "uint256"
        }
      ],
      "stateMutability": "view",
      "type": "function"
    },
    {
      "inputs": [],
      "name": "migrate",
      "outputs": [],
      "stateMutability": "nonpayable",
      "type": "function"
    },
    {
      "inputs": [],
      "name": "version",
      "outputs": [
        {
          "internalType": "bytes8",
          "name": "",
          "type": "bytes8"
        }
      ],
      "stateMutability": "pure",
      "type": "function"
    },
    {
      "inputs": [],
      "name": "removeOwner",
      "outputs": [],
      "stateMutability": "nonpayable",
      "type": "function"
    },
    {
      "inputs": [],
      "name": "removeTarget",
      "outputs": [],
      "stateMutability": "nonpayable",
      "type": "function"
    }
  ],
  "bytecode": "0x608060405234801561001057600080fd5b50600080546001600160a01b03191633179055610788806100326000396000f3fe6080604052600436106100e85760003560e01c80638da5cb5b1161008a578063e1bc35ab11610059578063e1bc35ab1461023f578063f09a401614610254578063f99ff3e814610274578063fec5a18d14610289576100e8565b80638da5cb5b146101cc5780638fd3ab80146101ea578063b2724e20146101ff578063d4b8399214610221576100e8565b80633d562561116100c65780633d5625611461015c5780633e95e62c1461018357806354fd4d50146101985780637b8d56e3146101b9576100e8565b806302d05d3f146100ed578063209652551461011a578063246f8b9614610138575b600080fd5b3480156100f957600080fd5b5060005b6040516001600160a01b0390911681526020015b60405180910390f35b34801561012657600080fd5b50600d54604051908152602001610111565b34801561014457600080fd5b5061015a600080546001600160a01b0319169055565b005b34801561016857600080fd5b50610171600181565b60405160ff9091168152602001610111565b34801561018f57600080fd5b50610171600381565b3480156101a457600080fd5b5060405162302e3160e81b8152602001610111565b61015a6101c73660046106ee565b6102a9565b3480156101d857600080fd5b506000546001600160a01b03166100fd565b3480156101f657600080fd5b5061015a61033a565b34801561020b57600080fd5b5061015a600180546001600160a01b0319169055565b34801561022d57600080fd5b506001546001600160a01b03166100fd565b34801561024b57600080fd5b50610171600281565b34801561026057600080fd5b5061015a61026f36600461068e565b6103fb565b34801561028057600080fd5b50610171600081565b34801561029557600080fd5b5061015a6102a43660046106c6565b61054c565b6000546001600160a01b031633146102f45760405162461bcd60e51b81526020600482015260096024820152683737ba1037bbb732b960b91b60448201526064015b60405180910390fd5b6102fe818361070f565b600d8190556040519081527f93fe6d397c74fdf1402a8b72e47b68512f0510d7b98a4bc4cbdf6ac7108b3c599060200160405180910390a15050565b306001600160a01b03166302d05d3f6040518163ffffffff1660e01b815260040160206040518083038186803b15801561037357600080fd5b505afa158015610387573d6000803e3d6000fd5b505050506040513d601f19601f820116820180604052508101906103ab919061066b565b6001600160a01b0316336001600160a01b0316146103f95760405162461bcd60e51b815260206004820152600b60248201526a3737ba1031b932b0ba37b960a91b60448201526064016102eb565b565b306001600160a01b03166302d05d3f6040518163ffffffff1660e01b815260040160206040518083038186803b15801561043457600080fd5b505afa158015610448573d6000803e3d6000fd5b505050506040513d601f19601f8201168201806040525081019061046c919061066b565b6001600160a01b0316336001600160a01b0316146104ba5760405162461bcd60e51b815260206004820152600b60248201526a3737ba1031b932b0ba37b960a91b60448201526064016102eb565b6000546001600160a01b038381169116148015906104e057506001600160a01b03821615155b1561050157600080546001600160a01b0319166001600160a01b0384161790555b6001546001600160a01b0382811691161480159061052757506001600160a01b03811615155b1561054857600180546001600160a01b0319166001600160a01b0383161790555b5050565b6000546001600160a01b031633146105925760405162461bcd60e51b81526020600482015260096024820152683737ba1037bbb732b960b91b60448201526064016102eb565b306001600160a01b03166302d05d3f6040518163ffffffff1660e01b815260040160206040518083038186803b1580156105cb57600080fd5b505afa1580156105df573d6000803e3d6000fd5b505050506040513d601f19601f82011682018060405250810190610603919061066b565b6040516318beb60960e31b81526001600160c01b0319831660048201526001600160a01b03919091169063c5f5b04890602401600060405180830381600087803b15801561065057600080fd5b505af1158015610664573d6000803e3d6000fd5b5050505050565b60006020828403121561067c578081fd5b81516106878161073a565b9392505050565b600080604083850312156106a0578081fd5b82356106ab8161073a565b915060208301356106bb8161073a565b809150509250929050565b6000602082840312156106d7578081fd5b81356001600160c01b031981168114610687578182fd5b60008060408385031215610700578182fd5b50508035926020909101359150565b600081600019048311821515161561073557634e487b7160e01b81526011600452602481fd5b500290565b6001600160a01b038116811461074f57600080fd5b5056fea2646970667358221220643f1df0331b6253cbda749124361cc4d245e6023a3721be6fc94395e587a46164736f6c63430008020033",
  "immutableReferences": {},
  "source": "// SPDX-License-Identifier: UNLICENSED\n\npragma solidity ^0.8.0;\n\nimport \"../lib/StorageBase.sol\";\nimport \"../lib/Storage.sol\";\nimport \"./Storage2.sol\";\n\ncontract Wallet2 is IStorage, StorageBase, Storage, Storage2 {\n\n    event ValueChanged(uint256 newValue);\n\n    function setValue(uint256 _value, uint256 _mul) public onlyOwner payable {\n        value = _value * _mul;\n        emit ValueChanged(value);\n    }\n\n    function getValue() public view returns (uint256) {\n        return value;\n    }\n\n    // IStorage Implementation\n\n    function migrate () external override onlyCreator() {\n    }\n\n    function version() public pure override returns (bytes8) {\n        return bytes8(\"0.1\");\n    }\n\n    function removeOwner() public {\n        _owner = address(0);\n    }\n\n    function removeTarget() public {\n        _target = address(0);\n    }\n\n}\n\n",
  "sourcePath": "/opt/storage/data1/code/kirobo/ki-eth-contracts/contracts/test/Wallet2.sol",
  "compiler": {
    "name": "solc",
    "version": "0.8.2+commit.661d1103.Emscripten.clang"
  },
  "schemaVersion": "3.3.4",
  "updatedAt": "2021-03-21T20:16:32.992Z",
  "devdoc": {
    "kind": "dev",
    "methods": {},
    "version": 1
  },
  "userdoc": {
    "kind": "user",
    "methods": {},
    "version": 1
  }
}