{
  "contractName": "Wallet2",
  "abi": [
    {
      "anonymous": false,
      "inputs": [
        {
          "indexed": false,
          "internalType": "uint256",
          "name": "newValue",
          "type": "uint256"
        }
      ],
      "name": "ValueChanged",
      "type": "event"
    },
    {
      "inputs": [],
      "name": "BACKUP_STATE_ACTIVATED",
      "outputs": [
        {
          "internalType": "uint8",
          "name": "",
          "type": "uint8"
        }
      ],
      "stateMutability": "view",
      "type": "function"
    },
    {
      "inputs": [],
      "name": "BACKUP_STATE_ENABLED",
      "outputs": [
        {
          "internalType": "uint8",
          "name": "",
          "type": "uint8"
        }
      ],
      "stateMutability": "view",
      "type": "function"
    },
    {
      "inputs": [],
      "name": "BACKUP_STATE_PENDING",
      "outputs": [
        {
          "internalType": "uint8",
          "name": "",
          "type": "uint8"
        }
      ],
      "stateMutability": "view",
      "type": "function"
    },
    {
      "inputs": [],
      "name": "BACKUP_STATE_REGISTERED",
      "outputs": [
        {
          "internalType": "uint8",
          "name": "",
          "type": "uint8"
        }
      ],
      "stateMutability": "view",
      "type": "function"
    },
    {
      "inputs": [],
      "name": "CHAIN_ID",
      "outputs": [
        {
          "internalType": "uint256",
          "name": "",
          "type": "uint256"
        }
      ],
      "stateMutability": "view",
      "type": "function"
    },
    {
      "inputs": [],
      "name": "DOMAIN_SEPARATOR",
      "outputs": [
        {
          "internalType": "bytes32",
          "name": "",
          "type": "bytes32"
        }
      ],
      "stateMutability": "view",
      "type": "function"
    },
    {
      "inputs": [],
      "name": "creator",
      "outputs": [
        {
          "internalType": "address",
          "name": "",
          "type": "address"
        }
      ],
      "stateMutability": "pure",
      "type": "function"
    },
    {
      "inputs": [
        {
          "internalType": "address",
          "name": "newOwner",
          "type": "address"
        },
        {
          "internalType": "address",
          "name": "newTarget",
          "type": "address"
        }
      ],
      "name": "init",
      "outputs": [],
      "stateMutability": "nonpayable",
      "type": "function"
    },
    {
      "inputs": [],
      "name": "owner",
      "outputs": [
        {
          "internalType": "address",
          "name": "",
          "type": "address"
        }
      ],
      "stateMutability": "view",
      "type": "function"
    },
    {
      "inputs": [],
      "name": "target",
      "outputs": [
        {
          "internalType": "address",
          "name": "",
          "type": "address"
        }
      ],
      "stateMutability": "view",
      "type": "function"
    },
    {
      "inputs": [],
      "name": "uid",
      "outputs": [
        {
          "internalType": "bytes32",
          "name": "",
          "type": "bytes32"
        }
      ],
      "stateMutability": "view",
      "type": "function"
    },
    {
      "inputs": [
        {
          "internalType": "bytes8",
          "name": "version",
          "type": "bytes8"
        }
      ],
      "name": "upgrade",
      "outputs": [],
      "stateMutability": "nonpayable",
      "type": "function"
    },
    {
      "inputs": [
        {
          "internalType": "uint256",
          "name": "value",
          "type": "uint256"
        },
        {
          "internalType": "uint256",
          "name": "mul",
          "type": "uint256"
        }
      ],
      "name": "setValue",
      "outputs": [],
      "stateMutability": "payable",
      "type": "function"
    },
    {
      "inputs": [],
      "name": "getValue",
      "outputs": [
        {
          "internalType": "uint256",
          "name": "",
          "type": "uint256"
        }
      ],
      "stateMutability": "view",
      "type": "function"
    },
    {
      "inputs": [],
      "name": "migrate",
      "outputs": [],
      "stateMutability": "nonpayable",
      "type": "function"
    },
    {
      "inputs": [],
      "name": "version",
      "outputs": [
        {
          "internalType": "bytes8",
          "name": "",
          "type": "bytes8"
        }
      ],
      "stateMutability": "pure",
      "type": "function"
    },
    {
      "inputs": [],
      "name": "removeOwner",
      "outputs": [],
      "stateMutability": "nonpayable",
      "type": "function"
    },
    {
      "inputs": [],
      "name": "removeTarget",
      "outputs": [],
      "stateMutability": "nonpayable",
      "type": "function"
    }
  ],
  "bytecode": "0x608060405234801561001057600080fd5b50600080546001600160a01b0319163317905561083b806100326000396000f3fe6080604052600436106101295760003560e01c80638da5cb5b116100a5578063e1bc35ab11610074578063f514ce3611610059578063f514ce3614610369578063f99ff3e81461037e578063fec5a18d1461039357610129565b8063e1bc35ab14610319578063f09a40161461032e57610129565b80638da5cb5b146102995780638fd3ab80146102b7578063b2724e20146102cc578063d4b83992146102fb57610129565b80633d562561116100fc57806354fd4d50116100e157806354fd4d50146102045780637b8d56e31461026057806385e1f4d01461028357610129565b80633d562561146101c45780633e95e62c146101ef57610129565b806302d05d3f1461012e578063209652551461015a578063246f8b961461017d5780633644e515146101ae575b600080fd5b34801561013a57600080fd5b5060005b604080516001600160a01b039092168252519081900360200190f35b34801561016657600080fd5b506012545b60408051918252519081900360200190f35b34801561018957600080fd5b506101ac6000805473ffffffffffffffffffffffffffffffffffffffff19169055565b005b3480156101ba57600080fd5b5061016b60105481565b3480156101d057600080fd5b506101d9600181565b6040805160ff9092168252519081900360200190f35b3480156101fb57600080fd5b506101d9600381565b34801561021057600080fd5b507f302e3100000000000000000000000000000000000000000000000000000000006040805177ffffffffffffffffffffffffffffffffffffffffffffffff199092168252519081900360200190f35b6101ac6004803603604081101561027657600080fd5b50803590602001356103d8565b34801561028f57600080fd5b5061016b60115481565b3480156102a557600080fd5b506000546001600160a01b031661013e565b3480156102c357600080fd5b506101ac610468565b3480156102d857600080fd5b506101ac6001805473ffffffffffffffffffffffffffffffffffffffff19169055565b34801561030757600080fd5b506001546001600160a01b031661013e565b34801561032557600080fd5b506101d9600281565b34801561033a57600080fd5b506101ac6004803603604081101561035157600080fd5b506001600160a01b0381358116916020013516610519565b34801561037557600080fd5b50600e5461016b565b34801561038a57600080fd5b506101d9600081565b34801561039f57600080fd5b506101ac600480360360208110156103b657600080fd5b503577ffffffffffffffffffffffffffffffffffffffffffffffff1916610679565b6000546001600160a01b03163314610423576040805162461bcd60e51b81526020600482015260096024820152683737ba1037bbb732b960b91b604482015290519081900360640190fd5b61042d81836107c1565b601281905560408051918252517f93fe6d397c74fdf1402a8b72e47b68512f0510d7b98a4bc4cbdf6ac7108b3c599181900360200190a15050565b306001600160a01b03166302d05d3f6040518163ffffffff1660e01b815260040160206040518083038186803b1580156104a157600080fd5b505afa1580156104b5573d6000803e3d6000fd5b505050506040513d60208110156104cb57600080fd5b50516001600160a01b03163314610517576040805162461bcd60e51b815260206004820152600b60248201526a3737ba1031b932b0ba37b960a91b604482015290519081900360640190fd5b565b306001600160a01b03166302d05d3f6040518163ffffffff1660e01b815260040160206040518083038186803b15801561055257600080fd5b505afa158015610566573d6000803e3d6000fd5b505050506040513d602081101561057c57600080fd5b50516001600160a01b031633146105c8576040805162461bcd60e51b815260206004820152600b60248201526a3737ba1031b932b0ba37b960a91b604482015290519081900360640190fd5b6000546001600160a01b038381169116148015906105ee57506001600160a01b03821615155b1561061c576000805473ffffffffffffffffffffffffffffffffffffffff19166001600160a01b0384161790555b6001546001600160a01b0382811691161480159061064257506001600160a01b03811615155b15610670576001805473ffffffffffffffffffffffffffffffffffffffff19166001600160a01b0383161790555b50506001600255565b6000546001600160a01b031633146106c4576040805162461bcd60e51b81526020600482015260096024820152683737ba1037bbb732b960b91b604482015290519081900360640190fd5b306001600160a01b03166302d05d3f6040518163ffffffff1660e01b815260040160206040518083038186803b1580156106fd57600080fd5b505afa158015610711573d6000803e3d6000fd5b505050506040513d602081101561072757600080fd5b5051604080517fc5f5b04800000000000000000000000000000000000000000000000000000000815277ffffffffffffffffffffffffffffffffffffffffffffffff198416600482015290516001600160a01b039092169163c5f5b0489160248082019260009290919082900301818387803b1580156107a657600080fd5b505af11580156107ba573d6000803e3d6000fd5b5050505050565b6000816000190483118215151615610800577f4e487b710000000000000000000000000000000000000000000000000000000081526011600452602481fd5b50029056fea2646970667358221220c3883271b8c52e926d4081becccd65aace1d9d4ef1473fda9ea9f2518bafa3ef64736f6c63430008020033",
  "immutableReferences": {},
  "source": "// SPDX-License-Identifier: UNLICENSED\n\npragma solidity ^0.8.0;\npragma abicoder v1;\n\nimport \"../lib/StorageBase.sol\";\nimport \"../lib/Storage.sol\";\nimport \"./Storage2.sol\";\n\ncontract Wallet2 is IStorage, StorageBase, Storage, Storage2 {\n    event ValueChanged(uint256 newValue);\n\n    function setValue(uint256 value, uint256 mul) public payable onlyOwner {\n        s_value = value * mul;\n        emit ValueChanged(s_value);\n    }\n\n    function getValue() public view returns (uint256) {\n        return s_value;\n    }\n\n    // IStorage Implementation\n\n    function migrate() external override onlyCreator() {}\n\n    function version() public pure override returns (bytes8) {\n        return bytes8(\"0.1\");\n    }\n\n    function removeOwner() public {\n        s_owner = address(0);\n    }\n\n    function removeTarget() public {\n        s_target = address(0);\n    }\n}\n",
  "sourcePath": "/opt/storage/data1/code/kirobo/ki-eth-contracts/contracts/test/Wallet2.sol",
  "compiler": {
    "name": "solc",
    "version": "0.8.2+commit.661d1103.Emscripten.clang"
  },
  "schemaVersion": "3.3.4",
  "updatedAt": "2021-05-02T20:37:10.624Z",
  "networkType": "ethereum",
  "devdoc": {
    "kind": "dev",
    "methods": {},
    "version": 1
  },
  "userdoc": {
    "kind": "user",
    "methods": {},
    "version": 1
  }
}