{
  "contractName": "Wallet2",
  "abi": [
    {
      "anonymous": false,
      "inputs": [
        {
          "indexed": false,
          "internalType": "uint256",
          "name": "newValue",
          "type": "uint256"
        }
      ],
      "name": "ValueChanged",
      "type": "event"
    },
    {
      "inputs": [],
      "name": "BACKUP_STATE_ACTIVATED",
      "outputs": [
        {
          "internalType": "uint8",
          "name": "",
          "type": "uint8"
        }
      ],
      "stateMutability": "view",
      "type": "function"
    },
    {
      "inputs": [],
      "name": "BACKUP_STATE_ENABLED",
      "outputs": [
        {
          "internalType": "uint8",
          "name": "",
          "type": "uint8"
        }
      ],
      "stateMutability": "view",
      "type": "function"
    },
    {
      "inputs": [],
      "name": "BACKUP_STATE_PENDING",
      "outputs": [
        {
          "internalType": "uint8",
          "name": "",
          "type": "uint8"
        }
      ],
      "stateMutability": "view",
      "type": "function"
    },
    {
      "inputs": [],
      "name": "BACKUP_STATE_REGISTERED",
      "outputs": [
        {
          "internalType": "uint8",
          "name": "",
          "type": "uint8"
        }
      ],
      "stateMutability": "view",
      "type": "function"
    },
    {
      "inputs": [],
      "name": "creator",
      "outputs": [
        {
          "internalType": "address",
          "name": "",
          "type": "address"
        }
      ],
      "stateMutability": "pure",
      "type": "function"
    },
    {
      "inputs": [
        {
          "internalType": "address",
          "name": "__owner",
          "type": "address"
        },
        {
          "internalType": "address",
          "name": "__target",
          "type": "address"
        }
      ],
      "name": "init",
      "outputs": [],
      "stateMutability": "nonpayable",
      "type": "function"
    },
    {
      "inputs": [],
      "name": "owner",
      "outputs": [
        {
          "internalType": "address",
          "name": "",
          "type": "address"
        }
      ],
      "stateMutability": "view",
      "type": "function"
    },
    {
      "inputs": [],
      "name": "target",
      "outputs": [
        {
          "internalType": "address",
          "name": "",
          "type": "address"
        }
      ],
      "stateMutability": "view",
      "type": "function"
    },
    {
      "inputs": [
        {
          "internalType": "bytes8",
          "name": "_version",
          "type": "bytes8"
        }
      ],
      "name": "upgrade",
      "outputs": [],
      "stateMutability": "nonpayable",
      "type": "function"
    },
    {
      "inputs": [
        {
          "internalType": "uint256",
          "name": "_value",
          "type": "uint256"
        },
        {
          "internalType": "uint256",
          "name": "_mul",
          "type": "uint256"
        }
      ],
      "name": "setValue",
      "outputs": [],
      "stateMutability": "payable",
      "type": "function"
    },
    {
      "inputs": [],
      "name": "getValue",
      "outputs": [
        {
          "internalType": "uint256",
          "name": "",
          "type": "uint256"
        }
      ],
      "stateMutability": "view",
      "type": "function"
    },
    {
      "inputs": [],
      "name": "migrate",
      "outputs": [],
      "stateMutability": "nonpayable",
      "type": "function"
    },
    {
      "inputs": [],
      "name": "version",
      "outputs": [
        {
          "internalType": "bytes8",
          "name": "",
          "type": "bytes8"
        }
      ],
      "stateMutability": "pure",
      "type": "function"
    },
    {
      "inputs": [],
      "name": "removeOwner",
      "outputs": [],
      "stateMutability": "nonpayable",
      "type": "function"
    },
    {
      "inputs": [],
      "name": "removeTarget",
      "outputs": [],
      "stateMutability": "nonpayable",
      "type": "function"
    }
  ],
  "bytecode": "0x608060405234801561001057600080fd5b50600080546001600160a01b03191633179055610718806100326000396000f3fe6080604052600436106100e85760003560e01c80638da5cb5b1161008a578063e1bc35ab11610059578063e1bc35ab14610245578063f09a40161461025a578063f99ff3e814610295578063fec5a18d146102aa576100e8565b80638da5cb5b146101f15780638fd3ab8014610206578063b2724e201461021b578063d4b8399214610230576100e8565b80633d562561116100c65780633d5625611461015c5780633e95e62c1461018757806354fd4d501461019c5780637b8d56e3146101ce576100e8565b806302d05d3f146100ed578063209652551461011e578063246f8b9614610145575b600080fd5b3480156100f957600080fd5b506101026102de565b604080516001600160a01b039092168252519081900360200190f35b34801561012a57600080fd5b506101336102e3565b60408051918252519081900360200190f35b34801561015157600080fd5b5061015a6102e9565b005b34801561016857600080fd5b506101716102fb565b6040805160ff9092168252519081900360200190f35b34801561019357600080fd5b50610171610300565b3480156101a857600080fd5b506101b1610305565b604080516001600160c01b03199092168252519081900360200190f35b61015a600480360360408110156101e457600080fd5b508035906020013561030f565b3480156101fd57600080fd5b50610102610398565b34801561021257600080fd5b5061015a6103a7565b34801561022757600080fd5b5061015a610458565b34801561023c57600080fd5b5061010261046a565b34801561025157600080fd5b50610171610479565b34801561026657600080fd5b5061015a6004803603604081101561027d57600080fd5b506001600160a01b038135811691602001351661047e565b3480156102a157600080fd5b506101716105bf565b3480156102b657600080fd5b5061015a600480360360208110156102cd57600080fd5b50356001600160c01b0319166105c4565b600090565b600d5490565b600080546001600160a01b0319169055565b600181565b600381565b62302e3160e81b90565b6000546001600160a01b0316331461035a576040805162461bcd60e51b81526020600482015260096024820152683737ba1037bbb732b960b91b604482015290519081900360640190fd5b818102600d81905560408051918252517f93fe6d397c74fdf1402a8b72e47b68512f0510d7b98a4bc4cbdf6ac7108b3c599181900360200190a15050565b6000546001600160a01b031690565b306001600160a01b03166302d05d3f6040518163ffffffff1660e01b815260040160206040518083038186803b1580156103e057600080fd5b505afa1580156103f4573d6000803e3d6000fd5b505050506040513d602081101561040a57600080fd5b50516001600160a01b03163314610456576040805162461bcd60e51b815260206004820152600b60248201526a3737ba1031b932b0ba37b960a91b604482015290519081900360640190fd5b565b600180546001600160a01b0319169055565b6001546001600160a01b031690565b600281565b306001600160a01b03166302d05d3f6040518163ffffffff1660e01b815260040160206040518083038186803b1580156104b757600080fd5b505afa1580156104cb573d6000803e3d6000fd5b505050506040513d60208110156104e157600080fd5b50516001600160a01b0316331461052d576040805162461bcd60e51b815260206004820152600b60248201526a3737ba1031b932b0ba37b960a91b604482015290519081900360640190fd5b6000546001600160a01b0383811691161480159061055357506001600160a01b03821615155b1561057457600080546001600160a01b0319166001600160a01b0384161790555b6001546001600160a01b0382811691161480159061059a57506001600160a01b03811615155b156105bb57600180546001600160a01b0319166001600160a01b0383161790555b5050565b600081565b6000546001600160a01b0316331461060f576040805162461bcd60e51b81526020600482015260096024820152683737ba1037bbb732b960b91b604482015290519081900360640190fd5b306001600160a01b03166302d05d3f6040518163ffffffff1660e01b815260040160206040518083038186803b15801561064857600080fd5b505afa15801561065c573d6000803e3d6000fd5b505050506040513d602081101561067257600080fd5b5051604080516318beb60960e31b81526001600160c01b03198416600482015290516001600160a01b039092169163c5f5b0489160248082019260009290919082900301818387803b1580156106c757600080fd5b505af11580156106db573d6000803e3d6000fd5b505050505056fea2646970667358221220b651d0620487b859f199750409f8dd81f81fbf9149dc863733e2b6173d85791e64736f6c634300060b0033",
  "source": "// SPDX-License-Identifier: UNLICENSED\n\npragma solidity 0.6.11;\n\nimport \"../lib/StorageBase.sol\";\nimport \"../lib/Storage.sol\";\nimport \"./Storage2.sol\";\n\ncontract Wallet2 is IStorage, StorageBase, Storage, Storage2 {\n\n    event ValueChanged(uint256 newValue);\n\n    function setValue(uint256 _value, uint256 _mul) public onlyOwner payable {\n        value = _value * _mul;\n        emit ValueChanged(value);\n    }\n\n    function getValue() public view returns (uint256) {\n        return value;\n    }\n\n    // IStorage Implementation\n\n    function migrate () external override onlyCreator() {\n    }\n\n    function version() public pure override returns (bytes8) {\n        return bytes8(\"0.1\");\n    }\n\n    function removeOwner() public {\n        _owner = address(0);\n    }\n\n    function removeTarget() public {\n        _target = address(0);\n    }\n\n}\n\n",
  "sourcePath": "/home/tal/code/kirobo/ki-eth-contracts/contracts/test/Wallet2.sol",
  "compiler": {
    "name": "solc",
    "version": "0.6.11+commit.5ef660b1.Emscripten.clang"
  },
  "schemaVersion": "3.0.23",
  "updatedAt": "2020-07-20T18:33:57.463Z",
  "networkType": "ethereum",
  "devdoc": {
    "kind": "dev",
    "methods": {},
    "version": 1
  },
  "userdoc": {
    "kind": "user",
    "methods": {},
    "version": 1
  }
}