{
  "contractName": "Wallet",
  "abi": [
    {
      "anonymous": false,
      "inputs": [
        {
          "indexed": true,
          "internalType": "address",
          "name": "creator",
          "type": "address"
        },
        {
          "indexed": true,
          "internalType": "address",
          "name": "wallet",
          "type": "address"
        },
        {
          "indexed": true,
          "internalType": "address",
          "name": "activator",
          "type": "address"
        },
        {
          "indexed": false,
          "internalType": "uint8",
          "name": "state",
          "type": "uint8"
        }
      ],
      "name": "BackupActivated",
      "type": "event"
    },
    {
      "anonymous": false,
      "inputs": [
        {
          "indexed": true,
          "internalType": "address",
          "name": "creator",
          "type": "address"
        },
        {
          "indexed": true,
          "internalType": "address",
          "name": "owner",
          "type": "address"
        },
        {
          "indexed": true,
          "internalType": "address",
          "name": "wallet",
          "type": "address"
        },
        {
          "indexed": false,
          "internalType": "uint32",
          "name": "timeout",
          "type": "uint32"
        },
        {
          "indexed": false,
          "internalType": "uint40",
          "name": "timestamp",
          "type": "uint40"
        },
        {
          "indexed": false,
          "internalType": "uint8",
          "name": "state",
          "type": "uint8"
        }
      ],
      "name": "BackupChanged",
      "type": "event"
    },
    {
      "anonymous": false,
      "inputs": [
        {
          "indexed": true,
          "internalType": "address",
          "name": "creator",
          "type": "address"
        },
        {
          "indexed": true,
          "internalType": "address",
          "name": "wallet",
          "type": "address"
        },
        {
          "indexed": false,
          "internalType": "uint40",
          "name": "timestamp",
          "type": "uint40"
        },
        {
          "indexed": false,
          "internalType": "uint8",
          "name": "state",
          "type": "uint8"
        }
      ],
      "name": "BackupEnabled",
      "type": "event"
    },
    {
      "anonymous": false,
      "inputs": [
        {
          "indexed": true,
          "internalType": "address",
          "name": "creator",
          "type": "address"
        },
        {
          "indexed": true,
          "internalType": "address",
          "name": "payee",
          "type": "address"
        },
        {
          "indexed": false,
          "internalType": "uint256",
          "name": "amount",
          "type": "uint256"
        },
        {
          "indexed": false,
          "internalType": "bool",
          "name": "reward",
          "type": "bool"
        }
      ],
      "name": "BackupPayment",
      "type": "event"
    },
    {
      "anonymous": false,
      "inputs": [
        {
          "indexed": true,
          "internalType": "address",
          "name": "creator",
          "type": "address"
        },
        {
          "indexed": true,
          "internalType": "address",
          "name": "wallet",
          "type": "address"
        },
        {
          "indexed": false,
          "internalType": "uint8",
          "name": "state",
          "type": "uint8"
        }
      ],
      "name": "BackupRegistered",
      "type": "event"
    },
    {
      "anonymous": false,
      "inputs": [
        {
          "indexed": true,
          "internalType": "address",
          "name": "creator",
          "type": "address"
        },
        {
          "indexed": true,
          "internalType": "address",
          "name": "owner",
          "type": "address"
        },
        {
          "indexed": true,
          "internalType": "address",
          "name": "wallet",
          "type": "address"
        },
        {
          "indexed": false,
          "internalType": "uint8",
          "name": "state",
          "type": "uint8"
        }
      ],
      "name": "BackupRemoved",
      "type": "event"
    },
    {
      "anonymous": false,
      "inputs": [
        {
          "indexed": true,
          "internalType": "address",
          "name": "creator",
          "type": "address"
        },
        {
          "indexed": true,
          "internalType": "address",
          "name": "owner",
          "type": "address"
        },
        {
          "indexed": true,
          "internalType": "address",
          "name": "operator",
          "type": "address"
        },
        {
          "indexed": false,
          "internalType": "uint256",
          "name": "value",
          "type": "uint256"
        }
      ],
      "name": "BatchCall",
      "type": "event"
    },
    {
      "anonymous": false,
      "inputs": [
        {
          "indexed": true,
          "internalType": "address",
          "name": "creator",
          "type": "address"
        },
        {
          "indexed": true,
          "internalType": "address",
          "name": "activator",
          "type": "address"
        },
        {
          "indexed": false,
          "internalType": "address[]",
          "name": "wallets",
          "type": "address[]"
        }
      ],
      "name": "InheritanceActivated",
      "type": "event"
    },
    {
      "anonymous": false,
      "inputs": [
        {
          "indexed": true,
          "internalType": "address",
          "name": "creator",
          "type": "address"
        },
        {
          "indexed": true,
          "internalType": "address",
          "name": "owner",
          "type": "address"
        },
        {
          "indexed": false,
          "internalType": "uint40",
          "name": "timeout",
          "type": "uint40"
        },
        {
          "indexed": false,
          "internalType": "uint40",
          "name": "timestamp",
          "type": "uint40"
        }
      ],
      "name": "InheritanceChanged",
      "type": "event"
    },
    {
      "anonymous": false,
      "inputs": [
        {
          "indexed": true,
          "internalType": "address",
          "name": "creator",
          "type": "address"
        },
        {
          "indexed": true,
          "internalType": "address",
          "name": "owner",
          "type": "address"
        },
        {
          "indexed": false,
          "internalType": "address[]",
          "name": "wallets",
          "type": "address[]"
        },
        {
          "indexed": false,
          "internalType": "uint16[]",
          "name": "bps",
          "type": "uint16[]"
        }
      ],
      "name": "InheritanceHeirsChanged",
      "type": "event"
    },
    {
      "anonymous": false,
      "inputs": [
        {
          "indexed": true,
          "internalType": "address",
          "name": "creator",
          "type": "address"
        },
        {
          "indexed": true,
          "internalType": "address",
          "name": "payee",
          "type": "address"
        },
        {
          "indexed": false,
          "internalType": "uint256",
          "name": "amount",
          "type": "uint256"
        },
        {
          "indexed": false,
          "internalType": "bool",
          "name": "reward",
          "type": "bool"
        }
      ],
      "name": "InheritancePayment",
      "type": "event"
    },
    {
      "anonymous": false,
      "inputs": [
        {
          "indexed": true,
          "internalType": "address",
          "name": "creator",
          "type": "address"
        },
        {
          "indexed": true,
          "internalType": "address",
          "name": "owner",
          "type": "address"
        }
      ],
      "name": "InheritanceRemoved",
      "type": "event"
    },
    {
      "anonymous": false,
      "inputs": [
        {
          "indexed": true,
          "internalType": "address",
          "name": "creator",
          "type": "address"
        },
        {
          "indexed": true,
          "internalType": "address",
          "name": "owner",
          "type": "address"
        },
        {
          "indexed": true,
          "internalType": "address",
          "name": "pendingOwner",
          "type": "address"
        },
        {
          "indexed": false,
          "internalType": "uint8",
          "name": "state",
          "type": "uint8"
        }
      ],
      "name": "OwnershipReclaimed",
      "type": "event"
    },
    {
      "anonymous": false,
      "inputs": [
        {
          "indexed": true,
          "internalType": "address",
          "name": "creator",
          "type": "address"
        },
        {
          "indexed": true,
          "internalType": "address",
          "name": "previousOwner",
          "type": "address"
        },
        {
          "indexed": true,
          "internalType": "address",
          "name": "newOwner",
          "type": "address"
        },
        {
          "indexed": false,
          "internalType": "uint8",
          "name": "state",
          "type": "uint8"
        }
      ],
      "name": "OwnershipTransferred",
      "type": "event"
    },
    {
      "stateMutability": "nonpayable",
      "type": "fallback"
    },
    {
      "inputs": [],
      "name": "ACCEPT_TYPEHASH",
      "outputs": [
        {
          "internalType": "bytes32",
          "name": "",
          "type": "bytes32"
        }
      ],
      "stateMutability": "view",
      "type": "function"
    },
    {
      "inputs": [],
      "name": "BACKUP_STATE_ACTIVATED",
      "outputs": [
        {
          "internalType": "uint8",
          "name": "",
          "type": "uint8"
        }
      ],
      "stateMutability": "view",
      "type": "function"
    },
    {
      "inputs": [],
      "name": "BACKUP_STATE_ENABLED",
      "outputs": [
        {
          "internalType": "uint8",
          "name": "",
          "type": "uint8"
        }
      ],
      "stateMutability": "view",
      "type": "function"
    },
    {
      "inputs": [],
      "name": "BACKUP_STATE_PENDING",
      "outputs": [
        {
          "internalType": "uint8",
          "name": "",
          "type": "uint8"
        }
      ],
      "stateMutability": "view",
      "type": "function"
    },
    {
      "inputs": [],
      "name": "BACKUP_STATE_REGISTERED",
      "outputs": [
        {
          "internalType": "uint8",
          "name": "",
          "type": "uint8"
        }
      ],
      "stateMutability": "view",
      "type": "function"
    },
    {
      "inputs": [],
      "name": "CHAIN_ID",
      "outputs": [
        {
          "internalType": "uint256",
          "name": "",
          "type": "uint256"
        }
      ],
      "stateMutability": "view",
      "type": "function"
    },
    {
      "inputs": [],
      "name": "DOMAIN_SEPARATOR",
      "outputs": [
        {
          "internalType": "bytes32",
          "name": "",
          "type": "bytes32"
        }
      ],
      "stateMutability": "view",
      "type": "function"
    },
    {
      "inputs": [],
      "name": "NAME",
      "outputs": [
        {
          "internalType": "string",
          "name": "",
          "type": "string"
        }
      ],
      "stateMutability": "view",
      "type": "function"
    },
    {
      "inputs": [],
      "name": "VERSION",
      "outputs": [
        {
          "internalType": "string",
          "name": "",
          "type": "string"
        }
      ],
      "stateMutability": "view",
      "type": "function"
    },
    {
      "inputs": [],
      "name": "VERSION_NUMBER",
      "outputs": [
        {
          "internalType": "uint8",
          "name": "",
          "type": "uint8"
        }
      ],
      "stateMutability": "view",
      "type": "function"
    },
    {
      "inputs": [],
      "name": "accept",
      "outputs": [],
      "stateMutability": "nonpayable",
      "type": "function"
    },
    {
      "inputs": [],
      "name": "activateBackup",
      "outputs": [],
      "stateMutability": "nonpayable",
      "type": "function"
    },
    {
      "inputs": [],
      "name": "activateInheritance",
      "outputs": [],
      "stateMutability": "nonpayable",
      "type": "function"
    },
    {
      "inputs": [],
      "name": "claimOwnership",
      "outputs": [],
      "stateMutability": "nonpayable",
      "type": "function"
    },
    {
      "inputs": [],
      "name": "clearInheritance",
      "outputs": [],
      "stateMutability": "nonpayable",
      "type": "function"
    },
    {
      "inputs": [],
      "name": "creator",
      "outputs": [
        {
          "internalType": "address",
          "name": "",
          "type": "address"
        }
      ],
      "stateMutability": "pure",
      "type": "function"
    },
    {
      "inputs": [],
      "name": "decline",
      "outputs": [],
      "stateMutability": "nonpayable",
      "type": "function"
    },
    {
      "inputs": [],
      "name": "enable",
      "outputs": [],
      "stateMutability": "nonpayable",
      "type": "function"
    },
    {
      "inputs": [],
      "name": "getBackupState",
      "outputs": [
        {
          "internalType": "uint8",
          "name": "",
          "type": "uint8"
        }
      ],
      "stateMutability": "view",
      "type": "function"
    },
    {
      "inputs": [],
      "name": "getBackupTimeLeft",
      "outputs": [
        {
          "internalType": "uint40",
          "name": "_res",
          "type": "uint40"
        }
      ],
      "stateMutability": "view",
      "type": "function"
    },
    {
      "inputs": [],
      "name": "getBackupTimeout",
      "outputs": [
        {
          "internalType": "uint40",
          "name": "",
          "type": "uint40"
        }
      ],
      "stateMutability": "view",
      "type": "function"
    },
    {
      "inputs": [],
      "name": "getBackupTimestamp",
      "outputs": [
        {
          "internalType": "uint40",
          "name": "",
          "type": "uint40"
        }
      ],
      "stateMutability": "view",
      "type": "function"
    },
    {
      "inputs": [],
      "name": "getBackupWallet",
      "outputs": [
        {
          "internalType": "address",
          "name": "",
          "type": "address"
        }
      ],
      "stateMutability": "view",
      "type": "function"
    },
    {
      "inputs": [],
      "name": "getHeirs",
      "outputs": [
        {
          "internalType": "bytes32[8]",
          "name": "heirs",
          "type": "bytes32[8]"
        }
      ],
      "stateMutability": "view",
      "type": "function"
    },
    {
      "inputs": [],
      "name": "getInheritanceTimeLeft",
      "outputs": [
        {
          "internalType": "uint40",
          "name": "_res",
          "type": "uint40"
        }
      ],
      "stateMutability": "view",
      "type": "function"
    },
    {
      "inputs": [],
      "name": "getInheritanceTimeout",
      "outputs": [
        {
          "internalType": "uint40",
          "name": "",
          "type": "uint40"
        }
      ],
      "stateMutability": "view",
      "type": "function"
    },
    {
      "inputs": [],
      "name": "getInheritanceTimestamp",
      "outputs": [
        {
          "internalType": "uint40",
          "name": "",
          "type": "uint40"
        }
      ],
      "stateMutability": "view",
      "type": "function"
    },
    {
      "inputs": [],
      "name": "getOwner",
      "outputs": [
        {
          "internalType": "address",
          "name": "",
          "type": "address"
        }
      ],
      "stateMutability": "view",
      "type": "function"
    },
    {
      "inputs": [],
      "name": "getTotalBPS",
      "outputs": [
        {
          "internalType": "uint256",
          "name": "total",
          "type": "uint256"
        }
      ],
      "stateMutability": "view",
      "type": "function"
    },
    {
      "inputs": [],
      "name": "getTotalTransfered",
      "outputs": [
        {
          "internalType": "uint256",
          "name": "total",
          "type": "uint256"
        }
      ],
      "stateMutability": "view",
      "type": "function"
    },
    {
      "inputs": [
        {
          "internalType": "address",
          "name": "__owner",
          "type": "address"
        },
        {
          "internalType": "address",
          "name": "__target",
          "type": "address"
        }
      ],
      "name": "init",
      "outputs": [],
      "stateMutability": "nonpayable",
      "type": "function"
    },
    {
      "inputs": [],
      "name": "isBackup",
      "outputs": [
        {
          "internalType": "bool",
          "name": "",
          "type": "bool"
        }
      ],
      "stateMutability": "view",
      "type": "function"
    },
    {
      "inputs": [],
      "name": "isInheritanceActivated",
      "outputs": [
        {
          "internalType": "bool",
          "name": "",
          "type": "bool"
        }
      ],
      "stateMutability": "view",
      "type": "function"
    },
    {
      "inputs": [],
      "name": "isInheritanceEnabled",
      "outputs": [
        {
          "internalType": "bool",
          "name": "",
          "type": "bool"
        }
      ],
      "stateMutability": "view",
      "type": "function"
    },
    {
      "inputs": [],
      "name": "isOwner",
      "outputs": [
        {
          "internalType": "bool",
          "name": "",
          "type": "bool"
        }
      ],
      "stateMutability": "view",
      "type": "function"
    },
    {
      "inputs": [],
      "name": "owner",
      "outputs": [
        {
          "internalType": "address",
          "name": "",
          "type": "address"
        }
      ],
      "stateMutability": "view",
      "type": "function"
    },
    {
      "inputs": [],
      "name": "reclaimOwnership",
      "outputs": [],
      "stateMutability": "nonpayable",
      "type": "function"
    },
    {
      "inputs": [],
      "name": "removeBackup",
      "outputs": [],
      "stateMutability": "nonpayable",
      "type": "function"
    },
    {
      "inputs": [
        {
          "internalType": "address",
          "name": "_wallet",
          "type": "address"
        },
        {
          "internalType": "uint32",
          "name": "_timeout",
          "type": "uint32"
        }
      ],
      "name": "setBackup",
      "outputs": [],
      "stateMutability": "nonpayable",
      "type": "function"
    },
    {
      "inputs": [
        {
          "internalType": "address payable[]",
          "name": "_wallets",
          "type": "address[]"
        },
        {
          "internalType": "uint16[]",
          "name": "_bps",
          "type": "uint16[]"
        }
      ],
      "name": "setHeirs",
      "outputs": [],
      "stateMutability": "nonpayable",
      "type": "function"
    },
    {
      "inputs": [
        {
          "internalType": "uint32",
          "name": "_timeout",
          "type": "uint32"
        }
      ],
      "name": "setInheritance",
      "outputs": [],
      "stateMutability": "nonpayable",
      "type": "function"
    },
    {
      "inputs": [],
      "name": "target",
      "outputs": [
        {
          "internalType": "address",
          "name": "",
          "type": "address"
        }
      ],
      "stateMutability": "view",
      "type": "function"
    },
    {
      "inputs": [],
      "name": "uid",
      "outputs": [
        {
          "internalType": "bytes32",
          "name": "",
          "type": "bytes32"
        }
      ],
      "stateMutability": "view",
      "type": "function"
    },
    {
      "inputs": [
        {
          "internalType": "bytes8",
          "name": "_version",
          "type": "bytes8"
        }
      ],
      "name": "upgrade",
      "outputs": [],
      "stateMutability": "nonpayable",
      "type": "function"
    },
    {
      "stateMutability": "payable",
      "type": "receive"
    },
    {
      "inputs": [
        {
          "internalType": "address",
          "name": "",
          "type": "address"
        },
        {
          "internalType": "address",
          "name": "",
          "type": "address"
        },
        {
          "internalType": "uint256",
          "name": "",
          "type": "uint256"
        },
        {
          "internalType": "bytes",
          "name": "",
          "type": "bytes"
        }
      ],
      "name": "onERC721Received",
      "outputs": [
        {
          "internalType": "bytes4",
          "name": "",
          "type": "bytes4"
        }
      ],
      "stateMutability": "pure",
      "type": "function"
    },
    {
      "inputs": [],
      "name": "migrate",
      "outputs": [],
      "stateMutability": "nonpayable",
      "type": "function"
    },
    {
      "inputs": [],
      "name": "version",
      "outputs": [
        {
          "internalType": "bytes8",
          "name": "",
          "type": "bytes8"
        }
      ],
      "stateMutability": "pure",
      "type": "function"
    },
    {
      "inputs": [
        {
          "components": [
            {
              "internalType": "uint8",
              "name": "v",
              "type": "uint8"
            },
            {
              "internalType": "bytes32",
              "name": "r",
              "type": "bytes32"
            },
            {
              "internalType": "bytes32",
              "name": "s",
              "type": "bytes32"
            },
            {
              "internalType": "bytes32",
              "name": "typeHash",
              "type": "bytes32"
            },
            {
              "internalType": "address",
              "name": "to",
              "type": "address"
            },
            {
              "internalType": "uint256",
              "name": "value",
              "type": "uint256"
            },
            {
              "components": [
                {
                  "internalType": "bool",
                  "name": "simple",
                  "type": "bool"
                },
                {
                  "internalType": "bool",
                  "name": "staticcall",
                  "type": "bool"
                },
                {
                  "internalType": "uint32",
                  "name": "gasLimit",
                  "type": "uint32"
                }
              ],
              "internalType": "struct Wallet.MetaData",
              "name": "metaData",
              "type": "tuple"
            },
            {
              "internalType": "bytes",
              "name": "data",
              "type": "bytes"
            }
          ],
          "internalType": "struct Wallet.Call",
          "name": "call",
          "type": "tuple"
        },
        {
          "internalType": "address",
          "name": "activator",
          "type": "address"
        },
        {
          "internalType": "uint256",
          "name": "_nonce",
          "type": "uint256"
        }
      ],
      "name": "generateMessage",
      "outputs": [
        {
          "internalType": "bytes",
          "name": "",
          "type": "bytes"
        }
      ],
      "stateMutability": "pure",
      "type": "function"
    },
    {
      "inputs": [
        {
          "components": [
            {
              "internalType": "uint8",
              "name": "v1",
              "type": "uint8"
            },
            {
              "internalType": "bytes32",
              "name": "r1",
              "type": "bytes32"
            },
            {
              "internalType": "bytes32",
              "name": "s1",
              "type": "bytes32"
            },
            {
              "internalType": "uint8",
              "name": "v2",
              "type": "uint8"
            },
            {
              "internalType": "bytes32",
              "name": "r2",
              "type": "bytes32"
            },
            {
              "internalType": "bytes32",
              "name": "s2",
              "type": "bytes32"
            },
            {
              "internalType": "bytes32",
              "name": "typeHash",
              "type": "bytes32"
            },
            {
              "internalType": "address",
              "name": "to",
              "type": "address"
            },
            {
              "internalType": "uint256",
              "name": "value",
              "type": "uint256"
            },
            {
              "components": [
                {
                  "internalType": "bool",
                  "name": "simple",
                  "type": "bool"
                },
                {
                  "internalType": "bool",
                  "name": "staticcall",
                  "type": "bool"
                },
                {
                  "internalType": "uint32",
                  "name": "gasLimit",
                  "type": "uint32"
                }
              ],
              "internalType": "struct Wallet.MetaData",
              "name": "metaData",
              "type": "tuple"
            },
            {
              "internalType": "bytes",
              "name": "data",
              "type": "bytes"
            }
          ],
          "internalType": "struct Wallet.XCall",
          "name": "call",
          "type": "tuple"
        },
        {
          "internalType": "uint256",
          "name": "_nonce",
          "type": "uint256"
        }
      ],
      "name": "generateXXMessage",
      "outputs": [
        {
          "internalType": "bytes",
          "name": "",
          "type": "bytes"
        }
      ],
      "stateMutability": "pure",
      "type": "function"
    },
    {
      "inputs": [
        {
          "components": [
            {
              "internalType": "uint8",
              "name": "v",
              "type": "uint8"
            },
            {
              "internalType": "bytes32",
              "name": "r",
              "type": "bytes32"
            },
            {
              "internalType": "bytes32",
              "name": "s",
              "type": "bytes32"
            },
            {
              "internalType": "address",
              "name": "to",
              "type": "address"
            },
            {
              "internalType": "uint256",
              "name": "value",
              "type": "uint256"
            }
          ],
          "internalType": "struct Wallet.Transfer[]",
          "name": "tr",
          "type": "tuple[]"
        }
      ],
      "name": "unsecuredBatchCall",
      "outputs": [],
      "stateMutability": "payable",
      "type": "function"
    },
    {
      "inputs": [
        {
          "components": [
            {
              "internalType": "uint8",
              "name": "v",
              "type": "uint8"
            },
            {
              "internalType": "bytes32",
              "name": "r",
              "type": "bytes32"
            },
            {
              "internalType": "bytes32",
              "name": "s",
              "type": "bytes32"
            },
            {
              "internalType": "bytes32",
              "name": "typeHash",
              "type": "bytes32"
            },
            {
              "internalType": "address",
              "name": "to",
              "type": "address"
            },
            {
              "internalType": "uint256",
              "name": "value",
              "type": "uint256"
            },
            {
              "components": [
                {
                  "internalType": "bool",
                  "name": "simple",
                  "type": "bool"
                },
                {
                  "internalType": "bool",
                  "name": "staticcall",
                  "type": "bool"
                },
                {
                  "internalType": "uint32",
                  "name": "gasLimit",
                  "type": "uint32"
                }
              ],
              "internalType": "struct Wallet.MetaData",
              "name": "metaData",
              "type": "tuple"
            },
            {
              "internalType": "bytes",
              "name": "data",
              "type": "bytes"
            }
          ],
          "internalType": "struct Wallet.Call[]",
          "name": "tr",
          "type": "tuple[]"
        }
      ],
      "name": "executeBatchCall",
      "outputs": [],
      "stateMutability": "payable",
      "type": "function"
    },
    {
      "inputs": [
        {
          "components": [
            {
              "internalType": "uint8",
              "name": "v1",
              "type": "uint8"
            },
            {
              "internalType": "bytes32",
              "name": "r1",
              "type": "bytes32"
            },
            {
              "internalType": "bytes32",
              "name": "s1",
              "type": "bytes32"
            },
            {
              "internalType": "uint8",
              "name": "v2",
              "type": "uint8"
            },
            {
              "internalType": "bytes32",
              "name": "r2",
              "type": "bytes32"
            },
            {
              "internalType": "bytes32",
              "name": "s2",
              "type": "bytes32"
            },
            {
              "internalType": "bytes32",
              "name": "typeHash",
              "type": "bytes32"
            },
            {
              "internalType": "address",
              "name": "to",
              "type": "address"
            },
            {
              "internalType": "uint256",
              "name": "value",
              "type": "uint256"
            },
            {
              "components": [
                {
                  "internalType": "bool",
                  "name": "simple",
                  "type": "bool"
                },
                {
                  "internalType": "bool",
                  "name": "staticcall",
                  "type": "bool"
                },
                {
                  "internalType": "uint32",
                  "name": "gasLimit",
                  "type": "uint32"
                }
              ],
              "internalType": "struct Wallet.MetaData",
              "name": "metaData",
              "type": "tuple"
            },
            {
              "internalType": "bytes",
              "name": "data",
              "type": "bytes"
            }
          ],
          "internalType": "struct Wallet.XCall[]",
          "name": "tr",
          "type": "tuple[]"
        }
      ],
      "name": "executeXXBatchCall",
      "outputs": [],
      "stateMutability": "payable",
      "type": "function"
    },
    {
      "inputs": [],
      "name": "cancelCall",
      "outputs": [],
      "stateMutability": "nonpayable",
      "type": "function"
    },
    {
      "inputs": [],
      "name": "nonce",
      "outputs": [
        {
          "internalType": "uint32",
          "name": "",
          "type": "uint32"
        }
      ],
      "stateMutability": "view",
      "type": "function"
    },
    {
      "inputs": [
        {
          "internalType": "address",
          "name": "_token",
          "type": "address"
        },
        {
          "internalType": "address payable",
          "name": "_to",
          "type": "address"
        },
        {
          "internalType": "uint256",
          "name": "_value",
          "type": "uint256"
        }
      ],
      "name": "sendERC20",
      "outputs": [],
      "stateMutability": "nonpayable",
      "type": "function"
    }
  ],
  "bytecode": "0x608060405234801561001057600080fd5b50600080546001600160a01b03191633179055615d5a80620000336000396000f3fe6080604052600436106103635760003560e01c80638f975a64116101c6578063d2bc24d1116100f7578063f09a401611610095578063f99ff3e81161006f578063f99ff3e8146109cd578063fdafd4eb146109e2578063fec5a18d14610a0a578063ffa1ad7414610a2a576103b7565b8063f09a401614610978578063f514ce3614610998578063f808a309146109ad576103b7565b8063e1bc35ab116100d1578063e1bc35ab1461090e578063e520d10414610923578063e767e13714610943578063e961a20314610958576103b7565b8063d2bc24d1146108a9578063d4b83992146108dd578063d6d67056146108fb576103b7565b8063ab04010711610164578063bc5feaa81161013e578063bc5feaa814610845578063c1c8277f14610858578063c572f15d1461086d578063cd7dbf4a14610882576103b7565b8063ab040107146107ef578063af1fd6f814610804578063affed0e014610820576103b7565b80639e091e87116101a05780639e091e8714610762578063a3907d7114610777578063a3f4df7e1461078c578063aab3291a146107cf576103b7565b80638f975a64146107095780638fd3ab80146107295780639db652f41461073e576103b7565b80633e95e62c116102a057806354fd4d501161023e57806385e1f4d01161021857806385e1f4d0146106b4578063893d20e8146106ca5780638da5cb5b146106ca5780638f32d59b146106e8576103b7565b806354fd4d50146106595780637396f189146106945780638025e30314610580576103b7565b806349629f081161027a57806349629f08146105ed5780634e71e0c8146106025780634eae51f41461061757806350ea229714610639576103b7565b80633e95e62c146105a7578063413d4f23146105bc578063447046bf146105cf576103b7565b8063234439441161030d5780632e262542116102e75780632e262542146105405780633644e5151461055557806336d62d401461056b5780633d56256114610580576103b7565b806323443944146104f75780632852b71c1461050c5780632a5dc72a14610521576103b7565b8063120e860c1161033e578063120e860c14610462578063150b7a021461047757806318f9c690146104d4576103b7565b806253d7b0146103c657806302d05d3f1461040957806303c01e6814610431576103b7565b366103b75760405162461bcd60e51b815260206004820152601b60248201527f57616c6c65743a206e6f7420616365657074696e67206574686572000000000060448201526064015b60405180910390fd5b005b3480156103c357600080fd5b50005b3480156103d257600080fd5b506103ee600c54670100000000000000900464ffffffffff1690565b60405164ffffffffff90911681526020015b60405180910390f35b34801561041557600080fd5b5060005b6040516001600160a01b039091168152602001610400565b34801561043d57600080fd5b506104526002546001600160a01b0316331490565b6040519015158152602001610400565b34801561046e57600080fd5b506103b5610a57565b34801561048357600080fd5b506104bb61049236600461553f565b7f150b7a0200000000000000000000000000000000000000000000000000000000949350505050565b6040516001600160e01b03199091168152602001610400565b3480156104e057600080fd5b506103ee600254600160c81b900463ffffffff1690565b34801561050357600080fd5b506103b5610f7c565b34801561051857600080fd5b506103b5611079565b34801561052d57600080fd5b506003545b604051908152602001610400565b34801561054c57600080fd5b506103b56111f6565b34801561056157600080fd5b50610532600f5481565b34801561057757600080fd5b50610532611456565b34801561058c57600080fd5b50610595600181565b60405160ff9091168152602001610400565b3480156105b357600080fd5b50610595600381565b6103b56105ca3660046156d5565b6114ec565b3480156105db57600080fd5b506002546001600160a01b0316610419565b3480156105f957600080fd5b506103b5611b83565b34801561060e57600080fd5b506103b561228e565b34801561062357600080fd5b5061062c612568565b6040516104009190615976565b34801561064557600080fd5b506103b56106543660046158d5565b612655565b34801561066557600080fd5b506040517f312e322e310000000000000000000000000000000000000000000000000000008152602001610400565b3480156106a057600080fd5b506103b56106af3660046155e1565b6128c8565b3480156106c057600080fd5b5061053260105481565b3480156106d657600080fd5b506000546001600160a01b0316610419565b3480156106f457600080fd5b506104526000546001600160a01b0316331490565b34801561071557600080fd5b506103b56107243660046154ff565b612dd9565b34801561073557600080fd5b506103b5612ec0565b34801561074a57600080fd5b506103ee600254600160a01b900464ffffffffff1690565b34801561076e57600080fd5b506103ee61308b565b34801561078357600080fd5b506103b561313f565b34801561079857600080fd5b506107c26040518060400160405280600a8152602001694b69726f626f204f435760b01b81525081565b6040516104009190615a88565b3480156107db57600080fd5b506107c26107ea366004615851565b61332e565b3480156107fb57600080fd5b506103b5613343565b34801561081057600080fd5b50600c5464ffffffffff166103ee565b34801561082c57600080fd5b50600e5460405163ffffffff9091168152602001610400565b6103b5610853366004615715565b6133f6565b34801561086457600080fd5b506103b5613737565b34801561087957600080fd5b506103ee6138bd565b34801561088e57600080fd5b50610452600c5465010000000000900460ff16151560011490565b3480156108b557600080fd5b506105327ff728cfc064674dacd2ced2a03acd588dfd299d5e4716726c6d5ec364d16406eb81565b3480156108e957600080fd5b506001546001600160a01b0316610419565b6103b56109093660046156d5565b61394f565b34801561091a57600080fd5b50610595600281565b34801561092f57600080fd5b506103b561093e366004615615565b6140c4565b34801561094f57600080fd5b506103b5614911565b34801561096457600080fd5b506107c261097336600461588d565b6149b9565b34801561098457600080fd5b506103b5610993366004615499565b6149ce565b3480156109a457600080fd5b50600d54610532565b3480156109b957600080fd5b50610595600254600160e81b900460ff1690565b3480156109d957600080fd5b50610595600081565b3480156109ee57600080fd5b50610452600c546601000000000000900460ff16151560011490565b348015610a1657600080fd5b506103b5610a253660046157a5565b614b0f565b348015610a3657600080fd5b506107c2604051806040016040528060018152602001603160f81b81525081565b60028054600160e81b900460ff1614610ab7576040805162461bcd60e51b815260206004820152601260248201527f6261636b7570206e6f7420656e61626c65640000000000000000000000000000604482015290519081900360640190fd5b6002546001600160a01b0316610b14576040805162461bcd60e51b815260206004820152601060248201527f6261636b7570206e6f7420657869737400000000000000000000000000000000604482015290519081900360640190fd5b610b1c6138bd565b64ffffffffff1615610b61576040805162461bcd60e51b8152602060048201526009602482015268746f6f206561726c7960b81b604482015290519081900360640190fd5b600254600160e81b900460ff16600314610ba3576002805460ff60e81b19167d0300000000000000000000000000000000000000000000000000000000001790555b600254604080516302d05d3f60e01b8152905133926001600160a01b03169130916302d05d3f91600480820192602092909190829003018186803b158015610bea57600080fd5b505afa158015610bfe573d6000803e3d6000fd5b505050506040513d6020811015610c1457600080fd5b505160025460408051600160e81b90920460ff168252516001600160a01b03909216917fd4e12feccfc0af60abe3d9f07eaf999abd3329b4570bf80fdb4d5019f7f823d8916020908290030190a460004790506000306001600160a01b03166302d05d3f6040518163ffffffff1660e01b815260040160206040518083038186803b158015610ca257600080fd5b505afa158015610cb6573d6000803e3d6000fd5b505050506040513d6020811015610ccc57600080fd5b5051604080516307dc0d1d60e41b815290516001600160a01b0390921691637dc0d1d091600480820192602092909190829003018186803b158015610d1057600080fd5b505afa158015610d24573d6000803e3d6000fd5b505050506040513d6020811015610d3a57600080fd5b50516040805163319a11df60e11b815290516001600160a01b039092169163633423be91600480820192602092909190829003018186803b158015610d7e57600080fd5b505afa158015610d92573d6000803e3d6000fd5b505050506040513d6020811015610da857600080fd5b50516040519091506001600160a01b038216906064840480156108fc02916000818181858888f1935050505015610e9057806001600160a01b0316306001600160a01b03166302d05d3f6040518163ffffffff1660e01b815260040160206040518083038186803b158015610e1c57600080fd5b505afa158015610e30573d6000803e3d6000fd5b505050506040513d6020811015610e4657600080fd5b50516001600160a01b03167f6e66b5d043b2434fe7d48f9b96e07c1fa4d6c6a7d7ac43fc1afc30267b36869860648560408051929091048252600060208301528051918290030190a35b60405133906103e8840480156108fc02916000818181858888f19350505050158015610ec0573d6000803e3d6000fd5b50336001600160a01b0316306001600160a01b03166302d05d3f6040518163ffffffff1660e01b815260040160206040518083038186803b158015610f0457600080fd5b505afa158015610f18573d6000803e3d6000fd5b505050506040513d6020811015610f2e57600080fd5b50516001600160a01b03167f6e66b5d043b2434fe7d48f9b96e07c1fa4d6c6a7d7ac43fc1afc30267b3686986103e88560408051929091048252600160208301528051918290030190a35050565b306001600160a01b0316638da5cb5b6040518163ffffffff1660e01b815260040160206040518083038186803b158015610fb557600080fd5b505afa158015610fc9573d6000803e3d6000fd5b505050506040513d6020811015610fdf57600080fd5b50516001600160a01b0316331480156110055750600254600160e81b900460ff16600314155b611049576040805162461bcd60e51b815260206004820152601060248201526f3737ba1030b1ba34bb329037bbb732b960811b604482015290519081900360640190fd5b600e5461105d9063ffffffff166001615bd3565b600e805463ffffffff191663ffffffff92909216919091179055565b6002546001600160a01b031633146110c5576040805162461bcd60e51b815260206004820152600a60248201526906e6f74206261636b75760b41b604482015290519081900360640190fd5b600254600160e81b900460ff1615611124576040805162461bcd60e51b815260206004820152601260248201527f6261636b7570206e6f742070656e64696e670000000000000000000000000000604482015290519081900360640190fd5b6002805460ff60e81b1916600160e81b1790819055604080516302d05d3f60e01b815290516001600160a01b039092169130916302d05d3f916004808301926020929190829003018186803b15801561117c57600080fd5b505afa158015611190573d6000803e3d6000fd5b505050506040513d60208110156111a657600080fd5b505160025460408051600160e81b90920460ff168252516001600160a01b03909216917f9b13e751ba276b9ecf994e9ecc38b895af7cded05c07f20e506f4a57f98dc3d3916020908290030190a3565b306001600160a01b0316638da5cb5b6040518163ffffffff1660e01b815260040160206040518083038186803b15801561122f57600080fd5b505afa158015611243573d6000803e3d6000fd5b505050506040513d602081101561125957600080fd5b50516001600160a01b03163314801561127f5750600254600160e81b900460ff16600314155b6112c3576040805162461bcd60e51b815260206004820152601060248201526f3737ba1030b1ba34bb329037bbb732b960811b604482015290519081900360640190fd5b336001600160a01b0316306001600160a01b03166302d05d3f6040518163ffffffff1660e01b815260040160206040518083038186803b15801561130657600080fd5b505afa15801561131a573d6000803e3d6000fd5b505050506040513d602081101561133057600080fd5b50516040516001600160a01b03909116907f386ee292f5f7e1923094e3f15e2c182b0ffaa3b312df32094e994d8e0f1d393a90600090a3600c5464ffffffffff161561138557600c805464ffffffffff191690555b600c5465010000000000900460ff16156113a957600c805465ff0000000000191690555b600c546601000000000000900460ff16156113cf57600c805466ff000000000000191690555b600354156113dd5760006003555b60005b60088110156114535760006004826008811061140c57634e487b7160e01b600052603260045260246000fd5b0180549091506001600160a01b03166114255750611453565b8054600160a01b900460ff161561144257805460ff60a01b191681555b5061144c81615ca3565b90506113e0565b50565b6000805b60088110156114e85760006004826008811061148657634e487b7160e01b600052603260045260246000fd5b01546001600160a01b0316141561149c576114e8565b600481600881106114bd57634e487b7160e01b600052603260045260246000fd5b01546114d490600160a81b900461ffff1683615bbb565b9150806114e081615ca3565b91505061145a565b5090565b600254600160e81b900460ff16600314156115495760405162461bcd60e51b815260206004820152601860248201527f57616c6c65743a206e6f7420616374697665207374617465000000000000000060448201526064016103ac565b6000306001600160a01b03166302d05d3f6040518163ffffffff1660e01b815260040160206040518083038186803b15801561158457600080fd5b505afa158015611598573d6000803e3d6000fd5b505050506040513d601f19601f820116820180604052508101906115bc919061547d565b9050600080826001600160a01b031663723117056040518163ffffffff1660e01b8152600401604080518083038186803b1580156115f957600080fd5b505afa15801561160d573d6000803e3d6000fd5b505050506040513d601f19601f8201168201806040525081019061163191906154d1565b600e5460005492945090925063ffffffff16906001600160a01b039081169083163314806116675750336001600160a01b038216145b6116b35760405162461bcd60e51b815260206004820152601a60248201527f57616c6c65743a2073656e646572206e6f7420616c6c6f77656400000000000060448201526064016103ac565b60005b86811015611b1c57368888838181106116df57634e487b7160e01b600052603260045260246000fd5b90506020028101906116f19190615ae0565b90506000600161172161170d8433878a63ffffffff1601614c50565b805160209091012060608501351515614dcd565b61172e60208501856158ef565b604080516000815260208181018084529490945260ff9092168282015291850135606082015290840135608082015260a0016020604051602081039080840390855afa158015611782573d6000803e3d6000fd5b5050604051601f1901519150506001600160a01b0381163314156117e85760405162461bcd60e51b815260206004820152601f60248201527f57616c6c65743a2073656e6465722063616e6e6f74206265207369676e65720060448201526064016103ac565b836001600160a01b0316816001600160a01b031614806118195750866001600160a01b0316816001600160a01b0316145b6118655760405162461bcd60e51b815260206004820152601a60248201527f57616c6c65743a207369676e6572206e6f7420616c6c6f77656400000000000060448201526064016103ac565b3361187660a084016080850161545a565b6001600160a01b0316141580156118ae57506001600160a01b0381166118a260a084016080850161545a565b6001600160a01b031614155b80156118d25750306118c660a084016080850161545a565b6001600160a01b031614155b80156118ff57506001600160a01b0388166118f360a084016080850161545a565b6001600160a01b031614155b61194b5760405162461bcd60e51b815260206004820152601e60248201527f57616c6c65743a207265656e7472616e6379206e6f7420616c6c6f776564000060448201526064016103ac565b50600080611960610100840160e08501615785565b611a255761197460a084016080850161545a565b6001600160a01b03166000611991610120860161010087016158d5565b63ffffffff16116119a2575a6119bb565b6119b4610120850161010086016158d5565b63ffffffff165b60a08501356119ce610120870187615a9b565b6040516119dc929190615966565b600060405180830381858888f193505050503d8060008114611a1a576040519150601f19603f3d011682016040523d82523d6000602084013e611a1f565b606091505b50611adb565b611a3560a084016080850161545a565b6001600160a01b03166000611a52610120860161010087016158d5565b63ffffffff1611611a63575a611a7c565b611a75610120850161010086016158d5565b63ffffffff165b611a8a610120860186615a9b565b604051611a98929190615966565b6000604051808303818686fa925050503d8060008114611ad4576040519150601f19603f3d011682016040523d82523d6000602084013e611ad9565b606091505b505b9150915081611b0657611aed81614e81565b60405162461bcd60e51b81526004016103ac9190615a88565b5050508080611b1490615ca3565b9150506116b6565b50600e805463ffffffff191687840163ffffffff161790556040514381526001600160a01b0385811691838216918816907f38634a1857869887aba8b9dde8624489eb6dab90d7f84bdc133c95a2523b90739060200160405180910390a450505050505050565b600c5465010000000000900460ff161515600114611be8576040805162461bcd60e51b815260206004820152601a60248201527f696e6865726974616e6365206973206e6f7420656e61626c6564000000000000604482015290519081900360640190fd5b600c546601000000000000900460ff1615611c4a576040805162461bcd60e51b815260206004820152601860248201527f696e6865726974616e6365206973206163746976617465640000000000000000604482015290519081900360640190fd5b611c5261308b565b64ffffffffff1615611c97576040805162461bcd60e51b8152602060048201526009602482015268746f6f206561726c7960b81b604482015290519081900360640190fd5b600c805466ff00000000000019166601000000000000179055604080516302d05d3f60e01b81529051479160009130916302d05d3f916004828101926020929190829003018186803b158015611cec57600080fd5b505afa158015611d00573d6000803e3d6000fd5b505050506040513d6020811015611d1657600080fd5b5051604080516307dc0d1d60e41b815290516001600160a01b0390921691637dc0d1d091600480820192602092909190829003018186803b158015611d5a57600080fd5b505afa158015611d6e573d6000803e3d6000fd5b505050506040513d6020811015611d8457600080fd5b50516040805163319a11df60e11b815290516001600160a01b039092169163633423be91600480820192602092909190829003018186803b158015611dc857600080fd5b505afa158015611ddc573d6000803e3d6000fd5b505050506040513d6020811015611df257600080fd5b505190506001600160a01b0381166108fc611e0e606485615bfb565b6040518115909202916000818181858888f1935050505015611ee657806001600160a01b0316306001600160a01b03166302d05d3f6040518163ffffffff1660e01b815260040160206040518083038186803b158015611e6d57600080fd5b505afa158015611e81573d6000803e3d6000fd5b505050506040513d6020811015611e9757600080fd5b50516001600160a01b03167f0d0176dbbceb582bb24dc965bd866421e9de5afe8bb827dc2a48df2826ad40fd611ece606486615bfb565b60408051918252600060208301528051918290030190a35b336108fc611ef66103e885615bfb565b6040518115909202916000818181858888f19350505050158015611f1e573d6000803e3d6000fd5b50336001600160a01b0316306001600160a01b03166302d05d3f6040518163ffffffff1660e01b815260040160206040518083038186803b158015611f6257600080fd5b505afa158015611f76573d6000803e3d6000fd5b505050506040513d6020811015611f8c57600080fd5b50516001600160a01b03167f0d0176dbbceb582bb24dc965bd866421e9de5afe8bb827dc2a48df2826ad40fd611fc46103e886615bfb565b60408051918252600160208301528051918290030190a347915060005b60088110156120ad5760006004826008811061200d57634e487b7160e01b600052603260045260246000fd5b0180549091506001600160a01b031661202657506120ad565b8054600160a81b900461ffff161561209a5780546001600160a01b038116906108fc906127109061206290600160a81b900461ffff1688615c1b565b61206c9190615bfb565b6040518115909202916000818181858888f18554901515600160a01b0260ff60a01b19909116178555505050505b50806120a581615ca3565b915050611fe1565b6120b74784615c3a565b60035560008167ffffffffffffffff8111156120e357634e487b7160e01b600052604160045260246000fd5b60405190808252806020026020018201604052801561210c578160200160208202803683370190505b50905060005b8281101561219a5760006004826008811061213d57634e487b7160e01b600052603260045260246000fd5b01805484519192506001600160a01b03169084908490811061216f57634e487b7160e01b600052603260045260246000fd5b6001600160a01b0390921660209283029190910190910152508061219281615ca3565b915050612112565b50336001600160a01b0316306001600160a01b03166302d05d3f6040518163ffffffff1660e01b815260040160206040518083038186803b1580156121de57600080fd5b505afa1580156121f2573d6000803e3d6000fd5b505050506040513d602081101561220857600080fd5b505160408051602080825285518282015285516001600160a01b03909416937f7ad28155b9b8629f2cd82bb7d184fbd7726696408380767a0cf3ef763209da8a93879392839291830191858201910280838360005b8381101561227557818101518382015260200161225d565b505050509050019250505060405180910390a350505050565b6002546001600160a01b031633146122da576040805162461bcd60e51b815260206004820152600a60248201526906e6f74206261636b75760b41b604482015290519081900360640190fd5b600254600160e81b900460ff1660031461233b576040805162461bcd60e51b815260206004820152601460248201527f6261636b7570206e6f7420616374697661746564000000000000000000000000604482015290519081900360640190fd5b6002805460ff60e81b198116909155600054604080516302d05d3f60e01b815290516001600160a01b03938416939092169130916302d05d3f916004808301926020929190829003018186803b15801561239457600080fd5b505afa1580156123a8573d6000803e3d6000fd5b505050506040513d60208110156123be57600080fd5b505160025460408051600160e81b90920460ff168252516001600160a01b03909216917fa477fcc649c392c3ab5443bd6c7e532261a90d5e3f29376513d5275e277ddae3916020908290030190a46002546000546001600160a01b0390811691161461250957306001600160a01b03166302d05d3f6040518163ffffffff1660e01b815260040160206040518083038186803b15801561245d57600080fd5b505afa158015612471573d6000803e3d6000fd5b505050506040513d602081101561248757600080fd5b5051600254604080517fbf3b11010000000000000000000000000000000000000000000000000000000081526001600160a01b0392831660048201529051919092169163bf3b110191602480830192600092919082900301818387803b1580156124f057600080fd5b505af1158015612504573d6000803e3d6000fd5b505050505b600280546001600160a01b03191690819055600160c81b900463ffffffff161561253e576002805463ffffffff60c81b191690555b600254600160a01b900464ffffffffff1615612566576002805464ffffffffff60a01b191690555b565b612570615363565b60005b60088110156114e85760006004826008811061259f57634e487b7160e01b600052603260045260246000fd5b0180549091506001600160a01b03166125b857506114e8565b8054600160a81b810460481b6affff0000000000000000001690600160a01b900460ff166125e75760006125f5565b6b0100000000000000000000005b8254612613919060601b6bffffffffffffffffffffffff1916615bbb565b61261d9190615bbb565b83836008811061263d57634e487b7160e01b600052603260045260246000fd5b6020020152508061264d81615ca3565b915050612573565b306001600160a01b0316638da5cb5b6040518163ffffffff1660e01b815260040160206040518083038186803b15801561268e57600080fd5b505afa1580156126a2573d6000803e3d6000fd5b505050506040513d60208110156126b857600080fd5b50516001600160a01b0316331480156126de5750600254600160e81b900460ff16600314155b612722576040805162461bcd60e51b815260206004820152601060248201526f3737ba1030b1ba34bb329037bbb732b960811b604482015290519081900360640190fd5b600c546601000000000000900460ff1615612784576040805162461bcd60e51b815260206004820152601560248201527f696e6865726974616e6365206163746976617465640000000000000000000000604482015290519081900360640190fd5b600c54429064ffffffffff1663ffffffff8316146127b357600c805464ffffffffff191663ffffffff84161790555b600c5465010000000000900460ff1615156001146127e357600c805465ff00000000001916650100000000001790555b600c80546bffffffffff00000000000000191667010000000000000064ffffffffff841602179055604080516302d05d3f60e01b81529051339130916302d05d3f91600480820192602092909190829003018186803b15801561284557600080fd5b505afa158015612859573d6000803e3d6000fd5b505050506040513d602081101561286f57600080fd5b50516040805163ffffffff8616815264ffffffffff8516602082015281516001600160a01b03909316927f219376dc9430460f83af8f607e5c09085e95b4d8096b01b231afc1ee7958d5e2929181900390910190a35050565b306001600160a01b0316638da5cb5b6040518163ffffffff1660e01b815260040160206040518083038186803b15801561290157600080fd5b505afa158015612915573d6000803e3d6000fd5b505050506040513d602081101561292b57600080fd5b50516001600160a01b0316331480156129515750600254600160e81b900460ff16600314155b612995576040805162461bcd60e51b815260206004820152601060248201526f3737ba1030b1ba34bb329037bbb732b960811b604482015290519081900360640190fd5b6001600160a01b0382166129f0576040805162461bcd60e51b815260206004820152600960248201527f6e6f206261636b75700000000000000000000000000000000000000000000000604482015290519081900360640190fd5b6000546001600160a01b0383811691161415612a53576040805162461bcd60e51b815260206004820152600f60248201527f6261636b7570206973206f776e65720000000000000000000000000000000000604482015290519081900360640190fd5b6002546001600160a01b03838116911614612c89576002546001600160a01b031615612b4557306001600160a01b03166302d05d3f6040518163ffffffff1660e01b815260040160206040518083038186803b158015612ab257600080fd5b505afa158015612ac6573d6000803e3d6000fd5b505050506040513d6020811015612adc57600080fd5b50516002546040805163cf2f774160e01b81526001600160a01b0392831660048201529051919092169163cf2f774191602480830192600092919082900301818387803b158015612b2c57600080fd5b505af1158015612b40573d6000803e3d6000fd5b505050505b600280546001600160a01b0319166001600160a01b038416179055604080516302d05d3f60e01b8152905130916302d05d3f916004808301926020929190829003018186803b158015612b9757600080fd5b505afa158015612bab573d6000803e3d6000fd5b505050506040513d6020811015612bc157600080fd5b5051604080517fa196de830000000000000000000000000000000000000000000000000000000081526001600160a01b0385811660048301529151919092169163a196de8391602480830192600092919082900301818387803b158015612c2757600080fd5b505af1158015612c3b573d6000803e3d6000fd5b5050600254600160e81b900460ff16159150612c619050576002805460ff60e81b191690555b600254600160a01b900464ffffffffff1615612c89576002805464ffffffffff60a01b191690555b60025463ffffffff828116600160c81b9092041614612cc1576002805463ffffffff60c81b1916600160c81b63ffffffff8416021790555b60028054600160e81b900460ff161415612cf6576002805464ffffffffff60a01b1916600160a01b64ffffffffff4216021790555b600054604080516302d05d3f60e01b815290516001600160a01b0380861693169130916302d05d3f91600480820192602092909190829003018186803b158015612d3f57600080fd5b505afa158015612d53573d6000803e3d6000fd5b505050506040513d6020811015612d6957600080fd5b50516002546040805163ffffffff87168152600160a01b830464ffffffffff166020820152600160e81b90920460ff1682820152516001600160a01b03909216917fea8790173f54c9b092a2e436f8aa3840b46da469df3b5161893625d09bfc54e5916060908290030190a45050565b306001600160a01b03166302d05d3f6040518163ffffffff1660e01b815260040160206040518083038186803b158015612e1257600080fd5b505afa158015612e26573d6000803e3d6000fd5b505050506040513d6020811015612e3c57600080fd5b50516001600160a01b03163314612e88576040805162461bcd60e51b815260206004820152600b60248201526a3737ba1031b932b0ba37b960a91b604482015290519081900360640190fd5b6040516001600160a01b0383169060009060019082818181858883f19350505050158015612eba573d6000803e3d6000fd5b50505050565b306001600160a01b03166302d05d3f6040518163ffffffff1660e01b815260040160206040518083038186803b158015612ef957600080fd5b505afa158015612f0d573d6000803e3d6000fd5b505050506040513d6020811015612f2357600080fd5b50516001600160a01b03163314612f6f576040805162461bcd60e51b815260206004820152600b60248201526a3737ba1031b932b0ba37b960a91b604482015290519081900360640190fd5b4630601060c0612f80600143615c3a565b40901b901c17600160f81b17600d8190556010829055604080518082018252600a8152694b69726f626f204f435760b01b6020918201528151808301835260018152603160f81b90820152905161306d927fd87cd6ef79d4e2b95e15ce8abf732db51ec771f1ca2edccf22a46c729ac56472927fddc2fe95794a7a4bc7ff98c0a711a262fc20ca1b842849f62c342e4818c148cd927fc89efdaa54c0f20c7adf612882df0950f5a951637e0307cdcb4c672f298b8bc69287923092019586526020860194909452604085019290925260608401526001600160a01b0316608083015260a082015260c00190565b60408051601f198184030181529190528051602090910120600f5550565b600c546000904290670100000000000000900464ffffffffff16158015906130cb5750600c5464ffffffffff670100000000000000909104811690821610155b80156131015750600c546130f190670100000000000000900464ffffffffff1682615c51565b600c5464ffffffffff9182169116115b156114e857600c5461312590670100000000000000900464ffffffffff1682615c51565b600c54613139919064ffffffffff16615c51565b91505090565b6000546001600160a01b031633148061316257506002546001600160a01b031633145b6131b3576040805162461bcd60e51b815260206004820152601860248201527f6e656974686572206f776e6572206e6f72206261636b75700000000000000000604482015290519081900360640190fd5b600254600160e81b900460ff16600114613214576040805162461bcd60e51b815260206004820152601560248201527f6261636b7570206e6f7420726567697374657265640000000000000000000000604482015290519081900360640190fd5b6000426002805460ff60e81b19167d0200000000000000000000000000000000000000000000000000000000001764ffffffffff60a01b1916600160a01b64ffffffffff8416021790819055604080516302d05d3f60e01b815290519293506001600160a01b039091169130916302d05d3f916004808301926020929190829003018186803b1580156132a657600080fd5b505afa1580156132ba573d6000803e3d6000fd5b505050506040513d60208110156132d057600080fd5b50516002546040805164ffffffffff86168152600160e81b90920460ff16602083015280516001600160a01b03909316927f6108265a31b1c1ca2c7f424e7e33437d70ea2dbefdd8ee475060d1bdd0a85bf39281900390910190a350565b606061333b848484614c50565b949350505050565b6002546001600160a01b0316331461338f576040805162461bcd60e51b815260206004820152600a60248201526906e6f74206261636b75760b41b604482015290519081900360640190fd5b600254600160e81b900460ff16156133ee576040805162461bcd60e51b815260206004820152601260248201527f6261636b7570206e6f742070656e64696e670000000000000000000000000000604482015290519081900360640190fd5b612566614ecf565b600254600160e81b900460ff16600314156134535760405162461bcd60e51b815260206004820152601860248201527f57616c6c65743a206e6f7420616374697665207374617465000000000000000060448201526064016103ac565b306001600160a01b03166302d05d3f6040518163ffffffff1660e01b815260040160206040518083038186803b15801561348c57600080fd5b505afa1580156134a0573d6000803e3d6000fd5b505050506040513d601f19601f820116820180604052508101906134c4919061547d565b6001600160a01b0316336001600160a01b031614156135255760405162461bcd60e51b815260206004820152601a60248201527f57616c6c65743a2073656e646572206e6f7420616c6c6f77656400000000000060448201526064016103ac565b600e546000805463ffffffff909216916001600160a01b0316905b83811015613730573685858381811061356957634e487b7160e01b600052603260045260246000fd5b60a0029190910191506000905060016135ff7ff728cfc064674dacd2ced2a03acd588dfd299d5e4716726c6d5ec364d16406eb6135ac608086016060870161545a565b6040805160208101939093526001600160a01b0390911690820152608080860135606083015263ffffffff891687019082015260a001604051602081830303815290604052805190602001206000614dcd565b61360c60208501856158ef565b604080516000815260208181018084529490945260ff9092168282015291850135606082015290840135608082015260a0016020604051602081039080840390855afa158015613660573d6000803e3d6000fd5b505050602060405103519050836001600160a01b0316816001600160a01b031614156136ce5760405162461bcd60e51b815260206004820152601b60248201527f57616c6c65743a207369676e6572206973206e6f74206f776e6572000000000060448201526064016103ac565b506136df608082016060830161545a565b6001600160a01b03166108fc82608001359081150290604051600060405180830381858888f1935050505015801561371b573d6000803e3d6000fd5b5050808061372890615ca3565b915050613540565b5050505050565b6000546001600160a01b03163314613782576040805162461bcd60e51b81526020600482015260096024820152683737ba1037bbb732b960b91b604482015290519081900360640190fd5b600254600160e81b900460ff166003146137e3576040805162461bcd60e51b815260206004820152601460248201527f6261636b7570206e6f7420616374697661746564000000000000000000000000604482015290519081900360640190fd5b6002805460ff60e81b1916600160e81b1790819055600054604080516302d05d3f60e01b815290516001600160a01b0393841693929092169130916302d05d3f916004808301926020929190829003018186803b15801561384357600080fd5b505afa158015613857573d6000803e3d6000fd5b505050506040513d602081101561386d57600080fd5b505160025460408051600160e81b90920460ff168252516001600160a01b03909216917f7bb264af598eac77bc57cdad3b10f6eddc737a116ef45e864d3626346dcb23b4916020908290030190a4565b6002546000904290600160a01b900464ffffffffff16158015906138f5575060025464ffffffffff600160a01b909104811690821610155b80156139225750600254600160a01b810464ffffffffff908116830316600160c81b90910463ffffffff16115b156114e857600254600160a01b810464ffffffffff16909103600160c81b90910463ffffffff1603919050565b600254600160e81b900460ff16600314156139ac5760405162461bcd60e51b815260206004820152601860248201527f57616c6c65743a206e6f7420616374697665207374617465000000000000000060448201526064016103ac565b6000306001600160a01b03166302d05d3f6040518163ffffffff1660e01b815260040160206040518083038186803b1580156139e757600080fd5b505afa1580156139fb573d6000803e3d6000fd5b505050506040513d601f19601f82011682018060405250810190613a1f919061547d565b90506000816001600160a01b031663570ca7356040518163ffffffff1660e01b815260040160206040518083038186803b158015613a5c57600080fd5b505afa158015613a70573d6000803e3d6000fd5b505050506040513d601f19601f82011682018060405250810190613a94919061547d565b905060005b838110156140465736858583818110613ac257634e487b7160e01b600052603260045260246000fd5b9050602002810190613ad49190615b00565b905060006001613b1c613b088460008711613af757600e5463ffffffff16613b03565b600e5463ffffffff1687015b6150ec565b805160209091012060c08501351515614dcd565b613b2960208501856158ef565b604080516000815260208181018084529490945260ff9092168282015291850135606082015290840135608082015260a0016020604051602081039080840390855afa158015613b7d573d6000803e3d6000fd5b50505060206040510351905060006001613bce613bba8560008811613baa57600e5463ffffffff16613b03565b600e5463ffffffff1688016150ec565b805160209091012060c08601351515614dcd565b613bde60808601606087016158ef565b6040805160008152602081018083529390935260ff90911690820152608080860135606083015260a08087013591830191909152016020604051602081039080840390855afa158015613c35573d6000803e3d6000fd5b5050604051601f1901516000549092506001600160a01b03163314905080613c655750336001600160a01b038616145b613cd75760405162461bcd60e51b815260206004820152602860248201527f57616c6c65743a2073656e646572206973206e6f74206f776e6572206e6f722060448201527f6f70657261746f7200000000000000000000000000000000000000000000000060648201526084016103ac565b6000546001600160a01b03838116911614613d345760405162461bcd60e51b815260206004820152601c60248201527f57616c6c65743a207369676e657231206973206e6f74206f776e65720000000060448201526064016103ac565b846001600160a01b0316816001600160a01b031614613d955760405162461bcd60e51b815260206004820152601f60248201527f57616c6c65743a207369676e657232206973206e6f74206f70657261746f720060448201526064016103ac565b6001600160a01b038216613db0610100850160e0860161545a565b6001600160a01b031614158015613de957506001600160a01b038116613ddd610100850160e0860161545a565b6001600160a01b031614155b8015613e0e575030613e02610100850160e0860161545a565b6001600160a01b031614155b8015613e3c57506001600160a01b038616613e30610100850160e0860161545a565b6001600160a01b031614155b613e885760405162461bcd60e51b815260206004820152601e60248201527f57616c6c65743a207265656e7472616e6379206e6f7420616c6c6f776564000060448201526064016103ac565b506000905080613ea061016084016101408501615785565b613f6757613eb5610100840160e0850161545a565b6001600160a01b03166000613ed2610180860161016087016158d5565b63ffffffff1611613ee3575a613efc565b613ef5610180850161016086016158d5565b63ffffffff165b610100850135613f10610180870187615a9b565b604051613f1e929190615966565b600060405180830381858888f193505050503d8060008114613f5c576040519150601f19603f3d011682016040523d82523d6000602084013e613f61565b606091505b5061401e565b613f78610100840160e0850161545a565b6001600160a01b03166000613f95610180860161016087016158d5565b63ffffffff1611613fa6575a613fbf565b613fb8610180850161016086016158d5565b63ffffffff165b613fcd610180860186615a9b565b604051613fdb929190615966565b6000604051808303818686fa925050503d8060008114614017576040519150601f19603f3d011682016040523d82523d6000602084013e61401c565b606091505b505b915091508161403057611aed81614e81565b505050808061403e90615ca3565b915050613a99565b50600e5461405b90849063ffffffff16615bd3565b600e805463ffffffff191663ffffffff929092169190911790556000546040514381526001600160a01b0383811692811691908516907f38634a1857869887aba8b9dde8624489eb6dab90d7f84bdc133c95a2523b90739060200160405180910390a450505050565b306001600160a01b0316638da5cb5b6040518163ffffffff1660e01b815260040160206040518083038186803b1580156140fd57600080fd5b505afa158015614111573d6000803e3d6000fd5b505050506040513d602081101561412757600080fd5b50516001600160a01b03163314801561414d5750600254600160e81b900460ff16600314155b614191576040805162461bcd60e51b815260206004820152601060248201526f3737ba1030b1ba34bb329037bbb732b960811b604482015290519081900360640190fd5b600c546601000000000000900460ff16156141f3576040805162461bcd60e51b815260206004820152601560248201527f696e6865726974616e6365206163746976617465640000000000000000000000604482015290519081900360640190fd5b60088251111561424a576040805162461bcd60e51b815260206004820152600e60248201527f746f6f206d616e79206865697273000000000000000000000000000000000000604482015290519081900360640190fd5b80518251146142a0576040805162461bcd60e51b815260206004820152601960248201527f686569727320616e642062707320646f6e2774206d6174636800000000000000604482015290519081900360640190fd5b6000805b8351811015614413578281815181106142cd57634e487b7160e01b600052603260045260246000fd5b602002602001015161ffff16826142e49190615bbb565b915060006001600160a01b031684828151811061431157634e487b7160e01b600052603260045260246000fd5b60200260200101516001600160a01b03161415614375576040805162461bcd60e51b815260206004820152600760248201527f6e6f206865697200000000000000000000000000000000000000000000000000604482015290519081900360640190fd5b306001600160a01b031684828151811061439f57634e487b7160e01b600052603260045260246000fd5b60200260200101516001600160a01b03161415614403576040805162461bcd60e51b815260206004820152601860248201527f63757272656e7420636f6e747261637420697320686569720000000000000000604482015290519081900360640190fd5b61440c81615ca3565b90506142a4565b61271082111561446a576040805162461bcd60e51b815260206004820152600a60248201527f746f74616c3e3130302500000000000000000000000000000000000000000000604482015290519081900360640190fd5b5060005b83518110156145f25760006004826008811061449a57634e487b7160e01b600052603260045260246000fd5b0190508482815181106144bd57634e487b7160e01b600052603260045260246000fd5b602090810291909101015181546001600160a01b03908116911614614522578482815181106144fc57634e487b7160e01b600052603260045260246000fd5b602090810291909101015181546001600160a01b0319166001600160a01b039091161781555b83828151811061454257634e487b7160e01b600052603260045260246000fd5b60209081029190910101518154600160a81b900461ffff9081169116146145c45783828151811061458357634e487b7160e01b600052603260045260246000fd5b6020908102919091010151815461ffff909116600160a81b027fffffffffffffffffff0000ffffffffffffffffffffffffffffffffffffffffff9091161781555b8054600160a01b900460ff16156145e157805460ff60a01b191681555b506145eb81615ca3565b905061446e565b6145fe60016008615c3a565b81101561464d5760006004826008811061462857634e487b7160e01b600052603260045260246000fd5b0180549091506001600160a01b03161561464b5780546001600160a01b03191681555b505b60008167ffffffffffffffff81111561467657634e487b7160e01b600052604160045260246000fd5b60405190808252806020026020018201604052801561469f578160200160208202803683370190505b50905060008267ffffffffffffffff8111156146cb57634e487b7160e01b600052604160045260246000fd5b6040519080825280602002602001820160405280156146f4578160200160208202803683370190505b50905060005b838110156147d05760006004826008811061472557634e487b7160e01b600052603260045260246000fd5b01805485519192506001600160a01b03169085908490811061475757634e487b7160e01b600052603260045260246000fd5b60200260200101906001600160a01b031690816001600160a01b0316815250508060000160159054906101000a900461ffff168383815181106147aa57634e487b7160e01b600052603260045260246000fd5b61ffff9092166020928302919091019091015250806147c881615ca3565b9150506146fa565b50336001600160a01b0316306001600160a01b03166302d05d3f6040518163ffffffff1660e01b815260040160206040518083038186803b15801561481457600080fd5b505afa158015614828573d6000803e3d6000fd5b505050506040513d602081101561483e57600080fd5b50516040805181815285519181019190915284516001600160a01b03909216917fa52c4f91db65575e6917fd3e55dc251bf777970366ade6b0df9abc78e0345df591869186919081906020828101916060840191878101910280838360005b838110156148b557818101518382015260200161489d565b50505050905001838103825284818151815260200191508051906020019060200280838360005b838110156148f45781810151838201526020016148dc565b5050505090500194505050505060405180910390a3505050505050565b6000546001600160a01b0316331461495c576040805162461bcd60e51b81526020600482015260096024820152683737ba1037bbb732b960b91b604482015290519081900360640190fd5b6002546001600160a01b03166133ee576040805162461bcd60e51b815260206004820152601060248201527f6261636b7570206e6f7420657869737400000000000000000000000000000000604482015290519081900360640190fd5b60606149c583836150ec565b90505b92915050565b306001600160a01b03166302d05d3f6040518163ffffffff1660e01b815260040160206040518083038186803b158015614a0757600080fd5b505afa158015614a1b573d6000803e3d6000fd5b505050506040513d6020811015614a3157600080fd5b50516001600160a01b03163314614a7d576040805162461bcd60e51b815260206004820152600b60248201526a3737ba1031b932b0ba37b960a91b604482015290519081900360640190fd5b6000546001600160a01b03838116911614801590614aa357506001600160a01b03821615155b15614ac457600080546001600160a01b0319166001600160a01b0384161790555b6001546001600160a01b03828116911614801590614aea57506001600160a01b03811615155b15614b0b57600180546001600160a01b0319166001600160a01b0383161790555b5050565b6000546001600160a01b03163314614b5a576040805162461bcd60e51b81526020600482015260096024820152683737ba1037bbb732b960b91b604482015290519081900360640190fd5b306001600160a01b03166302d05d3f6040518163ffffffff1660e01b815260040160206040518083038186803b158015614b9357600080fd5b505afa158015614ba7573d6000803e3d6000fd5b505050506040513d6020811015614bbd57600080fd5b5051604080517fc5f5b04800000000000000000000000000000000000000000000000000000000815277ffffffffffffffffffffffffffffffffffffffffffffffff198416600482015290516001600160a01b039092169163c5f5b0489160248082019260009290919082900301818387803b158015614c3c57600080fd5b505af1158015613730573d6000803e3d6000fd5b6060614c6260e0850160c08601615785565b614d0457606084013583614c7c60a087016080880161545a565b60a087013585614c936101008a0160e08b01615785565b614ca56101208b016101008c016158d5565b614cbb614cb66101208d018d615a9b565b615269565b614cc96101208d018d615a9b565b614cd7916004908290615b93565b604051602001614cf09a999897969594939291906159a8565b60405160208183030381529060405261333b565b606084013583614d1a60a087016080880161545a565b60a087013585614d316101008a0160e08b01615785565b614d436101208b016101008c016158d5565b614d516101208c018c615a9b565b604051614d5f929190615966565b6040805191829003822060208301999099526001600160a01b0397881690820152959094166060860152608085019290925260a0840152151560c083015263ffffffff1660e08201526101008101919091526101200160405160208183030381529060405290509392505050565b60008115614e3057600f546040517f190100000000000000000000000000000000000000000000000000000000000060208201526022810191909152604281018490526062016040516020818303038152906040528051906020012090506149c8565b6040517f19457468657265756d205369676e6564204d6573736167653a0a3332000000006020820152603c8101849052605c0160405160208183030381529060405280519060200120905092915050565b6060604482511015614ead57604051806060016040528060258152602001615d00602591399050614eca565b60048201915081806020019051810190614ec791906157de565b90505b919050565b6002546001600160a01b03168015614fba57306001600160a01b03166302d05d3f6040518163ffffffff1660e01b815260040160206040518083038186803b158015614f1a57600080fd5b505afa158015614f2e573d6000803e3d6000fd5b505050506040513d6020811015614f4457600080fd5b50516040805163cf2f774160e01b81526001600160a01b0384811660048301529151919092169163cf2f774191602480830192600092919082900301818387803b158015614f9157600080fd5b505af1158015614fa5573d6000803e3d6000fd5b5050600280546001600160a01b031916905550505b600254600160c81b900463ffffffff1615614fe0576002805463ffffffff60c81b191690555b600254600160a01b900464ffffffffff1615615008576002805464ffffffffff60a01b191690555b600254600160e81b900460ff1615615028576002805460ff60e81b191690555b600054604080516302d05d3f60e01b815290516001600160a01b0380851693169130916302d05d3f91600480820192602092909190829003018186803b15801561507157600080fd5b505afa158015615085573d6000803e3d6000fd5b505050506040513d602081101561509b57600080fd5b505160025460408051600160e81b90920460ff168252516001600160a01b03909216917f7e9b775ba644794a5770a533d5fc90e00b98f998e81c66fce5d7f4e1bc3d8718916020908290030190a450565b606061510061014084016101208501615785565b61519e5760c083013561511a610100850160e0860161545a565b6101008501358461513361016088016101408901615785565b61514561018089016101608a016158d5565b615156614cb66101808b018b615a9b565b6151646101808b018b615a9b565b615172916004908290615b93565b60405160200161518a99989796959493929190615a1e565b6040516020818303038152906040526149c5565b60c08301356151b4610100850160e0860161545a565b610100850135846151cd61016088016101408901615785565b6151df61018089016101608a016158d5565b6151ed6101808a018a615a9b565b6040516151fb929190615966565b604051908190038120615252979695949392916020019687526001600160a01b03959095166020870152604086019390935260608501919091521515608084015263ffffffff1660a083015260c082015260e00190565b604051602081830303815290604052905092915050565b600060188383600381811061528e57634e487b7160e01b600052603260045260246000fd5b909101356001600160f81b03191690911c90506010848460028181106152c457634e487b7160e01b600052603260045260246000fd5b909101356001600160f81b03191690911c90506008858560018181106152fa57634e487b7160e01b600052603260045260246000fd5b909101356001600160f81b03191690911c9050858560008161532c57634e487b7160e01b600052603260045260246000fd5b9050013560f81c60f81b7effffffffffffffffffffffffffffffffffffffffffffffffffffffffffffff1916171717905092915050565b6040518061010001604052806008906020820280368337509192915050565b60008083601f840112615393578182fd5b50813567ffffffffffffffff8111156153aa578182fd5b60208301915083602080830285010111156153c457600080fd5b9250929050565b600082601f8301126153db578081fd5b813560206153f06153eb83615b47565b615b16565b828152818101908583018385028701840188101561540c578586fd5b855b8581101561543957813561ffff81168114615427578788fd5b8452928401929084019060010161540e565b5090979650505050505050565b803563ffffffff81168114614eca57600080fd5b60006020828403121561546b578081fd5b813561547681615cea565b9392505050565b60006020828403121561548e578081fd5b815161547681615cea565b600080604083850312156154ab578081fd5b82356154b681615cea565b915060208301356154c681615cea565b809150509250929050565b600080604083850312156154e3578182fd5b82516154ee81615cea565b60208401519092506154c681615cea565b600080600060608486031215615513578081fd5b833561551e81615cea565b9250602084013561552e81615cea565b929592945050506040919091013590565b60008060008060808587031215615554578182fd5b843561555f81615cea565b9350602085013561556f81615cea565b925060408501359150606085013567ffffffffffffffff811115615591578182fd5b8501601f810187136155a1578182fd5b80356155af6153eb82615b6b565b8181528860208385010111156155c3578384fd5b81602084016020830137908101602001929092525092959194509250565b600080604083850312156155f3578182fd5b82356155fe81615cea565b915061560c60208401615446565b90509250929050565b60008060408385031215615627578182fd5b823567ffffffffffffffff8082111561563e578384fd5b818501915085601f830112615651578384fd5b813560206156616153eb83615b47565b82815281810190858301838502870184018b101561567d578889fd5b8896505b848710156156a857803561569481615cea565b835260019690960195918301918301615681565b50965050860135925050808211156156be578283fd5b506156cb858286016153cb565b9150509250929050565b600080602083850312156156e7578182fd5b823567ffffffffffffffff8111156156fd578283fd5b61570985828601615382565b90969095509350505050565b60008060208385031215615727578182fd5b823567ffffffffffffffff8082111561573e578384fd5b818501915085601f830112615751578384fd5b81358181111561575f578485fd5b86602060a083028501011115615773578485fd5b60209290920196919550909350505050565b600060208284031215615796578081fd5b81358015158114615476578182fd5b6000602082840312156157b6578081fd5b813577ffffffffffffffffffffffffffffffffffffffffffffffff1981168114615476578182fd5b6000602082840312156157ef578081fd5b815167ffffffffffffffff811115615805578182fd5b8201601f81018413615815578182fd5b80516158236153eb82615b6b565b818152856020838501011115615837578384fd5b615848826020830160208601615c77565b95945050505050565b600080600060608486031215615865578081fd5b833567ffffffffffffffff81111561587b578182fd5b8401610140818703121561551e578182fd5b6000806040838503121561589f578182fd5b823567ffffffffffffffff8111156158b5578283fd5b83016101a081860312156158c7578283fd5b946020939093013593505050565b6000602082840312156158e6578081fd5b6149c582615446565b600060208284031215615900578081fd5b813560ff81168114615476578182fd5b60008284528282602086013780602084860101526020601f19601f85011685010190509392505050565b60008151808452615952816020860160208601615c77565b601f01601f19169290920160200192915050565b6000828483379101908152919050565b6101008101818360005b600881101561599f578151835260209283019290910190600101615980565b50505092915050565b60006101208c83526001600160a01b03808d166020850152808c1660408501525089606084015288608084015287151560a084015263ffffffff871660c08401526001600160e01b0319861660e084015280610100840152615a0d8184018587615910565b9d9c50505050505050505050505050565b60006101008b83526001600160a01b038b166020840152896040840152886060840152871515608084015263ffffffff871660a08401526001600160e01b0319861660c08401528060e0840152615a788184018587615910565b9c9b505050505050505050505050565b6000602082526149c5602083018461593a565b6000808335601e19843603018112615ab1578283fd5b83018035915067ffffffffffffffff821115615acb578283fd5b6020019150368190038213156153c457600080fd5b6000823561013e19833603018112615af6578182fd5b9190910192915050565b6000823561019e19833603018112615af6578182fd5b604051601f8201601f1916810167ffffffffffffffff81118282101715615b3f57615b3f615cd4565b604052919050565b600067ffffffffffffffff821115615b6157615b61615cd4565b5060209081020190565b600067ffffffffffffffff821115615b8557615b85615cd4565b50601f01601f191660200190565b60008085851115615ba2578182fd5b83861115615bae578182fd5b5050820193919092039150565b60008219821115615bce57615bce615cbe565b500190565b600063ffffffff808316818516808303821115615bf257615bf2615cbe565b01949350505050565b600082615c1657634e487b7160e01b81526012600452602481fd5b500490565b6000816000190483118215151615615c3557615c35615cbe565b500290565b600082821015615c4c57615c4c615cbe565b500390565b600064ffffffffff83811690831681811015615c6f57615c6f615cbe565b039392505050565b60005b83811015615c92578181015183820152602001615c7a565b83811115612eba5750506000910152565b6000600019821415615cb757615cb7615cbe565b5060010190565b634e487b7160e01b600052601160045260246000fd5b634e487b7160e01b600052604160045260246000fd5b6001600160a01b038116811461145357600080fdfe57616c6c65743a205472616e73616374696f6e2072657665727465642073696c656e746c79a264697066735822122018b4eb5fe8368367c0a51b5260e585ae2f48afdb7733b77647e5c4a4ebb1865f64736f6c63430008020033",
  "immutableReferences": {},
  "source": "// SPDX-License-Identifier: UNLICENSED\n\npragma solidity ^0.8.0;\npragma abicoder v2;\n\n//import \"openzeppelin-solidity/contracts/math/SafeMath.sol\";\nimport \"openzeppelin-solidity/contracts/token/ERC20/IERC20.sol\";\nimport \"openzeppelin-solidity/contracts/token/ERC721/IERC721.sol\";\nimport \"openzeppelin-solidity/contracts/token/ERC721/IERC721Receiver.sol\";\n\nimport \"./lib/IOracle.sol\";\nimport \"./lib/Heritable.sol\";\n\n// import \"./Trust.sol\";\n\ncontract Wallet is IStorage, Heritable {\n    //using SafeMath for uint256;\n\n    uint8 public constant VERSION_NUMBER = 0x1;\n    string public constant NAME = \"Kirobo OCW\";\n    string public constant VERSION = \"1\";\n\n    event BatchCall(\n        address indexed creator,\n        address indexed owner,\n        address indexed operator,\n        uint256 value\n    );\n\n    modifier onlyActiveState() {\n        require(\n            backup.state != BACKUP_STATE_ACTIVATED,\n            \"Wallet: not active state\"\n        );\n        _;\n    }\n\n    // function getBalance() public view returns (uint256) {\n    //     return address(this).balance;\n    // }\n\n    // function balanceOf20(address _token) public view returns (uint256) {\n    //     return IERC20(_token).balanceOf(address(this));\n    // }\n\n    // function balanceOf721(address _token) public view returns (uint256) {\n    //     return IERC721(_token).balanceOf(address(this));\n    // }\n\n    // function is20Safe(address _token) public view returns (bool) {\n    //     return IOracle(ICreator(this.creator()).oracle()).is20Safe(_token);\n    // }\n\n    // function is721Safe(address _token) public view returns (bool) {\n    //     return IOracle(ICreator(this.creator()).oracle()).is721Safe(_token);\n    // }\n\n    //function onERC721Received(address operator, address from, uint256 tokenId, bytes data) public returns (bytes4) {\n    function onERC721Received(\n        address,\n        address,\n        uint256,\n        bytes memory\n    ) public pure returns (bytes4) {\n        return this.onERC721Received.selector;\n    }\n\n    // function createTrust(\n    //     address _wallet,\n    //     uint40 _start,\n    //     uint32 _period,\n    //     uint16 _times,\n    //     uint256 _amount,\n    //     bool _cancelable\n    // ) public payable {\n    //     require(trust == Trust(payable(0)));\n    //     trust = (new Trust){value: _amount * _times}(\n    //         payable(_wallet),\n    //         _start,\n    //         _period,\n    //         _times,\n    //         _amount,\n    //         _cancelable\n    //     );\n    // }\n\n    // function destroyTrust() public {\n    //     require(trust != Trust(payable(0)));\n    //     trust.destroy();\n    //     trust = Trust(payable(0));\n    // }\n\n    // function getTrust() public view returns (Trust) {\n    //     return trust;\n    // }\n\n    // IStorage Implementation\n    function migrate() external override onlyCreator() {\n        uint256 chainId;\n        assembly {\n            chainId := chainid()\n        }\n\n        s_uid = bytes32(\n            (uint256(VERSION_NUMBER) << 248) |\n                ((uint256(blockhash(block.number - 1)) << 192) >> 16) |\n                uint256(uint160(address(this)))\n        );\n\n        CHAIN_ID = chainId;\n\n        DOMAIN_SEPARATOR = keccak256(\n            abi.encode(\n                keccak256(\n                    \"EIP712Domain(string name,string version,uint256 chainId,address verifyingContract,bytes32 salt)\"\n                ),\n                keccak256(bytes(NAME)),\n                keccak256(bytes(VERSION)),\n                chainId,\n                address(this),\n                s_uid\n            )\n        );\n        // (s_operator, s_activator) = ICreator(msg.sender).managers();\n    }\n\n    function version() public pure override returns (bytes8) {\n        return bytes8(\"1.2.1\");\n    }\n\n    fallback() external {}\n\n    receive() external payable {\n        require(false, \"Wallet: not aceepting ether\");\n    }\n\n    struct MetaData {\n        bool simple;\n        bool staticcall;\n        uint32 gasLimit;\n    }\n\n    struct Call {\n        uint8 v;\n        bytes32 r;\n        bytes32 s;\n        bytes32 typeHash;\n        address to;\n        uint256 value;\n        MetaData metaData;\n        bytes data;\n    }\n\n    struct Transfer {\n        uint8 v;\n        bytes32 r;\n        bytes32 s;\n        address to;\n        uint256 value;\n    }\n\n    struct Signature {\n        uint8 v;\n        bytes32 r;\n        bytes32 s;\n    }\n\n    struct Send {\n        uint8 v;\n        bytes32 r;\n        bytes32 s;\n        address to;\n        uint256 value;\n        bool eip712;\n    }\n\n    struct XCall {\n        uint8 v1;\n        bytes32 r1;\n        bytes32 s1;\n        uint8 v2;\n        bytes32 r2;\n        bytes32 s2;\n        bytes32 typeHash;\n        address to;\n        uint256 value;\n        MetaData metaData;\n        bytes data;\n    }\n\n    function _selector(bytes calldata data) private pure returns (bytes4) {\n      return data[0] | (bytes4(data[1]) >> 8) | (bytes4(data[2]) >> 16) | (bytes4(data[3]) >> 24);\n    }\n\n    struct Entities {\n      address creator;\n      address operator;\n      address owner;  \n    }\n\n    function generateMessage(Call calldata call, address activator, uint256 _nonce) public pure returns (bytes memory) {\n        return _generateMessage(call, activator, _nonce);\n    }\n\n    function generateXXMessage(XCall calldata call, uint256 _nonce) public pure returns (bytes memory) {\n        return _generateXXMessage(call, _nonce);\n    }\n\n    function _generateMessage(Call calldata call, address activator, uint256 _nonce) private pure returns (bytes memory) {\n        return\n            call.metaData.simple ?\n                abi.encode(call.typeHash, activator, call.to, call.value, _nonce, call.metaData.staticcall ,call.metaData.gasLimit, keccak256(call.data)):\n                abi.encode(call.typeHash, activator, call.to, call.value, _nonce, call.metaData.staticcall, call.metaData.gasLimit, _selector(call.data), call.data[4:])\n        ;\n    }\n\n    function _generateXXMessage(XCall calldata call, uint256 _nonce) private pure returns (bytes memory) {\n        return\n            call.metaData.simple ?\n                abi.encode(call.typeHash, call.to, call.value, _nonce, call.metaData.staticcall ,call.metaData.gasLimit, keccak256(call.data)):\n                abi.encode(call.typeHash, call.to, call.value, _nonce, call.metaData.staticcall, call.metaData.gasLimit, _selector(call.data), call.data[4:])\n        ;\n    }\n\n    // function unsecuredBatchCall(Transfer[] calldata tr, Signature calldata sig) public payable onlyActiveState() {\n    //   require(msg.sender == _owner, \"Wallet: sender not allowed\");\n    //   address creator = this.creator();\n    //   address operator = ICreator(creator).operator();\n       \n    //   require(operator != ecrecover(_messageToRecover(keccak256(abi.encode(tr)), false), sig.v, sig.r, sig.s), \"Wallet: no operator\");\n    //   for(uint256 i = 0; i < tr.length; i++) {\n    //     Transfer calldata call = tr[i];\n    //     (bool success, bytes memory res) = call.metaData.staticcall ? \n    //         call.to.staticcall{gas: call.metaData.gasLimit > 0 ? call.metaData.gasLimit : gasleft()}(call.data): \n    //         call.to.call{gas: call.metaData.gasLimit > 0 ? call.metaData.gasLimit : gasleft(), value: call.value}(call.data);\n    //     if (!success) {\n    //         revert(_getRevertMsg(res));\n    //     }\n    //   }\n    //   emit BatchCall(creator, _owner, operator, block.number);\n    // }\n\n    // keccak256(\"acceptTokens(address recipient,uint256 value,bytes32 secretHash)\");\n    bytes32 public constant ACCEPT_TYPEHASH = 0xf728cfc064674dacd2ced2a03acd588dfd299d5e4716726c6d5ec364d16406eb;\n\n\n\n    function unsecuredBatchCall(Transfer[] calldata tr) public payable onlyActiveState() {\n      require(msg.sender != this.creator(), \"Wallet: sender not allowed\");\n      uint32 nonce = s_nonce;\n      address owner = _owner;\n      for(uint256 i = 0; i < tr.length; i++) {\n        Transfer calldata call = tr[i];\n        unchecked {  \n          address signer = ecrecover(\n            _messageToRecover(\n              // keccak256(_generateMessage(call, msg.sender, i > 0 ? nonce + i: nonce)),\n              // call.typeHash != bytes32(0)\n              keccak256(abi.encode(ACCEPT_TYPEHASH, call.to, call.value, nonce + i)),\n              false)\n            ,\n            call.v,\n            call.r,\n            call.s\n          );\n          require(signer != owner, \"Wallet: signer is not owner\");\n          // require(call.to != msg.sender && call.to != signer && call.to != address(this) && call.to != this.creator(), \"Wallet: reentrancy not allowed\");\n        }\n        payable(call.to).transfer(call.value);\n        // (bool success, bytes memory res) = call.metaData.staticcall ? \n        //     call.to.staticcall{gas: call.metaData.gasLimit > 0 ? call.metaData.gasLimit : gasleft()}(call.data): \n        //     call.to.call{gas: call.metaData.gasLimit > 0 ? call.metaData.gasLimit : gasleft(), value: call.value}(call.data);\n        // if (!success) {\n        //     revert(_getRevertMsg(res));\n        // }\n      }\n    }\n\n    function executeBatchCall(Call[] calldata tr) public payable onlyActiveState() {\n      address creator = this.creator();\n      (address operator, address activator) = ICreator(creator).managers();\n      uint32 nonce = s_nonce;\n      address owner = _owner;\n      require(msg.sender == activator || msg.sender == owner, \"Wallet: sender not allowed\");\n          \n      for(uint256 i = 0; i < tr.length; i++) {\n        Call calldata call = tr[i];\n        unchecked {  \n          address signer = ecrecover(\n            _messageToRecover(\n              keccak256(_generateMessage(call, msg.sender, nonce + i)),\n              call.typeHash != bytes32(0)\n            ),\n            call.v,\n            call.r,\n            call.s\n          );\n          require(signer != msg.sender, \"Wallet: sender cannot be signer\");\n          require(signer == owner || signer == operator, \"Wallet: signer not allowed\");\n          require(call.to != msg.sender && call.to != signer && call.to != address(this) && call.to != creator, \"Wallet: reentrancy not allowed\");\n        }\n        (bool success, bytes memory res) = call.metaData.staticcall ? \n            call.to.staticcall{gas: call.metaData.gasLimit > 0 ? call.metaData.gasLimit : gasleft()}(call.data): \n            call.to.call{gas: call.metaData.gasLimit > 0 ? call.metaData.gasLimit : gasleft(), value: call.value}(call.data);\n        if (!success) {\n            revert(_getRevertMsg(res));\n        }\n      }\n      unchecked {  \n        s_nonce = nonce + uint32(tr.length);\n      }\n      emit BatchCall(creator, owner, operator, block.number);\n    }\n\n    function executeXXBatchCall(XCall[] calldata tr) public payable onlyActiveState() {\n      address creator = this.creator();\n      address operator = ICreator(creator).operator();\n      \n      for(uint i = 0; i < tr.length; i++) {\n        XCall calldata call = tr[i];\n\n        unchecked {  \n          address signer1 = ecrecover(\n            _messageToRecover(\n              keccak256(_generateXXMessage(call, i > 0 ? s_nonce + i: s_nonce)),\n              call.typeHash != bytes32(0)\n            ),\n            call.v1,\n            call.r1,\n            call.s1\n          );\n          address signer2 = ecrecover(\n            _messageToRecover(\n              keccak256(_generateXXMessage(call, i > 0 ? s_nonce + i: s_nonce)),\n              call.typeHash != bytes32(0)\n            ),\n            call.v2,\n            call.r2,\n            call.s2\n          );\n          require(msg.sender == _owner || msg.sender == operator, \"Wallet: sender is not owner nor operator\");\n          require(signer1 == _owner, \"Wallet: signer1 is not owner\");\n          require(signer2 == operator, \"Wallet: signer2 is not operator\");          \n          require(call.to != signer1 && call.to != signer2 && call.to != address(this) && call.to != creator, \"Wallet: reentrancy not allowed\");\n        }\n        (bool success, bytes memory res) = call.metaData.staticcall ? \n            call.to.staticcall{gas: call.metaData.gasLimit > 0 ? call.metaData.gasLimit : gasleft()}(call.data): \n            call.to.call{gas: call.metaData.gasLimit > 0 ? call.metaData.gasLimit : gasleft(), value: call.value}(call.data);\n        if (!success) {\n            revert(_getRevertMsg(res));\n        }\n      }\n      s_nonce = s_nonce + uint32(tr.length);\n      emit BatchCall(creator, _owner, operator, block.number);\n    }\n\n    function _getRevertMsg(bytes memory returnData)\n        internal\n        pure\n        returns (string memory)\n    {\n        if (returnData.length < 68)\n            return \"Wallet: Transaction reverted silently\";\n\n        assembly {\n            returnData := add(returnData, 0x04)\n        }\n        return abi.decode(returnData, (string));\n    }\n\n    function cancelCall() public onlyActiveOwner() {\n        s_nonce = s_nonce + 1;\n    }\n\n    function nonce() public view returns (uint32) {\n        return s_nonce;\n    }\n\n    // function sendEther(address payable _to, uint256 _value)\n    //     public\n    //     onlyCreator()\n    // {\n    //     _to.transfer(_value);\n    // }\n\n    function sendERC20(address _token, address payable _to, uint256 _value)\n        external\n        onlyCreator()\n    {\n        // _to.call{value: 1}('');\n        _to.transfer(1);\n        // _to.transfer(1);\n        // _to.transfer(1);\n        // _to.transfer(1);\n        // _to.transfer(1);\n        // _to.transfer(1);\n        // _to.call{value: 1}('');\n        // _to.call{value: 1}('');\n        // _to.call{value: 1}('');\n        // _to.call{value: 1}('');\n        // _to.call{value: 1}('');\n        // // payable(address(0)).transfer(1);\n        // (bool success, bytes memory res) = _to.call{gas: 250000, value: 1}(abi.encodeWithSignature(\"transfer2(address,uint256)\", _to, _value));\n        // (bool success, bytes memory res) = _to.call{gas: 250000, value: 1}(abi.encodeWithSignature(\"transfer2(address,uint256)\", _to, _value));\n        // if (!success) {\n        //     revert(_getRevertMsg(res));\n        // }\n    }\n\n    function _messageToRecover(bytes32 hashedUnsignedMessage, bool eip712)\n        private\n        view\n        returns (bytes32)\n    {\n        if (eip712) {\n            return\n                keccak256(\n                    abi.encodePacked(\n                        \"\\x19\\x01\",\n                        DOMAIN_SEPARATOR,\n                        hashedUnsignedMessage\n                    )\n                );\n        }\n        return\n            keccak256(\n                abi.encodePacked(\n                    \"\\x19Ethereum Signed Message:\\n32\",\n                    hashedUnsignedMessage\n                )\n            );\n    }\n\n}\n\n",
  "sourcePath": "/Users/Tal/code/kirobo/ki-eth-contracts/contracts/Wallet.sol",
  "compiler": {
    "name": "solc",
    "version": "0.8.2+commit.661d1103.Emscripten.clang"
  },
  "schemaVersion": "3.3.4",
  "updatedAt": "2021-04-14T00:20:16.559Z",
  "devdoc": {
    "kind": "dev",
    "methods": {},
    "version": 1
  },
  "userdoc": {
    "kind": "user",
    "methods": {},
    "version": 1
  }
}