{
  "contractName": "Wallet",
  "abi": [
    {
      "anonymous": false,
      "inputs": [
        {
          "indexed": true,
          "internalType": "address",
          "name": "creator",
          "type": "address"
        },
        {
          "indexed": true,
          "internalType": "address",
          "name": "wallet",
          "type": "address"
        },
        {
          "indexed": true,
          "internalType": "address",
          "name": "activator",
          "type": "address"
        },
        {
          "indexed": false,
          "internalType": "uint8",
          "name": "state",
          "type": "uint8"
        }
      ],
      "name": "BackupActivated",
      "type": "event"
    },
    {
      "anonymous": false,
      "inputs": [
        {
          "indexed": true,
          "internalType": "address",
          "name": "creator",
          "type": "address"
        },
        {
          "indexed": true,
          "internalType": "address",
          "name": "owner",
          "type": "address"
        },
        {
          "indexed": true,
          "internalType": "address",
          "name": "wallet",
          "type": "address"
        },
        {
          "indexed": false,
          "internalType": "uint32",
          "name": "timeout",
          "type": "uint32"
        },
        {
          "indexed": false,
          "internalType": "uint40",
          "name": "timestamp",
          "type": "uint40"
        },
        {
          "indexed": false,
          "internalType": "uint8",
          "name": "state",
          "type": "uint8"
        }
      ],
      "name": "BackupChanged",
      "type": "event"
    },
    {
      "anonymous": false,
      "inputs": [
        {
          "indexed": true,
          "internalType": "address",
          "name": "creator",
          "type": "address"
        },
        {
          "indexed": true,
          "internalType": "address",
          "name": "wallet",
          "type": "address"
        },
        {
          "indexed": false,
          "internalType": "uint40",
          "name": "timestamp",
          "type": "uint40"
        },
        {
          "indexed": false,
          "internalType": "uint8",
          "name": "state",
          "type": "uint8"
        }
      ],
      "name": "BackupEnabled",
      "type": "event"
    },
    {
      "anonymous": false,
      "inputs": [
        {
          "indexed": true,
          "internalType": "address",
          "name": "creator",
          "type": "address"
        },
        {
          "indexed": true,
          "internalType": "address",
          "name": "payee",
          "type": "address"
        },
        {
          "indexed": false,
          "internalType": "uint256",
          "name": "amount",
          "type": "uint256"
        },
        {
          "indexed": false,
          "internalType": "bool",
          "name": "reward",
          "type": "bool"
        }
      ],
      "name": "BackupPayment",
      "type": "event"
    },
    {
      "anonymous": false,
      "inputs": [
        {
          "indexed": true,
          "internalType": "address",
          "name": "creator",
          "type": "address"
        },
        {
          "indexed": true,
          "internalType": "address",
          "name": "wallet",
          "type": "address"
        },
        {
          "indexed": false,
          "internalType": "uint8",
          "name": "state",
          "type": "uint8"
        }
      ],
      "name": "BackupRegistered",
      "type": "event"
    },
    {
      "anonymous": false,
      "inputs": [
        {
          "indexed": true,
          "internalType": "address",
          "name": "creator",
          "type": "address"
        },
        {
          "indexed": true,
          "internalType": "address",
          "name": "owner",
          "type": "address"
        },
        {
          "indexed": true,
          "internalType": "address",
          "name": "wallet",
          "type": "address"
        },
        {
          "indexed": false,
          "internalType": "uint8",
          "name": "state",
          "type": "uint8"
        }
      ],
      "name": "BackupRemoved",
      "type": "event"
    },
    {
      "anonymous": false,
      "inputs": [
        {
          "indexed": true,
          "internalType": "address",
          "name": "creator",
          "type": "address"
        },
        {
          "indexed": true,
          "internalType": "address",
          "name": "owner",
          "type": "address"
        },
        {
          "indexed": true,
          "internalType": "address",
          "name": "operator",
          "type": "address"
        },
        {
          "indexed": false,
          "internalType": "uint256",
          "name": "value",
          "type": "uint256"
        }
      ],
      "name": "BatchCall",
      "type": "event"
    },
    {
      "anonymous": false,
      "inputs": [
        {
          "indexed": true,
          "internalType": "address",
          "name": "creator",
          "type": "address"
        },
        {
          "indexed": true,
          "internalType": "address",
          "name": "activator",
          "type": "address"
        },
        {
          "indexed": false,
          "internalType": "address[]",
          "name": "wallets",
          "type": "address[]"
        }
      ],
      "name": "InheritanceActivated",
      "type": "event"
    },
    {
      "anonymous": false,
      "inputs": [
        {
          "indexed": true,
          "internalType": "address",
          "name": "creator",
          "type": "address"
        },
        {
          "indexed": true,
          "internalType": "address",
          "name": "owner",
          "type": "address"
        },
        {
          "indexed": false,
          "internalType": "uint40",
          "name": "timeout",
          "type": "uint40"
        },
        {
          "indexed": false,
          "internalType": "uint40",
          "name": "timestamp",
          "type": "uint40"
        }
      ],
      "name": "InheritanceChanged",
      "type": "event"
    },
    {
      "anonymous": false,
      "inputs": [
        {
          "indexed": true,
          "internalType": "address",
          "name": "creator",
          "type": "address"
        },
        {
          "indexed": true,
          "internalType": "address",
          "name": "owner",
          "type": "address"
        },
        {
          "indexed": false,
          "internalType": "address[]",
          "name": "wallets",
          "type": "address[]"
        },
        {
          "indexed": false,
          "internalType": "uint16[]",
          "name": "bps",
          "type": "uint16[]"
        }
      ],
      "name": "InheritanceHeirsChanged",
      "type": "event"
    },
    {
      "anonymous": false,
      "inputs": [
        {
          "indexed": true,
          "internalType": "address",
          "name": "creator",
          "type": "address"
        },
        {
          "indexed": true,
          "internalType": "address",
          "name": "payee",
          "type": "address"
        },
        {
          "indexed": false,
          "internalType": "uint256",
          "name": "amount",
          "type": "uint256"
        },
        {
          "indexed": false,
          "internalType": "bool",
          "name": "reward",
          "type": "bool"
        }
      ],
      "name": "InheritancePayment",
      "type": "event"
    },
    {
      "anonymous": false,
      "inputs": [
        {
          "indexed": true,
          "internalType": "address",
          "name": "creator",
          "type": "address"
        },
        {
          "indexed": true,
          "internalType": "address",
          "name": "owner",
          "type": "address"
        }
      ],
      "name": "InheritanceRemoved",
      "type": "event"
    },
    {
      "anonymous": false,
      "inputs": [
        {
          "indexed": true,
          "internalType": "address",
          "name": "creator",
          "type": "address"
        },
        {
          "indexed": true,
          "internalType": "address",
          "name": "owner",
          "type": "address"
        },
        {
          "indexed": true,
          "internalType": "address",
          "name": "pendingOwner",
          "type": "address"
        },
        {
          "indexed": false,
          "internalType": "uint8",
          "name": "state",
          "type": "uint8"
        }
      ],
      "name": "OwnershipReclaimed",
      "type": "event"
    },
    {
      "anonymous": false,
      "inputs": [
        {
          "indexed": true,
          "internalType": "address",
          "name": "creator",
          "type": "address"
        },
        {
          "indexed": true,
          "internalType": "address",
          "name": "previousOwner",
          "type": "address"
        },
        {
          "indexed": true,
          "internalType": "address",
          "name": "newOwner",
          "type": "address"
        },
        {
          "indexed": false,
          "internalType": "uint8",
          "name": "state",
          "type": "uint8"
        }
      ],
      "name": "OwnershipTransferred",
      "type": "event"
    },
    {
      "stateMutability": "nonpayable",
      "type": "fallback"
    },
    {
      "inputs": [],
      "name": "ACCEPT_TYPEHASH",
      "outputs": [
        {
          "internalType": "bytes32",
          "name": "",
          "type": "bytes32"
        }
      ],
      "stateMutability": "view",
      "type": "function"
    },
    {
      "inputs": [],
      "name": "BACKUP_STATE_ACTIVATED",
      "outputs": [
        {
          "internalType": "uint8",
          "name": "",
          "type": "uint8"
        }
      ],
      "stateMutability": "view",
      "type": "function"
    },
    {
      "inputs": [],
      "name": "BACKUP_STATE_ENABLED",
      "outputs": [
        {
          "internalType": "uint8",
          "name": "",
          "type": "uint8"
        }
      ],
      "stateMutability": "view",
      "type": "function"
    },
    {
      "inputs": [],
      "name": "BACKUP_STATE_PENDING",
      "outputs": [
        {
          "internalType": "uint8",
          "name": "",
          "type": "uint8"
        }
      ],
      "stateMutability": "view",
      "type": "function"
    },
    {
      "inputs": [],
      "name": "BACKUP_STATE_REGISTERED",
      "outputs": [
        {
          "internalType": "uint8",
          "name": "",
          "type": "uint8"
        }
      ],
      "stateMutability": "view",
      "type": "function"
    },
    {
      "inputs": [],
      "name": "CHAIN_ID",
      "outputs": [
        {
          "internalType": "uint256",
          "name": "",
          "type": "uint256"
        }
      ],
      "stateMutability": "view",
      "type": "function"
    },
    {
      "inputs": [],
      "name": "DOMAIN_SEPARATOR",
      "outputs": [
        {
          "internalType": "bytes32",
          "name": "",
          "type": "bytes32"
        }
      ],
      "stateMutability": "view",
      "type": "function"
    },
    {
      "inputs": [],
      "name": "NAME",
      "outputs": [
        {
          "internalType": "string",
          "name": "",
          "type": "string"
        }
      ],
      "stateMutability": "view",
      "type": "function"
    },
    {
      "inputs": [],
      "name": "VERSION",
      "outputs": [
        {
          "internalType": "string",
          "name": "",
          "type": "string"
        }
      ],
      "stateMutability": "view",
      "type": "function"
    },
    {
      "inputs": [],
      "name": "VERSION_NUMBER",
      "outputs": [
        {
          "internalType": "uint8",
          "name": "",
          "type": "uint8"
        }
      ],
      "stateMutability": "view",
      "type": "function"
    },
    {
      "inputs": [],
      "name": "accept",
      "outputs": [],
      "stateMutability": "nonpayable",
      "type": "function"
    },
    {
      "inputs": [],
      "name": "activateBackup",
      "outputs": [],
      "stateMutability": "nonpayable",
      "type": "function"
    },
    {
      "inputs": [],
      "name": "activateInheritance",
      "outputs": [],
      "stateMutability": "nonpayable",
      "type": "function"
    },
    {
      "inputs": [],
      "name": "claimOwnership",
      "outputs": [],
      "stateMutability": "nonpayable",
      "type": "function"
    },
    {
      "inputs": [],
      "name": "clearInheritance",
      "outputs": [],
      "stateMutability": "nonpayable",
      "type": "function"
    },
    {
      "inputs": [],
      "name": "creator",
      "outputs": [
        {
          "internalType": "address",
          "name": "",
          "type": "address"
        }
      ],
      "stateMutability": "pure",
      "type": "function"
    },
    {
      "inputs": [],
      "name": "decline",
      "outputs": [],
      "stateMutability": "nonpayable",
      "type": "function"
    },
    {
      "inputs": [],
      "name": "enable",
      "outputs": [],
      "stateMutability": "nonpayable",
      "type": "function"
    },
    {
      "inputs": [],
      "name": "getBackupState",
      "outputs": [
        {
          "internalType": "uint8",
          "name": "",
          "type": "uint8"
        }
      ],
      "stateMutability": "view",
      "type": "function"
    },
    {
      "inputs": [],
      "name": "getBackupTimeLeft",
      "outputs": [
        {
          "internalType": "uint40",
          "name": "res",
          "type": "uint40"
        }
      ],
      "stateMutability": "view",
      "type": "function"
    },
    {
      "inputs": [],
      "name": "getBackupTimeout",
      "outputs": [
        {
          "internalType": "uint40",
          "name": "",
          "type": "uint40"
        }
      ],
      "stateMutability": "view",
      "type": "function"
    },
    {
      "inputs": [],
      "name": "getBackupTimestamp",
      "outputs": [
        {
          "internalType": "uint40",
          "name": "",
          "type": "uint40"
        }
      ],
      "stateMutability": "view",
      "type": "function"
    },
    {
      "inputs": [],
      "name": "getBackupWallet",
      "outputs": [
        {
          "internalType": "address",
          "name": "",
          "type": "address"
        }
      ],
      "stateMutability": "view",
      "type": "function"
    },
    {
      "inputs": [],
      "name": "getHeirs",
      "outputs": [
        {
          "internalType": "bytes32[8]",
          "name": "heirs",
          "type": "bytes32[8]"
        }
      ],
      "stateMutability": "view",
      "type": "function"
    },
    {
      "inputs": [],
      "name": "getInheritanceTimeLeft",
      "outputs": [
        {
          "internalType": "uint40",
          "name": "res",
          "type": "uint40"
        }
      ],
      "stateMutability": "view",
      "type": "function"
    },
    {
      "inputs": [],
      "name": "getInheritanceTimeout",
      "outputs": [
        {
          "internalType": "uint40",
          "name": "",
          "type": "uint40"
        }
      ],
      "stateMutability": "view",
      "type": "function"
    },
    {
      "inputs": [],
      "name": "getInheritanceTimestamp",
      "outputs": [
        {
          "internalType": "uint40",
          "name": "",
          "type": "uint40"
        }
      ],
      "stateMutability": "view",
      "type": "function"
    },
    {
      "inputs": [],
      "name": "getOwner",
      "outputs": [
        {
          "internalType": "address",
          "name": "",
          "type": "address"
        }
      ],
      "stateMutability": "view",
      "type": "function"
    },
    {
      "inputs": [],
      "name": "getTotalBPS",
      "outputs": [
        {
          "internalType": "uint256",
          "name": "total",
          "type": "uint256"
        }
      ],
      "stateMutability": "view",
      "type": "function"
    },
    {
      "inputs": [],
      "name": "getTotalTransfered",
      "outputs": [
        {
          "internalType": "uint256",
          "name": "total",
          "type": "uint256"
        }
      ],
      "stateMutability": "view",
      "type": "function"
    },
    {
      "inputs": [
        {
          "internalType": "address",
          "name": "newOwner",
          "type": "address"
        },
        {
          "internalType": "address",
          "name": "newTarget",
          "type": "address"
        }
      ],
      "name": "init",
      "outputs": [],
      "stateMutability": "nonpayable",
      "type": "function"
    },
    {
      "inputs": [],
      "name": "isBackup",
      "outputs": [
        {
          "internalType": "bool",
          "name": "",
          "type": "bool"
        }
      ],
      "stateMutability": "view",
      "type": "function"
    },
    {
      "inputs": [],
      "name": "isInheritanceActivated",
      "outputs": [
        {
          "internalType": "bool",
          "name": "",
          "type": "bool"
        }
      ],
      "stateMutability": "view",
      "type": "function"
    },
    {
      "inputs": [],
      "name": "isInheritanceEnabled",
      "outputs": [
        {
          "internalType": "bool",
          "name": "",
          "type": "bool"
        }
      ],
      "stateMutability": "view",
      "type": "function"
    },
    {
      "inputs": [],
      "name": "isOwner",
      "outputs": [
        {
          "internalType": "bool",
          "name": "",
          "type": "bool"
        }
      ],
      "stateMutability": "view",
      "type": "function"
    },
    {
      "inputs": [],
      "name": "owner",
      "outputs": [
        {
          "internalType": "address",
          "name": "",
          "type": "address"
        }
      ],
      "stateMutability": "view",
      "type": "function"
    },
    {
      "inputs": [],
      "name": "reclaimOwnership",
      "outputs": [],
      "stateMutability": "nonpayable",
      "type": "function"
    },
    {
      "inputs": [],
      "name": "removeBackup",
      "outputs": [],
      "stateMutability": "nonpayable",
      "type": "function"
    },
    {
      "inputs": [
        {
          "internalType": "address",
          "name": "wallet",
          "type": "address"
        },
        {
          "internalType": "uint32",
          "name": "timeout",
          "type": "uint32"
        }
      ],
      "name": "setBackup",
      "outputs": [],
      "stateMutability": "nonpayable",
      "type": "function"
    },
    {
      "inputs": [
        {
          "internalType": "address payable[]",
          "name": "wallets",
          "type": "address[]"
        },
        {
          "internalType": "uint16[]",
          "name": "bps",
          "type": "uint16[]"
        }
      ],
      "name": "setHeirs",
      "outputs": [],
      "stateMutability": "nonpayable",
      "type": "function"
    },
    {
      "inputs": [
        {
          "internalType": "uint32",
          "name": "timeout",
          "type": "uint32"
        }
      ],
      "name": "setInheritance",
      "outputs": [],
      "stateMutability": "nonpayable",
      "type": "function"
    },
    {
      "inputs": [],
      "name": "target",
      "outputs": [
        {
          "internalType": "address",
          "name": "",
          "type": "address"
        }
      ],
      "stateMutability": "view",
      "type": "function"
    },
    {
      "inputs": [],
      "name": "uid",
      "outputs": [
        {
          "internalType": "bytes32",
          "name": "",
          "type": "bytes32"
        }
      ],
      "stateMutability": "view",
      "type": "function"
    },
    {
      "inputs": [
        {
          "internalType": "bytes8",
          "name": "version",
          "type": "bytes8"
        }
      ],
      "name": "upgrade",
      "outputs": [],
      "stateMutability": "nonpayable",
      "type": "function"
    },
    {
      "stateMutability": "payable",
      "type": "receive"
    },
    {
      "inputs": [],
      "name": "getBalance",
      "outputs": [
        {
          "internalType": "uint256",
          "name": "",
          "type": "uint256"
        }
      ],
      "stateMutability": "view",
      "type": "function"
    },
    {
      "inputs": [
        {
          "internalType": "address",
          "name": "token",
          "type": "address"
        }
      ],
      "name": "balanceOf20",
      "outputs": [
        {
          "internalType": "uint256",
          "name": "",
          "type": "uint256"
        }
      ],
      "stateMutability": "view",
      "type": "function"
    },
    {
      "inputs": [
        {
          "internalType": "address",
          "name": "token",
          "type": "address"
        }
      ],
      "name": "balanceOf721",
      "outputs": [
        {
          "internalType": "uint256",
          "name": "",
          "type": "uint256"
        }
      ],
      "stateMutability": "view",
      "type": "function"
    },
    {
      "inputs": [
        {
          "internalType": "address",
          "name": "",
          "type": "address"
        },
        {
          "internalType": "address",
          "name": "",
          "type": "address"
        },
        {
          "internalType": "uint256",
          "name": "",
          "type": "uint256"
        },
        {
          "internalType": "bytes",
          "name": "",
          "type": "bytes"
        }
      ],
      "name": "onERC721Received",
      "outputs": [
        {
          "internalType": "bytes4",
          "name": "",
          "type": "bytes4"
        }
      ],
      "stateMutability": "pure",
      "type": "function"
    },
    {
      "inputs": [],
      "name": "migrate",
      "outputs": [],
      "stateMutability": "nonpayable",
      "type": "function"
    },
    {
      "inputs": [],
      "name": "version",
      "outputs": [
        {
          "internalType": "bytes8",
          "name": "",
          "type": "bytes8"
        }
      ],
      "stateMutability": "pure",
      "type": "function"
    },
    {
      "inputs": [
        {
          "internalType": "address",
          "name": "token",
          "type": "address"
        },
        {
          "internalType": "address",
          "name": "account",
          "type": "address"
        },
        {
          "internalType": "uint256",
          "name": "value",
          "type": "uint256"
        }
      ],
      "name": "erc20BalanceGT",
      "outputs": [],
      "stateMutability": "view",
      "type": "function"
    },
    {
      "inputs": [
        {
          "components": [
            {
              "internalType": "uint8",
              "name": "v",
              "type": "uint8"
            },
            {
              "internalType": "bytes32",
              "name": "r",
              "type": "bytes32"
            },
            {
              "internalType": "bytes32",
              "name": "s",
              "type": "bytes32"
            },
            {
              "internalType": "bytes32",
              "name": "typeHash",
              "type": "bytes32"
            },
            {
              "internalType": "address",
              "name": "to",
              "type": "address"
            },
            {
              "internalType": "uint256",
              "name": "value",
              "type": "uint256"
            },
            {
              "components": [
                {
                  "internalType": "bool",
                  "name": "simple",
                  "type": "bool"
                },
                {
                  "internalType": "bool",
                  "name": "staticcall",
                  "type": "bool"
                },
                {
                  "internalType": "uint32",
                  "name": "gasLimit",
                  "type": "uint32"
                }
              ],
              "internalType": "struct Wallet.MetaData",
              "name": "metaData",
              "type": "tuple"
            },
            {
              "internalType": "bytes",
              "name": "data",
              "type": "bytes"
            }
          ],
          "internalType": "struct Wallet.Call",
          "name": "call",
          "type": "tuple"
        },
        {
          "internalType": "address",
          "name": "activator",
          "type": "address"
        },
        {
          "internalType": "uint256",
          "name": "targetNonce",
          "type": "uint256"
        }
      ],
      "name": "generateMessage",
      "outputs": [
        {
          "internalType": "bytes",
          "name": "",
          "type": "bytes"
        }
      ],
      "stateMutability": "pure",
      "type": "function"
    },
    {
      "inputs": [
        {
          "components": [
            {
              "internalType": "uint8",
              "name": "v1",
              "type": "uint8"
            },
            {
              "internalType": "bytes32",
              "name": "r1",
              "type": "bytes32"
            },
            {
              "internalType": "bytes32",
              "name": "s1",
              "type": "bytes32"
            },
            {
              "internalType": "uint8",
              "name": "v2",
              "type": "uint8"
            },
            {
              "internalType": "bytes32",
              "name": "r2",
              "type": "bytes32"
            },
            {
              "internalType": "bytes32",
              "name": "s2",
              "type": "bytes32"
            },
            {
              "internalType": "bytes32",
              "name": "typeHash",
              "type": "bytes32"
            },
            {
              "internalType": "address",
              "name": "to",
              "type": "address"
            },
            {
              "internalType": "uint256",
              "name": "value",
              "type": "uint256"
            },
            {
              "components": [
                {
                  "internalType": "bool",
                  "name": "simple",
                  "type": "bool"
                },
                {
                  "internalType": "bool",
                  "name": "staticcall",
                  "type": "bool"
                },
                {
                  "internalType": "uint32",
                  "name": "gasLimit",
                  "type": "uint32"
                }
              ],
              "internalType": "struct Wallet.MetaData",
              "name": "metaData",
              "type": "tuple"
            },
            {
              "internalType": "bytes",
              "name": "data",
              "type": "bytes"
            }
          ],
          "internalType": "struct Wallet.XCall",
          "name": "call",
          "type": "tuple"
        },
        {
          "internalType": "uint256",
          "name": "targetNonce",
          "type": "uint256"
        }
      ],
      "name": "generateXXMessage",
      "outputs": [
        {
          "internalType": "bytes",
          "name": "",
          "type": "bytes"
        }
      ],
      "stateMutability": "pure",
      "type": "function"
    },
    {
      "inputs": [
        {
          "components": [
            {
              "internalType": "uint8",
              "name": "v",
              "type": "uint8"
            },
            {
              "internalType": "bytes32",
              "name": "r",
              "type": "bytes32"
            },
            {
              "internalType": "bytes32",
              "name": "s",
              "type": "bytes32"
            },
            {
              "internalType": "bytes32",
              "name": "typeHash",
              "type": "bytes32"
            },
            {
              "internalType": "address",
              "name": "to",
              "type": "address"
            },
            {
              "internalType": "uint256",
              "name": "value",
              "type": "uint256"
            },
            {
              "components": [
                {
                  "internalType": "bool",
                  "name": "simple",
                  "type": "bool"
                },
                {
                  "internalType": "bool",
                  "name": "staticcall",
                  "type": "bool"
                },
                {
                  "internalType": "uint32",
                  "name": "gasLimit",
                  "type": "uint32"
                }
              ],
              "internalType": "struct Wallet.MetaData",
              "name": "metaData",
              "type": "tuple"
            },
            {
              "internalType": "bytes",
              "name": "data",
              "type": "bytes"
            }
          ],
          "internalType": "struct Wallet.Call[]",
          "name": "tr",
          "type": "tuple[]"
        }
      ],
      "name": "executeBatchCall",
      "outputs": [],
      "stateMutability": "payable",
      "type": "function"
    },
    {
      "inputs": [
        {
          "components": [
            {
              "internalType": "uint8",
              "name": "v1",
              "type": "uint8"
            },
            {
              "internalType": "bytes32",
              "name": "r1",
              "type": "bytes32"
            },
            {
              "internalType": "bytes32",
              "name": "s1",
              "type": "bytes32"
            },
            {
              "internalType": "uint8",
              "name": "v2",
              "type": "uint8"
            },
            {
              "internalType": "bytes32",
              "name": "r2",
              "type": "bytes32"
            },
            {
              "internalType": "bytes32",
              "name": "s2",
              "type": "bytes32"
            },
            {
              "internalType": "bytes32",
              "name": "typeHash",
              "type": "bytes32"
            },
            {
              "internalType": "address",
              "name": "to",
              "type": "address"
            },
            {
              "internalType": "uint256",
              "name": "value",
              "type": "uint256"
            },
            {
              "components": [
                {
                  "internalType": "bool",
                  "name": "simple",
                  "type": "bool"
                },
                {
                  "internalType": "bool",
                  "name": "staticcall",
                  "type": "bool"
                },
                {
                  "internalType": "uint32",
                  "name": "gasLimit",
                  "type": "uint32"
                }
              ],
              "internalType": "struct Wallet.MetaData",
              "name": "metaData",
              "type": "tuple"
            },
            {
              "internalType": "bytes",
              "name": "data",
              "type": "bytes"
            }
          ],
          "internalType": "struct Wallet.XCall[]",
          "name": "tr",
          "type": "tuple[]"
        }
      ],
      "name": "executeXXBatchCall",
      "outputs": [],
      "stateMutability": "payable",
      "type": "function"
    },
    {
      "inputs": [],
      "name": "cancelCall",
      "outputs": [],
      "stateMutability": "nonpayable",
      "type": "function"
    },
    {
      "inputs": [],
      "name": "nonce",
      "outputs": [
        {
          "internalType": "uint32",
          "name": "",
          "type": "uint32"
        }
      ],
      "stateMutability": "view",
      "type": "function"
    },
    {
      "inputs": [
        {
          "internalType": "address",
          "name": "token",
          "type": "address"
        },
        {
          "internalType": "address payable",
          "name": "to",
          "type": "address"
        },
        {
          "internalType": "uint256",
          "name": "value",
          "type": "uint256"
        }
      ],
      "name": "transfer",
      "outputs": [],
      "stateMutability": "nonpayable",
      "type": "function"
    }
  ],
  "bytecode": "0x608060405234801561001057600080fd5b50600080546001600160a01b03191633179055615cb680620000336000396000f3fe6080604052600436106103845760003560e01c80638fd3ab80116101d1578063d4b8399211610102578063e961a203116100a0578063f99ff3e81161006f578063f99ff3e814610a46578063fdafd4eb14610a5b578063fec5a18d14610a83578063ffa1ad7414610aa3576103d8565b8063e961a203146109d1578063f09a4016146109f1578063f514ce3614610a11578063f808a30914610a26576103d8565b8063e1bc35ab116100dc578063e1bc35ab14610987578063e2e1d83b14610700578063e520d1041461099c578063e767e137146109bc576103d8565b8063d4b8399214610936578063d6d6705614610954578063dfed14b514610967576103d8565b8063af1fd6f81161016f578063c1c8277f11610149578063c1c8277f146108b1578063c572f15d146108c6578063cd7dbf4a146108db578063d2bc24d114610902576103d8565b8063af1fd6f814610850578063affed0e01461086c578063beabacc814610891576103d8565b8063a3907d71116101ab578063a3907d71146107c3578063a3f4df7e146107d8578063aab3291a1461081b578063ab0401071461083b576103d8565b80638fd3ab80146107755780639db652f41461078a5780639e091e87146107ae576103d8565b80633e95e62c116102b657806354fd4d501161025457806385e1f4d01161022357806385e1f4d014610720578063893d20e8146107365780638da5cb5b146107365780638f32d59b14610754576103d8565b806354fd4d50146106a55780637396f189146106e05780637db683ee146107005780638025e303146105cc576103d8565b806349629f081161029057806349629f08146106395780634e71e0c81461064e5780634eae51f41461066357806350ea229714610685576103d8565b80633e95e62c146105f3578063413d4f2314610608578063447046bf1461061b576103d8565b806323443944116103235780632e262542116102fd5780632e2625421461058c5780633644e515146105a157806336d62d40146105b75780633d562561146105cc576103d8565b8063234439441461054d5780632852b71c146105625780632a5dc72a14610577576103d8565b806312065fe01161035f57806312065fe014610483578063120e860c146104a0578063150b7a02146104b557806318f9c6901461052a576103d8565b806253d7b0146103e757806302d05d3f1461042a57806303c01e6814610452576103d8565b366103d85760405162461bcd60e51b815260206004820152601b60248201527f57616c6c65743a206e6f7420616365657074696e67206574686572000000000060448201526064015b60405180910390fd5b005b3480156103e457600080fd5b50005b3480156103f357600080fd5b5061040f600d54670100000000000000900464ffffffffff1690565b60405164ffffffffff90911681526020015b60405180910390f35b34801561043657600080fd5b5060005b6040516001600160a01b039091168152602001610421565b34801561045e57600080fd5b506104736003546001600160a01b0316331490565b6040519015158152602001610421565b34801561048f57600080fd5b50475b604051908152602001610421565b3480156104ac57600080fd5b506103d6610ad0565b3480156104c157600080fd5b506104f96104d03660046154a6565b7f150b7a0200000000000000000000000000000000000000000000000000000000949350505050565b6040517fffffffff000000000000000000000000000000000000000000000000000000009091168152602001610421565b34801561053657600080fd5b5061040f600354600160c81b900463ffffffff1690565b34801561055957600080fd5b506103d6610ff5565b34801561056e57600080fd5b506103d66110f1565b34801561058357600080fd5b50600454610492565b34801561059857600080fd5b506103d661126e565b3480156105ad57600080fd5b5061049260105481565b3480156105c357600080fd5b506104926114cd565b3480156105d857600080fd5b506105e1600181565b60405160ff9091168152602001610421565b3480156105ff57600080fd5b506105e1600381565b6103d661061636600461563c565b611563565b34801561062757600080fd5b506003546001600160a01b031661043a565b34801561064557600080fd5b506103d6611b7a565b34801561065a57600080fd5b506103d6612285565b34801561066f57600080fd5b5061067861255e565b60405161042191906158a8565b34801561069157600080fd5b506103d66106a03660046157eb565b61264b565b3480156106b157600080fd5b506040517f312e322e310000000000000000000000000000000000000000000000000000008152602001610421565b3480156106ec57600080fd5b506103d66106fb366004615548565b6128bd565b34801561070c57600080fd5b5061049261071b3660046153c1565b612dce565b34801561072c57600080fd5b5061049260115481565b34801561074257600080fd5b506000546001600160a01b031661043a565b34801561076057600080fd5b506104736000546001600160a01b0316331490565b34801561078157600080fd5b506103d6612e50565b34801561079657600080fd5b5061040f600354600160a01b900464ffffffffff1690565b3480156107ba57600080fd5b5061040f613037565b3480156107cf57600080fd5b506103d66130eb565b3480156107e457600080fd5b5061080e6040518060400160405280600a8152602001694b69726f626f204f435760b01b81525081565b60405161042191906159ea565b34801561082757600080fd5b5061080e61083636600461574f565b6132da565b34801561084757600080fd5b506103d66132ef565b34801561085c57600080fd5b50600d5464ffffffffff1661040f565b34801561087857600080fd5b50600f5460405163ffffffff9091168152602001610421565b34801561089d57600080fd5b506103d66108ac366004615466565b6133a2565b3480156108bd57600080fd5b506103d6613586565b3480156108d257600080fd5b5061040f61370b565b3480156108e757600080fd5b50610473600d5465010000000000900460ff16151560011490565b34801561090e57600080fd5b506104927ff728cfc064674dacd2ced2a03acd588dfd299d5e4716726c6d5ec364d16406eb81565b34801561094257600080fd5b506001546001600160a01b031661043a565b6103d661096236600461563c565b61379d565b34801561097357600080fd5b506103d6610982366004615466565b613f16565b34801561099357600080fd5b506105e1600281565b3480156109a857600080fd5b506103d66109b736600461557c565b613fe0565b3480156109c857600080fd5b506103d661482c565b3480156109dd57600080fd5b5061080e6109ec36600461578b565b6148d4565b3480156109fd57600080fd5b506103d6610a0c366004615400565b6148e9565b348015610a1d57600080fd5b50600e54610492565b348015610a3257600080fd5b506105e1600354600160e81b900460ff1690565b348015610a5257600080fd5b506105e1600081565b348015610a6757600080fd5b50610473600d546601000000000000900460ff16151560011490565b348015610a8f57600080fd5b506103d6610a9e36600461569c565b614a2f565b348015610aaf57600080fd5b5061080e604051806040016040528060018152602001603160f81b81525081565b600354600160e81b900460ff16600214610b31576040805162461bcd60e51b815260206004820152601260248201527f6261636b7570206e6f7420656e61626c65640000000000000000000000000000604482015290519081900360640190fd5b6003546001600160a01b0316610b8e576040805162461bcd60e51b815260206004820152601060248201527f6261636b7570206e6f7420657869737400000000000000000000000000000000604482015290519081900360640190fd5b610b9661370b565b64ffffffffff1615610bdb576040805162461bcd60e51b8152602060048201526009602482015268746f6f206561726c7960b81b604482015290519081900360640190fd5b60038054600160e81b900460ff1614610c1c576003805460ff60e81b19167d0300000000000000000000000000000000000000000000000000000000001790555b600354604080516302d05d3f60e01b8152905133926001600160a01b03169130916302d05d3f91600480820192602092909190829003018186803b158015610c6357600080fd5b505afa158015610c77573d6000803e3d6000fd5b505050506040513d6020811015610c8d57600080fd5b505160035460408051600160e81b90920460ff168252516001600160a01b03909216917fd4e12feccfc0af60abe3d9f07eaf999abd3329b4570bf80fdb4d5019f7f823d8916020908290030190a460004790506000306001600160a01b03166302d05d3f6040518163ffffffff1660e01b815260040160206040518083038186803b158015610d1b57600080fd5b505afa158015610d2f573d6000803e3d6000fd5b505050506040513d6020811015610d4557600080fd5b5051604080516307dc0d1d60e41b815290516001600160a01b0390921691637dc0d1d091600480820192602092909190829003018186803b158015610d8957600080fd5b505afa158015610d9d573d6000803e3d6000fd5b505050506040513d6020811015610db357600080fd5b50516040805163319a11df60e11b815290516001600160a01b039092169163633423be91600480820192602092909190829003018186803b158015610df757600080fd5b505afa158015610e0b573d6000803e3d6000fd5b505050506040513d6020811015610e2157600080fd5b50516040519091506001600160a01b038216906064840480156108fc02916000818181858888f1935050505015610f0957806001600160a01b0316306001600160a01b03166302d05d3f6040518163ffffffff1660e01b815260040160206040518083038186803b158015610e9557600080fd5b505afa158015610ea9573d6000803e3d6000fd5b505050506040513d6020811015610ebf57600080fd5b50516001600160a01b03167f6e66b5d043b2434fe7d48f9b96e07c1fa4d6c6a7d7ac43fc1afc30267b36869860648560408051929091048252600060208301528051918290030190a35b60405133906103e8840480156108fc02916000818181858888f19350505050158015610f39573d6000803e3d6000fd5b50336001600160a01b0316306001600160a01b03166302d05d3f6040518163ffffffff1660e01b815260040160206040518083038186803b158015610f7d57600080fd5b505afa158015610f91573d6000803e3d6000fd5b505050506040513d6020811015610fa757600080fd5b50516001600160a01b03167f6e66b5d043b2434fe7d48f9b96e07c1fa4d6c6a7d7ac43fc1afc30267b3686986103e88560408051929091048252600160208301528051918290030190a35050565b306001600160a01b0316638da5cb5b6040518163ffffffff1660e01b815260040160206040518083038186803b15801561102e57600080fd5b505afa158015611042573d6000803e3d6000fd5b505050506040513d602081101561105857600080fd5b50516001600160a01b03163314801561107d575060038054600160e81b900460ff1614155b6110c1576040805162461bcd60e51b815260206004820152601060248201526f3737ba1030b1ba34bb329037bbb732b960811b604482015290519081900360640190fd5b600f546110d59063ffffffff166001615b2b565b600f805463ffffffff191663ffffffff92909216919091179055565b6003546001600160a01b0316331461113d576040805162461bcd60e51b815260206004820152600a60248201526906e6f74206261636b75760b41b604482015290519081900360640190fd5b600354600160e81b900460ff161561119c576040805162461bcd60e51b815260206004820152601260248201527f6261636b7570206e6f742070656e64696e670000000000000000000000000000604482015290519081900360640190fd5b6003805460ff60e81b1916600160e81b1790819055604080516302d05d3f60e01b815290516001600160a01b039092169130916302d05d3f916004808301926020929190829003018186803b1580156111f457600080fd5b505afa158015611208573d6000803e3d6000fd5b505050506040513d602081101561121e57600080fd5b505160035460408051600160e81b90920460ff168252516001600160a01b03909216917f9b13e751ba276b9ecf994e9ecc38b895af7cded05c07f20e506f4a57f98dc3d3916020908290030190a3565b306001600160a01b0316638da5cb5b6040518163ffffffff1660e01b815260040160206040518083038186803b1580156112a757600080fd5b505afa1580156112bb573d6000803e3d6000fd5b505050506040513d60208110156112d157600080fd5b50516001600160a01b0316331480156112f6575060038054600160e81b900460ff1614155b61133a576040805162461bcd60e51b815260206004820152601060248201526f3737ba1030b1ba34bb329037bbb732b960811b604482015290519081900360640190fd5b336001600160a01b0316306001600160a01b03166302d05d3f6040518163ffffffff1660e01b815260040160206040518083038186803b15801561137d57600080fd5b505afa158015611391573d6000803e3d6000fd5b505050506040513d60208110156113a757600080fd5b50516040516001600160a01b03909116907f386ee292f5f7e1923094e3f15e2c182b0ffaa3b312df32094e994d8e0f1d393a90600090a3600d5464ffffffffff16156113fc57600d805464ffffffffff191690555b600d5465010000000000900460ff161561142057600d805465ff0000000000191690555b600d546601000000000000900460ff161561144657600d805466ff000000000000191690555b600454156114545760006004555b60005b60088110156114ca5760006005826008811061148357634e487b7160e01b600052603260045260246000fd5b0180549091506001600160a01b031661149c57506114ca565b8054600160a01b900460ff16156114b957805460ff60a01b191681555b506114c381615bff565b9050611457565b50565b6000805b600881101561155f576000600582600881106114fd57634e487b7160e01b600052603260045260246000fd5b01546001600160a01b031614156115135761155f565b6005816008811061153457634e487b7160e01b600052603260045260246000fd5b015461154b90600160a81b900461ffff1683615b13565b91508061155781615bff565b9150506114d1565b5090565b60038054600160e81b900460ff1614156115c4576040805162461bcd60e51b815260206004820152601060248201527f6e6f742061637469766520737461746500000000000000000000000000000000604482015290519081900360640190fd5b6000306001600160a01b03166302d05d3f6040518163ffffffff1660e01b815260040160206040518083038186803b1580156115ff57600080fd5b505afa158015611613573d6000803e3d6000fd5b505050506040513d601f19601f8201168201806040525081019061163791906153e4565b9050600080826001600160a01b031663723117056040518163ffffffff1660e01b8152600401604080518083038186803b15801561167457600080fd5b505afa158015611688573d6000803e3d6000fd5b505050506040513d601f19601f820116820180604052508101906116ac9190615438565b600f5460005492945090925063ffffffff16906001600160a01b039081169083163314806116e25750336001600160a01b038216145b61172e5760405162461bcd60e51b815260206004820152601a60248201527f57616c6c65743a2073656e646572206e6f7420616c6c6f77656400000000000060448201526064016103cd565b60005b86811015611b13573688888381811061175a57634e487b7160e01b600052603260045260246000fd5b905060200281019061176c9190615a42565b9050600061178060a08301608084016153c1565b90506000611796610120840161010085016157eb565b63ffffffff169050600060016117cc6117b88633898c63ffffffff1601614b77565b805160209091012060608701351515614cf4565b6117d96020870187615805565b604080516000815260208181018084529490945260ff9092168282015291870135606082015290860135608082015260a0016020604051602081039080840390855afa15801561182d573d6000803e3d6000fd5b5050604051601f1901519150506001600160a01b0381163314156118935760405162461bcd60e51b815260206004820152601f60248201527f57616c6c65743a2073656e6465722063616e6e6f74206265207369676e65720060448201526064016103cd565b856001600160a01b0316816001600160a01b031614806118c45750886001600160a01b0316816001600160a01b0316145b6119105760405162461bcd60e51b815260206004820152601a60248201527f57616c6c65743a207369676e6572206e6f7420616c6c6f77656400000000000060448201526064016103cd565b6001600160a01b038316331480159061193b5750806001600160a01b0316836001600160a01b031614155b801561195057506001600160a01b0383163014155b801561196e5750896001600160a01b0316836001600160a01b031614155b6119ba5760405162461bcd60e51b815260206004820152601e60248201527f57616c6c65743a207265656e7472616e6379206e6f7420616c6c6f776564000060448201526064016103cd565b506000806119cf610100860160e0870161567c565b611a5757836001600160a01b0316600084116119eb575a6119ed565b835b60a0870135611a006101208901896159fd565b604051611a0e92919061587c565b600060405180830381858888f193505050503d8060008114611a4c576040519150601f19603f3d011682016040523d82523d6000602084013e611a51565b606091505b50611ad0565b836001600160a01b031660008411611a6f575a611a71565b835b611a7f6101208801886159fd565b604051611a8d92919061587c565b6000604051808303818686fa925050503d8060008114611ac9576040519150601f19603f3d011682016040523d82523d6000602084013e611ace565b606091505b505b9150915081611afb57611ae281614da8565b60405162461bcd60e51b81526004016103cd91906159ea565b50505050508080611b0b90615bff565b915050611731565b50600f805463ffffffff191687840163ffffffff161790556040514381526001600160a01b0385811691838216918816907f38634a1857869887aba8b9dde8624489eb6dab90d7f84bdc133c95a2523b90739060200160405180910390a450505050505050565b600d5465010000000000900460ff161515600114611bdf576040805162461bcd60e51b815260206004820152601a60248201527f696e6865726974616e6365206973206e6f7420656e61626c6564000000000000604482015290519081900360640190fd5b600d546601000000000000900460ff1615611c41576040805162461bcd60e51b815260206004820152601860248201527f696e6865726974616e6365206973206163746976617465640000000000000000604482015290519081900360640190fd5b611c49613037565b64ffffffffff1615611c8e576040805162461bcd60e51b8152602060048201526009602482015268746f6f206561726c7960b81b604482015290519081900360640190fd5b600d805466ff00000000000019166601000000000000179055604080516302d05d3f60e01b81529051479160009130916302d05d3f916004808301926020929190829003018186803b158015611ce357600080fd5b505afa158015611cf7573d6000803e3d6000fd5b505050506040513d6020811015611d0d57600080fd5b5051604080516307dc0d1d60e41b815290516001600160a01b0390921691637dc0d1d091600480820192602092909190829003018186803b158015611d5157600080fd5b505afa158015611d65573d6000803e3d6000fd5b505050506040513d6020811015611d7b57600080fd5b50516040805163319a11df60e11b815290516001600160a01b039092169163633423be91600480820192602092909190829003018186803b158015611dbf57600080fd5b505afa158015611dd3573d6000803e3d6000fd5b505050506040513d6020811015611de957600080fd5b505190506001600160a01b0381166108fc611e05606485615b53565b6040518115909202916000818181858888f1935050505015611edd57806001600160a01b0316306001600160a01b03166302d05d3f6040518163ffffffff1660e01b815260040160206040518083038186803b158015611e6457600080fd5b505afa158015611e78573d6000803e3d6000fd5b505050506040513d6020811015611e8e57600080fd5b50516001600160a01b03167f0d0176dbbceb582bb24dc965bd866421e9de5afe8bb827dc2a48df2826ad40fd611ec5606486615b53565b60408051918252600060208301528051918290030190a35b336108fc611eed6103e885615b53565b6040518115909202916000818181858888f19350505050158015611f15573d6000803e3d6000fd5b50336001600160a01b0316306001600160a01b03166302d05d3f6040518163ffffffff1660e01b815260040160206040518083038186803b158015611f5957600080fd5b505afa158015611f6d573d6000803e3d6000fd5b505050506040513d6020811015611f8357600080fd5b50516001600160a01b03167f0d0176dbbceb582bb24dc965bd866421e9de5afe8bb827dc2a48df2826ad40fd611fbb6103e886615b53565b60408051918252600160208301528051918290030190a347915060005b60088110156120a45760006005826008811061200457634e487b7160e01b600052603260045260246000fd5b0180549091506001600160a01b031661201d57506120a4565b8054600160a81b900461ffff16156120915780546001600160a01b038116906108fc906127109061205990600160a81b900461ffff1688615b73565b6120639190615b53565b6040518115909202916000818181858888f18554901515600160a01b0260ff60a01b19909116178555505050505b508061209c81615bff565b915050611fd8565b6120ae4784615b92565b60045560008167ffffffffffffffff8111156120da57634e487b7160e01b600052604160045260246000fd5b604051908082528060200260200182016040528015612103578160200160208202803683370190505b50905060005b828110156121915760006005826008811061213457634e487b7160e01b600052603260045260246000fd5b01805484519192506001600160a01b03169084908490811061216657634e487b7160e01b600052603260045260246000fd5b6001600160a01b0390921660209283029190910190910152508061218981615bff565b915050612109565b50336001600160a01b0316306001600160a01b03166302d05d3f6040518163ffffffff1660e01b815260040160206040518083038186803b1580156121d557600080fd5b505afa1580156121e9573d6000803e3d6000fd5b505050506040513d60208110156121ff57600080fd5b505160408051602080825285518282015285516001600160a01b03909416937f7ad28155b9b8629f2cd82bb7d184fbd7726696408380767a0cf3ef763209da8a93879392839291830191858201910280838360005b8381101561226c578181015183820152602001612254565b505050509050019250505060405180910390a350505050565b6003546001600160a01b031633146122d1576040805162461bcd60e51b815260206004820152600a60248201526906e6f74206261636b75760b41b604482015290519081900360640190fd5b60038054600160e81b900460ff1614612331576040805162461bcd60e51b815260206004820152601460248201527f6261636b7570206e6f7420616374697661746564000000000000000000000000604482015290519081900360640190fd5b6003805460ff60e81b198116909155600054604080516302d05d3f60e01b815290516001600160a01b03938416939092169130916302d05d3f916004808301926020929190829003018186803b15801561238a57600080fd5b505afa15801561239e573d6000803e3d6000fd5b505050506040513d60208110156123b457600080fd5b505160035460408051600160e81b90920460ff168252516001600160a01b03909216917fa477fcc649c392c3ab5443bd6c7e532261a90d5e3f29376513d5275e277ddae3916020908290030190a46003546000546001600160a01b039081169116146124ff57306001600160a01b03166302d05d3f6040518163ffffffff1660e01b815260040160206040518083038186803b15801561245357600080fd5b505afa158015612467573d6000803e3d6000fd5b505050506040513d602081101561247d57600080fd5b5051600354604080517fbf3b11010000000000000000000000000000000000000000000000000000000081526001600160a01b0392831660048201529051919092169163bf3b110191602480830192600092919082900301818387803b1580156124e657600080fd5b505af11580156124fa573d6000803e3d6000fd5b505050505b600380546001600160a01b03191690819055600160c81b900463ffffffff1615612534576003805463ffffffff60c81b191690555b600354600160a01b900464ffffffffff161561255c576003805464ffffffffff60a01b191690555b565b6125666152ca565b60005b600881101561155f5760006005826008811061259557634e487b7160e01b600052603260045260246000fd5b0180549091506001600160a01b03166125ae575061155f565b8054600160a81b810460481b6affff0000000000000000001690600160a01b900460ff166125dd5760006125eb565b6b0100000000000000000000005b8254612609919060601b6bffffffffffffffffffffffff1916615b13565b6126139190615b13565b83836008811061263357634e487b7160e01b600052603260045260246000fd5b6020020152508061264381615bff565b915050612569565b306001600160a01b0316638da5cb5b6040518163ffffffff1660e01b815260040160206040518083038186803b15801561268457600080fd5b505afa158015612698573d6000803e3d6000fd5b505050506040513d60208110156126ae57600080fd5b50516001600160a01b0316331480156126d3575060038054600160e81b900460ff1614155b612717576040805162461bcd60e51b815260206004820152601060248201526f3737ba1030b1ba34bb329037bbb732b960811b604482015290519081900360640190fd5b600d546601000000000000900460ff1615612779576040805162461bcd60e51b815260206004820152601560248201527f696e6865726974616e6365206163746976617465640000000000000000000000604482015290519081900360640190fd5b600d54429064ffffffffff1663ffffffff8316146127a857600d805464ffffffffff191663ffffffff84161790555b600d5465010000000000900460ff1615156001146127d857600d805465ff00000000001916650100000000001790555b600d80546bffffffffff00000000000000191667010000000000000064ffffffffff841602179055604080516302d05d3f60e01b81529051339130916302d05d3f91600480820192602092909190829003018186803b15801561283a57600080fd5b505afa15801561284e573d6000803e3d6000fd5b505050506040513d602081101561286457600080fd5b50516040805163ffffffff8616815264ffffffffff8516602082015281516001600160a01b03909316927f219376dc9430460f83af8f607e5c09085e95b4d8096b01b231afc1ee7958d5e2929181900390910190a35050565b306001600160a01b0316638da5cb5b6040518163ffffffff1660e01b815260040160206040518083038186803b1580156128f657600080fd5b505afa15801561290a573d6000803e3d6000fd5b505050506040513d602081101561292057600080fd5b50516001600160a01b031633148015612945575060038054600160e81b900460ff1614155b612989576040805162461bcd60e51b815260206004820152601060248201526f3737ba1030b1ba34bb329037bbb732b960811b604482015290519081900360640190fd5b6001600160a01b0382166129e4576040805162461bcd60e51b815260206004820152600960248201527f6e6f206261636b75700000000000000000000000000000000000000000000000604482015290519081900360640190fd5b6000546001600160a01b0383811691161415612a47576040805162461bcd60e51b815260206004820152600f60248201527f6261636b7570206973206f776e65720000000000000000000000000000000000604482015290519081900360640190fd5b6003546001600160a01b03838116911614612c7d576003546001600160a01b031615612b3957306001600160a01b03166302d05d3f6040518163ffffffff1660e01b815260040160206040518083038186803b158015612aa657600080fd5b505afa158015612aba573d6000803e3d6000fd5b505050506040513d6020811015612ad057600080fd5b50516003546040805163cf2f774160e01b81526001600160a01b0392831660048201529051919092169163cf2f774191602480830192600092919082900301818387803b158015612b2057600080fd5b505af1158015612b34573d6000803e3d6000fd5b505050505b600380546001600160a01b0319166001600160a01b038416179055604080516302d05d3f60e01b8152905130916302d05d3f916004808301926020929190829003018186803b158015612b8b57600080fd5b505afa158015612b9f573d6000803e3d6000fd5b505050506040513d6020811015612bb557600080fd5b5051604080517fa196de830000000000000000000000000000000000000000000000000000000081526001600160a01b0385811660048301529151919092169163a196de8391602480830192600092919082900301818387803b158015612c1b57600080fd5b505af1158015612c2f573d6000803e3d6000fd5b5050600354600160e81b900460ff16159150612c559050576003805460ff60e81b191690555b600354600160a01b900464ffffffffff1615612c7d576003805464ffffffffff60a01b191690555b60035463ffffffff828116600160c81b9092041614612cb5576003805463ffffffff60c81b1916600160c81b63ffffffff8416021790555b600354600160e81b900460ff1660021415612ceb576003805464ffffffffff60a01b1916600160a01b64ffffffffff4216021790555b600054604080516302d05d3f60e01b815290516001600160a01b0380861693169130916302d05d3f91600480820192602092909190829003018186803b158015612d3457600080fd5b505afa158015612d48573d6000803e3d6000fd5b505050506040513d6020811015612d5e57600080fd5b50516003546040805163ffffffff87168152600160a01b830464ffffffffff166020820152600160e81b90920460ff1682820152516001600160a01b03909216917fea8790173f54c9b092a2e436f8aa3840b46da469df3b5161893625d09bfc54e5916060908290030190a45050565b6040516370a0823160e01b81523060048201526000906001600160a01b038316906370a082319060240160206040518083038186803b158015612e1057600080fd5b505afa158015612e24573d6000803e3d6000fd5b505050506040513d601f19601f82011682018060405250810190612e4891906157d3565b90505b919050565b306001600160a01b03166302d05d3f6040518163ffffffff1660e01b815260040160206040518083038186803b158015612e8957600080fd5b505afa158015612e9d573d6000803e3d6000fd5b505050506040513d6020811015612eb357600080fd5b50516001600160a01b03163314612eff576040805162461bcd60e51b815260206004820152600b60248201526a3737ba1031b932b0ba37b960a91b604482015290519081900360640190fd5b4630601060c0612f10600143615b92565b40901b901c177f010000000000000000000000000000000000000000000000000000000000000017600e8190556011829055604080518082018252600a8152694b69726f626f204f435760b01b6020918201528151808301835260018152603160f81b908201529051613019927fd87cd6ef79d4e2b95e15ce8abf732db51ec771f1ca2edccf22a46c729ac56472927fddc2fe95794a7a4bc7ff98c0a711a262fc20ca1b842849f62c342e4818c148cd927fc89efdaa54c0f20c7adf612882df0950f5a951637e0307cdcb4c672f298b8bc69287923092019586526020860194909452604085019290925260608401526001600160a01b0316608083015260a082015260c00190565b60408051601f19818403018152919052805160209091012060105550565b600d546000904290670100000000000000900464ffffffffff16158015906130775750600d5464ffffffffff670100000000000000909104811690821610155b80156130ad5750600d5461309d90670100000000000000900464ffffffffff1682615ba9565b600d5464ffffffffff9182169116115b1561155f57600d546130d190670100000000000000900464ffffffffff1682615ba9565b600d546130e5919064ffffffffff16615ba9565b91505090565b6000546001600160a01b031633148061310e57506003546001600160a01b031633145b61315f576040805162461bcd60e51b815260206004820152601860248201527f6e656974686572206f776e6572206e6f72206261636b75700000000000000000604482015290519081900360640190fd5b600354600160e81b900460ff166001146131c0576040805162461bcd60e51b815260206004820152601560248201527f6261636b7570206e6f7420726567697374657265640000000000000000000000604482015290519081900360640190fd5b6000426003805460ff60e81b19167d0200000000000000000000000000000000000000000000000000000000001764ffffffffff60a01b1916600160a01b64ffffffffff8416021790819055604080516302d05d3f60e01b815290519293506001600160a01b039091169130916302d05d3f916004808301926020929190829003018186803b15801561325257600080fd5b505afa158015613266573d6000803e3d6000fd5b505050506040513d602081101561327c57600080fd5b50516003546040805164ffffffffff86168152600160e81b90920460ff16602083015280516001600160a01b03909316927f6108265a31b1c1ca2c7f424e7e33437d70ea2dbefdd8ee475060d1bdd0a85bf39281900390910190a350565b60606132e7848484614b77565b949350505050565b6003546001600160a01b0316331461333b576040805162461bcd60e51b815260206004820152600a60248201526906e6f74206261636b75760b41b604482015290519081900360640190fd5b600354600160e81b900460ff161561339a576040805162461bcd60e51b815260206004820152601260248201527f6261636b7570206e6f742070656e64696e670000000000000000000000000000604482015290519081900360640190fd5b61255c614dee565b306001600160a01b03166302d05d3f6040518163ffffffff1660e01b815260040160206040518083038186803b1580156133db57600080fd5b505afa1580156133ef573d6000803e3d6000fd5b505050506040513d602081101561340557600080fd5b50516001600160a01b03163314613451576040805162461bcd60e51b815260206004820152600b60248201526a3737ba1031b932b0ba37b960a91b604482015290519081900360640190fd5b6001600160a01b03831661349b576040516001600160a01b0383169082156108fc029083906000818181858888f19350505050158015613495573d6000803e3d6000fd5b50613581565b6040516001600160a01b038381166024830152604482018390526000918291861690620138809060640160408051601f198184030181529181526020820180517bffffffffffffffffffffffffffffffffffffffffffffffffffffffff167fa9059cbb0000000000000000000000000000000000000000000000000000000017905251613528919061588c565b60006040518083038160008787f1925050503d8060008114613566576040519150601f19603f3d011682016040523d82523d6000602084013e61356b565b606091505b50915091508161357e57611ae281614da8565b50505b505050565b6000546001600160a01b031633146135d1576040805162461bcd60e51b81526020600482015260096024820152683737ba1037bbb732b960b91b604482015290519081900360640190fd5b60038054600160e81b900460ff1614613631576040805162461bcd60e51b815260206004820152601460248201527f6261636b7570206e6f7420616374697661746564000000000000000000000000604482015290519081900360640190fd5b6003805460ff60e81b1916600160e81b1790819055600054604080516302d05d3f60e01b815290516001600160a01b0393841693929092169130916302d05d3f916004808301926020929190829003018186803b15801561369157600080fd5b505afa1580156136a5573d6000803e3d6000fd5b505050506040513d60208110156136bb57600080fd5b505160035460408051600160e81b90920460ff168252516001600160a01b03909216917f7bb264af598eac77bc57cdad3b10f6eddc737a116ef45e864d3626346dcb23b4916020908290030190a4565b6003546000904290600160a01b900464ffffffffff1615801590613743575060035464ffffffffff600160a01b909104811690821610155b80156137705750600354600160a01b810464ffffffffff908116830316600160c81b90910463ffffffff16115b1561155f57600354600160a01b810464ffffffffff16909103600160c81b90910463ffffffff1603919050565b60038054600160e81b900460ff1614156137fe576040805162461bcd60e51b815260206004820152601060248201527f6e6f742061637469766520737461746500000000000000000000000000000000604482015290519081900360640190fd5b6000306001600160a01b03166302d05d3f6040518163ffffffff1660e01b815260040160206040518083038186803b15801561383957600080fd5b505afa15801561384d573d6000803e3d6000fd5b505050506040513d601f19601f8201168201806040525081019061387191906153e4565b90506000816001600160a01b031663570ca7356040518163ffffffff1660e01b815260040160206040518083038186803b1580156138ae57600080fd5b505afa1580156138c2573d6000803e3d6000fd5b505050506040513d601f19601f820116820180604052508101906138e691906153e4565b905060005b83811015613e98573685858381811061391457634e487b7160e01b600052603260045260246000fd5b90506020028101906139269190615a58565b90506000600161396e61395a846000871161394957600f5463ffffffff16613955565b600f5463ffffffff1687015b61500b565b805160209091012060c08501351515614cf4565b61397b6020850185615805565b604080516000815260208181018084529490945260ff9092168282015291850135606082015290840135608082015260a0016020604051602081039080840390855afa1580156139cf573d6000803e3d6000fd5b50505060206040510351905060006001613a20613a0c85600088116139fc57600f5463ffffffff16613955565b600f5463ffffffff16880161500b565b805160209091012060c08601351515614cf4565b613a306080860160608701615805565b6040805160008152602081018083529390935260ff90911690820152608080860135606083015260a08087013591830191909152016020604051602081039080840390855afa158015613a87573d6000803e3d6000fd5b5050604051601f1901516000549092506001600160a01b03163314905080613ab75750336001600160a01b038616145b613b295760405162461bcd60e51b815260206004820152602860248201527f57616c6c65743a2073656e646572206973206e6f74206f776e6572206e6f722060448201527f6f70657261746f7200000000000000000000000000000000000000000000000060648201526084016103cd565b6000546001600160a01b03838116911614613b865760405162461bcd60e51b815260206004820152601c60248201527f57616c6c65743a207369676e657231206973206e6f74206f776e65720000000060448201526064016103cd565b846001600160a01b0316816001600160a01b031614613be75760405162461bcd60e51b815260206004820152601f60248201527f57616c6c65743a207369676e657232206973206e6f74206f70657261746f720060448201526064016103cd565b6001600160a01b038216613c02610100850160e086016153c1565b6001600160a01b031614158015613c3b57506001600160a01b038116613c2f610100850160e086016153c1565b6001600160a01b031614155b8015613c60575030613c54610100850160e086016153c1565b6001600160a01b031614155b8015613c8e57506001600160a01b038616613c82610100850160e086016153c1565b6001600160a01b031614155b613cda5760405162461bcd60e51b815260206004820152601e60248201527f57616c6c65743a207265656e7472616e6379206e6f7420616c6c6f776564000060448201526064016103cd565b506000905080613cf26101608401610140850161567c565b613db957613d07610100840160e085016153c1565b6001600160a01b03166000613d24610180860161016087016157eb565b63ffffffff1611613d35575a613d4e565b613d47610180850161016086016157eb565b63ffffffff165b610100850135613d626101808701876159fd565b604051613d7092919061587c565b600060405180830381858888f193505050503d8060008114613dae576040519150601f19603f3d011682016040523d82523d6000602084013e613db3565b606091505b50613e70565b613dca610100840160e085016153c1565b6001600160a01b03166000613de7610180860161016087016157eb565b63ffffffff1611613df8575a613e11565b613e0a610180850161016086016157eb565b63ffffffff165b613e1f6101808601866159fd565b604051613e2d92919061587c565b6000604051808303818686fa925050503d8060008114613e69576040519150601f19603f3d011682016040523d82523d6000602084013e613e6e565b606091505b505b9150915081613e8257611ae281614da8565b5050508080613e9090615bff565b9150506138eb565b50600f54613ead90849063ffffffff16615b2b565b600f805463ffffffff191663ffffffff929092169190911790556000546040514381526001600160a01b0383811692811691908516907f38634a1857869887aba8b9dde8624489eb6dab90d7f84bdc133c95a2523b90739060200160405180910390a450505050565b6040516370a0823160e01b81526001600160a01b0383811660048301528291908516906370a082319060240160206040518083038186803b158015613f5a57600080fd5b505afa158015613f6e573d6000803e3d6000fd5b505050506040513d601f19601f82011682018060405250810190613f9291906157d3565b10156135815760405162461bcd60e51b815260206004820152601560248201527f455243323042616c616e63653a20746f6f206c6f77000000000000000000000060448201526064016103cd565b306001600160a01b0316638da5cb5b6040518163ffffffff1660e01b815260040160206040518083038186803b15801561401957600080fd5b505afa15801561402d573d6000803e3d6000fd5b505050506040513d602081101561404357600080fd5b50516001600160a01b031633148015614068575060038054600160e81b900460ff1614155b6140ac576040805162461bcd60e51b815260206004820152601060248201526f3737ba1030b1ba34bb329037bbb732b960811b604482015290519081900360640190fd5b600d546601000000000000900460ff161561410e576040805162461bcd60e51b815260206004820152601560248201527f696e6865726974616e6365206163746976617465640000000000000000000000604482015290519081900360640190fd5b600882511115614165576040805162461bcd60e51b815260206004820152600e60248201527f746f6f206d616e79206865697273000000000000000000000000000000000000604482015290519081900360640190fd5b80518251146141bb576040805162461bcd60e51b815260206004820152601960248201527f686569727320616e642062707320646f6e2774206d6174636800000000000000604482015290519081900360640190fd5b6000805b835181101561432e578281815181106141e857634e487b7160e01b600052603260045260246000fd5b602002602001015161ffff16826141ff9190615b13565b915060006001600160a01b031684828151811061422c57634e487b7160e01b600052603260045260246000fd5b60200260200101516001600160a01b03161415614290576040805162461bcd60e51b815260206004820152600760248201527f6e6f206865697200000000000000000000000000000000000000000000000000604482015290519081900360640190fd5b306001600160a01b03168482815181106142ba57634e487b7160e01b600052603260045260246000fd5b60200260200101516001600160a01b0316141561431e576040805162461bcd60e51b815260206004820152601860248201527f63757272656e7420636f6e747261637420697320686569720000000000000000604482015290519081900360640190fd5b61432781615bff565b90506141bf565b612710821115614385576040805162461bcd60e51b815260206004820152600a60248201527f746f74616c3e3130302500000000000000000000000000000000000000000000604482015290519081900360640190fd5b5060005b835181101561450d576000600582600881106143b557634e487b7160e01b600052603260045260246000fd5b0190508482815181106143d857634e487b7160e01b600052603260045260246000fd5b602090810291909101015181546001600160a01b0390811691161461443d5784828151811061441757634e487b7160e01b600052603260045260246000fd5b602090810291909101015181546001600160a01b0319166001600160a01b039091161781555b83828151811061445d57634e487b7160e01b600052603260045260246000fd5b60209081029190910101518154600160a81b900461ffff9081169116146144df5783828151811061449e57634e487b7160e01b600052603260045260246000fd5b6020908102919091010151815461ffff909116600160a81b027fffffffffffffffffff0000ffffffffffffffffffffffffffffffffffffffffff9091161781555b8054600160a01b900460ff16156144fc57805460ff60a01b191681555b5061450681615bff565b9050614389565b61451960016008615b92565b8110156145685760006005826008811061454357634e487b7160e01b600052603260045260246000fd5b0180549091506001600160a01b0316156145665780546001600160a01b03191681555b505b60008167ffffffffffffffff81111561459157634e487b7160e01b600052604160045260246000fd5b6040519080825280602002602001820160405280156145ba578160200160208202803683370190505b50905060008267ffffffffffffffff8111156145e657634e487b7160e01b600052604160045260246000fd5b60405190808252806020026020018201604052801561460f578160200160208202803683370190505b50905060005b838110156146eb5760006005826008811061464057634e487b7160e01b600052603260045260246000fd5b01805485519192506001600160a01b03169085908490811061467257634e487b7160e01b600052603260045260246000fd5b60200260200101906001600160a01b031690816001600160a01b0316815250508060000160159054906101000a900461ffff168383815181106146c557634e487b7160e01b600052603260045260246000fd5b61ffff9092166020928302919091019091015250806146e381615bff565b915050614615565b50336001600160a01b0316306001600160a01b03166302d05d3f6040518163ffffffff1660e01b815260040160206040518083038186803b15801561472f57600080fd5b505afa158015614743573d6000803e3d6000fd5b505050506040513d602081101561475957600080fd5b50516040805181815285519181019190915284516001600160a01b03909216917fa52c4f91db65575e6917fd3e55dc251bf777970366ade6b0df9abc78e0345df591869186919081906020828101916060840191878101910280838360005b838110156147d05781810151838201526020016147b8565b50505050905001838103825284818151815260200191508051906020019060200280838360005b8381101561480f5781810151838201526020016147f7565b5050505090500194505050505060405180910390a3505050505050565b6000546001600160a01b03163314614877576040805162461bcd60e51b81526020600482015260096024820152683737ba1037bbb732b960b91b604482015290519081900360640190fd5b6003546001600160a01b031661339a576040805162461bcd60e51b815260206004820152601060248201527f6261636b7570206e6f7420657869737400000000000000000000000000000000604482015290519081900360640190fd5b60606148e0838361500b565b90505b92915050565b306001600160a01b03166302d05d3f6040518163ffffffff1660e01b815260040160206040518083038186803b15801561492257600080fd5b505afa158015614936573d6000803e3d6000fd5b505050506040513d602081101561494c57600080fd5b50516001600160a01b03163314614998576040805162461bcd60e51b815260206004820152600b60248201526a3737ba1031b932b0ba37b960a91b604482015290519081900360640190fd5b6000546001600160a01b038381169116148015906149be57506001600160a01b03821615155b156149df57600080546001600160a01b0319166001600160a01b0384161790555b6001546001600160a01b03828116911614801590614a0557506001600160a01b03811615155b15614a2657600180546001600160a01b0319166001600160a01b0383161790555b50506001600255565b6000546001600160a01b03163314614a7a576040805162461bcd60e51b81526020600482015260096024820152683737ba1037bbb732b960b91b604482015290519081900360640190fd5b306001600160a01b03166302d05d3f6040518163ffffffff1660e01b815260040160206040518083038186803b158015614ab357600080fd5b505afa158015614ac7573d6000803e3d6000fd5b505050506040513d6020811015614add57600080fd5b5051604080517fc5f5b0480000000000000000000000000000000000000000000000000000000081527fffffffffffffffff0000000000000000000000000000000000000000000000008416600482015290516001600160a01b039092169163c5f5b0489160248082019260009290919082900301818387803b158015614b6357600080fd5b505af115801561357e573d6000803e3d6000fd5b6060614b8960e0850160c0860161567c565b614c2b57606084013583614ba360a08701608088016153c1565b60a087013585614bba6101008a0160e08b0161567c565b614bcc6101208b016101008c016157eb565b614be2614bdd6101208d018d6159fd565b615188565b614bf06101208d018d6159fd565b614bfe916004908290615aeb565b604051602001614c179a999897969594939291906158da565b6040516020818303038152906040526132e7565b606084013583614c4160a08701608088016153c1565b60a087013585614c586101008a0160e08b0161567c565b614c6a6101208b016101008c016157eb565b614c786101208c018c6159fd565b604051614c8692919061587c565b6040805191829003822060208301999099526001600160a01b0397881690820152959094166060860152608085019290925260a0840152151560c083015263ffffffff1660e08201526101008101919091526101200160405160208183030381529060405290509392505050565b60008115614d57576010546040517f190100000000000000000000000000000000000000000000000000000000000060208201526022810191909152604281018490526062016040516020818303038152906040528051906020012090506148e3565b6040517f19457468657265756d205369676e6564204d6573736167653a0a3332000000006020820152603c8101849052605c0160405160208183030381529060405280519060200120905092915050565b6060604482511015614dd457604051806060016040528060258152602001615c5c602591399050612e4b565b60048201915081806020019051810190612e4891906156dc565b6003546001600160a01b03168015614ed957306001600160a01b03166302d05d3f6040518163ffffffff1660e01b815260040160206040518083038186803b158015614e3957600080fd5b505afa158015614e4d573d6000803e3d6000fd5b505050506040513d6020811015614e6357600080fd5b50516040805163cf2f774160e01b81526001600160a01b0384811660048301529151919092169163cf2f774191602480830192600092919082900301818387803b158015614eb057600080fd5b505af1158015614ec4573d6000803e3d6000fd5b5050600380546001600160a01b031916905550505b600354600160c81b900463ffffffff1615614eff576003805463ffffffff60c81b191690555b600354600160a01b900464ffffffffff1615614f27576003805464ffffffffff60a01b191690555b600354600160e81b900460ff1615614f47576003805460ff60e81b191690555b600054604080516302d05d3f60e01b815290516001600160a01b0380851693169130916302d05d3f91600480820192602092909190829003018186803b158015614f9057600080fd5b505afa158015614fa4573d6000803e3d6000fd5b505050506040513d6020811015614fba57600080fd5b505160035460408051600160e81b90920460ff168252516001600160a01b03909216917f7e9b775ba644794a5770a533d5fc90e00b98f998e81c66fce5d7f4e1bc3d8718916020908290030190a450565b606061501f6101408401610120850161567c565b6150bd5760c0830135615039610100850160e086016153c1565b610100850135846150526101608801610140890161567c565b61506461018089016101608a016157eb565b615075614bdd6101808b018b6159fd565b6150836101808b018b6159fd565b615091916004908290615aeb565b6040516020016150a999989796959493929190615968565b6040516020818303038152906040526148e0565b60c08301356150d3610100850160e086016153c1565b610100850135846150ec6101608801610140890161567c565b6150fe61018089016101608a016157eb565b61510c6101808a018a6159fd565b60405161511a92919061587c565b604051908190038120615171979695949392916020019687526001600160a01b03959095166020870152604086019390935260608501919091521515608084015263ffffffff1660a083015260c082015260e00190565b604051602081830303815290604052905092915050565b60006018838360038181106151ad57634e487b7160e01b600052603260045260246000fd5b909101357fff000000000000000000000000000000000000000000000000000000000000001690911c90506010848460028181106151fb57634e487b7160e01b600052603260045260246000fd5b909101357fff000000000000000000000000000000000000000000000000000000000000001690911c905060088585600181811061524957634e487b7160e01b600052603260045260246000fd5b909101357fff000000000000000000000000000000000000000000000000000000000000001690911c9050858560008161529357634e487b7160e01b600052603260045260246000fd5b9050013560f81c60f81b7effffffffffffffffffffffffffffffffffffffffffffffffffffffffffffff1916171717905092915050565b6040518061010001604052806008906020820280368337509192915050565b60008083601f8401126152fa578182fd5b50813567ffffffffffffffff811115615311578182fd5b602083019150836020808302850101111561532b57600080fd5b9250929050565b600082601f830112615342578081fd5b8135602061535761535283615a9f565b615a6e565b8281528181019085830183850287018401881015615373578586fd5b855b858110156153a057813561ffff8116811461538e578788fd5b84529284019290840190600101615375565b5090979650505050505050565b803563ffffffff81168114612e4b57600080fd5b6000602082840312156153d2578081fd5b81356153dd81615c46565b9392505050565b6000602082840312156153f5578081fd5b81516153dd81615c46565b60008060408385031215615412578081fd5b823561541d81615c46565b9150602083013561542d81615c46565b809150509250929050565b6000806040838503121561544a578182fd5b825161545581615c46565b602084015190925061542d81615c46565b60008060006060848603121561547a578081fd5b833561548581615c46565b9250602084013561549581615c46565b929592945050506040919091013590565b600080600080608085870312156154bb578182fd5b84356154c681615c46565b935060208501356154d681615c46565b925060408501359150606085013567ffffffffffffffff8111156154f8578182fd5b8501601f81018713615508578182fd5b803561551661535282615ac3565b81815288602083850101111561552a578384fd5b81602084016020830137908101602001929092525092959194509250565b6000806040838503121561555a578182fd5b823561556581615c46565b9150615573602084016153ad565b90509250929050565b6000806040838503121561558e578182fd5b823567ffffffffffffffff808211156155a5578384fd5b818501915085601f8301126155b8578384fd5b813560206155c861535283615a9f565b82815281810190858301838502870184018b10156155e4578889fd5b8896505b8487101561560f5780356155fb81615c46565b8352600196909601959183019183016155e8565b5096505086013592505080821115615625578283fd5b5061563285828601615332565b9150509250929050565b6000806020838503121561564e578182fd5b823567ffffffffffffffff811115615664578283fd5b615670858286016152e9565b90969095509350505050565b60006020828403121561568d578081fd5b813580151581146153dd578182fd5b6000602082840312156156ad578081fd5b81357fffffffffffffffff000000000000000000000000000000000000000000000000811681146153dd578182fd5b6000602082840312156156ed578081fd5b815167ffffffffffffffff811115615703578182fd5b8201601f81018413615713578182fd5b805161572161535282615ac3565b818152856020838501011115615735578384fd5b615746826020830160208601615bcf565b95945050505050565b600080600060608486031215615763578081fd5b833567ffffffffffffffff811115615779578182fd5b84016101408187031215615485578182fd5b6000806040838503121561579d578182fd5b823567ffffffffffffffff8111156157b3578283fd5b83016101a081860312156157c5578283fd5b946020939093013593505050565b6000602082840312156157e4578081fd5b5051919050565b6000602082840312156157fc578081fd5b6148e0826153ad565b600060208284031215615816578081fd5b813560ff811681146153dd578182fd5b60008284528282602086013780602084860101526020601f19601f85011685010190509392505050565b60008151808452615868816020860160208601615bcf565b601f01601f19169290920160200192915050565b6000828483379101908152919050565b6000825161589e818460208701615bcf565b9190910192915050565b6101008101818360005b60088110156158d15781518352602092830192909101906001016158b2565b50505092915050565b60006101208c83526001600160a01b03808d166020850152808c1660408501525089606084015288608084015287151560a084015263ffffffff871660c08401527fffffffff00000000000000000000000000000000000000000000000000000000861660e0840152806101008401526159578184018587615826565b9d9c50505050505050505050505050565b60006101008b83526001600160a01b038b166020840152896040840152886060840152871515608084015263ffffffff871660a08401527fffffffff00000000000000000000000000000000000000000000000000000000861660c08401528060e08401526159da8184018587615826565b9c9b505050505050505050505050565b6000602082526148e06020830184615850565b6000808335601e19843603018112615a13578283fd5b83018035915067ffffffffffffffff821115615a2d578283fd5b60200191503681900382131561532b57600080fd5b6000823561013e1983360301811261589e578182fd5b6000823561019e1983360301811261589e578182fd5b604051601f8201601f1916810167ffffffffffffffff81118282101715615a9757615a97615c30565b604052919050565b600067ffffffffffffffff821115615ab957615ab9615c30565b5060209081020190565b600067ffffffffffffffff821115615add57615add615c30565b50601f01601f191660200190565b60008085851115615afa578182fd5b83861115615b06578182fd5b5050820193919092039150565b60008219821115615b2657615b26615c1a565b500190565b600063ffffffff808316818516808303821115615b4a57615b4a615c1a565b01949350505050565b600082615b6e57634e487b7160e01b81526012600452602481fd5b500490565b6000816000190483118215151615615b8d57615b8d615c1a565b500290565b600082821015615ba457615ba4615c1a565b500390565b600064ffffffffff83811690831681811015615bc757615bc7615c1a565b039392505050565b60005b83811015615bea578181015183820152602001615bd2565b83811115615bf9576000848401525b50505050565b6000600019821415615c1357615c13615c1a565b5060010190565b634e487b7160e01b600052601160045260246000fd5b634e487b7160e01b600052604160045260246000fd5b6001600160a01b03811681146114ca57600080fdfe57616c6c65743a205472616e73616374696f6e2072657665727465642073696c656e746c79a2646970667358221220c8174a95b66d864543fd9d88dd3057af57047bbe0cd53ef61fbbb5c770e3d98364736f6c63430008020033",
  "immutableReferences": {},
  "source": "// SPDX-License-Identifier: UNLICENSED\n\npragma solidity ^0.8.0;\npragma abicoder v2;\n\n//import \"openzeppelin-solidity/contracts/math/SafeMath.sol\";\nimport \"openzeppelin-solidity/contracts/token/ERC20/IERC20.sol\";\nimport \"openzeppelin-solidity/contracts/token/ERC721/IERC721.sol\";\nimport \"openzeppelin-solidity/contracts/token/ERC721/IERC721Receiver.sol\";\n\nimport \"./lib/IOracle.sol\";\nimport \"./lib/Heritable.sol\";\n\n// import \"./Trust.sol\";\n\ncontract Wallet is IStorage, Heritable {\n    //using SafeMath for uint256;\n\n    uint8 public constant VERSION_NUMBER = 0x1;\n    string public constant NAME = \"Kirobo OCW\";\n    string public constant VERSION = \"1\";\n\n    event BatchCall(\n        address indexed creator,\n        address indexed owner,\n        address indexed operator,\n        uint256 value\n    );\n\n    // modifier onlyActiveState() {\n    //     require(\n    //         backup.state != BACKUP_STATE_ACTIVATED,\n    //         \"Wallet: not active state\"\n    //     );\n    //     _;\n    // }\n\n    function getBalance() public view returns (uint256) {\n        return address(this).balance;\n    }\n\n    function balanceOf20(address token) public view returns (uint256) {\n        return IERC20(token).balanceOf(address(this));\n    }\n\n    function balanceOf721(address token) public view returns (uint256) {\n        return IERC721(token).balanceOf(address(this));\n    }\n\n    // function is20Safe(address _token) public view returns (bool) {\n    //     return IOracle(ICreator(this.creator()).oracle()).is20Safe(_token);\n    // }\n\n    // function is721Safe(address _token) public view returns (bool) {\n    //     return IOracle(ICreator(this.creator()).oracle()).is721Safe(_token);\n    // }\n\n    //function onERC721Received(address operator, address from, uint256 tokenId, bytes data) public returns (bytes4) {\n    function onERC721Received(\n        address,\n        address,\n        uint256,\n        bytes memory\n    ) public pure returns (bytes4) {\n        return this.onERC721Received.selector;\n    }\n\n    // function createTrust(\n    //     address _wallet,\n    //     uint40 _start,\n    //     uint32 _period,\n    //     uint16 _times,\n    //     uint256 _amount,\n    //     bool _cancelable\n    // ) public payable {\n    //     require(trust == Trust(payable(0)));\n    //     trust = (new Trust){value: _amount * _times}(\n    //         payable(_wallet),\n    //         _start,\n    //         _period,\n    //         _times,\n    //         _amount,\n    //         _cancelable\n    //     );\n    // }\n\n    // function destroyTrust() public {\n    //     require(trust != Trust(payable(0)));\n    //     trust.destroy();\n    //     trust = Trust(payable(0));\n    // }\n\n    // function getTrust() public view returns (Trust) {\n    //     return trust;\n    // }\n\n    // IStorage Implementation\n    function migrate() external override onlyCreator() {\n        uint256 chainId;\n        assembly {\n            chainId := chainid()\n        }\n\n        s_uid = bytes32(\n            (uint256(VERSION_NUMBER) << 248) |\n                ((uint256(blockhash(block.number - 1)) << 192) >> 16) |\n                uint256(uint160(address(this)))\n        );\n\n        CHAIN_ID = chainId;\n\n        DOMAIN_SEPARATOR = keccak256(\n            abi.encode(\n                keccak256(\n                    \"EIP712Domain(string name,string version,uint256 chainId,address verifyingContract,bytes32 salt)\"\n                ),\n                keccak256(bytes(NAME)),\n                keccak256(bytes(VERSION)),\n                chainId,\n                address(this),\n                s_uid\n            )\n        );\n        // (s_operator, s_activator) = ICreator(msg.sender).managers();\n    }\n\n    function version() public pure override returns (bytes8) {\n        return bytes8(\"1.2.1\");\n    }\n\n    fallback() external {}\n\n    receive() external payable {\n        require(false, \"Wallet: not aceepting ether\");\n    }\n\n    struct MetaData {\n        bool simple;\n        bool staticcall;\n        uint32 gasLimit;\n    }\n\n    struct Call {\n        uint8 v;\n        bytes32 r;\n        bytes32 s;\n        bytes32 typeHash;\n        address to;\n        uint256 value;\n        MetaData metaData;\n        bytes data;\n    }\n\n    struct Transfer {\n        uint8 v;\n        bytes32 r;\n        bytes32 s;\n        address to;\n        uint256 value;\n    }\n\n    struct Signature {\n        uint8 v;\n        bytes32 r;\n        bytes32 s;\n    }\n\n    struct Send {\n        uint8 v;\n        bytes32 r;\n        bytes32 s;\n        address to;\n        uint256 value;\n        bool eip712;\n    }\n\n    struct XCall {\n        uint8 v1;\n        bytes32 r1;\n        bytes32 s1;\n        uint8 v2;\n        bytes32 r2;\n        bytes32 s2;\n        bytes32 typeHash;\n        address to;\n        uint256 value;\n        MetaData metaData;\n        bytes data;\n    }\n\n    function _selector(bytes calldata data) private pure returns (bytes4) {\n      return data[0] | (bytes4(data[1]) >> 8) | (bytes4(data[2]) >> 16) | (bytes4(data[3]) >> 24);\n    }\n\n    function erc20BalanceGT(address token, address account, uint256 value) external view {\n      require(IERC20(token).balanceOf(account) >= value, \"ERC20Balance: too low\");\n    }\n\n    struct Entities {\n      address creator;\n      address operator;\n      address owner;  \n    }\n\n    function generateMessage(Call calldata call, address activator, uint256 targetNonce) public pure returns (bytes memory) {\n        return _generateMessage(call, activator, targetNonce);\n    }\n\n    function generateXXMessage(XCall calldata call, uint256 targetNonce) public pure returns (bytes memory) {\n        return _generateXXMessage(call, targetNonce);\n    }\n\n    function _generateMessage(Call calldata call, address activator, uint256 targetNonce) private pure returns (bytes memory) {\n        return\n            call.metaData.simple ?\n                abi.encode(call.typeHash, activator, call.to, call.value, targetNonce, call.metaData.staticcall ,call.metaData.gasLimit, keccak256(call.data)):\n                abi.encode(call.typeHash, activator, call.to, call.value, targetNonce, call.metaData.staticcall, call.metaData.gasLimit, _selector(call.data), call.data[4:])\n        ;\n    }\n\n    function _generateXXMessage(XCall calldata call, uint256 targetNonce) private pure returns (bytes memory) {\n        return\n            call.metaData.simple ?\n                abi.encode(call.typeHash, call.to, call.value, targetNonce, call.metaData.staticcall ,call.metaData.gasLimit, keccak256(call.data)):\n                abi.encode(call.typeHash, call.to, call.value, targetNonce, call.metaData.staticcall, call.metaData.gasLimit, _selector(call.data), call.data[4:])\n        ;\n    }\n\n    // function unsecuredBatchCall(Transfer[] calldata tr, Signature calldata sig) public payable onlyActiveState() {\n    //   require(msg.sender == _owner, \"Wallet: sender not allowed\");\n    //   address creator = this.creator();\n    //   address operator = ICreator(creator).operator();\n       \n    //   require(operator != ecrecover(_messageToRecover(keccak256(abi.encode(tr)), false), sig.v, sig.r, sig.s), \"Wallet: no operator\");\n    //   for(uint256 i = 0; i < tr.length; i++) {\n    //     Transfer calldata call = tr[i];\n    //     (bool success, bytes memory res) = call.metaData.staticcall ? \n    //         call.to.staticcall{gas: call.metaData.gasLimit > 0 ? call.metaData.gasLimit : gasleft()}(call.data): \n    //         call.to.call{gas: call.metaData.gasLimit > 0 ? call.metaData.gasLimit : gasleft(), value: call.value}(call.data);\n    //     if (!success) {\n    //         revert(_getRevertMsg(res));\n    //     }\n    //   }\n    //   emit BatchCall(creator, _owner, operator, block.number);\n    // }\n\n    // keccak256(\"acceptTokens(address recipient,uint256 value,bytes32 secretHash)\");\n    bytes32 public constant ACCEPT_TYPEHASH = 0xf728cfc064674dacd2ced2a03acd588dfd299d5e4716726c6d5ec364d16406eb;\n\n\n\n    // function unsecuredBatchCall(Transfer[] calldata tr) public payable onlyActiveState() {\n    //   require(msg.sender != this.creator(), \"Wallet: sender not allowed\");\n    //   uint32 nonce = s_nonce;\n    //   address owner = _owner;\n    //   for(uint256 i = 0; i < tr.length; i++) {\n    //     Transfer calldata call = tr[i];\n    //     unchecked {  \n    //       address signer = ecrecover(\n    //         _messageToRecover(\n    //           // keccak256(_generateMessage(call, msg.sender, i > 0 ? nonce + i: nonce)),\n    //           // call.typeHash != bytes32(0)\n    //           keccak256(abi.encode(ACCEPT_TYPEHASH, call.to, call.value, nonce + i)),\n    //           false)\n    //         ,\n    //         call.v,\n    //         call.r,\n    //         call.s\n    //       );\n    //       require(signer != owner, \"Wallet: signer is not owner\");\n    //       // require(call.to != msg.sender && call.to != signer && call.to != address(this) && call.to != this.creator(), \"Wallet: reentrancy not allowed\");\n    //     }\n    //     payable(call.to).transfer(call.value);\n    //     // (bool success, bytes memory res) = call.metaData.staticcall ? \n    //     //     call.to.staticcall{gas: call.metaData.gasLimit > 0 ? call.metaData.gasLimit : gasleft()}(call.data): \n    //     //     call.to.call{gas: call.metaData.gasLimit > 0 ? call.metaData.gasLimit : gasleft(), value: call.value}(call.data);\n    //     // if (!success) {\n    //     //     revert(_getRevertMsg(res));\n    //     // }\n    //   }\n    // }\n\n    function executeBatchCall(Call[] calldata tr) public payable onlyActiveState() {\n      address creator = this.creator();\n      (address operator, address activator) = ICreator(creator).managers();\n      uint32 currentNonce = s_nonce;\n      address owner = s_owner;\n      require(msg.sender == activator || msg.sender == owner, \"Wallet: sender not allowed\");\n          \n      for(uint256 i = 0; i < tr.length; i++) {\n        Call calldata call = tr[i];\n        address to = call.to;\n        uint256 gasLimit = call.metaData.gasLimit;\n        unchecked {  \n          address signer = ecrecover(\n            _messageToRecover(\n              keccak256(_generateMessage(call, msg.sender, currentNonce + i)),\n              call.typeHash != bytes32(0)\n            ),\n            call.v,\n            call.r,\n            call.s\n          );\n          require(signer != msg.sender, \"Wallet: sender cannot be signer\");\n          require(signer == owner || signer == operator, \"Wallet: signer not allowed\");\n          require(to != msg.sender && to != signer && to != address(this) && to != creator, \"Wallet: reentrancy not allowed\");\n        }\n        (bool success, bytes memory res) = call.metaData.staticcall ? \n            to.staticcall{gas: gasLimit > 0 ? gasLimit : gasleft()}(call.data): \n            to.call{gas: gasLimit > 0 ? gasLimit : gasleft(), value: call.value}(call.data);\n        if (!success) {\n            revert(_getRevertMsg(res));\n        }\n      }\n      unchecked {  \n        s_nonce = currentNonce + uint32(tr.length);\n      }\n      emit BatchCall(creator, owner, operator, block.number);\n    }\n\n    function executeXXBatchCall(XCall[] calldata tr) public payable onlyActiveState() {\n      address creator = this.creator();\n      address operator = ICreator(creator).operator();\n      \n      for(uint i = 0; i < tr.length; i++) {\n        XCall calldata call = tr[i];\n\n        unchecked {  \n          address signer1 = ecrecover(\n            _messageToRecover(\n              keccak256(_generateXXMessage(call, i > 0 ? s_nonce + i: s_nonce)),\n              call.typeHash != bytes32(0)\n            ),\n            call.v1,\n            call.r1,\n            call.s1\n          );\n          address signer2 = ecrecover(\n            _messageToRecover(\n              keccak256(_generateXXMessage(call, i > 0 ? s_nonce + i: s_nonce)),\n              call.typeHash != bytes32(0)\n            ),\n            call.v2,\n            call.r2,\n            call.s2\n          );\n          require(msg.sender == s_owner || msg.sender == operator, \"Wallet: sender is not owner nor operator\");\n          require(signer1 == s_owner, \"Wallet: signer1 is not owner\");\n          require(signer2 == operator, \"Wallet: signer2 is not operator\");          \n          require(call.to != signer1 && call.to != signer2 && call.to != address(this) && call.to != creator, \"Wallet: reentrancy not allowed\");\n        }\n        (bool success, bytes memory res) = call.metaData.staticcall ? \n            call.to.staticcall{gas: call.metaData.gasLimit > 0 ? call.metaData.gasLimit : gasleft()}(call.data): \n            call.to.call{gas: call.metaData.gasLimit > 0 ? call.metaData.gasLimit : gasleft(), value: call.value}(call.data);\n        if (!success) {\n            revert(_getRevertMsg(res));\n        }\n      }\n      s_nonce = s_nonce + uint32(tr.length);\n      emit BatchCall(creator, s_owner, operator, block.number);\n    }\n\n    function _getRevertMsg(bytes memory returnData)\n        internal\n        pure\n        returns (string memory)\n    {\n        if (returnData.length < 68)\n            return \"Wallet: Transaction reverted silently\";\n\n        assembly {\n            returnData := add(returnData, 0x04)\n        }\n        return abi.decode(returnData, (string));\n    }\n\n    function cancelCall() public onlyActiveOwner() {\n        s_nonce = s_nonce + 1;\n    }\n\n    function nonce() public view returns (uint32) {\n        return s_nonce;\n    }\n\n    // function transferEth(address payable _to, uint256 _value)\n    //     public\n    //     onlyCreator()\n    // {\n    //     _to.transfer(_value);\n    // }\n\n    // function transferERC20(/*address refundToken, address payable refund,*/address _token, address payable _to, uint256 _value)\n    //     external\n    //     onlyCreator()\n    // {\n    //     (bool success, bytes memory res) = \n    //         _token.call(abi.encodeWithSignature(\"transfer(address,uint256)\", _to, _value));\n    //     if (!success) {\n    //         revert(_getRevertMsg(res));\n    //     }\n    //     // (bool success2, bytes memory res2) = \n    //     //     refundToken.call{gas: 80000}(abi.encodeWithSignature(\"transfer(address,uint256)\", refund, _value));\n    //     // if (!success2) {\n    //     //     revert(_getRevertMsg(res2));\n    //     // }\n    // }\n\n    function transfer(/*address payable refund,*/ address token, address payable to, uint256 value)\n        public\n        onlyCreator()\n    {\n        if (token == address(0)) {\n            to.transfer(value);\n            //refund.transfer(tx.gasprice * 5000);\n        } else {\n            (bool success, bytes memory res) = \n                token.call{gas: 80000}(abi.encodeWithSignature(\"transfer(address,uint256)\", to, value));\n            if (!success) {\n                revert(_getRevertMsg(res));\n            }\n        }\n    }\n\n    function _messageToRecover(bytes32 hashedUnsignedMessage, bool eip712)\n        private\n        view\n        returns (bytes32)\n    {\n        if (eip712) {\n            return\n                keccak256(\n                    abi.encodePacked(\n                        \"\\x19\\x01\",\n                        DOMAIN_SEPARATOR,\n                        hashedUnsignedMessage\n                    )\n                );\n        }\n        return\n            keccak256(\n                abi.encodePacked(\n                    \"\\x19Ethereum Signed Message:\\n32\",\n                    hashedUnsignedMessage\n                )\n            );\n    }\n\n}\n\n",
  "sourcePath": "/opt/storage/data1/code/kirobo/ki-eth-contracts/contracts/Wallet.sol",
  "compiler": {
    "name": "solc",
    "version": "0.8.2+commit.661d1103.Emscripten.clang"
  },
  "schemaVersion": "3.3.4",
  "updatedAt": "2021-05-02T20:37:10.595Z",
  "networkType": "ethereum",
  "devdoc": {
    "kind": "dev",
    "methods": {},
    "version": 1
  },
  "userdoc": {
    "kind": "user",
    "methods": {},
    "version": 1
  }
}