{
  "contractName": "Wallet",
  "abi": [
    {
      "anonymous": false,
      "inputs": [
        {
          "indexed": true,
          "internalType": "address",
          "name": "creator",
          "type": "address"
        },
        {
          "indexed": true,
          "internalType": "address",
          "name": "wallet",
          "type": "address"
        },
        {
          "indexed": true,
          "internalType": "address",
          "name": "activator",
          "type": "address"
        },
        {
          "indexed": false,
          "internalType": "uint8",
          "name": "state",
          "type": "uint8"
        }
      ],
      "name": "BackupActivated",
      "type": "event"
    },
    {
      "anonymous": false,
      "inputs": [
        {
          "indexed": true,
          "internalType": "address",
          "name": "creator",
          "type": "address"
        },
        {
          "indexed": true,
          "internalType": "address",
          "name": "owner",
          "type": "address"
        },
        {
          "indexed": true,
          "internalType": "address",
          "name": "wallet",
          "type": "address"
        },
        {
          "indexed": false,
          "internalType": "uint32",
          "name": "timeout",
          "type": "uint32"
        },
        {
          "indexed": false,
          "internalType": "uint40",
          "name": "timestamp",
          "type": "uint40"
        },
        {
          "indexed": false,
          "internalType": "uint8",
          "name": "state",
          "type": "uint8"
        }
      ],
      "name": "BackupChanged",
      "type": "event"
    },
    {
      "anonymous": false,
      "inputs": [
        {
          "indexed": true,
          "internalType": "address",
          "name": "creator",
          "type": "address"
        },
        {
          "indexed": true,
          "internalType": "address",
          "name": "wallet",
          "type": "address"
        },
        {
          "indexed": false,
          "internalType": "uint40",
          "name": "timestamp",
          "type": "uint40"
        },
        {
          "indexed": false,
          "internalType": "uint8",
          "name": "state",
          "type": "uint8"
        }
      ],
      "name": "BackupEnabled",
      "type": "event"
    },
    {
      "anonymous": false,
      "inputs": [
        {
          "indexed": true,
          "internalType": "address",
          "name": "creator",
          "type": "address"
        },
        {
          "indexed": true,
          "internalType": "address",
          "name": "payee",
          "type": "address"
        },
        {
          "indexed": false,
          "internalType": "uint256",
          "name": "amount",
          "type": "uint256"
        },
        {
          "indexed": false,
          "internalType": "bool",
          "name": "reward",
          "type": "bool"
        }
      ],
      "name": "BackupPayment",
      "type": "event"
    },
    {
      "anonymous": false,
      "inputs": [
        {
          "indexed": true,
          "internalType": "address",
          "name": "creator",
          "type": "address"
        },
        {
          "indexed": true,
          "internalType": "address",
          "name": "wallet",
          "type": "address"
        },
        {
          "indexed": false,
          "internalType": "uint8",
          "name": "state",
          "type": "uint8"
        }
      ],
      "name": "BackupRegistered",
      "type": "event"
    },
    {
      "anonymous": false,
      "inputs": [
        {
          "indexed": true,
          "internalType": "address",
          "name": "creator",
          "type": "address"
        },
        {
          "indexed": true,
          "internalType": "address",
          "name": "owner",
          "type": "address"
        },
        {
          "indexed": true,
          "internalType": "address",
          "name": "wallet",
          "type": "address"
        },
        {
          "indexed": false,
          "internalType": "uint8",
          "name": "state",
          "type": "uint8"
        }
      ],
      "name": "BackupRemoved",
      "type": "event"
    },
    {
      "anonymous": false,
      "inputs": [
        {
          "indexed": true,
          "internalType": "address",
          "name": "creator",
          "type": "address"
        },
        {
          "indexed": true,
          "internalType": "address",
          "name": "owner",
          "type": "address"
        },
        {
          "indexed": true,
          "internalType": "address",
          "name": "activator",
          "type": "address"
        },
        {
          "indexed": false,
          "internalType": "uint256",
          "name": "value",
          "type": "uint256"
        }
      ],
      "name": "BatchCall",
      "type": "event"
    },
    {
      "anonymous": false,
      "inputs": [
        {
          "indexed": true,
          "internalType": "address",
          "name": "creator",
          "type": "address"
        },
        {
          "indexed": true,
          "internalType": "address",
          "name": "activator",
          "type": "address"
        },
        {
          "indexed": false,
          "internalType": "address[]",
          "name": "wallets",
          "type": "address[]"
        }
      ],
      "name": "InheritanceActivated",
      "type": "event"
    },
    {
      "anonymous": false,
      "inputs": [
        {
          "indexed": true,
          "internalType": "address",
          "name": "creator",
          "type": "address"
        },
        {
          "indexed": true,
          "internalType": "address",
          "name": "owner",
          "type": "address"
        },
        {
          "indexed": false,
          "internalType": "uint40",
          "name": "timeout",
          "type": "uint40"
        },
        {
          "indexed": false,
          "internalType": "uint40",
          "name": "timestamp",
          "type": "uint40"
        }
      ],
      "name": "InheritanceChanged",
      "type": "event"
    },
    {
      "anonymous": false,
      "inputs": [
        {
          "indexed": true,
          "internalType": "address",
          "name": "creator",
          "type": "address"
        },
        {
          "indexed": true,
          "internalType": "address",
          "name": "owner",
          "type": "address"
        },
        {
          "indexed": false,
          "internalType": "address[]",
          "name": "wallets",
          "type": "address[]"
        },
        {
          "indexed": false,
          "internalType": "uint16[]",
          "name": "bps",
          "type": "uint16[]"
        }
      ],
      "name": "InheritanceHeirsChanged",
      "type": "event"
    },
    {
      "anonymous": false,
      "inputs": [
        {
          "indexed": true,
          "internalType": "address",
          "name": "creator",
          "type": "address"
        },
        {
          "indexed": true,
          "internalType": "address",
          "name": "payee",
          "type": "address"
        },
        {
          "indexed": false,
          "internalType": "uint256",
          "name": "amount",
          "type": "uint256"
        },
        {
          "indexed": false,
          "internalType": "bool",
          "name": "reward",
          "type": "bool"
        }
      ],
      "name": "InheritancePayment",
      "type": "event"
    },
    {
      "anonymous": false,
      "inputs": [
        {
          "indexed": true,
          "internalType": "address",
          "name": "creator",
          "type": "address"
        },
        {
          "indexed": true,
          "internalType": "address",
          "name": "owner",
          "type": "address"
        }
      ],
      "name": "InheritanceRemoved",
      "type": "event"
    },
    {
      "anonymous": false,
      "inputs": [
        {
          "indexed": true,
          "internalType": "address",
          "name": "creator",
          "type": "address"
        },
        {
          "indexed": true,
          "internalType": "address",
          "name": "owner",
          "type": "address"
        },
        {
          "indexed": true,
          "internalType": "address",
          "name": "pendingOwner",
          "type": "address"
        },
        {
          "indexed": false,
          "internalType": "uint8",
          "name": "state",
          "type": "uint8"
        }
      ],
      "name": "OwnershipReclaimed",
      "type": "event"
    },
    {
      "anonymous": false,
      "inputs": [
        {
          "indexed": true,
          "internalType": "address",
          "name": "creator",
          "type": "address"
        },
        {
          "indexed": true,
          "internalType": "address",
          "name": "previousOwner",
          "type": "address"
        },
        {
          "indexed": true,
          "internalType": "address",
          "name": "newOwner",
          "type": "address"
        },
        {
          "indexed": false,
          "internalType": "uint8",
          "name": "state",
          "type": "uint8"
        }
      ],
      "name": "OwnershipTransferred",
      "type": "event"
    },
    {
      "stateMutability": "nonpayable",
      "type": "fallback"
    },
    {
      "inputs": [],
      "name": "BACKUP_STATE_ACTIVATED",
      "outputs": [
        {
          "internalType": "uint8",
          "name": "",
          "type": "uint8"
        }
      ],
      "stateMutability": "view",
      "type": "function"
    },
    {
      "inputs": [],
      "name": "BACKUP_STATE_ENABLED",
      "outputs": [
        {
          "internalType": "uint8",
          "name": "",
          "type": "uint8"
        }
      ],
      "stateMutability": "view",
      "type": "function"
    },
    {
      "inputs": [],
      "name": "BACKUP_STATE_PENDING",
      "outputs": [
        {
          "internalType": "uint8",
          "name": "",
          "type": "uint8"
        }
      ],
      "stateMutability": "view",
      "type": "function"
    },
    {
      "inputs": [],
      "name": "BACKUP_STATE_REGISTERED",
      "outputs": [
        {
          "internalType": "uint8",
          "name": "",
          "type": "uint8"
        }
      ],
      "stateMutability": "view",
      "type": "function"
    },
    {
      "inputs": [],
      "name": "CHAIN_ID",
      "outputs": [
        {
          "internalType": "uint256",
          "name": "",
          "type": "uint256"
        }
      ],
      "stateMutability": "view",
      "type": "function"
    },
    {
      "inputs": [],
      "name": "DOMAIN_SEPARATOR",
      "outputs": [
        {
          "internalType": "bytes32",
          "name": "",
          "type": "bytes32"
        }
      ],
      "stateMutability": "view",
      "type": "function"
    },
    {
      "inputs": [],
      "name": "NAME",
      "outputs": [
        {
          "internalType": "string",
          "name": "",
          "type": "string"
        }
      ],
      "stateMutability": "view",
      "type": "function"
    },
    {
      "inputs": [],
      "name": "VERSION",
      "outputs": [
        {
          "internalType": "string",
          "name": "",
          "type": "string"
        }
      ],
      "stateMutability": "view",
      "type": "function"
    },
    {
      "inputs": [],
      "name": "VERSION_NUMBER",
      "outputs": [
        {
          "internalType": "uint8",
          "name": "",
          "type": "uint8"
        }
      ],
      "stateMutability": "view",
      "type": "function"
    },
    {
      "inputs": [],
      "name": "accept",
      "outputs": [],
      "stateMutability": "nonpayable",
      "type": "function"
    },
    {
      "inputs": [],
      "name": "activateBackup",
      "outputs": [],
      "stateMutability": "nonpayable",
      "type": "function"
    },
    {
      "inputs": [],
      "name": "activateInheritance",
      "outputs": [],
      "stateMutability": "nonpayable",
      "type": "function"
    },
    {
      "inputs": [],
      "name": "claimOwnership",
      "outputs": [],
      "stateMutability": "nonpayable",
      "type": "function"
    },
    {
      "inputs": [],
      "name": "clearInheritance",
      "outputs": [],
      "stateMutability": "nonpayable",
      "type": "function"
    },
    {
      "inputs": [],
      "name": "creator",
      "outputs": [
        {
          "internalType": "address",
          "name": "",
          "type": "address"
        }
      ],
      "stateMutability": "pure",
      "type": "function"
    },
    {
      "inputs": [],
      "name": "decline",
      "outputs": [],
      "stateMutability": "nonpayable",
      "type": "function"
    },
    {
      "inputs": [],
      "name": "enable",
      "outputs": [],
      "stateMutability": "nonpayable",
      "type": "function"
    },
    {
      "inputs": [],
      "name": "getBackupState",
      "outputs": [
        {
          "internalType": "uint8",
          "name": "",
          "type": "uint8"
        }
      ],
      "stateMutability": "view",
      "type": "function"
    },
    {
      "inputs": [],
      "name": "getBackupTimeLeft",
      "outputs": [
        {
          "internalType": "uint40",
          "name": "res",
          "type": "uint40"
        }
      ],
      "stateMutability": "view",
      "type": "function"
    },
    {
      "inputs": [],
      "name": "getBackupTimeout",
      "outputs": [
        {
          "internalType": "uint40",
          "name": "",
          "type": "uint40"
        }
      ],
      "stateMutability": "view",
      "type": "function"
    },
    {
      "inputs": [],
      "name": "getBackupTimestamp",
      "outputs": [
        {
          "internalType": "uint40",
          "name": "",
          "type": "uint40"
        }
      ],
      "stateMutability": "view",
      "type": "function"
    },
    {
      "inputs": [],
      "name": "getBackupWallet",
      "outputs": [
        {
          "internalType": "address",
          "name": "",
          "type": "address"
        }
      ],
      "stateMutability": "view",
      "type": "function"
    },
    {
      "inputs": [],
      "name": "getHeirs",
      "outputs": [
        {
          "internalType": "bytes32[8]",
          "name": "heirs",
          "type": "bytes32[8]"
        }
      ],
      "stateMutability": "view",
      "type": "function"
    },
    {
      "inputs": [],
      "name": "getInheritanceTimeLeft",
      "outputs": [
        {
          "internalType": "uint40",
          "name": "res",
          "type": "uint40"
        }
      ],
      "stateMutability": "view",
      "type": "function"
    },
    {
      "inputs": [],
      "name": "getInheritanceTimeout",
      "outputs": [
        {
          "internalType": "uint40",
          "name": "",
          "type": "uint40"
        }
      ],
      "stateMutability": "view",
      "type": "function"
    },
    {
      "inputs": [],
      "name": "getInheritanceTimestamp",
      "outputs": [
        {
          "internalType": "uint40",
          "name": "",
          "type": "uint40"
        }
      ],
      "stateMutability": "view",
      "type": "function"
    },
    {
      "inputs": [],
      "name": "getTotalBPS",
      "outputs": [
        {
          "internalType": "uint256",
          "name": "total",
          "type": "uint256"
        }
      ],
      "stateMutability": "view",
      "type": "function"
    },
    {
      "inputs": [],
      "name": "getTotalTransfered",
      "outputs": [
        {
          "internalType": "uint256",
          "name": "total",
          "type": "uint256"
        }
      ],
      "stateMutability": "view",
      "type": "function"
    },
    {
      "inputs": [
        {
          "internalType": "address",
          "name": "newOwner",
          "type": "address"
        },
        {
          "internalType": "address",
          "name": "newTarget",
          "type": "address"
        }
      ],
      "name": "init",
      "outputs": [],
      "stateMutability": "nonpayable",
      "type": "function"
    },
    {
      "inputs": [],
      "name": "isBackup",
      "outputs": [
        {
          "internalType": "bool",
          "name": "",
          "type": "bool"
        }
      ],
      "stateMutability": "view",
      "type": "function"
    },
    {
      "inputs": [],
      "name": "isInheritanceActivated",
      "outputs": [
        {
          "internalType": "bool",
          "name": "",
          "type": "bool"
        }
      ],
      "stateMutability": "view",
      "type": "function"
    },
    {
      "inputs": [],
      "name": "isInheritanceEnabled",
      "outputs": [
        {
          "internalType": "bool",
          "name": "",
          "type": "bool"
        }
      ],
      "stateMutability": "view",
      "type": "function"
    },
    {
      "inputs": [],
      "name": "isOwner",
      "outputs": [
        {
          "internalType": "bool",
          "name": "",
          "type": "bool"
        }
      ],
      "stateMutability": "view",
      "type": "function"
    },
    {
      "inputs": [],
      "name": "owner",
      "outputs": [
        {
          "internalType": "address",
          "name": "",
          "type": "address"
        }
      ],
      "stateMutability": "view",
      "type": "function"
    },
    {
      "inputs": [],
      "name": "reclaimOwnership",
      "outputs": [],
      "stateMutability": "nonpayable",
      "type": "function"
    },
    {
      "inputs": [],
      "name": "removeBackup",
      "outputs": [],
      "stateMutability": "nonpayable",
      "type": "function"
    },
    {
      "inputs": [
        {
          "internalType": "address",
          "name": "wallet",
          "type": "address"
        },
        {
          "internalType": "uint32",
          "name": "timeout",
          "type": "uint32"
        }
      ],
      "name": "setBackup",
      "outputs": [],
      "stateMutability": "nonpayable",
      "type": "function"
    },
    {
      "inputs": [
        {
          "internalType": "address payable[]",
          "name": "wallets",
          "type": "address[]"
        },
        {
          "internalType": "uint16[]",
          "name": "bps",
          "type": "uint16[]"
        }
      ],
      "name": "setHeirs",
      "outputs": [],
      "stateMutability": "nonpayable",
      "type": "function"
    },
    {
      "inputs": [
        {
          "internalType": "uint32",
          "name": "timeout",
          "type": "uint32"
        }
      ],
      "name": "setInheritance",
      "outputs": [],
      "stateMutability": "nonpayable",
      "type": "function"
    },
    {
      "inputs": [
        {
          "internalType": "bytes4",
          "name": "selector",
          "type": "bytes4"
        }
      ],
      "name": "supportsInterface",
      "outputs": [
        {
          "internalType": "bool",
          "name": "",
          "type": "bool"
        }
      ],
      "stateMutability": "pure",
      "type": "function"
    },
    {
      "inputs": [
        {
          "internalType": "bytes4",
          "name": "selector",
          "type": "bytes4"
        }
      ],
      "name": "supportsStaticCall",
      "outputs": [
        {
          "internalType": "bool",
          "name": "",
          "type": "bool"
        }
      ],
      "stateMutability": "pure",
      "type": "function"
    },
    {
      "inputs": [],
      "name": "target",
      "outputs": [
        {
          "internalType": "address",
          "name": "",
          "type": "address"
        }
      ],
      "stateMutability": "view",
      "type": "function"
    },
    {
      "inputs": [],
      "name": "uid",
      "outputs": [
        {
          "internalType": "bytes32",
          "name": "",
          "type": "bytes32"
        }
      ],
      "stateMutability": "view",
      "type": "function"
    },
    {
      "inputs": [
        {
          "internalType": "bytes8",
          "name": "version",
          "type": "bytes8"
        }
      ],
      "name": "upgrade",
      "outputs": [],
      "stateMutability": "nonpayable",
      "type": "function"
    },
    {
      "stateMutability": "payable",
      "type": "receive"
    },
    {
      "inputs": [],
      "name": "getBalance",
      "outputs": [
        {
          "internalType": "uint256",
          "name": "",
          "type": "uint256"
        }
      ],
      "stateMutability": "view",
      "type": "function"
    },
    {
      "inputs": [
        {
          "internalType": "address",
          "name": "token",
          "type": "address"
        }
      ],
      "name": "balanceOf20",
      "outputs": [
        {
          "internalType": "uint256",
          "name": "",
          "type": "uint256"
        }
      ],
      "stateMutability": "view",
      "type": "function"
    },
    {
      "inputs": [
        {
          "internalType": "address",
          "name": "token",
          "type": "address"
        }
      ],
      "name": "balanceOf721",
      "outputs": [
        {
          "internalType": "uint256",
          "name": "",
          "type": "uint256"
        }
      ],
      "stateMutability": "view",
      "type": "function"
    },
    {
      "inputs": [],
      "name": "migrate",
      "outputs": [],
      "stateMutability": "nonpayable",
      "type": "function"
    },
    {
      "inputs": [],
      "name": "version",
      "outputs": [
        {
          "internalType": "bytes8",
          "name": "",
          "type": "bytes8"
        }
      ],
      "stateMutability": "pure",
      "type": "function"
    },
    {
      "inputs": [
        {
          "internalType": "bytes32",
          "name": "messageHash",
          "type": "bytes32"
        }
      ],
      "name": "blockTransaction",
      "outputs": [],
      "stateMutability": "nonpayable",
      "type": "function"
    },
    {
      "inputs": [
        {
          "internalType": "bytes32",
          "name": "messageHash",
          "type": "bytes32"
        }
      ],
      "name": "unblockTransaction",
      "outputs": [],
      "stateMutability": "nonpayable",
      "type": "function"
    },
    {
      "inputs": [
        {
          "internalType": "address",
          "name": "token",
          "type": "address"
        },
        {
          "internalType": "address",
          "name": "account",
          "type": "address"
        },
        {
          "internalType": "uint256",
          "name": "value",
          "type": "uint256"
        }
      ],
      "name": "erc20BalanceGT",
      "outputs": [],
      "stateMutability": "view",
      "type": "function"
    },
    {
      "inputs": [
        {
          "components": [
            {
              "internalType": "uint8",
              "name": "v",
              "type": "uint8"
            },
            {
              "internalType": "bytes32",
              "name": "r",
              "type": "bytes32"
            },
            {
              "internalType": "bytes32",
              "name": "s",
              "type": "bytes32"
            },
            {
              "internalType": "bytes32",
              "name": "typeHash",
              "type": "bytes32"
            },
            {
              "internalType": "address",
              "name": "to",
              "type": "address"
            },
            {
              "internalType": "uint256",
              "name": "value",
              "type": "uint256"
            },
            {
              "components": [
                {
                  "internalType": "bool",
                  "name": "simple",
                  "type": "bool"
                },
                {
                  "internalType": "bool",
                  "name": "staticcall",
                  "type": "bool"
                },
                {
                  "internalType": "uint32",
                  "name": "gasLimit",
                  "type": "uint32"
                }
              ],
              "internalType": "struct Wallet.MetaData",
              "name": "metaData",
              "type": "tuple"
            },
            {
              "internalType": "bytes",
              "name": "data",
              "type": "bytes"
            }
          ],
          "internalType": "struct Wallet.Call",
          "name": "call",
          "type": "tuple"
        },
        {
          "internalType": "address",
          "name": "activator",
          "type": "address"
        },
        {
          "internalType": "uint256",
          "name": "targetNonce",
          "type": "uint256"
        }
      ],
      "name": "generateMessage",
      "outputs": [
        {
          "internalType": "bytes",
          "name": "",
          "type": "bytes"
        }
      ],
      "stateMutability": "pure",
      "type": "function"
    },
    {
      "inputs": [
        {
          "components": [
            {
              "internalType": "uint8",
              "name": "v1",
              "type": "uint8"
            },
            {
              "internalType": "bytes32",
              "name": "r1",
              "type": "bytes32"
            },
            {
              "internalType": "bytes32",
              "name": "s1",
              "type": "bytes32"
            },
            {
              "internalType": "uint8",
              "name": "v2",
              "type": "uint8"
            },
            {
              "internalType": "bytes32",
              "name": "r2",
              "type": "bytes32"
            },
            {
              "internalType": "bytes32",
              "name": "s2",
              "type": "bytes32"
            },
            {
              "internalType": "bytes32",
              "name": "typeHash",
              "type": "bytes32"
            },
            {
              "internalType": "address",
              "name": "to",
              "type": "address"
            },
            {
              "internalType": "uint256",
              "name": "value",
              "type": "uint256"
            },
            {
              "components": [
                {
                  "internalType": "bool",
                  "name": "simple",
                  "type": "bool"
                },
                {
                  "internalType": "bool",
                  "name": "staticcall",
                  "type": "bool"
                },
                {
                  "internalType": "uint32",
                  "name": "gasLimit",
                  "type": "uint32"
                }
              ],
              "internalType": "struct Wallet.MetaData",
              "name": "metaData",
              "type": "tuple"
            },
            {
              "internalType": "bytes",
              "name": "data",
              "type": "bytes"
            }
          ],
          "internalType": "struct Wallet.XCall",
          "name": "call",
          "type": "tuple"
        },
        {
          "internalType": "uint256",
          "name": "targetNonce",
          "type": "uint256"
        }
      ],
      "name": "generateXXMessage",
      "outputs": [
        {
          "internalType": "bytes",
          "name": "",
          "type": "bytes"
        }
      ],
      "stateMutability": "pure",
      "type": "function"
    },
    {
      "inputs": [
        {
          "components": [
            {
              "internalType": "uint8",
              "name": "v",
              "type": "uint8"
            },
            {
              "internalType": "bytes32",
              "name": "r",
              "type": "bytes32"
            },
            {
              "internalType": "bytes32",
              "name": "s",
              "type": "bytes32"
            },
            {
              "internalType": "bytes32",
              "name": "typeHash",
              "type": "bytes32"
            },
            {
              "internalType": "address",
              "name": "to",
              "type": "address"
            },
            {
              "internalType": "uint256",
              "name": "value",
              "type": "uint256"
            },
            {
              "components": [
                {
                  "internalType": "bool",
                  "name": "simple",
                  "type": "bool"
                },
                {
                  "internalType": "bool",
                  "name": "staticcall",
                  "type": "bool"
                },
                {
                  "internalType": "uint32",
                  "name": "gasLimit",
                  "type": "uint32"
                }
              ],
              "internalType": "struct Wallet.MetaData",
              "name": "metaData",
              "type": "tuple"
            },
            {
              "internalType": "bytes",
              "name": "data",
              "type": "bytes"
            }
          ],
          "internalType": "struct Wallet.Call[]",
          "name": "tr",
          "type": "tuple[]"
        }
      ],
      "name": "executeBatchCall",
      "outputs": [],
      "stateMutability": "payable",
      "type": "function"
    },
    {
      "inputs": [
        {
          "components": [
            {
              "internalType": "uint8",
              "name": "v1",
              "type": "uint8"
            },
            {
              "internalType": "bytes32",
              "name": "r1",
              "type": "bytes32"
            },
            {
              "internalType": "bytes32",
              "name": "s1",
              "type": "bytes32"
            },
            {
              "internalType": "uint8",
              "name": "v2",
              "type": "uint8"
            },
            {
              "internalType": "bytes32",
              "name": "r2",
              "type": "bytes32"
            },
            {
              "internalType": "bytes32",
              "name": "s2",
              "type": "bytes32"
            },
            {
              "internalType": "bytes32",
              "name": "typeHash",
              "type": "bytes32"
            },
            {
              "internalType": "address",
              "name": "to",
              "type": "address"
            },
            {
              "internalType": "uint256",
              "name": "value",
              "type": "uint256"
            },
            {
              "components": [
                {
                  "internalType": "bool",
                  "name": "simple",
                  "type": "bool"
                },
                {
                  "internalType": "bool",
                  "name": "staticcall",
                  "type": "bool"
                },
                {
                  "internalType": "uint32",
                  "name": "gasLimit",
                  "type": "uint32"
                }
              ],
              "internalType": "struct Wallet.MetaData",
              "name": "metaData",
              "type": "tuple"
            },
            {
              "internalType": "bytes",
              "name": "data",
              "type": "bytes"
            }
          ],
          "internalType": "struct Wallet.XCall[]",
          "name": "tr",
          "type": "tuple[]"
        }
      ],
      "name": "executeXXBatchCall",
      "outputs": [],
      "stateMutability": "payable",
      "type": "function"
    },
    {
      "inputs": [],
      "name": "cancelCall",
      "outputs": [],
      "stateMutability": "nonpayable",
      "type": "function"
    },
    {
      "inputs": [],
      "name": "nonce",
      "outputs": [
        {
          "internalType": "uint32",
          "name": "",
          "type": "uint32"
        }
      ],
      "stateMutability": "view",
      "type": "function"
    }
  ],
  "bytecode": "0x608060405234801561001057600080fd5b50600080546001600160a01b031916331790556156fa80620000336000396000f3fe6080604052600436106103845760003560e01c80638fd3ab80116101d1578063d6d6705611610102578063e961a203116100a0578063f99ff3e81161006f578063f99ff3e814610a30578063fdafd4eb14610a45578063fec5a18d14610a64578063ffa1ad7414610a84576103d8565b8063e961a203146109bc578063f09a4016146109dc578063f514ce36146109fc578063f808a30914610a11576103d8565b8063e2e1d83b116100dc578063e2e1d83b14610708578063e520d10414610967578063e5f9f94d14610987578063e767e137146109a7576103d8565b8063d6d670561461091f578063dfed14b514610932578063e1bc35ab14610952576103d8565b8063af1fd6f81161016f578063c1c8277f11610149578063c1c8277f146108b8578063c572f15d146108cd578063cd7dbf4a146108e2578063d4b8399214610901576103d8565b8063af1fd6f814610857578063affed0e014610873578063b809e2f914610898576103d8565b8063a3907d71116101ab578063a3907d71146107ca578063a3f4df7e146107df578063aab3291a14610822578063ab04010714610842576103d8565b80638fd3ab801461077d5780639db652f4146107925780639e091e87146107b5576103d8565b80633d562561116102b657806350ea2297116102545780638025e303116102235780638025e303146105ec57806385e1f4d0146107285780638da5cb5b1461073e5780638f32d59b1461075c576103d8565b806350ea2297146106a557806354fd4d50146106c55780637396f189146106e85780637db683ee14610708576103d8565b8063447046bf11610290578063447046bf1461063b57806349629f08146106595780634e71e0c81461066e5780634eae51f414610683576103d8565b80633d562561146105ec5780633e95e62c14610613578063413d4f2314610628576103d8565b806323443944116103235780632a5dc72a116102fd5780632a5dc72a146105975780632e262542146105ac5780633644e515146105c157806336d62d40146105d7576103d8565b8063234439441461054d57806325b50934146105625780632852b71c14610582576103d8565b806303c01e681161035f57806303c01e68146104d857806312065fe0146104f9578063120e860c1461051657806318f9c6901461052b576103d8565b806253d7b01461044657806301ffc9a71461048057806302d05d3f146104b0576103d8565b366103d85760405162461bcd60e51b815260206004820152601b60248201527f57616c6c65743a206e6f7420616365657074696e67206574686572000000000060448201526064015b60405180910390fd5b005b3480156103e457600080fd5b506000356001600160e01b031916630a85bd0160e11b148061041857506000356001600160e01b03191663f23a6e6160e01b145b8061043557506000356001600160e01b03191663bc197c8160e01b145b156103d65760046000803760206000f35b34801561045257600080fd5b50601054600160381b900464ffffffffff165b60405164ffffffffff90911681526020015b60405180910390f35b34801561048c57600080fd5b506104a061049b366004615118565b610ab1565b6040519015158152602001610477565b3480156104bc57600080fd5b5060005b6040516001600160a01b039091168152602001610477565b3480156104e457600080fd5b506104a06003546001600160a01b0316331490565b34801561050557600080fd5b50475b604051908152602001610477565b34801561052257600080fd5b506103d6610ae8565b34801561053757600080fd5b50600354600160c81b900463ffffffff16610465565b34801561055957600080fd5b506103d6610fdb565b34801561056e57600080fd5b506104a061057d366004615118565b611075565b34801561058e57600080fd5b506103d66110fc565b3480156105a357600080fd5b50601154610508565b3480156105b857600080fd5b506103d661126e565b3480156105cd57600080fd5b5061050860065481565b3480156105e357600080fd5b50610508611463565b3480156105f857600080fd5b50610601600181565b60405160ff9091168152602001610477565b34801561061f57600080fd5b50610601600381565b6103d66106363660046150a0565b6114f6565b34801561064757600080fd5b506003546001600160a01b03166104c0565b34801561066557600080fd5b506103d6611afc565b34801561067a57600080fd5b506103d66121f8565b34801561068f57600080fd5b506106986124af565b6040516104779190615334565b3480156106b157600080fd5b506103d66106c0366004615294565b612592565b3480156106d157600080fd5b5060405164312e322e3160d81b8152602001610477565b3480156106f457600080fd5b506103d6610703366004614fa9565b61278f565b34801561071457600080fd5b50610508610723366004614ef9565b612c03565b34801561073457600080fd5b5061050860075481565b34801561074a57600080fd5b506000546001600160a01b03166104c0565b34801561076857600080fd5b506104a06000546001600160a01b0316331490565b34801561078957600080fd5b506103d6612c7d565b34801561079e57600080fd5b50600354600160a01b900464ffffffffff16610465565b3480156107c157600080fd5b50610465612e48565b3480156107d657600080fd5b506103d6612eec565b3480156107eb57600080fd5b506108156040518060400160405280600a8152602001694b69726f626f204f435760b01b81525081565b604051610477919061544c565b34801561082e57600080fd5b5061081561083d3660046151f8565b6130b9565b34801561084e57600080fd5b506103d66130ce565b34801561086357600080fd5b5060105464ffffffffff16610465565b34801561087f57600080fd5b5060055460405163ffffffff9091168152602001610477565b3480156108a457600080fd5b506103d66108b3366004615100565b613176565b3480156108c457600080fd5b506103d66131d2565b3480156108d957600080fd5b5061046561334d565b3480156108ee57600080fd5b50601054600160281b900460ff166104a0565b34801561090d57600080fd5b506001546001600160a01b03166104c0565b6103d661092d3660046150a0565b6133df565b34801561093e57600080fd5b506103d661094d366004614f69565b613b18565b34801561095e57600080fd5b50610601600281565b34801561097357600080fd5b506103d6610982366004614fdd565b613bdf565b34801561099357600080fd5b506103d66109a2366004615100565b614369565b3480156109b357600080fd5b506103d6614415565b3480156109c857600080fd5b506108156109d7366004615234565b6144b0565b3480156109e857600080fd5b506103d66109f7366004614f31565b6144c3565b348015610a0857600080fd5b50600454610508565b348015610a1d57600080fd5b50600354600160e81b900460ff16610601565b348015610a3c57600080fd5b50610601600081565b348015610a5157600080fd5b50601054600160301b900460ff166104a0565b348015610a7057600080fd5b506103d6610a7f366004615140565b614604565b348015610a9057600080fd5b50610815604051806040016040528060018152602001603160f81b81525081565b60006001600160e01b031982166301ffc9a760e01b1480610ae257506001600160e01b03198216630271189760e51b145b92915050565b600354600160e81b900460ff16600214610b3e576040805162461bcd60e51b8152602060048201526012602482015271189858dadd5c081b9bdd08195b98589b195960721b604482015290519081900360640190fd5b6003546001600160a01b0316610b8e576040805162461bcd60e51b815260206004820152601060248201526f189858dadd5c081b9bdd08195e1a5cdd60821b604482015290519081900360640190fd5b610b9661334d565b64ffffffffff1615610bdb576040805162461bcd60e51b8152602060048201526009602482015268746f6f206561726c7960b81b604482015290519081900360640190fd5b60038054600160e81b900460ff1614610c02576003805460ff60e81b1916600360e81b1790555b600354604080516302d05d3f60e01b8152905133926001600160a01b03169130916302d05d3f91600480820192602092909190829003018186803b158015610c4957600080fd5b505afa158015610c5d573d6000803e3d6000fd5b505050506040513d6020811015610c7357600080fd5b505160035460408051600160e81b90920460ff168252516001600160a01b03909216917fd4e12feccfc0af60abe3d9f07eaf999abd3329b4570bf80fdb4d5019f7f823d8916020908290030190a460004790506000306001600160a01b03166302d05d3f6040518163ffffffff1660e01b815260040160206040518083038186803b158015610d0157600080fd5b505afa158015610d15573d6000803e3d6000fd5b505050506040513d6020811015610d2b57600080fd5b5051604080516307dc0d1d60e41b815290516001600160a01b0390921691637dc0d1d091600480820192602092909190829003018186803b158015610d6f57600080fd5b505afa158015610d83573d6000803e3d6000fd5b505050506040513d6020811015610d9957600080fd5b50516040805163319a11df60e11b815290516001600160a01b039092169163633423be91600480820192602092909190829003018186803b158015610ddd57600080fd5b505afa158015610df1573d6000803e3d6000fd5b505050506040513d6020811015610e0757600080fd5b50516040519091506001600160a01b038216906064840480156108fc02916000818181858888f1935050505015610eef57806001600160a01b0316306001600160a01b03166302d05d3f6040518163ffffffff1660e01b815260040160206040518083038186803b158015610e7b57600080fd5b505afa158015610e8f573d6000803e3d6000fd5b505050506040513d6020811015610ea557600080fd5b50516001600160a01b03167f6e66b5d043b2434fe7d48f9b96e07c1fa4d6c6a7d7ac43fc1afc30267b36869860648560408051929091048252600060208301528051918290030190a35b60405133906103e8840480156108fc02916000818181858888f19350505050158015610f1f573d6000803e3d6000fd5b50336001600160a01b0316306001600160a01b03166302d05d3f6040518163ffffffff1660e01b815260040160206040518083038186803b158015610f6357600080fd5b505afa158015610f77573d6000803e3d6000fd5b505050506040513d6020811015610f8d57600080fd5b50516001600160a01b03167f6e66b5d043b2434fe7d48f9b96e07c1fa4d6c6a7d7ac43fc1afc30267b3686986103e88560408051929091048252600160208301528051918290030190a35050565b6000546001600160a01b031633148015611001575060038054600160e81b900460ff1614155b611045576040805162461bcd60e51b815260206004820152601060248201526f3737ba1030b1ba34bb329037bbb732b960811b604482015290519081900360640190fd5b6005546110599063ffffffff16600161556f565b6005805463ffffffff191663ffffffff92909216919091179055565b60006001600160e01b03198216630b135d3f60e11b14806110a657506001600160e01b031982166301ffc9a760e01b145b806110c157506001600160e01b03198216630a85bd0160e11b145b806110dc57506001600160e01b0319821663f23a6e6160e01b145b80610ae257506001600160e01b0319821663bc197c8160e01b1492915050565b6003546001600160a01b03163314611148576040805162461bcd60e51b815260206004820152600a60248201526906e6f74206261636b75760b41b604482015290519081900360640190fd5b600354600160e81b900460ff161561119c576040805162461bcd60e51b81526020600482015260126024820152716261636b7570206e6f742070656e64696e6760701b604482015290519081900360640190fd5b6003805460ff60e81b198116600160e81b17909155604080516302d05d3f60e01b815290516001600160a01b039092169130916302d05d3f916004808301926020929190829003018186803b1580156111f457600080fd5b505afa158015611208573d6000803e3d6000fd5b505050506040513d602081101561121e57600080fd5b505160035460408051600160e81b90920460ff168252516001600160a01b03909216917f9b13e751ba276b9ecf994e9ecc38b895af7cded05c07f20e506f4a57f98dc3d3916020908290030190a3565b6000546001600160a01b031633148015611294575060038054600160e81b900460ff1614155b6112d8576040805162461bcd60e51b815260206004820152601060248201526f3737ba1030b1ba34bb329037bbb732b960811b604482015290519081900360640190fd5b336001600160a01b0316306001600160a01b03166302d05d3f6040518163ffffffff1660e01b815260040160206040518083038186803b15801561131b57600080fd5b505afa15801561132f573d6000803e3d6000fd5b505050506040513d602081101561134557600080fd5b50516040516001600160a01b03909116907f386ee292f5f7e1923094e3f15e2c182b0ffaa3b312df32094e994d8e0f1d393a90600090a360105464ffffffffff161561139a576010805464ffffffffff191690555b601054600160281b900460ff16156113bc576010805465ff0000000000191690555b601054600160301b900460ff16156113df576010805466ff000000000000191690555b601154156113ed5760006011555b60005b600881101561146057600060088281811061141b57634e487b7160e01b600052603260045260246000fd5b0180549091506001600160a01b0316611432575050565b8054600160a01b900460ff161561144f57805460ff60a01b191681555b5061145981615643565b90506113f0565b50565b6000805b60088110156114f257600060088281811061149257634e487b7160e01b600052603260045260246000fd5b01546001600160a01b031614156114a7575090565b6008818181106114c757634e487b7160e01b600052603260045260246000fd5b01546114de90600160a81b900461ffff1683615557565b9150806114ea81615643565b915050611467565b5090565b60038054600160e81b900460ff16141561154a576040805162461bcd60e51b815260206004820152601060248201526f6e6f742061637469766520737461746560801b604482015290519081900360640190fd5b6000306001600160a01b03166302d05d3f6040518163ffffffff1660e01b815260040160206040518083038186803b15801561158557600080fd5b505afa158015611599573d6000803e3d6000fd5b505050506040513d601f19601f820116820180604052508101906115bd9190614f15565b90506000816001600160a01b0316634ecea9926040518163ffffffff1660e01b815260040160206040518083038186803b1580156115fa57600080fd5b505afa15801561160e573d6000803e3d6000fd5b505050506040513d601f19601f820116820180604052508101906116329190614f15565b60055460005491925063ffffffff16906001600160a01b039081169083163314806116655750336001600160a01b038216145b6116b15760405162461bcd60e51b815260206004820152601a60248201527f57616c6c65743a2073656e646572206e6f7420616c6c6f77656400000000000060448201526064016103cd565b60005b85811015611a9657368787838181106116dd57634e487b7160e01b600052603260045260246000fd5b90506020028101906116ef91906154a4565b9050600061170360a0830160808401614ef9565b9050600061171961012084016101008501615294565b63ffffffff1690506000600161174f61173b8633898c63ffffffff1601614722565b80516020909101206060870135151561489f565b61175c60208701876152ae565b604080516000815260208181018084529490945260ff9092168282015291870135606082015290860135608082015260a0016020604051602081039080840390855afa1580156117b0573d6000803e3d6000fd5b5050604051601f1901519150506001600160a01b0381163314156118165760405162461bcd60e51b815260206004820152601f60248201527f57616c6c65743a2073656e6465722063616e6e6f74206265207369676e65720060448201526064016103cd565b856001600160a01b0316816001600160a01b031614806118475750876001600160a01b0316816001600160a01b0316145b6118935760405162461bcd60e51b815260206004820152601a60248201527f57616c6c65743a207369676e6572206e6f7420616c6c6f77656400000000000060448201526064016103cd565b6001600160a01b03831633148015906118be5750806001600160a01b0316836001600160a01b031614155b80156118d357506001600160a01b0383163014155b80156118f15750886001600160a01b0316836001600160a01b031614155b61193d5760405162461bcd60e51b815260206004820152601e60248201527f57616c6c65743a207265656e7472616e6379206e6f7420616c6c6f776564000060448201526064016103cd565b50600080611952610100860160e087016150e0565b6119da57836001600160a01b03166000841161196e575a611970565b835b60a087013561198361012089018961545f565b604051611991929190615324565b600060405180830381858888f193505050503d80600081146119cf576040519150601f19603f3d011682016040523d82523d6000602084013e6119d4565b606091505b50611a53565b836001600160a01b0316600084116119f2575a6119f4565b835b611a0261012088018861545f565b604051611a10929190615324565b6000604051808303818686fa925050503d8060008114611a4c576040519150601f19603f3d011682016040523d82523d6000602084013e611a51565b606091505b505b9150915081611a7e57611a6581614938565b60405162461bcd60e51b81526004016103cd919061544c565b50505050508080611a8e90615643565b9150506116b4565b506005805463ffffffff191686840163ffffffff161790556040514381526001600160a01b0384811691838216918716907f38634a1857869887aba8b9dde8624489eb6dab90d7f84bdc133c95a2523b90739060200160405180910390a4505050505050565b601054600160281b900460ff16611b5a576040805162461bcd60e51b815260206004820152601a60248201527f696e6865726974616e6365206973206e6f7420656e61626c6564000000000000604482015290519081900360640190fd5b601054600160301b900460ff1615611bb9576040805162461bcd60e51b815260206004820152601860248201527f696e6865726974616e6365206973206163746976617465640000000000000000604482015290519081900360640190fd5b611bc1612e48565b64ffffffffff1615611c06576040805162461bcd60e51b8152602060048201526009602482015268746f6f206561726c7960b81b604482015290519081900360640190fd5b6010805466ff0000000000001916600160301b179055604080516302d05d3f60e01b81529051479160009130916302d05d3f916004808301926020929190829003018186803b158015611c5857600080fd5b505afa158015611c6c573d6000803e3d6000fd5b505050506040513d6020811015611c8257600080fd5b5051604080516307dc0d1d60e41b815290516001600160a01b0390921691637dc0d1d091600480820192602092909190829003018186803b158015611cc657600080fd5b505afa158015611cda573d6000803e3d6000fd5b505050506040513d6020811015611cf057600080fd5b50516040805163319a11df60e11b815290516001600160a01b039092169163633423be91600480820192602092909190829003018186803b158015611d3457600080fd5b505afa158015611d48573d6000803e3d6000fd5b505050506040513d6020811015611d5e57600080fd5b505190506001600160a01b0381166108fc611d7a606485615597565b6040518115909202916000818181858888f1935050505015611e5257806001600160a01b0316306001600160a01b03166302d05d3f6040518163ffffffff1660e01b815260040160206040518083038186803b158015611dd957600080fd5b505afa158015611ded573d6000803e3d6000fd5b505050506040513d6020811015611e0357600080fd5b50516001600160a01b03167f0d0176dbbceb582bb24dc965bd866421e9de5afe8bb827dc2a48df2826ad40fd611e3a606486615597565b60408051918252600060208301528051918290030190a35b336108fc611e626103e885615597565b6040518115909202916000818181858888f19350505050158015611e8a573d6000803e3d6000fd5b50336001600160a01b0316306001600160a01b03166302d05d3f6040518163ffffffff1660e01b815260040160206040518083038186803b158015611ece57600080fd5b505afa158015611ee2573d6000803e3d6000fd5b505050506040513d6020811015611ef857600080fd5b50516001600160a01b03167f0d0176dbbceb582bb24dc965bd866421e9de5afe8bb827dc2a48df2826ad40fd611f306103e886615597565b60408051918252600160208301528051918290030190a347915060005b6008811015612018576000600882818110611f7857634e487b7160e01b600052603260045260246000fd5b0180549091506001600160a01b0316611f915750612018565b8054600160a81b900461ffff16156120055780546001600160a01b038116906108fc9061271090611fcd90600160a81b900461ffff16886155b7565b611fd79190615597565b6040518115909202916000818181858888f18554901515600160a01b0260ff60a01b19909116178555505050505b508061201081615643565b915050611f4d565b61202247846155d6565b60115560008167ffffffffffffffff81111561204e57634e487b7160e01b600052604160045260246000fd5b604051908082528060200260200182016040528015612077578160200160208202803683370190505b50905060005b828110156121045760006008828181106120a757634e487b7160e01b600052603260045260246000fd5b01805484519192506001600160a01b0316908490849081106120d957634e487b7160e01b600052603260045260246000fd5b6001600160a01b039092166020928302919091019091015250806120fc81615643565b91505061207d565b50336001600160a01b0316306001600160a01b03166302d05d3f6040518163ffffffff1660e01b815260040160206040518083038186803b15801561214857600080fd5b505afa15801561215c573d6000803e3d6000fd5b505050506040513d602081101561217257600080fd5b505160408051602080825285518282015285516001600160a01b03909416937f7ad28155b9b8629f2cd82bb7d184fbd7726696408380767a0cf3ef763209da8a93879392839291830191858201910280838360005b838110156121df5781810151838201526020016121c7565b505050509050019250505060405180910390a350505050565b6003546001600160a01b03163314612244576040805162461bcd60e51b815260206004820152600a60248201526906e6f74206261636b75760b41b604482015290519081900360640190fd5b60038054600160e81b900460ff161461229b576040805162461bcd60e51b8152602060048201526014602482015273189858dadd5c081b9bdd081858dd1a5d985d195960621b604482015290519081900360640190fd5b6003805460ff60e81b198116909155600054604080516302d05d3f60e01b815290516001600160a01b03938416939092169130916302d05d3f916004808301926020929190829003018186803b1580156122f457600080fd5b505afa158015612308573d6000803e3d6000fd5b505050506040513d602081101561231e57600080fd5b505160035460408051600160e81b90920460ff168252516001600160a01b03909216917fa477fcc649c392c3ab5443bd6c7e532261a90d5e3f29376513d5275e277ddae3916020908290030190a46003546000546001600160a01b0390811691161461245057306001600160a01b03166302d05d3f6040518163ffffffff1660e01b815260040160206040518083038186803b1580156123bd57600080fd5b505afa1580156123d1573d6000803e3d6000fd5b505050506040513d60208110156123e757600080fd5b50516003546040805163bf3b110160e01b81526001600160a01b0392831660048201529051919092169163bf3b110191602480830192600092919082900301818387803b15801561243757600080fd5b505af115801561244b573d6000803e3d6000fd5b505050505b600380546001600160a01b03191690819055600160c81b900463ffffffff1615612485576003805463ffffffff60c81b191690555b600354600160a01b900464ffffffffff16156124ad576003805464ffffffffff60a01b191690555b565b6124b7614df9565b60005b60088110156114f25760006008828181106124e557634e487b7160e01b600052603260045260246000fd5b0180549091506001600160a01b03166124fd57505090565b8054600160a81b810460481b6affff0000000000000000001690600160a01b900460ff1661252c576000612532565b600160581b5b8254612550919060601b6bffffffffffffffffffffffff1916615557565b61255a9190615557565b83836008811061257a57634e487b7160e01b600052603260045260246000fd5b6020020152508061258a81615643565b9150506124ba565b6000546001600160a01b0316331480156125b8575060038054600160e81b900460ff1614155b6125fc576040805162461bcd60e51b815260206004820152601060248201526f3737ba1030b1ba34bb329037bbb732b960811b604482015290519081900360640190fd5b601054600160301b900460ff1615612653576040805162461bcd60e51b81526020600482015260156024820152741a5b9a195c9a5d185b98d9481858dd1a5d985d1959605a1b604482015290519081900360640190fd5b601054429064ffffffffff1663ffffffff831614612682576010805464ffffffffff191663ffffffff84161790555b601054600160281b900460ff1615156001146126ae576010805465ff00000000001916600160281b1790555b601080546bffffffffff000000000000001916600160381b64ffffffffff841602179055604080516302d05d3f60e01b81529051339130916302d05d3f91600480820192602092909190829003018186803b15801561270c57600080fd5b505afa158015612720573d6000803e3d6000fd5b505050506040513d602081101561273657600080fd5b50516040805163ffffffff8616815264ffffffffff8516602082015281516001600160a01b03909316927f219376dc9430460f83af8f607e5c09085e95b4d8096b01b231afc1ee7958d5e2929181900390910190a35050565b6000546001600160a01b0316331480156127b5575060038054600160e81b900460ff1614155b6127f9576040805162461bcd60e51b815260206004820152601060248201526f3737ba1030b1ba34bb329037bbb732b960811b604482015290519081900360640190fd5b6001600160a01b038216612840576040805162461bcd60e51b815260206004820152600960248201526806e6f206261636b75760bc1b604482015290519081900360640190fd5b6000546001600160a01b0383811691161415612895576040805162461bcd60e51b815260206004820152600f60248201526e3130b1b5bab81034b99037bbb732b960891b604482015290519081900360640190fd5b6003546001600160a01b03838116911614612ab2576003546001600160a01b03161561298757306001600160a01b03166302d05d3f6040518163ffffffff1660e01b815260040160206040518083038186803b1580156128f457600080fd5b505afa158015612908573d6000803e3d6000fd5b505050506040513d602081101561291e57600080fd5b50516003546040805163cf2f774160e01b81526001600160a01b0392831660048201529051919092169163cf2f774191602480830192600092919082900301818387803b15801561296e57600080fd5b505af1158015612982573d6000803e3d6000fd5b505050505b600380546001600160a01b0319166001600160a01b038416179055604080516302d05d3f60e01b8152905130916302d05d3f916004808301926020929190829003018186803b1580156129d957600080fd5b505afa1580156129ed573d6000803e3d6000fd5b505050506040513d6020811015612a0357600080fd5b50516040805163a196de8360e01b81526001600160a01b0385811660048301529151919092169163a196de8391602480830192600092919082900301818387803b158015612a5057600080fd5b505af1158015612a64573d6000803e3d6000fd5b5050600354600160e81b900460ff16159150612a8a9050576003805460ff60e81b191690555b600354600160a01b900464ffffffffff1615612ab2576003805464ffffffffff60a01b191690555b60035463ffffffff828116600160c81b9092041614612aea576003805463ffffffff60c81b1916600160c81b63ffffffff8416021790555b600354600160e81b900460ff1660021415612b20576003805464ffffffffff60a01b1916600160a01b64ffffffffff4216021790555b600054604080516302d05d3f60e01b815290516001600160a01b0380861693169130916302d05d3f91600480820192602092909190829003018186803b158015612b6957600080fd5b505afa158015612b7d573d6000803e3d6000fd5b505050506040513d6020811015612b9357600080fd5b50516003546040805163ffffffff87168152600160a01b830464ffffffffff166020820152600160e81b90920460ff1682820152516001600160a01b03909216917fea8790173f54c9b092a2e436f8aa3840b46da469df3b5161893625d09bfc54e5916060908290030190a45050565b6040516370a0823160e01b81523060048201526000906001600160a01b038316906370a082319060240160206040518083038186803b158015612c4557600080fd5b505afa158015612c59573d6000803e3d6000fd5b505050506040513d601f19601f82011682018060405250810190610ae2919061527c565b306001600160a01b03166302d05d3f6040518163ffffffff1660e01b815260040160206040518083038186803b158015612cb657600080fd5b505afa158015612cca573d6000803e3d6000fd5b505050506040513d6020811015612ce057600080fd5b50516001600160a01b03163314612d2c576040805162461bcd60e51b815260206004820152600b60248201526a3737ba1031b932b0ba37b960a91b604482015290519081900360640190fd5b4630601060c0612d3d6001436155d6565b40901b901c17600160f81b1760048190556007829055604080518082018252600a8152694b69726f626f204f435760b01b6020918201528151808301835260018152603160f81b908201529051612e2a927fd87cd6ef79d4e2b95e15ce8abf732db51ec771f1ca2edccf22a46c729ac56472927fddc2fe95794a7a4bc7ff98c0a711a262fc20ca1b842849f62c342e4818c148cd927fc89efdaa54c0f20c7adf612882df0950f5a951637e0307cdcb4c672f298b8bc69287923092019586526020860194909452604085019290925260608401526001600160a01b0316608083015260a082015260c00190565b60408051601f19818403018152919052805160209091012060065550565b6010546000904290600160381b900464ffffffffff1615801590612e80575060105464ffffffffff600160381b909104811690821610155b8015612eb25750601054612ea290600160381b900464ffffffffff16826155ed565b60105464ffffffffff9182169116115b156114f257601054612ed290600160381b900464ffffffffff16826155ed565b601054612ee6919064ffffffffff166155ed565b91505090565b6000546001600160a01b0316331480612f0f57506003546001600160a01b031633145b612f60576040805162461bcd60e51b815260206004820152601860248201527f6e656974686572206f776e6572206e6f72206261636b75700000000000000000604482015290519081900360640190fd5b600354600160e81b900460ff16600114612fb9576040805162461bcd60e51b8152602060048201526015602482015274189858dadd5c081b9bdd081c9959da5cdd195c9959605a1b604482015290519081900360640190fd5b6000426003805464ffffffffff8316600160a01b0269ff00000000ffffffffff60a01b1990911617600160e91b1790819055604080516302d05d3f60e01b815290519293506001600160a01b039091169130916302d05d3f916004808301926020929190829003018186803b15801561303157600080fd5b505afa158015613045573d6000803e3d6000fd5b505050506040513d602081101561305b57600080fd5b50516003546040805164ffffffffff86168152600160e81b90920460ff16602083015280516001600160a01b03909316927f6108265a31b1c1ca2c7f424e7e33437d70ea2dbefdd8ee475060d1bdd0a85bf39281900390910190a350565b60606130c6848484614722565b949350505050565b6003546001600160a01b0316331461311a576040805162461bcd60e51b815260206004820152600a60248201526906e6f74206261636b75760b41b604482015290519081900360640190fd5b600354600160e81b900460ff161561316e576040805162461bcd60e51b81526020600482015260126024820152716261636b7570206e6f742070656e64696e6760701b604482015290519081900360640190fd5b6124ad61497d565b6000546001600160a01b031633146131c1576040805162461bcd60e51b81526020600482015260096024820152683737ba1037bbb732b960b91b604482015290519081900360640190fd5b600090815260026020526040812055565b6000546001600160a01b0316331461321d576040805162461bcd60e51b81526020600482015260096024820152683737ba1037bbb732b960b91b604482015290519081900360640190fd5b60038054600160e81b900460ff1614613274576040805162461bcd60e51b8152602060048201526014602482015273189858dadd5c081b9bdd081858dd1a5d985d195960621b604482015290519081900360640190fd5b60038054600160e81b60ff60e81b19821617909155600054604080516302d05d3f60e01b815290516001600160a01b03938416939092169130916302d05d3f916004808301926020929190829003018186803b1580156132d357600080fd5b505afa1580156132e7573d6000803e3d6000fd5b505050506040513d60208110156132fd57600080fd5b505160035460408051600160e81b90920460ff168252516001600160a01b03909216917f7bb264af598eac77bc57cdad3b10f6eddc737a116ef45e864d3626346dcb23b4916020908290030190a4565b6003546000904290600160a01b900464ffffffffff1615801590613385575060035464ffffffffff600160a01b909104811690821610155b80156133b25750600354600160a01b810464ffffffffff908116830316600160c81b90910463ffffffff16115b156114f257600354600160a01b810464ffffffffff16909103600160c81b90910463ffffffff1603919050565b60038054600160e81b900460ff161415613433576040805162461bcd60e51b815260206004820152601060248201526f6e6f742061637469766520737461746560801b604482015290519081900360640190fd5b6000306001600160a01b03166302d05d3f6040518163ffffffff1660e01b815260040160206040518083038186803b15801561346e57600080fd5b505afa158015613482573d6000803e3d6000fd5b505050506040513d601f19601f820116820180604052508101906134a69190614f15565b90506000816001600160a01b0316634ecea9926040518163ffffffff1660e01b815260040160206040518083038186803b1580156134e357600080fd5b505afa1580156134f7573d6000803e3d6000fd5b505050506040513d601f19601f8201168201806040525081019061351b9190614f15565b6000549091506001600160a01b031633148061353f5750336001600160a01b038216145b61359d5760405162461bcd60e51b815260206004820152602960248201527f57616c6c65743a2073656e646572206973206e6f74206f776e6572206e6f722060448201526830b1ba34bb30ba37b960b91b60648201526084016103cd565b60005b83811015613a9a57368585838181106135c957634e487b7160e01b600052603260045260246000fd5b90506020028101906135db91906154c4565b600554909150600090600190613612906135fe90859063ffffffff168701614b9a565b805160209091012060c0850135151561489f565b61361f60208501856152ae565b604080516000815260208181018084529490945260ff9092168282015291850135606082015290840135608082015260a0016020604051602081039080840390855afa158015613673573d6000803e3d6000fd5b5050604051601f190151600554909250600091506001906136b5906136a190869063ffffffff168801614b9a565b805160209091012060c0860135151561489f565b6136c560808601606087016152ae565b6040805160008152602081018083529390935260ff90911690820152608080860135606083015260a08087013591830191909152016020604051602081039080840390855afa15801561371c573d6000803e3d6000fd5b5050604051601f1901516000549092506001600160a01b0384811691161490506137885760405162461bcd60e51b815260206004820152601c60248201527f57616c6c65743a207369676e657231206973206e6f74206f776e65720000000060448201526064016103cd565b846001600160a01b0316816001600160a01b0316146137e95760405162461bcd60e51b815260206004820181905260248201527f57616c6c65743a207369676e657232206973206e6f7420616374697661746f7260448201526064016103cd565b6001600160a01b038216613804610100850160e08601614ef9565b6001600160a01b03161415801561383d57506001600160a01b038116613831610100850160e08601614ef9565b6001600160a01b031614155b8015613862575030613856610100850160e08601614ef9565b6001600160a01b031614155b801561389057506001600160a01b038616613884610100850160e08601614ef9565b6001600160a01b031614155b6138dc5760405162461bcd60e51b815260206004820152601e60248201527f57616c6c65743a207265656e7472616e6379206e6f7420616c6c6f776564000060448201526064016103cd565b5060009050806138f4610160840161014085016150e0565b6139bb57613909610100840160e08501614ef9565b6001600160a01b0316600061392661018086016101608701615294565b63ffffffff1611613937575a613950565b61394961018085016101608601615294565b63ffffffff165b61010085013561396461018087018761545f565b604051613972929190615324565b600060405180830381858888f193505050503d80600081146139b0576040519150601f19603f3d011682016040523d82523d6000602084013e6139b5565b606091505b50613a72565b6139cc610100840160e08501614ef9565b6001600160a01b031660006139e961018086016101608701615294565b63ffffffff16116139fa575a613a13565b613a0c61018085016101608601615294565b63ffffffff165b613a2161018086018661545f565b604051613a2f929190615324565b6000604051808303818686fa925050503d8060008114613a6b576040519150601f19603f3d011682016040523d82523d6000602084013e613a70565b606091505b505b9150915081613a8457611a6581614938565b5050508080613a9290615643565b9150506135a0565b50600554613aaf90849063ffffffff1661556f565b6005805463ffffffff191663ffffffff929092169190911790556000546040514381526001600160a01b0383811692811691908516907f38634a1857869887aba8b9dde8624489eb6dab90d7f84bdc133c95a2523b90739060200160405180910390a450505050565b6040516370a0823160e01b81526001600160a01b0383811660048301528291908516906370a082319060240160206040518083038186803b158015613b5c57600080fd5b505afa158015613b70573d6000803e3d6000fd5b505050506040513d601f19601f82011682018060405250810190613b94919061527c565b1015613bda5760405162461bcd60e51b8152602060048201526015602482015274455243323042616c616e63653a20746f6f206c6f7760581b60448201526064016103cd565b505050565b6000546001600160a01b031633148015613c05575060038054600160e81b900460ff1614155b613c49576040805162461bcd60e51b815260206004820152601060248201526f3737ba1030b1ba34bb329037bbb732b960811b604482015290519081900360640190fd5b601054600160301b900460ff1615613ca0576040805162461bcd60e51b81526020600482015260156024820152741a5b9a195c9a5d185b98d9481858dd1a5d985d1959605a1b604482015290519081900360640190fd5b600882511115613ce8576040805162461bcd60e51b815260206004820152600e60248201526d746f6f206d616e7920686569727360901b604482015290519081900360640190fd5b8051825114613d3e576040805162461bcd60e51b815260206004820152601960248201527f686569727320616e642062707320646f6e2774206d6174636800000000000000604482015290519081900360640190fd5b6000805b8351811015613e9b57828181518110613d6b57634e487b7160e01b600052603260045260246000fd5b602002602001015161ffff1682613d829190615557565b915060006001600160a01b0316848281518110613daf57634e487b7160e01b600052603260045260246000fd5b60200260200101516001600160a01b03161415613dfd576040805162461bcd60e51b81526020600482015260076024820152663737903432b4b960c91b604482015290519081900360640190fd5b306001600160a01b0316848281518110613e2757634e487b7160e01b600052603260045260246000fd5b60200260200101516001600160a01b03161415613e8b576040805162461bcd60e51b815260206004820152601860248201527f63757272656e7420636f6e747261637420697320686569720000000000000000604482015290519081900360640190fd5b613e9481615643565b9050613d42565b612710821115613edf576040805162461bcd60e51b815260206004820152600a602482015269746f74616c3e3130302560b01b604482015290519081900360640190fd5b5060005b835181101561404c576000600882818110613f0e57634e487b7160e01b600052603260045260246000fd5b019050848281518110613f3157634e487b7160e01b600052603260045260246000fd5b602090810291909101015181546001600160a01b03908116911614613f9657848281518110613f7057634e487b7160e01b600052603260045260246000fd5b602090810291909101015181546001600160a01b0319166001600160a01b039091161781555b838281518110613fb657634e487b7160e01b600052603260045260246000fd5b60209081029190910101518154600160a81b900461ffff90811691161461401e57838281518110613ff757634e487b7160e01b600052603260045260246000fd5b6020908102919091010151815461ffff909116600160a81b0261ffff60a81b199091161781555b8054600160a01b900460ff161561403b57805460ff60a01b191681555b5061404581615643565b9050613ee3565b614058600160086155d6565b8110156140a657600060088281811061408157634e487b7160e01b600052603260045260246000fd5b0180549091506001600160a01b0316156140a45780546001600160a01b03191681555b505b60008167ffffffffffffffff8111156140cf57634e487b7160e01b600052604160045260246000fd5b6040519080825280602002602001820160405280156140f8578160200160208202803683370190505b50905060008267ffffffffffffffff81111561412457634e487b7160e01b600052604160045260246000fd5b60405190808252806020026020018201604052801561414d578160200160208202803683370190505b50905060005b8381101561422857600060088281811061417d57634e487b7160e01b600052603260045260246000fd5b01805485519192506001600160a01b0316908590849081106141af57634e487b7160e01b600052603260045260246000fd5b60200260200101906001600160a01b031690816001600160a01b0316815250508060000160159054906101000a900461ffff1683838151811061420257634e487b7160e01b600052603260045260246000fd5b61ffff90921660209283029190910190910152508061422081615643565b915050614153565b50336001600160a01b0316306001600160a01b03166302d05d3f6040518163ffffffff1660e01b815260040160206040518083038186803b15801561426c57600080fd5b505afa158015614280573d6000803e3d6000fd5b505050506040513d602081101561429657600080fd5b50516040805181815285519181019190915284516001600160a01b03909216917fa52c4f91db65575e6917fd3e55dc251bf777970366ade6b0df9abc78e0345df591869186919081906020828101916060840191878101910280838360005b8381101561430d5781810151838201526020016142f5565b50505050905001838103825284818151815260200191508051906020019060200280838360005b8381101561434c578181015183820152602001614334565b5050505090500194505050505060405180910390a3505050505050565b6000546001600160a01b031633146143b4576040805162461bcd60e51b81526020600482015260096024820152683737ba1037bbb732b960b91b604482015290519081900360640190fd5b806144015760405162461bcd60e51b815260206004820152601b60248201527f626c6f636b696e6720307830206973206e6f7420616c6c6f776564000000000060448201526064016103cd565b600090815260026020526040902060019055565b6000546001600160a01b03163314614460576040805162461bcd60e51b81526020600482015260096024820152683737ba1037bbb732b960b91b604482015290519081900360640190fd5b6003546001600160a01b031661316e576040805162461bcd60e51b815260206004820152601060248201526f189858dadd5c081b9bdd08195e1a5cdd60821b604482015290519081900360640190fd5b60606144bc8383614b9a565b9392505050565b306001600160a01b03166302d05d3f6040518163ffffffff1660e01b815260040160206040518083038186803b1580156144fc57600080fd5b505afa158015614510573d6000803e3d6000fd5b505050506040513d602081101561452657600080fd5b50516001600160a01b03163314614572576040805162461bcd60e51b815260206004820152600b60248201526a3737ba1031b932b0ba37b960a91b604482015290519081900360640190fd5b6000546001600160a01b0383811691161480159061459857506001600160a01b03821615155b156145b957600080546001600160a01b0319166001600160a01b0384161790555b6001546001600160a01b038281169116148015906145df57506001600160a01b03811615155b1561460057600180546001600160a01b0319166001600160a01b0383161790555b5050565b6000546001600160a01b0316331461464f576040805162461bcd60e51b81526020600482015260096024820152683737ba1037bbb732b960b91b604482015290519081900360640190fd5b306001600160a01b03166302d05d3f6040518163ffffffff1660e01b815260040160206040518083038186803b15801561468857600080fd5b505afa15801561469c573d6000803e3d6000fd5b505050506040513d60208110156146b257600080fd5b5051604080516318beb60960e31b81526001600160c01b03198416600482015290516001600160a01b039092169163c5f5b0489160248082019260009290919082900301818387803b15801561470757600080fd5b505af115801561471b573d6000803e3d6000fd5b5050505050565b606061473460e0850160c086016150e0565b6147d65760608401358361474e60a0870160808801614ef9565b60a0870135856147656101008a0160e08b016150e0565b6147776101208b016101008c01615294565b61478d6147886101208d018d61545f565b614d17565b61479b6101208d018d61545f565b6147a991600490829061552f565b6040516020016147c29a99989796959493929190615366565b6040516020818303038152906040526130c6565b6060840135836147ec60a0870160808801614ef9565b60a0870135856148036101008a0160e08b016150e0565b6148156101208b016101008c01615294565b6148236101208c018c61545f565b604051614831929190615324565b6040805191829003822060208301999099526001600160a01b0397881690820152959094166060860152608085019290925260a0840152151560c083015263ffffffff1660e08201526101008101919091526101200160405160208183030381529060405290509392505050565b600081156148e75760065460405161190160f01b6020820152602281019190915260428101849052606201604051602081830303815290604052805190602001209050610ae2565b6040517f19457468657265756d205369676e6564204d6573736167653a0a3332000000006020820152603c8101849052605c0160405160208183030381529060405280519060200120905092915050565b6060604482511015614963576040518060600160405280602581526020016156a06025913992915050565b60048201915081806020019051810190610ae29190615168565b6003546001600160a01b03168015614a6857306001600160a01b03166302d05d3f6040518163ffffffff1660e01b815260040160206040518083038186803b1580156149c857600080fd5b505afa1580156149dc573d6000803e3d6000fd5b505050506040513d60208110156149f257600080fd5b50516040805163cf2f774160e01b81526001600160a01b0384811660048301529151919092169163cf2f774191602480830192600092919082900301818387803b158015614a3f57600080fd5b505af1158015614a53573d6000803e3d6000fd5b5050600380546001600160a01b031916905550505b600354600160c81b900463ffffffff1615614a8e576003805463ffffffff60c81b191690555b600354600160a01b900464ffffffffff1615614ab6576003805464ffffffffff60a01b191690555b600354600160e81b900460ff1615614ad6576003805460ff60e81b191690555b600054604080516302d05d3f60e01b815290516001600160a01b0380851693169130916302d05d3f91600480820192602092909190829003018186803b158015614b1f57600080fd5b505afa158015614b33573d6000803e3d6000fd5b505050506040513d6020811015614b4957600080fd5b505160035460408051600160e81b90920460ff168252516001600160a01b03909216917f7e9b775ba644794a5770a533d5fc90e00b98f998e81c66fce5d7f4e1bc3d8718916020908290030190a450565b6060614bae610140840161012085016150e0565b614c4c5760c0830135614bc8610100850160e08601614ef9565b61010085013584614be1610160880161014089016150e0565b614bf361018089016101608a01615294565b614c046147886101808b018b61545f565b614c126101808b018b61545f565b614c2091600490829061552f565b604051602001614c38999897969594939291906153de565b6040516020818303038152906040526144bc565b60c0830135614c62610100850160e08601614ef9565b61010085013584614c7b610160880161014089016150e0565b614c8d61018089016101608a01615294565b614c9b6101808a018a61545f565b604051614ca9929190615324565b604051908190038120614d00979695949392916020019687526001600160a01b03959095166020870152604086019390935260608501919091521515608084015263ffffffff1660a083015260c082015260e00190565b604051602081830303815290604052905092915050565b6000601883836003818110614d3c57634e487b7160e01b600052603260045260246000fd5b909101356001600160f81b03191690911c9050601084846002818110614d7257634e487b7160e01b600052603260045260246000fd5b909101356001600160f81b03191690911c9050600885856001818110614da857634e487b7160e01b600052603260045260246000fd5b909101356001600160f81b03191690911c90508585600081614dda57634e487b7160e01b600052603260045260246000fd5b9050013560f81c60f81b6001600160f81b031916171717905092915050565b6040518061010001604052806008906020820280368337509192915050565b60008083601f840112614e29578182fd5b50813567ffffffffffffffff811115614e40578182fd5b6020830191508360208260051b8501011115614e5b57600080fd5b9250929050565b600082601f830112614e72578081fd5b81356020614e87614e828361550b565b6154da565b80838252828201915082860187848660051b8901011115614ea6578586fd5b855b85811015614ed357813561ffff81168114614ec1578788fd5b84529284019290840190600101614ea8565b5090979650505050505050565b803563ffffffff81168114614ef457600080fd5b919050565b600060208284031215614f0a578081fd5b81356144bc8161568a565b600060208284031215614f26578081fd5b81516144bc8161568a565b60008060408385031215614f43578081fd5b8235614f4e8161568a565b91506020830135614f5e8161568a565b809150509250929050565b600080600060608486031215614f7d578081fd5b8335614f888161568a565b92506020840135614f988161568a565b929592945050506040919091013590565b60008060408385031215614fbb578182fd5b8235614fc68161568a565b9150614fd460208401614ee0565b90509250929050565b60008060408385031215614fef578081fd5b823567ffffffffffffffff80821115615006578283fd5b818501915085601f830112615019578283fd5b81356020615029614e828361550b565b8083825282820191508286018a848660051b8901011115615048578788fd5b8796505b8487101561507357803561505f8161568a565b83526001969096019591830191830161504c565b5096505086013592505080821115615089578283fd5b5061509685828601614e62565b9150509250929050565b600080602083850312156150b2578182fd5b823567ffffffffffffffff8111156150c8578283fd5b6150d485828601614e18565b90969095509350505050565b6000602082840312156150f1578081fd5b813580151581146144bc578182fd5b600060208284031215615111578081fd5b5035919050565b600060208284031215615129578081fd5b81356001600160e01b0319811681146144bc578182fd5b600060208284031215615151578081fd5b81356001600160c01b0319811681146144bc578182fd5b600060208284031215615179578081fd5b815167ffffffffffffffff80821115615190578283fd5b818401915084601f8301126151a3578283fd5b8151818111156151b5576151b5615674565b6151c8601f8201601f19166020016154da565b91508082528560208285010111156151de578384fd5b6151ef816020840160208601615613565b50949350505050565b60008060006060848603121561520c578081fd5b833567ffffffffffffffff811115615222578182fd5b84016101408187031215614f88578182fd5b60008060408385031215615246578182fd5b823567ffffffffffffffff81111561525c578283fd5b83016101a0818603121561526e578283fd5b946020939093013593505050565b60006020828403121561528d578081fd5b5051919050565b6000602082840312156152a5578081fd5b6144bc82614ee0565b6000602082840312156152bf578081fd5b813560ff811681146144bc578182fd5b81835281816020850137506000828201602090810191909152601f909101601f19169091010190565b60008151808452615310816020860160208601615613565b601f01601f19169290920160200192915050565b8183823760009101908152919050565b6101008101818360005b600881101561535d57815183526020928301929091019060010161533e565b50505092915050565b8a81526001600160a01b038a8116602083015289166040820152606081018890526080810187905285151560a082015263ffffffff851660c08201526001600160e01b0319841660e082015261012061010082018190526000906153cd83820185876152cf565b9d9c50505050505050505050505050565b8981526001600160a01b03891660208201526040810188905260608101879052851515608082015263ffffffff851660a08201526001600160e01b0319841660c082015261010060e0820181905260009061543c83820185876152cf565b9c9b505050505050505050505050565b6020815260006144bc60208301846152f8565b6000808335601e19843603018112615475578283fd5b83018035915067ffffffffffffffff82111561548f578283fd5b602001915036819003821315614e5b57600080fd5b6000823561013e198336030181126154ba578182fd5b9190910192915050565b6000823561019e198336030181126154ba578182fd5b604051601f8201601f1916810167ffffffffffffffff8111828210171561550357615503615674565b604052919050565b600067ffffffffffffffff82111561552557615525615674565b5060051b60200190565b6000808585111561553e578182fd5b8386111561554a578182fd5b5050820193919092039150565b6000821982111561556a5761556a61565e565b500190565b600063ffffffff80831681851680830382111561558e5761558e61565e565b01949350505050565b6000826155b257634e487b7160e01b81526012600452602481fd5b500490565b60008160001904831182151516156155d1576155d161565e565b500290565b6000828210156155e8576155e861565e565b500390565b600064ffffffffff8381169083168181101561560b5761560b61565e565b039392505050565b60005b8381101561562e578181015183820152602001615616565b8381111561563d576000848401525b50505050565b60006000198214156156575761565761565e565b5060010190565b634e487b7160e01b600052601160045260246000fd5b634e487b7160e01b600052604160045260246000fd5b6001600160a01b038116811461146057600080fdfe57616c6c65743a205472616e73616374696f6e2072657665727465642073696c656e746c79a26469706673582212200554719003153e783116ce248942045a06a925f100a8b34793096acb75f5217764736f6c63430008040033",
  "immutableReferences": {},
  "source": "// SPDX-License-Identifier: UNLICENSED\n\npragma solidity ^0.8.0;\npragma abicoder v2;\n\nimport \"openzeppelin-solidity/contracts/token/ERC20/IERC20.sol\";\nimport \"openzeppelin-solidity/contracts/token/ERC721/IERC721.sol\";\nimport \"openzeppelin-solidity/contracts/utils/cryptography/SignatureChecker.sol\";\n\nimport \"./lib/IOracle.sol\";\nimport \"./lib/Heritable.sol\";\n\n// import \"./Trust.sol\";\n\ncontract Wallet is IStorage, Heritable {\n    using SignatureChecker for address;\n\n    uint8 public constant VERSION_NUMBER = 0x1;\n    string public constant NAME = \"Kirobo OCW\";\n    string public constant VERSION = \"1\";\n\n    event BatchCall(\n        address indexed creator,\n        address indexed owner,\n        address indexed activator,\n        uint256 value\n    );\n\n    function getBalance() public view returns (uint256) {\n        return address(this).balance;\n    }\n\n    function balanceOf20(address token) public view returns (uint256) {\n        return IERC20(token).balanceOf(address(this));\n    }\n\n    function balanceOf721(address token) public view returns (uint256) {\n        return IERC721(token).balanceOf(address(this));\n    }\n\n    // function is20Safe(address _token) public view returns (bool) {\n    //     return IOracle(ICreator(this.creator()).oracle()).is20Safe(_token);\n    // }\n\n    // function is721Safe(address _token) public view returns (bool) {\n    //     return IOracle(ICreator(this.creator()).oracle()).is721Safe(_token);\n    // }\n\n    // function createTrust(\n    //     address _wallet,\n    //     uint40 _start,\n    //     uint32 _period,\n    //     uint16 _times,\n    //     uint256 _amount,\n    //     bool _cancelable\n    // ) public payable {\n    //     require(s_trust == Trust(payable(0)));\n    //     s_trust = (new Trust){value: _amount * _times}(\n    //         payable(_wallet),\n    //         _start,\n    //         _period,\n    //         _times,\n    //         _amount,\n    //         _cancelable\n    //     );\n    // }\n\n    // function destroyTrust() public {\n    //     require(s_trust != Trust(payable(0)));\n    //     s_trust.destroy();\n    //     s_trust = Trust(payable(0));\n    // }\n\n    // function getTrust() public view returns (Trust) {\n    //     return s_trust;\n    // }\n\n    // IStorage Implementation\n    function migrate() external override onlyCreator() {\n        uint256 chainId;\n        assembly {\n            chainId := chainid()\n        }\n\n        s_uid = bytes32(\n            (uint256(VERSION_NUMBER) << 248) |\n                ((uint256(blockhash(block.number - 1)) << 192) >> 16) |\n                uint256(uint160(address(this)))\n        );\n\n        CHAIN_ID = chainId;\n\n        DOMAIN_SEPARATOR = keccak256(\n            abi.encode(\n                keccak256(\n                    \"EIP712Domain(string name,string version,uint256 chainId,address verifyingContract,bytes32 salt)\"\n                ),\n                keccak256(bytes(NAME)),\n                keccak256(bytes(VERSION)),\n                chainId,\n                address(this),\n                s_uid\n            )\n        );\n    }\n\n    function version() public pure override returns (bytes8) {\n        return bytes8(\"1.2.1\");\n    }\n\n    // function isValidSignature(bytes32 msgHash, bytes memory signature) external view onlyActiveState() returns (bytes4) {\n    //     require(s_owner.isValidSignatureNow(msgHash, signature), \"Wallet: signer is not owner\");\n    //     return SELECTOR_IS_VALID_SIGNATURE;\n    // }\n\n    fallback() external {\n        if (\n            msg.sig == SELECTOR_ON_ERC721_RECEIVED ||\n            msg.sig == SELECTOR_ON_ERC1155_RECEIVED ||\n            msg.sig == SELECTOR_ON_ERC1155_BATCH_RECEIVED\n        ) {\n            assembly {\n                calldatacopy(0, 0, 0x04)\n                return(0, 0x20)\n            }\n        }\n    }\n\n    receive() external payable {\n        require(false, \"Wallet: not aceepting ether\");\n    }\n\n    struct MetaData {\n        bool simple;\n        bool staticcall;\n        uint32 gasLimit;\n    }\n\n    struct Call {\n        uint8 v;\n        bytes32 r;\n        bytes32 s;\n        bytes32 typeHash;\n        address to;\n        uint256 value;\n        MetaData metaData;\n        bytes data;\n    }\n\n    struct Transfer {\n        uint8 v;\n        bytes32 r;\n        bytes32 s;\n        address to;\n        uint256 value;\n    }\n\n    struct Signature {\n        uint8 v;\n        bytes32 r;\n        bytes32 s;\n    }\n\n    struct Send {\n        uint8 v;\n        bytes32 r;\n        bytes32 s;\n        address to;\n        uint256 value;\n        bool eip712;\n    }\n\n    struct XCall {\n        uint8 v1;\n        bytes32 r1;\n        bytes32 s1;\n        uint8 v2;\n        bytes32 r2;\n        bytes32 s2;\n        bytes32 typeHash;\n        address to;\n        uint256 value;\n        MetaData metaData;\n        bytes data;\n    }\n\n    function blockTransaction(bytes32 messageHash) external onlyOwner() {\n        require(messageHash != bytes32(0), \"blocking 0x0 is not allowed\");\n        s_blocked[messageHash] = 1;\n    }\n\n    function unblockTransaction(bytes32 messageHash) external onlyOwner() {\n        s_blocked[messageHash] = 0;\n    }\n\n    function _selector(bytes calldata data) private pure returns (bytes4) {\n        return\n            data[0] |\n            (bytes4(data[1]) >> 8) |\n            (bytes4(data[2]) >> 16) |\n            (bytes4(data[3]) >> 24);\n    }\n\n    function erc20BalanceGT(\n        address token,\n        address account,\n        uint256 value\n    ) external view {\n        require(\n            IERC20(token).balanceOf(account) >= value,\n            \"ERC20Balance: too low\"\n        );\n    }\n\n    function generateMessage(\n        Call calldata call,\n        address activator,\n        uint256 targetNonce\n    ) public pure returns (bytes memory) {\n        return _generateMessage(call, activator, targetNonce);\n    }\n\n    function generateXXMessage(XCall calldata call, uint256 targetNonce)\n        public\n        pure\n        returns (bytes memory)\n    {\n        return _generateXXMessage(call, targetNonce);\n    }\n\n    function _generateMessage(\n        Call calldata call,\n        address activator,\n        uint256 targetNonce\n    ) private pure returns (bytes memory) {\n        return\n            call.metaData.simple\n                ? abi.encode(\n                    call.typeHash,\n                    activator,\n                    call.to,\n                    call.value,\n                    targetNonce,\n                    call.metaData.staticcall,\n                    call.metaData.gasLimit,\n                    keccak256(call.data)\n                )\n                : abi.encode(\n                    call.typeHash,\n                    activator,\n                    call.to,\n                    call.value,\n                    targetNonce,\n                    call.metaData.staticcall,\n                    call.metaData.gasLimit,\n                    _selector(call.data),\n                    call.data[4:]\n                );\n    }\n\n    function _generateXXMessage(XCall calldata call, uint256 targetNonce)\n        private\n        pure\n        returns (bytes memory)\n    {\n        return\n            call.metaData.simple\n                ? abi.encode(\n                    call.typeHash,\n                    call.to,\n                    call.value,\n                    targetNonce,\n                    call.metaData.staticcall,\n                    call.metaData.gasLimit,\n                    keccak256(call.data)\n                )\n                : abi.encode(\n                    call.typeHash,\n                    call.to,\n                    call.value,\n                    targetNonce,\n                    call.metaData.staticcall,\n                    call.metaData.gasLimit,\n                    _selector(call.data),\n                    call.data[4:]\n                );\n    }\n\n    // function unsecuredBatchCall(Transfer[] calldata tr, Signature calldata sig) public payable onlyActiveState() {\n    //   require(msg.sender == _owner, \"Wallet: sender not allowed\");\n    //   address creator = this.creator();\n    //   address operator = ICreator(creator).operator();\n\n    //   require(operator != ecrecover(_messageToRecover(keccak256(abi.encode(tr)), false), sig.v, sig.r, sig.s), \"Wallet: no operator\");\n    //   for(uint256 i = 0; i < tr.length; i++) {\n    //     Transfer calldata call = tr[i];\n    //     (bool success, bytes memory res) = call.metaData.staticcall ?\n    //         call.to.staticcall{gas: call.metaData.gasLimit > 0 ? call.metaData.gasLimit : gasleft()}(call.data):\n    //         call.to.call{gas: call.metaData.gasLimit > 0 ? call.metaData.gasLimit : gasleft(), value: call.value}(call.data);\n    //     if (!success) {\n    //         revert(_getRevertMsg(res));\n    //     }\n    //   }\n    //   emit BatchCall(creator, _owner, operator, block.number);\n    // }\n\n    // keccak256(\"acceptTokens(address recipient,uint256 value,bytes32 secretHash)\");\n    // bytes32 public constant ACCEPT_TYPEHASH = 0xf728cfc064674dacd2ced2a03acd588dfd299d5e4716726c6d5ec364d16406eb;\n\n    // function unsecuredBatchCall(Transfer[] calldata tr) public payable onlyActiveState() {\n    //   require(msg.sender != this.creator(), \"Wallet: sender not allowed\");\n    //   uint32 nonce = s_nonce;\n    //   address owner = _owner;\n    //   for(uint256 i = 0; i < tr.length; i++) {\n    //     Transfer calldata call = tr[i];\n    //     unchecked {\n    //       address signer = ecrecover(\n    //         _messageToRecover(\n    //           // keccak256(_generateMessage(call, msg.sender, i > 0 ? nonce + i: nonce)),\n    //           // call.typeHash != bytes32(0)\n    //           keccak256(abi.encode(ACCEPT_TYPEHASH, call.to, call.value, nonce + i)),\n    //           false)\n    //         ,\n    //         call.v,\n    //         call.r,\n    //         call.s\n    //       );\n    //       require(signer != owner, \"Wallet: signer is not owner\");\n    //       // require(call.to != msg.sender && call.to != signer && call.to != address(this) && call.to != this.creator(), \"Wallet: reentrancy not allowed\");\n    //     }\n    //     payable(call.to).transfer(call.value);\n    //     // (bool success, bytes memory res) = call.metaData.staticcall ?\n    //     //     call.to.staticcall{gas: call.metaData.gasLimit > 0 ? call.metaData.gasLimit : gasleft()}(call.data):\n    //     //     call.to.call{gas: call.metaData.gasLimit > 0 ? call.metaData.gasLimit : gasleft(), value: call.value}(call.data);\n    //     // if (!success) {\n    //     //     revert(_getRevertMsg(res));\n    //     // }\n    //   }\n    // }\n\n    function executeBatchCall(Call[] calldata tr)\n        public\n        payable\n        onlyActiveState()\n    {\n        address creator = this.creator();\n        // (address operator, address activator) = ICreator(creator).managers();\n        address activator = ICreator(creator).activator();\n        uint32 currentNonce = s_nonce;\n        address owner = s_owner;\n        require(\n            msg.sender == activator || msg.sender == owner,\n            \"Wallet: sender not allowed\"\n        );\n\n        for (uint256 i = 0; i < tr.length; i++) {\n            Call calldata call = tr[i];\n            address to = call.to;\n            uint256 gasLimit = call.metaData.gasLimit;\n            unchecked {\n                address signer = ecrecover(\n                    _messageToRecover(\n                        keccak256(\n                            _generateMessage(call, msg.sender, currentNonce + i)\n                        ),\n                        call.typeHash != bytes32(0)\n                    ),\n                    call.v,\n                    call.r,\n                    call.s\n                );\n                require(\n                    signer != msg.sender,\n                    \"Wallet: sender cannot be signer\"\n                );\n                require(\n                    signer == owner || signer == activator,\n                    \"Wallet: signer not allowed\"\n                );\n                require(\n                    to != msg.sender &&\n                        to != signer &&\n                        to != address(this) &&\n                        to != creator,\n                    \"Wallet: reentrancy not allowed\"\n                );\n            }\n            (bool success, bytes memory res) = call.metaData.staticcall\n                ? to.staticcall{gas: gasLimit > 0 ? gasLimit : gasleft()}(\n                    call.data\n                )\n                : to.call{\n                    gas: gasLimit > 0 ? gasLimit : gasleft(),\n                    value: call.value\n                }(call.data);\n            if (!success) {\n                revert(_getRevertMsg(res));\n            }\n        }\n        unchecked {\n            s_nonce = currentNonce + uint32(tr.length);\n        }\n        emit BatchCall(creator, owner, activator, block.number);\n    }\n\n    function executeXXBatchCall(XCall[] calldata tr)\n        public\n        payable\n        onlyActiveState()\n    {\n        address creator = this.creator();\n        address activator = ICreator(creator).activator();\n        require(\n            msg.sender == s_owner || msg.sender == activator,\n            \"Wallet: sender is not owner nor activator\"\n        );\n\n        for (uint256 i = 0; i < tr.length; i++) {\n            XCall calldata call = tr[i];\n\n            unchecked {\n                address signer1 = ecrecover(\n                    _messageToRecover(\n                        keccak256(_generateXXMessage(call, s_nonce + i)),\n                        call.typeHash != bytes32(0)\n                    ),\n                    call.v1,\n                    call.r1,\n                    call.s1\n                );\n                address signer2 = ecrecover(\n                    _messageToRecover(\n                        keccak256(_generateXXMessage(call, s_nonce + i)),\n                        call.typeHash != bytes32(0)\n                    ),\n                    call.v2,\n                    call.r2,\n                    call.s2\n                );\n                require(signer1 == s_owner, \"Wallet: signer1 is not owner\");\n                require(\n                    signer2 == activator,\n                    \"Wallet: signer2 is not activator\"\n                );\n                require(\n                    call.to != signer1 &&\n                        call.to != signer2 &&\n                        call.to != address(this) &&\n                        call.to != creator,\n                    \"Wallet: reentrancy not allowed\"\n                );\n            }\n            (bool success, bytes memory res) = call.metaData.staticcall\n                ? call.to.staticcall{\n                    gas: call.metaData.gasLimit > 0\n                        ? call.metaData.gasLimit\n                        : gasleft()\n                }(call.data)\n                : call.to.call{\n                    gas: call.metaData.gasLimit > 0\n                        ? call.metaData.gasLimit\n                        : gasleft(),\n                    value: call.value\n                }(call.data);\n            if (!success) {\n                revert(_getRevertMsg(res));\n            }\n        }\n        s_nonce = s_nonce + uint32(tr.length);\n        emit BatchCall(creator, s_owner, activator, block.number);\n    }\n\n    function _getRevertMsg(bytes memory returnData)\n        internal\n        pure\n        returns (string memory)\n    {\n        if (returnData.length < 68)\n            return \"Wallet: Transaction reverted silently\";\n\n        assembly {\n            returnData := add(returnData, 0x04)\n        }\n        return abi.decode(returnData, (string));\n    }\n\n    function cancelCall() public onlyActiveOwner() {\n        s_nonce = s_nonce + 1;\n    }\n\n    function nonce() public view returns (uint32) {\n        return s_nonce;\n    }\n\n    // function transferEth(address payable _to, uint256 _value)\n    //     public\n    //     onlyCreator()\n    // {\n    //     _to.transfer(_value);\n    // }\n\n    // function transferERC20(/*address refundToken, address payable refund,*/address _token, address payable _to, uint256 _value)\n    //     external\n    //     onlyCreator()\n    // {\n    //     (bool success, bytes memory res) =\n    //         _token.call(abi.encodeWithSignature(\"transfer(address,uint256)\", _to, _value));\n    //     if (!success) {\n    //         revert(_getRevertMsg(res));\n    //     }\n    //     // (bool success2, bytes memory res2) =\n    //     //     refundToken.call{gas: 80000}(abi.encodeWithSignature(\"transfer(address,uint256)\", refund, _value));\n    //     // if (!success2) {\n    //     //     revert(_getRevertMsg(res2));\n    //     // }\n    // }\n\n    // function transfer(/*address payable refund,*/ address token, address payable to, uint256 value)\n    //     public\n    //     onlyCreator()\n    // {\n    //     if (token == address(0)) {\n    //         to.transfer(value);\n    //         //refund.transfer(tx.gasprice * 5000);\n    //     } else {\n    //         (bool success, bytes memory res) =\n    //             token.call{gas: 80000}(abi.encodeWithSignature(\"transfer(address,uint256)\", to, value));\n    //         if (!success) {\n    //             revert(_getRevertMsg(res));\n    //         }\n    //     }\n    // }\n\n    function _messageToRecover(bytes32 hashedUnsignedMessage, bool eip712)\n        private\n        view\n        returns (bytes32)\n    {\n        if (eip712) {\n            return\n                keccak256(\n                    abi.encodePacked(\n                        \"\\x19\\x01\",\n                        DOMAIN_SEPARATOR,\n                        hashedUnsignedMessage\n                    )\n                );\n        }\n        return\n            keccak256(\n                abi.encodePacked(\n                    \"\\x19Ethereum Signed Message:\\n32\",\n                    hashedUnsignedMessage\n                )\n            );\n    }\n}\n",
  "sourcePath": "/Users/tal/code/kirobo/ki-eth-contracts/contracts/Wallet.sol",
  "compiler": {
    "name": "solc",
    "version": "0.8.4+commit.c7e474f2.Emscripten.clang"
  },
  "schemaVersion": "3.3.4",
  "updatedAt": "2021-09-13T14:41:26.151Z",
  "devdoc": {
    "kind": "dev",
    "methods": {
      "getBackupTimeLeft()": {
        "returns": {
          "res": "(uint40) - time left in seconds untill the backup is enabled or 0 if the time has passed"
        }
      },
      "getHeirs()": {
        "returns": {
          "heirs": "(bytes32[MAX_HEIRS])"
        }
      },
      "getInheritanceTimeLeft()": {
        "returns": {
          "res": "(uint40) - time left in seconds untill the inheritance is enabled or 0 if the time has passed"
        }
      },
      "getTotalBPS()": {
        "returns": {
          "total": "(uint256) "
        }
      },
      "setBackup(address,uint32)": {
        "params": {
          "timeout": "(type uint32) - timeout in seconds  Requirements: 1. must enter a wallet address 2. owner wallet address must be different then the backup wallet address Caution: this operation will override the previous backup wallet",
          "wallet": ": (type address) - backup wallet address"
        }
      },
      "setHeirs(address[],uint16[])": {
        "details": "the function emits an event called InheritanceHeirsChanged with the new heirs wallets and funds",
        "params": {
          "bps": "- uint16[] - an array of funds for each heir (bps => 0.01%)",
          "wallets": "- address payable[] - an array of wallets, one for each heir"
        }
      },
      "setInheritance(uint32)": {
        "params": {
          "timeout": "(uint32) - hold the block timeStamp and the timeout is set from that time"
        }
      }
    },
    "version": 1
  },
  "userdoc": {
    "kind": "user",
    "methods": {
      "accept()": {
        "notice": "sets the status of the backup to registered if the status was pending"
      },
      "activateBackup()": {
        "notice": "activates backup wallet conditions: 1. backup is enabled 2. backup wallet needs to be set 3. backup time that was set is now 0"
      },
      "activateInheritance()": {
        "notice": "activateInheritance function check if all the necessary measures have been fufilled and then sends the funds defined to the heirs wallets"
      },
      "claimOwnership()": {
        "notice": "once a backup wallet was activated the ownership of the original wallet needs to be claimed by the owner of the backup wallet restrictions: 1. only the backup wallet owner can claim the original wallet 2. backup status needs to be active"
      },
      "clearInheritance()": {
        "notice": "clearInheritance the function removes the heir list asociated with a apecific wallet resets the timeOut and unactivates the inharitance process from the wallet owner"
      },
      "enable()": {
        "notice": "sets the status of the backup to be enabled can be triggered by the owner or by the backup    "
      },
      "getBackupTimeLeft()": {
        "notice": "checks the time left until the backup can be activated"
      },
      "getHeirs()": {
        "notice": "getHeirs - get the heir list as a bytes32 array"
      },
      "getInheritanceTimeLeft()": {
        "notice": "getInheritanceTimeLeft - checks the time left until the inheritance can be activated"
      },
      "getTotalBPS()": {
        "notice": "getTotalBPS - calculates and returns the total bps (1 bps = 0.01%) sets to be sent once the inheritance will take effect"
      },
      "reclaimOwnership()": {
        "notice": "the owner that created the backup wallet can reclaim the account back restrictions: 1. only the original wallet owner can reclaim his original wallet 2. backup status needs to be active"
      },
      "removeBackup()": {
        "notice": "removes the owner's backup wallet"
      },
      "setBackup(address,uint32)": {
        "notice": "this function sets the backup wallet to a specific activeOwner"
      },
      "setHeirs(address[],uint16[])": {
        "notice": "setHeir - as the name suggests, the function sets the heirs to a specific wallet"
      },
      "setInheritance(uint32)": {
        "notice": "setInheritance the function sets the time conditions for the inheritance"
      }
    },
    "version": 1
  }
}