{
  "contractName": "Wallet",
  "abi": [
    {
      "anonymous": false,
      "inputs": [
        {
          "indexed": true,
          "internalType": "address",
          "name": "creator",
          "type": "address"
        },
        {
          "indexed": true,
          "internalType": "address",
          "name": "wallet",
          "type": "address"
        },
        {
          "indexed": true,
          "internalType": "address",
          "name": "activator",
          "type": "address"
        },
        {
          "indexed": false,
          "internalType": "uint8",
          "name": "state",
          "type": "uint8"
        }
      ],
      "name": "BackupActivated",
      "type": "event"
    },
    {
      "anonymous": false,
      "inputs": [
        {
          "indexed": true,
          "internalType": "address",
          "name": "creator",
          "type": "address"
        },
        {
          "indexed": true,
          "internalType": "address",
          "name": "owner",
          "type": "address"
        },
        {
          "indexed": true,
          "internalType": "address",
          "name": "wallet",
          "type": "address"
        },
        {
          "indexed": false,
          "internalType": "uint32",
          "name": "timeout",
          "type": "uint32"
        },
        {
          "indexed": false,
          "internalType": "uint40",
          "name": "timestamp",
          "type": "uint40"
        },
        {
          "indexed": false,
          "internalType": "uint8",
          "name": "state",
          "type": "uint8"
        }
      ],
      "name": "BackupChanged",
      "type": "event"
    },
    {
      "anonymous": false,
      "inputs": [
        {
          "indexed": true,
          "internalType": "address",
          "name": "creator",
          "type": "address"
        },
        {
          "indexed": true,
          "internalType": "address",
          "name": "wallet",
          "type": "address"
        },
        {
          "indexed": false,
          "internalType": "uint40",
          "name": "timestamp",
          "type": "uint40"
        },
        {
          "indexed": false,
          "internalType": "uint8",
          "name": "state",
          "type": "uint8"
        }
      ],
      "name": "BackupEnabled",
      "type": "event"
    },
    {
      "anonymous": false,
      "inputs": [
        {
          "indexed": true,
          "internalType": "address",
          "name": "creator",
          "type": "address"
        },
        {
          "indexed": true,
          "internalType": "address",
          "name": "payee",
          "type": "address"
        },
        {
          "indexed": false,
          "internalType": "uint256",
          "name": "amount",
          "type": "uint256"
        },
        {
          "indexed": false,
          "internalType": "bool",
          "name": "reward",
          "type": "bool"
        }
      ],
      "name": "BackupPayment",
      "type": "event"
    },
    {
      "anonymous": false,
      "inputs": [
        {
          "indexed": true,
          "internalType": "address",
          "name": "creator",
          "type": "address"
        },
        {
          "indexed": true,
          "internalType": "address",
          "name": "wallet",
          "type": "address"
        },
        {
          "indexed": false,
          "internalType": "uint8",
          "name": "state",
          "type": "uint8"
        }
      ],
      "name": "BackupRegistered",
      "type": "event"
    },
    {
      "anonymous": false,
      "inputs": [
        {
          "indexed": true,
          "internalType": "address",
          "name": "creator",
          "type": "address"
        },
        {
          "indexed": true,
          "internalType": "address",
          "name": "owner",
          "type": "address"
        },
        {
          "indexed": true,
          "internalType": "address",
          "name": "wallet",
          "type": "address"
        },
        {
          "indexed": false,
          "internalType": "uint8",
          "name": "state",
          "type": "uint8"
        }
      ],
      "name": "BackupRemoved",
      "type": "event"
    },
    {
      "anonymous": false,
      "inputs": [
        {
          "indexed": true,
          "internalType": "address",
          "name": "creator",
          "type": "address"
        },
        {
          "indexed": true,
          "internalType": "address",
          "name": "activator",
          "type": "address"
        },
        {
          "indexed": false,
          "internalType": "address[]",
          "name": "wallets",
          "type": "address[]"
        }
      ],
      "name": "InheritanceActivated",
      "type": "event"
    },
    {
      "anonymous": false,
      "inputs": [
        {
          "indexed": true,
          "internalType": "address",
          "name": "creator",
          "type": "address"
        },
        {
          "indexed": true,
          "internalType": "address",
          "name": "owner",
          "type": "address"
        },
        {
          "indexed": false,
          "internalType": "uint40",
          "name": "timeout",
          "type": "uint40"
        },
        {
          "indexed": false,
          "internalType": "uint40",
          "name": "timestamp",
          "type": "uint40"
        }
      ],
      "name": "InheritanceChanged",
      "type": "event"
    },
    {
      "anonymous": false,
      "inputs": [
        {
          "indexed": true,
          "internalType": "address",
          "name": "creator",
          "type": "address"
        },
        {
          "indexed": true,
          "internalType": "address",
          "name": "owner",
          "type": "address"
        },
        {
          "indexed": false,
          "internalType": "address[]",
          "name": "wallets",
          "type": "address[]"
        },
        {
          "indexed": false,
          "internalType": "uint16[]",
          "name": "bps",
          "type": "uint16[]"
        }
      ],
      "name": "InheritanceHeirsChanged",
      "type": "event"
    },
    {
      "anonymous": false,
      "inputs": [
        {
          "indexed": true,
          "internalType": "address",
          "name": "creator",
          "type": "address"
        },
        {
          "indexed": true,
          "internalType": "address",
          "name": "payee",
          "type": "address"
        },
        {
          "indexed": false,
          "internalType": "uint256",
          "name": "amount",
          "type": "uint256"
        },
        {
          "indexed": false,
          "internalType": "bool",
          "name": "reward",
          "type": "bool"
        }
      ],
      "name": "InheritancePayment",
      "type": "event"
    },
    {
      "anonymous": false,
      "inputs": [
        {
          "indexed": true,
          "internalType": "address",
          "name": "creator",
          "type": "address"
        },
        {
          "indexed": true,
          "internalType": "address",
          "name": "owner",
          "type": "address"
        }
      ],
      "name": "InheritanceRemoved",
      "type": "event"
    },
    {
      "anonymous": false,
      "inputs": [
        {
          "indexed": true,
          "internalType": "address",
          "name": "creator",
          "type": "address"
        },
        {
          "indexed": true,
          "internalType": "address",
          "name": "owner",
          "type": "address"
        },
        {
          "indexed": true,
          "internalType": "address",
          "name": "pendingOwner",
          "type": "address"
        },
        {
          "indexed": false,
          "internalType": "uint8",
          "name": "state",
          "type": "uint8"
        }
      ],
      "name": "OwnershipReclaimed",
      "type": "event"
    },
    {
      "anonymous": false,
      "inputs": [
        {
          "indexed": true,
          "internalType": "address",
          "name": "creator",
          "type": "address"
        },
        {
          "indexed": true,
          "internalType": "address",
          "name": "previousOwner",
          "type": "address"
        },
        {
          "indexed": true,
          "internalType": "address",
          "name": "newOwner",
          "type": "address"
        },
        {
          "indexed": false,
          "internalType": "uint8",
          "name": "state",
          "type": "uint8"
        }
      ],
      "name": "OwnershipTransferred",
      "type": "event"
    },
    {
      "anonymous": false,
      "inputs": [
        {
          "indexed": true,
          "internalType": "address",
          "name": "creator",
          "type": "address"
        },
        {
          "indexed": true,
          "internalType": "address",
          "name": "owner",
          "type": "address"
        },
        {
          "indexed": true,
          "internalType": "address",
          "name": "to",
          "type": "address"
        },
        {
          "indexed": false,
          "internalType": "uint256",
          "name": "value",
          "type": "uint256"
        }
      ],
      "name": "SentEther",
      "type": "event"
    },
    {
      "anonymous": false,
      "inputs": [
        {
          "indexed": true,
          "internalType": "address",
          "name": "creator",
          "type": "address"
        },
        {
          "indexed": true,
          "internalType": "address",
          "name": "token",
          "type": "address"
        },
        {
          "indexed": false,
          "internalType": "address",
          "name": "from",
          "type": "address"
        },
        {
          "indexed": true,
          "internalType": "address",
          "name": "to",
          "type": "address"
        },
        {
          "indexed": false,
          "internalType": "uint256",
          "name": "value",
          "type": "uint256"
        }
      ],
      "name": "Transfer20",
      "type": "event"
    },
    {
      "anonymous": false,
      "inputs": [
        {
          "indexed": true,
          "internalType": "address",
          "name": "creator",
          "type": "address"
        },
        {
          "indexed": true,
          "internalType": "address",
          "name": "token",
          "type": "address"
        },
        {
          "indexed": false,
          "internalType": "address",
          "name": "from",
          "type": "address"
        },
        {
          "indexed": true,
          "internalType": "address",
          "name": "to",
          "type": "address"
        },
        {
          "indexed": false,
          "internalType": "uint256",
          "name": "id",
          "type": "uint256"
        },
        {
          "indexed": false,
          "internalType": "bytes",
          "name": "data",
          "type": "bytes"
        }
      ],
      "name": "Transfer721",
      "type": "event"
    },
    {
      "inputs": [],
      "name": "BACKUP_STATE_ACTIVATED",
      "outputs": [
        {
          "internalType": "uint8",
          "name": "",
          "type": "uint8"
        }
      ],
      "stateMutability": "view",
      "type": "function",
      "constant": true
    },
    {
      "inputs": [],
      "name": "BACKUP_STATE_ENABLED",
      "outputs": [
        {
          "internalType": "uint8",
          "name": "",
          "type": "uint8"
        }
      ],
      "stateMutability": "view",
      "type": "function",
      "constant": true
    },
    {
      "inputs": [],
      "name": "BACKUP_STATE_PENDING",
      "outputs": [
        {
          "internalType": "uint8",
          "name": "",
          "type": "uint8"
        }
      ],
      "stateMutability": "view",
      "type": "function",
      "constant": true
    },
    {
      "inputs": [],
      "name": "BACKUP_STATE_REGISTERED",
      "outputs": [
        {
          "internalType": "uint8",
          "name": "",
          "type": "uint8"
        }
      ],
      "stateMutability": "view",
      "type": "function",
      "constant": true
    },
    {
      "inputs": [],
      "name": "accept",
      "outputs": [],
      "stateMutability": "nonpayable",
      "type": "function"
    },
    {
      "inputs": [],
      "name": "activateBackup",
      "outputs": [],
      "stateMutability": "nonpayable",
      "type": "function"
    },
    {
      "inputs": [],
      "name": "activateInheritance",
      "outputs": [],
      "stateMutability": "nonpayable",
      "type": "function"
    },
    {
      "inputs": [],
      "name": "claimOwnership",
      "outputs": [],
      "stateMutability": "nonpayable",
      "type": "function"
    },
    {
      "inputs": [],
      "name": "clearInheritance",
      "outputs": [],
      "stateMutability": "nonpayable",
      "type": "function"
    },
    {
      "inputs": [],
      "name": "creator",
      "outputs": [
        {
          "internalType": "address",
          "name": "",
          "type": "address"
        }
      ],
      "stateMutability": "pure",
      "type": "function",
      "constant": true
    },
    {
      "inputs": [],
      "name": "decline",
      "outputs": [],
      "stateMutability": "nonpayable",
      "type": "function"
    },
    {
      "inputs": [],
      "name": "enable",
      "outputs": [],
      "stateMutability": "nonpayable",
      "type": "function"
    },
    {
      "inputs": [],
      "name": "getBackupState",
      "outputs": [
        {
          "internalType": "uint8",
          "name": "",
          "type": "uint8"
        }
      ],
      "stateMutability": "view",
      "type": "function",
      "constant": true
    },
    {
      "inputs": [],
      "name": "getBackupTimeLeft",
      "outputs": [
        {
          "internalType": "uint40",
          "name": "_res",
          "type": "uint40"
        }
      ],
      "stateMutability": "view",
      "type": "function",
      "constant": true
    },
    {
      "inputs": [],
      "name": "getBackupTimeout",
      "outputs": [
        {
          "internalType": "uint40",
          "name": "",
          "type": "uint40"
        }
      ],
      "stateMutability": "view",
      "type": "function",
      "constant": true
    },
    {
      "inputs": [],
      "name": "getBackupTimestamp",
      "outputs": [
        {
          "internalType": "uint40",
          "name": "",
          "type": "uint40"
        }
      ],
      "stateMutability": "view",
      "type": "function",
      "constant": true
    },
    {
      "inputs": [],
      "name": "getBackupWallet",
      "outputs": [
        {
          "internalType": "address",
          "name": "",
          "type": "address"
        }
      ],
      "stateMutability": "view",
      "type": "function",
      "constant": true
    },
    {
      "inputs": [],
      "name": "getHeirs",
      "outputs": [
        {
          "internalType": "bytes32[8]",
          "name": "heirs",
          "type": "bytes32[8]"
        }
      ],
      "stateMutability": "view",
      "type": "function",
      "constant": true
    },
    {
      "inputs": [],
      "name": "getInheritanceTimeLeft",
      "outputs": [
        {
          "internalType": "uint40",
          "name": "_res",
          "type": "uint40"
        }
      ],
      "stateMutability": "view",
      "type": "function",
      "constant": true
    },
    {
      "inputs": [],
      "name": "getInheritanceTimeout",
      "outputs": [
        {
          "internalType": "uint40",
          "name": "",
          "type": "uint40"
        }
      ],
      "stateMutability": "view",
      "type": "function",
      "constant": true
    },
    {
      "inputs": [],
      "name": "getInheritanceTimestamp",
      "outputs": [
        {
          "internalType": "uint40",
          "name": "",
          "type": "uint40"
        }
      ],
      "stateMutability": "view",
      "type": "function",
      "constant": true
    },
    {
      "inputs": [],
      "name": "getOwner",
      "outputs": [
        {
          "internalType": "address",
          "name": "",
          "type": "address"
        }
      ],
      "stateMutability": "view",
      "type": "function",
      "constant": true
    },
    {
      "inputs": [],
      "name": "getTotalBPS",
      "outputs": [
        {
          "internalType": "uint256",
          "name": "total",
          "type": "uint256"
        }
      ],
      "stateMutability": "view",
      "type": "function",
      "constant": true
    },
    {
      "inputs": [],
      "name": "getTotalTransfered",
      "outputs": [
        {
          "internalType": "uint256",
          "name": "total",
          "type": "uint256"
        }
      ],
      "stateMutability": "view",
      "type": "function",
      "constant": true
    },
    {
      "inputs": [
        {
          "internalType": "address",
          "name": "__owner",
          "type": "address"
        },
        {
          "internalType": "address",
          "name": "__target",
          "type": "address"
        }
      ],
      "name": "init",
      "outputs": [],
      "stateMutability": "nonpayable",
      "type": "function"
    },
    {
      "inputs": [],
      "name": "isBackup",
      "outputs": [
        {
          "internalType": "bool",
          "name": "",
          "type": "bool"
        }
      ],
      "stateMutability": "view",
      "type": "function",
      "constant": true
    },
    {
      "inputs": [],
      "name": "isInheritanceActivated",
      "outputs": [
        {
          "internalType": "bool",
          "name": "",
          "type": "bool"
        }
      ],
      "stateMutability": "view",
      "type": "function",
      "constant": true
    },
    {
      "inputs": [],
      "name": "isInheritanceEnabled",
      "outputs": [
        {
          "internalType": "bool",
          "name": "",
          "type": "bool"
        }
      ],
      "stateMutability": "view",
      "type": "function",
      "constant": true
    },
    {
      "inputs": [],
      "name": "isOwner",
      "outputs": [
        {
          "internalType": "bool",
          "name": "",
          "type": "bool"
        }
      ],
      "stateMutability": "view",
      "type": "function",
      "constant": true
    },
    {
      "inputs": [],
      "name": "owner",
      "outputs": [
        {
          "internalType": "address",
          "name": "",
          "type": "address"
        }
      ],
      "stateMutability": "view",
      "type": "function",
      "constant": true
    },
    {
      "inputs": [],
      "name": "reclaimOwnership",
      "outputs": [],
      "stateMutability": "nonpayable",
      "type": "function"
    },
    {
      "inputs": [],
      "name": "removeBackup",
      "outputs": [],
      "stateMutability": "nonpayable",
      "type": "function"
    },
    {
      "inputs": [
        {
          "internalType": "address",
          "name": "_wallet",
          "type": "address"
        },
        {
          "internalType": "uint32",
          "name": "_timeout",
          "type": "uint32"
        }
      ],
      "name": "setBackup",
      "outputs": [],
      "stateMutability": "nonpayable",
      "type": "function"
    },
    {
      "inputs": [
        {
          "internalType": "address payable[]",
          "name": "_wallets",
          "type": "address[]"
        },
        {
          "internalType": "uint16[]",
          "name": "_bps",
          "type": "uint16[]"
        }
      ],
      "name": "setHeirs",
      "outputs": [],
      "stateMutability": "nonpayable",
      "type": "function"
    },
    {
      "inputs": [
        {
          "internalType": "uint32",
          "name": "_timeout",
          "type": "uint32"
        }
      ],
      "name": "setInheritance",
      "outputs": [],
      "stateMutability": "nonpayable",
      "type": "function"
    },
    {
      "inputs": [],
      "name": "target",
      "outputs": [
        {
          "internalType": "address",
          "name": "",
          "type": "address"
        }
      ],
      "stateMutability": "view",
      "type": "function",
      "constant": true
    },
    {
      "inputs": [
        {
          "internalType": "bytes8",
          "name": "_version",
          "type": "bytes8"
        }
      ],
      "name": "upgrade",
      "outputs": [],
      "stateMutability": "nonpayable",
      "type": "function"
    },
    {
      "inputs": [
        {
          "internalType": "address payable",
          "name": "_to",
          "type": "address"
        },
        {
          "internalType": "uint256",
          "name": "_value",
          "type": "uint256"
        }
      ],
      "name": "sendEther",
      "outputs": [],
      "stateMutability": "nonpayable",
      "type": "function"
    },
    {
      "inputs": [
        {
          "internalType": "address",
          "name": "_token",
          "type": "address"
        },
        {
          "internalType": "address",
          "name": "_to",
          "type": "address"
        },
        {
          "internalType": "uint256",
          "name": "_value",
          "type": "uint256"
        }
      ],
      "name": "transfer20",
      "outputs": [],
      "stateMutability": "nonpayable",
      "type": "function"
    },
    {
      "inputs": [
        {
          "internalType": "address",
          "name": "_token",
          "type": "address"
        },
        {
          "internalType": "address",
          "name": "_from",
          "type": "address"
        },
        {
          "internalType": "address",
          "name": "_to",
          "type": "address"
        },
        {
          "internalType": "uint256",
          "name": "_value",
          "type": "uint256"
        }
      ],
      "name": "transferFrom20",
      "outputs": [],
      "stateMutability": "nonpayable",
      "type": "function"
    },
    {
      "inputs": [
        {
          "internalType": "address",
          "name": "_token",
          "type": "address"
        },
        {
          "internalType": "address",
          "name": "_to",
          "type": "address"
        },
        {
          "internalType": "uint256",
          "name": "_value",
          "type": "uint256"
        }
      ],
      "name": "transfer721",
      "outputs": [],
      "stateMutability": "nonpayable",
      "type": "function"
    },
    {
      "inputs": [
        {
          "internalType": "address",
          "name": "_token",
          "type": "address"
        },
        {
          "internalType": "address",
          "name": "_from",
          "type": "address"
        },
        {
          "internalType": "address",
          "name": "_to",
          "type": "address"
        },
        {
          "internalType": "uint256",
          "name": "_id",
          "type": "uint256"
        }
      ],
      "name": "transferFrom721",
      "outputs": [],
      "stateMutability": "nonpayable",
      "type": "function"
    },
    {
      "inputs": [
        {
          "internalType": "address",
          "name": "_token",
          "type": "address"
        },
        {
          "internalType": "address",
          "name": "_from",
          "type": "address"
        },
        {
          "internalType": "address",
          "name": "_to",
          "type": "address"
        },
        {
          "internalType": "uint256",
          "name": "_id",
          "type": "uint256"
        }
      ],
      "name": "safeTransferFrom721",
      "outputs": [],
      "stateMutability": "nonpayable",
      "type": "function"
    },
    {
      "inputs": [
        {
          "internalType": "address",
          "name": "_token",
          "type": "address"
        },
        {
          "internalType": "address",
          "name": "_from",
          "type": "address"
        },
        {
          "internalType": "address",
          "name": "_to",
          "type": "address"
        },
        {
          "internalType": "uint256",
          "name": "_id",
          "type": "uint256"
        },
        {
          "internalType": "bytes",
          "name": "_data",
          "type": "bytes"
        }
      ],
      "name": "safeTransferFrom721$Data",
      "outputs": [],
      "stateMutability": "nonpayable",
      "type": "function"
    },
    {
      "inputs": [],
      "name": "getBalance",
      "outputs": [
        {
          "internalType": "uint256",
          "name": "",
          "type": "uint256"
        }
      ],
      "stateMutability": "view",
      "type": "function",
      "constant": true
    },
    {
      "inputs": [
        {
          "internalType": "address",
          "name": "_token",
          "type": "address"
        }
      ],
      "name": "balanceOf20",
      "outputs": [
        {
          "internalType": "uint256",
          "name": "",
          "type": "uint256"
        }
      ],
      "stateMutability": "view",
      "type": "function",
      "constant": true
    },
    {
      "inputs": [
        {
          "internalType": "address",
          "name": "_token",
          "type": "address"
        }
      ],
      "name": "balanceOf721",
      "outputs": [
        {
          "internalType": "uint256",
          "name": "",
          "type": "uint256"
        }
      ],
      "stateMutability": "view",
      "type": "function",
      "constant": true
    },
    {
      "inputs": [
        {
          "internalType": "address",
          "name": "_token",
          "type": "address"
        }
      ],
      "name": "is20Safe",
      "outputs": [
        {
          "internalType": "bool",
          "name": "",
          "type": "bool"
        }
      ],
      "stateMutability": "view",
      "type": "function",
      "constant": true
    },
    {
      "inputs": [
        {
          "internalType": "address",
          "name": "_token",
          "type": "address"
        }
      ],
      "name": "is721Safe",
      "outputs": [
        {
          "internalType": "bool",
          "name": "",
          "type": "bool"
        }
      ],
      "stateMutability": "view",
      "type": "function",
      "constant": true
    },
    {
      "inputs": [
        {
          "internalType": "address",
          "name": "",
          "type": "address"
        },
        {
          "internalType": "address",
          "name": "",
          "type": "address"
        },
        {
          "internalType": "uint256",
          "name": "",
          "type": "uint256"
        },
        {
          "internalType": "bytes",
          "name": "",
          "type": "bytes"
        }
      ],
      "name": "onERC721Received",
      "outputs": [
        {
          "internalType": "bytes4",
          "name": "",
          "type": "bytes4"
        }
      ],
      "stateMutability": "pure",
      "type": "function",
      "constant": true
    },
    {
      "inputs": [],
      "name": "migrate",
      "outputs": [],
      "stateMutability": "nonpayable",
      "type": "function"
    },
    {
      "inputs": [],
      "name": "version",
      "outputs": [
        {
          "internalType": "bytes8",
          "name": "",
          "type": "bytes8"
        }
      ],
      "stateMutability": "pure",
      "type": "function",
      "constant": true
    }
  ],
  "bytecode": "0x608060405234801561001057600080fd5b50600080546001600160a01b03191633179055614bb1806100326000396000f3fe608060405234801561001057600080fd5b506004361061034b5760003560e01c80638da5cb5b116101bd578063c572f15d116100f9578063e520d104116100a2578063f808a3091161007c578063f808a30914610a43578063f99ff3e814610a4b578063fdafd4eb14610a53578063fec5a18d14610a5b5761034b565b8063e520d104146108e6578063e767e13714610a0d578063f09a401614610a155761034b565b8063dfc07588116100d3578063dfc07588146108b8578063e1bc35ab146108de578063e2e1d83b146106c65761034b565b8063c572f15d146108a0578063cd7dbf4a146108a8578063d4b83992146108b05761034b565b8063a05a439611610166578063af1fd6f811610140578063af1fd6f814610828578063b9b3abe014610830578063c1756a2c1461086c578063c1c8277f146108985761034b565b8063a05a43961461074a578063a3907d7114610818578063ab040107146108205761034b565b8063916b07de11610197578063916b07de146107045780639db652f41461073a5780639e091e87146107425761034b565b80638da5cb5b146106ec5780638f32d59b146106f45780638fd3ab80146106fc5761034b565b806336d62d401161028c5780634eae51f41161023557806354fd4d501161020f57806354fd4d501461066f5780637396f189146106945780637db683ee146106c6578063893d20e8146106ec5761034b565b80634eae51f4146105e55780634f60c5221461062657806350ea22971461064c5761034b565b8063447046bf11610266578063447046bf146105cd57806349629f08146105d55780634e71e0c8146105dd5761034b565b806336d62d401461059f5780633d562561146105a75780633e95e62c146105c55761034b565b8063150b7a02116102f95780632852b71c116102d35780632852b71c146105515780632a5dc72a146105595780632beac3bc146105615780632e262542146105975761034b565b8063150b7a021461041257806318f9c6901461050d578063283faec7146105155761034b565b80630ca9dcca1161032a5780630ca9dcca146103b257806312065fe0146103f0578063120e860c1461040a5761034b565b806253d7b01461035057806302d05d3f1461037257806303c01e6814610396575b600080fd5b610358610a82565b6040805164ffffffffff9092168252519081900360200190f35b61037a610a96565b604080516001600160a01b039092168252519081900360200190f35b61039e610a9b565b604080519115158252519081900360200190f35b6103ee600480360360808110156103c857600080fd5b506001600160a01b03813581169160208101358216916040820135169060600135610aac565b005b6103f8610d27565b60408051918252519081900360200190f35b6103ee610d2b565b6104d86004803603608081101561042857600080fd5b6001600160a01b0382358116926020810135909116916040820135919081019060808101606082013564010000000081111561046357600080fd5b82018360208201111561047557600080fd5b8035906020019184600183028401116401000000008311171561049757600080fd5b91908080601f016020809104026020016040519081016040528093929190818152602001838380828437600092019190915250929550611235945050505050565b604080517fffffffff000000000000000000000000000000000000000000000000000000009092168252519081900360200190f35b610358611245565b6103ee6004803603608081101561052b57600080fd5b506001600160a01b03813581169160208101358216916040820135169060600135611258565b6103ee6114b4565b6103f8611626565b6103ee6004803603606081101561057757600080fd5b506001600160a01b0381358116916020810135909116906040013561162c565b6103ee611895565b6103f8611ad6565b6105af611b33565b6040805160ff9092168252519081900360200190f35b6105af611b38565b61037a611b3d565b6103ee611b4c565b6103ee6121da565b6105ed612492565b604051808261010080838360005b838110156106135781810151838201526020016105fb565b5050505090500191505060405180910390f35b61039e6004803603602081101561063c57600080fd5b50356001600160a01b031661253b565b6103ee6004803603602081101561066257600080fd5b503563ffffffff1661268c565b6106776128fb565b604080516001600160c01b03199092168252519081900360200190f35b6103ee600480360360408110156106aa57600080fd5b5080356001600160a01b0316906020013563ffffffff16612907565b6103f8600480360360208110156106dc57600080fd5b50356001600160a01b0316612dec565b61037a612e36565b61039e612e45565b6103ee612e56565b6103ee6004803603606081101561071a57600080fd5b506001600160a01b03813581169160208101359091169060400135612f05565b610358612fe4565b610358612ff8565b6103ee600480360360a081101561076057600080fd5b6001600160a01b03823581169260208101358216926040820135909216916060820135919081019060a0810160808201356401000000008111156107a357600080fd5b8201836020820111156107b557600080fd5b803590602001918460018302840111640100000000831117156107d757600080fd5b91908080601f01602080910402602001604051908101604052809392919081815260200183838082843760009201919091525092955061307c945050505050565b6103ee6133d0565b6103ee6135ac565b610358613654565b6103ee6004803603608081101561084657600080fd5b506001600160a01b03813581169160208101358216916040820135169060600135613661565b6103ee6004803603604081101561088257600080fd5b506001600160a01b0381351690602001356138e3565b6103ee613b27565b610358613ca4565b61039e613d3f565b61037a613d56565b61039e600480360360208110156108ce57600080fd5b50356001600160a01b0316613d65565b6105af613e84565b6103ee600480360360408110156108fc57600080fd5b81019060208101813564010000000081111561091757600080fd5b82018360208201111561092957600080fd5b8035906020019184602083028401116401000000008311171561094b57600080fd5b919080806020026020016040519081016040528093929190818152602001838360200280828437600092019190915250929594936020810193503591505064010000000081111561099b57600080fd5b8201836020820111156109ad57600080fd5b803590602001918460208302840111640100000000831117156109cf57600080fd5b919080806020026020016040519081016040528093929190818152602001838360200280828437600092019190915250929550613e89945050505050565b6103ee61453e565b6103ee60048036036040811015610a2b57600080fd5b506001600160a01b03813581169160200135166145d9565b6105af61471a565b6105af61472a565b61039e61472f565b6103ee60048036036020811015610a7157600080fd5b50356001600160c01b031916614744565b600c54600160381b900464ffffffffff1690565b600090565b6002546001600160a01b0316331490565b306001600160a01b0316638da5cb5b6040518163ffffffff1660e01b815260040160206040518083038186803b158015610ae557600080fd5b505afa158015610af9573d6000803e3d6000fd5b505050506040513d6020811015610b0f57600080fd5b50516001600160a01b031633148015610b355750600254600160e81b900460ff16600314155b610b79576040805162461bcd60e51b815260206004820152601060248201526f3737ba1030b1ba34bb329037bbb732b960811b604482015290519081900360640190fd5b6001600160a01b038416610bc4576040805162461bcd60e51b815260206004820152600d60248201526c05f746f6b656e2069732030783609c1b604482015290519081900360640190fd5b60006001600160a01b03841615610bdb5783610bdd565b305b9050826001600160a01b0316856001600160a01b0316306001600160a01b03166302d05d3f6040518163ffffffff1660e01b815260040160206040518083038186803b158015610c2c57600080fd5b505afa158015610c40573d6000803e3d6000fd5b505050506040513d6020811015610c5657600080fd5b5051604080516001600160a01b038681168252602082018890526060828401819052600090830152915191909216917fc604e07085b3abf38e6f3918d5247f94fdde3c9b2ad1dbf93421ae055c34d823919081900360a00190a4604080516323b872dd60e01b81523060048201526001600160a01b038581166024830152604482018590529151918716916323b872dd9160648082019260009290919082900301818387803b158015610d0857600080fd5b505af1158015610d1c573d6000803e3d6000fd5b505050505050505050565b4790565b60028054600160e81b900460ff1614610d8b576040805162461bcd60e51b815260206004820152601260248201527f6261636b7570206e6f7420656e61626c65640000000000000000000000000000604482015290519081900360640190fd5b6002546001600160a01b0316610ddb576040805162461bcd60e51b815260206004820152601060248201526f189858dadd5c081b9bdd08195e1a5cdd60821b604482015290519081900360640190fd5b610de3613ca4565b64ffffffffff1615610e28576040805162461bcd60e51b8152602060048201526009602482015268746f6f206561726c7960b81b604482015290519081900360640190fd5b600254600160e81b900460ff16600314610e50576002805460ff60e81b1916600360e81b1790555b600254604080516302d05d3f60e01b8152905133926001600160a01b03169130916302d05d3f91600480820192602092909190829003018186803b158015610e9757600080fd5b505afa158015610eab573d6000803e3d6000fd5b505050506040513d6020811015610ec157600080fd5b505160025460408051600160e81b90920460ff168252516001600160a01b03909216917fd4e12feccfc0af60abe3d9f07eaf999abd3329b4570bf80fdb4d5019f7f823d8916020908290030190a460004790506000306001600160a01b03166302d05d3f6040518163ffffffff1660e01b815260040160206040518083038186803b158015610f4f57600080fd5b505afa158015610f63573d6000803e3d6000fd5b505050506040513d6020811015610f7957600080fd5b5051604080516307dc0d1d60e41b815290516001600160a01b0390921691637dc0d1d091600480820192602092909190829003018186803b158015610fbd57600080fd5b505afa158015610fd1573d6000803e3d6000fd5b505050506040513d6020811015610fe757600080fd5b50516040805163319a11df60e11b815290516001600160a01b039092169163633423be91600480820192602092909190829003018186803b15801561102b57600080fd5b505afa15801561103f573d6000803e3d6000fd5b505050506040513d602081101561105557600080fd5b50516040519091506001600160a01b038216906064840480156108fc02916000818181858888f19350505050158015611092573d6000803e3d6000fd5b50806001600160a01b0316306001600160a01b03166302d05d3f6040518163ffffffff1660e01b815260040160206040518083038186803b1580156110d657600080fd5b505afa1580156110ea573d6000803e3d6000fd5b505050506040513d602081101561110057600080fd5b50516001600160a01b03167f6e66b5d043b2434fe7d48f9b96e07c1fa4d6c6a7d7ac43fc1afc30267b36869860648560408051929091048252600060208301528051918290030190a360405133906103e8840480156108fc02916000818181858888f19350505050158015611179573d6000803e3d6000fd5b50336001600160a01b0316306001600160a01b03166302d05d3f6040518163ffffffff1660e01b815260040160206040518083038186803b1580156111bd57600080fd5b505afa1580156111d1573d6000803e3d6000fd5b505050506040513d60208110156111e757600080fd5b50516001600160a01b03167f6e66b5d043b2434fe7d48f9b96e07c1fa4d6c6a7d7ac43fc1afc30267b3686986103e88560408051929091048252600160208301528051918290030190a35050565b630a85bd0160e11b949350505050565b600254600160c81b900463ffffffff1690565b306001600160a01b0316638da5cb5b6040518163ffffffff1660e01b815260040160206040518083038186803b15801561129157600080fd5b505afa1580156112a5573d6000803e3d6000fd5b505050506040513d60208110156112bb57600080fd5b50516001600160a01b0316331480156112e15750600254600160e81b900460ff16600314155b611325576040805162461bcd60e51b815260206004820152601060248201526f3737ba1030b1ba34bb329037bbb732b960811b604482015290519081900360640190fd5b6001600160a01b038416611370576040805162461bcd60e51b815260206004820152600d60248201526c05f746f6b656e2069732030783609c1b604482015290519081900360640190fd5b60006001600160a01b038416156113875783611389565b305b9050826001600160a01b0316856001600160a01b0316306001600160a01b03166302d05d3f6040518163ffffffff1660e01b815260040160206040518083038186803b1580156113d857600080fd5b505afa1580156113ec573d6000803e3d6000fd5b505050506040513d602081101561140257600080fd5b5051604080516001600160a01b038681168252602082018890526060828401819052600090830152915191909216917fc604e07085b3abf38e6f3918d5247f94fdde3c9b2ad1dbf93421ae055c34d823919081900360a00190a460408051632142170760e11b81523060048201526001600160a01b038581166024830152604482018590529151918716916342842e0e9160648082019260009290919082900301818387803b158015610d0857600080fd5b6002546001600160a01b03163314611500576040805162461bcd60e51b815260206004820152600a60248201526906e6f74206261636b75760b41b604482015290519081900360640190fd5b600254600160e81b900460ff1615611554576040805162461bcd60e51b81526020600482015260126024820152716261636b7570206e6f742070656e64696e6760701b604482015290519081900360640190fd5b6002805460ff60e81b1916600160e81b1790819055604080516302d05d3f60e01b815290516001600160a01b039092169130916302d05d3f916004808301926020929190829003018186803b1580156115ac57600080fd5b505afa1580156115c0573d6000803e3d6000fd5b505050506040513d60208110156115d657600080fd5b505160025460408051600160e81b90920460ff168252516001600160a01b03909216917f9b13e751ba276b9ecf994e9ecc38b895af7cded05c07f20e506f4a57f98dc3d3916020908290030190a3565b60035490565b306001600160a01b0316638da5cb5b6040518163ffffffff1660e01b815260040160206040518083038186803b15801561166557600080fd5b505afa158015611679573d6000803e3d6000fd5b505050506040513d602081101561168f57600080fd5b50516001600160a01b0316331480156116b55750600254600160e81b900460ff16600314155b6116f9576040805162461bcd60e51b815260206004820152601060248201526f3737ba1030b1ba34bb329037bbb732b960811b604482015290519081900360640190fd5b6001600160a01b038316611744576040805162461bcd60e51b815260206004820152600d60248201526c05f746f6b656e2069732030783609c1b604482015290519081900360640190fd5b816001600160a01b0316836001600160a01b0316306001600160a01b03166302d05d3f6040518163ffffffff1660e01b815260040160206040518083038186803b15801561179157600080fd5b505afa1580156117a5573d6000803e3d6000fd5b505050506040513d60208110156117bb57600080fd5b5051604080513081526020810186905281516001600160a01b03909316927fd3c84574047e20dd5aac4c7a9e0b36668586ab67fae246b0259385a8d68ff832929181900390910190a4826001600160a01b031663a9059cbb83836040518363ffffffff1660e01b815260040180836001600160a01b03166001600160a01b0316815260200182815260200192505050602060405180830381600087803b15801561186457600080fd5b505af1158015611878573d6000803e3d6000fd5b505050506040513d602081101561188e57600080fd5b5050505050565b306001600160a01b0316638da5cb5b6040518163ffffffff1660e01b815260040160206040518083038186803b1580156118ce57600080fd5b505afa1580156118e2573d6000803e3d6000fd5b505050506040513d60208110156118f857600080fd5b50516001600160a01b03163314801561191e5750600254600160e81b900460ff16600314155b611962576040805162461bcd60e51b815260206004820152601060248201526f3737ba1030b1ba34bb329037bbb732b960811b604482015290519081900360640190fd5b336001600160a01b0316306001600160a01b03166302d05d3f6040518163ffffffff1660e01b815260040160206040518083038186803b1580156119a557600080fd5b505afa1580156119b9573d6000803e3d6000fd5b505050506040513d60208110156119cf57600080fd5b50516040516001600160a01b03909116907f386ee292f5f7e1923094e3f15e2c182b0ffaa3b312df32094e994d8e0f1d393a90600090a3600c5464ffffffffff1615611a2457600c805464ffffffffff191690555b600c5465010000000000900460ff1615611a4857600c805465ff0000000000191690555b600c54600160301b900460ff1615611a6b57600c805466ff000000000000191690555b60035415611a795760006003555b60005b6008811015611ad357600060048260088110611a9457fe5b0180549091506001600160a01b0316611aad5750611ad3565b8054600160a01b900460ff1615611aca57805460ff60a01b191681555b50600101611a7c565b50565b6000805b6008811015611b2f57600060048260088110611af257fe5b01546001600160a01b03161415611b0857611b2f565b60048160088110611b1557fe5b0154600160a81b900461ffff169190910190600101611ada565b5090565b600181565b600381565b6002546001600160a01b031690565b600c5465010000000000900460ff161515600114611bb1576040805162461bcd60e51b815260206004820152601a60248201527f696e6865726974616e6365206973206e6f7420656e61626c6564000000000000604482015290519081900360640190fd5b600c54600160301b900460ff1615611c10576040805162461bcd60e51b815260206004820152601860248201527f696e6865726974616e6365206973206163746976617465640000000000000000604482015290519081900360640190fd5b611c18612ff8565b64ffffffffff1615611c5d576040805162461bcd60e51b8152602060048201526009602482015268746f6f206561726c7960b81b604482015290519081900360640190fd5b600c805466ff0000000000001916600160301b179055604080516302d05d3f60e01b81529051479160009130916302d05d3f916004828101926020929190829003018186803b158015611caf57600080fd5b505afa158015611cc3573d6000803e3d6000fd5b505050506040513d6020811015611cd957600080fd5b5051604080516307dc0d1d60e41b815290516001600160a01b0390921691637dc0d1d091600480820192602092909190829003018186803b158015611d1d57600080fd5b505afa158015611d31573d6000803e3d6000fd5b505050506040513d6020811015611d4757600080fd5b50516040805163319a11df60e11b815290516001600160a01b039092169163633423be91600480820192602092909190829003018186803b158015611d8b57600080fd5b505afa158015611d9f573d6000803e3d6000fd5b505050506040513d6020811015611db557600080fd5b50516040519091506001600160a01b038216906064840480156108fc02916000818181858888f19350505050158015611df2573d6000803e3d6000fd5b50806001600160a01b0316306001600160a01b03166302d05d3f6040518163ffffffff1660e01b815260040160206040518083038186803b158015611e3657600080fd5b505afa158015611e4a573d6000803e3d6000fd5b505050506040513d6020811015611e6057600080fd5b50516001600160a01b03167f0d0176dbbceb582bb24dc965bd866421e9de5afe8bb827dc2a48df2826ad40fd60648560408051929091048252600060208301528051918290030190a360405133906103e8840480156108fc02916000818181858888f19350505050158015611ed9573d6000803e3d6000fd5b50336001600160a01b0316306001600160a01b03166302d05d3f6040518163ffffffff1660e01b815260040160206040518083038186803b158015611f1d57600080fd5b505afa158015611f31573d6000803e3d6000fd5b505050506040513d6020811015611f4757600080fd5b50516001600160a01b03167f0d0176dbbceb582bb24dc965bd866421e9de5afe8bb827dc2a48df2826ad40fd6103e88560408051929091048252600160208301528051918290030190a347915060005b600881101561203457600060048260088110611faf57fe5b0180549091506001600160a01b0316611fc85750612034565b8054600160a81b900461ffff161561202b5780546040516001600160a01b0382169161271061ffff600160a81b9092049190911687020480156108fc02916000818181858888f18554901515600160a01b0260ff60a01b19909116178555505050505b50600101611f97565b612044834763ffffffff61485b16565b60035560608167ffffffffffffffff8111801561206057600080fd5b5060405190808252806020026020018201604052801561208a578160200160208202803683370190505b50905060005b828110156120e6576000600482600881106120a757fe5b01805484519192506001600160a01b0316908490849081106120c557fe5b6001600160a01b039092166020928302919091019091015250600101612090565b50336001600160a01b0316306001600160a01b03166302d05d3f6040518163ffffffff1660e01b815260040160206040518083038186803b15801561212a57600080fd5b505afa15801561213e573d6000803e3d6000fd5b505050506040513d602081101561215457600080fd5b505160408051602080825285518282015285516001600160a01b03909416937f7ad28155b9b8629f2cd82bb7d184fbd7726696408380767a0cf3ef763209da8a93879392839291830191858201910280838360005b838110156121c15781810151838201526020016121a9565b505050509050019250505060405180910390a350505050565b6002546001600160a01b03163314612226576040805162461bcd60e51b815260206004820152600a60248201526906e6f74206261636b75760b41b604482015290519081900360640190fd5b600254600160e81b900460ff1660031461227e576040805162461bcd60e51b8152602060048201526014602482015273189858dadd5c081b9bdd081858dd1a5d985d195960621b604482015290519081900360640190fd5b6002805460ff60e81b198116909155600054604080516302d05d3f60e01b815290516001600160a01b03938416939092169130916302d05d3f916004808301926020929190829003018186803b1580156122d757600080fd5b505afa1580156122eb573d6000803e3d6000fd5b505050506040513d602081101561230157600080fd5b505160025460408051600160e81b90920460ff168252516001600160a01b03909216917fa477fcc649c392c3ab5443bd6c7e532261a90d5e3f29376513d5275e277ddae3916020908290030190a46002546000546001600160a01b0390811691161461243357306001600160a01b03166302d05d3f6040518163ffffffff1660e01b815260040160206040518083038186803b1580156123a057600080fd5b505afa1580156123b4573d6000803e3d6000fd5b505050506040513d60208110156123ca57600080fd5b50516002546040805163bf3b110160e01b81526001600160a01b0392831660048201529051919092169163bf3b110191602480830192600092919082900301818387803b15801561241a57600080fd5b505af115801561242e573d6000803e3d6000fd5b505050505b600280546001600160a01b03191690819055600160c81b900463ffffffff1615612468576002805463ffffffff60c81b191690555b600254600160a01b900464ffffffffff1615612490576002805464ffffffffff60a01b191690555b565b61249a614b5c565b60005b6008811015611b2f576000600482600881106124b557fe5b0180549091506001600160a01b03166124ce5750611b2f565b8054600160a81b810460481b6affff0000000000000000001690600160a01b900460ff166124fd57600061250b565b6b0100000000000000000000005b825460601b6bffffffffffffffffffffffff1916010183836008811061252d57fe5b60200201525060010161249d565b6000306001600160a01b03166302d05d3f6040518163ffffffff1660e01b815260040160206040518083038186803b15801561257657600080fd5b505afa15801561258a573d6000803e3d6000fd5b505050506040513d60208110156125a057600080fd5b5051604080516307dc0d1d60e41b815290516001600160a01b0390921691637dc0d1d091600480820192602092909190829003018186803b1580156125e457600080fd5b505afa1580156125f8573d6000803e3d6000fd5b505050506040513d602081101561260e57600080fd5b5051604080516327b0629160e11b81526001600160a01b03858116600483015291519190921691634f60c522916024808301926020929190829003018186803b15801561265a57600080fd5b505afa15801561266e573d6000803e3d6000fd5b505050506040513d602081101561268457600080fd5b505192915050565b306001600160a01b0316638da5cb5b6040518163ffffffff1660e01b815260040160206040518083038186803b1580156126c557600080fd5b505afa1580156126d9573d6000803e3d6000fd5b505050506040513d60208110156126ef57600080fd5b50516001600160a01b0316331480156127155750600254600160e81b900460ff16600314155b612759576040805162461bcd60e51b815260206004820152601060248201526f3737ba1030b1ba34bb329037bbb732b960811b604482015290519081900360640190fd5b600c54600160301b900460ff16156127b0576040805162461bcd60e51b81526020600482015260156024820152741a5b9a195c9a5d185b98d9481858dd1a5d985d1959605a1b604482015290519081900360640190fd5b60006127ba6148a4565b600c5490915064ffffffffff1663ffffffff8316146127ea57600c805464ffffffffff191663ffffffff84161790555b600c5465010000000000900460ff16151560011461281a57600c805465ff00000000001916650100000000001790555b600c80546bffffffffff000000000000001916600160381b64ffffffffff841602179055604080516302d05d3f60e01b81529051339130916302d05d3f91600480820192602092909190829003018186803b15801561287857600080fd5b505afa15801561288c573d6000803e3d6000fd5b505050506040513d60208110156128a257600080fd5b50516040805163ffffffff8616815264ffffffffff8516602082015281516001600160a01b03909316927f219376dc9430460f83af8f607e5c09085e95b4d8096b01b231afc1ee7958d5e2929181900390910190a35050565b640312e322e360dc1b90565b306001600160a01b0316638da5cb5b6040518163ffffffff1660e01b815260040160206040518083038186803b15801561294057600080fd5b505afa158015612954573d6000803e3d6000fd5b505050506040513d602081101561296a57600080fd5b50516001600160a01b0316331480156129905750600254600160e81b900460ff16600314155b6129d4576040805162461bcd60e51b815260206004820152601060248201526f3737ba1030b1ba34bb329037bbb732b960811b604482015290519081900360640190fd5b6001600160a01b038216612a1b576040805162461bcd60e51b815260206004820152600960248201526806e6f206261636b75760bc1b604482015290519081900360640190fd5b6000546001600160a01b0383811691161415612a70576040805162461bcd60e51b815260206004820152600f60248201526e3130b1b5bab81034b99037bbb732b960891b604482015290519081900360640190fd5b6002546001600160a01b03838116911614612c8d576002546001600160a01b031615612b6257306001600160a01b03166302d05d3f6040518163ffffffff1660e01b815260040160206040518083038186803b158015612acf57600080fd5b505afa158015612ae3573d6000803e3d6000fd5b505050506040513d6020811015612af957600080fd5b50516002546040805163cf2f774160e01b81526001600160a01b0392831660048201529051919092169163cf2f774191602480830192600092919082900301818387803b158015612b4957600080fd5b505af1158015612b5d573d6000803e3d6000fd5b505050505b600280546001600160a01b0319166001600160a01b038416179055604080516302d05d3f60e01b8152905130916302d05d3f916004808301926020929190829003018186803b158015612bb457600080fd5b505afa158015612bc8573d6000803e3d6000fd5b505050506040513d6020811015612bde57600080fd5b50516040805163a196de8360e01b81526001600160a01b0385811660048301529151919092169163a196de8391602480830192600092919082900301818387803b158015612c2b57600080fd5b505af1158015612c3f573d6000803e3d6000fd5b5050600254600160e81b900460ff16159150612c659050576002805460ff60e81b191690555b600254600160a01b900464ffffffffff1615612c8d576002805464ffffffffff60a01b191690555b60025463ffffffff828116600160c81b9092041614612cc5576002805463ffffffff60c81b1916600160c81b63ffffffff8416021790555b60028054600160e81b900460ff161415612d0957612ce16148a4565b6002805464ffffffffff92909216600160a01b0264ffffffffff60a01b199092169190911790555b600054604080516302d05d3f60e01b815290516001600160a01b0380861693169130916302d05d3f91600480820192602092909190829003018186803b158015612d5257600080fd5b505afa158015612d66573d6000803e3d6000fd5b505050506040513d6020811015612d7c57600080fd5b50516002546040805163ffffffff87168152600160a01b830464ffffffffff166020820152600160e81b90920460ff1682820152516001600160a01b03909216917fea8790173f54c9b092a2e436f8aa3840b46da469df3b5161893625d09bfc54e5916060908290030190a45050565b604080516370a0823160e01b815230600482015290516000916001600160a01b038416916370a0823191602480820192602092909190829003018186803b15801561265a57600080fd5b6000546001600160a01b031690565b6000546001600160a01b0316331490565b306001600160a01b03166302d05d3f6040518163ffffffff1660e01b815260040160206040518083038186803b158015612e8f57600080fd5b505afa158015612ea3573d6000803e3d6000fd5b505050506040513d6020811015612eb957600080fd5b50516001600160a01b03163314612490576040805162461bcd60e51b815260206004820152600b60248201526a3737ba1031b932b0ba37b960a91b604482015290519081900360640190fd5b306001600160a01b0316638da5cb5b6040518163ffffffff1660e01b815260040160206040518083038186803b158015612f3e57600080fd5b505afa158015612f52573d6000803e3d6000fd5b505050506040513d6020811015612f6857600080fd5b50516001600160a01b031633148015612f8e5750600254600160e81b900460ff16600314155b612fd2576040805162461bcd60e51b815260206004820152601060248201526f3737ba1030b1ba34bb329037bbb732b960811b604482015290519081900360640190fd5b612fdf8360008484610aac565b505050565b600254600160a01b900464ffffffffff1690565b6000806130036148a4565b600c54909150600160381b900464ffffffffff16158015906130395750600c5464ffffffffff600160381b909104811690821610155b801561305a5750600c5464ffffffffff600160381b82048116830381169116115b15611b2f57600c5464ffffffffff600160381b82048116830391160391505090565b306001600160a01b0316638da5cb5b6040518163ffffffff1660e01b815260040160206040518083038186803b1580156130b557600080fd5b505afa1580156130c9573d6000803e3d6000fd5b505050506040513d60208110156130df57600080fd5b50516001600160a01b0316331480156131055750600254600160e81b900460ff16600314155b613149576040805162461bcd60e51b815260206004820152601060248201526f3737ba1030b1ba34bb329037bbb732b960811b604482015290519081900360640190fd5b6001600160a01b038516613194576040805162461bcd60e51b815260206004820152600d60248201526c05f746f6b656e2069732030783609c1b604482015290519081900360640190fd5b60006001600160a01b038516156131ab57846131ad565b305b9050836001600160a01b0316866001600160a01b0316306001600160a01b03166302d05d3f6040518163ffffffff1660e01b815260040160206040518083038186803b1580156131fc57600080fd5b505afa158015613210573d6000803e3d6000fd5b505050506040513d602081101561322657600080fd5b5051604080516001600160a01b03868116825260208281018a90526060938301848152895194840194909452885191909416937fc604e07085b3abf38e6f3918d5247f94fdde3c9b2ad1dbf93421ae055c34d8239388938b938b9391929160808401919085019080838360005b838110156132ab578181015183820152602001613293565b50505050905090810190601f1680156132d85780820380516001836020036101000a031916815260200191505b5094505050505060405180910390a4604051635c46a7ef60e11b815230600482018181526001600160a01b03878116602485015260448401879052608060648501908152865160848601528651918b169463b88d4fde94938a938a938a93909160a490910190602085019080838360005b83811015613361578181015183820152602001613349565b50505050905090810190601f16801561338e5780820380516001836020036101000a031916815260200191505b5095505050505050600060405180830381600087803b1580156133b057600080fd5b505af11580156133c4573d6000803e3d6000fd5b50505050505050505050565b6000546001600160a01b03163314806133f357506002546001600160a01b031633145b613444576040805162461bcd60e51b815260206004820152601860248201527f6e656974686572206f776e6572206e6f72206261636b75700000000000000000604482015290519081900360640190fd5b600254600160e81b900460ff166001146134a5576040805162461bcd60e51b815260206004820152601560248201527f6261636b7570206e6f7420726567697374657265640000000000000000000000604482015290519081900360640190fd5b60006134af6148a4565b6002805460ff60e81b1916600160e91b1764ffffffffff60a01b1916600160a01b64ffffffffff8416021790819055604080516302d05d3f60e01b815290519293506001600160a01b039091169130916302d05d3f916004808301926020929190829003018186803b15801561352457600080fd5b505afa158015613538573d6000803e3d6000fd5b505050506040513d602081101561354e57600080fd5b50516002546040805164ffffffffff86168152600160e81b90920460ff16602083015280516001600160a01b03909316927f6108265a31b1c1ca2c7f424e7e33437d70ea2dbefdd8ee475060d1bdd0a85bf39281900390910190a350565b6002546001600160a01b031633146135f8576040805162461bcd60e51b815260206004820152600a60248201526906e6f74206261636b75760b41b604482015290519081900360640190fd5b600254600160e81b900460ff161561364c576040805162461bcd60e51b81526020600482015260126024820152716261636b7570206e6f742070656e64696e6760701b604482015290519081900360640190fd5b6124906148a8565b600c5464ffffffffff1690565b306001600160a01b0316638da5cb5b6040518163ffffffff1660e01b815260040160206040518083038186803b15801561369a57600080fd5b505afa1580156136ae573d6000803e3d6000fd5b505050506040513d60208110156136c457600080fd5b50516001600160a01b0316331480156136ea5750600254600160e81b900460ff16600314155b61372e576040805162461bcd60e51b815260206004820152601060248201526f3737ba1030b1ba34bb329037bbb732b960811b604482015290519081900360640190fd5b6001600160a01b038416613779576040805162461bcd60e51b815260206004820152600d60248201526c05f746f6b656e2069732030783609c1b604482015290519081900360640190fd5b60006001600160a01b038416156137905783613792565b305b9050826001600160a01b0316856001600160a01b0316306001600160a01b03166302d05d3f6040518163ffffffff1660e01b815260040160206040518083038186803b1580156137e157600080fd5b505afa1580156137f5573d6000803e3d6000fd5b505050506040513d602081101561380b57600080fd5b5051604080516001600160a01b0386811682526020820188905282519316927fd3c84574047e20dd5aac4c7a9e0b36668586ab67fae246b0259385a8d68ff832929181900390910190a4604080516323b872dd60e01b81526001600160a01b0386811660048301528581166024830152604482018590529151918716916323b872dd916064808201926020929091908290030181600087803b1580156138b057600080fd5b505af11580156138c4573d6000803e3d6000fd5b505050506040513d60208110156138da57600080fd5b50505050505050565b306001600160a01b0316638da5cb5b6040518163ffffffff1660e01b815260040160206040518083038186803b15801561391c57600080fd5b505afa158015613930573d6000803e3d6000fd5b505050506040513d602081101561394657600080fd5b50516001600160a01b03163314801561396c5750600254600160e81b900460ff16600314155b6139b0576040805162461bcd60e51b815260206004820152601060248201526f3737ba1030b1ba34bb329037bbb732b960811b604482015290519081900360640190fd5b600081116139f2576040805162461bcd60e51b815260206004820152600a602482015269076616c7565203d3d20360b41b604482015290519081900360640190fd5b47811115613a39576040805162461bcd60e51b815260206004820152600f60248201526e76616c7565203e2062616c616e636560881b604482015290519081900360640190fd5b816001600160a01b0316306001600160a01b0316306001600160a01b03166302d05d3f6040518163ffffffff1660e01b815260040160206040518083038186803b158015613a8657600080fd5b505afa158015613a9a573d6000803e3d6000fd5b505050506040513d6020811015613ab057600080fd5b50516040805185815290516001600160a01b03909216917f3be46aed611cf5224bae34b9b31732c6f1ea767507681489b72839b6425b9e3a9181900360200190a46040516001600160a01b0383169082156108fc029083906000818181858888f19350505050158015612fdf573d6000803e3d6000fd5b6000546001600160a01b03163314613b72576040805162461bcd60e51b81526020600482015260096024820152683737ba1037bbb732b960b91b604482015290519081900360640190fd5b600254600160e81b900460ff16600314613bca576040805162461bcd60e51b8152602060048201526014602482015273189858dadd5c081b9bdd081858dd1a5d985d195960621b604482015290519081900360640190fd5b6002805460ff60e81b1916600160e81b1790819055600054604080516302d05d3f60e01b815290516001600160a01b0393841693929092169130916302d05d3f916004808301926020929190829003018186803b158015613c2a57600080fd5b505afa158015613c3e573d6000803e3d6000fd5b505050506040513d6020811015613c5457600080fd5b505160025460408051600160e81b90920460ff168252516001600160a01b03909216917f7bb264af598eac77bc57cdad3b10f6eddc737a116ef45e864d3626346dcb23b4916020908290030190a4565b600080613caf6148a4565b600254909150600160a01b900464ffffffffff1615801590613ce5575060025464ffffffffff600160a01b909104811690821610155b8015613d125750600254600160a01b810464ffffffffff908116830316600160c81b90910463ffffffff16115b15611b2f57600254600160a01b810464ffffffffff16909103600160c81b90910463ffffffff1603919050565b600c5465010000000000900460ff16151560011490565b6001546001600160a01b031690565b6000306001600160a01b03166302d05d3f6040518163ffffffff1660e01b815260040160206040518083038186803b158015613da057600080fd5b505afa158015613db4573d6000803e3d6000fd5b505050506040513d6020811015613dca57600080fd5b5051604080516307dc0d1d60e41b815290516001600160a01b0390921691637dc0d1d091600480820192602092909190829003018186803b158015613e0e57600080fd5b505afa158015613e22573d6000803e3d6000fd5b505050506040513d6020811015613e3857600080fd5b505160408051631bf80eb160e31b81526001600160a01b0385811660048301529151919092169163dfc07588916024808301926020929190829003018186803b15801561265a57600080fd5b600281565b306001600160a01b0316638da5cb5b6040518163ffffffff1660e01b815260040160206040518083038186803b158015613ec257600080fd5b505afa158015613ed6573d6000803e3d6000fd5b505050506040513d6020811015613eec57600080fd5b50516001600160a01b031633148015613f125750600254600160e81b900460ff16600314155b613f56576040805162461bcd60e51b815260206004820152601060248201526f3737ba1030b1ba34bb329037bbb732b960811b604482015290519081900360640190fd5b600c54600160301b900460ff1615613fad576040805162461bcd60e51b81526020600482015260156024820152741a5b9a195c9a5d185b98d9481858dd1a5d985d1959605a1b604482015290519081900360640190fd5b600882511115613ff5576040805162461bcd60e51b815260206004820152600e60248201526d746f6f206d616e7920686569727360901b604482015290519081900360640190fd5b805182511461404b576040805162461bcd60e51b815260206004820152601960248201527f686569727320616e642062707320646f6e2774206d6174636800000000000000604482015290519081900360640190fd5b6000805b835181101561415b5782818151811061406457fe5b602002602001015161ffff168201915060006001600160a01b031684828151811061408b57fe5b60200260200101516001600160a01b031614156140d9576040805162461bcd60e51b81526020600482015260076024820152663737903432b4b960c91b604482015290519081900360640190fd5b306001600160a01b03168482815181106140ef57fe5b60200260200101516001600160a01b03161415614153576040805162461bcd60e51b815260206004820152601860248201527f63757272656e7420636f6e747261637420697320686569720000000000000000604482015290519081900360640190fd5b60010161404f565b61271082111561419f576040805162461bcd60e51b815260206004820152600a602482015269746f74616c3e3130302560b01b604482015290519081900360640190fd5b5060005b83518110156142a1576000600482600881106141bb57fe5b0190508482815181106141ca57fe5b602090810291909101015181546001600160a01b0390811691161461421b578482815181106141f557fe5b602090810291909101015181546001600160a01b0319166001600160a01b039091161781555b83828151811061422757fe5b60209081029190910101518154600160a81b900461ffff90811691161461427b5783828151811061425457fe5b6020908102919091010151815461ffff909116600160a81b0261ffff60a81b199091161781555b8054600160a01b900460ff161561429857805460ff60a01b191681555b506001016141a3565b60078110156142de576000600482600881106142b957fe5b0180549091506001600160a01b0316156142dc5780546001600160a01b03191681555b505b60608167ffffffffffffffff811180156142f757600080fd5b50604051908082528060200260200182016040528015614321578160200160208202803683370190505b50905060608267ffffffffffffffff8111801561433d57600080fd5b50604051908082528060200260200182016040528015614367578160200160208202803683370190505b50905060005b838110156143fd5760006004826008811061438457fe5b01805485519192506001600160a01b0316908590849081106143a257fe5b60200260200101906001600160a01b031690816001600160a01b0316815250508060000160159054906101000a900461ffff168383815181106143e157fe5b61ffff909216602092830291909101909101525060010161436d565b50336001600160a01b0316306001600160a01b03166302d05d3f6040518163ffffffff1660e01b815260040160206040518083038186803b15801561444157600080fd5b505afa158015614455573d6000803e3d6000fd5b505050506040513d602081101561446b57600080fd5b50516040805181815285519181019190915284516001600160a01b03909216917fa52c4f91db65575e6917fd3e55dc251bf777970366ade6b0df9abc78e0345df591869186919081906020828101916060840191878101910280838360005b838110156144e25781810151838201526020016144ca565b50505050905001838103825284818151815260200191508051906020019060200280838360005b83811015614521578181015183820152602001614509565b5050505090500194505050505060405180910390a3505050505050565b6000546001600160a01b03163314614589576040805162461bcd60e51b81526020600482015260096024820152683737ba1037bbb732b960b91b604482015290519081900360640190fd5b6002546001600160a01b031661364c576040805162461bcd60e51b815260206004820152601060248201526f189858dadd5c081b9bdd08195e1a5cdd60821b604482015290519081900360640190fd5b306001600160a01b03166302d05d3f6040518163ffffffff1660e01b815260040160206040518083038186803b15801561461257600080fd5b505afa158015614626573d6000803e3d6000fd5b505050506040513d602081101561463c57600080fd5b50516001600160a01b03163314614688576040805162461bcd60e51b815260206004820152600b60248201526a3737ba1031b932b0ba37b960a91b604482015290519081900360640190fd5b6000546001600160a01b038381169116148015906146ae57506001600160a01b03821615155b156146cf57600080546001600160a01b0319166001600160a01b0384161790555b6001546001600160a01b038281169116148015906146f557506001600160a01b03811615155b1561471657600180546001600160a01b0319166001600160a01b0383161790555b5050565b600254600160e81b900460ff1690565b600081565b600c54600160301b900460ff16151560011490565b6000546001600160a01b0316331461478f576040805162461bcd60e51b81526020600482015260096024820152683737ba1037bbb732b960b91b604482015290519081900360640190fd5b306001600160a01b03166302d05d3f6040518163ffffffff1660e01b815260040160206040518083038186803b1580156147c857600080fd5b505afa1580156147dc573d6000803e3d6000fd5b505050506040513d60208110156147f257600080fd5b5051604080516318beb60960e31b81526001600160c01b03198416600482015290516001600160a01b039092169163c5f5b0489160248082019260009290919082900301818387803b15801561484757600080fd5b505af115801561188e573d6000803e3d6000fd5b600061489d83836040518060400160405280601e81526020017f536166654d6174683a207375627472616374696f6e206f766572666c6f770000815250614ac5565b9392505050565b4290565b6002546001600160a01b0316801561499357306001600160a01b03166302d05d3f6040518163ffffffff1660e01b815260040160206040518083038186803b1580156148f357600080fd5b505afa158015614907573d6000803e3d6000fd5b505050506040513d602081101561491d57600080fd5b50516040805163cf2f774160e01b81526001600160a01b0384811660048301529151919092169163cf2f774191602480830192600092919082900301818387803b15801561496a57600080fd5b505af115801561497e573d6000803e3d6000fd5b5050600280546001600160a01b031916905550505b600254600160c81b900463ffffffff16156149b9576002805463ffffffff60c81b191690555b600254600160a01b900464ffffffffff16156149e1576002805464ffffffffff60a01b191690555b600254600160e81b900460ff1615614a01576002805460ff60e81b191690555b600054604080516302d05d3f60e01b815290516001600160a01b0380851693169130916302d05d3f91600480820192602092909190829003018186803b158015614a4a57600080fd5b505afa158015614a5e573d6000803e3d6000fd5b505050506040513d6020811015614a7457600080fd5b505160025460408051600160e81b90920460ff168252516001600160a01b03909216917f7e9b775ba644794a5770a533d5fc90e00b98f998e81c66fce5d7f4e1bc3d8718916020908290030190a450565b60008184841115614b545760405162461bcd60e51b81526004018080602001828103825283818151815260200191508051906020019080838360005b83811015614b19578181015183820152602001614b01565b50505050905090810190601f168015614b465780820380516001836020036101000a031916815260200191505b509250505060405180910390fd5b505050900390565b604051806101000160405280600890602082028036833750919291505056fea2646970667358221220d5a277e1e029059584f5250d87e791e294d69d1956d4942cb5795c200e1c033264736f6c634300060b0033",
  "source": "// SPDX-License-Identifier: UNLICENSED\n\npragma solidity 0.6.11;\n\n//import \"openzeppelin-solidity/contracts/math/SafeMath.sol\";\nimport \"../node_modules/openzeppelin-solidity/contracts/token/ERC20/IERC20.sol\";\nimport \"../node_modules/openzeppelin-solidity/contracts/token/ERC721/IERC721.sol\";\nimport \"../node_modules/openzeppelin-solidity/contracts/token/ERC721/IERC721Receiver.sol\";\n\nimport \"./lib/IOracle.sol\";\nimport \"./lib/Heritable.sol\";\n//import \"./Trust.sol\";\n\ncontract Wallet is IStorage, Heritable {\n    //using SafeMath for uint256;\n\n    event SentEther     (address indexed creator, address indexed owner, address indexed to, uint256 value);\n    event Transfer20    (address indexed creator, address indexed token, address from, address indexed to, uint256 value);\n    event Transfer721   (address indexed creator, address indexed token, address from, address indexed to, uint256 id, bytes data);\n\n    function sendEther (address payable _to, uint256 _value) public onlyActiveOwner() {\n        require (_value > 0, \"value == 0\");\n        require (_value <= address(this).balance, \"value > balance\");\n        emit SentEther (this.creator(), address(this), _to, _value);\n        _to.transfer (_value);\n    }\n\n    function transfer20 (address _token, address _to, uint256 _value) public onlyActiveOwner() {\n        require(_token != address(0), \"_token is 0x0\");\n        emit Transfer20 (this.creator(), _token, address(this), _to, _value);\n        IERC20(_token).transfer(_to, _value);\n    }\n\n    function transferFrom20 (address _token, address _from, address _to, uint256 _value) public onlyActiveOwner() {\n        require(_token != address(0), \"_token is 0x0\");\n        address from = _from == address(0) ? address(this): address(_from);\n        emit Transfer20 (this.creator(), _token, from, _to, _value);\n        IERC20(_token).transferFrom(_from, _to, _value);\n    }\n\n    function transfer721 (address _token, address _to, uint256 _value) public onlyActiveOwner() {\n        transferFrom721 (_token, address(0), _to, _value);\n    }\n\n    function transferFrom721 (address _token, address _from, address _to, uint256 _id) public onlyActiveOwner() {\n        require(_token != address(0), \"_token is 0x0\");\n        address from = _from == address(0) ? address(this): address(_from);\n        emit Transfer721 (this.creator(), _token, from, _to, _id, \"\");\n        IERC721(_token).transferFrom(address(this), _to, _id);\n    }\n\n    function safeTransferFrom721 (address _token, address _from, address _to, uint256 _id) public onlyActiveOwner() {\n        require(_token != address(0), \"_token is 0x0\");\n        address from = _from == address(0) ? address(this): address(_from);\n        emit Transfer721 (this.creator(), _token, from, _to, _id, \"\");\n        IERC721(_token).safeTransferFrom(address(this), _to, _id);\n    }\n\n    function safeTransferFrom721$Data (address _token, address _from, address _to, uint256 _id, bytes memory _data) public onlyActiveOwner() {\n        require(_token != address(0), \"_token is 0x0\");\n        address from = _from == address(0) ? address(this): address(_from);\n        emit Transfer721 (this.creator(), _token, from, _to, _id, _data);\n        IERC721(_token).safeTransferFrom(address(this), _to, _id, _data);\n    }\n\n    function getBalance () public view returns (uint256) {\n        return address(this).balance;\n    }\n\n    function balanceOf20 (address _token) public view returns (uint256) {\n        return IERC20(_token).balanceOf(address(this));\n    }\n\n    function balanceOf721 (address _token) public view returns (uint256) {\n        return IERC721(_token).balanceOf(address(this));\n    }\n\n    function is20Safe (address _token) public view returns (bool) {\n        return IOracle(ICreator(this.creator()).oracle()).is20Safe(_token);\n    }\n\n    function is721Safe (address _token) public view returns (bool) {\n        return IOracle(ICreator(this.creator()).oracle()).is721Safe(_token);\n    }\n\n    //function onERC721Received(address operator, address from, uint256 tokenId, bytes data) public returns (bytes4) {\n    function onERC721Received (address, address, uint256, bytes memory) public pure returns (bytes4) {\n        return this.onERC721Received.selector;\n    }\n\n    /*\n    function createTrust(address _wallet, uint40 _start, uint32 _period, uint16 _times, uint256 _amount, bool _cancelable) payable public {\n        require(trust == Trust(0));\n        trust = (new Trust).value(_amount.mul(_times))(_wallet, _start, _period, _times, _amount, _cancelable);\n    }\n\n    function destroyTrust() public {\n        require(trust != Trust(0));\n        trust.destroy();\n        trust = Trust(0);\n    }\n\n    function getTrust() public view returns (Trust) {\n        return trust;\n    }\n    */\n\n    // IStorage Implementation\n    function migrate () external onlyCreator() override {}\n\n    function version() public pure override returns (bytes8){\n        return bytes8(\"1.2.0\");\n    }\n\n}\n",
  "sourcePath": "/home/tal/code/kirobo/ki-eth-contracts/contracts/Wallet.sol",
  "compiler": {
    "name": "solc",
    "version": "0.6.11+commit.5ef660b1.Emscripten.clang"
  },
  "schemaVersion": "3.0.23",
  "updatedAt": "2020-07-20T14:16:41.881Z",
  "networkType": "ethereum",
  "devdoc": {
    "kind": "dev",
    "methods": {},
    "version": 1
  },
  "userdoc": {
    "kind": "user",
    "methods": {},
    "version": 1
  }
}